{
	"ExceptionHandlingWxamole.sol": {
		"ExceptionHandlingExample": {
			"abi": [
				{
					"inputs": [],
					"name": "ReceiveMoney",
					"outputs": [],
					"stateMutability": "payable",
					"type": "function"
				},
				{
					"inputs": [
						{
							"internalType": "address payable",
							"name": "_to",
							"type": "address"
						},
						{
							"internalType": "uint256",
							"name": "_amount",
							"type": "uint256"
						}
					],
					"name": "WithdrawMoney",
					"outputs": [],
					"stateMutability": "nonpayable",
					"type": "function"
				},
				{
					"inputs": [
						{
							"internalType": "address",
							"name": "",
							"type": "address"
						}
					],
					"name": "balanceReceived",
					"outputs": [
						{
							"internalType": "uint256",
							"name": "",
							"type": "uint256"
						}
					],
					"stateMutability": "view",
					"type": "function"
				}
			],
			"devdoc": {
				"kind": "dev",
				"methods": {},
				"version": 1
			},
			"evm": {
				"assembly": "    /* \"ExceptionHandlingWxamole.sol\":25:500  contract ExceptionHandlingExample {\r... */\n  mstore(0x40, 0x80)\n  callvalue\n  dup1\n  iszero\n  tag_1\n  jumpi\n  0x00\n  dup1\n  revert\ntag_1:\n  pop\n  dataSize(sub_0)\n  dup1\n  dataOffset(sub_0)\n  0x00\n  codecopy\n  0x00\n  return\nstop\n\nsub_0: assembly {\n        /* \"ExceptionHandlingWxamole.sol\":25:500  contract ExceptionHandlingExample {\r... */\n      mstore(0x40, 0x80)\n      jumpi(tag_1, lt(calldatasize, 0x04))\n      shr(0xe0, calldataload(0x00))\n      dup1\n      0x9fe2db21\n      eq\n      tag_2\n      jumpi\n      dup1\n      0xa29e0a94\n      eq\n      tag_3\n      jumpi\n      dup1\n      0xd18a42e1\n      eq\n      tag_4\n      jumpi\n    tag_1:\n      0x00\n      dup1\n      revert\n        /* \"ExceptionHandlingWxamole.sol\":230:497  function WithdrawMoney (address payable _to, uint _amount) public{\r... */\n    tag_2:\n      callvalue\n      dup1\n      iszero\n      tag_5\n      jumpi\n      0x00\n      dup1\n      revert\n    tag_5:\n      pop\n      tag_6\n      0x04\n      dup1\n      calldatasize\n      sub\n      dup2\n      add\n      swap1\n      tag_7\n      swap2\n      swap1\n      tag_8\n      jump\t// in\n    tag_7:\n      tag_9\n      jump\t// in\n    tag_6:\n      stop\n        /* \"ExceptionHandlingWxamole.sol\":123:224  function ReceiveMoney() public payable {\r... */\n    tag_3:\n      tag_10\n      tag_11\n      jump\t// in\n    tag_10:\n      stop\n        /* \"ExceptionHandlingWxamole.sol\":66:114  mapping (address => uint) public balanceReceived */\n    tag_4:\n      callvalue\n      dup1\n      iszero\n      tag_12\n      jumpi\n      0x00\n      dup1\n      revert\n    tag_12:\n      pop\n      tag_13\n      0x04\n      dup1\n      calldatasize\n      sub\n      dup2\n      add\n      swap1\n      tag_14\n      swap2\n      swap1\n      tag_15\n      jump\t// in\n    tag_14:\n      tag_16\n      jump\t// in\n    tag_13:\n      mload(0x40)\n      tag_17\n      swap2\n      swap1\n      tag_18\n      jump\t// in\n    tag_17:\n      mload(0x40)\n      dup1\n      swap2\n      sub\n      swap1\n      return\n        /* \"ExceptionHandlingWxamole.sol\":230:497  function WithdrawMoney (address payable _to, uint _amount) public{\r... */\n    tag_9:\n        /* \"ExceptionHandlingWxamole.sol\":326:341  balanceReceived */\n      0x00\n        /* \"ExceptionHandlingWxamole.sol\":326:353  balanceReceived[msg.sender] */\n      dup1\n        /* \"ExceptionHandlingWxamole.sol\":342:352  msg.sender */\n      caller\n        /* \"ExceptionHandlingWxamole.sol\":326:353  balanceReceived[msg.sender] */\n      0xffffffffffffffffffffffffffffffffffffffff\n      and\n      0xffffffffffffffffffffffffffffffffffffffff\n      and\n      dup2\n      mstore\n      0x20\n      add\n      swap1\n      dup2\n      mstore\n      0x20\n      add\n      0x00\n      keccak256\n      sload\n        /* \"ExceptionHandlingWxamole.sol\":315:322  _amount */\n      dup2\n        /* \"ExceptionHandlingWxamole.sol\":315:353  _amount <= balanceReceived[msg.sender] */\n      gt\n      iszero\n        /* \"ExceptionHandlingWxamole.sol\":306:384  require (_amount <= balanceReceived[msg.sender], \"Not Enough Funds, aborting\") */\n      tag_20\n      jumpi\n      mload(0x40)\n      0x08c379a000000000000000000000000000000000000000000000000000000000\n      dup2\n      mstore\n      0x04\n      add\n      tag_21\n      swap1\n      tag_22\n      jump\t// in\n    tag_21:\n      mload(0x40)\n      dup1\n      swap2\n      sub\n      swap1\n      revert\n    tag_20:\n        /* \"ExceptionHandlingWxamole.sol\":430:437  _amount */\n      dup1\n        /* \"ExceptionHandlingWxamole.sol\":399:414  balanceReceived */\n      0x00\n        /* \"ExceptionHandlingWxamole.sol\":399:426  balanceReceived[msg.sender] */\n      dup1\n        /* \"ExceptionHandlingWxamole.sol\":415:425  msg.sender */\n      caller\n        /* \"ExceptionHandlingWxamole.sol\":399:426  balanceReceived[msg.sender] */\n      0xffffffffffffffffffffffffffffffffffffffff\n      and\n      0xffffffffffffffffffffffffffffffffffffffff\n      and\n      dup2\n      mstore\n      0x20\n      add\n      swap1\n      dup2\n      mstore\n      0x20\n      add\n      0x00\n      keccak256\n      0x00\n        /* \"ExceptionHandlingWxamole.sol\":399:437  balanceReceived[msg.sender] -= _amount */\n      dup3\n      dup3\n      sload\n      tag_23\n      swap2\n      swap1\n      tag_24\n      jump\t// in\n    tag_23:\n      swap3\n      pop\n      pop\n      dup2\n      swap1\n      sstore\n      pop\n        /* \"ExceptionHandlingWxamole.sol\":452:455  _to */\n      dup2\n        /* \"ExceptionHandlingWxamole.sol\":452:464  _to.transfer */\n      0xffffffffffffffffffffffffffffffffffffffff\n      and\n        /* \"ExceptionHandlingWxamole.sol\":452:473  _to.transfer(_amount) */\n      0x08fc\n        /* \"ExceptionHandlingWxamole.sol\":465:472  _amount */\n      dup3\n        /* \"ExceptionHandlingWxamole.sol\":452:473  _to.transfer(_amount) */\n      swap1\n      dup2\n      iszero\n      mul\n      swap1\n      mload(0x40)\n      0x00\n      mload(0x40)\n      dup1\n      dup4\n      sub\n      dup2\n      dup6\n      dup9\n      dup9\n      call\n      swap4\n      pop\n      pop\n      pop\n      pop\n      iszero\n      dup1\n      iszero\n      tag_26\n      jumpi\n      returndatasize\n      0x00\n      dup1\n      returndatacopy\n      revert(0x00, returndatasize)\n    tag_26:\n      pop\n        /* \"ExceptionHandlingWxamole.sol\":230:497  function WithdrawMoney (address payable _to, uint _amount) public{\r... */\n      pop\n      pop\n      jump\t// out\n        /* \"ExceptionHandlingWxamole.sol\":123:224  function ReceiveMoney() public payable {\r... */\n    tag_11:\n        /* \"ExceptionHandlingWxamole.sol\":205:214  msg.value */\n      callvalue\n        /* \"ExceptionHandlingWxamole.sol\":173:188  balanceReceived */\n      0x00\n        /* \"ExceptionHandlingWxamole.sol\":173:201  balanceReceived [msg.sender] */\n      dup1\n        /* \"ExceptionHandlingWxamole.sol\":190:200  msg.sender */\n      caller\n        /* \"ExceptionHandlingWxamole.sol\":173:201  balanceReceived [msg.sender] */\n      0xffffffffffffffffffffffffffffffffffffffff\n      and\n      0xffffffffffffffffffffffffffffffffffffffff\n      and\n      dup2\n      mstore\n      0x20\n      add\n      swap1\n      dup2\n      mstore\n      0x20\n      add\n      0x00\n      keccak256\n      0x00\n        /* \"ExceptionHandlingWxamole.sol\":173:214  balanceReceived [msg.sender] += msg.value */\n      dup3\n      dup3\n      sload\n      tag_28\n      swap2\n      swap1\n      tag_29\n      jump\t// in\n    tag_28:\n      swap3\n      pop\n      pop\n      dup2\n      swap1\n      sstore\n      pop\n        /* \"ExceptionHandlingWxamole.sol\":123:224  function ReceiveMoney() public payable {\r... */\n      jump\t// out\n        /* \"ExceptionHandlingWxamole.sol\":66:114  mapping (address => uint) public balanceReceived */\n    tag_16:\n      mstore(0x20, 0x00)\n      dup1\n      0x00\n      mstore\n      keccak256(0x00, 0x40)\n      0x00\n      swap2\n      pop\n      swap1\n      pop\n      sload\n      dup2\n      jump\t// out\n        /* \"#utility.yul\":7:146   */\n    tag_31:\n        /* \"#utility.yul\":53:58   */\n      0x00\n        /* \"#utility.yul\":91:97   */\n      dup2\n        /* \"#utility.yul\":78:98   */\n      calldataload\n        /* \"#utility.yul\":69:98   */\n      swap1\n      pop\n        /* \"#utility.yul\":107:140   */\n      tag_33\n        /* \"#utility.yul\":134:139   */\n      dup2\n        /* \"#utility.yul\":107:140   */\n      tag_34\n      jump\t// in\n    tag_33:\n        /* \"#utility.yul\":7:146   */\n      swap3\n      swap2\n      pop\n      pop\n      jump\t// out\n        /* \"#utility.yul\":152:307   */\n    tag_35:\n        /* \"#utility.yul\":206:211   */\n      0x00\n        /* \"#utility.yul\":244:250   */\n      dup2\n        /* \"#utility.yul\":231:251   */\n      calldataload\n        /* \"#utility.yul\":222:251   */\n      swap1\n      pop\n        /* \"#utility.yul\":260:301   */\n      tag_37\n        /* \"#utility.yul\":295:300   */\n      dup2\n        /* \"#utility.yul\":260:301   */\n      tag_38\n      jump\t// in\n    tag_37:\n        /* \"#utility.yul\":152:307   */\n      swap3\n      swap2\n      pop\n      pop\n      jump\t// out\n        /* \"#utility.yul\":313:452   */\n    tag_39:\n        /* \"#utility.yul\":359:364   */\n      0x00\n        /* \"#utility.yul\":397:403   */\n      dup2\n        /* \"#utility.yul\":384:404   */\n      calldataload\n        /* \"#utility.yul\":375:404   */\n      swap1\n      pop\n        /* \"#utility.yul\":413:446   */\n      tag_41\n        /* \"#utility.yul\":440:445   */\n      dup2\n        /* \"#utility.yul\":413:446   */\n      tag_42\n      jump\t// in\n    tag_41:\n        /* \"#utility.yul\":313:452   */\n      swap3\n      swap2\n      pop\n      pop\n      jump\t// out\n        /* \"#utility.yul\":458:787   */\n    tag_15:\n        /* \"#utility.yul\":517:523   */\n      0x00\n        /* \"#utility.yul\":566:568   */\n      0x20\n        /* \"#utility.yul\":554:563   */\n      dup3\n        /* \"#utility.yul\":545:552   */\n      dup5\n        /* \"#utility.yul\":541:564   */\n      sub\n        /* \"#utility.yul\":537:569   */\n      slt\n        /* \"#utility.yul\":534:653   */\n      iszero\n      tag_44\n      jumpi\n        /* \"#utility.yul\":572:651   */\n      tag_45\n      tag_46\n      jump\t// in\n    tag_45:\n        /* \"#utility.yul\":534:653   */\n    tag_44:\n        /* \"#utility.yul\":692:693   */\n      0x00\n        /* \"#utility.yul\":717:770   */\n      tag_47\n        /* \"#utility.yul\":762:769   */\n      dup5\n        /* \"#utility.yul\":753:759   */\n      dup3\n        /* \"#utility.yul\":742:751   */\n      dup6\n        /* \"#utility.yul\":738:760   */\n      add\n        /* \"#utility.yul\":717:770   */\n      tag_31\n      jump\t// in\n    tag_47:\n        /* \"#utility.yul\":707:770   */\n      swap2\n      pop\n        /* \"#utility.yul\":663:780   */\n      pop\n        /* \"#utility.yul\":458:787   */\n      swap3\n      swap2\n      pop\n      pop\n      jump\t// out\n        /* \"#utility.yul\":793:1283   */\n    tag_8:\n        /* \"#utility.yul\":869:875   */\n      0x00\n        /* \"#utility.yul\":877:883   */\n      dup1\n        /* \"#utility.yul\":926:928   */\n      0x40\n        /* \"#utility.yul\":914:923   */\n      dup4\n        /* \"#utility.yul\":905:912   */\n      dup6\n        /* \"#utility.yul\":901:924   */\n      sub\n        /* \"#utility.yul\":897:929   */\n      slt\n        /* \"#utility.yul\":894:1013   */\n      iszero\n      tag_49\n      jumpi\n        /* \"#utility.yul\":932:1011   */\n      tag_50\n      tag_46\n      jump\t// in\n    tag_50:\n        /* \"#utility.yul\":894:1013   */\n    tag_49:\n        /* \"#utility.yul\":1052:1053   */\n      0x00\n        /* \"#utility.yul\":1077:1138   */\n      tag_51\n        /* \"#utility.yul\":1130:1137   */\n      dup6\n        /* \"#utility.yul\":1121:1127   */\n      dup3\n        /* \"#utility.yul\":1110:1119   */\n      dup7\n        /* \"#utility.yul\":1106:1128   */\n      add\n        /* \"#utility.yul\":1077:1138   */\n      tag_35\n      jump\t// in\n    tag_51:\n        /* \"#utility.yul\":1067:1138   */\n      swap3\n      pop\n        /* \"#utility.yul\":1023:1148   */\n      pop\n        /* \"#utility.yul\":1187:1189   */\n      0x20\n        /* \"#utility.yul\":1213:1266   */\n      tag_52\n        /* \"#utility.yul\":1258:1265   */\n      dup6\n        /* \"#utility.yul\":1249:1255   */\n      dup3\n        /* \"#utility.yul\":1238:1247   */\n      dup7\n        /* \"#utility.yul\":1234:1256   */\n      add\n        /* \"#utility.yul\":1213:1266   */\n      tag_39\n      jump\t// in\n    tag_52:\n        /* \"#utility.yul\":1203:1266   */\n      swap2\n      pop\n        /* \"#utility.yul\":1158:1276   */\n      pop\n        /* \"#utility.yul\":793:1283   */\n      swap3\n      pop\n      swap3\n      swap1\n      pop\n      jump\t// out\n        /* \"#utility.yul\":1289:1655   */\n    tag_53:\n        /* \"#utility.yul\":1431:1434   */\n      0x00\n        /* \"#utility.yul\":1452:1519   */\n      tag_55\n        /* \"#utility.yul\":1516:1518   */\n      0x1a\n        /* \"#utility.yul\":1511:1514   */\n      dup4\n        /* \"#utility.yul\":1452:1519   */\n      tag_56\n      jump\t// in\n    tag_55:\n        /* \"#utility.yul\":1445:1519   */\n      swap2\n      pop\n        /* \"#utility.yul\":1528:1621   */\n      tag_57\n        /* \"#utility.yul\":1617:1620   */\n      dup3\n        /* \"#utility.yul\":1528:1621   */\n      tag_58\n      jump\t// in\n    tag_57:\n        /* \"#utility.yul\":1646:1648   */\n      0x20\n        /* \"#utility.yul\":1641:1644   */\n      dup3\n        /* \"#utility.yul\":1637:1649   */\n      add\n        /* \"#utility.yul\":1630:1649   */\n      swap1\n      pop\n        /* \"#utility.yul\":1289:1655   */\n      swap2\n      swap1\n      pop\n      jump\t// out\n        /* \"#utility.yul\":1661:1779   */\n    tag_59:\n        /* \"#utility.yul\":1748:1772   */\n      tag_61\n        /* \"#utility.yul\":1766:1771   */\n      dup2\n        /* \"#utility.yul\":1748:1772   */\n      tag_62\n      jump\t// in\n    tag_61:\n        /* \"#utility.yul\":1743:1746   */\n      dup3\n        /* \"#utility.yul\":1736:1773   */\n      mstore\n        /* \"#utility.yul\":1661:1779   */\n      pop\n      pop\n      jump\t// out\n        /* \"#utility.yul\":1785:2204   */\n    tag_22:\n        /* \"#utility.yul\":1951:1955   */\n      0x00\n        /* \"#utility.yul\":1989:1991   */\n      0x20\n        /* \"#utility.yul\":1978:1987   */\n      dup3\n        /* \"#utility.yul\":1974:1992   */\n      add\n        /* \"#utility.yul\":1966:1992   */\n      swap1\n      pop\n        /* \"#utility.yul\":2038:2047   */\n      dup2\n        /* \"#utility.yul\":2032:2036   */\n      dup2\n        /* \"#utility.yul\":2028:2048   */\n      sub\n        /* \"#utility.yul\":2024:2025   */\n      0x00\n        /* \"#utility.yul\":2013:2022   */\n      dup4\n        /* \"#utility.yul\":2009:2026   */\n      add\n        /* \"#utility.yul\":2002:2049   */\n      mstore\n        /* \"#utility.yul\":2066:2197   */\n      tag_64\n        /* \"#utility.yul\":2192:2196   */\n      dup2\n        /* \"#utility.yul\":2066:2197   */\n      tag_53\n      jump\t// in\n    tag_64:\n        /* \"#utility.yul\":2058:2197   */\n      swap1\n      pop\n        /* \"#utility.yul\":1785:2204   */\n      swap2\n      swap1\n      pop\n      jump\t// out\n        /* \"#utility.yul\":2210:2432   */\n    tag_18:\n        /* \"#utility.yul\":2303:2307   */\n      0x00\n        /* \"#utility.yul\":2341:2343   */\n      0x20\n        /* \"#utility.yul\":2330:2339   */\n      dup3\n        /* \"#utility.yul\":2326:2344   */\n      add\n        /* \"#utility.yul\":2318:2344   */\n      swap1\n      pop\n        /* \"#utility.yul\":2354:2425   */\n      tag_66\n        /* \"#utility.yul\":2422:2423   */\n      0x00\n        /* \"#utility.yul\":2411:2420   */\n      dup4\n        /* \"#utility.yul\":2407:2424   */\n      add\n        /* \"#utility.yul\":2398:2404   */\n      dup5\n        /* \"#utility.yul\":2354:2425   */\n      tag_59\n      jump\t// in\n    tag_66:\n        /* \"#utility.yul\":2210:2432   */\n      swap3\n      swap2\n      pop\n      pop\n      jump\t// out\n        /* \"#utility.yul\":2519:2688   */\n    tag_56:\n        /* \"#utility.yul\":2603:2614   */\n      0x00\n        /* \"#utility.yul\":2637:2643   */\n      dup3\n        /* \"#utility.yul\":2632:2635   */\n      dup3\n        /* \"#utility.yul\":2625:2644   */\n      mstore\n        /* \"#utility.yul\":2677:2681   */\n      0x20\n        /* \"#utility.yul\":2672:2675   */\n      dup3\n        /* \"#utility.yul\":2668:2682   */\n      add\n        /* \"#utility.yul\":2653:2682   */\n      swap1\n      pop\n        /* \"#utility.yul\":2519:2688   */\n      swap3\n      swap2\n      pop\n      pop\n      jump\t// out\n        /* \"#utility.yul\":2694:2999   */\n    tag_29:\n        /* \"#utility.yul\":2734:2737   */\n      0x00\n        /* \"#utility.yul\":2753:2773   */\n      tag_71\n        /* \"#utility.yul\":2771:2772   */\n      dup3\n        /* \"#utility.yul\":2753:2773   */\n      tag_62\n      jump\t// in\n    tag_71:\n        /* \"#utility.yul\":2748:2773   */\n      swap2\n      pop\n        /* \"#utility.yul\":2787:2807   */\n      tag_72\n        /* \"#utility.yul\":2805:2806   */\n      dup4\n        /* \"#utility.yul\":2787:2807   */\n      tag_62\n      jump\t// in\n    tag_72:\n        /* \"#utility.yul\":2782:2807   */\n      swap3\n      pop\n        /* \"#utility.yul\":2941:2942   */\n      dup3\n        /* \"#utility.yul\":2873:2939   */\n      0xffffffffffffffffffffffffffffffffffffffffffffffffffffffffffffffff\n        /* \"#utility.yul\":2869:2943   */\n      sub\n        /* \"#utility.yul\":2866:2867   */\n      dup3\n        /* \"#utility.yul\":2863:2944   */\n      gt\n        /* \"#utility.yul\":2860:2967   */\n      iszero\n      tag_73\n      jumpi\n        /* \"#utility.yul\":2947:2965   */\n      tag_74\n      tag_75\n      jump\t// in\n    tag_74:\n        /* \"#utility.yul\":2860:2967   */\n    tag_73:\n        /* \"#utility.yul\":2991:2992   */\n      dup3\n        /* \"#utility.yul\":2988:2989   */\n      dup3\n        /* \"#utility.yul\":2984:2993   */\n      add\n        /* \"#utility.yul\":2977:2993   */\n      swap1\n      pop\n        /* \"#utility.yul\":2694:2999   */\n      swap3\n      swap2\n      pop\n      pop\n      jump\t// out\n        /* \"#utility.yul\":3005:3196   */\n    tag_24:\n        /* \"#utility.yul\":3045:3049   */\n      0x00\n        /* \"#utility.yul\":3065:3085   */\n      tag_77\n        /* \"#utility.yul\":3083:3084   */\n      dup3\n        /* \"#utility.yul\":3065:3085   */\n      tag_62\n      jump\t// in\n    tag_77:\n        /* \"#utility.yul\":3060:3085   */\n      swap2\n      pop\n        /* \"#utility.yul\":3099:3119   */\n      tag_78\n        /* \"#utility.yul\":3117:3118   */\n      dup4\n        /* \"#utility.yul\":3099:3119   */\n      tag_62\n      jump\t// in\n    tag_78:\n        /* \"#utility.yul\":3094:3119   */\n      swap3\n      pop\n        /* \"#utility.yul\":3138:3139   */\n      dup3\n        /* \"#utility.yul\":3135:3136   */\n      dup3\n        /* \"#utility.yul\":3132:3140   */\n      lt\n        /* \"#utility.yul\":3129:3163   */\n      iszero\n      tag_79\n      jumpi\n        /* \"#utility.yul\":3143:3161   */\n      tag_80\n      tag_75\n      jump\t// in\n    tag_80:\n        /* \"#utility.yul\":3129:3163   */\n    tag_79:\n        /* \"#utility.yul\":3188:3189   */\n      dup3\n        /* \"#utility.yul\":3185:3186   */\n      dup3\n        /* \"#utility.yul\":3181:3190   */\n      sub\n        /* \"#utility.yul\":3173:3190   */\n      swap1\n      pop\n        /* \"#utility.yul\":3005:3196   */\n      swap3\n      swap2\n      pop\n      pop\n      jump\t// out\n        /* \"#utility.yul\":3202:3298   */\n    tag_81:\n        /* \"#utility.yul\":3239:3246   */\n      0x00\n        /* \"#utility.yul\":3268:3292   */\n      tag_83\n        /* \"#utility.yul\":3286:3291   */\n      dup3\n        /* \"#utility.yul\":3268:3292   */\n      tag_84\n      jump\t// in\n    tag_83:\n        /* \"#utility.yul\":3257:3292   */\n      swap1\n      pop\n        /* \"#utility.yul\":3202:3298   */\n      swap2\n      swap1\n      pop\n      jump\t// out\n        /* \"#utility.yul\":3304:3408   */\n    tag_85:\n        /* \"#utility.yul\":3349:3356   */\n      0x00\n        /* \"#utility.yul\":3378:3402   */\n      tag_87\n        /* \"#utility.yul\":3396:3401   */\n      dup3\n        /* \"#utility.yul\":3378:3402   */\n      tag_84\n      jump\t// in\n    tag_87:\n        /* \"#utility.yul\":3367:3402   */\n      swap1\n      pop\n        /* \"#utility.yul\":3304:3408   */\n      swap2\n      swap1\n      pop\n      jump\t// out\n        /* \"#utility.yul\":3414:3540   */\n    tag_84:\n        /* \"#utility.yul\":3451:3458   */\n      0x00\n        /* \"#utility.yul\":3491:3533   */\n      0xffffffffffffffffffffffffffffffffffffffff\n        /* \"#utility.yul\":3484:3489   */\n      dup3\n        /* \"#utility.yul\":3480:3534   */\n      and\n        /* \"#utility.yul\":3469:3534   */\n      swap1\n      pop\n        /* \"#utility.yul\":3414:3540   */\n      swap2\n      swap1\n      pop\n      jump\t// out\n        /* \"#utility.yul\":3546:3623   */\n    tag_62:\n        /* \"#utility.yul\":3583:3590   */\n      0x00\n        /* \"#utility.yul\":3612:3617   */\n      dup2\n        /* \"#utility.yul\":3601:3617   */\n      swap1\n      pop\n        /* \"#utility.yul\":3546:3623   */\n      swap2\n      swap1\n      pop\n      jump\t// out\n        /* \"#utility.yul\":3629:3809   */\n    tag_75:\n        /* \"#utility.yul\":3677:3754   */\n      0x4e487b7100000000000000000000000000000000000000000000000000000000\n        /* \"#utility.yul\":3674:3675   */\n      0x00\n        /* \"#utility.yul\":3667:3755   */\n      mstore\n        /* \"#utility.yul\":3774:3778   */\n      0x11\n        /* \"#utility.yul\":3771:3772   */\n      0x04\n        /* \"#utility.yul\":3764:3779   */\n      mstore\n        /* \"#utility.yul\":3798:3802   */\n      0x24\n        /* \"#utility.yul\":3795:3796   */\n      0x00\n        /* \"#utility.yul\":3788:3803   */\n      revert\n        /* \"#utility.yul\":3938:4055   */\n    tag_46:\n        /* \"#utility.yul\":4047:4048   */\n      0x00\n        /* \"#utility.yul\":4044:4045   */\n      dup1\n        /* \"#utility.yul\":4037:4049   */\n      revert\n        /* \"#utility.yul\":4061:4237   */\n    tag_58:\n        /* \"#utility.yul\":4201:4229   */\n      0x4e6f7420456e6f7567682046756e64732c2061626f7274696e67000000000000\n        /* \"#utility.yul\":4197:4198   */\n      0x00\n        /* \"#utility.yul\":4189:4195   */\n      dup3\n        /* \"#utility.yul\":4185:4199   */\n      add\n        /* \"#utility.yul\":4178:4230   */\n      mstore\n        /* \"#utility.yul\":4061:4237   */\n      pop\n      jump\t// out\n        /* \"#utility.yul\":4243:4365   */\n    tag_34:\n        /* \"#utility.yul\":4316:4340   */\n      tag_96\n        /* \"#utility.yul\":4334:4339   */\n      dup2\n        /* \"#utility.yul\":4316:4340   */\n      tag_81\n      jump\t// in\n    tag_96:\n        /* \"#utility.yul\":4309:4314   */\n      dup2\n        /* \"#utility.yul\":4306:4341   */\n      eq\n        /* \"#utility.yul\":4296:4359   */\n      tag_97\n      jumpi\n        /* \"#utility.yul\":4355:4356   */\n      0x00\n        /* \"#utility.yul\":4352:4353   */\n      dup1\n        /* \"#utility.yul\":4345:4357   */\n      revert\n        /* \"#utility.yul\":4296:4359   */\n    tag_97:\n        /* \"#utility.yul\":4243:4365   */\n      pop\n      jump\t// out\n        /* \"#utility.yul\":4371:4509   */\n    tag_38:\n        /* \"#utility.yul\":4452:4484   */\n      tag_99\n        /* \"#utility.yul\":4478:4483   */\n      dup2\n        /* \"#utility.yul\":4452:4484   */\n      tag_85\n      jump\t// in\n    tag_99:\n        /* \"#utility.yul\":4445:4450   */\n      dup2\n        /* \"#utility.yul\":4442:4485   */\n      eq\n        /* \"#utility.yul\":4432:4503   */\n      tag_100\n      jumpi\n        /* \"#utility.yul\":4499:4500   */\n      0x00\n        /* \"#utility.yul\":4496:4497   */\n      dup1\n        /* \"#utility.yul\":4489:4501   */\n      revert\n        /* \"#utility.yul\":4432:4503   */\n    tag_100:\n        /* \"#utility.yul\":4371:4509   */\n      pop\n      jump\t// out\n        /* \"#utility.yul\":4515:4637   */\n    tag_42:\n        /* \"#utility.yul\":4588:4612   */\n      tag_102\n        /* \"#utility.yul\":4606:4611   */\n      dup2\n        /* \"#utility.yul\":4588:4612   */\n      tag_62\n      jump\t// in\n    tag_102:\n        /* \"#utility.yul\":4581:4586   */\n      dup2\n        /* \"#utility.yul\":4578:4613   */\n      eq\n        /* \"#utility.yul\":4568:4631   */\n      tag_103\n      jumpi\n        /* \"#utility.yul\":4627:4628   */\n      0x00\n        /* \"#utility.yul\":4624:4625   */\n      dup1\n        /* \"#utility.yul\":4617:4629   */\n      revert\n        /* \"#utility.yul\":4568:4631   */\n    tag_103:\n        /* \"#utility.yul\":4515:4637   */\n      pop\n      jump\t// out\n\n    auxdata: 0xa2646970667358221220592da9d38a5620ddf1614a29405f8f9153f253e0a93c68970f364c6434621cb164736f6c63430008070033\n}\n",
				"bytecode": {
					"linkReferences": {},
					"object": "608060405234801561001057600080fd5b50610513806100206000396000f3fe6080604052600436106100345760003560e01c80639fe2db2114610039578063a29e0a9414610062578063d18a42e11461006c575b600080fd5b34801561004557600080fd5b50610060600480360381019061005b91906102a5565b6100a9565b005b61006a6101ca565b005b34801561007857600080fd5b50610093600480360381019061008e9190610278565b610221565b6040516100a09190610337565b60405180910390f35b6000803373ffffffffffffffffffffffffffffffffffffffff1673ffffffffffffffffffffffffffffffffffffffff1681526020019081526020016000205481111561012a576040517f08c379a000000000000000000000000000000000000000000000000000000000815260040161012190610317565b60405180910390fd5b806000803373ffffffffffffffffffffffffffffffffffffffff1673ffffffffffffffffffffffffffffffffffffffff168152602001908152602001600020600082825461017891906103b9565b925050819055508173ffffffffffffffffffffffffffffffffffffffff166108fc829081150290604051600060405180830381858888f193505050501580156101c5573d6000803e3d6000fd5b505050565b346000803373ffffffffffffffffffffffffffffffffffffffff1673ffffffffffffffffffffffffffffffffffffffff16815260200190815260200160002060008282546102189190610363565b92505081905550565b60006020528060005260406000206000915090505481565b60008135905061024881610498565b92915050565b60008135905061025d816104af565b92915050565b600081359050610272816104c6565b92915050565b60006020828403121561028e5761028d61046a565b5b600061029c84828501610239565b91505092915050565b600080604083850312156102bc576102bb61046a565b5b60006102ca8582860161024e565b92505060206102db85828601610263565b9150509250929050565b60006102f2601a83610352565b91506102fd8261046f565b602082019050919050565b61031181610431565b82525050565b60006020820190508181036000830152610330816102e5565b9050919050565b600060208201905061034c6000830184610308565b92915050565b600082825260208201905092915050565b600061036e82610431565b915061037983610431565b9250827fffffffffffffffffffffffffffffffffffffffffffffffffffffffffffffffff038211156103ae576103ad61043b565b5b828201905092915050565b60006103c482610431565b91506103cf83610431565b9250828210156103e2576103e161043b565b5b828203905092915050565b60006103f882610411565b9050919050565b600061040a82610411565b9050919050565b600073ffffffffffffffffffffffffffffffffffffffff82169050919050565b6000819050919050565b7f4e487b7100000000000000000000000000000000000000000000000000000000600052601160045260246000fd5b600080fd5b7f4e6f7420456e6f7567682046756e64732c2061626f7274696e67000000000000600082015250565b6104a1816103ed565b81146104ac57600080fd5b50565b6104b8816103ff565b81146104c357600080fd5b50565b6104cf81610431565b81146104da57600080fd5b5056fea2646970667358221220592da9d38a5620ddf1614a29405f8f9153f253e0a93c68970f364c6434621cb164736f6c63430008070033",
					"opcodes": "PUSH1 0x80 PUSH1 0x40 MSTORE CALLVALUE DUP1 ISZERO PUSH2 0x10 JUMPI PUSH1 0x0 DUP1 REVERT JUMPDEST POP PUSH2 0x513 DUP1 PUSH2 0x20 PUSH1 0x0 CODECOPY PUSH1 0x0 RETURN INVALID PUSH1 0x80 PUSH1 0x40 MSTORE PUSH1 0x4 CALLDATASIZE LT PUSH2 0x34 JUMPI PUSH1 0x0 CALLDATALOAD PUSH1 0xE0 SHR DUP1 PUSH4 0x9FE2DB21 EQ PUSH2 0x39 JUMPI DUP1 PUSH4 0xA29E0A94 EQ PUSH2 0x62 JUMPI DUP1 PUSH4 0xD18A42E1 EQ PUSH2 0x6C JUMPI JUMPDEST PUSH1 0x0 DUP1 REVERT JUMPDEST CALLVALUE DUP1 ISZERO PUSH2 0x45 JUMPI PUSH1 0x0 DUP1 REVERT JUMPDEST POP PUSH2 0x60 PUSH1 0x4 DUP1 CALLDATASIZE SUB DUP2 ADD SWAP1 PUSH2 0x5B SWAP2 SWAP1 PUSH2 0x2A5 JUMP JUMPDEST PUSH2 0xA9 JUMP JUMPDEST STOP JUMPDEST PUSH2 0x6A PUSH2 0x1CA JUMP JUMPDEST STOP JUMPDEST CALLVALUE DUP1 ISZERO PUSH2 0x78 JUMPI PUSH1 0x0 DUP1 REVERT JUMPDEST POP PUSH2 0x93 PUSH1 0x4 DUP1 CALLDATASIZE SUB DUP2 ADD SWAP1 PUSH2 0x8E SWAP2 SWAP1 PUSH2 0x278 JUMP JUMPDEST PUSH2 0x221 JUMP JUMPDEST PUSH1 0x40 MLOAD PUSH2 0xA0 SWAP2 SWAP1 PUSH2 0x337 JUMP JUMPDEST PUSH1 0x40 MLOAD DUP1 SWAP2 SUB SWAP1 RETURN JUMPDEST PUSH1 0x0 DUP1 CALLER PUSH20 0xFFFFFFFFFFFFFFFFFFFFFFFFFFFFFFFFFFFFFFFF AND PUSH20 0xFFFFFFFFFFFFFFFFFFFFFFFFFFFFFFFFFFFFFFFF AND DUP2 MSTORE PUSH1 0x20 ADD SWAP1 DUP2 MSTORE PUSH1 0x20 ADD PUSH1 0x0 KECCAK256 SLOAD DUP2 GT ISZERO PUSH2 0x12A JUMPI PUSH1 0x40 MLOAD PUSH32 0x8C379A000000000000000000000000000000000000000000000000000000000 DUP2 MSTORE PUSH1 0x4 ADD PUSH2 0x121 SWAP1 PUSH2 0x317 JUMP JUMPDEST PUSH1 0x40 MLOAD DUP1 SWAP2 SUB SWAP1 REVERT JUMPDEST DUP1 PUSH1 0x0 DUP1 CALLER PUSH20 0xFFFFFFFFFFFFFFFFFFFFFFFFFFFFFFFFFFFFFFFF AND PUSH20 0xFFFFFFFFFFFFFFFFFFFFFFFFFFFFFFFFFFFFFFFF AND DUP2 MSTORE PUSH1 0x20 ADD SWAP1 DUP2 MSTORE PUSH1 0x20 ADD PUSH1 0x0 KECCAK256 PUSH1 0x0 DUP3 DUP3 SLOAD PUSH2 0x178 SWAP2 SWAP1 PUSH2 0x3B9 JUMP JUMPDEST SWAP3 POP POP DUP2 SWAP1 SSTORE POP DUP2 PUSH20 0xFFFFFFFFFFFFFFFFFFFFFFFFFFFFFFFFFFFFFFFF AND PUSH2 0x8FC DUP3 SWAP1 DUP2 ISZERO MUL SWAP1 PUSH1 0x40 MLOAD PUSH1 0x0 PUSH1 0x40 MLOAD DUP1 DUP4 SUB DUP2 DUP6 DUP9 DUP9 CALL SWAP4 POP POP POP POP ISZERO DUP1 ISZERO PUSH2 0x1C5 JUMPI RETURNDATASIZE PUSH1 0x0 DUP1 RETURNDATACOPY RETURNDATASIZE PUSH1 0x0 REVERT JUMPDEST POP POP POP JUMP JUMPDEST CALLVALUE PUSH1 0x0 DUP1 CALLER PUSH20 0xFFFFFFFFFFFFFFFFFFFFFFFFFFFFFFFFFFFFFFFF AND PUSH20 0xFFFFFFFFFFFFFFFFFFFFFFFFFFFFFFFFFFFFFFFF AND DUP2 MSTORE PUSH1 0x20 ADD SWAP1 DUP2 MSTORE PUSH1 0x20 ADD PUSH1 0x0 KECCAK256 PUSH1 0x0 DUP3 DUP3 SLOAD PUSH2 0x218 SWAP2 SWAP1 PUSH2 0x363 JUMP JUMPDEST SWAP3 POP POP DUP2 SWAP1 SSTORE POP JUMP JUMPDEST PUSH1 0x0 PUSH1 0x20 MSTORE DUP1 PUSH1 0x0 MSTORE PUSH1 0x40 PUSH1 0x0 KECCAK256 PUSH1 0x0 SWAP2 POP SWAP1 POP SLOAD DUP2 JUMP JUMPDEST PUSH1 0x0 DUP2 CALLDATALOAD SWAP1 POP PUSH2 0x248 DUP2 PUSH2 0x498 JUMP JUMPDEST SWAP3 SWAP2 POP POP JUMP JUMPDEST PUSH1 0x0 DUP2 CALLDATALOAD SWAP1 POP PUSH2 0x25D DUP2 PUSH2 0x4AF JUMP JUMPDEST SWAP3 SWAP2 POP POP JUMP JUMPDEST PUSH1 0x0 DUP2 CALLDATALOAD SWAP1 POP PUSH2 0x272 DUP2 PUSH2 0x4C6 JUMP JUMPDEST SWAP3 SWAP2 POP POP JUMP JUMPDEST PUSH1 0x0 PUSH1 0x20 DUP3 DUP5 SUB SLT ISZERO PUSH2 0x28E JUMPI PUSH2 0x28D PUSH2 0x46A JUMP JUMPDEST JUMPDEST PUSH1 0x0 PUSH2 0x29C DUP5 DUP3 DUP6 ADD PUSH2 0x239 JUMP JUMPDEST SWAP2 POP POP SWAP3 SWAP2 POP POP JUMP JUMPDEST PUSH1 0x0 DUP1 PUSH1 0x40 DUP4 DUP6 SUB SLT ISZERO PUSH2 0x2BC JUMPI PUSH2 0x2BB PUSH2 0x46A JUMP JUMPDEST JUMPDEST PUSH1 0x0 PUSH2 0x2CA DUP6 DUP3 DUP7 ADD PUSH2 0x24E JUMP JUMPDEST SWAP3 POP POP PUSH1 0x20 PUSH2 0x2DB DUP6 DUP3 DUP7 ADD PUSH2 0x263 JUMP JUMPDEST SWAP2 POP POP SWAP3 POP SWAP3 SWAP1 POP JUMP JUMPDEST PUSH1 0x0 PUSH2 0x2F2 PUSH1 0x1A DUP4 PUSH2 0x352 JUMP JUMPDEST SWAP2 POP PUSH2 0x2FD DUP3 PUSH2 0x46F JUMP JUMPDEST PUSH1 0x20 DUP3 ADD SWAP1 POP SWAP2 SWAP1 POP JUMP JUMPDEST PUSH2 0x311 DUP2 PUSH2 0x431 JUMP JUMPDEST DUP3 MSTORE POP POP JUMP JUMPDEST PUSH1 0x0 PUSH1 0x20 DUP3 ADD SWAP1 POP DUP2 DUP2 SUB PUSH1 0x0 DUP4 ADD MSTORE PUSH2 0x330 DUP2 PUSH2 0x2E5 JUMP JUMPDEST SWAP1 POP SWAP2 SWAP1 POP JUMP JUMPDEST PUSH1 0x0 PUSH1 0x20 DUP3 ADD SWAP1 POP PUSH2 0x34C PUSH1 0x0 DUP4 ADD DUP5 PUSH2 0x308 JUMP JUMPDEST SWAP3 SWAP2 POP POP JUMP JUMPDEST PUSH1 0x0 DUP3 DUP3 MSTORE PUSH1 0x20 DUP3 ADD SWAP1 POP SWAP3 SWAP2 POP POP JUMP JUMPDEST PUSH1 0x0 PUSH2 0x36E DUP3 PUSH2 0x431 JUMP JUMPDEST SWAP2 POP PUSH2 0x379 DUP4 PUSH2 0x431 JUMP JUMPDEST SWAP3 POP DUP3 PUSH32 0xFFFFFFFFFFFFFFFFFFFFFFFFFFFFFFFFFFFFFFFFFFFFFFFFFFFFFFFFFFFFFFFF SUB DUP3 GT ISZERO PUSH2 0x3AE JUMPI PUSH2 0x3AD PUSH2 0x43B JUMP JUMPDEST JUMPDEST DUP3 DUP3 ADD SWAP1 POP SWAP3 SWAP2 POP POP JUMP JUMPDEST PUSH1 0x0 PUSH2 0x3C4 DUP3 PUSH2 0x431 JUMP JUMPDEST SWAP2 POP PUSH2 0x3CF DUP4 PUSH2 0x431 JUMP JUMPDEST SWAP3 POP DUP3 DUP3 LT ISZERO PUSH2 0x3E2 JUMPI PUSH2 0x3E1 PUSH2 0x43B JUMP JUMPDEST JUMPDEST DUP3 DUP3 SUB SWAP1 POP SWAP3 SWAP2 POP POP JUMP JUMPDEST PUSH1 0x0 PUSH2 0x3F8 DUP3 PUSH2 0x411 JUMP JUMPDEST SWAP1 POP SWAP2 SWAP1 POP JUMP JUMPDEST PUSH1 0x0 PUSH2 0x40A DUP3 PUSH2 0x411 JUMP JUMPDEST SWAP1 POP SWAP2 SWAP1 POP JUMP JUMPDEST PUSH1 0x0 PUSH20 0xFFFFFFFFFFFFFFFFFFFFFFFFFFFFFFFFFFFFFFFF DUP3 AND SWAP1 POP SWAP2 SWAP1 POP JUMP JUMPDEST PUSH1 0x0 DUP2 SWAP1 POP SWAP2 SWAP1 POP JUMP JUMPDEST PUSH32 0x4E487B7100000000000000000000000000000000000000000000000000000000 PUSH1 0x0 MSTORE PUSH1 0x11 PUSH1 0x4 MSTORE PUSH1 0x24 PUSH1 0x0 REVERT JUMPDEST PUSH1 0x0 DUP1 REVERT JUMPDEST PUSH32 0x4E6F7420456E6F7567682046756E64732C2061626F7274696E67000000000000 PUSH1 0x0 DUP3 ADD MSTORE POP JUMP JUMPDEST PUSH2 0x4A1 DUP2 PUSH2 0x3ED JUMP JUMPDEST DUP2 EQ PUSH2 0x4AC JUMPI PUSH1 0x0 DUP1 REVERT JUMPDEST POP JUMP JUMPDEST PUSH2 0x4B8 DUP2 PUSH2 0x3FF JUMP JUMPDEST DUP2 EQ PUSH2 0x4C3 JUMPI PUSH1 0x0 DUP1 REVERT JUMPDEST POP JUMP JUMPDEST PUSH2 0x4CF DUP2 PUSH2 0x431 JUMP JUMPDEST DUP2 EQ PUSH2 0x4DA JUMPI PUSH1 0x0 DUP1 REVERT JUMPDEST POP JUMP INVALID LOG2 PUSH5 0x6970667358 0x22 SLT KECCAK256 MSIZE 0x2D 0xA9 0xD3 DUP11 JUMP KECCAK256 0xDD CALL PUSH2 0x4A29 BLOCKHASH 0x5F DUP16 SWAP2 MSTORE8 CALLCODE MSTORE8 0xE0 0xA9 EXTCODECOPY PUSH9 0x970F364C6434621CB1 PUSH5 0x736F6C6343 STOP ADDMOD SMOD STOP CALLER "
				},
				"gasEstimates": {
					"creation": {
						"codeDepositCost": "259800",
						"executionCost": "300",
						"totalCost": "260100"
					},
					"external": {
						"ReceiveMoney()": "infinite",
						"WithdrawMoney(address,uint256)": "infinite",
						"balanceReceived(address)": "2836"
					}
				},
				"methodIdentifiers": {
					"ReceiveMoney()": "a29e0a94",
					"WithdrawMoney(address,uint256)": "9fe2db21",
					"balanceReceived(address)": "d18a42e1"
				}
			},
			"storageLayout": {
				"storage": [
					{
						"astId": 5,
						"contract": "ExceptionHandlingWxamole.sol:ExceptionHandlingExample",
						"label": "balanceReceived",
						"offset": 0,
						"slot": "0",
						"type": "t_mapping(t_address,t_uint256)"
					}
				],
				"types": {
					"t_address": {
						"encoding": "inplace",
						"label": "address",
						"numberOfBytes": "20"
					},
					"t_mapping(t_address,t_uint256)": {
						"encoding": "mapping",
						"key": "t_address",
						"label": "mapping(address => uint256)",
						"numberOfBytes": "32",
						"value": "t_uint256"
					},
					"t_uint256": {
						"encoding": "inplace",
						"label": "uint256",
						"numberOfBytes": "32"
					}
				}
			},
			"userdoc": {
				"kind": "user",
				"methods": {},
				"version": 1
			}
		}
	}
}