{
	"variables.sol": {
		"WorkingWithVariables": {
			"abi": [
				{
					"inputs": [],
					"name": "decrementUint",
					"outputs": [],
					"stateMutability": "nonpayable",
					"type": "function"
				},
				{
					"inputs": [],
					"name": "incrementUint",
					"outputs": [],
					"stateMutability": "nonpayable",
					"type": "function"
				},
				{
					"inputs": [],
					"name": "myAddress",
					"outputs": [
						{
							"internalType": "address",
							"name": "",
							"type": "address"
						}
					],
					"stateMutability": "view",
					"type": "function"
				},
				{
					"inputs": [],
					"name": "myBool",
					"outputs": [
						{
							"internalType": "bool",
							"name": "",
							"type": "bool"
						}
					],
					"stateMutability": "view",
					"type": "function"
				},
				{
					"inputs": [],
					"name": "myUint",
					"outputs": [
						{
							"internalType": "uint256",
							"name": "",
							"type": "uint256"
						}
					],
					"stateMutability": "view",
					"type": "function"
				},
				{
					"inputs": [],
					"name": "myUint8",
					"outputs": [
						{
							"internalType": "uint8",
							"name": "",
							"type": "uint8"
						}
					],
					"stateMutability": "view",
					"type": "function"
				},
				{
					"inputs": [
						{
							"internalType": "bool",
							"name": "_myBool",
							"type": "bool"
						}
					],
					"name": "setMyBool",
					"outputs": [],
					"stateMutability": "nonpayable",
					"type": "function"
				},
				{
					"inputs": [
						{
							"internalType": "uint256",
							"name": "_myUint",
							"type": "uint256"
						}
					],
					"name": "setMyUint",
					"outputs": [],
					"stateMutability": "nonpayable",
					"type": "function"
				}
			],
			"devdoc": {
				"kind": "dev",
				"methods": {},
				"version": 1
			},
			"evm": {
				"assembly": "    /* \"variables.sol\":25:499  contract WorkingWithVariables {\r... */\n  mstore(0x40, 0x80)\n  callvalue\n  dup1\n  iszero\n  tag_1\n  jumpi\n  0x00\n  dup1\n  revert\ntag_1:\n  pop\n  dataSize(sub_0)\n  dup1\n  dataOffset(sub_0)\n  0x00\n  codecopy\n  0x00\n  return\nstop\n\nsub_0: assembly {\n        /* \"variables.sol\":25:499  contract WorkingWithVariables {\r... */\n      mstore(0x40, 0x80)\n      callvalue\n      dup1\n      iszero\n      tag_1\n      jumpi\n      0x00\n      dup1\n      revert\n    tag_1:\n      pop\n      jumpi(tag_2, lt(calldatasize, 0x04))\n      shr(0xe0, calldataload(0x00))\n      dup1\n      0xda50eaee\n      gt\n      tag_11\n      jumpi\n      dup1\n      0xda50eaee\n      eq\n      tag_7\n      jumpi\n      dup1\n      0xe2a4b2af\n      eq\n      tag_8\n      jumpi\n      dup1\n      0xe492fd84\n      eq\n      tag_9\n      jumpi\n      dup1\n      0xeb1b30d9\n      eq\n      tag_10\n      jumpi\n      jump(tag_2)\n    tag_11:\n      dup1\n      0x06540f7e\n      eq\n      tag_3\n      jumpi\n      dup1\n      0x14bf43bd\n      eq\n      tag_4\n      jumpi\n      dup1\n      0x26b85ee1\n      eq\n      tag_5\n      jumpi\n      dup1\n      0x6deecdbe\n      eq\n      tag_6\n      jumpi\n    tag_2:\n      0x00\n      dup1\n      revert\n        /* \"variables.sol\":62:83  uint256 public myUint */\n    tag_3:\n      tag_12\n      tag_13\n      jump\t// in\n    tag_12:\n      mload(0x40)\n      tag_14\n      swap2\n      swap1\n      tag_15\n      jump\t// in\n    tag_14:\n      mload(0x40)\n      dup1\n      swap2\n      sub\n      swap1\n      return\n        /* \"variables.sol\":323:384  function incrementUint() public{\r... */\n    tag_4:\n      tag_16\n      tag_17\n      jump\t// in\n    tag_16:\n      stop\n        /* \"variables.sol\":464:488  address public myAddress */\n    tag_5:\n      tag_18\n      tag_19\n      jump\t// in\n    tag_18:\n      mload(0x40)\n      tag_20\n      swap2\n      swap1\n      tag_21\n      jump\t// in\n    tag_20:\n      mload(0x40)\n      dup1\n      swap2\n      sub\n      swap1\n      return\n        /* \"variables.sol\":174:192  bool public myBool */\n    tag_6:\n      tag_22\n      tag_23\n      jump\t// in\n    tag_22:\n      mload(0x40)\n      tag_24\n      swap2\n      swap1\n      tag_25\n      jump\t// in\n    tag_24:\n      mload(0x40)\n      dup1\n      swap2\n      sub\n      swap1\n      return\n        /* \"variables.sol\":393:455  function decrementUint() public {\r... */\n    tag_7:\n      tag_26\n      tag_27\n      jump\t// in\n    tag_26:\n      stop\n        /* \"variables.sol\":295:315  uint8 public myUint8 */\n    tag_8:\n      tag_28\n      tag_29\n      jump\t// in\n    tag_28:\n      mload(0x40)\n      tag_30\n      swap2\n      swap1\n      tag_31\n      jump\t// in\n    tag_30:\n      mload(0x40)\n      dup1\n      swap2\n      sub\n      swap1\n      return\n        /* \"variables.sol\":92:166  function setMyUint(uint _myUint) public {\r... */\n    tag_9:\n      tag_32\n      0x04\n      dup1\n      calldatasize\n      sub\n      dup2\n      add\n      swap1\n      tag_33\n      swap2\n      swap1\n      tag_34\n      jump\t// in\n    tag_33:\n      tag_35\n      jump\t// in\n    tag_32:\n      stop\n        /* \"variables.sol\":205:281  function setMyBool (bool _myBool) public {\r... */\n    tag_10:\n      tag_36\n      0x04\n      dup1\n      calldatasize\n      sub\n      dup2\n      add\n      swap1\n      tag_37\n      swap2\n      swap1\n      tag_38\n      jump\t// in\n    tag_37:\n      tag_39\n      jump\t// in\n    tag_36:\n      stop\n        /* \"variables.sol\":62:83  uint256 public myUint */\n    tag_13:\n      sload(0x00)\n      dup2\n      jump\t// out\n        /* \"variables.sol\":323:384  function incrementUint() public{\r... */\n    tag_17:\n        /* \"variables.sol\":366:373  myUint8 */\n      0x01\n      dup1\n        /* \"variables.sol\":366:375  myUint8++ */\n      dup2\n      dup2\n      swap1\n      sload\n      swap1\n      0x0100\n      exp\n      swap1\n      div\n      0xff\n      and\n      dup1\n      swap3\n      swap2\n      swap1\n      tag_41\n      swap1\n      tag_42\n      jump\t// in\n    tag_41:\n      swap2\n      swap1\n      0x0100\n      exp\n      dup2\n      sload\n      dup2\n      0xff\n      mul\n      not\n      and\n      swap1\n      dup4\n      0xff\n      and\n      mul\n      or\n      swap1\n      sstore\n      pop\n      pop\n        /* \"variables.sol\":323:384  function incrementUint() public{\r... */\n      jump\t// out\n        /* \"variables.sol\":464:488  address public myAddress */\n    tag_19:\n      0x01\n      0x02\n      swap1\n      sload\n      swap1\n      0x0100\n      exp\n      swap1\n      div\n      0xffffffffffffffffffffffffffffffffffffffff\n      and\n      dup2\n      jump\t// out\n        /* \"variables.sol\":174:192  bool public myBool */\n    tag_23:\n      0x01\n      0x00\n      swap1\n      sload\n      swap1\n      0x0100\n      exp\n      swap1\n      div\n      0xff\n      and\n      dup2\n      jump\t// out\n        /* \"variables.sol\":393:455  function decrementUint() public {\r... */\n    tag_27:\n        /* \"variables.sol\":437:444  myUint8 */\n      0x01\n      dup1\n        /* \"variables.sol\":437:446  myUint8-- */\n      dup2\n      dup2\n      swap1\n      sload\n      swap1\n      0x0100\n      exp\n      swap1\n      div\n      0xff\n      and\n      dup1\n      swap3\n      swap2\n      swap1\n      tag_44\n      swap1\n      tag_45\n      jump\t// in\n    tag_44:\n      swap2\n      swap1\n      0x0100\n      exp\n      dup2\n      sload\n      dup2\n      0xff\n      mul\n      not\n      and\n      swap1\n      dup4\n      0xff\n      and\n      mul\n      or\n      swap1\n      sstore\n      pop\n      pop\n        /* \"variables.sol\":393:455  function decrementUint() public {\r... */\n      jump\t// out\n        /* \"variables.sol\":295:315  uint8 public myUint8 */\n    tag_29:\n      0x01\n      dup1\n      sload\n      swap1\n      0x0100\n      exp\n      swap1\n      div\n      0xff\n      and\n      dup2\n      jump\t// out\n        /* \"variables.sol\":92:166  function setMyUint(uint _myUint) public {\r... */\n    tag_35:\n        /* \"variables.sol\":151:158  _myUint */\n      dup1\n        /* \"variables.sol\":143:149  myUint */\n      0x00\n        /* \"variables.sol\":143:158  myUint =_myUint */\n      dup2\n      swap1\n      sstore\n      pop\n        /* \"variables.sol\":92:166  function setMyUint(uint _myUint) public {\r... */\n      pop\n      jump\t// out\n        /* \"variables.sol\":205:281  function setMyBool (bool _myBool) public {\r... */\n    tag_39:\n        /* \"variables.sol\":266:273  _myBool */\n      dup1\n        /* \"variables.sol\":257:263  myBool */\n      0x01\n      0x00\n        /* \"variables.sol\":257:273  myBool = _myBool */\n      0x0100\n      exp\n      dup2\n      sload\n      dup2\n      0xff\n      mul\n      not\n      and\n      swap1\n      dup4\n      iszero\n      iszero\n      mul\n      or\n      swap1\n      sstore\n      pop\n        /* \"variables.sol\":205:281  function setMyBool (bool _myBool) public {\r... */\n      pop\n      jump\t// out\n        /* \"#utility.yul\":7:140   */\n    tag_49:\n        /* \"#utility.yul\":50:55   */\n      0x00\n        /* \"#utility.yul\":88:94   */\n      dup2\n        /* \"#utility.yul\":75:95   */\n      calldataload\n        /* \"#utility.yul\":66:95   */\n      swap1\n      pop\n        /* \"#utility.yul\":104:134   */\n      tag_51\n        /* \"#utility.yul\":128:133   */\n      dup2\n        /* \"#utility.yul\":104:134   */\n      tag_52\n      jump\t// in\n    tag_51:\n        /* \"#utility.yul\":7:140   */\n      swap3\n      swap2\n      pop\n      pop\n      jump\t// out\n        /* \"#utility.yul\":146:285   */\n    tag_53:\n        /* \"#utility.yul\":192:197   */\n      0x00\n        /* \"#utility.yul\":230:236   */\n      dup2\n        /* \"#utility.yul\":217:237   */\n      calldataload\n        /* \"#utility.yul\":208:237   */\n      swap1\n      pop\n        /* \"#utility.yul\":246:279   */\n      tag_55\n        /* \"#utility.yul\":273:278   */\n      dup2\n        /* \"#utility.yul\":246:279   */\n      tag_56\n      jump\t// in\n    tag_55:\n        /* \"#utility.yul\":146:285   */\n      swap3\n      swap2\n      pop\n      pop\n      jump\t// out\n        /* \"#utility.yul\":291:614   */\n    tag_38:\n        /* \"#utility.yul\":347:353   */\n      0x00\n        /* \"#utility.yul\":396:398   */\n      0x20\n        /* \"#utility.yul\":384:393   */\n      dup3\n        /* \"#utility.yul\":375:382   */\n      dup5\n        /* \"#utility.yul\":371:394   */\n      sub\n        /* \"#utility.yul\":367:399   */\n      slt\n        /* \"#utility.yul\":364:483   */\n      iszero\n      tag_58\n      jumpi\n        /* \"#utility.yul\":402:481   */\n      tag_59\n      tag_60\n      jump\t// in\n    tag_59:\n        /* \"#utility.yul\":364:483   */\n    tag_58:\n        /* \"#utility.yul\":522:523   */\n      0x00\n        /* \"#utility.yul\":547:597   */\n      tag_61\n        /* \"#utility.yul\":589:596   */\n      dup5\n        /* \"#utility.yul\":580:586   */\n      dup3\n        /* \"#utility.yul\":569:578   */\n      dup6\n        /* \"#utility.yul\":565:587   */\n      add\n        /* \"#utility.yul\":547:597   */\n      tag_49\n      jump\t// in\n    tag_61:\n        /* \"#utility.yul\":537:597   */\n      swap2\n      pop\n        /* \"#utility.yul\":493:607   */\n      pop\n        /* \"#utility.yul\":291:614   */\n      swap3\n      swap2\n      pop\n      pop\n      jump\t// out\n        /* \"#utility.yul\":620:949   */\n    tag_34:\n        /* \"#utility.yul\":679:685   */\n      0x00\n        /* \"#utility.yul\":728:730   */\n      0x20\n        /* \"#utility.yul\":716:725   */\n      dup3\n        /* \"#utility.yul\":707:714   */\n      dup5\n        /* \"#utility.yul\":703:726   */\n      sub\n        /* \"#utility.yul\":699:731   */\n      slt\n        /* \"#utility.yul\":696:815   */\n      iszero\n      tag_63\n      jumpi\n        /* \"#utility.yul\":734:813   */\n      tag_64\n      tag_60\n      jump\t// in\n    tag_64:\n        /* \"#utility.yul\":696:815   */\n    tag_63:\n        /* \"#utility.yul\":854:855   */\n      0x00\n        /* \"#utility.yul\":879:932   */\n      tag_65\n        /* \"#utility.yul\":924:931   */\n      dup5\n        /* \"#utility.yul\":915:921   */\n      dup3\n        /* \"#utility.yul\":904:913   */\n      dup6\n        /* \"#utility.yul\":900:922   */\n      add\n        /* \"#utility.yul\":879:932   */\n      tag_53\n      jump\t// in\n    tag_65:\n        /* \"#utility.yul\":869:932   */\n      swap2\n      pop\n        /* \"#utility.yul\":825:942   */\n      pop\n        /* \"#utility.yul\":620:949   */\n      swap3\n      swap2\n      pop\n      pop\n      jump\t// out\n        /* \"#utility.yul\":955:1073   */\n    tag_66:\n        /* \"#utility.yul\":1042:1066   */\n      tag_68\n        /* \"#utility.yul\":1060:1065   */\n      dup2\n        /* \"#utility.yul\":1042:1066   */\n      tag_69\n      jump\t// in\n    tag_68:\n        /* \"#utility.yul\":1037:1040   */\n      dup3\n        /* \"#utility.yul\":1030:1067   */\n      mstore\n        /* \"#utility.yul\":955:1073   */\n      pop\n      pop\n      jump\t// out\n        /* \"#utility.yul\":1079:1188   */\n    tag_70:\n        /* \"#utility.yul\":1160:1181   */\n      tag_72\n        /* \"#utility.yul\":1175:1180   */\n      dup2\n        /* \"#utility.yul\":1160:1181   */\n      tag_73\n      jump\t// in\n    tag_72:\n        /* \"#utility.yul\":1155:1158   */\n      dup3\n        /* \"#utility.yul\":1148:1182   */\n      mstore\n        /* \"#utility.yul\":1079:1188   */\n      pop\n      pop\n      jump\t// out\n        /* \"#utility.yul\":1194:1312   */\n    tag_74:\n        /* \"#utility.yul\":1281:1305   */\n      tag_76\n        /* \"#utility.yul\":1299:1304   */\n      dup2\n        /* \"#utility.yul\":1281:1305   */\n      tag_77\n      jump\t// in\n    tag_76:\n        /* \"#utility.yul\":1276:1279   */\n      dup3\n        /* \"#utility.yul\":1269:1306   */\n      mstore\n        /* \"#utility.yul\":1194:1312   */\n      pop\n      pop\n      jump\t// out\n        /* \"#utility.yul\":1318:1430   */\n    tag_78:\n        /* \"#utility.yul\":1401:1423   */\n      tag_80\n        /* \"#utility.yul\":1417:1422   */\n      dup2\n        /* \"#utility.yul\":1401:1423   */\n      tag_81\n      jump\t// in\n    tag_80:\n        /* \"#utility.yul\":1396:1399   */\n      dup3\n        /* \"#utility.yul\":1389:1424   */\n      mstore\n        /* \"#utility.yul\":1318:1430   */\n      pop\n      pop\n      jump\t// out\n        /* \"#utility.yul\":1436:1658   */\n    tag_21:\n        /* \"#utility.yul\":1529:1533   */\n      0x00\n        /* \"#utility.yul\":1567:1569   */\n      0x20\n        /* \"#utility.yul\":1556:1565   */\n      dup3\n        /* \"#utility.yul\":1552:1570   */\n      add\n        /* \"#utility.yul\":1544:1570   */\n      swap1\n      pop\n        /* \"#utility.yul\":1580:1651   */\n      tag_83\n        /* \"#utility.yul\":1648:1649   */\n      0x00\n        /* \"#utility.yul\":1637:1646   */\n      dup4\n        /* \"#utility.yul\":1633:1650   */\n      add\n        /* \"#utility.yul\":1624:1630   */\n      dup5\n        /* \"#utility.yul\":1580:1651   */\n      tag_66\n      jump\t// in\n    tag_83:\n        /* \"#utility.yul\":1436:1658   */\n      swap3\n      swap2\n      pop\n      pop\n      jump\t// out\n        /* \"#utility.yul\":1664:1874   */\n    tag_25:\n        /* \"#utility.yul\":1751:1755   */\n      0x00\n        /* \"#utility.yul\":1789:1791   */\n      0x20\n        /* \"#utility.yul\":1778:1787   */\n      dup3\n        /* \"#utility.yul\":1774:1792   */\n      add\n        /* \"#utility.yul\":1766:1792   */\n      swap1\n      pop\n        /* \"#utility.yul\":1802:1867   */\n      tag_85\n        /* \"#utility.yul\":1864:1865   */\n      0x00\n        /* \"#utility.yul\":1853:1862   */\n      dup4\n        /* \"#utility.yul\":1849:1866   */\n      add\n        /* \"#utility.yul\":1840:1846   */\n      dup5\n        /* \"#utility.yul\":1802:1867   */\n      tag_70\n      jump\t// in\n    tag_85:\n        /* \"#utility.yul\":1664:1874   */\n      swap3\n      swap2\n      pop\n      pop\n      jump\t// out\n        /* \"#utility.yul\":1880:2102   */\n    tag_15:\n        /* \"#utility.yul\":1973:1977   */\n      0x00\n        /* \"#utility.yul\":2011:2013   */\n      0x20\n        /* \"#utility.yul\":2000:2009   */\n      dup3\n        /* \"#utility.yul\":1996:2014   */\n      add\n        /* \"#utility.yul\":1988:2014   */\n      swap1\n      pop\n        /* \"#utility.yul\":2024:2095   */\n      tag_87\n        /* \"#utility.yul\":2092:2093   */\n      0x00\n        /* \"#utility.yul\":2081:2090   */\n      dup4\n        /* \"#utility.yul\":2077:2094   */\n      add\n        /* \"#utility.yul\":2068:2074   */\n      dup5\n        /* \"#utility.yul\":2024:2095   */\n      tag_74\n      jump\t// in\n    tag_87:\n        /* \"#utility.yul\":1880:2102   */\n      swap3\n      swap2\n      pop\n      pop\n      jump\t// out\n        /* \"#utility.yul\":2108:2322   */\n    tag_31:\n        /* \"#utility.yul\":2197:2201   */\n      0x00\n        /* \"#utility.yul\":2235:2237   */\n      0x20\n        /* \"#utility.yul\":2224:2233   */\n      dup3\n        /* \"#utility.yul\":2220:2238   */\n      add\n        /* \"#utility.yul\":2212:2238   */\n      swap1\n      pop\n        /* \"#utility.yul\":2248:2315   */\n      tag_89\n        /* \"#utility.yul\":2312:2313   */\n      0x00\n        /* \"#utility.yul\":2301:2310   */\n      dup4\n        /* \"#utility.yul\":2297:2314   */\n      add\n        /* \"#utility.yul\":2288:2294   */\n      dup5\n        /* \"#utility.yul\":2248:2315   */\n      tag_78\n      jump\t// in\n    tag_89:\n        /* \"#utility.yul\":2108:2322   */\n      swap3\n      swap2\n      pop\n      pop\n      jump\t// out\n        /* \"#utility.yul\":2409:2505   */\n    tag_69:\n        /* \"#utility.yul\":2446:2453   */\n      0x00\n        /* \"#utility.yul\":2475:2499   */\n      tag_93\n        /* \"#utility.yul\":2493:2498   */\n      dup3\n        /* \"#utility.yul\":2475:2499   */\n      tag_94\n      jump\t// in\n    tag_93:\n        /* \"#utility.yul\":2464:2499   */\n      swap1\n      pop\n        /* \"#utility.yul\":2409:2505   */\n      swap2\n      swap1\n      pop\n      jump\t// out\n        /* \"#utility.yul\":2511:2601   */\n    tag_73:\n        /* \"#utility.yul\":2545:2552   */\n      0x00\n        /* \"#utility.yul\":2588:2593   */\n      dup2\n        /* \"#utility.yul\":2581:2594   */\n      iszero\n        /* \"#utility.yul\":2574:2595   */\n      iszero\n        /* \"#utility.yul\":2563:2595   */\n      swap1\n      pop\n        /* \"#utility.yul\":2511:2601   */\n      swap2\n      swap1\n      pop\n      jump\t// out\n        /* \"#utility.yul\":2607:2733   */\n    tag_94:\n        /* \"#utility.yul\":2644:2651   */\n      0x00\n        /* \"#utility.yul\":2684:2726   */\n      0xffffffffffffffffffffffffffffffffffffffff\n        /* \"#utility.yul\":2677:2682   */\n      dup3\n        /* \"#utility.yul\":2673:2727   */\n      and\n        /* \"#utility.yul\":2662:2727   */\n      swap1\n      pop\n        /* \"#utility.yul\":2607:2733   */\n      swap2\n      swap1\n      pop\n      jump\t// out\n        /* \"#utility.yul\":2739:2816   */\n    tag_77:\n        /* \"#utility.yul\":2776:2783   */\n      0x00\n        /* \"#utility.yul\":2805:2810   */\n      dup2\n        /* \"#utility.yul\":2794:2810   */\n      swap1\n      pop\n        /* \"#utility.yul\":2739:2816   */\n      swap2\n      swap1\n      pop\n      jump\t// out\n        /* \"#utility.yul\":2822:2908   */\n    tag_81:\n        /* \"#utility.yul\":2857:2864   */\n      0x00\n        /* \"#utility.yul\":2897:2901   */\n      0xff\n        /* \"#utility.yul\":2890:2895   */\n      dup3\n        /* \"#utility.yul\":2886:2902   */\n      and\n        /* \"#utility.yul\":2875:2902   */\n      swap1\n      pop\n        /* \"#utility.yul\":2822:2908   */\n      swap2\n      swap1\n      pop\n      jump\t// out\n        /* \"#utility.yul\":2914:3081   */\n    tag_45:\n        /* \"#utility.yul\":2951:2954   */\n      0x00\n        /* \"#utility.yul\":2974:2996   */\n      tag_100\n        /* \"#utility.yul\":2990:2995   */\n      dup3\n        /* \"#utility.yul\":2974:2996   */\n      tag_81\n      jump\t// in\n    tag_100:\n        /* \"#utility.yul\":2965:2996   */\n      swap2\n      pop\n        /* \"#utility.yul\":3018:3022   */\n      0x00\n        /* \"#utility.yul\":3011:3016   */\n      dup3\n        /* \"#utility.yul\":3008:3023   */\n      eq\n        /* \"#utility.yul\":3005:3046   */\n      iszero\n      tag_101\n      jumpi\n        /* \"#utility.yul\":3026:3044   */\n      tag_102\n      tag_103\n      jump\t// in\n    tag_102:\n        /* \"#utility.yul\":3005:3046   */\n    tag_101:\n        /* \"#utility.yul\":3073:3074   */\n      0x01\n        /* \"#utility.yul\":3066:3071   */\n      dup3\n        /* \"#utility.yul\":3062:3075   */\n      sub\n        /* \"#utility.yul\":3055:3075   */\n      swap1\n      pop\n        /* \"#utility.yul\":2914:3081   */\n      swap2\n      swap1\n      pop\n      jump\t// out\n        /* \"#utility.yul\":3087:3254   */\n    tag_42:\n        /* \"#utility.yul\":3124:3127   */\n      0x00\n        /* \"#utility.yul\":3147:3169   */\n      tag_105\n        /* \"#utility.yul\":3163:3168   */\n      dup3\n        /* \"#utility.yul\":3147:3169   */\n      tag_81\n      jump\t// in\n    tag_105:\n        /* \"#utility.yul\":3138:3169   */\n      swap2\n      pop\n        /* \"#utility.yul\":3191:3195   */\n      0xff\n        /* \"#utility.yul\":3184:3189   */\n      dup3\n        /* \"#utility.yul\":3181:3196   */\n      eq\n        /* \"#utility.yul\":3178:3219   */\n      iszero\n      tag_106\n      jumpi\n        /* \"#utility.yul\":3199:3217   */\n      tag_107\n      tag_103\n      jump\t// in\n    tag_107:\n        /* \"#utility.yul\":3178:3219   */\n    tag_106:\n        /* \"#utility.yul\":3246:3247   */\n      0x01\n        /* \"#utility.yul\":3239:3244   */\n      dup3\n        /* \"#utility.yul\":3235:3248   */\n      add\n        /* \"#utility.yul\":3228:3248   */\n      swap1\n      pop\n        /* \"#utility.yul\":3087:3254   */\n      swap2\n      swap1\n      pop\n      jump\t// out\n        /* \"#utility.yul\":3260:3440   */\n    tag_103:\n        /* \"#utility.yul\":3308:3385   */\n      0x4e487b7100000000000000000000000000000000000000000000000000000000\n        /* \"#utility.yul\":3305:3306   */\n      0x00\n        /* \"#utility.yul\":3298:3386   */\n      mstore\n        /* \"#utility.yul\":3405:3409   */\n      0x11\n        /* \"#utility.yul\":3402:3403   */\n      0x04\n        /* \"#utility.yul\":3395:3410   */\n      mstore\n        /* \"#utility.yul\":3429:3433   */\n      0x24\n        /* \"#utility.yul\":3426:3427   */\n      0x00\n        /* \"#utility.yul\":3419:3434   */\n      revert\n        /* \"#utility.yul\":3569:3686   */\n    tag_60:\n        /* \"#utility.yul\":3678:3679   */\n      0x00\n        /* \"#utility.yul\":3675:3676   */\n      dup1\n        /* \"#utility.yul\":3668:3680   */\n      revert\n        /* \"#utility.yul\":3692:3808   */\n    tag_52:\n        /* \"#utility.yul\":3762:3783   */\n      tag_113\n        /* \"#utility.yul\":3777:3782   */\n      dup2\n        /* \"#utility.yul\":3762:3783   */\n      tag_73\n      jump\t// in\n    tag_113:\n        /* \"#utility.yul\":3755:3760   */\n      dup2\n        /* \"#utility.yul\":3752:3784   */\n      eq\n        /* \"#utility.yul\":3742:3802   */\n      tag_114\n      jumpi\n        /* \"#utility.yul\":3798:3799   */\n      0x00\n        /* \"#utility.yul\":3795:3796   */\n      dup1\n        /* \"#utility.yul\":3788:3800   */\n      revert\n        /* \"#utility.yul\":3742:3802   */\n    tag_114:\n        /* \"#utility.yul\":3692:3808   */\n      pop\n      jump\t// out\n        /* \"#utility.yul\":3814:3936   */\n    tag_56:\n        /* \"#utility.yul\":3887:3911   */\n      tag_116\n        /* \"#utility.yul\":3905:3910   */\n      dup2\n        /* \"#utility.yul\":3887:3911   */\n      tag_77\n      jump\t// in\n    tag_116:\n        /* \"#utility.yul\":3880:3885   */\n      dup2\n        /* \"#utility.yul\":3877:3912   */\n      eq\n        /* \"#utility.yul\":3867:3930   */\n      tag_117\n      jumpi\n        /* \"#utility.yul\":3926:3927   */\n      0x00\n        /* \"#utility.yul\":3923:3924   */\n      dup1\n        /* \"#utility.yul\":3916:3928   */\n      revert\n        /* \"#utility.yul\":3867:3930   */\n    tag_117:\n        /* \"#utility.yul\":3814:3936   */\n      pop\n      jump\t// out\n\n    auxdata: 0xa26469706673582212206a44ca49f42cdb1a941d10821804b52c1f49e6e737ade4634c0a5fcd16abb1f464736f6c63430008070033\n}\n",
				"bytecode": {
					"linkReferences": {},
					"object": "608060405234801561001057600080fd5b506104a7806100206000396000f3fe608060405234801561001057600080fd5b50600436106100885760003560e01c8063da50eaee1161005b578063da50eaee146100f1578063e2a4b2af146100fb578063e492fd8414610119578063eb1b30d91461013557610088565b806306540f7e1461008d57806314bf43bd146100ab57806326b85ee1146100b55780636deecdbe146100d3575b600080fd5b610095610151565b6040516100a29190610330565b60405180910390f35b6100b3610157565b005b6100bd610190565b6040516100ca91906102fa565b60405180910390f35b6100db6101b6565b6040516100e89190610315565b60405180910390f35b6100f96101c9565b005b610103610202565b604051610110919061034b565b60405180910390f35b610133600480360381019061012e9190610291565b610213565b005b61014f600480360381019061014a9190610264565b61021d565b005b60005481565b60018081819054906101000a900460ff1680929190610175906103e5565b91906101000a81548160ff021916908360ff16021790555050565b600160029054906101000a900473ffffffffffffffffffffffffffffffffffffffff1681565b600160009054906101000a900460ff1681565b60018081819054906101000a900460ff16809291906101e7906103bb565b91906101000a81548160ff021916908360ff16021790555050565b60018054906101000a900460ff1681565b8060008190555050565b80600160006101000a81548160ff02191690831515021790555050565b60008135905061024981610443565b92915050565b60008135905061025e8161045a565b92915050565b60006020828403121561027a5761027961043e565b5b60006102888482850161023a565b91505092915050565b6000602082840312156102a7576102a661043e565b5b60006102b58482850161024f565b91505092915050565b6102c781610366565b82525050565b6102d681610378565b82525050565b6102e5816103a4565b82525050565b6102f4816103ae565b82525050565b600060208201905061030f60008301846102be565b92915050565b600060208201905061032a60008301846102cd565b92915050565b600060208201905061034560008301846102dc565b92915050565b600060208201905061036060008301846102eb565b92915050565b600061037182610384565b9050919050565b60008115159050919050565b600073ffffffffffffffffffffffffffffffffffffffff82169050919050565b6000819050919050565b600060ff82169050919050565b60006103c6826103ae565b915060008214156103da576103d961040f565b5b600182039050919050565b60006103f0826103ae565b915060ff8214156104045761040361040f565b5b600182019050919050565b7f4e487b7100000000000000000000000000000000000000000000000000000000600052601160045260246000fd5b600080fd5b61044c81610378565b811461045757600080fd5b50565b610463816103a4565b811461046e57600080fd5b5056fea26469706673582212206a44ca49f42cdb1a941d10821804b52c1f49e6e737ade4634c0a5fcd16abb1f464736f6c63430008070033",
					"opcodes": "PUSH1 0x80 PUSH1 0x40 MSTORE CALLVALUE DUP1 ISZERO PUSH2 0x10 JUMPI PUSH1 0x0 DUP1 REVERT JUMPDEST POP PUSH2 0x4A7 DUP1 PUSH2 0x20 PUSH1 0x0 CODECOPY PUSH1 0x0 RETURN INVALID PUSH1 0x80 PUSH1 0x40 MSTORE CALLVALUE DUP1 ISZERO PUSH2 0x10 JUMPI PUSH1 0x0 DUP1 REVERT JUMPDEST POP PUSH1 0x4 CALLDATASIZE LT PUSH2 0x88 JUMPI PUSH1 0x0 CALLDATALOAD PUSH1 0xE0 SHR DUP1 PUSH4 0xDA50EAEE GT PUSH2 0x5B JUMPI DUP1 PUSH4 0xDA50EAEE EQ PUSH2 0xF1 JUMPI DUP1 PUSH4 0xE2A4B2AF EQ PUSH2 0xFB JUMPI DUP1 PUSH4 0xE492FD84 EQ PUSH2 0x119 JUMPI DUP1 PUSH4 0xEB1B30D9 EQ PUSH2 0x135 JUMPI PUSH2 0x88 JUMP JUMPDEST DUP1 PUSH4 0x6540F7E EQ PUSH2 0x8D JUMPI DUP1 PUSH4 0x14BF43BD EQ PUSH2 0xAB JUMPI DUP1 PUSH4 0x26B85EE1 EQ PUSH2 0xB5 JUMPI DUP1 PUSH4 0x6DEECDBE EQ PUSH2 0xD3 JUMPI JUMPDEST PUSH1 0x0 DUP1 REVERT JUMPDEST PUSH2 0x95 PUSH2 0x151 JUMP JUMPDEST PUSH1 0x40 MLOAD PUSH2 0xA2 SWAP2 SWAP1 PUSH2 0x330 JUMP JUMPDEST PUSH1 0x40 MLOAD DUP1 SWAP2 SUB SWAP1 RETURN JUMPDEST PUSH2 0xB3 PUSH2 0x157 JUMP JUMPDEST STOP JUMPDEST PUSH2 0xBD PUSH2 0x190 JUMP JUMPDEST PUSH1 0x40 MLOAD PUSH2 0xCA SWAP2 SWAP1 PUSH2 0x2FA JUMP JUMPDEST PUSH1 0x40 MLOAD DUP1 SWAP2 SUB SWAP1 RETURN JUMPDEST PUSH2 0xDB PUSH2 0x1B6 JUMP JUMPDEST PUSH1 0x40 MLOAD PUSH2 0xE8 SWAP2 SWAP1 PUSH2 0x315 JUMP JUMPDEST PUSH1 0x40 MLOAD DUP1 SWAP2 SUB SWAP1 RETURN JUMPDEST PUSH2 0xF9 PUSH2 0x1C9 JUMP JUMPDEST STOP JUMPDEST PUSH2 0x103 PUSH2 0x202 JUMP JUMPDEST PUSH1 0x40 MLOAD PUSH2 0x110 SWAP2 SWAP1 PUSH2 0x34B JUMP JUMPDEST PUSH1 0x40 MLOAD DUP1 SWAP2 SUB SWAP1 RETURN JUMPDEST PUSH2 0x133 PUSH1 0x4 DUP1 CALLDATASIZE SUB DUP2 ADD SWAP1 PUSH2 0x12E SWAP2 SWAP1 PUSH2 0x291 JUMP JUMPDEST PUSH2 0x213 JUMP JUMPDEST STOP JUMPDEST PUSH2 0x14F PUSH1 0x4 DUP1 CALLDATASIZE SUB DUP2 ADD SWAP1 PUSH2 0x14A SWAP2 SWAP1 PUSH2 0x264 JUMP JUMPDEST PUSH2 0x21D JUMP JUMPDEST STOP JUMPDEST PUSH1 0x0 SLOAD DUP2 JUMP JUMPDEST PUSH1 0x1 DUP1 DUP2 DUP2 SWAP1 SLOAD SWAP1 PUSH2 0x100 EXP SWAP1 DIV PUSH1 0xFF AND DUP1 SWAP3 SWAP2 SWAP1 PUSH2 0x175 SWAP1 PUSH2 0x3E5 JUMP JUMPDEST SWAP2 SWAP1 PUSH2 0x100 EXP DUP2 SLOAD DUP2 PUSH1 0xFF MUL NOT AND SWAP1 DUP4 PUSH1 0xFF AND MUL OR SWAP1 SSTORE POP POP JUMP JUMPDEST PUSH1 0x1 PUSH1 0x2 SWAP1 SLOAD SWAP1 PUSH2 0x100 EXP SWAP1 DIV PUSH20 0xFFFFFFFFFFFFFFFFFFFFFFFFFFFFFFFFFFFFFFFF AND DUP2 JUMP JUMPDEST PUSH1 0x1 PUSH1 0x0 SWAP1 SLOAD SWAP1 PUSH2 0x100 EXP SWAP1 DIV PUSH1 0xFF AND DUP2 JUMP JUMPDEST PUSH1 0x1 DUP1 DUP2 DUP2 SWAP1 SLOAD SWAP1 PUSH2 0x100 EXP SWAP1 DIV PUSH1 0xFF AND DUP1 SWAP3 SWAP2 SWAP1 PUSH2 0x1E7 SWAP1 PUSH2 0x3BB JUMP JUMPDEST SWAP2 SWAP1 PUSH2 0x100 EXP DUP2 SLOAD DUP2 PUSH1 0xFF MUL NOT AND SWAP1 DUP4 PUSH1 0xFF AND MUL OR SWAP1 SSTORE POP POP JUMP JUMPDEST PUSH1 0x1 DUP1 SLOAD SWAP1 PUSH2 0x100 EXP SWAP1 DIV PUSH1 0xFF AND DUP2 JUMP JUMPDEST DUP1 PUSH1 0x0 DUP2 SWAP1 SSTORE POP POP JUMP JUMPDEST DUP1 PUSH1 0x1 PUSH1 0x0 PUSH2 0x100 EXP DUP2 SLOAD DUP2 PUSH1 0xFF MUL NOT AND SWAP1 DUP4 ISZERO ISZERO MUL OR SWAP1 SSTORE POP POP JUMP JUMPDEST PUSH1 0x0 DUP2 CALLDATALOAD SWAP1 POP PUSH2 0x249 DUP2 PUSH2 0x443 JUMP JUMPDEST SWAP3 SWAP2 POP POP JUMP JUMPDEST PUSH1 0x0 DUP2 CALLDATALOAD SWAP1 POP PUSH2 0x25E DUP2 PUSH2 0x45A JUMP JUMPDEST SWAP3 SWAP2 POP POP JUMP JUMPDEST PUSH1 0x0 PUSH1 0x20 DUP3 DUP5 SUB SLT ISZERO PUSH2 0x27A JUMPI PUSH2 0x279 PUSH2 0x43E JUMP JUMPDEST JUMPDEST PUSH1 0x0 PUSH2 0x288 DUP5 DUP3 DUP6 ADD PUSH2 0x23A JUMP JUMPDEST SWAP2 POP POP SWAP3 SWAP2 POP POP JUMP JUMPDEST PUSH1 0x0 PUSH1 0x20 DUP3 DUP5 SUB SLT ISZERO PUSH2 0x2A7 JUMPI PUSH2 0x2A6 PUSH2 0x43E JUMP JUMPDEST JUMPDEST PUSH1 0x0 PUSH2 0x2B5 DUP5 DUP3 DUP6 ADD PUSH2 0x24F JUMP JUMPDEST SWAP2 POP POP SWAP3 SWAP2 POP POP JUMP JUMPDEST PUSH2 0x2C7 DUP2 PUSH2 0x366 JUMP JUMPDEST DUP3 MSTORE POP POP JUMP JUMPDEST PUSH2 0x2D6 DUP2 PUSH2 0x378 JUMP JUMPDEST DUP3 MSTORE POP POP JUMP JUMPDEST PUSH2 0x2E5 DUP2 PUSH2 0x3A4 JUMP JUMPDEST DUP3 MSTORE POP POP JUMP JUMPDEST PUSH2 0x2F4 DUP2 PUSH2 0x3AE JUMP JUMPDEST DUP3 MSTORE POP POP JUMP JUMPDEST PUSH1 0x0 PUSH1 0x20 DUP3 ADD SWAP1 POP PUSH2 0x30F PUSH1 0x0 DUP4 ADD DUP5 PUSH2 0x2BE JUMP JUMPDEST SWAP3 SWAP2 POP POP JUMP JUMPDEST PUSH1 0x0 PUSH1 0x20 DUP3 ADD SWAP1 POP PUSH2 0x32A PUSH1 0x0 DUP4 ADD DUP5 PUSH2 0x2CD JUMP JUMPDEST SWAP3 SWAP2 POP POP JUMP JUMPDEST PUSH1 0x0 PUSH1 0x20 DUP3 ADD SWAP1 POP PUSH2 0x345 PUSH1 0x0 DUP4 ADD DUP5 PUSH2 0x2DC JUMP JUMPDEST SWAP3 SWAP2 POP POP JUMP JUMPDEST PUSH1 0x0 PUSH1 0x20 DUP3 ADD SWAP1 POP PUSH2 0x360 PUSH1 0x0 DUP4 ADD DUP5 PUSH2 0x2EB JUMP JUMPDEST SWAP3 SWAP2 POP POP JUMP JUMPDEST PUSH1 0x0 PUSH2 0x371 DUP3 PUSH2 0x384 JUMP JUMPDEST SWAP1 POP SWAP2 SWAP1 POP JUMP JUMPDEST PUSH1 0x0 DUP2 ISZERO ISZERO SWAP1 POP SWAP2 SWAP1 POP JUMP JUMPDEST PUSH1 0x0 PUSH20 0xFFFFFFFFFFFFFFFFFFFFFFFFFFFFFFFFFFFFFFFF DUP3 AND SWAP1 POP SWAP2 SWAP1 POP JUMP JUMPDEST PUSH1 0x0 DUP2 SWAP1 POP SWAP2 SWAP1 POP JUMP JUMPDEST PUSH1 0x0 PUSH1 0xFF DUP3 AND SWAP1 POP SWAP2 SWAP1 POP JUMP JUMPDEST PUSH1 0x0 PUSH2 0x3C6 DUP3 PUSH2 0x3AE JUMP JUMPDEST SWAP2 POP PUSH1 0x0 DUP3 EQ ISZERO PUSH2 0x3DA JUMPI PUSH2 0x3D9 PUSH2 0x40F JUMP JUMPDEST JUMPDEST PUSH1 0x1 DUP3 SUB SWAP1 POP SWAP2 SWAP1 POP JUMP JUMPDEST PUSH1 0x0 PUSH2 0x3F0 DUP3 PUSH2 0x3AE JUMP JUMPDEST SWAP2 POP PUSH1 0xFF DUP3 EQ ISZERO PUSH2 0x404 JUMPI PUSH2 0x403 PUSH2 0x40F JUMP JUMPDEST JUMPDEST PUSH1 0x1 DUP3 ADD SWAP1 POP SWAP2 SWAP1 POP JUMP JUMPDEST PUSH32 0x4E487B7100000000000000000000000000000000000000000000000000000000 PUSH1 0x0 MSTORE PUSH1 0x11 PUSH1 0x4 MSTORE PUSH1 0x24 PUSH1 0x0 REVERT JUMPDEST PUSH1 0x0 DUP1 REVERT JUMPDEST PUSH2 0x44C DUP2 PUSH2 0x378 JUMP JUMPDEST DUP2 EQ PUSH2 0x457 JUMPI PUSH1 0x0 DUP1 REVERT JUMPDEST POP JUMP JUMPDEST PUSH2 0x463 DUP2 PUSH2 0x3A4 JUMP JUMPDEST DUP2 EQ PUSH2 0x46E JUMPI PUSH1 0x0 DUP1 REVERT JUMPDEST POP JUMP INVALID LOG2 PUSH5 0x6970667358 0x22 SLT KECCAK256 PUSH11 0x44CA49F42CDB1A941D1082 XOR DIV 0xB5 0x2C 0x1F 0x49 0xE6 0xE7 CALLDATACOPY 0xAD 0xE4 PUSH4 0x4C0A5FCD AND 0xAB 0xB1 DELEGATECALL PUSH5 0x736F6C6343 STOP ADDMOD SMOD STOP CALLER "
				},
				"gasEstimates": {
					"creation": {
						"codeDepositCost": "238200",
						"executionCost": "281",
						"totalCost": "238481"
					},
					"external": {
						"decrementUint()": "26802",
						"incrementUint()": "26825",
						"myAddress()": "2609",
						"myBool()": "2538",
						"myUint()": "2430",
						"myUint8()": "2540",
						"setMyBool(bool)": "24745",
						"setMyUint(uint256)": "22564"
					}
				},
				"methodIdentifiers": {
					"decrementUint()": "da50eaee",
					"incrementUint()": "14bf43bd",
					"myAddress()": "26b85ee1",
					"myBool()": "6deecdbe",
					"myUint()": "06540f7e",
					"myUint8()": "e2a4b2af",
					"setMyBool(bool)": "eb1b30d9",
					"setMyUint(uint256)": "e492fd84"
				}
			},
			"storageLayout": {
				"storage": [
					{
						"astId": 3,
						"contract": "variables.sol:WorkingWithVariables",
						"label": "myUint",
						"offset": 0,
						"slot": "0",
						"type": "t_uint256"
					},
					{
						"astId": 15,
						"contract": "variables.sol:WorkingWithVariables",
						"label": "myBool",
						"offset": 0,
						"slot": "1",
						"type": "t_bool"
					},
					{
						"astId": 27,
						"contract": "variables.sol:WorkingWithVariables",
						"label": "myUint8",
						"offset": 1,
						"slot": "1",
						"type": "t_uint8"
					},
					{
						"astId": 43,
						"contract": "variables.sol:WorkingWithVariables",
						"label": "myAddress",
						"offset": 2,
						"slot": "1",
						"type": "t_address"
					}
				],
				"types": {
					"t_address": {
						"encoding": "inplace",
						"label": "address",
						"numberOfBytes": "20"
					},
					"t_bool": {
						"encoding": "inplace",
						"label": "bool",
						"numberOfBytes": "1"
					},
					"t_uint256": {
						"encoding": "inplace",
						"label": "uint256",
						"numberOfBytes": "32"
					},
					"t_uint8": {
						"encoding": "inplace",
						"label": "uint8",
						"numberOfBytes": "1"
					}
				}
			},
			"userdoc": {
				"kind": "user",
				"methods": {},
				"version": 1
			}
		}
	}
}