{
	"FallBackExample.sol": {
		"FunctionsExample": {
			"abi": [
				{
					"inputs": [
						{
							"internalType": "address",
							"name": "",
							"type": "address"
						}
					],
					"name": "balanceReceived",
					"outputs": [
						{
							"internalType": "uint256",
							"name": "",
							"type": "uint256"
						}
					],
					"stateMutability": "view",
					"type": "function"
				},
				{
					"inputs": [],
					"name": "owner",
					"outputs": [
						{
							"internalType": "address payable",
							"name": "",
							"type": "address"
						}
					],
					"stateMutability": "view",
					"type": "function"
				},
				{
					"inputs": [],
					"name": "receiveMoney",
					"outputs": [],
					"stateMutability": "payable",
					"type": "function"
				},
				{
					"inputs": [
						{
							"internalType": "address payable",
							"name": "_to",
							"type": "address"
						},
						{
							"internalType": "uint256",
							"name": "_amount",
							"type": "uint256"
						}
					],
					"name": "withdrawMoney",
					"outputs": [],
					"stateMutability": "nonpayable",
					"type": "function"
				},
				{
					"stateMutability": "payable",
					"type": "receive"
				}
			],
			"devdoc": {
				"kind": "dev",
				"methods": {},
				"version": 1
			},
			"evm": {
				"assembly": "    /* \"FallBackExample.sol\":26:790  contract FunctionsExample {\r... */\n  mstore(0x40, 0x80)\n  callvalue\n  dup1\n  iszero\n  tag_1\n  jumpi\n  0x00\n  dup1\n  revert\ntag_1:\n  pop\n  dataSize(sub_0)\n  dup1\n  dataOffset(sub_0)\n  0x00\n  codecopy\n  0x00\n  return\nstop\n\nsub_0: assembly {\n        /* \"FallBackExample.sol\":26:790  contract FunctionsExample {\r... */\n      mstore(0x40, 0x80)\n      jumpi(tag_1, lt(calldatasize, 0x04))\n      shr(0xe0, calldataload(0x00))\n      dup1\n      0x6d26ec18\n      eq\n      tag_3\n      jumpi\n      dup1\n      0x8da5cb5b\n      eq\n      tag_4\n      jumpi\n      dup1\n      0xd18a42e1\n      eq\n      tag_5\n      jumpi\n      dup1\n      0xf274c897\n      eq\n      tag_6\n      jumpi\n      jump(tag_2)\n    tag_1:\n      jumpi(tag_2, calldatasize)\n        /* \"FallBackExample.sol\":763:777  receiveMoney() */\n      tag_9\n        /* \"FallBackExample.sol\":763:775  receiveMoney */\n      tag_10\n        /* \"FallBackExample.sol\":763:777  receiveMoney() */\n      jump\t// in\n    tag_9:\n        /* \"FallBackExample.sol\":26:790  contract FunctionsExample {\r... */\n      stop\n    tag_2:\n      0x00\n      dup1\n      revert\n        /* \"FallBackExample.sol\":170:375  function receiveMoney () public payable {\r... */\n    tag_3:\n      tag_11\n      tag_10\n      jump\t// in\n    tag_11:\n      stop\n        /* \"FallBackExample.sol\":125:153  address payable public owner */\n    tag_4:\n      callvalue\n      dup1\n      iszero\n      tag_12\n      jumpi\n      0x00\n      dup1\n      revert\n    tag_12:\n      pop\n      tag_13\n      tag_14\n      jump\t// in\n    tag_13:\n      mload(0x40)\n      tag_15\n      swap2\n      swap1\n      tag_16\n      jump\t// in\n    tag_15:\n      mload(0x40)\n      dup1\n      swap2\n      sub\n      swap1\n      return\n        /* \"FallBackExample.sol\":67:115  mapping (address => uint) public balanceReceived */\n    tag_5:\n      callvalue\n      dup1\n      iszero\n      tag_17\n      jumpi\n      0x00\n      dup1\n      revert\n    tag_17:\n      pop\n      tag_18\n      0x04\n      dup1\n      calldatasize\n      sub\n      dup2\n      add\n      swap1\n      tag_19\n      swap2\n      swap1\n      tag_20\n      jump\t// in\n    tag_19:\n      tag_21\n      jump\t// in\n    tag_18:\n      mload(0x40)\n      tag_22\n      swap2\n      swap1\n      tag_23\n      jump\t// in\n    tag_22:\n      mload(0x40)\n      dup1\n      swap2\n      sub\n      swap1\n      return\n        /* \"FallBackExample.sol\":384:715  function withdrawMoney (address payable _to, uint _amount) public {\r... */\n    tag_6:\n      callvalue\n      dup1\n      iszero\n      tag_24\n      jumpi\n      0x00\n      dup1\n      revert\n    tag_24:\n      pop\n      tag_25\n      0x04\n      dup1\n      calldatasize\n      sub\n      dup2\n      add\n      swap1\n      tag_26\n      swap2\n      swap1\n      tag_27\n      jump\t// in\n    tag_26:\n      tag_28\n      jump\t// in\n    tag_25:\n      stop\n        /* \"FallBackExample.sol\":170:375  function receiveMoney () public payable {\r... */\n    tag_10:\n        /* \"FallBackExample.sol\":273:288  balanceReceived */\n      0x00\n        /* \"FallBackExample.sol\":273:300  balanceReceived[msg.sender] */\n      dup1\n        /* \"FallBackExample.sol\":289:299  msg.sender */\n      caller\n        /* \"FallBackExample.sol\":273:300  balanceReceived[msg.sender] */\n      0xffffffffffffffffffffffffffffffffffffffff\n      and\n      0xffffffffffffffffffffffffffffffffffffffff\n      and\n      dup2\n      mstore\n      0x20\n      add\n      swap1\n      dup2\n      mstore\n      0x20\n      add\n      0x00\n      keccak256\n      sload\n        /* \"FallBackExample.sol\":260:269  msg.value */\n      callvalue\n        /* \"FallBackExample.sol\":232:247  balanceReceived */\n      0x00\n        /* \"FallBackExample.sol\":232:259  balanceReceived[msg.sender] */\n      dup1\n        /* \"FallBackExample.sol\":248:258  msg.sender */\n      caller\n        /* \"FallBackExample.sol\":232:259  balanceReceived[msg.sender] */\n      0xffffffffffffffffffffffffffffffffffffffff\n      and\n      0xffffffffffffffffffffffffffffffffffffffff\n      and\n      dup2\n      mstore\n      0x20\n      add\n      swap1\n      dup2\n      mstore\n      0x20\n      add\n      0x00\n      keccak256\n      sload\n        /* \"FallBackExample.sol\":232:269  balanceReceived[msg.sender]+msg.value */\n      tag_30\n      swap2\n      swap1\n      tag_31\n      jump\t// in\n    tag_30:\n        /* \"FallBackExample.sol\":232:300  balanceReceived[msg.sender]+msg.value >= balanceReceived[msg.sender] */\n      lt\n      iszero\n        /* \"FallBackExample.sol\":224:301  assert (balanceReceived[msg.sender]+msg.value >= balanceReceived[msg.sender]) */\n      tag_32\n      jumpi\n      tag_33\n      tag_34\n      jump\t// in\n    tag_33:\n    tag_32:\n        /* \"FallBackExample.sol\":355:364  msg.value */\n      callvalue\n        /* \"FallBackExample.sol\":324:339  balanceReceived */\n      0x00\n        /* \"FallBackExample.sol\":324:351  balanceReceived[msg.sender] */\n      dup1\n        /* \"FallBackExample.sol\":340:350  msg.sender */\n      caller\n        /* \"FallBackExample.sol\":324:351  balanceReceived[msg.sender] */\n      0xffffffffffffffffffffffffffffffffffffffff\n      and\n      0xffffffffffffffffffffffffffffffffffffffff\n      and\n      dup2\n      mstore\n      0x20\n      add\n      swap1\n      dup2\n      mstore\n      0x20\n      add\n      0x00\n      keccak256\n      0x00\n        /* \"FallBackExample.sol\":324:364  balanceReceived[msg.sender] += msg.value */\n      dup3\n      dup3\n      sload\n      tag_35\n      swap2\n      swap1\n      tag_31\n      jump\t// in\n    tag_35:\n      swap3\n      pop\n      pop\n      dup2\n      swap1\n      sstore\n      pop\n        /* \"FallBackExample.sol\":170:375  function receiveMoney () public payable {\r... */\n      jump\t// out\n        /* \"FallBackExample.sol\":125:153  address payable public owner */\n    tag_14:\n      0x01\n      0x00\n      swap1\n      sload\n      swap1\n      0x0100\n      exp\n      swap1\n      div\n      0xffffffffffffffffffffffffffffffffffffffff\n      and\n      dup2\n      jump\t// out\n        /* \"FallBackExample.sol\":67:115  mapping (address => uint) public balanceReceived */\n    tag_21:\n      mstore(0x20, 0x00)\n      dup1\n      0x00\n      mstore\n      keccak256(0x00, 0x40)\n      0x00\n      swap2\n      pop\n      swap1\n      pop\n      sload\n      dup2\n      jump\t// out\n        /* \"FallBackExample.sol\":384:715  function withdrawMoney (address payable _to, uint _amount) public {\r... */\n    tag_28:\n        /* \"FallBackExample.sol\":482:497  balanceReceived */\n      0x00\n        /* \"FallBackExample.sol\":482:509  balanceReceived[msg.sender] */\n      dup1\n        /* \"FallBackExample.sol\":498:508  msg.sender */\n      caller\n        /* \"FallBackExample.sol\":482:509  balanceReceived[msg.sender] */\n      0xffffffffffffffffffffffffffffffffffffffff\n      and\n      0xffffffffffffffffffffffffffffffffffffffff\n      and\n      dup2\n      mstore\n      0x20\n      add\n      swap1\n      dup2\n      mstore\n      0x20\n      add\n      0x00\n      keccak256\n      sload\n        /* \"FallBackExample.sol\":471:478  _amount */\n      dup2\n        /* \"FallBackExample.sol\":471:509  _amount <= balanceReceived[msg.sender] */\n      gt\n      iszero\n        /* \"FallBackExample.sol\":462:531  require (_amount <= balanceReceived[msg.sender], \"not enough funds.\") */\n      tag_37\n      jumpi\n      mload(0x40)\n      0x08c379a000000000000000000000000000000000000000000000000000000000\n      dup2\n      mstore\n      0x04\n      add\n      tag_38\n      swap1\n      tag_39\n      jump\t// in\n    tag_38:\n      mload(0x40)\n      dup1\n      swap2\n      sub\n      swap1\n      revert\n    tag_37:\n        /* \"FallBackExample.sol\":613:620  _amount */\n      dup1\n        /* \"FallBackExample.sol\":584:599  balanceReceived */\n      0x00\n        /* \"FallBackExample.sol\":584:611  balanceReceived[msg.sender] */\n      dup1\n        /* \"FallBackExample.sol\":600:610  msg.sender */\n      caller\n        /* \"FallBackExample.sol\":584:611  balanceReceived[msg.sender] */\n      0xffffffffffffffffffffffffffffffffffffffff\n      and\n      0xffffffffffffffffffffffffffffffffffffffff\n      and\n      dup2\n      mstore\n      0x20\n      add\n      swap1\n      dup2\n      mstore\n      0x20\n      add\n      0x00\n      keccak256\n      sload\n        /* \"FallBackExample.sol\":584:620  balanceReceived[msg.sender]- _amount */\n      tag_40\n      swap2\n      swap1\n      tag_41\n      jump\t// in\n    tag_40:\n        /* \"FallBackExample.sol\":553:568  balanceReceived */\n      0x00\n        /* \"FallBackExample.sol\":553:580  balanceReceived[msg.sender] */\n      dup1\n        /* \"FallBackExample.sol\":569:579  msg.sender */\n      caller\n        /* \"FallBackExample.sol\":553:580  balanceReceived[msg.sender] */\n      0xffffffffffffffffffffffffffffffffffffffff\n      and\n      0xffffffffffffffffffffffffffffffffffffffff\n      and\n      dup2\n      mstore\n      0x20\n      add\n      swap1\n      dup2\n      mstore\n      0x20\n      add\n      0x00\n      keccak256\n      sload\n        /* \"FallBackExample.sol\":553:620  balanceReceived[msg.sender] >= balanceReceived[msg.sender]- _amount */\n      lt\n      iszero\n        /* \"FallBackExample.sol\":545:621  assert (balanceReceived[msg.sender] >= balanceReceived[msg.sender]- _amount) */\n      tag_42\n      jumpi\n      tag_43\n      tag_34\n      jump\t// in\n    tag_43:\n    tag_42:\n        /* \"FallBackExample.sol\":664:671  _amount */\n      dup1\n        /* \"FallBackExample.sol\":633:648  balanceReceived */\n      0x00\n        /* \"FallBackExample.sol\":633:660  balanceReceived[msg.sender] */\n      dup1\n        /* \"FallBackExample.sol\":649:659  msg.sender */\n      caller\n        /* \"FallBackExample.sol\":633:660  balanceReceived[msg.sender] */\n      0xffffffffffffffffffffffffffffffffffffffff\n      and\n      0xffffffffffffffffffffffffffffffffffffffff\n      and\n      dup2\n      mstore\n      0x20\n      add\n      swap1\n      dup2\n      mstore\n      0x20\n      add\n      0x00\n      keccak256\n      0x00\n        /* \"FallBackExample.sol\":633:671  balanceReceived[msg.sender] -= _amount */\n      dup3\n      dup3\n      sload\n      tag_44\n      swap2\n      swap1\n      tag_41\n      jump\t// in\n    tag_44:\n      swap3\n      pop\n      pop\n      dup2\n      swap1\n      sstore\n      pop\n        /* \"FallBackExample.sol\":683:686  _to */\n      dup2\n        /* \"FallBackExample.sol\":683:695  _to.transfer */\n      0xffffffffffffffffffffffffffffffffffffffff\n      and\n        /* \"FallBackExample.sol\":683:704  _to.transfer(_amount) */\n      0x08fc\n        /* \"FallBackExample.sol\":696:703  _amount */\n      dup3\n        /* \"FallBackExample.sol\":683:704  _to.transfer(_amount) */\n      swap1\n      dup2\n      iszero\n      mul\n      swap1\n      mload(0x40)\n      0x00\n      mload(0x40)\n      dup1\n      dup4\n      sub\n      dup2\n      dup6\n      dup9\n      dup9\n      call\n      swap4\n      pop\n      pop\n      pop\n      pop\n      iszero\n      dup1\n      iszero\n      tag_46\n      jumpi\n      returndatasize\n      0x00\n      dup1\n      returndatacopy\n      revert(0x00, returndatasize)\n    tag_46:\n      pop\n        /* \"FallBackExample.sol\":384:715  function withdrawMoney (address payable _to, uint _amount) public {\r... */\n      pop\n      pop\n      jump\t// out\n        /* \"#utility.yul\":7:146   */\n    tag_48:\n        /* \"#utility.yul\":53:58   */\n      0x00\n        /* \"#utility.yul\":91:97   */\n      dup2\n        /* \"#utility.yul\":78:98   */\n      calldataload\n        /* \"#utility.yul\":69:98   */\n      swap1\n      pop\n        /* \"#utility.yul\":107:140   */\n      tag_50\n        /* \"#utility.yul\":134:139   */\n      dup2\n        /* \"#utility.yul\":107:140   */\n      tag_51\n      jump\t// in\n    tag_50:\n        /* \"#utility.yul\":7:146   */\n      swap3\n      swap2\n      pop\n      pop\n      jump\t// out\n        /* \"#utility.yul\":152:307   */\n    tag_52:\n        /* \"#utility.yul\":206:211   */\n      0x00\n        /* \"#utility.yul\":244:250   */\n      dup2\n        /* \"#utility.yul\":231:251   */\n      calldataload\n        /* \"#utility.yul\":222:251   */\n      swap1\n      pop\n        /* \"#utility.yul\":260:301   */\n      tag_54\n        /* \"#utility.yul\":295:300   */\n      dup2\n        /* \"#utility.yul\":260:301   */\n      tag_55\n      jump\t// in\n    tag_54:\n        /* \"#utility.yul\":152:307   */\n      swap3\n      swap2\n      pop\n      pop\n      jump\t// out\n        /* \"#utility.yul\":313:452   */\n    tag_56:\n        /* \"#utility.yul\":359:364   */\n      0x00\n        /* \"#utility.yul\":397:403   */\n      dup2\n        /* \"#utility.yul\":384:404   */\n      calldataload\n        /* \"#utility.yul\":375:404   */\n      swap1\n      pop\n        /* \"#utility.yul\":413:446   */\n      tag_58\n        /* \"#utility.yul\":440:445   */\n      dup2\n        /* \"#utility.yul\":413:446   */\n      tag_59\n      jump\t// in\n    tag_58:\n        /* \"#utility.yul\":313:452   */\n      swap3\n      swap2\n      pop\n      pop\n      jump\t// out\n        /* \"#utility.yul\":458:787   */\n    tag_20:\n        /* \"#utility.yul\":517:523   */\n      0x00\n        /* \"#utility.yul\":566:568   */\n      0x20\n        /* \"#utility.yul\":554:563   */\n      dup3\n        /* \"#utility.yul\":545:552   */\n      dup5\n        /* \"#utility.yul\":541:564   */\n      sub\n        /* \"#utility.yul\":537:569   */\n      slt\n        /* \"#utility.yul\":534:653   */\n      iszero\n      tag_61\n      jumpi\n        /* \"#utility.yul\":572:651   */\n      tag_62\n      tag_63\n      jump\t// in\n    tag_62:\n        /* \"#utility.yul\":534:653   */\n    tag_61:\n        /* \"#utility.yul\":692:693   */\n      0x00\n        /* \"#utility.yul\":717:770   */\n      tag_64\n        /* \"#utility.yul\":762:769   */\n      dup5\n        /* \"#utility.yul\":753:759   */\n      dup3\n        /* \"#utility.yul\":742:751   */\n      dup6\n        /* \"#utility.yul\":738:760   */\n      add\n        /* \"#utility.yul\":717:770   */\n      tag_48\n      jump\t// in\n    tag_64:\n        /* \"#utility.yul\":707:770   */\n      swap2\n      pop\n        /* \"#utility.yul\":663:780   */\n      pop\n        /* \"#utility.yul\":458:787   */\n      swap3\n      swap2\n      pop\n      pop\n      jump\t// out\n        /* \"#utility.yul\":793:1283   */\n    tag_27:\n        /* \"#utility.yul\":869:875   */\n      0x00\n        /* \"#utility.yul\":877:883   */\n      dup1\n        /* \"#utility.yul\":926:928   */\n      0x40\n        /* \"#utility.yul\":914:923   */\n      dup4\n        /* \"#utility.yul\":905:912   */\n      dup6\n        /* \"#utility.yul\":901:924   */\n      sub\n        /* \"#utility.yul\":897:929   */\n      slt\n        /* \"#utility.yul\":894:1013   */\n      iszero\n      tag_66\n      jumpi\n        /* \"#utility.yul\":932:1011   */\n      tag_67\n      tag_63\n      jump\t// in\n    tag_67:\n        /* \"#utility.yul\":894:1013   */\n    tag_66:\n        /* \"#utility.yul\":1052:1053   */\n      0x00\n        /* \"#utility.yul\":1077:1138   */\n      tag_68\n        /* \"#utility.yul\":1130:1137   */\n      dup6\n        /* \"#utility.yul\":1121:1127   */\n      dup3\n        /* \"#utility.yul\":1110:1119   */\n      dup7\n        /* \"#utility.yul\":1106:1128   */\n      add\n        /* \"#utility.yul\":1077:1138   */\n      tag_52\n      jump\t// in\n    tag_68:\n        /* \"#utility.yul\":1067:1138   */\n      swap3\n      pop\n        /* \"#utility.yul\":1023:1148   */\n      pop\n        /* \"#utility.yul\":1187:1189   */\n      0x20\n        /* \"#utility.yul\":1213:1266   */\n      tag_69\n        /* \"#utility.yul\":1258:1265   */\n      dup6\n        /* \"#utility.yul\":1249:1255   */\n      dup3\n        /* \"#utility.yul\":1238:1247   */\n      dup7\n        /* \"#utility.yul\":1234:1256   */\n      add\n        /* \"#utility.yul\":1213:1266   */\n      tag_56\n      jump\t// in\n    tag_69:\n        /* \"#utility.yul\":1203:1266   */\n      swap2\n      pop\n        /* \"#utility.yul\":1158:1276   */\n      pop\n        /* \"#utility.yul\":793:1283   */\n      swap3\n      pop\n      swap3\n      swap1\n      pop\n      jump\t// out\n        /* \"#utility.yul\":1289:1431   */\n    tag_70:\n        /* \"#utility.yul\":1392:1424   */\n      tag_72\n        /* \"#utility.yul\":1418:1423   */\n      dup2\n        /* \"#utility.yul\":1392:1424   */\n      tag_73\n      jump\t// in\n    tag_72:\n        /* \"#utility.yul\":1387:1390   */\n      dup3\n        /* \"#utility.yul\":1380:1425   */\n      mstore\n        /* \"#utility.yul\":1289:1431   */\n      pop\n      pop\n      jump\t// out\n        /* \"#utility.yul\":1437:1803   */\n    tag_74:\n        /* \"#utility.yul\":1579:1582   */\n      0x00\n        /* \"#utility.yul\":1600:1667   */\n      tag_76\n        /* \"#utility.yul\":1664:1666   */\n      0x11\n        /* \"#utility.yul\":1659:1662   */\n      dup4\n        /* \"#utility.yul\":1600:1667   */\n      tag_77\n      jump\t// in\n    tag_76:\n        /* \"#utility.yul\":1593:1667   */\n      swap2\n      pop\n        /* \"#utility.yul\":1676:1769   */\n      tag_78\n        /* \"#utility.yul\":1765:1768   */\n      dup3\n        /* \"#utility.yul\":1676:1769   */\n      tag_79\n      jump\t// in\n    tag_78:\n        /* \"#utility.yul\":1794:1796   */\n      0x20\n        /* \"#utility.yul\":1789:1792   */\n      dup3\n        /* \"#utility.yul\":1785:1797   */\n      add\n        /* \"#utility.yul\":1778:1797   */\n      swap1\n      pop\n        /* \"#utility.yul\":1437:1803   */\n      swap2\n      swap1\n      pop\n      jump\t// out\n        /* \"#utility.yul\":1809:1927   */\n    tag_80:\n        /* \"#utility.yul\":1896:1920   */\n      tag_82\n        /* \"#utility.yul\":1914:1919   */\n      dup2\n        /* \"#utility.yul\":1896:1920   */\n      tag_83\n      jump\t// in\n    tag_82:\n        /* \"#utility.yul\":1891:1894   */\n      dup3\n        /* \"#utility.yul\":1884:1921   */\n      mstore\n        /* \"#utility.yul\":1809:1927   */\n      pop\n      pop\n      jump\t// out\n        /* \"#utility.yul\":1933:2187   */\n    tag_16:\n        /* \"#utility.yul\":2042:2046   */\n      0x00\n        /* \"#utility.yul\":2080:2082   */\n      0x20\n        /* \"#utility.yul\":2069:2078   */\n      dup3\n        /* \"#utility.yul\":2065:2083   */\n      add\n        /* \"#utility.yul\":2057:2083   */\n      swap1\n      pop\n        /* \"#utility.yul\":2093:2180   */\n      tag_85\n        /* \"#utility.yul\":2177:2178   */\n      0x00\n        /* \"#utility.yul\":2166:2175   */\n      dup4\n        /* \"#utility.yul\":2162:2179   */\n      add\n        /* \"#utility.yul\":2153:2159   */\n      dup5\n        /* \"#utility.yul\":2093:2180   */\n      tag_70\n      jump\t// in\n    tag_85:\n        /* \"#utility.yul\":1933:2187   */\n      swap3\n      swap2\n      pop\n      pop\n      jump\t// out\n        /* \"#utility.yul\":2193:2612   */\n    tag_39:\n        /* \"#utility.yul\":2359:2363   */\n      0x00\n        /* \"#utility.yul\":2397:2399   */\n      0x20\n        /* \"#utility.yul\":2386:2395   */\n      dup3\n        /* \"#utility.yul\":2382:2400   */\n      add\n        /* \"#utility.yul\":2374:2400   */\n      swap1\n      pop\n        /* \"#utility.yul\":2446:2455   */\n      dup2\n        /* \"#utility.yul\":2440:2444   */\n      dup2\n        /* \"#utility.yul\":2436:2456   */\n      sub\n        /* \"#utility.yul\":2432:2433   */\n      0x00\n        /* \"#utility.yul\":2421:2430   */\n      dup4\n        /* \"#utility.yul\":2417:2434   */\n      add\n        /* \"#utility.yul\":2410:2457   */\n      mstore\n        /* \"#utility.yul\":2474:2605   */\n      tag_87\n        /* \"#utility.yul\":2600:2604   */\n      dup2\n        /* \"#utility.yul\":2474:2605   */\n      tag_74\n      jump\t// in\n    tag_87:\n        /* \"#utility.yul\":2466:2605   */\n      swap1\n      pop\n        /* \"#utility.yul\":2193:2612   */\n      swap2\n      swap1\n      pop\n      jump\t// out\n        /* \"#utility.yul\":2618:2840   */\n    tag_23:\n        /* \"#utility.yul\":2711:2715   */\n      0x00\n        /* \"#utility.yul\":2749:2751   */\n      0x20\n        /* \"#utility.yul\":2738:2747   */\n      dup3\n        /* \"#utility.yul\":2734:2752   */\n      add\n        /* \"#utility.yul\":2726:2752   */\n      swap1\n      pop\n        /* \"#utility.yul\":2762:2833   */\n      tag_89\n        /* \"#utility.yul\":2830:2831   */\n      0x00\n        /* \"#utility.yul\":2819:2828   */\n      dup4\n        /* \"#utility.yul\":2815:2832   */\n      add\n        /* \"#utility.yul\":2806:2812   */\n      dup5\n        /* \"#utility.yul\":2762:2833   */\n      tag_80\n      jump\t// in\n    tag_89:\n        /* \"#utility.yul\":2618:2840   */\n      swap3\n      swap2\n      pop\n      pop\n      jump\t// out\n        /* \"#utility.yul\":2927:3096   */\n    tag_77:\n        /* \"#utility.yul\":3011:3022   */\n      0x00\n        /* \"#utility.yul\":3045:3051   */\n      dup3\n        /* \"#utility.yul\":3040:3043   */\n      dup3\n        /* \"#utility.yul\":3033:3052   */\n      mstore\n        /* \"#utility.yul\":3085:3089   */\n      0x20\n        /* \"#utility.yul\":3080:3083   */\n      dup3\n        /* \"#utility.yul\":3076:3090   */\n      add\n        /* \"#utility.yul\":3061:3090   */\n      swap1\n      pop\n        /* \"#utility.yul\":2927:3096   */\n      swap3\n      swap2\n      pop\n      pop\n      jump\t// out\n        /* \"#utility.yul\":3102:3407   */\n    tag_31:\n        /* \"#utility.yul\":3142:3145   */\n      0x00\n        /* \"#utility.yul\":3161:3181   */\n      tag_94\n        /* \"#utility.yul\":3179:3180   */\n      dup3\n        /* \"#utility.yul\":3161:3181   */\n      tag_83\n      jump\t// in\n    tag_94:\n        /* \"#utility.yul\":3156:3181   */\n      swap2\n      pop\n        /* \"#utility.yul\":3195:3215   */\n      tag_95\n        /* \"#utility.yul\":3213:3214   */\n      dup4\n        /* \"#utility.yul\":3195:3215   */\n      tag_83\n      jump\t// in\n    tag_95:\n        /* \"#utility.yul\":3190:3215   */\n      swap3\n      pop\n        /* \"#utility.yul\":3349:3350   */\n      dup3\n        /* \"#utility.yul\":3281:3347   */\n      0xffffffffffffffffffffffffffffffffffffffffffffffffffffffffffffffff\n        /* \"#utility.yul\":3277:3351   */\n      sub\n        /* \"#utility.yul\":3274:3275   */\n      dup3\n        /* \"#utility.yul\":3271:3352   */\n      gt\n        /* \"#utility.yul\":3268:3375   */\n      iszero\n      tag_96\n      jumpi\n        /* \"#utility.yul\":3355:3373   */\n      tag_97\n      tag_98\n      jump\t// in\n    tag_97:\n        /* \"#utility.yul\":3268:3375   */\n    tag_96:\n        /* \"#utility.yul\":3399:3400   */\n      dup3\n        /* \"#utility.yul\":3396:3397   */\n      dup3\n        /* \"#utility.yul\":3392:3401   */\n      add\n        /* \"#utility.yul\":3385:3401   */\n      swap1\n      pop\n        /* \"#utility.yul\":3102:3407   */\n      swap3\n      swap2\n      pop\n      pop\n      jump\t// out\n        /* \"#utility.yul\":3413:3604   */\n    tag_41:\n        /* \"#utility.yul\":3453:3457   */\n      0x00\n        /* \"#utility.yul\":3473:3493   */\n      tag_100\n        /* \"#utility.yul\":3491:3492   */\n      dup3\n        /* \"#utility.yul\":3473:3493   */\n      tag_83\n      jump\t// in\n    tag_100:\n        /* \"#utility.yul\":3468:3493   */\n      swap2\n      pop\n        /* \"#utility.yul\":3507:3527   */\n      tag_101\n        /* \"#utility.yul\":3525:3526   */\n      dup4\n        /* \"#utility.yul\":3507:3527   */\n      tag_83\n      jump\t// in\n    tag_101:\n        /* \"#utility.yul\":3502:3527   */\n      swap3\n      pop\n        /* \"#utility.yul\":3546:3547   */\n      dup3\n        /* \"#utility.yul\":3543:3544   */\n      dup3\n        /* \"#utility.yul\":3540:3548   */\n      lt\n        /* \"#utility.yul\":3537:3571   */\n      iszero\n      tag_102\n      jumpi\n        /* \"#utility.yul\":3551:3569   */\n      tag_103\n      tag_98\n      jump\t// in\n    tag_103:\n        /* \"#utility.yul\":3537:3571   */\n    tag_102:\n        /* \"#utility.yul\":3596:3597   */\n      dup3\n        /* \"#utility.yul\":3593:3594   */\n      dup3\n        /* \"#utility.yul\":3589:3598   */\n      sub\n        /* \"#utility.yul\":3581:3598   */\n      swap1\n      pop\n        /* \"#utility.yul\":3413:3604   */\n      swap3\n      swap2\n      pop\n      pop\n      jump\t// out\n        /* \"#utility.yul\":3610:3706   */\n    tag_104:\n        /* \"#utility.yul\":3647:3654   */\n      0x00\n        /* \"#utility.yul\":3676:3700   */\n      tag_106\n        /* \"#utility.yul\":3694:3699   */\n      dup3\n        /* \"#utility.yul\":3676:3700   */\n      tag_107\n      jump\t// in\n    tag_106:\n        /* \"#utility.yul\":3665:3700   */\n      swap1\n      pop\n        /* \"#utility.yul\":3610:3706   */\n      swap2\n      swap1\n      pop\n      jump\t// out\n        /* \"#utility.yul\":3712:3816   */\n    tag_73:\n        /* \"#utility.yul\":3757:3764   */\n      0x00\n        /* \"#utility.yul\":3786:3810   */\n      tag_109\n        /* \"#utility.yul\":3804:3809   */\n      dup3\n        /* \"#utility.yul\":3786:3810   */\n      tag_107\n      jump\t// in\n    tag_109:\n        /* \"#utility.yul\":3775:3810   */\n      swap1\n      pop\n        /* \"#utility.yul\":3712:3816   */\n      swap2\n      swap1\n      pop\n      jump\t// out\n        /* \"#utility.yul\":3822:3948   */\n    tag_107:\n        /* \"#utility.yul\":3859:3866   */\n      0x00\n        /* \"#utility.yul\":3899:3941   */\n      0xffffffffffffffffffffffffffffffffffffffff\n        /* \"#utility.yul\":3892:3897   */\n      dup3\n        /* \"#utility.yul\":3888:3942   */\n      and\n        /* \"#utility.yul\":3877:3942   */\n      swap1\n      pop\n        /* \"#utility.yul\":3822:3948   */\n      swap2\n      swap1\n      pop\n      jump\t// out\n        /* \"#utility.yul\":3954:4031   */\n    tag_83:\n        /* \"#utility.yul\":3991:3998   */\n      0x00\n        /* \"#utility.yul\":4020:4025   */\n      dup2\n        /* \"#utility.yul\":4009:4025   */\n      swap1\n      pop\n        /* \"#utility.yul\":3954:4031   */\n      swap2\n      swap1\n      pop\n      jump\t// out\n        /* \"#utility.yul\":4037:4217   */\n    tag_34:\n        /* \"#utility.yul\":4085:4162   */\n      0x4e487b7100000000000000000000000000000000000000000000000000000000\n        /* \"#utility.yul\":4082:4083   */\n      0x00\n        /* \"#utility.yul\":4075:4163   */\n      mstore\n        /* \"#utility.yul\":4182:4186   */\n      0x01\n        /* \"#utility.yul\":4179:4180   */\n      0x04\n        /* \"#utility.yul\":4172:4187   */\n      mstore\n        /* \"#utility.yul\":4206:4210   */\n      0x24\n        /* \"#utility.yul\":4203:4204   */\n      0x00\n        /* \"#utility.yul\":4196:4211   */\n      revert\n        /* \"#utility.yul\":4223:4403   */\n    tag_98:\n        /* \"#utility.yul\":4271:4348   */\n      0x4e487b7100000000000000000000000000000000000000000000000000000000\n        /* \"#utility.yul\":4268:4269   */\n      0x00\n        /* \"#utility.yul\":4261:4349   */\n      mstore\n        /* \"#utility.yul\":4368:4372   */\n      0x11\n        /* \"#utility.yul\":4365:4366   */\n      0x04\n        /* \"#utility.yul\":4358:4373   */\n      mstore\n        /* \"#utility.yul\":4392:4396   */\n      0x24\n        /* \"#utility.yul\":4389:4390   */\n      0x00\n        /* \"#utility.yul\":4382:4397   */\n      revert\n        /* \"#utility.yul\":4532:4649   */\n    tag_63:\n        /* \"#utility.yul\":4641:4642   */\n      0x00\n        /* \"#utility.yul\":4638:4639   */\n      dup1\n        /* \"#utility.yul\":4631:4643   */\n      revert\n        /* \"#utility.yul\":4655:4822   */\n    tag_79:\n        /* \"#utility.yul\":4795:4814   */\n      0x6e6f7420656e6f7567682066756e64732e000000000000000000000000000000\n        /* \"#utility.yul\":4791:4792   */\n      0x00\n        /* \"#utility.yul\":4783:4789   */\n      dup3\n        /* \"#utility.yul\":4779:4793   */\n      add\n        /* \"#utility.yul\":4772:4815   */\n      mstore\n        /* \"#utility.yul\":4655:4822   */\n      pop\n      jump\t// out\n        /* \"#utility.yul\":4828:4950   */\n    tag_51:\n        /* \"#utility.yul\":4901:4925   */\n      tag_119\n        /* \"#utility.yul\":4919:4924   */\n      dup2\n        /* \"#utility.yul\":4901:4925   */\n      tag_104\n      jump\t// in\n    tag_119:\n        /* \"#utility.yul\":4894:4899   */\n      dup2\n        /* \"#utility.yul\":4891:4926   */\n      eq\n        /* \"#utility.yul\":4881:4944   */\n      tag_120\n      jumpi\n        /* \"#utility.yul\":4940:4941   */\n      0x00\n        /* \"#utility.yul\":4937:4938   */\n      dup1\n        /* \"#utility.yul\":4930:4942   */\n      revert\n        /* \"#utility.yul\":4881:4944   */\n    tag_120:\n        /* \"#utility.yul\":4828:4950   */\n      pop\n      jump\t// out\n        /* \"#utility.yul\":4956:5094   */\n    tag_55:\n        /* \"#utility.yul\":5037:5069   */\n      tag_122\n        /* \"#utility.yul\":5063:5068   */\n      dup2\n        /* \"#utility.yul\":5037:5069   */\n      tag_73\n      jump\t// in\n    tag_122:\n        /* \"#utility.yul\":5030:5035   */\n      dup2\n        /* \"#utility.yul\":5027:5070   */\n      eq\n        /* \"#utility.yul\":5017:5088   */\n      tag_123\n      jumpi\n        /* \"#utility.yul\":5084:5085   */\n      0x00\n        /* \"#utility.yul\":5081:5082   */\n      dup1\n        /* \"#utility.yul\":5074:5086   */\n      revert\n        /* \"#utility.yul\":5017:5088   */\n    tag_123:\n        /* \"#utility.yul\":4956:5094   */\n      pop\n      jump\t// out\n        /* \"#utility.yul\":5100:5222   */\n    tag_59:\n        /* \"#utility.yul\":5173:5197   */\n      tag_125\n        /* \"#utility.yul\":5191:5196   */\n      dup2\n        /* \"#utility.yul\":5173:5197   */\n      tag_83\n      jump\t// in\n    tag_125:\n        /* \"#utility.yul\":5166:5171   */\n      dup2\n        /* \"#utility.yul\":5163:5198   */\n      eq\n        /* \"#utility.yul\":5153:5216   */\n      tag_126\n      jumpi\n        /* \"#utility.yul\":5212:5213   */\n      0x00\n        /* \"#utility.yul\":5209:5210   */\n      dup1\n        /* \"#utility.yul\":5202:5214   */\n      revert\n        /* \"#utility.yul\":5153:5216   */\n    tag_126:\n        /* \"#utility.yul\":5100:5222   */\n      pop\n      jump\t// out\n\n    auxdata: 0xa26469706673582212204dee6010e097ae9efa0c367a2e4236dd832d2828923fd6b95cca91c66d19966664736f6c63430008070033\n}\n",
				"bytecode": {
					"linkReferences": {},
					"object": "608060405234801561001057600080fd5b5061070b806100206000396000f3fe6080604052600436106100435760003560e01c80636d26ec18146100575780638da5cb5b14610061578063d18a42e11461008c578063f274c897146100c957610052565b36610052576100506100f2565b005b600080fd5b61005f6100f2565b005b34801561006d57600080fd5b506100766101e1565b60405161008391906104c5565b60405180910390f35b34801561009857600080fd5b506100b360048036038101906100ae9190610417565b610207565b6040516100c09190610500565b60405180910390f35b3480156100d557600080fd5b506100f060048036038101906100eb9190610444565b61021f565b005b6000803373ffffffffffffffffffffffffffffffffffffffff1673ffffffffffffffffffffffffffffffffffffffff16815260200190815260200160002054346000803373ffffffffffffffffffffffffffffffffffffffff1673ffffffffffffffffffffffffffffffffffffffff1681526020019081526020016000205461017b919061052c565b101561018a57610189610604565b5b346000803373ffffffffffffffffffffffffffffffffffffffff1673ffffffffffffffffffffffffffffffffffffffff16815260200190815260200160002060008282546101d8919061052c565b92505081905550565b600160009054906101000a900473ffffffffffffffffffffffffffffffffffffffff1681565b60006020528060005260406000206000915090505481565b6000803373ffffffffffffffffffffffffffffffffffffffff1673ffffffffffffffffffffffffffffffffffffffff168152602001908152602001600020548111156102a0576040517f08c379a0000000000000000000000000000000000000000000000000000000008152600401610297906104e0565b60405180910390fd5b806000803373ffffffffffffffffffffffffffffffffffffffff1673ffffffffffffffffffffffffffffffffffffffff168152602001908152602001600020546102ea9190610582565b6000803373ffffffffffffffffffffffffffffffffffffffff1673ffffffffffffffffffffffffffffffffffffffff16815260200190815260200160002054101561033857610337610604565b5b806000803373ffffffffffffffffffffffffffffffffffffffff1673ffffffffffffffffffffffffffffffffffffffff16815260200190815260200160002060008282546103869190610582565b925050819055508173ffffffffffffffffffffffffffffffffffffffff166108fc829081150290604051600060405180830381858888f193505050501580156103d3573d6000803e3d6000fd5b505050565b6000813590506103e781610690565b92915050565b6000813590506103fc816106a7565b92915050565b600081359050610411816106be565b92915050565b60006020828403121561042d5761042c610662565b5b600061043b848285016103d8565b91505092915050565b6000806040838503121561045b5761045a610662565b5b6000610469858286016103ed565b925050602061047a85828601610402565b9150509250929050565b61048d816105c8565b82525050565b60006104a060118361051b565b91506104ab82610667565b602082019050919050565b6104bf816105fa565b82525050565b60006020820190506104da6000830184610484565b92915050565b600060208201905081810360008301526104f981610493565b9050919050565b600060208201905061051560008301846104b6565b92915050565b600082825260208201905092915050565b6000610537826105fa565b9150610542836105fa565b9250827fffffffffffffffffffffffffffffffffffffffffffffffffffffffffffffffff0382111561057757610576610633565b5b828201905092915050565b600061058d826105fa565b9150610598836105fa565b9250828210156105ab576105aa610633565b5b828203905092915050565b60006105c1826105da565b9050919050565b60006105d3826105da565b9050919050565b600073ffffffffffffffffffffffffffffffffffffffff82169050919050565b6000819050919050565b7f4e487b7100000000000000000000000000000000000000000000000000000000600052600160045260246000fd5b7f4e487b7100000000000000000000000000000000000000000000000000000000600052601160045260246000fd5b600080fd5b7f6e6f7420656e6f7567682066756e64732e000000000000000000000000000000600082015250565b610699816105b6565b81146106a457600080fd5b50565b6106b0816105c8565b81146106bb57600080fd5b50565b6106c7816105fa565b81146106d257600080fd5b5056fea26469706673582212204dee6010e097ae9efa0c367a2e4236dd832d2828923fd6b95cca91c66d19966664736f6c63430008070033",
					"opcodes": "PUSH1 0x80 PUSH1 0x40 MSTORE CALLVALUE DUP1 ISZERO PUSH2 0x10 JUMPI PUSH1 0x0 DUP1 REVERT JUMPDEST POP PUSH2 0x70B DUP1 PUSH2 0x20 PUSH1 0x0 CODECOPY PUSH1 0x0 RETURN INVALID PUSH1 0x80 PUSH1 0x40 MSTORE PUSH1 0x4 CALLDATASIZE LT PUSH2 0x43 JUMPI PUSH1 0x0 CALLDATALOAD PUSH1 0xE0 SHR DUP1 PUSH4 0x6D26EC18 EQ PUSH2 0x57 JUMPI DUP1 PUSH4 0x8DA5CB5B EQ PUSH2 0x61 JUMPI DUP1 PUSH4 0xD18A42E1 EQ PUSH2 0x8C JUMPI DUP1 PUSH4 0xF274C897 EQ PUSH2 0xC9 JUMPI PUSH2 0x52 JUMP JUMPDEST CALLDATASIZE PUSH2 0x52 JUMPI PUSH2 0x50 PUSH2 0xF2 JUMP JUMPDEST STOP JUMPDEST PUSH1 0x0 DUP1 REVERT JUMPDEST PUSH2 0x5F PUSH2 0xF2 JUMP JUMPDEST STOP JUMPDEST CALLVALUE DUP1 ISZERO PUSH2 0x6D JUMPI PUSH1 0x0 DUP1 REVERT JUMPDEST POP PUSH2 0x76 PUSH2 0x1E1 JUMP JUMPDEST PUSH1 0x40 MLOAD PUSH2 0x83 SWAP2 SWAP1 PUSH2 0x4C5 JUMP JUMPDEST PUSH1 0x40 MLOAD DUP1 SWAP2 SUB SWAP1 RETURN JUMPDEST CALLVALUE DUP1 ISZERO PUSH2 0x98 JUMPI PUSH1 0x0 DUP1 REVERT JUMPDEST POP PUSH2 0xB3 PUSH1 0x4 DUP1 CALLDATASIZE SUB DUP2 ADD SWAP1 PUSH2 0xAE SWAP2 SWAP1 PUSH2 0x417 JUMP JUMPDEST PUSH2 0x207 JUMP JUMPDEST PUSH1 0x40 MLOAD PUSH2 0xC0 SWAP2 SWAP1 PUSH2 0x500 JUMP JUMPDEST PUSH1 0x40 MLOAD DUP1 SWAP2 SUB SWAP1 RETURN JUMPDEST CALLVALUE DUP1 ISZERO PUSH2 0xD5 JUMPI PUSH1 0x0 DUP1 REVERT JUMPDEST POP PUSH2 0xF0 PUSH1 0x4 DUP1 CALLDATASIZE SUB DUP2 ADD SWAP1 PUSH2 0xEB SWAP2 SWAP1 PUSH2 0x444 JUMP JUMPDEST PUSH2 0x21F JUMP JUMPDEST STOP JUMPDEST PUSH1 0x0 DUP1 CALLER PUSH20 0xFFFFFFFFFFFFFFFFFFFFFFFFFFFFFFFFFFFFFFFF AND PUSH20 0xFFFFFFFFFFFFFFFFFFFFFFFFFFFFFFFFFFFFFFFF AND DUP2 MSTORE PUSH1 0x20 ADD SWAP1 DUP2 MSTORE PUSH1 0x20 ADD PUSH1 0x0 KECCAK256 SLOAD CALLVALUE PUSH1 0x0 DUP1 CALLER PUSH20 0xFFFFFFFFFFFFFFFFFFFFFFFFFFFFFFFFFFFFFFFF AND PUSH20 0xFFFFFFFFFFFFFFFFFFFFFFFFFFFFFFFFFFFFFFFF AND DUP2 MSTORE PUSH1 0x20 ADD SWAP1 DUP2 MSTORE PUSH1 0x20 ADD PUSH1 0x0 KECCAK256 SLOAD PUSH2 0x17B SWAP2 SWAP1 PUSH2 0x52C JUMP JUMPDEST LT ISZERO PUSH2 0x18A JUMPI PUSH2 0x189 PUSH2 0x604 JUMP JUMPDEST JUMPDEST CALLVALUE PUSH1 0x0 DUP1 CALLER PUSH20 0xFFFFFFFFFFFFFFFFFFFFFFFFFFFFFFFFFFFFFFFF AND PUSH20 0xFFFFFFFFFFFFFFFFFFFFFFFFFFFFFFFFFFFFFFFF AND DUP2 MSTORE PUSH1 0x20 ADD SWAP1 DUP2 MSTORE PUSH1 0x20 ADD PUSH1 0x0 KECCAK256 PUSH1 0x0 DUP3 DUP3 SLOAD PUSH2 0x1D8 SWAP2 SWAP1 PUSH2 0x52C JUMP JUMPDEST SWAP3 POP POP DUP2 SWAP1 SSTORE POP JUMP JUMPDEST PUSH1 0x1 PUSH1 0x0 SWAP1 SLOAD SWAP1 PUSH2 0x100 EXP SWAP1 DIV PUSH20 0xFFFFFFFFFFFFFFFFFFFFFFFFFFFFFFFFFFFFFFFF AND DUP2 JUMP JUMPDEST PUSH1 0x0 PUSH1 0x20 MSTORE DUP1 PUSH1 0x0 MSTORE PUSH1 0x40 PUSH1 0x0 KECCAK256 PUSH1 0x0 SWAP2 POP SWAP1 POP SLOAD DUP2 JUMP JUMPDEST PUSH1 0x0 DUP1 CALLER PUSH20 0xFFFFFFFFFFFFFFFFFFFFFFFFFFFFFFFFFFFFFFFF AND PUSH20 0xFFFFFFFFFFFFFFFFFFFFFFFFFFFFFFFFFFFFFFFF AND DUP2 MSTORE PUSH1 0x20 ADD SWAP1 DUP2 MSTORE PUSH1 0x20 ADD PUSH1 0x0 KECCAK256 SLOAD DUP2 GT ISZERO PUSH2 0x2A0 JUMPI PUSH1 0x40 MLOAD PUSH32 0x8C379A000000000000000000000000000000000000000000000000000000000 DUP2 MSTORE PUSH1 0x4 ADD PUSH2 0x297 SWAP1 PUSH2 0x4E0 JUMP JUMPDEST PUSH1 0x40 MLOAD DUP1 SWAP2 SUB SWAP1 REVERT JUMPDEST DUP1 PUSH1 0x0 DUP1 CALLER PUSH20 0xFFFFFFFFFFFFFFFFFFFFFFFFFFFFFFFFFFFFFFFF AND PUSH20 0xFFFFFFFFFFFFFFFFFFFFFFFFFFFFFFFFFFFFFFFF AND DUP2 MSTORE PUSH1 0x20 ADD SWAP1 DUP2 MSTORE PUSH1 0x20 ADD PUSH1 0x0 KECCAK256 SLOAD PUSH2 0x2EA SWAP2 SWAP1 PUSH2 0x582 JUMP JUMPDEST PUSH1 0x0 DUP1 CALLER PUSH20 0xFFFFFFFFFFFFFFFFFFFFFFFFFFFFFFFFFFFFFFFF AND PUSH20 0xFFFFFFFFFFFFFFFFFFFFFFFFFFFFFFFFFFFFFFFF AND DUP2 MSTORE PUSH1 0x20 ADD SWAP1 DUP2 MSTORE PUSH1 0x20 ADD PUSH1 0x0 KECCAK256 SLOAD LT ISZERO PUSH2 0x338 JUMPI PUSH2 0x337 PUSH2 0x604 JUMP JUMPDEST JUMPDEST DUP1 PUSH1 0x0 DUP1 CALLER PUSH20 0xFFFFFFFFFFFFFFFFFFFFFFFFFFFFFFFFFFFFFFFF AND PUSH20 0xFFFFFFFFFFFFFFFFFFFFFFFFFFFFFFFFFFFFFFFF AND DUP2 MSTORE PUSH1 0x20 ADD SWAP1 DUP2 MSTORE PUSH1 0x20 ADD PUSH1 0x0 KECCAK256 PUSH1 0x0 DUP3 DUP3 SLOAD PUSH2 0x386 SWAP2 SWAP1 PUSH2 0x582 JUMP JUMPDEST SWAP3 POP POP DUP2 SWAP1 SSTORE POP DUP2 PUSH20 0xFFFFFFFFFFFFFFFFFFFFFFFFFFFFFFFFFFFFFFFF AND PUSH2 0x8FC DUP3 SWAP1 DUP2 ISZERO MUL SWAP1 PUSH1 0x40 MLOAD PUSH1 0x0 PUSH1 0x40 MLOAD DUP1 DUP4 SUB DUP2 DUP6 DUP9 DUP9 CALL SWAP4 POP POP POP POP ISZERO DUP1 ISZERO PUSH2 0x3D3 JUMPI RETURNDATASIZE PUSH1 0x0 DUP1 RETURNDATACOPY RETURNDATASIZE PUSH1 0x0 REVERT JUMPDEST POP POP POP JUMP JUMPDEST PUSH1 0x0 DUP2 CALLDATALOAD SWAP1 POP PUSH2 0x3E7 DUP2 PUSH2 0x690 JUMP JUMPDEST SWAP3 SWAP2 POP POP JUMP JUMPDEST PUSH1 0x0 DUP2 CALLDATALOAD SWAP1 POP PUSH2 0x3FC DUP2 PUSH2 0x6A7 JUMP JUMPDEST SWAP3 SWAP2 POP POP JUMP JUMPDEST PUSH1 0x0 DUP2 CALLDATALOAD SWAP1 POP PUSH2 0x411 DUP2 PUSH2 0x6BE JUMP JUMPDEST SWAP3 SWAP2 POP POP JUMP JUMPDEST PUSH1 0x0 PUSH1 0x20 DUP3 DUP5 SUB SLT ISZERO PUSH2 0x42D JUMPI PUSH2 0x42C PUSH2 0x662 JUMP JUMPDEST JUMPDEST PUSH1 0x0 PUSH2 0x43B DUP5 DUP3 DUP6 ADD PUSH2 0x3D8 JUMP JUMPDEST SWAP2 POP POP SWAP3 SWAP2 POP POP JUMP JUMPDEST PUSH1 0x0 DUP1 PUSH1 0x40 DUP4 DUP6 SUB SLT ISZERO PUSH2 0x45B JUMPI PUSH2 0x45A PUSH2 0x662 JUMP JUMPDEST JUMPDEST PUSH1 0x0 PUSH2 0x469 DUP6 DUP3 DUP7 ADD PUSH2 0x3ED JUMP JUMPDEST SWAP3 POP POP PUSH1 0x20 PUSH2 0x47A DUP6 DUP3 DUP7 ADD PUSH2 0x402 JUMP JUMPDEST SWAP2 POP POP SWAP3 POP SWAP3 SWAP1 POP JUMP JUMPDEST PUSH2 0x48D DUP2 PUSH2 0x5C8 JUMP JUMPDEST DUP3 MSTORE POP POP JUMP JUMPDEST PUSH1 0x0 PUSH2 0x4A0 PUSH1 0x11 DUP4 PUSH2 0x51B JUMP JUMPDEST SWAP2 POP PUSH2 0x4AB DUP3 PUSH2 0x667 JUMP JUMPDEST PUSH1 0x20 DUP3 ADD SWAP1 POP SWAP2 SWAP1 POP JUMP JUMPDEST PUSH2 0x4BF DUP2 PUSH2 0x5FA JUMP JUMPDEST DUP3 MSTORE POP POP JUMP JUMPDEST PUSH1 0x0 PUSH1 0x20 DUP3 ADD SWAP1 POP PUSH2 0x4DA PUSH1 0x0 DUP4 ADD DUP5 PUSH2 0x484 JUMP JUMPDEST SWAP3 SWAP2 POP POP JUMP JUMPDEST PUSH1 0x0 PUSH1 0x20 DUP3 ADD SWAP1 POP DUP2 DUP2 SUB PUSH1 0x0 DUP4 ADD MSTORE PUSH2 0x4F9 DUP2 PUSH2 0x493 JUMP JUMPDEST SWAP1 POP SWAP2 SWAP1 POP JUMP JUMPDEST PUSH1 0x0 PUSH1 0x20 DUP3 ADD SWAP1 POP PUSH2 0x515 PUSH1 0x0 DUP4 ADD DUP5 PUSH2 0x4B6 JUMP JUMPDEST SWAP3 SWAP2 POP POP JUMP JUMPDEST PUSH1 0x0 DUP3 DUP3 MSTORE PUSH1 0x20 DUP3 ADD SWAP1 POP SWAP3 SWAP2 POP POP JUMP JUMPDEST PUSH1 0x0 PUSH2 0x537 DUP3 PUSH2 0x5FA JUMP JUMPDEST SWAP2 POP PUSH2 0x542 DUP4 PUSH2 0x5FA JUMP JUMPDEST SWAP3 POP DUP3 PUSH32 0xFFFFFFFFFFFFFFFFFFFFFFFFFFFFFFFFFFFFFFFFFFFFFFFFFFFFFFFFFFFFFFFF SUB DUP3 GT ISZERO PUSH2 0x577 JUMPI PUSH2 0x576 PUSH2 0x633 JUMP JUMPDEST JUMPDEST DUP3 DUP3 ADD SWAP1 POP SWAP3 SWAP2 POP POP JUMP JUMPDEST PUSH1 0x0 PUSH2 0x58D DUP3 PUSH2 0x5FA JUMP JUMPDEST SWAP2 POP PUSH2 0x598 DUP4 PUSH2 0x5FA JUMP JUMPDEST SWAP3 POP DUP3 DUP3 LT ISZERO PUSH2 0x5AB JUMPI PUSH2 0x5AA PUSH2 0x633 JUMP JUMPDEST JUMPDEST DUP3 DUP3 SUB SWAP1 POP SWAP3 SWAP2 POP POP JUMP JUMPDEST PUSH1 0x0 PUSH2 0x5C1 DUP3 PUSH2 0x5DA JUMP JUMPDEST SWAP1 POP SWAP2 SWAP1 POP JUMP JUMPDEST PUSH1 0x0 PUSH2 0x5D3 DUP3 PUSH2 0x5DA JUMP JUMPDEST SWAP1 POP SWAP2 SWAP1 POP JUMP JUMPDEST PUSH1 0x0 PUSH20 0xFFFFFFFFFFFFFFFFFFFFFFFFFFFFFFFFFFFFFFFF DUP3 AND SWAP1 POP SWAP2 SWAP1 POP JUMP JUMPDEST PUSH1 0x0 DUP2 SWAP1 POP SWAP2 SWAP1 POP JUMP JUMPDEST PUSH32 0x4E487B7100000000000000000000000000000000000000000000000000000000 PUSH1 0x0 MSTORE PUSH1 0x1 PUSH1 0x4 MSTORE PUSH1 0x24 PUSH1 0x0 REVERT JUMPDEST PUSH32 0x4E487B7100000000000000000000000000000000000000000000000000000000 PUSH1 0x0 MSTORE PUSH1 0x11 PUSH1 0x4 MSTORE PUSH1 0x24 PUSH1 0x0 REVERT JUMPDEST PUSH1 0x0 DUP1 REVERT JUMPDEST PUSH32 0x6E6F7420656E6F7567682066756E64732E000000000000000000000000000000 PUSH1 0x0 DUP3 ADD MSTORE POP JUMP JUMPDEST PUSH2 0x699 DUP2 PUSH2 0x5B6 JUMP JUMPDEST DUP2 EQ PUSH2 0x6A4 JUMPI PUSH1 0x0 DUP1 REVERT JUMPDEST POP JUMP JUMPDEST PUSH2 0x6B0 DUP2 PUSH2 0x5C8 JUMP JUMPDEST DUP2 EQ PUSH2 0x6BB JUMPI PUSH1 0x0 DUP1 REVERT JUMPDEST POP JUMP JUMPDEST PUSH2 0x6C7 DUP2 PUSH2 0x5FA JUMP JUMPDEST DUP2 EQ PUSH2 0x6D2 JUMPI PUSH1 0x0 DUP1 REVERT JUMPDEST POP JUMP INVALID LOG2 PUSH5 0x6970667358 0x22 SLT KECCAK256 0x4D 0xEE PUSH1 0x10 0xE0 SWAP8 0xAE SWAP15 STATICCALL 0xC CALLDATASIZE PUSH27 0x2E4236DD832D2828923FD6B95CCA91C66D19966664736F6C634300 ADDMOD SMOD STOP CALLER "
				},
				"gasEstimates": {
					"creation": {
						"codeDepositCost": "360600",
						"executionCost": "399",
						"totalCost": "360999"
					},
					"external": {
						"balanceReceived(address)": "2836",
						"owner()": "2514",
						"receiveMoney()": "infinite",
						"withdrawMoney(address,uint256)": "infinite"
					}
				},
				"methodIdentifiers": {
					"balanceReceived(address)": "d18a42e1",
					"owner()": "8da5cb5b",
					"receiveMoney()": "6d26ec18",
					"withdrawMoney(address,uint256)": "f274c897"
				}
			},
			"storageLayout": {
				"storage": [
					{
						"astId": 5,
						"contract": "FallBackExample.sol:FunctionsExample",
						"label": "balanceReceived",
						"offset": 0,
						"slot": "0",
						"type": "t_mapping(t_address,t_uint256)"
					},
					{
						"astId": 7,
						"contract": "FallBackExample.sol:FunctionsExample",
						"label": "owner",
						"offset": 0,
						"slot": "1",
						"type": "t_address_payable"
					}
				],
				"types": {
					"t_address": {
						"encoding": "inplace",
						"label": "address",
						"numberOfBytes": "20"
					},
					"t_address_payable": {
						"encoding": "inplace",
						"label": "address payable",
						"numberOfBytes": "20"
					},
					"t_mapping(t_address,t_uint256)": {
						"encoding": "mapping",
						"key": "t_address",
						"label": "mapping(address => uint256)",
						"numberOfBytes": "32",
						"value": "t_uint256"
					},
					"t_uint256": {
						"encoding": "inplace",
						"label": "uint256",
						"numberOfBytes": "32"
					}
				}
			},
			"userdoc": {
				"kind": "user",
				"methods": {},
				"version": 1
			}
		}
	}
}