{
	"StartingStopping.sol": {
		"StartStopUpdateExample": {
			"abi": [
				{
					"inputs": [],
					"stateMutability": "nonpayable",
					"type": "constructor"
				},
				{
					"inputs": [],
					"name": "SendMoney",
					"outputs": [],
					"stateMutability": "payable",
					"type": "function"
				},
				{
					"inputs": [
						{
							"internalType": "address payable",
							"name": "_to",
							"type": "address"
						}
					],
					"name": "WithdrawMoney",
					"outputs": [],
					"stateMutability": "nonpayable",
					"type": "function"
				},
				{
					"inputs": [],
					"name": "owner",
					"outputs": [
						{
							"internalType": "address",
							"name": "",
							"type": "address"
						}
					],
					"stateMutability": "view",
					"type": "function"
				},
				{
					"inputs": [],
					"name": "paused",
					"outputs": [
						{
							"internalType": "bool",
							"name": "",
							"type": "bool"
						}
					],
					"stateMutability": "view",
					"type": "function"
				},
				{
					"inputs": [
						{
							"internalType": "bool",
							"name": "_paused",
							"type": "bool"
						}
					],
					"name": "setPaused",
					"outputs": [],
					"stateMutability": "nonpayable",
					"type": "function"
				}
			],
			"devdoc": {
				"kind": "dev",
				"methods": {},
				"version": 1
			},
			"evm": {
				"assembly": "    /* \"StartingStopping.sol\":25:560  contract StartStopUpdateExample{\r... */\n  mstore(0x40, 0x80)\n    /* \"StartingStopping.sol\":117:178  constructor (){\r... */\n  callvalue\n  dup1\n  iszero\n  tag_1\n  jumpi\n  0x00\n  dup1\n  revert\ntag_1:\n  pop\n    /* \"StartingStopping.sol\":150:160  msg.sender */\n  caller\n    /* \"StartingStopping.sol\":142:147  owner */\n  0x00\n  dup1\n    /* \"StartingStopping.sol\":142:160  owner = msg.sender */\n  0x0100\n  exp\n  dup2\n  sload\n  dup2\n  0xffffffffffffffffffffffffffffffffffffffff\n  mul\n  not\n  and\n  swap1\n  dup4\n  0xffffffffffffffffffffffffffffffffffffffff\n  and\n  mul\n  or\n  swap1\n  sstore\n  pop\n    /* \"StartingStopping.sol\":25:560  contract StartStopUpdateExample{\r... */\n  dataSize(sub_0)\n  dup1\n  dataOffset(sub_0)\n  0x00\n  codecopy\n  0x00\n  return\nstop\n\nsub_0: assembly {\n        /* \"StartingStopping.sol\":25:560  contract StartStopUpdateExample{\r... */\n      mstore(0x40, 0x80)\n      jumpi(tag_1, lt(calldatasize, 0x04))\n      shr(0xe0, calldataload(0x00))\n      dup1\n      0x05737314\n      eq\n      tag_2\n      jumpi\n      dup1\n      0x16c38b3c\n      eq\n      tag_3\n      jumpi\n      dup1\n      0x5c975abb\n      eq\n      tag_4\n      jumpi\n      dup1\n      0x8da5cb5b\n      eq\n      tag_5\n      jumpi\n      dup1\n      0xcf0ac9d0\n      eq\n      tag_6\n      jumpi\n    tag_1:\n      0x00\n      dup1\n      revert\n        /* \"StartingStopping.sol\":186:232  function SendMoney() public payable {\r... */\n    tag_2:\n      tag_7\n      tag_8\n      jump\t// in\n    tag_7:\n      stop\n        /* \"StartingStopping.sol\":238:379  function setPaused(bool _paused) public {\r... */\n    tag_3:\n      callvalue\n      dup1\n      iszero\n      tag_9\n      jumpi\n      0x00\n      dup1\n      revert\n    tag_9:\n      pop\n      tag_10\n      0x04\n      dup1\n      calldatasize\n      sub\n      dup2\n      add\n      swap1\n      tag_11\n      swap2\n      swap1\n      tag_12\n      jump\t// in\n    tag_11:\n      tag_13\n      jump\t// in\n    tag_10:\n      stop\n        /* \"StartingStopping.sol\":92:110  bool public paused */\n    tag_4:\n      callvalue\n      dup1\n      iszero\n      tag_14\n      jumpi\n      0x00\n      dup1\n      revert\n    tag_14:\n      pop\n      tag_15\n      tag_16\n      jump\t// in\n    tag_15:\n      mload(0x40)\n      tag_17\n      swap2\n      swap1\n      tag_18\n      jump\t// in\n    tag_17:\n      mload(0x40)\n      dup1\n      swap2\n      sub\n      swap1\n      return\n        /* \"StartingStopping.sol\":65:85  address public owner */\n    tag_5:\n      callvalue\n      dup1\n      iszero\n      tag_19\n      jumpi\n      0x00\n      dup1\n      revert\n    tag_19:\n      pop\n      tag_20\n      tag_21\n      jump\t// in\n    tag_20:\n      mload(0x40)\n      tag_22\n      swap2\n      swap1\n      tag_23\n      jump\t// in\n    tag_22:\n      mload(0x40)\n      dup1\n      swap2\n      sub\n      swap1\n      return\n        /* \"StartingStopping.sol\":385:555  function WithdrawMoney(address payable _to)public {\r... */\n    tag_6:\n      callvalue\n      dup1\n      iszero\n      tag_24\n      jumpi\n      0x00\n      dup1\n      revert\n    tag_24:\n      pop\n      tag_25\n      0x04\n      dup1\n      calldatasize\n      sub\n      dup2\n      add\n      swap1\n      tag_26\n      swap2\n      swap1\n      tag_27\n      jump\t// in\n    tag_26:\n      tag_28\n      jump\t// in\n    tag_25:\n      stop\n        /* \"StartingStopping.sol\":186:232  function SendMoney() public payable {\r... */\n    tag_8:\n      jump\t// out\n        /* \"StartingStopping.sol\":238:379  function setPaused(bool _paused) public {\r... */\n    tag_13:\n        /* \"StartingStopping.sol\":307:317  msg.sender */\n      caller\n        /* \"StartingStopping.sol\":298:317  owner == msg.sender */\n      0xffffffffffffffffffffffffffffffffffffffff\n      and\n        /* \"StartingStopping.sol\":298:303  owner */\n      0x00\n      dup1\n      sload\n      swap1\n      0x0100\n      exp\n      swap1\n      div\n      0xffffffffffffffffffffffffffffffffffffffff\n      and\n        /* \"StartingStopping.sol\":298:317  owner == msg.sender */\n      0xffffffffffffffffffffffffffffffffffffffff\n      and\n      eq\n        /* \"StartingStopping.sol\":289:344  require (owner == msg.sender, \"You are not the owner.\") */\n      tag_31\n      jumpi\n      mload(0x40)\n      0x08c379a000000000000000000000000000000000000000000000000000000000\n      dup2\n      mstore\n      0x04\n      add\n      tag_32\n      swap1\n      tag_33\n      jump\t// in\n    tag_32:\n      mload(0x40)\n      dup1\n      swap2\n      sub\n      swap1\n      revert\n    tag_31:\n        /* \"StartingStopping.sol\":364:371  _paused */\n      dup1\n        /* \"StartingStopping.sol\":355:361  paused */\n      0x00\n      0x14\n        /* \"StartingStopping.sol\":355:371  paused = _paused */\n      0x0100\n      exp\n      dup2\n      sload\n      dup2\n      0xff\n      mul\n      not\n      and\n      swap1\n      dup4\n      iszero\n      iszero\n      mul\n      or\n      swap1\n      sstore\n      pop\n        /* \"StartingStopping.sol\":238:379  function setPaused(bool _paused) public {\r... */\n      pop\n      jump\t// out\n        /* \"StartingStopping.sol\":92:110  bool public paused */\n    tag_16:\n      0x00\n      0x14\n      swap1\n      sload\n      swap1\n      0x0100\n      exp\n      swap1\n      div\n      0xff\n      and\n      dup2\n      jump\t// out\n        /* \"StartingStopping.sol\":65:85  address public owner */\n    tag_21:\n      0x00\n      dup1\n      sload\n      swap1\n      0x0100\n      exp\n      swap1\n      div\n      0xffffffffffffffffffffffffffffffffffffffff\n      and\n      dup2\n      jump\t// out\n        /* \"StartingStopping.sol\":385:555  function WithdrawMoney(address payable _to)public {\r... */\n    tag_28:\n        /* \"StartingStopping.sol\":463:473  msg.sender */\n      caller\n        /* \"StartingStopping.sol\":454:473  owner == msg.sender */\n      0xffffffffffffffffffffffffffffffffffffffff\n      and\n        /* \"StartingStopping.sol\":454:459  owner */\n      0x00\n      dup1\n      sload\n      swap1\n      0x0100\n      exp\n      swap1\n      div\n      0xffffffffffffffffffffffffffffffffffffffff\n      and\n        /* \"StartingStopping.sol\":454:473  owner == msg.sender */\n      0xffffffffffffffffffffffffffffffffffffffff\n      and\n      eq\n        /* \"StartingStopping.sol\":446:498  require(owner == msg.sender, \"You Cannot Withdraw.\") */\n      tag_35\n      jumpi\n      mload(0x40)\n      0x08c379a000000000000000000000000000000000000000000000000000000000\n      dup2\n      mstore\n      0x04\n      add\n      tag_36\n      swap1\n      tag_37\n      jump\t// in\n    tag_36:\n      mload(0x40)\n      dup1\n      swap2\n      sub\n      swap1\n      revert\n    tag_35:\n        /* \"StartingStopping.sol\":509:512  _to */\n      dup1\n        /* \"StartingStopping.sol\":509:521  _to.transfer */\n      0xffffffffffffffffffffffffffffffffffffffff\n      and\n        /* \"StartingStopping.sol\":509:545  _to.transfer (address(this).balance) */\n      0x08fc\n        /* \"StartingStopping.sol\":523:544  address(this).balance */\n      selfbalance\n        /* \"StartingStopping.sol\":509:545  _to.transfer (address(this).balance) */\n      swap1\n      dup2\n      iszero\n      mul\n      swap1\n      mload(0x40)\n      0x00\n      mload(0x40)\n      dup1\n      dup4\n      sub\n      dup2\n      dup6\n      dup9\n      dup9\n      call\n      swap4\n      pop\n      pop\n      pop\n      pop\n      iszero\n      dup1\n      iszero\n      tag_39\n      jumpi\n      returndatasize\n      0x00\n      dup1\n      returndatacopy\n      revert(0x00, returndatasize)\n    tag_39:\n      pop\n        /* \"StartingStopping.sol\":385:555  function WithdrawMoney(address payable _to)public {\r... */\n      pop\n      jump\t// out\n        /* \"#utility.yul\":7:162   */\n    tag_41:\n        /* \"#utility.yul\":61:66   */\n      0x00\n        /* \"#utility.yul\":99:105   */\n      dup2\n        /* \"#utility.yul\":86:106   */\n      calldataload\n        /* \"#utility.yul\":77:106   */\n      swap1\n      pop\n        /* \"#utility.yul\":115:156   */\n      tag_43\n        /* \"#utility.yul\":150:155   */\n      dup2\n        /* \"#utility.yul\":115:156   */\n      tag_44\n      jump\t// in\n    tag_43:\n        /* \"#utility.yul\":7:162   */\n      swap3\n      swap2\n      pop\n      pop\n      jump\t// out\n        /* \"#utility.yul\":168:301   */\n    tag_45:\n        /* \"#utility.yul\":211:216   */\n      0x00\n        /* \"#utility.yul\":249:255   */\n      dup2\n        /* \"#utility.yul\":236:256   */\n      calldataload\n        /* \"#utility.yul\":227:256   */\n      swap1\n      pop\n        /* \"#utility.yul\":265:295   */\n      tag_47\n        /* \"#utility.yul\":289:294   */\n      dup2\n        /* \"#utility.yul\":265:295   */\n      tag_48\n      jump\t// in\n    tag_47:\n        /* \"#utility.yul\":168:301   */\n      swap3\n      swap2\n      pop\n      pop\n      jump\t// out\n        /* \"#utility.yul\":307:652   */\n    tag_27:\n        /* \"#utility.yul\":374:380   */\n      0x00\n        /* \"#utility.yul\":423:425   */\n      0x20\n        /* \"#utility.yul\":411:420   */\n      dup3\n        /* \"#utility.yul\":402:409   */\n      dup5\n        /* \"#utility.yul\":398:421   */\n      sub\n        /* \"#utility.yul\":394:426   */\n      slt\n        /* \"#utility.yul\":391:510   */\n      iszero\n      tag_50\n      jumpi\n        /* \"#utility.yul\":429:508   */\n      tag_51\n      tag_52\n      jump\t// in\n    tag_51:\n        /* \"#utility.yul\":391:510   */\n    tag_50:\n        /* \"#utility.yul\":549:550   */\n      0x00\n        /* \"#utility.yul\":574:635   */\n      tag_53\n        /* \"#utility.yul\":627:634   */\n      dup5\n        /* \"#utility.yul\":618:624   */\n      dup3\n        /* \"#utility.yul\":607:616   */\n      dup6\n        /* \"#utility.yul\":603:625   */\n      add\n        /* \"#utility.yul\":574:635   */\n      tag_41\n      jump\t// in\n    tag_53:\n        /* \"#utility.yul\":564:635   */\n      swap2\n      pop\n        /* \"#utility.yul\":520:645   */\n      pop\n        /* \"#utility.yul\":307:652   */\n      swap3\n      swap2\n      pop\n      pop\n      jump\t// out\n        /* \"#utility.yul\":658:981   */\n    tag_12:\n        /* \"#utility.yul\":714:720   */\n      0x00\n        /* \"#utility.yul\":763:765   */\n      0x20\n        /* \"#utility.yul\":751:760   */\n      dup3\n        /* \"#utility.yul\":742:749   */\n      dup5\n        /* \"#utility.yul\":738:761   */\n      sub\n        /* \"#utility.yul\":734:766   */\n      slt\n        /* \"#utility.yul\":731:850   */\n      iszero\n      tag_55\n      jumpi\n        /* \"#utility.yul\":769:848   */\n      tag_56\n      tag_52\n      jump\t// in\n    tag_56:\n        /* \"#utility.yul\":731:850   */\n    tag_55:\n        /* \"#utility.yul\":889:890   */\n      0x00\n        /* \"#utility.yul\":914:964   */\n      tag_57\n        /* \"#utility.yul\":956:963   */\n      dup5\n        /* \"#utility.yul\":947:953   */\n      dup3\n        /* \"#utility.yul\":936:945   */\n      dup6\n        /* \"#utility.yul\":932:954   */\n      add\n        /* \"#utility.yul\":914:964   */\n      tag_45\n      jump\t// in\n    tag_57:\n        /* \"#utility.yul\":904:964   */\n      swap2\n      pop\n        /* \"#utility.yul\":860:974   */\n      pop\n        /* \"#utility.yul\":658:981   */\n      swap3\n      swap2\n      pop\n      pop\n      jump\t// out\n        /* \"#utility.yul\":987:1105   */\n    tag_58:\n        /* \"#utility.yul\":1074:1098   */\n      tag_60\n        /* \"#utility.yul\":1092:1097   */\n      dup2\n        /* \"#utility.yul\":1074:1098   */\n      tag_61\n      jump\t// in\n    tag_60:\n        /* \"#utility.yul\":1069:1072   */\n      dup3\n        /* \"#utility.yul\":1062:1099   */\n      mstore\n        /* \"#utility.yul\":987:1105   */\n      pop\n      pop\n      jump\t// out\n        /* \"#utility.yul\":1111:1220   */\n    tag_62:\n        /* \"#utility.yul\":1192:1213   */\n      tag_64\n        /* \"#utility.yul\":1207:1212   */\n      dup2\n        /* \"#utility.yul\":1192:1213   */\n      tag_65\n      jump\t// in\n    tag_64:\n        /* \"#utility.yul\":1187:1190   */\n      dup3\n        /* \"#utility.yul\":1180:1214   */\n      mstore\n        /* \"#utility.yul\":1111:1220   */\n      pop\n      pop\n      jump\t// out\n        /* \"#utility.yul\":1226:1592   */\n    tag_66:\n        /* \"#utility.yul\":1368:1371   */\n      0x00\n        /* \"#utility.yul\":1389:1456   */\n      tag_68\n        /* \"#utility.yul\":1453:1455   */\n      0x14\n        /* \"#utility.yul\":1448:1451   */\n      dup4\n        /* \"#utility.yul\":1389:1456   */\n      tag_69\n      jump\t// in\n    tag_68:\n        /* \"#utility.yul\":1382:1456   */\n      swap2\n      pop\n        /* \"#utility.yul\":1465:1558   */\n      tag_70\n        /* \"#utility.yul\":1554:1557   */\n      dup3\n        /* \"#utility.yul\":1465:1558   */\n      tag_71\n      jump\t// in\n    tag_70:\n        /* \"#utility.yul\":1583:1585   */\n      0x20\n        /* \"#utility.yul\":1578:1581   */\n      dup3\n        /* \"#utility.yul\":1574:1586   */\n      add\n        /* \"#utility.yul\":1567:1586   */\n      swap1\n      pop\n        /* \"#utility.yul\":1226:1592   */\n      swap2\n      swap1\n      pop\n      jump\t// out\n        /* \"#utility.yul\":1598:1964   */\n    tag_72:\n        /* \"#utility.yul\":1740:1743   */\n      0x00\n        /* \"#utility.yul\":1761:1828   */\n      tag_74\n        /* \"#utility.yul\":1825:1827   */\n      0x16\n        /* \"#utility.yul\":1820:1823   */\n      dup4\n        /* \"#utility.yul\":1761:1828   */\n      tag_69\n      jump\t// in\n    tag_74:\n        /* \"#utility.yul\":1754:1828   */\n      swap2\n      pop\n        /* \"#utility.yul\":1837:1930   */\n      tag_75\n        /* \"#utility.yul\":1926:1929   */\n      dup3\n        /* \"#utility.yul\":1837:1930   */\n      tag_76\n      jump\t// in\n    tag_75:\n        /* \"#utility.yul\":1955:1957   */\n      0x20\n        /* \"#utility.yul\":1950:1953   */\n      dup3\n        /* \"#utility.yul\":1946:1958   */\n      add\n        /* \"#utility.yul\":1939:1958   */\n      swap1\n      pop\n        /* \"#utility.yul\":1598:1964   */\n      swap2\n      swap1\n      pop\n      jump\t// out\n        /* \"#utility.yul\":1970:2192   */\n    tag_23:\n        /* \"#utility.yul\":2063:2067   */\n      0x00\n        /* \"#utility.yul\":2101:2103   */\n      0x20\n        /* \"#utility.yul\":2090:2099   */\n      dup3\n        /* \"#utility.yul\":2086:2104   */\n      add\n        /* \"#utility.yul\":2078:2104   */\n      swap1\n      pop\n        /* \"#utility.yul\":2114:2185   */\n      tag_78\n        /* \"#utility.yul\":2182:2183   */\n      0x00\n        /* \"#utility.yul\":2171:2180   */\n      dup4\n        /* \"#utility.yul\":2167:2184   */\n      add\n        /* \"#utility.yul\":2158:2164   */\n      dup5\n        /* \"#utility.yul\":2114:2185   */\n      tag_58\n      jump\t// in\n    tag_78:\n        /* \"#utility.yul\":1970:2192   */\n      swap3\n      swap2\n      pop\n      pop\n      jump\t// out\n        /* \"#utility.yul\":2198:2408   */\n    tag_18:\n        /* \"#utility.yul\":2285:2289   */\n      0x00\n        /* \"#utility.yul\":2323:2325   */\n      0x20\n        /* \"#utility.yul\":2312:2321   */\n      dup3\n        /* \"#utility.yul\":2308:2326   */\n      add\n        /* \"#utility.yul\":2300:2326   */\n      swap1\n      pop\n        /* \"#utility.yul\":2336:2401   */\n      tag_80\n        /* \"#utility.yul\":2398:2399   */\n      0x00\n        /* \"#utility.yul\":2387:2396   */\n      dup4\n        /* \"#utility.yul\":2383:2400   */\n      add\n        /* \"#utility.yul\":2374:2380   */\n      dup5\n        /* \"#utility.yul\":2336:2401   */\n      tag_62\n      jump\t// in\n    tag_80:\n        /* \"#utility.yul\":2198:2408   */\n      swap3\n      swap2\n      pop\n      pop\n      jump\t// out\n        /* \"#utility.yul\":2414:2833   */\n    tag_37:\n        /* \"#utility.yul\":2580:2584   */\n      0x00\n        /* \"#utility.yul\":2618:2620   */\n      0x20\n        /* \"#utility.yul\":2607:2616   */\n      dup3\n        /* \"#utility.yul\":2603:2621   */\n      add\n        /* \"#utility.yul\":2595:2621   */\n      swap1\n      pop\n        /* \"#utility.yul\":2667:2676   */\n      dup2\n        /* \"#utility.yul\":2661:2665   */\n      dup2\n        /* \"#utility.yul\":2657:2677   */\n      sub\n        /* \"#utility.yul\":2653:2654   */\n      0x00\n        /* \"#utility.yul\":2642:2651   */\n      dup4\n        /* \"#utility.yul\":2638:2655   */\n      add\n        /* \"#utility.yul\":2631:2678   */\n      mstore\n        /* \"#utility.yul\":2695:2826   */\n      tag_82\n        /* \"#utility.yul\":2821:2825   */\n      dup2\n        /* \"#utility.yul\":2695:2826   */\n      tag_66\n      jump\t// in\n    tag_82:\n        /* \"#utility.yul\":2687:2826   */\n      swap1\n      pop\n        /* \"#utility.yul\":2414:2833   */\n      swap2\n      swap1\n      pop\n      jump\t// out\n        /* \"#utility.yul\":2839:3258   */\n    tag_33:\n        /* \"#utility.yul\":3005:3009   */\n      0x00\n        /* \"#utility.yul\":3043:3045   */\n      0x20\n        /* \"#utility.yul\":3032:3041   */\n      dup3\n        /* \"#utility.yul\":3028:3046   */\n      add\n        /* \"#utility.yul\":3020:3046   */\n      swap1\n      pop\n        /* \"#utility.yul\":3092:3101   */\n      dup2\n        /* \"#utility.yul\":3086:3090   */\n      dup2\n        /* \"#utility.yul\":3082:3102   */\n      sub\n        /* \"#utility.yul\":3078:3079   */\n      0x00\n        /* \"#utility.yul\":3067:3076   */\n      dup4\n        /* \"#utility.yul\":3063:3080   */\n      add\n        /* \"#utility.yul\":3056:3103   */\n      mstore\n        /* \"#utility.yul\":3120:3251   */\n      tag_84\n        /* \"#utility.yul\":3246:3250   */\n      dup2\n        /* \"#utility.yul\":3120:3251   */\n      tag_72\n      jump\t// in\n    tag_84:\n        /* \"#utility.yul\":3112:3251   */\n      swap1\n      pop\n        /* \"#utility.yul\":2839:3258   */\n      swap2\n      swap1\n      pop\n      jump\t// out\n        /* \"#utility.yul\":3345:3514   */\n    tag_69:\n        /* \"#utility.yul\":3429:3440   */\n      0x00\n        /* \"#utility.yul\":3463:3469   */\n      dup3\n        /* \"#utility.yul\":3458:3461   */\n      dup3\n        /* \"#utility.yul\":3451:3470   */\n      mstore\n        /* \"#utility.yul\":3503:3507   */\n      0x20\n        /* \"#utility.yul\":3498:3501   */\n      dup3\n        /* \"#utility.yul\":3494:3508   */\n      add\n        /* \"#utility.yul\":3479:3508   */\n      swap1\n      pop\n        /* \"#utility.yul\":3345:3514   */\n      swap3\n      swap2\n      pop\n      pop\n      jump\t// out\n        /* \"#utility.yul\":3520:3616   */\n    tag_61:\n        /* \"#utility.yul\":3557:3564   */\n      0x00\n        /* \"#utility.yul\":3586:3610   */\n      tag_89\n        /* \"#utility.yul\":3604:3609   */\n      dup3\n        /* \"#utility.yul\":3586:3610   */\n      tag_90\n      jump\t// in\n    tag_89:\n        /* \"#utility.yul\":3575:3610   */\n      swap1\n      pop\n        /* \"#utility.yul\":3520:3616   */\n      swap2\n      swap1\n      pop\n      jump\t// out\n        /* \"#utility.yul\":3622:3726   */\n    tag_91:\n        /* \"#utility.yul\":3667:3674   */\n      0x00\n        /* \"#utility.yul\":3696:3720   */\n      tag_93\n        /* \"#utility.yul\":3714:3719   */\n      dup3\n        /* \"#utility.yul\":3696:3720   */\n      tag_90\n      jump\t// in\n    tag_93:\n        /* \"#utility.yul\":3685:3720   */\n      swap1\n      pop\n        /* \"#utility.yul\":3622:3726   */\n      swap2\n      swap1\n      pop\n      jump\t// out\n        /* \"#utility.yul\":3732:3822   */\n    tag_65:\n        /* \"#utility.yul\":3766:3773   */\n      0x00\n        /* \"#utility.yul\":3809:3814   */\n      dup2\n        /* \"#utility.yul\":3802:3815   */\n      iszero\n        /* \"#utility.yul\":3795:3816   */\n      iszero\n        /* \"#utility.yul\":3784:3816   */\n      swap1\n      pop\n        /* \"#utility.yul\":3732:3822   */\n      swap2\n      swap1\n      pop\n      jump\t// out\n        /* \"#utility.yul\":3828:3954   */\n    tag_90:\n        /* \"#utility.yul\":3865:3872   */\n      0x00\n        /* \"#utility.yul\":3905:3947   */\n      0xffffffffffffffffffffffffffffffffffffffff\n        /* \"#utility.yul\":3898:3903   */\n      dup3\n        /* \"#utility.yul\":3894:3948   */\n      and\n        /* \"#utility.yul\":3883:3948   */\n      swap1\n      pop\n        /* \"#utility.yul\":3828:3954   */\n      swap2\n      swap1\n      pop\n      jump\t// out\n        /* \"#utility.yul\":4083:4200   */\n    tag_52:\n        /* \"#utility.yul\":4192:4193   */\n      0x00\n        /* \"#utility.yul\":4189:4190   */\n      dup1\n        /* \"#utility.yul\":4182:4194   */\n      revert\n        /* \"#utility.yul\":4206:4376   */\n    tag_71:\n        /* \"#utility.yul\":4346:4368   */\n      0x596f752043616e6e6f742057697468647261772e000000000000000000000000\n        /* \"#utility.yul\":4342:4343   */\n      0x00\n        /* \"#utility.yul\":4334:4340   */\n      dup3\n        /* \"#utility.yul\":4330:4344   */\n      add\n        /* \"#utility.yul\":4323:4369   */\n      mstore\n        /* \"#utility.yul\":4206:4376   */\n      pop\n      jump\t// out\n        /* \"#utility.yul\":4382:4554   */\n    tag_76:\n        /* \"#utility.yul\":4522:4546   */\n      0x596f7520617265206e6f7420746865206f776e65722e00000000000000000000\n        /* \"#utility.yul\":4518:4519   */\n      0x00\n        /* \"#utility.yul\":4510:4516   */\n      dup3\n        /* \"#utility.yul\":4506:4520   */\n      add\n        /* \"#utility.yul\":4499:4547   */\n      mstore\n        /* \"#utility.yul\":4382:4554   */\n      pop\n      jump\t// out\n        /* \"#utility.yul\":4560:4698   */\n    tag_44:\n        /* \"#utility.yul\":4641:4673   */\n      tag_102\n        /* \"#utility.yul\":4667:4672   */\n      dup2\n        /* \"#utility.yul\":4641:4673   */\n      tag_91\n      jump\t// in\n    tag_102:\n        /* \"#utility.yul\":4634:4639   */\n      dup2\n        /* \"#utility.yul\":4631:4674   */\n      eq\n        /* \"#utility.yul\":4621:4692   */\n      tag_103\n      jumpi\n        /* \"#utility.yul\":4688:4689   */\n      0x00\n        /* \"#utility.yul\":4685:4686   */\n      dup1\n        /* \"#utility.yul\":4678:4690   */\n      revert\n        /* \"#utility.yul\":4621:4692   */\n    tag_103:\n        /* \"#utility.yul\":4560:4698   */\n      pop\n      jump\t// out\n        /* \"#utility.yul\":4704:4820   */\n    tag_48:\n        /* \"#utility.yul\":4774:4795   */\n      tag_105\n        /* \"#utility.yul\":4789:4794   */\n      dup2\n        /* \"#utility.yul\":4774:4795   */\n      tag_65\n      jump\t// in\n    tag_105:\n        /* \"#utility.yul\":4767:4772   */\n      dup2\n        /* \"#utility.yul\":4764:4796   */\n      eq\n        /* \"#utility.yul\":4754:4814   */\n      tag_106\n      jumpi\n        /* \"#utility.yul\":4810:4811   */\n      0x00\n        /* \"#utility.yul\":4807:4808   */\n      dup1\n        /* \"#utility.yul\":4800:4812   */\n      revert\n        /* \"#utility.yul\":4754:4814   */\n    tag_106:\n        /* \"#utility.yul\":4704:4820   */\n      pop\n      jump\t// out\n\n    auxdata: 0xa26469706673582212207e2c723d358205977b43beea31ec6a2b4621ff3a9a1f1078b0bb09d024af040e64736f6c63430008070033\n}\n",
				"bytecode": {
					"linkReferences": {},
					"object": "608060405234801561001057600080fd5b50336000806101000a81548173ffffffffffffffffffffffffffffffffffffffff021916908373ffffffffffffffffffffffffffffffffffffffff160217905550610537806100606000396000f3fe60806040526004361061004a5760003560e01c8063057373141461004f57806316c38b3c146100595780635c975abb146100825780638da5cb5b146100ad578063cf0ac9d0146100d8575b600080fd5b610057610101565b005b34801561006557600080fd5b50610080600480360381019061007b9190610314565b610103565b005b34801561008e57600080fd5b506100976101ae565b6040516100a491906103c0565b60405180910390f35b3480156100b957600080fd5b506100c26101c1565b6040516100cf91906103a5565b60405180910390f35b3480156100e457600080fd5b506100ff60048036038101906100fa91906102e7565b6101e5565b005b565b3373ffffffffffffffffffffffffffffffffffffffff1660008054906101000a900473ffffffffffffffffffffffffffffffffffffffff1673ffffffffffffffffffffffffffffffffffffffff1614610191576040517f08c379a0000000000000000000000000000000000000000000000000000000008152600401610188906103fb565b60405180910390fd5b80600060146101000a81548160ff02191690831515021790555050565b600060149054906101000a900460ff1681565b60008054906101000a900473ffffffffffffffffffffffffffffffffffffffff1681565b3373ffffffffffffffffffffffffffffffffffffffff1660008054906101000a900473ffffffffffffffffffffffffffffffffffffffff1673ffffffffffffffffffffffffffffffffffffffff1614610273576040517f08c379a000000000000000000000000000000000000000000000000000000000815260040161026a906103db565b60405180910390fd5b8073ffffffffffffffffffffffffffffffffffffffff166108fc479081150290604051600060405180830381858888f193505050501580156102b9573d6000803e3d6000fd5b5050565b6000813590506102cc816104d3565b92915050565b6000813590506102e1816104ea565b92915050565b6000602082840312156102fd576102fc61047c565b5b600061030b848285016102bd565b91505092915050565b60006020828403121561032a5761032961047c565b5b6000610338848285016102d2565b91505092915050565b61034a8161042c565b82525050565b61035981610450565b82525050565b600061036c60148361041b565b915061037782610481565b602082019050919050565b600061038f60168361041b565b915061039a826104aa565b602082019050919050565b60006020820190506103ba6000830184610341565b92915050565b60006020820190506103d56000830184610350565b92915050565b600060208201905081810360008301526103f48161035f565b9050919050565b6000602082019050818103600083015261041481610382565b9050919050565b600082825260208201905092915050565b60006104378261045c565b9050919050565b60006104498261045c565b9050919050565b60008115159050919050565b600073ffffffffffffffffffffffffffffffffffffffff82169050919050565b600080fd5b7f596f752043616e6e6f742057697468647261772e000000000000000000000000600082015250565b7f596f7520617265206e6f7420746865206f776e65722e00000000000000000000600082015250565b6104dc8161043e565b81146104e757600080fd5b50565b6104f381610450565b81146104fe57600080fd5b5056fea26469706673582212207e2c723d358205977b43beea31ec6a2b4621ff3a9a1f1078b0bb09d024af040e64736f6c63430008070033",
					"opcodes": "PUSH1 0x80 PUSH1 0x40 MSTORE CALLVALUE DUP1 ISZERO PUSH2 0x10 JUMPI PUSH1 0x0 DUP1 REVERT JUMPDEST POP CALLER PUSH1 0x0 DUP1 PUSH2 0x100 EXP DUP2 SLOAD DUP2 PUSH20 0xFFFFFFFFFFFFFFFFFFFFFFFFFFFFFFFFFFFFFFFF MUL NOT AND SWAP1 DUP4 PUSH20 0xFFFFFFFFFFFFFFFFFFFFFFFFFFFFFFFFFFFFFFFF AND MUL OR SWAP1 SSTORE POP PUSH2 0x537 DUP1 PUSH2 0x60 PUSH1 0x0 CODECOPY PUSH1 0x0 RETURN INVALID PUSH1 0x80 PUSH1 0x40 MSTORE PUSH1 0x4 CALLDATASIZE LT PUSH2 0x4A JUMPI PUSH1 0x0 CALLDATALOAD PUSH1 0xE0 SHR DUP1 PUSH4 0x5737314 EQ PUSH2 0x4F JUMPI DUP1 PUSH4 0x16C38B3C EQ PUSH2 0x59 JUMPI DUP1 PUSH4 0x5C975ABB EQ PUSH2 0x82 JUMPI DUP1 PUSH4 0x8DA5CB5B EQ PUSH2 0xAD JUMPI DUP1 PUSH4 0xCF0AC9D0 EQ PUSH2 0xD8 JUMPI JUMPDEST PUSH1 0x0 DUP1 REVERT JUMPDEST PUSH2 0x57 PUSH2 0x101 JUMP JUMPDEST STOP JUMPDEST CALLVALUE DUP1 ISZERO PUSH2 0x65 JUMPI PUSH1 0x0 DUP1 REVERT JUMPDEST POP PUSH2 0x80 PUSH1 0x4 DUP1 CALLDATASIZE SUB DUP2 ADD SWAP1 PUSH2 0x7B SWAP2 SWAP1 PUSH2 0x314 JUMP JUMPDEST PUSH2 0x103 JUMP JUMPDEST STOP JUMPDEST CALLVALUE DUP1 ISZERO PUSH2 0x8E JUMPI PUSH1 0x0 DUP1 REVERT JUMPDEST POP PUSH2 0x97 PUSH2 0x1AE JUMP JUMPDEST PUSH1 0x40 MLOAD PUSH2 0xA4 SWAP2 SWAP1 PUSH2 0x3C0 JUMP JUMPDEST PUSH1 0x40 MLOAD DUP1 SWAP2 SUB SWAP1 RETURN JUMPDEST CALLVALUE DUP1 ISZERO PUSH2 0xB9 JUMPI PUSH1 0x0 DUP1 REVERT JUMPDEST POP PUSH2 0xC2 PUSH2 0x1C1 JUMP JUMPDEST PUSH1 0x40 MLOAD PUSH2 0xCF SWAP2 SWAP1 PUSH2 0x3A5 JUMP JUMPDEST PUSH1 0x40 MLOAD DUP1 SWAP2 SUB SWAP1 RETURN JUMPDEST CALLVALUE DUP1 ISZERO PUSH2 0xE4 JUMPI PUSH1 0x0 DUP1 REVERT JUMPDEST POP PUSH2 0xFF PUSH1 0x4 DUP1 CALLDATASIZE SUB DUP2 ADD SWAP1 PUSH2 0xFA SWAP2 SWAP1 PUSH2 0x2E7 JUMP JUMPDEST PUSH2 0x1E5 JUMP JUMPDEST STOP JUMPDEST JUMP JUMPDEST CALLER PUSH20 0xFFFFFFFFFFFFFFFFFFFFFFFFFFFFFFFFFFFFFFFF AND PUSH1 0x0 DUP1 SLOAD SWAP1 PUSH2 0x100 EXP SWAP1 DIV PUSH20 0xFFFFFFFFFFFFFFFFFFFFFFFFFFFFFFFFFFFFFFFF AND PUSH20 0xFFFFFFFFFFFFFFFFFFFFFFFFFFFFFFFFFFFFFFFF AND EQ PUSH2 0x191 JUMPI PUSH1 0x40 MLOAD PUSH32 0x8C379A000000000000000000000000000000000000000000000000000000000 DUP2 MSTORE PUSH1 0x4 ADD PUSH2 0x188 SWAP1 PUSH2 0x3FB JUMP JUMPDEST PUSH1 0x40 MLOAD DUP1 SWAP2 SUB SWAP1 REVERT JUMPDEST DUP1 PUSH1 0x0 PUSH1 0x14 PUSH2 0x100 EXP DUP2 SLOAD DUP2 PUSH1 0xFF MUL NOT AND SWAP1 DUP4 ISZERO ISZERO MUL OR SWAP1 SSTORE POP POP JUMP JUMPDEST PUSH1 0x0 PUSH1 0x14 SWAP1 SLOAD SWAP1 PUSH2 0x100 EXP SWAP1 DIV PUSH1 0xFF AND DUP2 JUMP JUMPDEST PUSH1 0x0 DUP1 SLOAD SWAP1 PUSH2 0x100 EXP SWAP1 DIV PUSH20 0xFFFFFFFFFFFFFFFFFFFFFFFFFFFFFFFFFFFFFFFF AND DUP2 JUMP JUMPDEST CALLER PUSH20 0xFFFFFFFFFFFFFFFFFFFFFFFFFFFFFFFFFFFFFFFF AND PUSH1 0x0 DUP1 SLOAD SWAP1 PUSH2 0x100 EXP SWAP1 DIV PUSH20 0xFFFFFFFFFFFFFFFFFFFFFFFFFFFFFFFFFFFFFFFF AND PUSH20 0xFFFFFFFFFFFFFFFFFFFFFFFFFFFFFFFFFFFFFFFF AND EQ PUSH2 0x273 JUMPI PUSH1 0x40 MLOAD PUSH32 0x8C379A000000000000000000000000000000000000000000000000000000000 DUP2 MSTORE PUSH1 0x4 ADD PUSH2 0x26A SWAP1 PUSH2 0x3DB JUMP JUMPDEST PUSH1 0x40 MLOAD DUP1 SWAP2 SUB SWAP1 REVERT JUMPDEST DUP1 PUSH20 0xFFFFFFFFFFFFFFFFFFFFFFFFFFFFFFFFFFFFFFFF AND PUSH2 0x8FC SELFBALANCE SWAP1 DUP2 ISZERO MUL SWAP1 PUSH1 0x40 MLOAD PUSH1 0x0 PUSH1 0x40 MLOAD DUP1 DUP4 SUB DUP2 DUP6 DUP9 DUP9 CALL SWAP4 POP POP POP POP ISZERO DUP1 ISZERO PUSH2 0x2B9 JUMPI RETURNDATASIZE PUSH1 0x0 DUP1 RETURNDATACOPY RETURNDATASIZE PUSH1 0x0 REVERT JUMPDEST POP POP JUMP JUMPDEST PUSH1 0x0 DUP2 CALLDATALOAD SWAP1 POP PUSH2 0x2CC DUP2 PUSH2 0x4D3 JUMP JUMPDEST SWAP3 SWAP2 POP POP JUMP JUMPDEST PUSH1 0x0 DUP2 CALLDATALOAD SWAP1 POP PUSH2 0x2E1 DUP2 PUSH2 0x4EA JUMP JUMPDEST SWAP3 SWAP2 POP POP JUMP JUMPDEST PUSH1 0x0 PUSH1 0x20 DUP3 DUP5 SUB SLT ISZERO PUSH2 0x2FD JUMPI PUSH2 0x2FC PUSH2 0x47C JUMP JUMPDEST JUMPDEST PUSH1 0x0 PUSH2 0x30B DUP5 DUP3 DUP6 ADD PUSH2 0x2BD JUMP JUMPDEST SWAP2 POP POP SWAP3 SWAP2 POP POP JUMP JUMPDEST PUSH1 0x0 PUSH1 0x20 DUP3 DUP5 SUB SLT ISZERO PUSH2 0x32A JUMPI PUSH2 0x329 PUSH2 0x47C JUMP JUMPDEST JUMPDEST PUSH1 0x0 PUSH2 0x338 DUP5 DUP3 DUP6 ADD PUSH2 0x2D2 JUMP JUMPDEST SWAP2 POP POP SWAP3 SWAP2 POP POP JUMP JUMPDEST PUSH2 0x34A DUP2 PUSH2 0x42C JUMP JUMPDEST DUP3 MSTORE POP POP JUMP JUMPDEST PUSH2 0x359 DUP2 PUSH2 0x450 JUMP JUMPDEST DUP3 MSTORE POP POP JUMP JUMPDEST PUSH1 0x0 PUSH2 0x36C PUSH1 0x14 DUP4 PUSH2 0x41B JUMP JUMPDEST SWAP2 POP PUSH2 0x377 DUP3 PUSH2 0x481 JUMP JUMPDEST PUSH1 0x20 DUP3 ADD SWAP1 POP SWAP2 SWAP1 POP JUMP JUMPDEST PUSH1 0x0 PUSH2 0x38F PUSH1 0x16 DUP4 PUSH2 0x41B JUMP JUMPDEST SWAP2 POP PUSH2 0x39A DUP3 PUSH2 0x4AA JUMP JUMPDEST PUSH1 0x20 DUP3 ADD SWAP1 POP SWAP2 SWAP1 POP JUMP JUMPDEST PUSH1 0x0 PUSH1 0x20 DUP3 ADD SWAP1 POP PUSH2 0x3BA PUSH1 0x0 DUP4 ADD DUP5 PUSH2 0x341 JUMP JUMPDEST SWAP3 SWAP2 POP POP JUMP JUMPDEST PUSH1 0x0 PUSH1 0x20 DUP3 ADD SWAP1 POP PUSH2 0x3D5 PUSH1 0x0 DUP4 ADD DUP5 PUSH2 0x350 JUMP JUMPDEST SWAP3 SWAP2 POP POP JUMP JUMPDEST PUSH1 0x0 PUSH1 0x20 DUP3 ADD SWAP1 POP DUP2 DUP2 SUB PUSH1 0x0 DUP4 ADD MSTORE PUSH2 0x3F4 DUP2 PUSH2 0x35F JUMP JUMPDEST SWAP1 POP SWAP2 SWAP1 POP JUMP JUMPDEST PUSH1 0x0 PUSH1 0x20 DUP3 ADD SWAP1 POP DUP2 DUP2 SUB PUSH1 0x0 DUP4 ADD MSTORE PUSH2 0x414 DUP2 PUSH2 0x382 JUMP JUMPDEST SWAP1 POP SWAP2 SWAP1 POP JUMP JUMPDEST PUSH1 0x0 DUP3 DUP3 MSTORE PUSH1 0x20 DUP3 ADD SWAP1 POP SWAP3 SWAP2 POP POP JUMP JUMPDEST PUSH1 0x0 PUSH2 0x437 DUP3 PUSH2 0x45C JUMP JUMPDEST SWAP1 POP SWAP2 SWAP1 POP JUMP JUMPDEST PUSH1 0x0 PUSH2 0x449 DUP3 PUSH2 0x45C JUMP JUMPDEST SWAP1 POP SWAP2 SWAP1 POP JUMP JUMPDEST PUSH1 0x0 DUP2 ISZERO ISZERO SWAP1 POP SWAP2 SWAP1 POP JUMP JUMPDEST PUSH1 0x0 PUSH20 0xFFFFFFFFFFFFFFFFFFFFFFFFFFFFFFFFFFFFFFFF DUP3 AND SWAP1 POP SWAP2 SWAP1 POP JUMP JUMPDEST PUSH1 0x0 DUP1 REVERT JUMPDEST PUSH32 0x596F752043616E6E6F742057697468647261772E000000000000000000000000 PUSH1 0x0 DUP3 ADD MSTORE POP JUMP JUMPDEST PUSH32 0x596F7520617265206E6F7420746865206F776E65722E00000000000000000000 PUSH1 0x0 DUP3 ADD MSTORE POP JUMP JUMPDEST PUSH2 0x4DC DUP2 PUSH2 0x43E JUMP JUMPDEST DUP2 EQ PUSH2 0x4E7 JUMPI PUSH1 0x0 DUP1 REVERT JUMPDEST POP JUMP JUMPDEST PUSH2 0x4F3 DUP2 PUSH2 0x450 JUMP JUMPDEST DUP2 EQ PUSH2 0x4FE JUMPI PUSH1 0x0 DUP1 REVERT JUMPDEST POP JUMP INVALID LOG2 PUSH5 0x6970667358 0x22 SLT KECCAK256 PUSH31 0x2C723D358205977B43BEEA31EC6A2B4621FF3A9A1F1078B0BB09D024AF040E PUSH5 0x736F6C6343 STOP ADDMOD SMOD STOP CALLER "
				},
				"gasEstimates": {
					"creation": {
						"codeDepositCost": "267000",
						"executionCost": "24572",
						"totalCost": "291572"
					},
					"external": {
						"SendMoney()": "98",
						"WithdrawMoney(address)": "infinite",
						"owner()": "2555",
						"paused()": "2543",
						"setPaused(bool)": "26896"
					}
				},
				"methodIdentifiers": {
					"SendMoney()": "05737314",
					"WithdrawMoney(address)": "cf0ac9d0",
					"owner()": "8da5cb5b",
					"paused()": "5c975abb",
					"setPaused(bool)": "16c38b3c"
				}
			},
			"storageLayout": {
				"storage": [
					{
						"astId": 3,
						"contract": "StartingStopping.sol:StartStopUpdateExample",
						"label": "owner",
						"offset": 0,
						"slot": "0",
						"type": "t_address"
					},
					{
						"astId": 5,
						"contract": "StartingStopping.sol:StartStopUpdateExample",
						"label": "paused",
						"offset": 20,
						"slot": "0",
						"type": "t_bool"
					}
				],
				"types": {
					"t_address": {
						"encoding": "inplace",
						"label": "address",
						"numberOfBytes": "20"
					},
					"t_bool": {
						"encoding": "inplace",
						"label": "bool",
						"numberOfBytes": "1"
					}
				}
			},
			"userdoc": {
				"kind": "user",
				"methods": {},
				"version": 1
			}
		}
	}
}