{
	"InheritanceModifierExample.sol": {
		"InheritanceModifierExample": {
			"abi": [
				{
					"inputs": [],
					"stateMutability": "nonpayable",
					"type": "constructor"
				},
				{
					"inputs": [],
					"name": "burnToken",
					"outputs": [],
					"stateMutability": "nonpayable",
					"type": "function"
				},
				{
					"inputs": [],
					"name": "createNewToken",
					"outputs": [],
					"stateMutability": "nonpayable",
					"type": "function"
				},
				{
					"inputs": [],
					"name": "purchaseToken",
					"outputs": [],
					"stateMutability": "payable",
					"type": "function"
				},
				{
					"inputs": [
						{
							"internalType": "address",
							"name": "",
							"type": "address"
						}
					],
					"name": "tokenBalance",
					"outputs": [
						{
							"internalType": "uint256",
							"name": "",
							"type": "uint256"
						}
					],
					"stateMutability": "view",
					"type": "function"
				}
			],
			"devdoc": {
				"kind": "dev",
				"methods": {},
				"version": 1
			},
			"evm": {
				"assembly": "    /* \"InheritanceModifierExample.sol\":27:827  contract InheritanceModifierExample {\r... */\n  mstore(0x40, 0x80)\n    /* \"InheritanceModifierExample.sol\":166:173  1 ether */\n  0x0de0b6b3a7640000\n    /* \"InheritanceModifierExample.sol\":148:173  uint tokenPrice = 1 ether */\n  0x02\n  sstore\n    /* \"InheritanceModifierExample.sol\":182:276  constructor () public {\r... */\n  callvalue\n  dup1\n  iszero\n  tag_1\n  jumpi\n  0x00\n  dup1\n  revert\ntag_1:\n  pop\n    /* \"InheritanceModifierExample.sol\":223:233  msg.sender */\n  caller\n    /* \"InheritanceModifierExample.sol\":215:220  owner */\n  0x01\n  0x00\n    /* \"InheritanceModifierExample.sol\":215:233  owner = msg.sender */\n  0x0100\n  exp\n  dup2\n  sload\n  dup2\n  0xffffffffffffffffffffffffffffffffffffffff\n  mul\n  not\n  and\n  swap1\n  dup4\n  0xffffffffffffffffffffffffffffffffffffffff\n  and\n  mul\n  or\n  swap1\n  sstore\n  pop\n    /* \"InheritanceModifierExample.sol\":265:268  100 */\n  0x64\n    /* \"InheritanceModifierExample.sol\":244:256  tokenBalance */\n  0x00\n    /* \"InheritanceModifierExample.sol\":244:263  tokenBalance[owner] */\n  dup1\n    /* \"InheritanceModifierExample.sol\":257:262  owner */\n  0x01\n  0x00\n  swap1\n  sload\n  swap1\n  0x0100\n  exp\n  swap1\n  div\n  0xffffffffffffffffffffffffffffffffffffffff\n  and\n    /* \"InheritanceModifierExample.sol\":244:263  tokenBalance[owner] */\n  0xffffffffffffffffffffffffffffffffffffffff\n  and\n  0xffffffffffffffffffffffffffffffffffffffff\n  and\n  dup2\n  mstore\n  0x20\n  add\n  swap1\n  dup2\n  mstore\n  0x20\n  add\n  0x00\n  keccak256\n    /* \"InheritanceModifierExample.sol\":244:268  tokenBalance[owner] =100 */\n  dup2\n  swap1\n  sstore\n  pop\n    /* \"InheritanceModifierExample.sol\":27:827  contract InheritanceModifierExample {\r... */\n  dataSize(sub_0)\n  dup1\n  dataOffset(sub_0)\n  0x00\n  codecopy\n  0x00\n  return\nstop\n\nsub_0: assembly {\n        /* \"InheritanceModifierExample.sol\":27:827  contract InheritanceModifierExample {\r... */\n      mstore(0x40, 0x80)\n      jumpi(tag_1, lt(calldatasize, 0x04))\n      shr(0xe0, calldataload(0x00))\n      dup1\n      0x754fc38c\n      eq\n      tag_2\n      jumpi\n      dup1\n      0xa95c4d62\n      eq\n      tag_3\n      jumpi\n      dup1\n      0xeedc966a\n      eq\n      tag_4\n      jumpi\n      dup1\n      0xfaa0a264\n      eq\n      tag_5\n      jumpi\n    tag_1:\n      0x00\n      dup1\n      revert\n        /* \"InheritanceModifierExample.sol\":282:418  function createNewToken () public {\r... */\n    tag_2:\n      callvalue\n      dup1\n      iszero\n      tag_6\n      jumpi\n      0x00\n      dup1\n      revert\n    tag_6:\n      pop\n      tag_7\n      tag_8\n      jump\t// in\n    tag_7:\n      stop\n        /* \"InheritanceModifierExample.sol\":565:810  function purchaseToken() public payable {\r... */\n    tag_3:\n      tag_9\n      tag_10\n      jump\t// in\n    tag_9:\n      stop\n        /* \"InheritanceModifierExample.sol\":76:121  mapping (address => uint) public tokenBalance */\n    tag_4:\n      callvalue\n      dup1\n      iszero\n      tag_11\n      jumpi\n      0x00\n      dup1\n      revert\n    tag_11:\n      pop\n      tag_12\n      0x04\n      dup1\n      calldatasize\n      sub\n      dup2\n      add\n      swap1\n      tag_13\n      swap2\n      swap1\n      tag_14\n      jump\t// in\n    tag_13:\n      tag_15\n      jump\t// in\n    tag_12:\n      mload(0x40)\n      tag_16\n      swap2\n      swap1\n      tag_17\n      jump\t// in\n    tag_16:\n      mload(0x40)\n      dup1\n      swap2\n      sub\n      swap1\n      return\n        /* \"InheritanceModifierExample.sol\":426:557  function burnToken () public {\r... */\n    tag_5:\n      callvalue\n      dup1\n      iszero\n      tag_18\n      jumpi\n      0x00\n      dup1\n      revert\n    tag_18:\n      pop\n      tag_19\n      tag_20\n      jump\t// in\n    tag_19:\n      stop\n        /* \"InheritanceModifierExample.sol\":282:418  function createNewToken () public {\r... */\n    tag_8:\n        /* \"InheritanceModifierExample.sol\":347:352  owner */\n      0x01\n      0x00\n      swap1\n      sload\n      swap1\n      0x0100\n      exp\n      swap1\n      div\n      0xffffffffffffffffffffffffffffffffffffffff\n      and\n        /* \"InheritanceModifierExample.sol\":335:352  msg.sender==owner */\n      0xffffffffffffffffffffffffffffffffffffffff\n      and\n        /* \"InheritanceModifierExample.sol\":335:345  msg.sender */\n      caller\n        /* \"InheritanceModifierExample.sol\":335:352  msg.sender==owner */\n      0xffffffffffffffffffffffffffffffffffffffff\n      and\n      eq\n        /* \"InheritanceModifierExample.sol\":327:378  require(msg.sender==owner, \"You are not the owner\") */\n      tag_22\n      jumpi\n      mload(0x40)\n      0x08c379a000000000000000000000000000000000000000000000000000000000\n      dup2\n      mstore\n      0x04\n      add\n      tag_23\n      swap1\n      tag_24\n      jump\t// in\n    tag_23:\n      mload(0x40)\n      dup1\n      swap2\n      sub\n      swap1\n      revert\n    tag_22:\n        /* \"InheritanceModifierExample.sol\":389:401  tokenBalance */\n      0x00\n        /* \"InheritanceModifierExample.sol\":389:408  tokenBalance[owner] */\n      dup1\n        /* \"InheritanceModifierExample.sol\":402:407  owner */\n      0x01\n      0x00\n      swap1\n      sload\n      swap1\n      0x0100\n      exp\n      swap1\n      div\n      0xffffffffffffffffffffffffffffffffffffffff\n      and\n        /* \"InheritanceModifierExample.sol\":389:408  tokenBalance[owner] */\n      0xffffffffffffffffffffffffffffffffffffffff\n      and\n      0xffffffffffffffffffffffffffffffffffffffff\n      and\n      dup2\n      mstore\n      0x20\n      add\n      swap1\n      dup2\n      mstore\n      0x20\n      add\n      0x00\n      keccak256\n      0x00\n        /* \"InheritanceModifierExample.sol\":389:410  tokenBalance[owner]++ */\n      dup2\n      sload\n      dup1\n      swap3\n      swap2\n      swap1\n      tag_25\n      swap1\n      tag_26\n      jump\t// in\n    tag_25:\n      swap2\n      swap1\n      pop\n      sstore\n      pop\n        /* \"InheritanceModifierExample.sol\":282:418  function createNewToken () public {\r... */\n      jump\t// out\n        /* \"InheritanceModifierExample.sol\":565:810  function purchaseToken() public payable {\r... */\n    tag_10:\n        /* \"InheritanceModifierExample.sol\":670:671  0 */\n      0x00\n        /* \"InheritanceModifierExample.sol\":658:667  msg.value */\n      callvalue\n        /* \"InheritanceModifierExample.sol\":646:656  tokenPrice */\n      sload(0x02)\n        /* \"InheritanceModifierExample.sol\":626:638  tokenBalance */\n      0x00\n        /* \"InheritanceModifierExample.sol\":626:645  tokenBalance[owner] */\n      dup1\n        /* \"InheritanceModifierExample.sol\":639:644  owner */\n      0x01\n      0x00\n      swap1\n      sload\n      swap1\n      0x0100\n      exp\n      swap1\n      div\n      0xffffffffffffffffffffffffffffffffffffffff\n      and\n        /* \"InheritanceModifierExample.sol\":626:645  tokenBalance[owner] */\n      0xffffffffffffffffffffffffffffffffffffffff\n      and\n      0xffffffffffffffffffffffffffffffffffffffff\n      and\n      dup2\n      mstore\n      0x20\n      add\n      swap1\n      dup2\n      mstore\n      0x20\n      add\n      0x00\n      keccak256\n      sload\n        /* \"InheritanceModifierExample.sol\":626:656  tokenBalance[owner]*tokenPrice */\n      tag_28\n      swap2\n      swap1\n      tag_29\n      jump\t// in\n    tag_28:\n        /* \"InheritanceModifierExample.sol\":625:667  (tokenBalance[owner]*tokenPrice)/msg.value */\n      tag_30\n      swap2\n      swap1\n      tag_31\n      jump\t// in\n    tag_30:\n        /* \"InheritanceModifierExample.sol\":625:671  (tokenBalance[owner]*tokenPrice)/msg.value > 0 */\n      gt\n        /* \"InheritanceModifierExample.sol\":616:693  require ((tokenBalance[owner]*tokenPrice)/msg.value > 0, \"not enough tokens\") */\n      tag_32\n      jumpi\n      mload(0x40)\n      0x08c379a000000000000000000000000000000000000000000000000000000000\n      dup2\n      mstore\n      0x04\n      add\n      tag_33\n      swap1\n      tag_34\n      jump\t// in\n    tag_33:\n      mload(0x40)\n      dup1\n      swap2\n      sub\n      swap1\n      revert\n    tag_32:\n        /* \"InheritanceModifierExample.sol\":735:745  tokenPrice */\n      sload(0x02)\n        /* \"InheritanceModifierExample.sol\":725:734  msg.value */\n      callvalue\n        /* \"InheritanceModifierExample.sol\":725:745  msg.value/tokenPrice */\n      tag_35\n      swap2\n      swap1\n      tag_31\n      jump\t// in\n    tag_35:\n        /* \"InheritanceModifierExample.sol\":704:716  tokenBalance */\n      0x00\n        /* \"InheritanceModifierExample.sol\":704:723  tokenBalance[owner] */\n      dup1\n        /* \"InheritanceModifierExample.sol\":717:722  owner */\n      0x01\n      0x00\n      swap1\n      sload\n      swap1\n      0x0100\n      exp\n      swap1\n      div\n      0xffffffffffffffffffffffffffffffffffffffff\n      and\n        /* \"InheritanceModifierExample.sol\":704:723  tokenBalance[owner] */\n      0xffffffffffffffffffffffffffffffffffffffff\n      and\n      0xffffffffffffffffffffffffffffffffffffffff\n      and\n      dup2\n      mstore\n      0x20\n      add\n      swap1\n      dup2\n      mstore\n      0x20\n      add\n      0x00\n      keccak256\n      0x00\n        /* \"InheritanceModifierExample.sol\":704:745  tokenBalance[owner]+=msg.value/tokenPrice */\n      dup3\n      dup3\n      sload\n      tag_36\n      swap2\n      swap1\n      tag_37\n      jump\t// in\n    tag_36:\n      swap3\n      pop\n      pop\n      dup2\n      swap1\n      sstore\n      pop\n        /* \"InheritanceModifierExample.sol\":792:802  tokenPrice */\n      sload(0x02)\n        /* \"InheritanceModifierExample.sol\":782:791  msg.value */\n      callvalue\n        /* \"InheritanceModifierExample.sol\":782:802  msg.value/tokenPrice */\n      tag_38\n      swap2\n      swap1\n      tag_31\n      jump\t// in\n    tag_38:\n        /* \"InheritanceModifierExample.sol\":756:768  tokenBalance */\n      0x00\n        /* \"InheritanceModifierExample.sol\":756:780  tokenBalance[msg.sender] */\n      dup1\n        /* \"InheritanceModifierExample.sol\":769:779  msg.sender */\n      caller\n        /* \"InheritanceModifierExample.sol\":756:780  tokenBalance[msg.sender] */\n      0xffffffffffffffffffffffffffffffffffffffff\n      and\n      0xffffffffffffffffffffffffffffffffffffffff\n      and\n      dup2\n      mstore\n      0x20\n      add\n      swap1\n      dup2\n      mstore\n      0x20\n      add\n      0x00\n      keccak256\n      0x00\n        /* \"InheritanceModifierExample.sol\":756:802  tokenBalance[msg.sender]-=msg.value/tokenPrice */\n      dup3\n      dup3\n      sload\n      tag_39\n      swap2\n      swap1\n      tag_40\n      jump\t// in\n    tag_39:\n      swap3\n      pop\n      pop\n      dup2\n      swap1\n      sstore\n      pop\n        /* \"InheritanceModifierExample.sol\":565:810  function purchaseToken() public payable {\r... */\n      jump\t// out\n        /* \"InheritanceModifierExample.sol\":76:121  mapping (address => uint) public tokenBalance */\n    tag_15:\n      mstore(0x20, 0x00)\n      dup1\n      0x00\n      mstore\n      keccak256(0x00, 0x40)\n      0x00\n      swap2\n      pop\n      swap1\n      pop\n      sload\n      dup2\n      jump\t// out\n        /* \"InheritanceModifierExample.sol\":426:557  function burnToken () public {\r... */\n    tag_20:\n        /* \"InheritanceModifierExample.sol\":488:493  owner */\n      0x01\n      0x00\n      swap1\n      sload\n      swap1\n      0x0100\n      exp\n      swap1\n      div\n      0xffffffffffffffffffffffffffffffffffffffff\n      and\n        /* \"InheritanceModifierExample.sol\":474:493  msg.sender == owner */\n      0xffffffffffffffffffffffffffffffffffffffff\n      and\n        /* \"InheritanceModifierExample.sol\":474:484  msg.sender */\n      caller\n        /* \"InheritanceModifierExample.sol\":474:493  msg.sender == owner */\n      0xffffffffffffffffffffffffffffffffffffffff\n      and\n      eq\n        /* \"InheritanceModifierExample.sol\":466:517  require(msg.sender == owner, \"You are not allowed\") */\n      tag_42\n      jumpi\n      mload(0x40)\n      0x08c379a000000000000000000000000000000000000000000000000000000000\n      dup2\n      mstore\n      0x04\n      add\n      tag_43\n      swap1\n      tag_44\n      jump\t// in\n    tag_43:\n      mload(0x40)\n      dup1\n      swap2\n      sub\n      swap1\n      revert\n    tag_42:\n        /* \"InheritanceModifierExample.sol\":528:540  tokenBalance */\n      0x00\n        /* \"InheritanceModifierExample.sol\":528:547  tokenBalance[owner] */\n      dup1\n        /* \"InheritanceModifierExample.sol\":541:546  owner */\n      0x01\n      0x00\n      swap1\n      sload\n      swap1\n      0x0100\n      exp\n      swap1\n      div\n      0xffffffffffffffffffffffffffffffffffffffff\n      and\n        /* \"InheritanceModifierExample.sol\":528:547  tokenBalance[owner] */\n      0xffffffffffffffffffffffffffffffffffffffff\n      and\n      0xffffffffffffffffffffffffffffffffffffffff\n      and\n      dup2\n      mstore\n      0x20\n      add\n      swap1\n      dup2\n      mstore\n      0x20\n      add\n      0x00\n      keccak256\n      0x00\n        /* \"InheritanceModifierExample.sol\":528:549  tokenBalance[owner]-- */\n      dup2\n      sload\n      dup1\n      swap3\n      swap2\n      swap1\n      tag_45\n      swap1\n      tag_46\n      jump\t// in\n    tag_45:\n      swap2\n      swap1\n      pop\n      sstore\n      pop\n        /* \"InheritanceModifierExample.sol\":426:557  function burnToken () public {\r... */\n      jump\t// out\n        /* \"#utility.yul\":7:146   */\n    tag_48:\n        /* \"#utility.yul\":53:58   */\n      0x00\n        /* \"#utility.yul\":91:97   */\n      dup2\n        /* \"#utility.yul\":78:98   */\n      calldataload\n        /* \"#utility.yul\":69:98   */\n      swap1\n      pop\n        /* \"#utility.yul\":107:140   */\n      tag_50\n        /* \"#utility.yul\":134:139   */\n      dup2\n        /* \"#utility.yul\":107:140   */\n      tag_51\n      jump\t// in\n    tag_50:\n        /* \"#utility.yul\":7:146   */\n      swap3\n      swap2\n      pop\n      pop\n      jump\t// out\n        /* \"#utility.yul\":152:481   */\n    tag_14:\n        /* \"#utility.yul\":211:217   */\n      0x00\n        /* \"#utility.yul\":260:262   */\n      0x20\n        /* \"#utility.yul\":248:257   */\n      dup3\n        /* \"#utility.yul\":239:246   */\n      dup5\n        /* \"#utility.yul\":235:258   */\n      sub\n        /* \"#utility.yul\":231:263   */\n      slt\n        /* \"#utility.yul\":228:347   */\n      iszero\n      tag_53\n      jumpi\n        /* \"#utility.yul\":266:345   */\n      tag_54\n      tag_55\n      jump\t// in\n    tag_54:\n        /* \"#utility.yul\":228:347   */\n    tag_53:\n        /* \"#utility.yul\":386:387   */\n      0x00\n        /* \"#utility.yul\":411:464   */\n      tag_56\n        /* \"#utility.yul\":456:463   */\n      dup5\n        /* \"#utility.yul\":447:453   */\n      dup3\n        /* \"#utility.yul\":436:445   */\n      dup6\n        /* \"#utility.yul\":432:454   */\n      add\n        /* \"#utility.yul\":411:464   */\n      tag_48\n      jump\t// in\n    tag_56:\n        /* \"#utility.yul\":401:464   */\n      swap2\n      pop\n        /* \"#utility.yul\":357:474   */\n      pop\n        /* \"#utility.yul\":152:481   */\n      swap3\n      swap2\n      pop\n      pop\n      jump\t// out\n        /* \"#utility.yul\":487:853   */\n    tag_57:\n        /* \"#utility.yul\":629:632   */\n      0x00\n        /* \"#utility.yul\":650:717   */\n      tag_59\n        /* \"#utility.yul\":714:716   */\n      0x13\n        /* \"#utility.yul\":709:712   */\n      dup4\n        /* \"#utility.yul\":650:717   */\n      tag_60\n      jump\t// in\n    tag_59:\n        /* \"#utility.yul\":643:717   */\n      swap2\n      pop\n        /* \"#utility.yul\":726:819   */\n      tag_61\n        /* \"#utility.yul\":815:818   */\n      dup3\n        /* \"#utility.yul\":726:819   */\n      tag_62\n      jump\t// in\n    tag_61:\n        /* \"#utility.yul\":844:846   */\n      0x20\n        /* \"#utility.yul\":839:842   */\n      dup3\n        /* \"#utility.yul\":835:847   */\n      add\n        /* \"#utility.yul\":828:847   */\n      swap1\n      pop\n        /* \"#utility.yul\":487:853   */\n      swap2\n      swap1\n      pop\n      jump\t// out\n        /* \"#utility.yul\":859:1225   */\n    tag_63:\n        /* \"#utility.yul\":1001:1004   */\n      0x00\n        /* \"#utility.yul\":1022:1089   */\n      tag_65\n        /* \"#utility.yul\":1086:1088   */\n      0x15\n        /* \"#utility.yul\":1081:1084   */\n      dup4\n        /* \"#utility.yul\":1022:1089   */\n      tag_60\n      jump\t// in\n    tag_65:\n        /* \"#utility.yul\":1015:1089   */\n      swap2\n      pop\n        /* \"#utility.yul\":1098:1191   */\n      tag_66\n        /* \"#utility.yul\":1187:1190   */\n      dup3\n        /* \"#utility.yul\":1098:1191   */\n      tag_67\n      jump\t// in\n    tag_66:\n        /* \"#utility.yul\":1216:1218   */\n      0x20\n        /* \"#utility.yul\":1211:1214   */\n      dup3\n        /* \"#utility.yul\":1207:1219   */\n      add\n        /* \"#utility.yul\":1200:1219   */\n      swap1\n      pop\n        /* \"#utility.yul\":859:1225   */\n      swap2\n      swap1\n      pop\n      jump\t// out\n        /* \"#utility.yul\":1231:1597   */\n    tag_68:\n        /* \"#utility.yul\":1373:1376   */\n      0x00\n        /* \"#utility.yul\":1394:1461   */\n      tag_70\n        /* \"#utility.yul\":1458:1460   */\n      0x11\n        /* \"#utility.yul\":1453:1456   */\n      dup4\n        /* \"#utility.yul\":1394:1461   */\n      tag_60\n      jump\t// in\n    tag_70:\n        /* \"#utility.yul\":1387:1461   */\n      swap2\n      pop\n        /* \"#utility.yul\":1470:1563   */\n      tag_71\n        /* \"#utility.yul\":1559:1562   */\n      dup3\n        /* \"#utility.yul\":1470:1563   */\n      tag_72\n      jump\t// in\n    tag_71:\n        /* \"#utility.yul\":1588:1590   */\n      0x20\n        /* \"#utility.yul\":1583:1586   */\n      dup3\n        /* \"#utility.yul\":1579:1591   */\n      add\n        /* \"#utility.yul\":1572:1591   */\n      swap1\n      pop\n        /* \"#utility.yul\":1231:1597   */\n      swap2\n      swap1\n      pop\n      jump\t// out\n        /* \"#utility.yul\":1603:1721   */\n    tag_73:\n        /* \"#utility.yul\":1690:1714   */\n      tag_75\n        /* \"#utility.yul\":1708:1713   */\n      dup2\n        /* \"#utility.yul\":1690:1714   */\n      tag_76\n      jump\t// in\n    tag_75:\n        /* \"#utility.yul\":1685:1688   */\n      dup3\n        /* \"#utility.yul\":1678:1715   */\n      mstore\n        /* \"#utility.yul\":1603:1721   */\n      pop\n      pop\n      jump\t// out\n        /* \"#utility.yul\":1727:2146   */\n    tag_44:\n        /* \"#utility.yul\":1893:1897   */\n      0x00\n        /* \"#utility.yul\":1931:1933   */\n      0x20\n        /* \"#utility.yul\":1920:1929   */\n      dup3\n        /* \"#utility.yul\":1916:1934   */\n      add\n        /* \"#utility.yul\":1908:1934   */\n      swap1\n      pop\n        /* \"#utility.yul\":1980:1989   */\n      dup2\n        /* \"#utility.yul\":1974:1978   */\n      dup2\n        /* \"#utility.yul\":1970:1990   */\n      sub\n        /* \"#utility.yul\":1966:1967   */\n      0x00\n        /* \"#utility.yul\":1955:1964   */\n      dup4\n        /* \"#utility.yul\":1951:1968   */\n      add\n        /* \"#utility.yul\":1944:1991   */\n      mstore\n        /* \"#utility.yul\":2008:2139   */\n      tag_78\n        /* \"#utility.yul\":2134:2138   */\n      dup2\n        /* \"#utility.yul\":2008:2139   */\n      tag_57\n      jump\t// in\n    tag_78:\n        /* \"#utility.yul\":2000:2139   */\n      swap1\n      pop\n        /* \"#utility.yul\":1727:2146   */\n      swap2\n      swap1\n      pop\n      jump\t// out\n        /* \"#utility.yul\":2152:2571   */\n    tag_24:\n        /* \"#utility.yul\":2318:2322   */\n      0x00\n        /* \"#utility.yul\":2356:2358   */\n      0x20\n        /* \"#utility.yul\":2345:2354   */\n      dup3\n        /* \"#utility.yul\":2341:2359   */\n      add\n        /* \"#utility.yul\":2333:2359   */\n      swap1\n      pop\n        /* \"#utility.yul\":2405:2414   */\n      dup2\n        /* \"#utility.yul\":2399:2403   */\n      dup2\n        /* \"#utility.yul\":2395:2415   */\n      sub\n        /* \"#utility.yul\":2391:2392   */\n      0x00\n        /* \"#utility.yul\":2380:2389   */\n      dup4\n        /* \"#utility.yul\":2376:2393   */\n      add\n        /* \"#utility.yul\":2369:2416   */\n      mstore\n        /* \"#utility.yul\":2433:2564   */\n      tag_80\n        /* \"#utility.yul\":2559:2563   */\n      dup2\n        /* \"#utility.yul\":2433:2564   */\n      tag_63\n      jump\t// in\n    tag_80:\n        /* \"#utility.yul\":2425:2564   */\n      swap1\n      pop\n        /* \"#utility.yul\":2152:2571   */\n      swap2\n      swap1\n      pop\n      jump\t// out\n        /* \"#utility.yul\":2577:2996   */\n    tag_34:\n        /* \"#utility.yul\":2743:2747   */\n      0x00\n        /* \"#utility.yul\":2781:2783   */\n      0x20\n        /* \"#utility.yul\":2770:2779   */\n      dup3\n        /* \"#utility.yul\":2766:2784   */\n      add\n        /* \"#utility.yul\":2758:2784   */\n      swap1\n      pop\n        /* \"#utility.yul\":2830:2839   */\n      dup2\n        /* \"#utility.yul\":2824:2828   */\n      dup2\n        /* \"#utility.yul\":2820:2840   */\n      sub\n        /* \"#utility.yul\":2816:2817   */\n      0x00\n        /* \"#utility.yul\":2805:2814   */\n      dup4\n        /* \"#utility.yul\":2801:2818   */\n      add\n        /* \"#utility.yul\":2794:2841   */\n      mstore\n        /* \"#utility.yul\":2858:2989   */\n      tag_82\n        /* \"#utility.yul\":2984:2988   */\n      dup2\n        /* \"#utility.yul\":2858:2989   */\n      tag_68\n      jump\t// in\n    tag_82:\n        /* \"#utility.yul\":2850:2989   */\n      swap1\n      pop\n        /* \"#utility.yul\":2577:2996   */\n      swap2\n      swap1\n      pop\n      jump\t// out\n        /* \"#utility.yul\":3002:3224   */\n    tag_17:\n        /* \"#utility.yul\":3095:3099   */\n      0x00\n        /* \"#utility.yul\":3133:3135   */\n      0x20\n        /* \"#utility.yul\":3122:3131   */\n      dup3\n        /* \"#utility.yul\":3118:3136   */\n      add\n        /* \"#utility.yul\":3110:3136   */\n      swap1\n      pop\n        /* \"#utility.yul\":3146:3217   */\n      tag_84\n        /* \"#utility.yul\":3214:3215   */\n      0x00\n        /* \"#utility.yul\":3203:3212   */\n      dup4\n        /* \"#utility.yul\":3199:3216   */\n      add\n        /* \"#utility.yul\":3190:3196   */\n      dup5\n        /* \"#utility.yul\":3146:3217   */\n      tag_73\n      jump\t// in\n    tag_84:\n        /* \"#utility.yul\":3002:3224   */\n      swap3\n      swap2\n      pop\n      pop\n      jump\t// out\n        /* \"#utility.yul\":3311:3480   */\n    tag_60:\n        /* \"#utility.yul\":3395:3406   */\n      0x00\n        /* \"#utility.yul\":3429:3435   */\n      dup3\n        /* \"#utility.yul\":3424:3427   */\n      dup3\n        /* \"#utility.yul\":3417:3436   */\n      mstore\n        /* \"#utility.yul\":3469:3473   */\n      0x20\n        /* \"#utility.yul\":3464:3467   */\n      dup3\n        /* \"#utility.yul\":3460:3474   */\n      add\n        /* \"#utility.yul\":3445:3474   */\n      swap1\n      pop\n        /* \"#utility.yul\":3311:3480   */\n      swap3\n      swap2\n      pop\n      pop\n      jump\t// out\n        /* \"#utility.yul\":3486:3791   */\n    tag_37:\n        /* \"#utility.yul\":3526:3529   */\n      0x00\n        /* \"#utility.yul\":3545:3565   */\n      tag_89\n        /* \"#utility.yul\":3563:3564   */\n      dup3\n        /* \"#utility.yul\":3545:3565   */\n      tag_76\n      jump\t// in\n    tag_89:\n        /* \"#utility.yul\":3540:3565   */\n      swap2\n      pop\n        /* \"#utility.yul\":3579:3599   */\n      tag_90\n        /* \"#utility.yul\":3597:3598   */\n      dup4\n        /* \"#utility.yul\":3579:3599   */\n      tag_76\n      jump\t// in\n    tag_90:\n        /* \"#utility.yul\":3574:3599   */\n      swap3\n      pop\n        /* \"#utility.yul\":3733:3734   */\n      dup3\n        /* \"#utility.yul\":3665:3731   */\n      0xffffffffffffffffffffffffffffffffffffffffffffffffffffffffffffffff\n        /* \"#utility.yul\":3661:3735   */\n      sub\n        /* \"#utility.yul\":3658:3659   */\n      dup3\n        /* \"#utility.yul\":3655:3736   */\n      gt\n        /* \"#utility.yul\":3652:3759   */\n      iszero\n      tag_91\n      jumpi\n        /* \"#utility.yul\":3739:3757   */\n      tag_92\n      tag_93\n      jump\t// in\n    tag_92:\n        /* \"#utility.yul\":3652:3759   */\n    tag_91:\n        /* \"#utility.yul\":3783:3784   */\n      dup3\n        /* \"#utility.yul\":3780:3781   */\n      dup3\n        /* \"#utility.yul\":3776:3785   */\n      add\n        /* \"#utility.yul\":3769:3785   */\n      swap1\n      pop\n        /* \"#utility.yul\":3486:3791   */\n      swap3\n      swap2\n      pop\n      pop\n      jump\t// out\n        /* \"#utility.yul\":3797:3982   */\n    tag_31:\n        /* \"#utility.yul\":3837:3838   */\n      0x00\n        /* \"#utility.yul\":3854:3874   */\n      tag_95\n        /* \"#utility.yul\":3872:3873   */\n      dup3\n        /* \"#utility.yul\":3854:3874   */\n      tag_76\n      jump\t// in\n    tag_95:\n        /* \"#utility.yul\":3849:3874   */\n      swap2\n      pop\n        /* \"#utility.yul\":3888:3908   */\n      tag_96\n        /* \"#utility.yul\":3906:3907   */\n      dup4\n        /* \"#utility.yul\":3888:3908   */\n      tag_76\n      jump\t// in\n    tag_96:\n        /* \"#utility.yul\":3883:3908   */\n      swap3\n      pop\n        /* \"#utility.yul\":3927:3928   */\n      dup3\n        /* \"#utility.yul\":3917:3952   */\n      tag_97\n      jumpi\n        /* \"#utility.yul\":3932:3950   */\n      tag_98\n      tag_99\n      jump\t// in\n    tag_98:\n        /* \"#utility.yul\":3917:3952   */\n    tag_97:\n        /* \"#utility.yul\":3974:3975   */\n      dup3\n        /* \"#utility.yul\":3971:3972   */\n      dup3\n        /* \"#utility.yul\":3967:3976   */\n      div\n        /* \"#utility.yul\":3962:3976   */\n      swap1\n      pop\n        /* \"#utility.yul\":3797:3982   */\n      swap3\n      swap2\n      pop\n      pop\n      jump\t// out\n        /* \"#utility.yul\":3988:4336   */\n    tag_29:\n        /* \"#utility.yul\":4028:4035   */\n      0x00\n        /* \"#utility.yul\":4051:4071   */\n      tag_101\n        /* \"#utility.yul\":4069:4070   */\n      dup3\n        /* \"#utility.yul\":4051:4071   */\n      tag_76\n      jump\t// in\n    tag_101:\n        /* \"#utility.yul\":4046:4071   */\n      swap2\n      pop\n        /* \"#utility.yul\":4085:4105   */\n      tag_102\n        /* \"#utility.yul\":4103:4104   */\n      dup4\n        /* \"#utility.yul\":4085:4105   */\n      tag_76\n      jump\t// in\n    tag_102:\n        /* \"#utility.yul\":4080:4105   */\n      swap3\n      pop\n        /* \"#utility.yul\":4273:4274   */\n      dup2\n        /* \"#utility.yul\":4205:4271   */\n      0xffffffffffffffffffffffffffffffffffffffffffffffffffffffffffffffff\n        /* \"#utility.yul\":4201:4275   */\n      div\n        /* \"#utility.yul\":4198:4199   */\n      dup4\n        /* \"#utility.yul\":4195:4276   */\n      gt\n        /* \"#utility.yul\":4190:4191   */\n      dup3\n        /* \"#utility.yul\":4183:4192   */\n      iszero\n        /* \"#utility.yul\":4176:4193   */\n      iszero\n        /* \"#utility.yul\":4172:4277   */\n      and\n        /* \"#utility.yul\":4169:4300   */\n      iszero\n      tag_103\n      jumpi\n        /* \"#utility.yul\":4280:4298   */\n      tag_104\n      tag_93\n      jump\t// in\n    tag_104:\n        /* \"#utility.yul\":4169:4300   */\n    tag_103:\n        /* \"#utility.yul\":4328:4329   */\n      dup3\n        /* \"#utility.yul\":4325:4326   */\n      dup3\n        /* \"#utility.yul\":4321:4330   */\n      mul\n        /* \"#utility.yul\":4310:4330   */\n      swap1\n      pop\n        /* \"#utility.yul\":3988:4336   */\n      swap3\n      swap2\n      pop\n      pop\n      jump\t// out\n        /* \"#utility.yul\":4342:4533   */\n    tag_40:\n        /* \"#utility.yul\":4382:4386   */\n      0x00\n        /* \"#utility.yul\":4402:4422   */\n      tag_106\n        /* \"#utility.yul\":4420:4421   */\n      dup3\n        /* \"#utility.yul\":4402:4422   */\n      tag_76\n      jump\t// in\n    tag_106:\n        /* \"#utility.yul\":4397:4422   */\n      swap2\n      pop\n        /* \"#utility.yul\":4436:4456   */\n      tag_107\n        /* \"#utility.yul\":4454:4455   */\n      dup4\n        /* \"#utility.yul\":4436:4456   */\n      tag_76\n      jump\t// in\n    tag_107:\n        /* \"#utility.yul\":4431:4456   */\n      swap3\n      pop\n        /* \"#utility.yul\":4475:4476   */\n      dup3\n        /* \"#utility.yul\":4472:4473   */\n      dup3\n        /* \"#utility.yul\":4469:4477   */\n      lt\n        /* \"#utility.yul\":4466:4500   */\n      iszero\n      tag_108\n      jumpi\n        /* \"#utility.yul\":4480:4498   */\n      tag_109\n      tag_93\n      jump\t// in\n    tag_109:\n        /* \"#utility.yul\":4466:4500   */\n    tag_108:\n        /* \"#utility.yul\":4525:4526   */\n      dup3\n        /* \"#utility.yul\":4522:4523   */\n      dup3\n        /* \"#utility.yul\":4518:4527   */\n      sub\n        /* \"#utility.yul\":4510:4527   */\n      swap1\n      pop\n        /* \"#utility.yul\":4342:4533   */\n      swap3\n      swap2\n      pop\n      pop\n      jump\t// out\n        /* \"#utility.yul\":4539:4635   */\n    tag_110:\n        /* \"#utility.yul\":4576:4583   */\n      0x00\n        /* \"#utility.yul\":4605:4629   */\n      tag_112\n        /* \"#utility.yul\":4623:4628   */\n      dup3\n        /* \"#utility.yul\":4605:4629   */\n      tag_113\n      jump\t// in\n    tag_112:\n        /* \"#utility.yul\":4594:4629   */\n      swap1\n      pop\n        /* \"#utility.yul\":4539:4635   */\n      swap2\n      swap1\n      pop\n      jump\t// out\n        /* \"#utility.yul\":4641:4767   */\n    tag_113:\n        /* \"#utility.yul\":4678:4685   */\n      0x00\n        /* \"#utility.yul\":4718:4760   */\n      0xffffffffffffffffffffffffffffffffffffffff\n        /* \"#utility.yul\":4711:4716   */\n      dup3\n        /* \"#utility.yul\":4707:4761   */\n      and\n        /* \"#utility.yul\":4696:4761   */\n      swap1\n      pop\n        /* \"#utility.yul\":4641:4767   */\n      swap2\n      swap1\n      pop\n      jump\t// out\n        /* \"#utility.yul\":4773:4850   */\n    tag_76:\n        /* \"#utility.yul\":4810:4817   */\n      0x00\n        /* \"#utility.yul\":4839:4844   */\n      dup2\n        /* \"#utility.yul\":4828:4844   */\n      swap1\n      pop\n        /* \"#utility.yul\":4773:4850   */\n      swap2\n      swap1\n      pop\n      jump\t// out\n        /* \"#utility.yul\":4856:5027   */\n    tag_46:\n        /* \"#utility.yul\":4895:4898   */\n      0x00\n        /* \"#utility.yul\":4918:4942   */\n      tag_117\n        /* \"#utility.yul\":4936:4941   */\n      dup3\n        /* \"#utility.yul\":4918:4942   */\n      tag_76\n      jump\t// in\n    tag_117:\n        /* \"#utility.yul\":4909:4942   */\n      swap2\n      pop\n        /* \"#utility.yul\":4964:4968   */\n      0x00\n        /* \"#utility.yul\":4957:4962   */\n      dup3\n        /* \"#utility.yul\":4954:4969   */\n      eq\n        /* \"#utility.yul\":4951:4992   */\n      iszero\n      tag_118\n      jumpi\n        /* \"#utility.yul\":4972:4990   */\n      tag_119\n      tag_93\n      jump\t// in\n    tag_119:\n        /* \"#utility.yul\":4951:4992   */\n    tag_118:\n        /* \"#utility.yul\":5019:5020   */\n      0x01\n        /* \"#utility.yul\":5012:5017   */\n      dup3\n        /* \"#utility.yul\":5008:5021   */\n      sub\n        /* \"#utility.yul\":5001:5021   */\n      swap1\n      pop\n        /* \"#utility.yul\":4856:5027   */\n      swap2\n      swap1\n      pop\n      jump\t// out\n        /* \"#utility.yul\":5033:5266   */\n    tag_26:\n        /* \"#utility.yul\":5072:5075   */\n      0x00\n        /* \"#utility.yul\":5095:5119   */\n      tag_121\n        /* \"#utility.yul\":5113:5118   */\n      dup3\n        /* \"#utility.yul\":5095:5119   */\n      tag_76\n      jump\t// in\n    tag_121:\n        /* \"#utility.yul\":5086:5119   */\n      swap2\n      pop\n        /* \"#utility.yul\":5141:5207   */\n      0xffffffffffffffffffffffffffffffffffffffffffffffffffffffffffffffff\n        /* \"#utility.yul\":5134:5139   */\n      dup3\n        /* \"#utility.yul\":5131:5208   */\n      eq\n        /* \"#utility.yul\":5128:5231   */\n      iszero\n      tag_122\n      jumpi\n        /* \"#utility.yul\":5211:5229   */\n      tag_123\n      tag_93\n      jump\t// in\n    tag_123:\n        /* \"#utility.yul\":5128:5231   */\n    tag_122:\n        /* \"#utility.yul\":5258:5259   */\n      0x01\n        /* \"#utility.yul\":5251:5256   */\n      dup3\n        /* \"#utility.yul\":5247:5260   */\n      add\n        /* \"#utility.yul\":5240:5260   */\n      swap1\n      pop\n        /* \"#utility.yul\":5033:5266   */\n      swap2\n      swap1\n      pop\n      jump\t// out\n        /* \"#utility.yul\":5272:5452   */\n    tag_93:\n        /* \"#utility.yul\":5320:5397   */\n      0x4e487b7100000000000000000000000000000000000000000000000000000000\n        /* \"#utility.yul\":5317:5318   */\n      0x00\n        /* \"#utility.yul\":5310:5398   */\n      mstore\n        /* \"#utility.yul\":5417:5421   */\n      0x11\n        /* \"#utility.yul\":5414:5415   */\n      0x04\n        /* \"#utility.yul\":5407:5422   */\n      mstore\n        /* \"#utility.yul\":5441:5445   */\n      0x24\n        /* \"#utility.yul\":5438:5439   */\n      0x00\n        /* \"#utility.yul\":5431:5446   */\n      revert\n        /* \"#utility.yul\":5458:5638   */\n    tag_99:\n        /* \"#utility.yul\":5506:5583   */\n      0x4e487b7100000000000000000000000000000000000000000000000000000000\n        /* \"#utility.yul\":5503:5504   */\n      0x00\n        /* \"#utility.yul\":5496:5584   */\n      mstore\n        /* \"#utility.yul\":5603:5607   */\n      0x12\n        /* \"#utility.yul\":5600:5601   */\n      0x04\n        /* \"#utility.yul\":5593:5608   */\n      mstore\n        /* \"#utility.yul\":5627:5631   */\n      0x24\n        /* \"#utility.yul\":5624:5625   */\n      0x00\n        /* \"#utility.yul\":5617:5632   */\n      revert\n        /* \"#utility.yul\":5767:5884   */\n    tag_55:\n        /* \"#utility.yul\":5876:5877   */\n      0x00\n        /* \"#utility.yul\":5873:5874   */\n      dup1\n        /* \"#utility.yul\":5866:5878   */\n      revert\n        /* \"#utility.yul\":5890:6059   */\n    tag_62:\n        /* \"#utility.yul\":6030:6051   */\n      0x596f7520617265206e6f7420616c6c6f77656400000000000000000000000000\n        /* \"#utility.yul\":6026:6027   */\n      0x00\n        /* \"#utility.yul\":6018:6024   */\n      dup3\n        /* \"#utility.yul\":6014:6028   */\n      add\n        /* \"#utility.yul\":6007:6052   */\n      mstore\n        /* \"#utility.yul\":5890:6059   */\n      pop\n      jump\t// out\n        /* \"#utility.yul\":6065:6236   */\n    tag_67:\n        /* \"#utility.yul\":6205:6228   */\n      0x596f7520617265206e6f7420746865206f776e65720000000000000000000000\n        /* \"#utility.yul\":6201:6202   */\n      0x00\n        /* \"#utility.yul\":6193:6199   */\n      dup3\n        /* \"#utility.yul\":6189:6203   */\n      add\n        /* \"#utility.yul\":6182:6229   */\n      mstore\n        /* \"#utility.yul\":6065:6236   */\n      pop\n      jump\t// out\n        /* \"#utility.yul\":6242:6409   */\n    tag_72:\n        /* \"#utility.yul\":6382:6401   */\n      0x6e6f7420656e6f75676820746f6b656e73000000000000000000000000000000\n        /* \"#utility.yul\":6378:6379   */\n      0x00\n        /* \"#utility.yul\":6370:6376   */\n      dup3\n        /* \"#utility.yul\":6366:6380   */\n      add\n        /* \"#utility.yul\":6359:6402   */\n      mstore\n        /* \"#utility.yul\":6242:6409   */\n      pop\n      jump\t// out\n        /* \"#utility.yul\":6415:6537   */\n    tag_51:\n        /* \"#utility.yul\":6488:6512   */\n      tag_133\n        /* \"#utility.yul\":6506:6511   */\n      dup2\n        /* \"#utility.yul\":6488:6512   */\n      tag_110\n      jump\t// in\n    tag_133:\n        /* \"#utility.yul\":6481:6486   */\n      dup2\n        /* \"#utility.yul\":6478:6513   */\n      eq\n        /* \"#utility.yul\":6468:6531   */\n      tag_134\n      jumpi\n        /* \"#utility.yul\":6527:6528   */\n      0x00\n        /* \"#utility.yul\":6524:6525   */\n      dup1\n        /* \"#utility.yul\":6517:6529   */\n      revert\n        /* \"#utility.yul\":6468:6531   */\n    tag_134:\n        /* \"#utility.yul\":6415:6537   */\n      pop\n      jump\t// out\n\n    auxdata: 0xa26469706673582212206ab32a4bc685d3bbb0481b3e90adefa0642346dec046c49affb1ca98a8666f2964736f6c63430008070033\n}\n",
				"bytecode": {
					"linkReferences": {},
					"object": "6080604052670de0b6b3a764000060025534801561001c57600080fd5b5033600160006101000a81548173ffffffffffffffffffffffffffffffffffffffff021916908373ffffffffffffffffffffffffffffffffffffffff1602179055506064600080600160009054906101000a900473ffffffffffffffffffffffffffffffffffffffff1673ffffffffffffffffffffffffffffffffffffffff1673ffffffffffffffffffffffffffffffffffffffff168152602001908152602001600020819055506108b9806100d36000396000f3fe60806040526004361061003f5760003560e01c8063754fc38c14610044578063a95c4d621461005b578063eedc966a14610065578063faa0a264146100a2575b600080fd5b34801561005057600080fd5b506100596100b9565b005b6100636101c1565b005b34801561007157600080fd5b5061008c60048036038101906100879190610499565b610364565b604051610099919061059e565b60405180910390f35b3480156100ae57600080fd5b506100b761037c565b005b600160009054906101000a900473ffffffffffffffffffffffffffffffffffffffff1673ffffffffffffffffffffffffffffffffffffffff163373ffffffffffffffffffffffffffffffffffffffff1614610149576040517f08c379a00000000000000000000000000000000000000000000000000000000081526004016101409061055e565b60405180910390fd5b600080600160009054906101000a900473ffffffffffffffffffffffffffffffffffffffff1673ffffffffffffffffffffffffffffffffffffffff1673ffffffffffffffffffffffffffffffffffffffff16815260200190815260200160002060008154809291906101ba90610745565b9190505550565b600034600254600080600160009054906101000a900473ffffffffffffffffffffffffffffffffffffffff1673ffffffffffffffffffffffffffffffffffffffff1673ffffffffffffffffffffffffffffffffffffffff168152602001908152602001600020546102329190610651565b61023c9190610620565b1161027c576040517f08c379a00000000000000000000000000000000000000000000000000000000081526004016102739061057e565b60405180910390fd5b6002543461028a9190610620565b600080600160009054906101000a900473ffffffffffffffffffffffffffffffffffffffff1673ffffffffffffffffffffffffffffffffffffffff1673ffffffffffffffffffffffffffffffffffffffff16815260200190815260200160002060008282546102f991906105ca565b925050819055506002543461030e9190610620565b6000803373ffffffffffffffffffffffffffffffffffffffff1673ffffffffffffffffffffffffffffffffffffffff168152602001908152602001600020600082825461035b91906106ab565b92505081905550565b60006020528060005260406000206000915090505481565b600160009054906101000a900473ffffffffffffffffffffffffffffffffffffffff1673ffffffffffffffffffffffffffffffffffffffff163373ffffffffffffffffffffffffffffffffffffffff161461040c576040517f08c379a00000000000000000000000000000000000000000000000000000000081526004016104039061053e565b60405180910390fd5b600080600160009054906101000a900473ffffffffffffffffffffffffffffffffffffffff1673ffffffffffffffffffffffffffffffffffffffff1673ffffffffffffffffffffffffffffffffffffffff168152602001908152602001600020600081548092919061047d9061071b565b9190505550565b6000813590506104938161086c565b92915050565b6000602082840312156104af576104ae6107ec565b5b60006104bd84828501610484565b91505092915050565b60006104d36013836105b9565b91506104de826107f1565b602082019050919050565b60006104f66015836105b9565b91506105018261081a565b602082019050919050565b60006105196011836105b9565b915061052482610843565b602082019050919050565b61053881610711565b82525050565b60006020820190508181036000830152610557816104c6565b9050919050565b60006020820190508181036000830152610577816104e9565b9050919050565b600060208201905081810360008301526105978161050c565b9050919050565b60006020820190506105b3600083018461052f565b92915050565b600082825260208201905092915050565b60006105d582610711565b91506105e083610711565b9250827fffffffffffffffffffffffffffffffffffffffffffffffffffffffffffffffff038211156106155761061461078e565b5b828201905092915050565b600061062b82610711565b915061063683610711565b925082610646576106456107bd565b5b828204905092915050565b600061065c82610711565b915061066783610711565b9250817fffffffffffffffffffffffffffffffffffffffffffffffffffffffffffffffff04831182151516156106a05761069f61078e565b5b828202905092915050565b60006106b682610711565b91506106c183610711565b9250828210156106d4576106d361078e565b5b828203905092915050565b60006106ea826106f1565b9050919050565b600073ffffffffffffffffffffffffffffffffffffffff82169050919050565b6000819050919050565b600061072682610711565b9150600082141561073a5761073961078e565b5b600182039050919050565b600061075082610711565b91507fffffffffffffffffffffffffffffffffffffffffffffffffffffffffffffffff8214156107835761078261078e565b5b600182019050919050565b7f4e487b7100000000000000000000000000000000000000000000000000000000600052601160045260246000fd5b7f4e487b7100000000000000000000000000000000000000000000000000000000600052601260045260246000fd5b600080fd5b7f596f7520617265206e6f7420616c6c6f77656400000000000000000000000000600082015250565b7f596f7520617265206e6f7420746865206f776e65720000000000000000000000600082015250565b7f6e6f7420656e6f75676820746f6b656e73000000000000000000000000000000600082015250565b610875816106df565b811461088057600080fd5b5056fea26469706673582212206ab32a4bc685d3bbb0481b3e90adefa0642346dec046c49affb1ca98a8666f2964736f6c63430008070033",
					"opcodes": "PUSH1 0x80 PUSH1 0x40 MSTORE PUSH8 0xDE0B6B3A7640000 PUSH1 0x2 SSTORE CALLVALUE DUP1 ISZERO PUSH2 0x1C JUMPI PUSH1 0x0 DUP1 REVERT JUMPDEST POP CALLER PUSH1 0x1 PUSH1 0x0 PUSH2 0x100 EXP DUP2 SLOAD DUP2 PUSH20 0xFFFFFFFFFFFFFFFFFFFFFFFFFFFFFFFFFFFFFFFF MUL NOT AND SWAP1 DUP4 PUSH20 0xFFFFFFFFFFFFFFFFFFFFFFFFFFFFFFFFFFFFFFFF AND MUL OR SWAP1 SSTORE POP PUSH1 0x64 PUSH1 0x0 DUP1 PUSH1 0x1 PUSH1 0x0 SWAP1 SLOAD SWAP1 PUSH2 0x100 EXP SWAP1 DIV PUSH20 0xFFFFFFFFFFFFFFFFFFFFFFFFFFFFFFFFFFFFFFFF AND PUSH20 0xFFFFFFFFFFFFFFFFFFFFFFFFFFFFFFFFFFFFFFFF AND PUSH20 0xFFFFFFFFFFFFFFFFFFFFFFFFFFFFFFFFFFFFFFFF AND DUP2 MSTORE PUSH1 0x20 ADD SWAP1 DUP2 MSTORE PUSH1 0x20 ADD PUSH1 0x0 KECCAK256 DUP2 SWAP1 SSTORE POP PUSH2 0x8B9 DUP1 PUSH2 0xD3 PUSH1 0x0 CODECOPY PUSH1 0x0 RETURN INVALID PUSH1 0x80 PUSH1 0x40 MSTORE PUSH1 0x4 CALLDATASIZE LT PUSH2 0x3F JUMPI PUSH1 0x0 CALLDATALOAD PUSH1 0xE0 SHR DUP1 PUSH4 0x754FC38C EQ PUSH2 0x44 JUMPI DUP1 PUSH4 0xA95C4D62 EQ PUSH2 0x5B JUMPI DUP1 PUSH4 0xEEDC966A EQ PUSH2 0x65 JUMPI DUP1 PUSH4 0xFAA0A264 EQ PUSH2 0xA2 JUMPI JUMPDEST PUSH1 0x0 DUP1 REVERT JUMPDEST CALLVALUE DUP1 ISZERO PUSH2 0x50 JUMPI PUSH1 0x0 DUP1 REVERT JUMPDEST POP PUSH2 0x59 PUSH2 0xB9 JUMP JUMPDEST STOP JUMPDEST PUSH2 0x63 PUSH2 0x1C1 JUMP JUMPDEST STOP JUMPDEST CALLVALUE DUP1 ISZERO PUSH2 0x71 JUMPI PUSH1 0x0 DUP1 REVERT JUMPDEST POP PUSH2 0x8C PUSH1 0x4 DUP1 CALLDATASIZE SUB DUP2 ADD SWAP1 PUSH2 0x87 SWAP2 SWAP1 PUSH2 0x499 JUMP JUMPDEST PUSH2 0x364 JUMP JUMPDEST PUSH1 0x40 MLOAD PUSH2 0x99 SWAP2 SWAP1 PUSH2 0x59E JUMP JUMPDEST PUSH1 0x40 MLOAD DUP1 SWAP2 SUB SWAP1 RETURN JUMPDEST CALLVALUE DUP1 ISZERO PUSH2 0xAE JUMPI PUSH1 0x0 DUP1 REVERT JUMPDEST POP PUSH2 0xB7 PUSH2 0x37C JUMP JUMPDEST STOP JUMPDEST PUSH1 0x1 PUSH1 0x0 SWAP1 SLOAD SWAP1 PUSH2 0x100 EXP SWAP1 DIV PUSH20 0xFFFFFFFFFFFFFFFFFFFFFFFFFFFFFFFFFFFFFFFF AND PUSH20 0xFFFFFFFFFFFFFFFFFFFFFFFFFFFFFFFFFFFFFFFF AND CALLER PUSH20 0xFFFFFFFFFFFFFFFFFFFFFFFFFFFFFFFFFFFFFFFF AND EQ PUSH2 0x149 JUMPI PUSH1 0x40 MLOAD PUSH32 0x8C379A000000000000000000000000000000000000000000000000000000000 DUP2 MSTORE PUSH1 0x4 ADD PUSH2 0x140 SWAP1 PUSH2 0x55E JUMP JUMPDEST PUSH1 0x40 MLOAD DUP1 SWAP2 SUB SWAP1 REVERT JUMPDEST PUSH1 0x0 DUP1 PUSH1 0x1 PUSH1 0x0 SWAP1 SLOAD SWAP1 PUSH2 0x100 EXP SWAP1 DIV PUSH20 0xFFFFFFFFFFFFFFFFFFFFFFFFFFFFFFFFFFFFFFFF AND PUSH20 0xFFFFFFFFFFFFFFFFFFFFFFFFFFFFFFFFFFFFFFFF AND PUSH20 0xFFFFFFFFFFFFFFFFFFFFFFFFFFFFFFFFFFFFFFFF AND DUP2 MSTORE PUSH1 0x20 ADD SWAP1 DUP2 MSTORE PUSH1 0x20 ADD PUSH1 0x0 KECCAK256 PUSH1 0x0 DUP2 SLOAD DUP1 SWAP3 SWAP2 SWAP1 PUSH2 0x1BA SWAP1 PUSH2 0x745 JUMP JUMPDEST SWAP2 SWAP1 POP SSTORE POP JUMP JUMPDEST PUSH1 0x0 CALLVALUE PUSH1 0x2 SLOAD PUSH1 0x0 DUP1 PUSH1 0x1 PUSH1 0x0 SWAP1 SLOAD SWAP1 PUSH2 0x100 EXP SWAP1 DIV PUSH20 0xFFFFFFFFFFFFFFFFFFFFFFFFFFFFFFFFFFFFFFFF AND PUSH20 0xFFFFFFFFFFFFFFFFFFFFFFFFFFFFFFFFFFFFFFFF AND PUSH20 0xFFFFFFFFFFFFFFFFFFFFFFFFFFFFFFFFFFFFFFFF AND DUP2 MSTORE PUSH1 0x20 ADD SWAP1 DUP2 MSTORE PUSH1 0x20 ADD PUSH1 0x0 KECCAK256 SLOAD PUSH2 0x232 SWAP2 SWAP1 PUSH2 0x651 JUMP JUMPDEST PUSH2 0x23C SWAP2 SWAP1 PUSH2 0x620 JUMP JUMPDEST GT PUSH2 0x27C JUMPI PUSH1 0x40 MLOAD PUSH32 0x8C379A000000000000000000000000000000000000000000000000000000000 DUP2 MSTORE PUSH1 0x4 ADD PUSH2 0x273 SWAP1 PUSH2 0x57E JUMP JUMPDEST PUSH1 0x40 MLOAD DUP1 SWAP2 SUB SWAP1 REVERT JUMPDEST PUSH1 0x2 SLOAD CALLVALUE PUSH2 0x28A SWAP2 SWAP1 PUSH2 0x620 JUMP JUMPDEST PUSH1 0x0 DUP1 PUSH1 0x1 PUSH1 0x0 SWAP1 SLOAD SWAP1 PUSH2 0x100 EXP SWAP1 DIV PUSH20 0xFFFFFFFFFFFFFFFFFFFFFFFFFFFFFFFFFFFFFFFF AND PUSH20 0xFFFFFFFFFFFFFFFFFFFFFFFFFFFFFFFFFFFFFFFF AND PUSH20 0xFFFFFFFFFFFFFFFFFFFFFFFFFFFFFFFFFFFFFFFF AND DUP2 MSTORE PUSH1 0x20 ADD SWAP1 DUP2 MSTORE PUSH1 0x20 ADD PUSH1 0x0 KECCAK256 PUSH1 0x0 DUP3 DUP3 SLOAD PUSH2 0x2F9 SWAP2 SWAP1 PUSH2 0x5CA JUMP JUMPDEST SWAP3 POP POP DUP2 SWAP1 SSTORE POP PUSH1 0x2 SLOAD CALLVALUE PUSH2 0x30E SWAP2 SWAP1 PUSH2 0x620 JUMP JUMPDEST PUSH1 0x0 DUP1 CALLER PUSH20 0xFFFFFFFFFFFFFFFFFFFFFFFFFFFFFFFFFFFFFFFF AND PUSH20 0xFFFFFFFFFFFFFFFFFFFFFFFFFFFFFFFFFFFFFFFF AND DUP2 MSTORE PUSH1 0x20 ADD SWAP1 DUP2 MSTORE PUSH1 0x20 ADD PUSH1 0x0 KECCAK256 PUSH1 0x0 DUP3 DUP3 SLOAD PUSH2 0x35B SWAP2 SWAP1 PUSH2 0x6AB JUMP JUMPDEST SWAP3 POP POP DUP2 SWAP1 SSTORE POP JUMP JUMPDEST PUSH1 0x0 PUSH1 0x20 MSTORE DUP1 PUSH1 0x0 MSTORE PUSH1 0x40 PUSH1 0x0 KECCAK256 PUSH1 0x0 SWAP2 POP SWAP1 POP SLOAD DUP2 JUMP JUMPDEST PUSH1 0x1 PUSH1 0x0 SWAP1 SLOAD SWAP1 PUSH2 0x100 EXP SWAP1 DIV PUSH20 0xFFFFFFFFFFFFFFFFFFFFFFFFFFFFFFFFFFFFFFFF AND PUSH20 0xFFFFFFFFFFFFFFFFFFFFFFFFFFFFFFFFFFFFFFFF AND CALLER PUSH20 0xFFFFFFFFFFFFFFFFFFFFFFFFFFFFFFFFFFFFFFFF AND EQ PUSH2 0x40C JUMPI PUSH1 0x40 MLOAD PUSH32 0x8C379A000000000000000000000000000000000000000000000000000000000 DUP2 MSTORE PUSH1 0x4 ADD PUSH2 0x403 SWAP1 PUSH2 0x53E JUMP JUMPDEST PUSH1 0x40 MLOAD DUP1 SWAP2 SUB SWAP1 REVERT JUMPDEST PUSH1 0x0 DUP1 PUSH1 0x1 PUSH1 0x0 SWAP1 SLOAD SWAP1 PUSH2 0x100 EXP SWAP1 DIV PUSH20 0xFFFFFFFFFFFFFFFFFFFFFFFFFFFFFFFFFFFFFFFF AND PUSH20 0xFFFFFFFFFFFFFFFFFFFFFFFFFFFFFFFFFFFFFFFF AND PUSH20 0xFFFFFFFFFFFFFFFFFFFFFFFFFFFFFFFFFFFFFFFF AND DUP2 MSTORE PUSH1 0x20 ADD SWAP1 DUP2 MSTORE PUSH1 0x20 ADD PUSH1 0x0 KECCAK256 PUSH1 0x0 DUP2 SLOAD DUP1 SWAP3 SWAP2 SWAP1 PUSH2 0x47D SWAP1 PUSH2 0x71B JUMP JUMPDEST SWAP2 SWAP1 POP SSTORE POP JUMP JUMPDEST PUSH1 0x0 DUP2 CALLDATALOAD SWAP1 POP PUSH2 0x493 DUP2 PUSH2 0x86C JUMP JUMPDEST SWAP3 SWAP2 POP POP JUMP JUMPDEST PUSH1 0x0 PUSH1 0x20 DUP3 DUP5 SUB SLT ISZERO PUSH2 0x4AF JUMPI PUSH2 0x4AE PUSH2 0x7EC JUMP JUMPDEST JUMPDEST PUSH1 0x0 PUSH2 0x4BD DUP5 DUP3 DUP6 ADD PUSH2 0x484 JUMP JUMPDEST SWAP2 POP POP SWAP3 SWAP2 POP POP JUMP JUMPDEST PUSH1 0x0 PUSH2 0x4D3 PUSH1 0x13 DUP4 PUSH2 0x5B9 JUMP JUMPDEST SWAP2 POP PUSH2 0x4DE DUP3 PUSH2 0x7F1 JUMP JUMPDEST PUSH1 0x20 DUP3 ADD SWAP1 POP SWAP2 SWAP1 POP JUMP JUMPDEST PUSH1 0x0 PUSH2 0x4F6 PUSH1 0x15 DUP4 PUSH2 0x5B9 JUMP JUMPDEST SWAP2 POP PUSH2 0x501 DUP3 PUSH2 0x81A JUMP JUMPDEST PUSH1 0x20 DUP3 ADD SWAP1 POP SWAP2 SWAP1 POP JUMP JUMPDEST PUSH1 0x0 PUSH2 0x519 PUSH1 0x11 DUP4 PUSH2 0x5B9 JUMP JUMPDEST SWAP2 POP PUSH2 0x524 DUP3 PUSH2 0x843 JUMP JUMPDEST PUSH1 0x20 DUP3 ADD SWAP1 POP SWAP2 SWAP1 POP JUMP JUMPDEST PUSH2 0x538 DUP2 PUSH2 0x711 JUMP JUMPDEST DUP3 MSTORE POP POP JUMP JUMPDEST PUSH1 0x0 PUSH1 0x20 DUP3 ADD SWAP1 POP DUP2 DUP2 SUB PUSH1 0x0 DUP4 ADD MSTORE PUSH2 0x557 DUP2 PUSH2 0x4C6 JUMP JUMPDEST SWAP1 POP SWAP2 SWAP1 POP JUMP JUMPDEST PUSH1 0x0 PUSH1 0x20 DUP3 ADD SWAP1 POP DUP2 DUP2 SUB PUSH1 0x0 DUP4 ADD MSTORE PUSH2 0x577 DUP2 PUSH2 0x4E9 JUMP JUMPDEST SWAP1 POP SWAP2 SWAP1 POP JUMP JUMPDEST PUSH1 0x0 PUSH1 0x20 DUP3 ADD SWAP1 POP DUP2 DUP2 SUB PUSH1 0x0 DUP4 ADD MSTORE PUSH2 0x597 DUP2 PUSH2 0x50C JUMP JUMPDEST SWAP1 POP SWAP2 SWAP1 POP JUMP JUMPDEST PUSH1 0x0 PUSH1 0x20 DUP3 ADD SWAP1 POP PUSH2 0x5B3 PUSH1 0x0 DUP4 ADD DUP5 PUSH2 0x52F JUMP JUMPDEST SWAP3 SWAP2 POP POP JUMP JUMPDEST PUSH1 0x0 DUP3 DUP3 MSTORE PUSH1 0x20 DUP3 ADD SWAP1 POP SWAP3 SWAP2 POP POP JUMP JUMPDEST PUSH1 0x0 PUSH2 0x5D5 DUP3 PUSH2 0x711 JUMP JUMPDEST SWAP2 POP PUSH2 0x5E0 DUP4 PUSH2 0x711 JUMP JUMPDEST SWAP3 POP DUP3 PUSH32 0xFFFFFFFFFFFFFFFFFFFFFFFFFFFFFFFFFFFFFFFFFFFFFFFFFFFFFFFFFFFFFFFF SUB DUP3 GT ISZERO PUSH2 0x615 JUMPI PUSH2 0x614 PUSH2 0x78E JUMP JUMPDEST JUMPDEST DUP3 DUP3 ADD SWAP1 POP SWAP3 SWAP2 POP POP JUMP JUMPDEST PUSH1 0x0 PUSH2 0x62B DUP3 PUSH2 0x711 JUMP JUMPDEST SWAP2 POP PUSH2 0x636 DUP4 PUSH2 0x711 JUMP JUMPDEST SWAP3 POP DUP3 PUSH2 0x646 JUMPI PUSH2 0x645 PUSH2 0x7BD JUMP JUMPDEST JUMPDEST DUP3 DUP3 DIV SWAP1 POP SWAP3 SWAP2 POP POP JUMP JUMPDEST PUSH1 0x0 PUSH2 0x65C DUP3 PUSH2 0x711 JUMP JUMPDEST SWAP2 POP PUSH2 0x667 DUP4 PUSH2 0x711 JUMP JUMPDEST SWAP3 POP DUP2 PUSH32 0xFFFFFFFFFFFFFFFFFFFFFFFFFFFFFFFFFFFFFFFFFFFFFFFFFFFFFFFFFFFFFFFF DIV DUP4 GT DUP3 ISZERO ISZERO AND ISZERO PUSH2 0x6A0 JUMPI PUSH2 0x69F PUSH2 0x78E JUMP JUMPDEST JUMPDEST DUP3 DUP3 MUL SWAP1 POP SWAP3 SWAP2 POP POP JUMP JUMPDEST PUSH1 0x0 PUSH2 0x6B6 DUP3 PUSH2 0x711 JUMP JUMPDEST SWAP2 POP PUSH2 0x6C1 DUP4 PUSH2 0x711 JUMP JUMPDEST SWAP3 POP DUP3 DUP3 LT ISZERO PUSH2 0x6D4 JUMPI PUSH2 0x6D3 PUSH2 0x78E JUMP JUMPDEST JUMPDEST DUP3 DUP3 SUB SWAP1 POP SWAP3 SWAP2 POP POP JUMP JUMPDEST PUSH1 0x0 PUSH2 0x6EA DUP3 PUSH2 0x6F1 JUMP JUMPDEST SWAP1 POP SWAP2 SWAP1 POP JUMP JUMPDEST PUSH1 0x0 PUSH20 0xFFFFFFFFFFFFFFFFFFFFFFFFFFFFFFFFFFFFFFFF DUP3 AND SWAP1 POP SWAP2 SWAP1 POP JUMP JUMPDEST PUSH1 0x0 DUP2 SWAP1 POP SWAP2 SWAP1 POP JUMP JUMPDEST PUSH1 0x0 PUSH2 0x726 DUP3 PUSH2 0x711 JUMP JUMPDEST SWAP2 POP PUSH1 0x0 DUP3 EQ ISZERO PUSH2 0x73A JUMPI PUSH2 0x739 PUSH2 0x78E JUMP JUMPDEST JUMPDEST PUSH1 0x1 DUP3 SUB SWAP1 POP SWAP2 SWAP1 POP JUMP JUMPDEST PUSH1 0x0 PUSH2 0x750 DUP3 PUSH2 0x711 JUMP JUMPDEST SWAP2 POP PUSH32 0xFFFFFFFFFFFFFFFFFFFFFFFFFFFFFFFFFFFFFFFFFFFFFFFFFFFFFFFFFFFFFFFF DUP3 EQ ISZERO PUSH2 0x783 JUMPI PUSH2 0x782 PUSH2 0x78E JUMP JUMPDEST JUMPDEST PUSH1 0x1 DUP3 ADD SWAP1 POP SWAP2 SWAP1 POP JUMP JUMPDEST PUSH32 0x4E487B7100000000000000000000000000000000000000000000000000000000 PUSH1 0x0 MSTORE PUSH1 0x11 PUSH1 0x4 MSTORE PUSH1 0x24 PUSH1 0x0 REVERT JUMPDEST PUSH32 0x4E487B7100000000000000000000000000000000000000000000000000000000 PUSH1 0x0 MSTORE PUSH1 0x12 PUSH1 0x4 MSTORE PUSH1 0x24 PUSH1 0x0 REVERT JUMPDEST PUSH1 0x0 DUP1 REVERT JUMPDEST PUSH32 0x596F7520617265206E6F7420616C6C6F77656400000000000000000000000000 PUSH1 0x0 DUP3 ADD MSTORE POP JUMP JUMPDEST PUSH32 0x596F7520617265206E6F7420746865206F776E65720000000000000000000000 PUSH1 0x0 DUP3 ADD MSTORE POP JUMP JUMPDEST PUSH32 0x6E6F7420656E6F75676820746F6B656E73000000000000000000000000000000 PUSH1 0x0 DUP3 ADD MSTORE POP JUMP JUMPDEST PUSH2 0x875 DUP2 PUSH2 0x6DF JUMP JUMPDEST DUP2 EQ PUSH2 0x880 JUMPI PUSH1 0x0 DUP1 REVERT JUMPDEST POP JUMP INVALID LOG2 PUSH5 0x6970667358 0x22 SLT KECCAK256 PUSH11 0xB32A4BC685D3BBB0481B3E SWAP1 0xAD 0xEF LOG0 PUSH5 0x2346DEC046 0xC4 SWAP11 SELFDESTRUCT 0xB1 0xCA SWAP9 0xA8 PUSH7 0x6F2964736F6C63 NUMBER STOP ADDMOD SMOD STOP CALLER "
				},
				"gasEstimates": {
					"creation": {
						"codeDepositCost": "446600",
						"executionCost": "71192",
						"totalCost": "517792"
					},
					"external": {
						"burnToken()": "28944",
						"createNewToken()": "28878",
						"purchaseToken()": "infinite",
						"tokenBalance(address)": "2836"
					}
				},
				"methodIdentifiers": {
					"burnToken()": "faa0a264",
					"createNewToken()": "754fc38c",
					"purchaseToken()": "a95c4d62",
					"tokenBalance(address)": "eedc966a"
				}
			},
			"storageLayout": {
				"storage": [
					{
						"astId": 5,
						"contract": "InheritanceModifierExample.sol:InheritanceModifierExample",
						"label": "tokenBalance",
						"offset": 0,
						"slot": "0",
						"type": "t_mapping(t_address,t_uint256)"
					},
					{
						"astId": 7,
						"contract": "InheritanceModifierExample.sol:InheritanceModifierExample",
						"label": "owner",
						"offset": 0,
						"slot": "1",
						"type": "t_address"
					},
					{
						"astId": 10,
						"contract": "InheritanceModifierExample.sol:InheritanceModifierExample",
						"label": "tokenPrice",
						"offset": 0,
						"slot": "2",
						"type": "t_uint256"
					}
				],
				"types": {
					"t_address": {
						"encoding": "inplace",
						"label": "address",
						"numberOfBytes": "20"
					},
					"t_mapping(t_address,t_uint256)": {
						"encoding": "mapping",
						"key": "t_address",
						"label": "mapping(address => uint256)",
						"numberOfBytes": "32",
						"value": "t_uint256"
					},
					"t_uint256": {
						"encoding": "inplace",
						"label": "uint256",
						"numberOfBytes": "32"
					}
				}
			},
			"userdoc": {
				"kind": "user",
				"methods": {},
				"version": 1
			}
		}
	}
}