{
	"SendMoneyExample.sol": {
		"SendMoneyExample": {
			"abi": [
				{
					"inputs": [],
					"name": "BalanceReceived",
					"outputs": [
						{
							"internalType": "uint256",
							"name": "",
							"type": "uint256"
						}
					],
					"stateMutability": "view",
					"type": "function"
				},
				{
					"inputs": [],
					"name": "ReceiveMoney",
					"outputs": [],
					"stateMutability": "payable",
					"type": "function"
				},
				{
					"inputs": [],
					"name": "WithdrawMoney",
					"outputs": [],
					"stateMutability": "nonpayable",
					"type": "function"
				},
				{
					"inputs": [
						{
							"internalType": "address",
							"name": "",
							"type": "address"
						}
					],
					"name": "WithdrawMoneyTo",
					"outputs": [],
					"stateMutability": "nonpayable",
					"type": "function"
				},
				{
					"inputs": [],
					"name": "getBalance",
					"outputs": [
						{
							"internalType": "uint256",
							"name": "",
							"type": "uint256"
						}
					],
					"stateMutability": "view",
					"type": "function"
				}
			],
			"devdoc": {
				"kind": "dev",
				"methods": {},
				"version": 1
			},
			"evm": {
				"assembly": "    /* \"SendMoneyExample.sol\":25:507  contract SendMoneyExample{\r... */\n  mstore(0x40, 0x80)\n  callvalue\n  dup1\n  iszero\n  tag_1\n  jumpi\n  0x00\n  dup1\n  revert\ntag_1:\n  pop\n  dataSize(sub_0)\n  dup1\n  dataOffset(sub_0)\n  0x00\n  codecopy\n  0x00\n  return\nstop\n\nsub_0: assembly {\n        /* \"SendMoneyExample.sol\":25:507  contract SendMoneyExample{\r... */\n      mstore(0x40, 0x80)\n      jumpi(tag_1, lt(calldatasize, 0x04))\n      shr(0xe0, calldataload(0x00))\n      dup1\n      0x12065fe0\n      eq\n      tag_2\n      jumpi\n      dup1\n      0xa29e0a94\n      eq\n      tag_3\n      jumpi\n      dup1\n      0xb6c58ac2\n      eq\n      tag_4\n      jumpi\n      dup1\n      0xba26a1a1\n      eq\n      tag_5\n      jumpi\n      dup1\n      0xdecf5984\n      eq\n      tag_6\n      jumpi\n    tag_1:\n      0x00\n      dup1\n      revert\n        /* \"SendMoneyExample.sol\":193:300  function getBalance () public view returns (uint) {\r... */\n    tag_2:\n      callvalue\n      dup1\n      iszero\n      tag_7\n      jumpi\n      0x00\n      dup1\n      revert\n    tag_7:\n      pop\n      tag_8\n      tag_9\n      jump\t// in\n    tag_8:\n      mload(0x40)\n      tag_10\n      swap2\n      swap1\n      tag_11\n      jump\t// in\n    tag_10:\n      mload(0x40)\n      dup1\n      swap2\n      sub\n      swap1\n      return\n        /* \"SendMoneyExample.sol\":93:187  function ReceiveMoney() public payable {\r... */\n    tag_3:\n      tag_12\n      tag_13\n      jump\t// in\n    tag_12:\n      stop\n        /* \"SendMoneyExample.sol\":308:442  function WithdrawMoney() public{\r... */\n    tag_4:\n      callvalue\n      dup1\n      iszero\n      tag_14\n      jumpi\n      0x00\n      dup1\n      revert\n    tag_14:\n      pop\n      tag_15\n      tag_16\n      jump\t// in\n    tag_15:\n      stop\n        /* \"SendMoneyExample.sol\":57:84  uint public BalanceReceived */\n    tag_5:\n      callvalue\n      dup1\n      iszero\n      tag_17\n      jumpi\n      0x00\n      dup1\n      revert\n    tag_17:\n      pop\n      tag_18\n      tag_19\n      jump\t// in\n    tag_18:\n      mload(0x40)\n      tag_20\n      swap2\n      swap1\n      tag_11\n      jump\t// in\n    tag_20:\n      mload(0x40)\n      dup1\n      swap2\n      sub\n      swap1\n      return\n        /* \"SendMoneyExample.sol\":448:500  function WithdrawMoneyTo(address ) public {\r... */\n    tag_6:\n      callvalue\n      dup1\n      iszero\n      tag_21\n      jumpi\n      0x00\n      dup1\n      revert\n    tag_21:\n      pop\n      tag_22\n      0x04\n      dup1\n      calldatasize\n      sub\n      dup2\n      add\n      swap1\n      tag_23\n      swap2\n      swap1\n      tag_24\n      jump\t// in\n    tag_23:\n      tag_25\n      jump\t// in\n    tag_22:\n      stop\n        /* \"SendMoneyExample.sol\":193:300  function getBalance () public view returns (uint) {\r... */\n    tag_9:\n        /* \"SendMoneyExample.sol\":237:241  uint */\n      0x00\n        /* \"SendMoneyExample.sol\":269:290  address(this).balance */\n      selfbalance\n        /* \"SendMoneyExample.sol\":262:290  return address(this).balance */\n      swap1\n      pop\n        /* \"SendMoneyExample.sol\":193:300  function getBalance () public view returns (uint) {\r... */\n      swap1\n      jump\t// out\n        /* \"SendMoneyExample.sol\":93:187  function ReceiveMoney() public payable {\r... */\n    tag_13:\n        /* \"SendMoneyExample.sol\":162:171  msg.value */\n      callvalue\n        /* \"SendMoneyExample.sol\":143:158  BalanceReceived */\n      0x00\n      dup1\n        /* \"SendMoneyExample.sol\":143:171  BalanceReceived += msg.value */\n      dup3\n      dup3\n      sload\n      tag_28\n      swap2\n      swap1\n      tag_29\n      jump\t// in\n    tag_28:\n      swap3\n      pop\n      pop\n      dup2\n      swap1\n      sstore\n      pop\n        /* \"SendMoneyExample.sol\":93:187  function ReceiveMoney() public payable {\r... */\n      jump\t// out\n        /* \"SendMoneyExample.sol\":308:442  function WithdrawMoney() public{\r... */\n    tag_16:\n        /* \"SendMoneyExample.sol\":350:368  address payable to */\n      0x00\n        /* \"SendMoneyExample.sol\":379:389  msg.sender */\n      caller\n        /* \"SendMoneyExample.sol\":350:390  address payable to = payable(msg.sender) */\n      swap1\n      pop\n        /* \"SendMoneyExample.sol\":401:403  to */\n      dup1\n        /* \"SendMoneyExample.sol\":401:412  to.transfer */\n      0xffffffffffffffffffffffffffffffffffffffff\n      and\n        /* \"SendMoneyExample.sol\":401:427  to.transfer (getBalance()) */\n      0x08fc\n        /* \"SendMoneyExample.sol\":414:426  getBalance() */\n      tag_31\n        /* \"SendMoneyExample.sol\":414:424  getBalance */\n      tag_9\n        /* \"SendMoneyExample.sol\":414:426  getBalance() */\n      jump\t// in\n    tag_31:\n        /* \"SendMoneyExample.sol\":401:427  to.transfer (getBalance()) */\n      swap1\n      dup2\n      iszero\n      mul\n      swap1\n      mload(0x40)\n      0x00\n      mload(0x40)\n      dup1\n      dup4\n      sub\n      dup2\n      dup6\n      dup9\n      dup9\n      call\n      swap4\n      pop\n      pop\n      pop\n      pop\n      iszero\n      dup1\n      iszero\n      tag_33\n      jumpi\n      returndatasize\n      0x00\n      dup1\n      returndatacopy\n      revert(0x00, returndatasize)\n    tag_33:\n      pop\n        /* \"SendMoneyExample.sol\":339:442  {\r... */\n      pop\n        /* \"SendMoneyExample.sol\":308:442  function WithdrawMoney() public{\r... */\n      jump\t// out\n        /* \"SendMoneyExample.sol\":57:84  uint public BalanceReceived */\n    tag_19:\n      sload(0x00)\n      dup2\n      jump\t// out\n        /* \"SendMoneyExample.sol\":448:500  function WithdrawMoneyTo(address ) public {\r... */\n    tag_25:\n      pop\n      jump\t// out\n        /* \"#utility.yul\":7:146   */\n    tag_36:\n        /* \"#utility.yul\":53:58   */\n      0x00\n        /* \"#utility.yul\":91:97   */\n      dup2\n        /* \"#utility.yul\":78:98   */\n      calldataload\n        /* \"#utility.yul\":69:98   */\n      swap1\n      pop\n        /* \"#utility.yul\":107:140   */\n      tag_38\n        /* \"#utility.yul\":134:139   */\n      dup2\n        /* \"#utility.yul\":107:140   */\n      tag_39\n      jump\t// in\n    tag_38:\n        /* \"#utility.yul\":7:146   */\n      swap3\n      swap2\n      pop\n      pop\n      jump\t// out\n        /* \"#utility.yul\":152:481   */\n    tag_24:\n        /* \"#utility.yul\":211:217   */\n      0x00\n        /* \"#utility.yul\":260:262   */\n      0x20\n        /* \"#utility.yul\":248:257   */\n      dup3\n        /* \"#utility.yul\":239:246   */\n      dup5\n        /* \"#utility.yul\":235:258   */\n      sub\n        /* \"#utility.yul\":231:263   */\n      slt\n        /* \"#utility.yul\":228:347   */\n      iszero\n      tag_41\n      jumpi\n        /* \"#utility.yul\":266:345   */\n      tag_42\n      tag_43\n      jump\t// in\n    tag_42:\n        /* \"#utility.yul\":228:347   */\n    tag_41:\n        /* \"#utility.yul\":386:387   */\n      0x00\n        /* \"#utility.yul\":411:464   */\n      tag_44\n        /* \"#utility.yul\":456:463   */\n      dup5\n        /* \"#utility.yul\":447:453   */\n      dup3\n        /* \"#utility.yul\":436:445   */\n      dup6\n        /* \"#utility.yul\":432:454   */\n      add\n        /* \"#utility.yul\":411:464   */\n      tag_36\n      jump\t// in\n    tag_44:\n        /* \"#utility.yul\":401:464   */\n      swap2\n      pop\n        /* \"#utility.yul\":357:474   */\n      pop\n        /* \"#utility.yul\":152:481   */\n      swap3\n      swap2\n      pop\n      pop\n      jump\t// out\n        /* \"#utility.yul\":487:605   */\n    tag_45:\n        /* \"#utility.yul\":574:598   */\n      tag_47\n        /* \"#utility.yul\":592:597   */\n      dup2\n        /* \"#utility.yul\":574:598   */\n      tag_48\n      jump\t// in\n    tag_47:\n        /* \"#utility.yul\":569:572   */\n      dup3\n        /* \"#utility.yul\":562:599   */\n      mstore\n        /* \"#utility.yul\":487:605   */\n      pop\n      pop\n      jump\t// out\n        /* \"#utility.yul\":611:833   */\n    tag_11:\n        /* \"#utility.yul\":704:708   */\n      0x00\n        /* \"#utility.yul\":742:744   */\n      0x20\n        /* \"#utility.yul\":731:740   */\n      dup3\n        /* \"#utility.yul\":727:745   */\n      add\n        /* \"#utility.yul\":719:745   */\n      swap1\n      pop\n        /* \"#utility.yul\":755:826   */\n      tag_50\n        /* \"#utility.yul\":823:824   */\n      0x00\n        /* \"#utility.yul\":812:821   */\n      dup4\n        /* \"#utility.yul\":808:825   */\n      add\n        /* \"#utility.yul\":799:805   */\n      dup5\n        /* \"#utility.yul\":755:826   */\n      tag_45\n      jump\t// in\n    tag_50:\n        /* \"#utility.yul\":611:833   */\n      swap3\n      swap2\n      pop\n      pop\n      jump\t// out\n        /* \"#utility.yul\":920:1225   */\n    tag_29:\n        /* \"#utility.yul\":960:963   */\n      0x00\n        /* \"#utility.yul\":979:999   */\n      tag_54\n        /* \"#utility.yul\":997:998   */\n      dup3\n        /* \"#utility.yul\":979:999   */\n      tag_48\n      jump\t// in\n    tag_54:\n        /* \"#utility.yul\":974:999   */\n      swap2\n      pop\n        /* \"#utility.yul\":1013:1033   */\n      tag_55\n        /* \"#utility.yul\":1031:1032   */\n      dup4\n        /* \"#utility.yul\":1013:1033   */\n      tag_48\n      jump\t// in\n    tag_55:\n        /* \"#utility.yul\":1008:1033   */\n      swap3\n      pop\n        /* \"#utility.yul\":1167:1168   */\n      dup3\n        /* \"#utility.yul\":1099:1165   */\n      0xffffffffffffffffffffffffffffffffffffffffffffffffffffffffffffffff\n        /* \"#utility.yul\":1095:1169   */\n      sub\n        /* \"#utility.yul\":1092:1093   */\n      dup3\n        /* \"#utility.yul\":1089:1170   */\n      gt\n        /* \"#utility.yul\":1086:1193   */\n      iszero\n      tag_56\n      jumpi\n        /* \"#utility.yul\":1173:1191   */\n      tag_57\n      tag_58\n      jump\t// in\n    tag_57:\n        /* \"#utility.yul\":1086:1193   */\n    tag_56:\n        /* \"#utility.yul\":1217:1218   */\n      dup3\n        /* \"#utility.yul\":1214:1215   */\n      dup3\n        /* \"#utility.yul\":1210:1219   */\n      add\n        /* \"#utility.yul\":1203:1219   */\n      swap1\n      pop\n        /* \"#utility.yul\":920:1225   */\n      swap3\n      swap2\n      pop\n      pop\n      jump\t// out\n        /* \"#utility.yul\":1231:1327   */\n    tag_59:\n        /* \"#utility.yul\":1268:1275   */\n      0x00\n        /* \"#utility.yul\":1297:1321   */\n      tag_61\n        /* \"#utility.yul\":1315:1320   */\n      dup3\n        /* \"#utility.yul\":1297:1321   */\n      tag_62\n      jump\t// in\n    tag_61:\n        /* \"#utility.yul\":1286:1321   */\n      swap1\n      pop\n        /* \"#utility.yul\":1231:1327   */\n      swap2\n      swap1\n      pop\n      jump\t// out\n        /* \"#utility.yul\":1333:1459   */\n    tag_62:\n        /* \"#utility.yul\":1370:1377   */\n      0x00\n        /* \"#utility.yul\":1410:1452   */\n      0xffffffffffffffffffffffffffffffffffffffff\n        /* \"#utility.yul\":1403:1408   */\n      dup3\n        /* \"#utility.yul\":1399:1453   */\n      and\n        /* \"#utility.yul\":1388:1453   */\n      swap1\n      pop\n        /* \"#utility.yul\":1333:1459   */\n      swap2\n      swap1\n      pop\n      jump\t// out\n        /* \"#utility.yul\":1465:1542   */\n    tag_48:\n        /* \"#utility.yul\":1502:1509   */\n      0x00\n        /* \"#utility.yul\":1531:1536   */\n      dup2\n        /* \"#utility.yul\":1520:1536   */\n      swap1\n      pop\n        /* \"#utility.yul\":1465:1542   */\n      swap2\n      swap1\n      pop\n      jump\t// out\n        /* \"#utility.yul\":1548:1728   */\n    tag_58:\n        /* \"#utility.yul\":1596:1673   */\n      0x4e487b7100000000000000000000000000000000000000000000000000000000\n        /* \"#utility.yul\":1593:1594   */\n      0x00\n        /* \"#utility.yul\":1586:1674   */\n      mstore\n        /* \"#utility.yul\":1693:1697   */\n      0x11\n        /* \"#utility.yul\":1690:1691   */\n      0x04\n        /* \"#utility.yul\":1683:1698   */\n      mstore\n        /* \"#utility.yul\":1717:1721   */\n      0x24\n        /* \"#utility.yul\":1714:1715   */\n      0x00\n        /* \"#utility.yul\":1707:1722   */\n      revert\n        /* \"#utility.yul\":1857:1974   */\n    tag_43:\n        /* \"#utility.yul\":1966:1967   */\n      0x00\n        /* \"#utility.yul\":1963:1964   */\n      dup1\n        /* \"#utility.yul\":1956:1968   */\n      revert\n        /* \"#utility.yul\":1980:2102   */\n    tag_39:\n        /* \"#utility.yul\":2053:2077   */\n      tag_70\n        /* \"#utility.yul\":2071:2076   */\n      dup2\n        /* \"#utility.yul\":2053:2077   */\n      tag_59\n      jump\t// in\n    tag_70:\n        /* \"#utility.yul\":2046:2051   */\n      dup2\n        /* \"#utility.yul\":2043:2078   */\n      eq\n        /* \"#utility.yul\":2033:2096   */\n      tag_71\n      jumpi\n        /* \"#utility.yul\":2092:2093   */\n      0x00\n        /* \"#utility.yul\":2089:2090   */\n      dup1\n        /* \"#utility.yul\":2082:2094   */\n      revert\n        /* \"#utility.yul\":2033:2096   */\n    tag_71:\n        /* \"#utility.yul\":1980:2102   */\n      pop\n      jump\t// out\n\n    auxdata: 0xa2646970667358221220ef41016c300fc78099c900fda6035e7c9ca93aba744c3100277812ec559f03db64736f6c63430008070033\n}\n",
				"bytecode": {
					"linkReferences": {},
					"object": "608060405234801561001057600080fd5b506102ef806100206000396000f3fe60806040526004361061004a5760003560e01c806312065fe01461004f578063a29e0a941461007a578063b6c58ac214610084578063ba26a1a11461009b578063decf5984146100c6575b600080fd5b34801561005b57600080fd5b506100646100ef565b60405161007191906101c1565b60405180910390f35b6100826100f7565b005b34801561009057600080fd5b50610099610111565b005b3480156100a757600080fd5b506100b0610167565b6040516100bd91906101c1565b60405180910390f35b3480156100d257600080fd5b506100ed60048036038101906100e89190610185565b61016d565b005b600047905090565b3460008082825461010891906101dc565b92505081905550565b60003390508073ffffffffffffffffffffffffffffffffffffffff166108fc6101386100ef565b9081150290604051600060405180830381858888f19350505050158015610163573d6000803e3d6000fd5b5050565b60005481565b50565b60008135905061017f816102a2565b92915050565b60006020828403121561019b5761019a61029d565b5b60006101a984828501610170565b91505092915050565b6101bb81610264565b82525050565b60006020820190506101d660008301846101b2565b92915050565b60006101e782610264565b91506101f283610264565b9250827fffffffffffffffffffffffffffffffffffffffffffffffffffffffffffffffff038211156102275761022661026e565b5b828201905092915050565b600061023d82610244565b9050919050565b600073ffffffffffffffffffffffffffffffffffffffff82169050919050565b6000819050919050565b7f4e487b7100000000000000000000000000000000000000000000000000000000600052601160045260246000fd5b600080fd5b6102ab81610232565b81146102b657600080fd5b5056fea2646970667358221220ef41016c300fc78099c900fda6035e7c9ca93aba744c3100277812ec559f03db64736f6c63430008070033",
					"opcodes": "PUSH1 0x80 PUSH1 0x40 MSTORE CALLVALUE DUP1 ISZERO PUSH2 0x10 JUMPI PUSH1 0x0 DUP1 REVERT JUMPDEST POP PUSH2 0x2EF DUP1 PUSH2 0x20 PUSH1 0x0 CODECOPY PUSH1 0x0 RETURN INVALID PUSH1 0x80 PUSH1 0x40 MSTORE PUSH1 0x4 CALLDATASIZE LT PUSH2 0x4A JUMPI PUSH1 0x0 CALLDATALOAD PUSH1 0xE0 SHR DUP1 PUSH4 0x12065FE0 EQ PUSH2 0x4F JUMPI DUP1 PUSH4 0xA29E0A94 EQ PUSH2 0x7A JUMPI DUP1 PUSH4 0xB6C58AC2 EQ PUSH2 0x84 JUMPI DUP1 PUSH4 0xBA26A1A1 EQ PUSH2 0x9B JUMPI DUP1 PUSH4 0xDECF5984 EQ PUSH2 0xC6 JUMPI JUMPDEST PUSH1 0x0 DUP1 REVERT JUMPDEST CALLVALUE DUP1 ISZERO PUSH2 0x5B JUMPI PUSH1 0x0 DUP1 REVERT JUMPDEST POP PUSH2 0x64 PUSH2 0xEF JUMP JUMPDEST PUSH1 0x40 MLOAD PUSH2 0x71 SWAP2 SWAP1 PUSH2 0x1C1 JUMP JUMPDEST PUSH1 0x40 MLOAD DUP1 SWAP2 SUB SWAP1 RETURN JUMPDEST PUSH2 0x82 PUSH2 0xF7 JUMP JUMPDEST STOP JUMPDEST CALLVALUE DUP1 ISZERO PUSH2 0x90 JUMPI PUSH1 0x0 DUP1 REVERT JUMPDEST POP PUSH2 0x99 PUSH2 0x111 JUMP JUMPDEST STOP JUMPDEST CALLVALUE DUP1 ISZERO PUSH2 0xA7 JUMPI PUSH1 0x0 DUP1 REVERT JUMPDEST POP PUSH2 0xB0 PUSH2 0x167 JUMP JUMPDEST PUSH1 0x40 MLOAD PUSH2 0xBD SWAP2 SWAP1 PUSH2 0x1C1 JUMP JUMPDEST PUSH1 0x40 MLOAD DUP1 SWAP2 SUB SWAP1 RETURN JUMPDEST CALLVALUE DUP1 ISZERO PUSH2 0xD2 JUMPI PUSH1 0x0 DUP1 REVERT JUMPDEST POP PUSH2 0xED PUSH1 0x4 DUP1 CALLDATASIZE SUB DUP2 ADD SWAP1 PUSH2 0xE8 SWAP2 SWAP1 PUSH2 0x185 JUMP JUMPDEST PUSH2 0x16D JUMP JUMPDEST STOP JUMPDEST PUSH1 0x0 SELFBALANCE SWAP1 POP SWAP1 JUMP JUMPDEST CALLVALUE PUSH1 0x0 DUP1 DUP3 DUP3 SLOAD PUSH2 0x108 SWAP2 SWAP1 PUSH2 0x1DC JUMP JUMPDEST SWAP3 POP POP DUP2 SWAP1 SSTORE POP JUMP JUMPDEST PUSH1 0x0 CALLER SWAP1 POP DUP1 PUSH20 0xFFFFFFFFFFFFFFFFFFFFFFFFFFFFFFFFFFFFFFFF AND PUSH2 0x8FC PUSH2 0x138 PUSH2 0xEF JUMP JUMPDEST SWAP1 DUP2 ISZERO MUL SWAP1 PUSH1 0x40 MLOAD PUSH1 0x0 PUSH1 0x40 MLOAD DUP1 DUP4 SUB DUP2 DUP6 DUP9 DUP9 CALL SWAP4 POP POP POP POP ISZERO DUP1 ISZERO PUSH2 0x163 JUMPI RETURNDATASIZE PUSH1 0x0 DUP1 RETURNDATACOPY RETURNDATASIZE PUSH1 0x0 REVERT JUMPDEST POP POP JUMP JUMPDEST PUSH1 0x0 SLOAD DUP2 JUMP JUMPDEST POP JUMP JUMPDEST PUSH1 0x0 DUP2 CALLDATALOAD SWAP1 POP PUSH2 0x17F DUP2 PUSH2 0x2A2 JUMP JUMPDEST SWAP3 SWAP2 POP POP JUMP JUMPDEST PUSH1 0x0 PUSH1 0x20 DUP3 DUP5 SUB SLT ISZERO PUSH2 0x19B JUMPI PUSH2 0x19A PUSH2 0x29D JUMP JUMPDEST JUMPDEST PUSH1 0x0 PUSH2 0x1A9 DUP5 DUP3 DUP6 ADD PUSH2 0x170 JUMP JUMPDEST SWAP2 POP POP SWAP3 SWAP2 POP POP JUMP JUMPDEST PUSH2 0x1BB DUP2 PUSH2 0x264 JUMP JUMPDEST DUP3 MSTORE POP POP JUMP JUMPDEST PUSH1 0x0 PUSH1 0x20 DUP3 ADD SWAP1 POP PUSH2 0x1D6 PUSH1 0x0 DUP4 ADD DUP5 PUSH2 0x1B2 JUMP JUMPDEST SWAP3 SWAP2 POP POP JUMP JUMPDEST PUSH1 0x0 PUSH2 0x1E7 DUP3 PUSH2 0x264 JUMP JUMPDEST SWAP2 POP PUSH2 0x1F2 DUP4 PUSH2 0x264 JUMP JUMPDEST SWAP3 POP DUP3 PUSH32 0xFFFFFFFFFFFFFFFFFFFFFFFFFFFFFFFFFFFFFFFFFFFFFFFFFFFFFFFFFFFFFFFF SUB DUP3 GT ISZERO PUSH2 0x227 JUMPI PUSH2 0x226 PUSH2 0x26E JUMP JUMPDEST JUMPDEST DUP3 DUP3 ADD SWAP1 POP SWAP3 SWAP2 POP POP JUMP JUMPDEST PUSH1 0x0 PUSH2 0x23D DUP3 PUSH2 0x244 JUMP JUMPDEST SWAP1 POP SWAP2 SWAP1 POP JUMP JUMPDEST PUSH1 0x0 PUSH20 0xFFFFFFFFFFFFFFFFFFFFFFFFFFFFFFFFFFFFFFFF DUP3 AND SWAP1 POP SWAP2 SWAP1 POP JUMP JUMPDEST PUSH1 0x0 DUP2 SWAP1 POP SWAP2 SWAP1 POP JUMP JUMPDEST PUSH32 0x4E487B7100000000000000000000000000000000000000000000000000000000 PUSH1 0x0 MSTORE PUSH1 0x11 PUSH1 0x4 MSTORE PUSH1 0x24 PUSH1 0x0 REVERT JUMPDEST PUSH1 0x0 DUP1 REVERT JUMPDEST PUSH2 0x2AB DUP2 PUSH2 0x232 JUMP JUMPDEST DUP2 EQ PUSH2 0x2B6 JUMPI PUSH1 0x0 DUP1 REVERT JUMPDEST POP JUMP INVALID LOG2 PUSH5 0x6970667358 0x22 SLT KECCAK256 0xEF COINBASE ADD PUSH13 0x300FC78099C900FDA6035E7C9C 0xA9 GASPRICE 0xBA PUSH21 0x4C3100277812EC559F03DB64736F6C634300080700 CALLER "
				},
				"gasEstimates": {
					"creation": {
						"codeDepositCost": "150200",
						"executionCost": "196",
						"totalCost": "150396"
					},
					"external": {
						"BalanceReceived()": "2473",
						"ReceiveMoney()": "infinite",
						"WithdrawMoney()": "infinite",
						"WithdrawMoneyTo(address)": "521",
						"getBalance()": "317"
					}
				},
				"methodIdentifiers": {
					"BalanceReceived()": "ba26a1a1",
					"ReceiveMoney()": "a29e0a94",
					"WithdrawMoney()": "b6c58ac2",
					"WithdrawMoneyTo(address)": "decf5984",
					"getBalance()": "12065fe0"
				}
			},
			"storageLayout": {
				"storage": [
					{
						"astId": 3,
						"contract": "SendMoneyExample.sol:SendMoneyExample",
						"label": "BalanceReceived",
						"offset": 0,
						"slot": "0",
						"type": "t_uint256"
					}
				],
				"types": {
					"t_uint256": {
						"encoding": "inplace",
						"label": "uint256",
						"numberOfBytes": "32"
					}
				}
			},
			"userdoc": {
				"kind": "user",
				"methods": {},
				"version": 1
			}
		}
	}
}