{
	"ProjectSupplyChainItemManager.sol": {
		"ItemManager": {
			"abi": [
				{
					"inputs": [
						{
							"internalType": "string",
							"name": "_identifier",
							"type": "string"
						},
						{
							"internalType": "uint256",
							"name": "_itemPrice",
							"type": "uint256"
						}
					],
					"name": "createItem",
					"outputs": [],
					"stateMutability": "nonpayable",
					"type": "function"
				},
				{
					"inputs": [
						{
							"internalType": "uint256",
							"name": "",
							"type": "uint256"
						}
					],
					"name": "items",
					"outputs": [
						{
							"internalType": "string",
							"name": "_identifier",
							"type": "string"
						},
						{
							"internalType": "uint256",
							"name": "_itemPrice",
							"type": "uint256"
						},
						{
							"internalType": "enum ItemManager.SupplyChainState",
							"name": "_state",
							"type": "uint8"
						}
					],
					"stateMutability": "view",
					"type": "function"
				},
				{
					"inputs": [
						{
							"internalType": "uint256",
							"name": "_index",
							"type": "uint256"
						}
					],
					"name": "triggerDelivery",
					"outputs": [],
					"stateMutability": "nonpayable",
					"type": "function"
				},
				{
					"inputs": [
						{
							"internalType": "uint256",
							"name": "_index",
							"type": "uint256"
						}
					],
					"name": "triggerPayment",
					"outputs": [],
					"stateMutability": "payable",
					"type": "function"
				}
			],
			"devdoc": {
				"kind": "dev",
				"methods": {},
				"version": 1
			},
			"evm": {
				"assembly": "    /* \"ProjectSupplyChainItemManager.sol\":27:1147  contract ItemManager {\r... */\n  mstore(0x40, 0x80)\n  callvalue\n  dup1\n  iszero\n  tag_1\n  jumpi\n  0x00\n  dup1\n  revert\ntag_1:\n  pop\n  dataSize(sub_0)\n  dup1\n  dataOffset(sub_0)\n  0x00\n  codecopy\n  0x00\n  return\nstop\n\nsub_0: assembly {\n        /* \"ProjectSupplyChainItemManager.sol\":27:1147  contract ItemManager {\r... */\n      mstore(0x40, 0x80)\n      jumpi(tag_1, lt(calldatasize, 0x04))\n      shr(0xe0, calldataload(0x00))\n      dup1\n      0x800fb83f\n      eq\n      tag_2\n      jumpi\n      dup1\n      0x8c551742\n      eq\n      tag_3\n      jumpi\n      dup1\n      0xbfb231d2\n      eq\n      tag_4\n      jumpi\n      dup1\n      0xcd31831e\n      eq\n      tag_5\n      jumpi\n    tag_1:\n      0x00\n      dup1\n      revert\n        /* \"ProjectSupplyChainItemManager.sol\":592:913  function triggerPayment (uint _index) public payable {\r... */\n    tag_2:\n      tag_6\n      0x04\n      dup1\n      calldatasize\n      sub\n      dup2\n      add\n      swap1\n      tag_7\n      swap2\n      swap1\n      tag_8\n      jump\t// in\n    tag_7:\n      tag_9\n      jump\t// in\n    tag_6:\n      stop\n        /* \"ProjectSupplyChainItemManager.sol\":312:584  function createItem (string memory _identifier, uint _itemPrice) public {\r... */\n    tag_3:\n      callvalue\n      dup1\n      iszero\n      tag_10\n      jumpi\n      0x00\n      dup1\n      revert\n    tag_10:\n      pop\n      tag_11\n      0x04\n      dup1\n      calldatasize\n      sub\n      dup2\n      add\n      swap1\n      tag_12\n      swap2\n      swap1\n      tag_13\n      jump\t// in\n    tag_12:\n      tag_14\n      jump\t// in\n    tag_11:\n      stop\n        /* \"ProjectSupplyChainItemManager.sol\":246:282  mapping(uint => S_Item) public items */\n    tag_4:\n      callvalue\n      dup1\n      iszero\n      tag_15\n      jumpi\n      0x00\n      dup1\n      revert\n    tag_15:\n      pop\n      tag_16\n      0x04\n      dup1\n      calldatasize\n      sub\n      dup2\n      add\n      swap1\n      tag_17\n      swap2\n      swap1\n      tag_8\n      jump\t// in\n    tag_17:\n      tag_18\n      jump\t// in\n    tag_16:\n      mload(0x40)\n      tag_19\n      swap4\n      swap3\n      swap2\n      swap1\n      tag_20\n      jump\t// in\n    tag_19:\n      mload(0x40)\n      dup1\n      swap2\n      sub\n      swap1\n      return\n        /* \"ProjectSupplyChainItemManager.sol\":921:1144  function triggerDelivery (uint _index) public {\r... */\n    tag_5:\n      callvalue\n      dup1\n      iszero\n      tag_21\n      jumpi\n      0x00\n      dup1\n      revert\n    tag_21:\n      pop\n      tag_22\n      0x04\n      dup1\n      calldatasize\n      sub\n      dup2\n      add\n      swap1\n      tag_23\n      swap2\n      swap1\n      tag_8\n      jump\t// in\n    tag_23:\n      tag_24\n      jump\t// in\n    tag_22:\n      stop\n        /* \"ProjectSupplyChainItemManager.sol\":592:913  function triggerPayment (uint _index) public payable {\r... */\n    tag_9:\n        /* \"ProjectSupplyChainItemManager.sol\":696:705  msg.value */\n      callvalue\n        /* \"ProjectSupplyChainItemManager.sol\":665:670  items */\n      0x00\n        /* \"ProjectSupplyChainItemManager.sol\":665:681  items[itemIndex] */\n      dup1\n        /* \"ProjectSupplyChainItemManager.sol\":671:680  itemIndex */\n      sload(0x01)\n        /* \"ProjectSupplyChainItemManager.sol\":665:681  items[itemIndex] */\n      dup2\n      mstore\n      0x20\n      add\n      swap1\n      dup2\n      mstore\n      0x20\n      add\n      0x00\n      keccak256\n        /* \"ProjectSupplyChainItemManager.sol\":665:692  items[itemIndex]._itemPrice */\n      0x01\n      add\n      sload\n        /* \"ProjectSupplyChainItemManager.sol\":665:705  items[itemIndex]._itemPrice == msg.value */\n      eq\n        /* \"ProjectSupplyChainItemManager.sol\":656:737  require (items[itemIndex]._itemPrice == msg.value, \"Only full payments accepted\") */\n      tag_26\n      jumpi\n      mload(0x40)\n      0x08c379a000000000000000000000000000000000000000000000000000000000\n      dup2\n      mstore\n      0x04\n      add\n      tag_27\n      swap1\n      tag_28\n      jump\t// in\n    tag_27:\n      mload(0x40)\n      dup1\n      swap2\n      sub\n      swap1\n      revert\n    tag_26:\n        /* \"ProjectSupplyChainItemManager.sol\":784:808  SupplyChainState.Created */\n      0x00\n        /* \"ProjectSupplyChainItemManager.sol\":757:808  items[itemIndex]._state == SupplyChainState.Created */\n      0x02\n      dup2\n      gt\n      iszero\n      tag_29\n      jumpi\n      tag_30\n      tag_31\n      jump\t// in\n    tag_30:\n    tag_29:\n        /* \"ProjectSupplyChainItemManager.sol\":757:762  items */\n      0x00\n        /* \"ProjectSupplyChainItemManager.sol\":757:773  items[itemIndex] */\n      dup1\n        /* \"ProjectSupplyChainItemManager.sol\":763:772  itemIndex */\n      sload(0x01)\n        /* \"ProjectSupplyChainItemManager.sol\":757:773  items[itemIndex] */\n      dup2\n      mstore\n      0x20\n      add\n      swap1\n      dup2\n      mstore\n      0x20\n      add\n      0x00\n      keccak256\n        /* \"ProjectSupplyChainItemManager.sol\":757:780  items[itemIndex]._state */\n      0x02\n      add\n      0x00\n      swap1\n      sload\n      swap1\n      0x0100\n      exp\n      swap1\n      div\n      0xff\n      and\n        /* \"ProjectSupplyChainItemManager.sol\":757:808  items[itemIndex]._state == SupplyChainState.Created */\n      0x02\n      dup2\n      gt\n      iszero\n      tag_32\n      jumpi\n      tag_33\n      tag_31\n      jump\t// in\n    tag_33:\n    tag_32:\n      eq\n        /* \"ProjectSupplyChainItemManager.sol\":748:841  require (items[itemIndex]._state == SupplyChainState.Created, \"Item is further in the chain\") */\n      tag_34\n      jumpi\n      mload(0x40)\n      0x08c379a000000000000000000000000000000000000000000000000000000000\n      dup2\n      mstore\n      0x04\n      add\n      tag_35\n      swap1\n      tag_36\n      jump\t// in\n    tag_35:\n      mload(0x40)\n      dup1\n      swap2\n      sub\n      swap1\n      revert\n    tag_34:\n        /* \"ProjectSupplyChainItemManager.sol\":878:899  SupplyChainState.Paid */\n      0x01\n        /* \"ProjectSupplyChainItemManager.sol\":852:857  items */\n      0x00\n        /* \"ProjectSupplyChainItemManager.sol\":852:868  items[itemIndex] */\n      dup1\n        /* \"ProjectSupplyChainItemManager.sol\":858:867  itemIndex */\n      sload(0x01)\n        /* \"ProjectSupplyChainItemManager.sol\":852:868  items[itemIndex] */\n      dup2\n      mstore\n      0x20\n      add\n      swap1\n      dup2\n      mstore\n      0x20\n      add\n      0x00\n      keccak256\n        /* \"ProjectSupplyChainItemManager.sol\":852:875  items[itemIndex]._state */\n      0x02\n      add\n      0x00\n        /* \"ProjectSupplyChainItemManager.sol\":852:899  items[itemIndex]._state = SupplyChainState.Paid */\n      0x0100\n      exp\n      dup2\n      sload\n      dup2\n      0xff\n      mul\n      not\n      and\n      swap1\n      dup4\n      0x02\n      dup2\n      gt\n      iszero\n      tag_37\n      jumpi\n      tag_38\n      tag_31\n      jump\t// in\n    tag_38:\n    tag_37:\n      mul\n      or\n      swap1\n      sstore\n      pop\n        /* \"ProjectSupplyChainItemManager.sol\":592:913  function triggerPayment (uint _index) public payable {\r... */\n      pop\n      jump\t// out\n        /* \"ProjectSupplyChainItemManager.sol\":312:584  function createItem (string memory _identifier, uint _itemPrice) public {\r... */\n    tag_14:\n        /* \"ProjectSupplyChainItemManager.sol\":426:437  _identifier */\n      dup2\n        /* \"ProjectSupplyChainItemManager.sol\":395:400  items */\n      0x00\n        /* \"ProjectSupplyChainItemManager.sol\":395:411  items[itemIndex] */\n      dup1\n        /* \"ProjectSupplyChainItemManager.sol\":401:410  itemIndex */\n      sload(0x01)\n        /* \"ProjectSupplyChainItemManager.sol\":395:411  items[itemIndex] */\n      dup2\n      mstore\n      0x20\n      add\n      swap1\n      dup2\n      mstore\n      0x20\n      add\n      0x00\n      keccak256\n        /* \"ProjectSupplyChainItemManager.sol\":395:423  items[itemIndex]._identifier */\n      0x00\n      add\n        /* \"ProjectSupplyChainItemManager.sol\":395:437  items[itemIndex]._identifier = _identifier */\n      swap1\n      dup1\n      mload\n      swap1\n      0x20\n      add\n      swap1\n      tag_40\n      swap3\n      swap2\n      swap1\n      tag_41\n      jump\t// in\n    tag_40:\n      pop\n        /* \"ProjectSupplyChainItemManager.sol\":478:488  _itemPrice */\n      dup1\n        /* \"ProjectSupplyChainItemManager.sol\":448:453  items */\n      0x00\n        /* \"ProjectSupplyChainItemManager.sol\":448:464  items[itemIndex] */\n      dup1\n        /* \"ProjectSupplyChainItemManager.sol\":454:463  itemIndex */\n      sload(0x01)\n        /* \"ProjectSupplyChainItemManager.sol\":448:464  items[itemIndex] */\n      dup2\n      mstore\n      0x20\n      add\n      swap1\n      dup2\n      mstore\n      0x20\n      add\n      0x00\n      keccak256\n        /* \"ProjectSupplyChainItemManager.sol\":448:475  items[itemIndex]._itemPrice */\n      0x01\n      add\n        /* \"ProjectSupplyChainItemManager.sol\":448:488  items[itemIndex]._itemPrice = _itemPrice */\n      dup2\n      swap1\n      sstore\n      pop\n        /* \"ProjectSupplyChainItemManager.sol\":525:549  SupplyChainState.Created */\n      0x00\n        /* \"ProjectSupplyChainItemManager.sol\":499:504  items */\n      dup1\n        /* \"ProjectSupplyChainItemManager.sol\":499:515  items[itemIndex] */\n      0x00\n        /* \"ProjectSupplyChainItemManager.sol\":505:514  itemIndex */\n      sload(0x01)\n        /* \"ProjectSupplyChainItemManager.sol\":499:515  items[itemIndex] */\n      dup2\n      mstore\n      0x20\n      add\n      swap1\n      dup2\n      mstore\n      0x20\n      add\n      0x00\n      keccak256\n        /* \"ProjectSupplyChainItemManager.sol\":499:522  items[itemIndex]._state */\n      0x02\n      add\n      0x00\n        /* \"ProjectSupplyChainItemManager.sol\":499:549  items[itemIndex]._state = SupplyChainState.Created */\n      0x0100\n      exp\n      dup2\n      sload\n      dup2\n      0xff\n      mul\n      not\n      and\n      swap1\n      dup4\n      0x02\n      dup2\n      gt\n      iszero\n      tag_42\n      jumpi\n      tag_43\n      tag_31\n      jump\t// in\n    tag_43:\n    tag_42:\n      mul\n      or\n      swap1\n      sstore\n      pop\n        /* \"ProjectSupplyChainItemManager.sol\":560:569  itemIndex */\n      0x01\n      0x00\n        /* \"ProjectSupplyChainItemManager.sol\":560:571  itemIndex++ */\n      dup2\n      sload\n      dup1\n      swap3\n      swap2\n      swap1\n      tag_44\n      swap1\n      tag_45\n      jump\t// in\n    tag_44:\n      swap2\n      swap1\n      pop\n      sstore\n      pop\n        /* \"ProjectSupplyChainItemManager.sol\":312:584  function createItem (string memory _identifier, uint _itemPrice) public {\r... */\n      pop\n      pop\n      jump\t// out\n        /* \"ProjectSupplyChainItemManager.sol\":246:282  mapping(uint => S_Item) public items */\n    tag_18:\n      mstore(0x20, 0x00)\n      dup1\n      0x00\n      mstore\n      keccak256(0x00, 0x40)\n      0x00\n      swap2\n      pop\n      swap1\n      pop\n      dup1\n      0x00\n      add\n      dup1\n      sload\n      tag_46\n      swap1\n      tag_47\n      jump\t// in\n    tag_46:\n      dup1\n      0x1f\n      add\n      0x20\n      dup1\n      swap2\n      div\n      mul\n      0x20\n      add\n      mload(0x40)\n      swap1\n      dup2\n      add\n      0x40\n      mstore\n      dup1\n      swap3\n      swap2\n      swap1\n      dup2\n      dup2\n      mstore\n      0x20\n      add\n      dup3\n      dup1\n      sload\n      tag_48\n      swap1\n      tag_47\n      jump\t// in\n    tag_48:\n      dup1\n      iszero\n      tag_49\n      jumpi\n      dup1\n      0x1f\n      lt\n      tag_50\n      jumpi\n      0x0100\n      dup1\n      dup4\n      sload\n      div\n      mul\n      dup4\n      mstore\n      swap2\n      0x20\n      add\n      swap2\n      jump(tag_49)\n    tag_50:\n      dup3\n      add\n      swap2\n      swap1\n      0x00\n      mstore\n      keccak256(0x00, 0x20)\n      swap1\n    tag_51:\n      dup2\n      sload\n      dup2\n      mstore\n      swap1\n      0x01\n      add\n      swap1\n      0x20\n      add\n      dup1\n      dup4\n      gt\n      tag_51\n      jumpi\n      dup3\n      swap1\n      sub\n      0x1f\n      and\n      dup3\n      add\n      swap2\n    tag_49:\n      pop\n      pop\n      pop\n      pop\n      pop\n      swap1\n      dup1\n      0x01\n      add\n      sload\n      swap1\n      dup1\n      0x02\n      add\n      0x00\n      swap1\n      sload\n      swap1\n      0x0100\n      exp\n      swap1\n      div\n      0xff\n      and\n      swap1\n      pop\n      dup4\n      jump\t// out\n        /* \"ProjectSupplyChainItemManager.sol\":921:1144  function triggerDelivery (uint _index) public {\r... */\n    tag_24:\n        /* \"ProjectSupplyChainItemManager.sol\":1014:1035  SupplyChainState.Paid */\n      0x01\n        /* \"ProjectSupplyChainItemManager.sol\":987:1035  items[itemIndex]._state == SupplyChainState.Paid */\n      0x02\n      dup2\n      gt\n      iszero\n      tag_53\n      jumpi\n      tag_54\n      tag_31\n      jump\t// in\n    tag_54:\n    tag_53:\n        /* \"ProjectSupplyChainItemManager.sol\":987:992  items */\n      0x00\n        /* \"ProjectSupplyChainItemManager.sol\":987:1003  items[itemIndex] */\n      dup1\n        /* \"ProjectSupplyChainItemManager.sol\":993:1002  itemIndex */\n      sload(0x01)\n        /* \"ProjectSupplyChainItemManager.sol\":987:1003  items[itemIndex] */\n      dup2\n      mstore\n      0x20\n      add\n      swap1\n      dup2\n      mstore\n      0x20\n      add\n      0x00\n      keccak256\n        /* \"ProjectSupplyChainItemManager.sol\":987:1010  items[itemIndex]._state */\n      0x02\n      add\n      0x00\n      swap1\n      sload\n      swap1\n      0x0100\n      exp\n      swap1\n      div\n      0xff\n      and\n        /* \"ProjectSupplyChainItemManager.sol\":987:1035  items[itemIndex]._state == SupplyChainState.Paid */\n      0x02\n      dup2\n      gt\n      iszero\n      tag_55\n      jumpi\n      tag_56\n      tag_31\n      jump\t// in\n    tag_56:\n    tag_55:\n      eq\n        /* \"ProjectSupplyChainItemManager.sol\":978:1068  require (items[itemIndex]._state == SupplyChainState.Paid, \"Item is further in the chain\") */\n      tag_57\n      jumpi\n      mload(0x40)\n      0x08c379a000000000000000000000000000000000000000000000000000000000\n      dup2\n      mstore\n      0x04\n      add\n      tag_58\n      swap1\n      tag_36\n      jump\t// in\n    tag_58:\n      mload(0x40)\n      dup1\n      swap2\n      sub\n      swap1\n      revert\n    tag_57:\n        /* \"ProjectSupplyChainItemManager.sol\":1105:1131  SupplyChainState.Delivered */\n      0x02\n        /* \"ProjectSupplyChainItemManager.sol\":1079:1084  items */\n      0x00\n        /* \"ProjectSupplyChainItemManager.sol\":1079:1095  items[itemIndex] */\n      dup1\n        /* \"ProjectSupplyChainItemManager.sol\":1085:1094  itemIndex */\n      sload(0x01)\n        /* \"ProjectSupplyChainItemManager.sol\":1079:1095  items[itemIndex] */\n      dup2\n      mstore\n      0x20\n      add\n      swap1\n      dup2\n      mstore\n      0x20\n      add\n      0x00\n      keccak256\n        /* \"ProjectSupplyChainItemManager.sol\":1079:1102  items[itemIndex]._state */\n      0x02\n      add\n      0x00\n        /* \"ProjectSupplyChainItemManager.sol\":1079:1131  items[itemIndex]._state = SupplyChainState.Delivered */\n      0x0100\n      exp\n      dup2\n      sload\n      dup2\n      0xff\n      mul\n      not\n      and\n      swap1\n      dup4\n      0x02\n      dup2\n      gt\n      iszero\n      tag_59\n      jumpi\n      tag_60\n      tag_31\n      jump\t// in\n    tag_60:\n    tag_59:\n      mul\n      or\n      swap1\n      sstore\n      pop\n        /* \"ProjectSupplyChainItemManager.sol\":921:1144  function triggerDelivery (uint _index) public {\r... */\n      pop\n      jump\t// out\n    tag_41:\n      dup3\n      dup1\n      sload\n      tag_61\n      swap1\n      tag_47\n      jump\t// in\n    tag_61:\n      swap1\n      0x00\n      mstore\n      keccak256(0x00, 0x20)\n      swap1\n      0x1f\n      add\n      0x20\n      swap1\n      div\n      dup2\n      add\n      swap3\n      dup3\n      tag_63\n      jumpi\n      0x00\n      dup6\n      sstore\n      jump(tag_62)\n    tag_63:\n      dup3\n      0x1f\n      lt\n      tag_64\n      jumpi\n      dup1\n      mload\n      not(0xff)\n      and\n      dup4\n      dup1\n      add\n      or\n      dup6\n      sstore\n      jump(tag_62)\n    tag_64:\n      dup3\n      dup1\n      add\n      0x01\n      add\n      dup6\n      sstore\n      dup3\n      iszero\n      tag_62\n      jumpi\n      swap2\n      dup3\n      add\n    tag_65:\n      dup3\n      dup2\n      gt\n      iszero\n      tag_66\n      jumpi\n      dup3\n      mload\n      dup3\n      sstore\n      swap2\n      0x20\n      add\n      swap2\n      swap1\n      0x01\n      add\n      swap1\n      jump(tag_65)\n    tag_66:\n    tag_62:\n      pop\n      swap1\n      pop\n      tag_67\n      swap2\n      swap1\n      tag_68\n      jump\t// in\n    tag_67:\n      pop\n      swap1\n      jump\t// out\n    tag_68:\n    tag_69:\n      dup1\n      dup3\n      gt\n      iszero\n      tag_70\n      jumpi\n      0x00\n      dup2\n      0x00\n      swap1\n      sstore\n      pop\n      0x01\n      add\n      jump(tag_69)\n    tag_70:\n      pop\n      swap1\n      jump\t// out\n        /* \"#utility.yul\":7:419   */\n    tag_72:\n        /* \"#utility.yul\":85:90   */\n      0x00\n        /* \"#utility.yul\":110:176   */\n      tag_74\n        /* \"#utility.yul\":126:175   */\n      tag_75\n        /* \"#utility.yul\":168:174   */\n      dup5\n        /* \"#utility.yul\":126:175   */\n      tag_76\n      jump\t// in\n    tag_75:\n        /* \"#utility.yul\":110:176   */\n      tag_77\n      jump\t// in\n    tag_74:\n        /* \"#utility.yul\":101:176   */\n      swap1\n      pop\n        /* \"#utility.yul\":199:205   */\n      dup3\n        /* \"#utility.yul\":192:197   */\n      dup2\n        /* \"#utility.yul\":185:206   */\n      mstore\n        /* \"#utility.yul\":237:241   */\n      0x20\n        /* \"#utility.yul\":230:235   */\n      dup2\n        /* \"#utility.yul\":226:242   */\n      add\n        /* \"#utility.yul\":275:278   */\n      dup5\n        /* \"#utility.yul\":266:272   */\n      dup5\n        /* \"#utility.yul\":261:264   */\n      dup5\n        /* \"#utility.yul\":257:273   */\n      add\n        /* \"#utility.yul\":254:279   */\n      gt\n        /* \"#utility.yul\":251:363   */\n      iszero\n      tag_78\n      jumpi\n        /* \"#utility.yul\":282:361   */\n      tag_79\n      tag_80\n      jump\t// in\n    tag_79:\n        /* \"#utility.yul\":251:363   */\n    tag_78:\n        /* \"#utility.yul\":372:413   */\n      tag_81\n        /* \"#utility.yul\":406:412   */\n      dup5\n        /* \"#utility.yul\":401:404   */\n      dup3\n        /* \"#utility.yul\":396:399   */\n      dup6\n        /* \"#utility.yul\":372:413   */\n      tag_82\n      jump\t// in\n    tag_81:\n        /* \"#utility.yul\":91:419   */\n      pop\n        /* \"#utility.yul\":7:419   */\n      swap4\n      swap3\n      pop\n      pop\n      pop\n      jump\t// out\n        /* \"#utility.yul\":439:779   */\n    tag_83:\n        /* \"#utility.yul\":495:500   */\n      0x00\n        /* \"#utility.yul\":544:547   */\n      dup3\n        /* \"#utility.yul\":537:541   */\n      0x1f\n        /* \"#utility.yul\":529:535   */\n      dup4\n        /* \"#utility.yul\":525:542   */\n      add\n        /* \"#utility.yul\":521:548   */\n      slt\n        /* \"#utility.yul\":511:633   */\n      tag_85\n      jumpi\n        /* \"#utility.yul\":552:631   */\n      tag_86\n      tag_87\n      jump\t// in\n    tag_86:\n        /* \"#utility.yul\":511:633   */\n    tag_85:\n        /* \"#utility.yul\":669:675   */\n      dup2\n        /* \"#utility.yul\":656:676   */\n      calldataload\n        /* \"#utility.yul\":694:773   */\n      tag_88\n        /* \"#utility.yul\":769:772   */\n      dup5\n        /* \"#utility.yul\":761:767   */\n      dup3\n        /* \"#utility.yul\":754:758   */\n      0x20\n        /* \"#utility.yul\":746:752   */\n      dup7\n        /* \"#utility.yul\":742:759   */\n      add\n        /* \"#utility.yul\":694:773   */\n      tag_72\n      jump\t// in\n    tag_88:\n        /* \"#utility.yul\":685:773   */\n      swap2\n      pop\n        /* \"#utility.yul\":501:779   */\n      pop\n        /* \"#utility.yul\":439:779   */\n      swap3\n      swap2\n      pop\n      pop\n      jump\t// out\n        /* \"#utility.yul\":785:924   */\n    tag_89:\n        /* \"#utility.yul\":831:836   */\n      0x00\n        /* \"#utility.yul\":869:875   */\n      dup2\n        /* \"#utility.yul\":856:876   */\n      calldataload\n        /* \"#utility.yul\":847:876   */\n      swap1\n      pop\n        /* \"#utility.yul\":885:918   */\n      tag_91\n        /* \"#utility.yul\":912:917   */\n      dup2\n        /* \"#utility.yul\":885:918   */\n      tag_92\n      jump\t// in\n    tag_91:\n        /* \"#utility.yul\":785:924   */\n      swap3\n      swap2\n      pop\n      pop\n      jump\t// out\n        /* \"#utility.yul\":930:1584   */\n    tag_13:\n        /* \"#utility.yul\":1008:1014   */\n      0x00\n        /* \"#utility.yul\":1016:1022   */\n      dup1\n        /* \"#utility.yul\":1065:1067   */\n      0x40\n        /* \"#utility.yul\":1053:1062   */\n      dup4\n        /* \"#utility.yul\":1044:1051   */\n      dup6\n        /* \"#utility.yul\":1040:1063   */\n      sub\n        /* \"#utility.yul\":1036:1068   */\n      slt\n        /* \"#utility.yul\":1033:1152   */\n      iszero\n      tag_94\n      jumpi\n        /* \"#utility.yul\":1071:1150   */\n      tag_95\n      tag_96\n      jump\t// in\n    tag_95:\n        /* \"#utility.yul\":1033:1152   */\n    tag_94:\n        /* \"#utility.yul\":1219:1220   */\n      0x00\n        /* \"#utility.yul\":1208:1217   */\n      dup4\n        /* \"#utility.yul\":1204:1221   */\n      add\n        /* \"#utility.yul\":1191:1222   */\n      calldataload\n        /* \"#utility.yul\":1249:1267   */\n      0xffffffffffffffff\n        /* \"#utility.yul\":1241:1247   */\n      dup2\n        /* \"#utility.yul\":1238:1268   */\n      gt\n        /* \"#utility.yul\":1235:1352   */\n      iszero\n      tag_97\n      jumpi\n        /* \"#utility.yul\":1271:1350   */\n      tag_98\n      tag_99\n      jump\t// in\n    tag_98:\n        /* \"#utility.yul\":1235:1352   */\n    tag_97:\n        /* \"#utility.yul\":1376:1439   */\n      tag_100\n        /* \"#utility.yul\":1431:1438   */\n      dup6\n        /* \"#utility.yul\":1422:1428   */\n      dup3\n        /* \"#utility.yul\":1411:1420   */\n      dup7\n        /* \"#utility.yul\":1407:1429   */\n      add\n        /* \"#utility.yul\":1376:1439   */\n      tag_83\n      jump\t// in\n    tag_100:\n        /* \"#utility.yul\":1366:1439   */\n      swap3\n      pop\n        /* \"#utility.yul\":1162:1449   */\n      pop\n        /* \"#utility.yul\":1488:1490   */\n      0x20\n        /* \"#utility.yul\":1514:1567   */\n      tag_101\n        /* \"#utility.yul\":1559:1566   */\n      dup6\n        /* \"#utility.yul\":1550:1556   */\n      dup3\n        /* \"#utility.yul\":1539:1548   */\n      dup7\n        /* \"#utility.yul\":1535:1557   */\n      add\n        /* \"#utility.yul\":1514:1567   */\n      tag_89\n      jump\t// in\n    tag_101:\n        /* \"#utility.yul\":1504:1567   */\n      swap2\n      pop\n        /* \"#utility.yul\":1459:1577   */\n      pop\n        /* \"#utility.yul\":930:1584   */\n      swap3\n      pop\n      swap3\n      swap1\n      pop\n      jump\t// out\n        /* \"#utility.yul\":1590:1919   */\n    tag_8:\n        /* \"#utility.yul\":1649:1655   */\n      0x00\n        /* \"#utility.yul\":1698:1700   */\n      0x20\n        /* \"#utility.yul\":1686:1695   */\n      dup3\n        /* \"#utility.yul\":1677:1684   */\n      dup5\n        /* \"#utility.yul\":1673:1696   */\n      sub\n        /* \"#utility.yul\":1669:1701   */\n      slt\n        /* \"#utility.yul\":1666:1785   */\n      iszero\n      tag_103\n      jumpi\n        /* \"#utility.yul\":1704:1783   */\n      tag_104\n      tag_96\n      jump\t// in\n    tag_104:\n        /* \"#utility.yul\":1666:1785   */\n    tag_103:\n        /* \"#utility.yul\":1824:1825   */\n      0x00\n        /* \"#utility.yul\":1849:1902   */\n      tag_105\n        /* \"#utility.yul\":1894:1901   */\n      dup5\n        /* \"#utility.yul\":1885:1891   */\n      dup3\n        /* \"#utility.yul\":1874:1883   */\n      dup6\n        /* \"#utility.yul\":1870:1892   */\n      add\n        /* \"#utility.yul\":1849:1902   */\n      tag_89\n      jump\t// in\n    tag_105:\n        /* \"#utility.yul\":1839:1902   */\n      swap2\n      pop\n        /* \"#utility.yul\":1795:1912   */\n      pop\n        /* \"#utility.yul\":1590:1919   */\n      swap3\n      swap2\n      pop\n      pop\n      jump\t// out\n        /* \"#utility.yul\":1925:2088   */\n    tag_106:\n        /* \"#utility.yul\":2028:2081   */\n      tag_108\n        /* \"#utility.yul\":2075:2080   */\n      dup2\n        /* \"#utility.yul\":2028:2081   */\n      tag_109\n      jump\t// in\n    tag_108:\n        /* \"#utility.yul\":2023:2026   */\n      dup3\n        /* \"#utility.yul\":2016:2082   */\n      mstore\n        /* \"#utility.yul\":1925:2088   */\n      pop\n      pop\n      jump\t// out\n        /* \"#utility.yul\":2094:2458   */\n    tag_110:\n        /* \"#utility.yul\":2182:2185   */\n      0x00\n        /* \"#utility.yul\":2210:2249   */\n      tag_112\n        /* \"#utility.yul\":2243:2248   */\n      dup3\n        /* \"#utility.yul\":2210:2249   */\n      tag_113\n      jump\t// in\n    tag_112:\n        /* \"#utility.yul\":2265:2336   */\n      tag_114\n        /* \"#utility.yul\":2329:2335   */\n      dup2\n        /* \"#utility.yul\":2324:2327   */\n      dup6\n        /* \"#utility.yul\":2265:2336   */\n      tag_115\n      jump\t// in\n    tag_114:\n        /* \"#utility.yul\":2258:2336   */\n      swap4\n      pop\n        /* \"#utility.yul\":2345:2397   */\n      tag_116\n        /* \"#utility.yul\":2390:2396   */\n      dup2\n        /* \"#utility.yul\":2385:2388   */\n      dup6\n        /* \"#utility.yul\":2378:2382   */\n      0x20\n        /* \"#utility.yul\":2371:2376   */\n      dup7\n        /* \"#utility.yul\":2367:2383   */\n      add\n        /* \"#utility.yul\":2345:2397   */\n      tag_117\n      jump\t// in\n    tag_116:\n        /* \"#utility.yul\":2422:2451   */\n      tag_118\n        /* \"#utility.yul\":2444:2450   */\n      dup2\n        /* \"#utility.yul\":2422:2451   */\n      tag_119\n      jump\t// in\n    tag_118:\n        /* \"#utility.yul\":2417:2420   */\n      dup5\n        /* \"#utility.yul\":2413:2452   */\n      add\n        /* \"#utility.yul\":2406:2452   */\n      swap2\n      pop\n        /* \"#utility.yul\":2186:2458   */\n      pop\n        /* \"#utility.yul\":2094:2458   */\n      swap3\n      swap2\n      pop\n      pop\n      jump\t// out\n        /* \"#utility.yul\":2464:2830   */\n    tag_120:\n        /* \"#utility.yul\":2606:2609   */\n      0x00\n        /* \"#utility.yul\":2627:2694   */\n      tag_122\n        /* \"#utility.yul\":2691:2693   */\n      0x1c\n        /* \"#utility.yul\":2686:2689   */\n      dup4\n        /* \"#utility.yul\":2627:2694   */\n      tag_115\n      jump\t// in\n    tag_122:\n        /* \"#utility.yul\":2620:2694   */\n      swap2\n      pop\n        /* \"#utility.yul\":2703:2796   */\n      tag_123\n        /* \"#utility.yul\":2792:2795   */\n      dup3\n        /* \"#utility.yul\":2703:2796   */\n      tag_124\n      jump\t// in\n    tag_123:\n        /* \"#utility.yul\":2821:2823   */\n      0x20\n        /* \"#utility.yul\":2816:2819   */\n      dup3\n        /* \"#utility.yul\":2812:2824   */\n      add\n        /* \"#utility.yul\":2805:2824   */\n      swap1\n      pop\n        /* \"#utility.yul\":2464:2830   */\n      swap2\n      swap1\n      pop\n      jump\t// out\n        /* \"#utility.yul\":2836:3202   */\n    tag_125:\n        /* \"#utility.yul\":2978:2981   */\n      0x00\n        /* \"#utility.yul\":2999:3066   */\n      tag_127\n        /* \"#utility.yul\":3063:3065   */\n      0x1b\n        /* \"#utility.yul\":3058:3061   */\n      dup4\n        /* \"#utility.yul\":2999:3066   */\n      tag_115\n      jump\t// in\n    tag_127:\n        /* \"#utility.yul\":2992:3066   */\n      swap2\n      pop\n        /* \"#utility.yul\":3075:3168   */\n      tag_128\n        /* \"#utility.yul\":3164:3167   */\n      dup3\n        /* \"#utility.yul\":3075:3168   */\n      tag_129\n      jump\t// in\n    tag_128:\n        /* \"#utility.yul\":3193:3195   */\n      0x20\n        /* \"#utility.yul\":3188:3191   */\n      dup3\n        /* \"#utility.yul\":3184:3196   */\n      add\n        /* \"#utility.yul\":3177:3196   */\n      swap1\n      pop\n        /* \"#utility.yul\":2836:3202   */\n      swap2\n      swap1\n      pop\n      jump\t// out\n        /* \"#utility.yul\":3208:3326   */\n    tag_130:\n        /* \"#utility.yul\":3295:3319   */\n      tag_132\n        /* \"#utility.yul\":3313:3318   */\n      dup2\n        /* \"#utility.yul\":3295:3319   */\n      tag_133\n      jump\t// in\n    tag_132:\n        /* \"#utility.yul\":3290:3293   */\n      dup3\n        /* \"#utility.yul\":3283:3320   */\n      mstore\n        /* \"#utility.yul\":3208:3326   */\n      pop\n      pop\n      jump\t// out\n        /* \"#utility.yul\":3332:3897   */\n    tag_20:\n        /* \"#utility.yul\":3517:3521   */\n      0x00\n        /* \"#utility.yul\":3555:3557   */\n      0x60\n        /* \"#utility.yul\":3544:3553   */\n      dup3\n        /* \"#utility.yul\":3540:3558   */\n      add\n        /* \"#utility.yul\":3532:3558   */\n      swap1\n      pop\n        /* \"#utility.yul\":3604:3613   */\n      dup2\n        /* \"#utility.yul\":3598:3602   */\n      dup2\n        /* \"#utility.yul\":3594:3614   */\n      sub\n        /* \"#utility.yul\":3590:3591   */\n      0x00\n        /* \"#utility.yul\":3579:3588   */\n      dup4\n        /* \"#utility.yul\":3575:3592   */\n      add\n        /* \"#utility.yul\":3568:3615   */\n      mstore\n        /* \"#utility.yul\":3632:3710   */\n      tag_135\n        /* \"#utility.yul\":3705:3709   */\n      dup2\n        /* \"#utility.yul\":3696:3702   */\n      dup7\n        /* \"#utility.yul\":3632:3710   */\n      tag_110\n      jump\t// in\n    tag_135:\n        /* \"#utility.yul\":3624:3710   */\n      swap1\n      pop\n        /* \"#utility.yul\":3720:3792   */\n      tag_136\n        /* \"#utility.yul\":3788:3790   */\n      0x20\n        /* \"#utility.yul\":3777:3786   */\n      dup4\n        /* \"#utility.yul\":3773:3791   */\n      add\n        /* \"#utility.yul\":3764:3770   */\n      dup6\n        /* \"#utility.yul\":3720:3792   */\n      tag_130\n      jump\t// in\n    tag_136:\n        /* \"#utility.yul\":3802:3890   */\n      tag_137\n        /* \"#utility.yul\":3886:3888   */\n      0x40\n        /* \"#utility.yul\":3875:3884   */\n      dup4\n        /* \"#utility.yul\":3871:3889   */\n      add\n        /* \"#utility.yul\":3862:3868   */\n      dup5\n        /* \"#utility.yul\":3802:3890   */\n      tag_106\n      jump\t// in\n    tag_137:\n        /* \"#utility.yul\":3332:3897   */\n      swap5\n      swap4\n      pop\n      pop\n      pop\n      pop\n      jump\t// out\n        /* \"#utility.yul\":3903:4322   */\n    tag_36:\n        /* \"#utility.yul\":4069:4073   */\n      0x00\n        /* \"#utility.yul\":4107:4109   */\n      0x20\n        /* \"#utility.yul\":4096:4105   */\n      dup3\n        /* \"#utility.yul\":4092:4110   */\n      add\n        /* \"#utility.yul\":4084:4110   */\n      swap1\n      pop\n        /* \"#utility.yul\":4156:4165   */\n      dup2\n        /* \"#utility.yul\":4150:4154   */\n      dup2\n        /* \"#utility.yul\":4146:4166   */\n      sub\n        /* \"#utility.yul\":4142:4143   */\n      0x00\n        /* \"#utility.yul\":4131:4140   */\n      dup4\n        /* \"#utility.yul\":4127:4144   */\n      add\n        /* \"#utility.yul\":4120:4167   */\n      mstore\n        /* \"#utility.yul\":4184:4315   */\n      tag_139\n        /* \"#utility.yul\":4310:4314   */\n      dup2\n        /* \"#utility.yul\":4184:4315   */\n      tag_120\n      jump\t// in\n    tag_139:\n        /* \"#utility.yul\":4176:4315   */\n      swap1\n      pop\n        /* \"#utility.yul\":3903:4322   */\n      swap2\n      swap1\n      pop\n      jump\t// out\n        /* \"#utility.yul\":4328:4747   */\n    tag_28:\n        /* \"#utility.yul\":4494:4498   */\n      0x00\n        /* \"#utility.yul\":4532:4534   */\n      0x20\n        /* \"#utility.yul\":4521:4530   */\n      dup3\n        /* \"#utility.yul\":4517:4535   */\n      add\n        /* \"#utility.yul\":4509:4535   */\n      swap1\n      pop\n        /* \"#utility.yul\":4581:4590   */\n      dup2\n        /* \"#utility.yul\":4575:4579   */\n      dup2\n        /* \"#utility.yul\":4571:4591   */\n      sub\n        /* \"#utility.yul\":4567:4568   */\n      0x00\n        /* \"#utility.yul\":4556:4565   */\n      dup4\n        /* \"#utility.yul\":4552:4569   */\n      add\n        /* \"#utility.yul\":4545:4592   */\n      mstore\n        /* \"#utility.yul\":4609:4740   */\n      tag_141\n        /* \"#utility.yul\":4735:4739   */\n      dup2\n        /* \"#utility.yul\":4609:4740   */\n      tag_125\n      jump\t// in\n    tag_141:\n        /* \"#utility.yul\":4601:4740   */\n      swap1\n      pop\n        /* \"#utility.yul\":4328:4747   */\n      swap2\n      swap1\n      pop\n      jump\t// out\n        /* \"#utility.yul\":4753:4882   */\n    tag_77:\n        /* \"#utility.yul\":4787:4793   */\n      0x00\n        /* \"#utility.yul\":4814:4834   */\n      tag_143\n      tag_144\n      jump\t// in\n    tag_143:\n        /* \"#utility.yul\":4804:4834   */\n      swap1\n      pop\n        /* \"#utility.yul\":4843:4876   */\n      tag_145\n        /* \"#utility.yul\":4871:4875   */\n      dup3\n        /* \"#utility.yul\":4863:4869   */\n      dup3\n        /* \"#utility.yul\":4843:4876   */\n      tag_146\n      jump\t// in\n    tag_145:\n        /* \"#utility.yul\":4753:4882   */\n      swap2\n      swap1\n      pop\n      jump\t// out\n        /* \"#utility.yul\":4888:4963   */\n    tag_144:\n        /* \"#utility.yul\":4921:4927   */\n      0x00\n        /* \"#utility.yul\":4954:4956   */\n      0x40\n        /* \"#utility.yul\":4948:4957   */\n      mload\n        /* \"#utility.yul\":4938:4957   */\n      swap1\n      pop\n        /* \"#utility.yul\":4888:4963   */\n      swap1\n      jump\t// out\n        /* \"#utility.yul\":4969:5277   */\n    tag_76:\n        /* \"#utility.yul\":5031:5035   */\n      0x00\n        /* \"#utility.yul\":5121:5139   */\n      0xffffffffffffffff\n        /* \"#utility.yul\":5113:5119   */\n      dup3\n        /* \"#utility.yul\":5110:5140   */\n      gt\n        /* \"#utility.yul\":5107:5163   */\n      iszero\n      tag_149\n      jumpi\n        /* \"#utility.yul\":5143:5161   */\n      tag_150\n      tag_151\n      jump\t// in\n    tag_150:\n        /* \"#utility.yul\":5107:5163   */\n    tag_149:\n        /* \"#utility.yul\":5181:5210   */\n      tag_152\n        /* \"#utility.yul\":5203:5209   */\n      dup3\n        /* \"#utility.yul\":5181:5210   */\n      tag_119\n      jump\t// in\n    tag_152:\n        /* \"#utility.yul\":5173:5210   */\n      swap1\n      pop\n        /* \"#utility.yul\":5265:5269   */\n      0x20\n        /* \"#utility.yul\":5259:5263   */\n      dup2\n        /* \"#utility.yul\":5255:5270   */\n      add\n        /* \"#utility.yul\":5247:5270   */\n      swap1\n      pop\n        /* \"#utility.yul\":4969:5277   */\n      swap2\n      swap1\n      pop\n      jump\t// out\n        /* \"#utility.yul\":5283:5382   */\n    tag_113:\n        /* \"#utility.yul\":5335:5341   */\n      0x00\n        /* \"#utility.yul\":5369:5374   */\n      dup2\n        /* \"#utility.yul\":5363:5375   */\n      mload\n        /* \"#utility.yul\":5353:5375   */\n      swap1\n      pop\n        /* \"#utility.yul\":5283:5382   */\n      swap2\n      swap1\n      pop\n      jump\t// out\n        /* \"#utility.yul\":5388:5557   */\n    tag_115:\n        /* \"#utility.yul\":5472:5483   */\n      0x00\n        /* \"#utility.yul\":5506:5512   */\n      dup3\n        /* \"#utility.yul\":5501:5504   */\n      dup3\n        /* \"#utility.yul\":5494:5513   */\n      mstore\n        /* \"#utility.yul\":5546:5550   */\n      0x20\n        /* \"#utility.yul\":5541:5544   */\n      dup3\n        /* \"#utility.yul\":5537:5551   */\n      add\n        /* \"#utility.yul\":5522:5551   */\n      swap1\n      pop\n        /* \"#utility.yul\":5388:5557   */\n      swap3\n      swap2\n      pop\n      pop\n      jump\t// out\n        /* \"#utility.yul\":5563:5710   */\n    tag_155:\n        /* \"#utility.yul\":5618:5625   */\n      0x00\n        /* \"#utility.yul\":5647:5652   */\n      dup2\n        /* \"#utility.yul\":5636:5652   */\n      swap1\n      pop\n        /* \"#utility.yul\":5653:5704   */\n      tag_157\n        /* \"#utility.yul\":5698:5703   */\n      dup3\n        /* \"#utility.yul\":5653:5704   */\n      tag_158\n      jump\t// in\n    tag_157:\n        /* \"#utility.yul\":5563:5710   */\n      swap2\n      swap1\n      pop\n      jump\t// out\n        /* \"#utility.yul\":5716:5793   */\n    tag_133:\n        /* \"#utility.yul\":5753:5760   */\n      0x00\n        /* \"#utility.yul\":5782:5787   */\n      dup2\n        /* \"#utility.yul\":5771:5787   */\n      swap1\n      pop\n        /* \"#utility.yul\":5716:5793   */\n      swap2\n      swap1\n      pop\n      jump\t// out\n        /* \"#utility.yul\":5799:5946   */\n    tag_109:\n        /* \"#utility.yul\":5865:5874   */\n      0x00\n        /* \"#utility.yul\":5898:5940   */\n      tag_161\n        /* \"#utility.yul\":5934:5939   */\n      dup3\n        /* \"#utility.yul\":5898:5940   */\n      tag_155\n      jump\t// in\n    tag_161:\n        /* \"#utility.yul\":5885:5940   */\n      swap1\n      pop\n        /* \"#utility.yul\":5799:5946   */\n      swap2\n      swap1\n      pop\n      jump\t// out\n        /* \"#utility.yul\":5952:6106   */\n    tag_82:\n        /* \"#utility.yul\":6036:6042   */\n      dup3\n        /* \"#utility.yul\":6031:6034   */\n      dup2\n        /* \"#utility.yul\":6026:6029   */\n      dup4\n        /* \"#utility.yul\":6013:6043   */\n      calldatacopy\n        /* \"#utility.yul\":6098:6099   */\n      0x00\n        /* \"#utility.yul\":6089:6095   */\n      dup4\n        /* \"#utility.yul\":6084:6087   */\n      dup4\n        /* \"#utility.yul\":6080:6096   */\n      add\n        /* \"#utility.yul\":6073:6100   */\n      mstore\n        /* \"#utility.yul\":5952:6106   */\n      pop\n      pop\n      pop\n      jump\t// out\n        /* \"#utility.yul\":6112:6419   */\n    tag_117:\n        /* \"#utility.yul\":6180:6181   */\n      0x00\n        /* \"#utility.yul\":6190:6303   */\n    tag_164:\n        /* \"#utility.yul\":6204:6210   */\n      dup4\n        /* \"#utility.yul\":6201:6202   */\n      dup2\n        /* \"#utility.yul\":6198:6211   */\n      lt\n        /* \"#utility.yul\":6190:6303   */\n      iszero\n      tag_166\n      jumpi\n        /* \"#utility.yul\":6289:6290   */\n      dup1\n        /* \"#utility.yul\":6284:6287   */\n      dup3\n        /* \"#utility.yul\":6280:6291   */\n      add\n        /* \"#utility.yul\":6274:6292   */\n      mload\n        /* \"#utility.yul\":6270:6271   */\n      dup2\n        /* \"#utility.yul\":6265:6268   */\n      dup5\n        /* \"#utility.yul\":6261:6272   */\n      add\n        /* \"#utility.yul\":6254:6293   */\n      mstore\n        /* \"#utility.yul\":6226:6228   */\n      0x20\n        /* \"#utility.yul\":6223:6224   */\n      dup2\n        /* \"#utility.yul\":6219:6229   */\n      add\n        /* \"#utility.yul\":6214:6229   */\n      swap1\n      pop\n        /* \"#utility.yul\":6190:6303   */\n      jump(tag_164)\n    tag_166:\n        /* \"#utility.yul\":6321:6327   */\n      dup4\n        /* \"#utility.yul\":6318:6319   */\n      dup2\n        /* \"#utility.yul\":6315:6328   */\n      gt\n        /* \"#utility.yul\":6312:6413   */\n      iszero\n      tag_167\n      jumpi\n        /* \"#utility.yul\":6401:6402   */\n      0x00\n        /* \"#utility.yul\":6392:6398   */\n      dup5\n        /* \"#utility.yul\":6387:6390   */\n      dup5\n        /* \"#utility.yul\":6383:6399   */\n      add\n        /* \"#utility.yul\":6376:6403   */\n      mstore\n        /* \"#utility.yul\":6312:6413   */\n    tag_167:\n        /* \"#utility.yul\":6161:6419   */\n      pop\n        /* \"#utility.yul\":6112:6419   */\n      pop\n      pop\n      pop\n      jump\t// out\n        /* \"#utility.yul\":6425:6745   */\n    tag_47:\n        /* \"#utility.yul\":6469:6475   */\n      0x00\n        /* \"#utility.yul\":6506:6507   */\n      0x02\n        /* \"#utility.yul\":6500:6504   */\n      dup3\n        /* \"#utility.yul\":6496:6508   */\n      div\n        /* \"#utility.yul\":6486:6508   */\n      swap1\n      pop\n        /* \"#utility.yul\":6553:6554   */\n      0x01\n        /* \"#utility.yul\":6547:6551   */\n      dup3\n        /* \"#utility.yul\":6543:6555   */\n      and\n        /* \"#utility.yul\":6574:6592   */\n      dup1\n        /* \"#utility.yul\":6564:6645   */\n      tag_169\n      jumpi\n        /* \"#utility.yul\":6630:6634   */\n      0x7f\n        /* \"#utility.yul\":6622:6628   */\n      dup3\n        /* \"#utility.yul\":6618:6635   */\n      and\n        /* \"#utility.yul\":6608:6635   */\n      swap2\n      pop\n        /* \"#utility.yul\":6564:6645   */\n    tag_169:\n        /* \"#utility.yul\":6692:6694   */\n      0x20\n        /* \"#utility.yul\":6684:6690   */\n      dup3\n        /* \"#utility.yul\":6681:6695   */\n      lt\n        /* \"#utility.yul\":6661:6679   */\n      dup2\n        /* \"#utility.yul\":6658:6696   */\n      eq\n        /* \"#utility.yul\":6655:6739   */\n      iszero\n      tag_170\n      jumpi\n        /* \"#utility.yul\":6711:6729   */\n      tag_171\n      tag_172\n      jump\t// in\n    tag_171:\n        /* \"#utility.yul\":6655:6739   */\n    tag_170:\n        /* \"#utility.yul\":6476:6745   */\n      pop\n        /* \"#utility.yul\":6425:6745   */\n      swap2\n      swap1\n      pop\n      jump\t// out\n        /* \"#utility.yul\":6751:7032   */\n    tag_146:\n        /* \"#utility.yul\":6834:6861   */\n      tag_174\n        /* \"#utility.yul\":6856:6860   */\n      dup3\n        /* \"#utility.yul\":6834:6861   */\n      tag_119\n      jump\t// in\n    tag_174:\n        /* \"#utility.yul\":6826:6832   */\n      dup2\n        /* \"#utility.yul\":6822:6862   */\n      add\n        /* \"#utility.yul\":6964:6970   */\n      dup2\n        /* \"#utility.yul\":6952:6962   */\n      dup2\n        /* \"#utility.yul\":6949:6971   */\n      lt\n        /* \"#utility.yul\":6928:6946   */\n      0xffffffffffffffff\n        /* \"#utility.yul\":6916:6926   */\n      dup3\n        /* \"#utility.yul\":6913:6947   */\n      gt\n        /* \"#utility.yul\":6910:6972   */\n      or\n        /* \"#utility.yul\":6907:6995   */\n      iszero\n      tag_175\n      jumpi\n        /* \"#utility.yul\":6975:6993   */\n      tag_176\n      tag_151\n      jump\t// in\n    tag_176:\n        /* \"#utility.yul\":6907:6995   */\n    tag_175:\n        /* \"#utility.yul\":7015:7025   */\n      dup1\n        /* \"#utility.yul\":7011:7013   */\n      0x40\n        /* \"#utility.yul\":7004:7026   */\n      mstore\n        /* \"#utility.yul\":6794:7032   */\n      pop\n        /* \"#utility.yul\":6751:7032   */\n      pop\n      pop\n      jump\t// out\n        /* \"#utility.yul\":7038:7271   */\n    tag_45:\n        /* \"#utility.yul\":7077:7080   */\n      0x00\n        /* \"#utility.yul\":7100:7124   */\n      tag_178\n        /* \"#utility.yul\":7118:7123   */\n      dup3\n        /* \"#utility.yul\":7100:7124   */\n      tag_133\n      jump\t// in\n    tag_178:\n        /* \"#utility.yul\":7091:7124   */\n      swap2\n      pop\n        /* \"#utility.yul\":7146:7212   */\n      0xffffffffffffffffffffffffffffffffffffffffffffffffffffffffffffffff\n        /* \"#utility.yul\":7139:7144   */\n      dup3\n        /* \"#utility.yul\":7136:7213   */\n      eq\n        /* \"#utility.yul\":7133:7236   */\n      iszero\n      tag_179\n      jumpi\n        /* \"#utility.yul\":7216:7234   */\n      tag_180\n      tag_181\n      jump\t// in\n    tag_180:\n        /* \"#utility.yul\":7133:7236   */\n    tag_179:\n        /* \"#utility.yul\":7263:7264   */\n      0x01\n        /* \"#utility.yul\":7256:7261   */\n      dup3\n        /* \"#utility.yul\":7252:7265   */\n      add\n        /* \"#utility.yul\":7245:7265   */\n      swap1\n      pop\n        /* \"#utility.yul\":7038:7271   */\n      swap2\n      swap1\n      pop\n      jump\t// out\n        /* \"#utility.yul\":7277:7457   */\n    tag_181:\n        /* \"#utility.yul\":7325:7402   */\n      0x4e487b7100000000000000000000000000000000000000000000000000000000\n        /* \"#utility.yul\":7322:7323   */\n      0x00\n        /* \"#utility.yul\":7315:7403   */\n      mstore\n        /* \"#utility.yul\":7422:7426   */\n      0x11\n        /* \"#utility.yul\":7419:7420   */\n      0x04\n        /* \"#utility.yul\":7412:7427   */\n      mstore\n        /* \"#utility.yul\":7446:7450   */\n      0x24\n        /* \"#utility.yul\":7443:7444   */\n      0x00\n        /* \"#utility.yul\":7436:7451   */\n      revert\n        /* \"#utility.yul\":7463:7643   */\n    tag_31:\n        /* \"#utility.yul\":7511:7588   */\n      0x4e487b7100000000000000000000000000000000000000000000000000000000\n        /* \"#utility.yul\":7508:7509   */\n      0x00\n        /* \"#utility.yul\":7501:7589   */\n      mstore\n        /* \"#utility.yul\":7608:7612   */\n      0x21\n        /* \"#utility.yul\":7605:7606   */\n      0x04\n        /* \"#utility.yul\":7598:7613   */\n      mstore\n        /* \"#utility.yul\":7632:7636   */\n      0x24\n        /* \"#utility.yul\":7629:7630   */\n      0x00\n        /* \"#utility.yul\":7622:7637   */\n      revert\n        /* \"#utility.yul\":7649:7829   */\n    tag_172:\n        /* \"#utility.yul\":7697:7774   */\n      0x4e487b7100000000000000000000000000000000000000000000000000000000\n        /* \"#utility.yul\":7694:7695   */\n      0x00\n        /* \"#utility.yul\":7687:7775   */\n      mstore\n        /* \"#utility.yul\":7794:7798   */\n      0x22\n        /* \"#utility.yul\":7791:7792   */\n      0x04\n        /* \"#utility.yul\":7784:7799   */\n      mstore\n        /* \"#utility.yul\":7818:7822   */\n      0x24\n        /* \"#utility.yul\":7815:7816   */\n      0x00\n        /* \"#utility.yul\":7808:7823   */\n      revert\n        /* \"#utility.yul\":7835:8015   */\n    tag_151:\n        /* \"#utility.yul\":7883:7960   */\n      0x4e487b7100000000000000000000000000000000000000000000000000000000\n        /* \"#utility.yul\":7880:7881   */\n      0x00\n        /* \"#utility.yul\":7873:7961   */\n      mstore\n        /* \"#utility.yul\":7980:7984   */\n      0x41\n        /* \"#utility.yul\":7977:7978   */\n      0x04\n        /* \"#utility.yul\":7970:7985   */\n      mstore\n        /* \"#utility.yul\":8004:8008   */\n      0x24\n        /* \"#utility.yul\":8001:8002   */\n      0x00\n        /* \"#utility.yul\":7994:8009   */\n      revert\n        /* \"#utility.yul\":8021:8138   */\n    tag_87:\n        /* \"#utility.yul\":8130:8131   */\n      0x00\n        /* \"#utility.yul\":8127:8128   */\n      dup1\n        /* \"#utility.yul\":8120:8132   */\n      revert\n        /* \"#utility.yul\":8144:8261   */\n    tag_80:\n        /* \"#utility.yul\":8253:8254   */\n      0x00\n        /* \"#utility.yul\":8250:8251   */\n      dup1\n        /* \"#utility.yul\":8243:8255   */\n      revert\n        /* \"#utility.yul\":8267:8384   */\n    tag_99:\n        /* \"#utility.yul\":8376:8377   */\n      0x00\n        /* \"#utility.yul\":8373:8374   */\n      dup1\n        /* \"#utility.yul\":8366:8378   */\n      revert\n        /* \"#utility.yul\":8390:8507   */\n    tag_96:\n        /* \"#utility.yul\":8499:8500   */\n      0x00\n        /* \"#utility.yul\":8496:8497   */\n      dup1\n        /* \"#utility.yul\":8489:8501   */\n      revert\n        /* \"#utility.yul\":8513:8615   */\n    tag_119:\n        /* \"#utility.yul\":8554:8560   */\n      0x00\n        /* \"#utility.yul\":8605:8607   */\n      0x1f\n        /* \"#utility.yul\":8601:8608   */\n      not\n        /* \"#utility.yul\":8596:8598   */\n      0x1f\n        /* \"#utility.yul\":8589:8594   */\n      dup4\n        /* \"#utility.yul\":8585:8599   */\n      add\n        /* \"#utility.yul\":8581:8609   */\n      and\n        /* \"#utility.yul\":8571:8609   */\n      swap1\n      pop\n        /* \"#utility.yul\":8513:8615   */\n      swap2\n      swap1\n      pop\n      jump\t// out\n        /* \"#utility.yul\":8621:8799   */\n    tag_124:\n        /* \"#utility.yul\":8761:8791   */\n      0x4974656d206973206675727468657220696e2074686520636861696e00000000\n        /* \"#utility.yul\":8757:8758   */\n      0x00\n        /* \"#utility.yul\":8749:8755   */\n      dup3\n        /* \"#utility.yul\":8745:8759   */\n      add\n        /* \"#utility.yul\":8738:8792   */\n      mstore\n        /* \"#utility.yul\":8621:8799   */\n      pop\n      jump\t// out\n        /* \"#utility.yul\":8805:8982   */\n    tag_129:\n        /* \"#utility.yul\":8945:8974   */\n      0x4f6e6c792066756c6c207061796d656e74732061636365707465640000000000\n        /* \"#utility.yul\":8941:8942   */\n      0x00\n        /* \"#utility.yul\":8933:8939   */\n      dup3\n        /* \"#utility.yul\":8929:8943   */\n      add\n        /* \"#utility.yul\":8922:8975   */\n      mstore\n        /* \"#utility.yul\":8805:8982   */\n      pop\n      jump\t// out\n        /* \"#utility.yul\":8988:9111   */\n    tag_158:\n        /* \"#utility.yul\":9079:9080   */\n      0x03\n        /* \"#utility.yul\":9072:9077   */\n      dup2\n        /* \"#utility.yul\":9069:9081   */\n      lt\n        /* \"#utility.yul\":9059:9105   */\n      tag_194\n      jumpi\n        /* \"#utility.yul\":9085:9103   */\n      tag_195\n      tag_31\n      jump\t// in\n    tag_195:\n        /* \"#utility.yul\":9059:9105   */\n    tag_194:\n        /* \"#utility.yul\":8988:9111   */\n      pop\n      jump\t// out\n        /* \"#utility.yul\":9117:9239   */\n    tag_92:\n        /* \"#utility.yul\":9190:9214   */\n      tag_197\n        /* \"#utility.yul\":9208:9213   */\n      dup2\n        /* \"#utility.yul\":9190:9214   */\n      tag_133\n      jump\t// in\n    tag_197:\n        /* \"#utility.yul\":9183:9188   */\n      dup2\n        /* \"#utility.yul\":9180:9215   */\n      eq\n        /* \"#utility.yul\":9170:9233   */\n      tag_198\n      jumpi\n        /* \"#utility.yul\":9229:9230   */\n      0x00\n        /* \"#utility.yul\":9226:9227   */\n      dup1\n        /* \"#utility.yul\":9219:9231   */\n      revert\n        /* \"#utility.yul\":9170:9233   */\n    tag_198:\n        /* \"#utility.yul\":9117:9239   */\n      pop\n      jump\t// out\n\n    auxdata: 0xa26469706673582212205082d45ddf9516442d67dee01f022a6e549efe30b33c84b4f41eb76521a893b664736f6c63430008070033\n}\n",
				"bytecode": {
					"linkReferences": {},
					"object": "608060405234801561001057600080fd5b50610a38806100206000396000f3fe60806040526004361061003f5760003560e01c8063800fb83f146100445780638c55174214610060578063bfb231d214610089578063cd31831e146100c8575b600080fd5b61005e600480360381019061005991906105cd565b6100f1565b005b34801561006c57600080fd5b5061008760048036038101906100829190610571565b610218565b005b34801561009557600080fd5b506100b060048036038101906100ab91906105cd565b6102bc565b6040516100bf93929190610697565b60405180910390f35b3480156100d457600080fd5b506100ef60048036038101906100ea91906105cd565b61037b565b005b346000806001548152602001908152602001600020600101541461014a576040517f08c379a0000000000000000000000000000000000000000000000000000000008152600401610141906106f5565b60405180910390fd5b6000600281111561015e5761015d6108d3565b5b600080600154815260200190815260200160002060020160009054906101000a900460ff166002811115610195576101946108d3565b5b146101d5576040517f08c379a00000000000000000000000000000000000000000000000000000000081526004016101cc906106d5565b60405180910390fd5b6001600080600154815260200190815260200160002060020160006101000a81548160ff021916908360028111156102105761020f6108d3565b5b021790555050565b8160008060015481526020019081526020016000206000019080519060200190610243929190610449565b50806000806001548152602001908152602001600020600101819055506000806000600154815260200190815260200160002060020160006101000a81548160ff0219169083600281111561029b5761029a6108d3565b5b0217905550600160008154809291906102b39061085b565b91905055505050565b60006020528060005260406000206000915090508060000180546102df906107f8565b80601f016020809104026020016040519081016040528092919081815260200182805461030b906107f8565b80156103585780601f1061032d57610100808354040283529160200191610358565b820191906000526020600020905b81548152906001019060200180831161033b57829003601f168201915b5050505050908060010154908060020160009054906101000a900460ff16905083565b6001600281111561038f5761038e6108d3565b5b600080600154815260200190815260200160002060020160009054906101000a900460ff1660028111156103c6576103c56108d3565b5b14610406576040517f08c379a00000000000000000000000000000000000000000000000000000000081526004016103fd906106d5565b60405180910390fd5b6002600080600154815260200190815260200160002060020160006101000a81548160ff02191690836002811115610441576104406108d3565b5b021790555050565b828054610455906107f8565b90600052602060002090601f01602090048101928261047757600085556104be565b82601f1061049057805160ff19168380011785556104be565b828001600101855582156104be579182015b828111156104bd5782518255916020019190600101906104a2565b5b5090506104cb91906104cf565b5090565b5b808211156104e85760008160009055506001016104d0565b5090565b60006104ff6104fa8461073a565b610715565b90508281526020810184848401111561051b5761051a610965565b5b6105268482856107b6565b509392505050565b600082601f83011261054357610542610960565b5b81356105538482602086016104ec565b91505092915050565b60008135905061056b816109eb565b92915050565b600080604083850312156105885761058761096f565b5b600083013567ffffffffffffffff8111156105a6576105a561096a565b5b6105b28582860161052e565b92505060206105c38582860161055c565b9150509250929050565b6000602082840312156105e3576105e261096f565b5b60006105f18482850161055c565b91505092915050565b610603816107a4565b82525050565b60006106148261076b565b61061e8185610776565b935061062e8185602086016107c5565b61063781610974565b840191505092915050565b600061064f601c83610776565b915061065a82610985565b602082019050919050565b6000610672601b83610776565b915061067d826109ae565b602082019050919050565b6106918161079a565b82525050565b600060608201905081810360008301526106b18186610609565b90506106c06020830185610688565b6106cd60408301846105fa565b949350505050565b600060208201905081810360008301526106ee81610642565b9050919050565b6000602082019050818103600083015261070e81610665565b9050919050565b600061071f610730565b905061072b828261082a565b919050565b6000604051905090565b600067ffffffffffffffff82111561075557610754610931565b5b61075e82610974565b9050602081019050919050565b600081519050919050565b600082825260208201905092915050565b6000819050610795826109d7565b919050565b6000819050919050565b60006107af82610787565b9050919050565b82818337600083830152505050565b60005b838110156107e35780820151818401526020810190506107c8565b838111156107f2576000848401525b50505050565b6000600282049050600182168061081057607f821691505b6020821081141561082457610823610902565b5b50919050565b61083382610974565b810181811067ffffffffffffffff8211171561085257610851610931565b5b80604052505050565b60006108668261079a565b91507fffffffffffffffffffffffffffffffffffffffffffffffffffffffffffffffff821415610899576108986108a4565b5b600182019050919050565b7f4e487b7100000000000000000000000000000000000000000000000000000000600052601160045260246000fd5b7f4e487b7100000000000000000000000000000000000000000000000000000000600052602160045260246000fd5b7f4e487b7100000000000000000000000000000000000000000000000000000000600052602260045260246000fd5b7f4e487b7100000000000000000000000000000000000000000000000000000000600052604160045260246000fd5b600080fd5b600080fd5b600080fd5b600080fd5b6000601f19601f8301169050919050565b7f4974656d206973206675727468657220696e2074686520636861696e00000000600082015250565b7f4f6e6c792066756c6c207061796d656e74732061636365707465640000000000600082015250565b600381106109e8576109e76108d3565b5b50565b6109f48161079a565b81146109ff57600080fd5b5056fea26469706673582212205082d45ddf9516442d67dee01f022a6e549efe30b33c84b4f41eb76521a893b664736f6c63430008070033",
					"opcodes": "PUSH1 0x80 PUSH1 0x40 MSTORE CALLVALUE DUP1 ISZERO PUSH2 0x10 JUMPI PUSH1 0x0 DUP1 REVERT JUMPDEST POP PUSH2 0xA38 DUP1 PUSH2 0x20 PUSH1 0x0 CODECOPY PUSH1 0x0 RETURN INVALID PUSH1 0x80 PUSH1 0x40 MSTORE PUSH1 0x4 CALLDATASIZE LT PUSH2 0x3F JUMPI PUSH1 0x0 CALLDATALOAD PUSH1 0xE0 SHR DUP1 PUSH4 0x800FB83F EQ PUSH2 0x44 JUMPI DUP1 PUSH4 0x8C551742 EQ PUSH2 0x60 JUMPI DUP1 PUSH4 0xBFB231D2 EQ PUSH2 0x89 JUMPI DUP1 PUSH4 0xCD31831E EQ PUSH2 0xC8 JUMPI JUMPDEST PUSH1 0x0 DUP1 REVERT JUMPDEST PUSH2 0x5E PUSH1 0x4 DUP1 CALLDATASIZE SUB DUP2 ADD SWAP1 PUSH2 0x59 SWAP2 SWAP1 PUSH2 0x5CD JUMP JUMPDEST PUSH2 0xF1 JUMP JUMPDEST STOP JUMPDEST CALLVALUE DUP1 ISZERO PUSH2 0x6C JUMPI PUSH1 0x0 DUP1 REVERT JUMPDEST POP PUSH2 0x87 PUSH1 0x4 DUP1 CALLDATASIZE SUB DUP2 ADD SWAP1 PUSH2 0x82 SWAP2 SWAP1 PUSH2 0x571 JUMP JUMPDEST PUSH2 0x218 JUMP JUMPDEST STOP JUMPDEST CALLVALUE DUP1 ISZERO PUSH2 0x95 JUMPI PUSH1 0x0 DUP1 REVERT JUMPDEST POP PUSH2 0xB0 PUSH1 0x4 DUP1 CALLDATASIZE SUB DUP2 ADD SWAP1 PUSH2 0xAB SWAP2 SWAP1 PUSH2 0x5CD JUMP JUMPDEST PUSH2 0x2BC JUMP JUMPDEST PUSH1 0x40 MLOAD PUSH2 0xBF SWAP4 SWAP3 SWAP2 SWAP1 PUSH2 0x697 JUMP JUMPDEST PUSH1 0x40 MLOAD DUP1 SWAP2 SUB SWAP1 RETURN JUMPDEST CALLVALUE DUP1 ISZERO PUSH2 0xD4 JUMPI PUSH1 0x0 DUP1 REVERT JUMPDEST POP PUSH2 0xEF PUSH1 0x4 DUP1 CALLDATASIZE SUB DUP2 ADD SWAP1 PUSH2 0xEA SWAP2 SWAP1 PUSH2 0x5CD JUMP JUMPDEST PUSH2 0x37B JUMP JUMPDEST STOP JUMPDEST CALLVALUE PUSH1 0x0 DUP1 PUSH1 0x1 SLOAD DUP2 MSTORE PUSH1 0x20 ADD SWAP1 DUP2 MSTORE PUSH1 0x20 ADD PUSH1 0x0 KECCAK256 PUSH1 0x1 ADD SLOAD EQ PUSH2 0x14A JUMPI PUSH1 0x40 MLOAD PUSH32 0x8C379A000000000000000000000000000000000000000000000000000000000 DUP2 MSTORE PUSH1 0x4 ADD PUSH2 0x141 SWAP1 PUSH2 0x6F5 JUMP JUMPDEST PUSH1 0x40 MLOAD DUP1 SWAP2 SUB SWAP1 REVERT JUMPDEST PUSH1 0x0 PUSH1 0x2 DUP2 GT ISZERO PUSH2 0x15E JUMPI PUSH2 0x15D PUSH2 0x8D3 JUMP JUMPDEST JUMPDEST PUSH1 0x0 DUP1 PUSH1 0x1 SLOAD DUP2 MSTORE PUSH1 0x20 ADD SWAP1 DUP2 MSTORE PUSH1 0x20 ADD PUSH1 0x0 KECCAK256 PUSH1 0x2 ADD PUSH1 0x0 SWAP1 SLOAD SWAP1 PUSH2 0x100 EXP SWAP1 DIV PUSH1 0xFF AND PUSH1 0x2 DUP2 GT ISZERO PUSH2 0x195 JUMPI PUSH2 0x194 PUSH2 0x8D3 JUMP JUMPDEST JUMPDEST EQ PUSH2 0x1D5 JUMPI PUSH1 0x40 MLOAD PUSH32 0x8C379A000000000000000000000000000000000000000000000000000000000 DUP2 MSTORE PUSH1 0x4 ADD PUSH2 0x1CC SWAP1 PUSH2 0x6D5 JUMP JUMPDEST PUSH1 0x40 MLOAD DUP1 SWAP2 SUB SWAP1 REVERT JUMPDEST PUSH1 0x1 PUSH1 0x0 DUP1 PUSH1 0x1 SLOAD DUP2 MSTORE PUSH1 0x20 ADD SWAP1 DUP2 MSTORE PUSH1 0x20 ADD PUSH1 0x0 KECCAK256 PUSH1 0x2 ADD PUSH1 0x0 PUSH2 0x100 EXP DUP2 SLOAD DUP2 PUSH1 0xFF MUL NOT AND SWAP1 DUP4 PUSH1 0x2 DUP2 GT ISZERO PUSH2 0x210 JUMPI PUSH2 0x20F PUSH2 0x8D3 JUMP JUMPDEST JUMPDEST MUL OR SWAP1 SSTORE POP POP JUMP JUMPDEST DUP2 PUSH1 0x0 DUP1 PUSH1 0x1 SLOAD DUP2 MSTORE PUSH1 0x20 ADD SWAP1 DUP2 MSTORE PUSH1 0x20 ADD PUSH1 0x0 KECCAK256 PUSH1 0x0 ADD SWAP1 DUP1 MLOAD SWAP1 PUSH1 0x20 ADD SWAP1 PUSH2 0x243 SWAP3 SWAP2 SWAP1 PUSH2 0x449 JUMP JUMPDEST POP DUP1 PUSH1 0x0 DUP1 PUSH1 0x1 SLOAD DUP2 MSTORE PUSH1 0x20 ADD SWAP1 DUP2 MSTORE PUSH1 0x20 ADD PUSH1 0x0 KECCAK256 PUSH1 0x1 ADD DUP2 SWAP1 SSTORE POP PUSH1 0x0 DUP1 PUSH1 0x0 PUSH1 0x1 SLOAD DUP2 MSTORE PUSH1 0x20 ADD SWAP1 DUP2 MSTORE PUSH1 0x20 ADD PUSH1 0x0 KECCAK256 PUSH1 0x2 ADD PUSH1 0x0 PUSH2 0x100 EXP DUP2 SLOAD DUP2 PUSH1 0xFF MUL NOT AND SWAP1 DUP4 PUSH1 0x2 DUP2 GT ISZERO PUSH2 0x29B JUMPI PUSH2 0x29A PUSH2 0x8D3 JUMP JUMPDEST JUMPDEST MUL OR SWAP1 SSTORE POP PUSH1 0x1 PUSH1 0x0 DUP2 SLOAD DUP1 SWAP3 SWAP2 SWAP1 PUSH2 0x2B3 SWAP1 PUSH2 0x85B JUMP JUMPDEST SWAP2 SWAP1 POP SSTORE POP POP POP JUMP JUMPDEST PUSH1 0x0 PUSH1 0x20 MSTORE DUP1 PUSH1 0x0 MSTORE PUSH1 0x40 PUSH1 0x0 KECCAK256 PUSH1 0x0 SWAP2 POP SWAP1 POP DUP1 PUSH1 0x0 ADD DUP1 SLOAD PUSH2 0x2DF SWAP1 PUSH2 0x7F8 JUMP JUMPDEST DUP1 PUSH1 0x1F ADD PUSH1 0x20 DUP1 SWAP2 DIV MUL PUSH1 0x20 ADD PUSH1 0x40 MLOAD SWAP1 DUP2 ADD PUSH1 0x40 MSTORE DUP1 SWAP3 SWAP2 SWAP1 DUP2 DUP2 MSTORE PUSH1 0x20 ADD DUP3 DUP1 SLOAD PUSH2 0x30B SWAP1 PUSH2 0x7F8 JUMP JUMPDEST DUP1 ISZERO PUSH2 0x358 JUMPI DUP1 PUSH1 0x1F LT PUSH2 0x32D JUMPI PUSH2 0x100 DUP1 DUP4 SLOAD DIV MUL DUP4 MSTORE SWAP2 PUSH1 0x20 ADD SWAP2 PUSH2 0x358 JUMP JUMPDEST DUP3 ADD SWAP2 SWAP1 PUSH1 0x0 MSTORE PUSH1 0x20 PUSH1 0x0 KECCAK256 SWAP1 JUMPDEST DUP2 SLOAD DUP2 MSTORE SWAP1 PUSH1 0x1 ADD SWAP1 PUSH1 0x20 ADD DUP1 DUP4 GT PUSH2 0x33B JUMPI DUP3 SWAP1 SUB PUSH1 0x1F AND DUP3 ADD SWAP2 JUMPDEST POP POP POP POP POP SWAP1 DUP1 PUSH1 0x1 ADD SLOAD SWAP1 DUP1 PUSH1 0x2 ADD PUSH1 0x0 SWAP1 SLOAD SWAP1 PUSH2 0x100 EXP SWAP1 DIV PUSH1 0xFF AND SWAP1 POP DUP4 JUMP JUMPDEST PUSH1 0x1 PUSH1 0x2 DUP2 GT ISZERO PUSH2 0x38F JUMPI PUSH2 0x38E PUSH2 0x8D3 JUMP JUMPDEST JUMPDEST PUSH1 0x0 DUP1 PUSH1 0x1 SLOAD DUP2 MSTORE PUSH1 0x20 ADD SWAP1 DUP2 MSTORE PUSH1 0x20 ADD PUSH1 0x0 KECCAK256 PUSH1 0x2 ADD PUSH1 0x0 SWAP1 SLOAD SWAP1 PUSH2 0x100 EXP SWAP1 DIV PUSH1 0xFF AND PUSH1 0x2 DUP2 GT ISZERO PUSH2 0x3C6 JUMPI PUSH2 0x3C5 PUSH2 0x8D3 JUMP JUMPDEST JUMPDEST EQ PUSH2 0x406 JUMPI PUSH1 0x40 MLOAD PUSH32 0x8C379A000000000000000000000000000000000000000000000000000000000 DUP2 MSTORE PUSH1 0x4 ADD PUSH2 0x3FD SWAP1 PUSH2 0x6D5 JUMP JUMPDEST PUSH1 0x40 MLOAD DUP1 SWAP2 SUB SWAP1 REVERT JUMPDEST PUSH1 0x2 PUSH1 0x0 DUP1 PUSH1 0x1 SLOAD DUP2 MSTORE PUSH1 0x20 ADD SWAP1 DUP2 MSTORE PUSH1 0x20 ADD PUSH1 0x0 KECCAK256 PUSH1 0x2 ADD PUSH1 0x0 PUSH2 0x100 EXP DUP2 SLOAD DUP2 PUSH1 0xFF MUL NOT AND SWAP1 DUP4 PUSH1 0x2 DUP2 GT ISZERO PUSH2 0x441 JUMPI PUSH2 0x440 PUSH2 0x8D3 JUMP JUMPDEST JUMPDEST MUL OR SWAP1 SSTORE POP POP JUMP JUMPDEST DUP3 DUP1 SLOAD PUSH2 0x455 SWAP1 PUSH2 0x7F8 JUMP JUMPDEST SWAP1 PUSH1 0x0 MSTORE PUSH1 0x20 PUSH1 0x0 KECCAK256 SWAP1 PUSH1 0x1F ADD PUSH1 0x20 SWAP1 DIV DUP2 ADD SWAP3 DUP3 PUSH2 0x477 JUMPI PUSH1 0x0 DUP6 SSTORE PUSH2 0x4BE JUMP JUMPDEST DUP3 PUSH1 0x1F LT PUSH2 0x490 JUMPI DUP1 MLOAD PUSH1 0xFF NOT AND DUP4 DUP1 ADD OR DUP6 SSTORE PUSH2 0x4BE JUMP JUMPDEST DUP3 DUP1 ADD PUSH1 0x1 ADD DUP6 SSTORE DUP3 ISZERO PUSH2 0x4BE JUMPI SWAP2 DUP3 ADD JUMPDEST DUP3 DUP2 GT ISZERO PUSH2 0x4BD JUMPI DUP3 MLOAD DUP3 SSTORE SWAP2 PUSH1 0x20 ADD SWAP2 SWAP1 PUSH1 0x1 ADD SWAP1 PUSH2 0x4A2 JUMP JUMPDEST JUMPDEST POP SWAP1 POP PUSH2 0x4CB SWAP2 SWAP1 PUSH2 0x4CF JUMP JUMPDEST POP SWAP1 JUMP JUMPDEST JUMPDEST DUP1 DUP3 GT ISZERO PUSH2 0x4E8 JUMPI PUSH1 0x0 DUP2 PUSH1 0x0 SWAP1 SSTORE POP PUSH1 0x1 ADD PUSH2 0x4D0 JUMP JUMPDEST POP SWAP1 JUMP JUMPDEST PUSH1 0x0 PUSH2 0x4FF PUSH2 0x4FA DUP5 PUSH2 0x73A JUMP JUMPDEST PUSH2 0x715 JUMP JUMPDEST SWAP1 POP DUP3 DUP2 MSTORE PUSH1 0x20 DUP2 ADD DUP5 DUP5 DUP5 ADD GT ISZERO PUSH2 0x51B JUMPI PUSH2 0x51A PUSH2 0x965 JUMP JUMPDEST JUMPDEST PUSH2 0x526 DUP5 DUP3 DUP6 PUSH2 0x7B6 JUMP JUMPDEST POP SWAP4 SWAP3 POP POP POP JUMP JUMPDEST PUSH1 0x0 DUP3 PUSH1 0x1F DUP4 ADD SLT PUSH2 0x543 JUMPI PUSH2 0x542 PUSH2 0x960 JUMP JUMPDEST JUMPDEST DUP2 CALLDATALOAD PUSH2 0x553 DUP5 DUP3 PUSH1 0x20 DUP7 ADD PUSH2 0x4EC JUMP JUMPDEST SWAP2 POP POP SWAP3 SWAP2 POP POP JUMP JUMPDEST PUSH1 0x0 DUP2 CALLDATALOAD SWAP1 POP PUSH2 0x56B DUP2 PUSH2 0x9EB JUMP JUMPDEST SWAP3 SWAP2 POP POP JUMP JUMPDEST PUSH1 0x0 DUP1 PUSH1 0x40 DUP4 DUP6 SUB SLT ISZERO PUSH2 0x588 JUMPI PUSH2 0x587 PUSH2 0x96F JUMP JUMPDEST JUMPDEST PUSH1 0x0 DUP4 ADD CALLDATALOAD PUSH8 0xFFFFFFFFFFFFFFFF DUP2 GT ISZERO PUSH2 0x5A6 JUMPI PUSH2 0x5A5 PUSH2 0x96A JUMP JUMPDEST JUMPDEST PUSH2 0x5B2 DUP6 DUP3 DUP7 ADD PUSH2 0x52E JUMP JUMPDEST SWAP3 POP POP PUSH1 0x20 PUSH2 0x5C3 DUP6 DUP3 DUP7 ADD PUSH2 0x55C JUMP JUMPDEST SWAP2 POP POP SWAP3 POP SWAP3 SWAP1 POP JUMP JUMPDEST PUSH1 0x0 PUSH1 0x20 DUP3 DUP5 SUB SLT ISZERO PUSH2 0x5E3 JUMPI PUSH2 0x5E2 PUSH2 0x96F JUMP JUMPDEST JUMPDEST PUSH1 0x0 PUSH2 0x5F1 DUP5 DUP3 DUP6 ADD PUSH2 0x55C JUMP JUMPDEST SWAP2 POP POP SWAP3 SWAP2 POP POP JUMP JUMPDEST PUSH2 0x603 DUP2 PUSH2 0x7A4 JUMP JUMPDEST DUP3 MSTORE POP POP JUMP JUMPDEST PUSH1 0x0 PUSH2 0x614 DUP3 PUSH2 0x76B JUMP JUMPDEST PUSH2 0x61E DUP2 DUP6 PUSH2 0x776 JUMP JUMPDEST SWAP4 POP PUSH2 0x62E DUP2 DUP6 PUSH1 0x20 DUP7 ADD PUSH2 0x7C5 JUMP JUMPDEST PUSH2 0x637 DUP2 PUSH2 0x974 JUMP JUMPDEST DUP5 ADD SWAP2 POP POP SWAP3 SWAP2 POP POP JUMP JUMPDEST PUSH1 0x0 PUSH2 0x64F PUSH1 0x1C DUP4 PUSH2 0x776 JUMP JUMPDEST SWAP2 POP PUSH2 0x65A DUP3 PUSH2 0x985 JUMP JUMPDEST PUSH1 0x20 DUP3 ADD SWAP1 POP SWAP2 SWAP1 POP JUMP JUMPDEST PUSH1 0x0 PUSH2 0x672 PUSH1 0x1B DUP4 PUSH2 0x776 JUMP JUMPDEST SWAP2 POP PUSH2 0x67D DUP3 PUSH2 0x9AE JUMP JUMPDEST PUSH1 0x20 DUP3 ADD SWAP1 POP SWAP2 SWAP1 POP JUMP JUMPDEST PUSH2 0x691 DUP2 PUSH2 0x79A JUMP JUMPDEST DUP3 MSTORE POP POP JUMP JUMPDEST PUSH1 0x0 PUSH1 0x60 DUP3 ADD SWAP1 POP DUP2 DUP2 SUB PUSH1 0x0 DUP4 ADD MSTORE PUSH2 0x6B1 DUP2 DUP7 PUSH2 0x609 JUMP JUMPDEST SWAP1 POP PUSH2 0x6C0 PUSH1 0x20 DUP4 ADD DUP6 PUSH2 0x688 JUMP JUMPDEST PUSH2 0x6CD PUSH1 0x40 DUP4 ADD DUP5 PUSH2 0x5FA JUMP JUMPDEST SWAP5 SWAP4 POP POP POP POP JUMP JUMPDEST PUSH1 0x0 PUSH1 0x20 DUP3 ADD SWAP1 POP DUP2 DUP2 SUB PUSH1 0x0 DUP4 ADD MSTORE PUSH2 0x6EE DUP2 PUSH2 0x642 JUMP JUMPDEST SWAP1 POP SWAP2 SWAP1 POP JUMP JUMPDEST PUSH1 0x0 PUSH1 0x20 DUP3 ADD SWAP1 POP DUP2 DUP2 SUB PUSH1 0x0 DUP4 ADD MSTORE PUSH2 0x70E DUP2 PUSH2 0x665 JUMP JUMPDEST SWAP1 POP SWAP2 SWAP1 POP JUMP JUMPDEST PUSH1 0x0 PUSH2 0x71F PUSH2 0x730 JUMP JUMPDEST SWAP1 POP PUSH2 0x72B DUP3 DUP3 PUSH2 0x82A JUMP JUMPDEST SWAP2 SWAP1 POP JUMP JUMPDEST PUSH1 0x0 PUSH1 0x40 MLOAD SWAP1 POP SWAP1 JUMP JUMPDEST PUSH1 0x0 PUSH8 0xFFFFFFFFFFFFFFFF DUP3 GT ISZERO PUSH2 0x755 JUMPI PUSH2 0x754 PUSH2 0x931 JUMP JUMPDEST JUMPDEST PUSH2 0x75E DUP3 PUSH2 0x974 JUMP JUMPDEST SWAP1 POP PUSH1 0x20 DUP2 ADD SWAP1 POP SWAP2 SWAP1 POP JUMP JUMPDEST PUSH1 0x0 DUP2 MLOAD SWAP1 POP SWAP2 SWAP1 POP JUMP JUMPDEST PUSH1 0x0 DUP3 DUP3 MSTORE PUSH1 0x20 DUP3 ADD SWAP1 POP SWAP3 SWAP2 POP POP JUMP JUMPDEST PUSH1 0x0 DUP2 SWAP1 POP PUSH2 0x795 DUP3 PUSH2 0x9D7 JUMP JUMPDEST SWAP2 SWAP1 POP JUMP JUMPDEST PUSH1 0x0 DUP2 SWAP1 POP SWAP2 SWAP1 POP JUMP JUMPDEST PUSH1 0x0 PUSH2 0x7AF DUP3 PUSH2 0x787 JUMP JUMPDEST SWAP1 POP SWAP2 SWAP1 POP JUMP JUMPDEST DUP3 DUP2 DUP4 CALLDATACOPY PUSH1 0x0 DUP4 DUP4 ADD MSTORE POP POP POP JUMP JUMPDEST PUSH1 0x0 JUMPDEST DUP4 DUP2 LT ISZERO PUSH2 0x7E3 JUMPI DUP1 DUP3 ADD MLOAD DUP2 DUP5 ADD MSTORE PUSH1 0x20 DUP2 ADD SWAP1 POP PUSH2 0x7C8 JUMP JUMPDEST DUP4 DUP2 GT ISZERO PUSH2 0x7F2 JUMPI PUSH1 0x0 DUP5 DUP5 ADD MSTORE JUMPDEST POP POP POP POP JUMP JUMPDEST PUSH1 0x0 PUSH1 0x2 DUP3 DIV SWAP1 POP PUSH1 0x1 DUP3 AND DUP1 PUSH2 0x810 JUMPI PUSH1 0x7F DUP3 AND SWAP2 POP JUMPDEST PUSH1 0x20 DUP3 LT DUP2 EQ ISZERO PUSH2 0x824 JUMPI PUSH2 0x823 PUSH2 0x902 JUMP JUMPDEST JUMPDEST POP SWAP2 SWAP1 POP JUMP JUMPDEST PUSH2 0x833 DUP3 PUSH2 0x974 JUMP JUMPDEST DUP2 ADD DUP2 DUP2 LT PUSH8 0xFFFFFFFFFFFFFFFF DUP3 GT OR ISZERO PUSH2 0x852 JUMPI PUSH2 0x851 PUSH2 0x931 JUMP JUMPDEST JUMPDEST DUP1 PUSH1 0x40 MSTORE POP POP POP JUMP JUMPDEST PUSH1 0x0 PUSH2 0x866 DUP3 PUSH2 0x79A JUMP JUMPDEST SWAP2 POP PUSH32 0xFFFFFFFFFFFFFFFFFFFFFFFFFFFFFFFFFFFFFFFFFFFFFFFFFFFFFFFFFFFFFFFF DUP3 EQ ISZERO PUSH2 0x899 JUMPI PUSH2 0x898 PUSH2 0x8A4 JUMP JUMPDEST JUMPDEST PUSH1 0x1 DUP3 ADD SWAP1 POP SWAP2 SWAP1 POP JUMP JUMPDEST PUSH32 0x4E487B7100000000000000000000000000000000000000000000000000000000 PUSH1 0x0 MSTORE PUSH1 0x11 PUSH1 0x4 MSTORE PUSH1 0x24 PUSH1 0x0 REVERT JUMPDEST PUSH32 0x4E487B7100000000000000000000000000000000000000000000000000000000 PUSH1 0x0 MSTORE PUSH1 0x21 PUSH1 0x4 MSTORE PUSH1 0x24 PUSH1 0x0 REVERT JUMPDEST PUSH32 0x4E487B7100000000000000000000000000000000000000000000000000000000 PUSH1 0x0 MSTORE PUSH1 0x22 PUSH1 0x4 MSTORE PUSH1 0x24 PUSH1 0x0 REVERT JUMPDEST PUSH32 0x4E487B7100000000000000000000000000000000000000000000000000000000 PUSH1 0x0 MSTORE PUSH1 0x41 PUSH1 0x4 MSTORE PUSH1 0x24 PUSH1 0x0 REVERT JUMPDEST PUSH1 0x0 DUP1 REVERT JUMPDEST PUSH1 0x0 DUP1 REVERT JUMPDEST PUSH1 0x0 DUP1 REVERT JUMPDEST PUSH1 0x0 DUP1 REVERT JUMPDEST PUSH1 0x0 PUSH1 0x1F NOT PUSH1 0x1F DUP4 ADD AND SWAP1 POP SWAP2 SWAP1 POP JUMP JUMPDEST PUSH32 0x4974656D206973206675727468657220696E2074686520636861696E00000000 PUSH1 0x0 DUP3 ADD MSTORE POP JUMP JUMPDEST PUSH32 0x4F6E6C792066756C6C207061796D656E74732061636365707465640000000000 PUSH1 0x0 DUP3 ADD MSTORE POP JUMP JUMPDEST PUSH1 0x3 DUP2 LT PUSH2 0x9E8 JUMPI PUSH2 0x9E7 PUSH2 0x8D3 JUMP JUMPDEST JUMPDEST POP JUMP JUMPDEST PUSH2 0x9F4 DUP2 PUSH2 0x79A JUMP JUMPDEST DUP2 EQ PUSH2 0x9FF JUMPI PUSH1 0x0 DUP1 REVERT JUMPDEST POP JUMP INVALID LOG2 PUSH5 0x6970667358 0x22 SLT KECCAK256 POP DUP3 0xD4 0x5D 0xDF SWAP6 AND DIFFICULTY 0x2D PUSH8 0xDEE01F022A6E549E INVALID ADDRESS 0xB3 EXTCODECOPY DUP5 0xB4 DELEGATECALL 0x1E 0xB7 PUSH6 0x21A893B66473 PUSH16 0x6C634300080700330000000000000000 "
				},
				"gasEstimates": {
					"creation": {
						"codeDepositCost": "523200",
						"executionCost": "556",
						"totalCost": "523756"
					},
					"external": {
						"createItem(string,uint256)": "infinite",
						"items(uint256)": "infinite",
						"triggerDelivery(uint256)": "31316",
						"triggerPayment(uint256)": "35532"
					}
				},
				"methodIdentifiers": {
					"createItem(string,uint256)": "8c551742",
					"items(uint256)": "bfb231d2",
					"triggerDelivery(uint256)": "cd31831e",
					"triggerPayment(uint256)": "800fb83f"
				}
			},
			"storageLayout": {
				"storage": [
					{
						"astId": 18,
						"contract": "ProjectSupplyChainItemManager.sol:ItemManager",
						"label": "items",
						"offset": 0,
						"slot": "0",
						"type": "t_mapping(t_uint256,t_struct(S_Item)13_storage)"
					},
					{
						"astId": 20,
						"contract": "ProjectSupplyChainItemManager.sol:ItemManager",
						"label": "itemIndex",
						"offset": 0,
						"slot": "1",
						"type": "t_uint256"
					}
				],
				"types": {
					"t_enum(SupplyChainState)5": {
						"encoding": "inplace",
						"label": "enum ItemManager.SupplyChainState",
						"numberOfBytes": "1"
					},
					"t_mapping(t_uint256,t_struct(S_Item)13_storage)": {
						"encoding": "mapping",
						"key": "t_uint256",
						"label": "mapping(uint256 => struct ItemManager.S_Item)",
						"numberOfBytes": "32",
						"value": "t_struct(S_Item)13_storage"
					},
					"t_string_storage": {
						"encoding": "bytes",
						"label": "string",
						"numberOfBytes": "32"
					},
					"t_struct(S_Item)13_storage": {
						"encoding": "inplace",
						"label": "struct ItemManager.S_Item",
						"members": [
							{
								"astId": 7,
								"contract": "ProjectSupplyChainItemManager.sol:ItemManager",
								"label": "_identifier",
								"offset": 0,
								"slot": "0",
								"type": "t_string_storage"
							},
							{
								"astId": 9,
								"contract": "ProjectSupplyChainItemManager.sol:ItemManager",
								"label": "_itemPrice",
								"offset": 0,
								"slot": "1",
								"type": "t_uint256"
							},
							{
								"astId": 12,
								"contract": "ProjectSupplyChainItemManager.sol:ItemManager",
								"label": "_state",
								"offset": 0,
								"slot": "2",
								"type": "t_enum(SupplyChainState)5"
							}
						],
						"numberOfBytes": "96"
					},
					"t_uint256": {
						"encoding": "inplace",
						"label": "uint256",
						"numberOfBytes": "32"
					}
				}
			},
			"userdoc": {
				"kind": "user",
				"methods": {},
				"version": 1
			}
		}
	}
}