{
	"TryCatchErrorHandling.sol": {
		"ErrorHandling": {
			"abi": [
				{
					"anonymous": false,
					"inputs": [
						{
							"indexed": false,
							"internalType": "string",
							"name": "reason",
							"type": "string"
						}
					],
					"name": "ErrorLogging",
					"type": "event"
				},
				{
					"inputs": [],
					"name": "catchError",
					"outputs": [],
					"stateMutability": "nonpayable",
					"type": "function"
				}
			],
			"devdoc": {
				"kind": "dev",
				"methods": {},
				"version": 1
			},
			"evm": {
				"assembly": "    /* \"TryCatchErrorHandling.sol\":150:508  contract ErrorHandling {\r... */\n  mstore(0x40, 0x80)\n  callvalue\n  dup1\n  iszero\n  tag_1\n  jumpi\n  0x00\n  dup1\n  revert\ntag_1:\n  pop\n  dataSize(sub_0)\n  dup1\n  dataOffset(sub_0)\n  0x00\n  codecopy\n  0x00\n  return\nstop\n\nsub_0: assembly {\n        /* \"TryCatchErrorHandling.sol\":150:508  contract ErrorHandling {\r... */\n      mstore(0x40, 0x80)\n      callvalue\n      dup1\n      iszero\n      tag_1\n      jumpi\n      0x00\n      dup1\n      revert\n    tag_1:\n      pop\n      jumpi(tag_2, lt(calldatasize, 0x04))\n      shr(0xe0, calldataload(0x00))\n      dup1\n      0x8b188516\n      eq\n      tag_3\n      jumpi\n    tag_2:\n      0x00\n      dup1\n      revert\n        /* \"TryCatchErrorHandling.sol\":230:504  function catchError() public {\r... */\n    tag_3:\n      tag_4\n      tag_5\n      jump\t// in\n    tag_4:\n      stop\n    tag_5:\n        /* \"TryCatchErrorHandling.sol\":271:285  WillThrow will */\n      0x00\n        /* \"TryCatchErrorHandling.sol\":288:303  new WillThrow() */\n      mload(0x40)\n      tag_7\n      swap1\n      tag_8\n      jump\t// in\n    tag_7:\n      mload(0x40)\n      dup1\n      swap2\n      sub\n      swap1\n      0x00\n      create\n      dup1\n      iszero\n      dup1\n      iszero\n      tag_9\n      jumpi\n      returndatasize\n      0x00\n      dup1\n      returndatacopy\n      revert(0x00, returndatasize)\n    tag_9:\n      pop\n        /* \"TryCatchErrorHandling.sol\":271:303  WillThrow will = new WillThrow() */\n      swap1\n      pop\n        /* \"TryCatchErrorHandling.sol\":319:323  will */\n      dup1\n        /* \"TryCatchErrorHandling.sol\":319:333  will.aFunction */\n      0xffffffffffffffffffffffffffffffffffffffff\n      and\n      0x39c117a4\n        /* \"TryCatchErrorHandling.sol\":319:335  will.aFunction() */\n      mload(0x40)\n      dup2\n      0xffffffff\n      and\n      0xe0\n      shl\n      dup2\n      mstore\n      0x04\n      add\n      0x00\n      mload(0x40)\n      dup1\n      dup4\n      sub\n      dup2\n      0x00\n      dup8\n      dup1\n      extcodesize\n      iszero\n      dup1\n      iszero\n      tag_10\n      jumpi\n      0x00\n      dup1\n      revert\n    tag_10:\n      pop\n      gas\n      call\n      swap3\n      pop\n      pop\n      pop\n      dup1\n      iszero\n      tag_11\n      jumpi\n      pop\n      0x01\n    tag_11:\n        /* \"TryCatchErrorHandling.sol\":315:492  try will.aFunction() {\r... */\n      tag_12\n      jumpi\n      tag_16\n      tag_17\n      jump\t// in\n    tag_16:\n      dup1\n      0x08c379a0\n      eq\n      iszero\n      tag_15\n      jumpi\n      pop\n      tag_18\n      tag_19\n      jump\t// in\n    tag_18:\n      dup1\n      tag_20\n      jumpi\n      pop\n      jump(tag_14)\n    tag_20:\n        /* \"TryCatchErrorHandling.sol\":428:492  catch Error (string memory reason){\r... */\n      pop\n        /* \"TryCatchErrorHandling.sol\":315:492  try will.aFunction() {\r... */\n      jump(tag_13)\n    tag_15:\n      pop\n    tag_14:\n      returndatasize\n      0x00\n      dup1\n      returndatacopy\n      revert(0x00, returndatasize)\n    tag_13:\n      jump(tag_21)\n    tag_12:\n    tag_21:\n        /* \"TryCatchErrorHandling.sol\":259:504  {\r... */\n      pop\n        /* \"TryCatchErrorHandling.sol\":230:504  function catchError() public {\r... */\n      jump\t// out\n    tag_8:\n      dataSize(sub_0)\n      dup1\n      dataOffset(sub_0)\n      dup4\n      codecopy\n      add\n      swap1\n      jump\t// out\n        /* \"#utility.yul\":7:82   */\n    tag_23:\n        /* \"#utility.yul\":40:46   */\n      0x00\n        /* \"#utility.yul\":73:75   */\n      0x40\n        /* \"#utility.yul\":67:76   */\n      mload\n        /* \"#utility.yul\":57:76   */\n      swap1\n      pop\n        /* \"#utility.yul\":7:82   */\n      swap1\n      jump\t// out\n        /* \"#utility.yul\":88:369   */\n    tag_25:\n        /* \"#utility.yul\":171:198   */\n      tag_27\n        /* \"#utility.yul\":193:197   */\n      dup3\n        /* \"#utility.yul\":171:198   */\n      tag_28\n      jump\t// in\n    tag_27:\n        /* \"#utility.yul\":163:169   */\n      dup2\n        /* \"#utility.yul\":159:199   */\n      add\n        /* \"#utility.yul\":301:307   */\n      dup2\n        /* \"#utility.yul\":289:299   */\n      dup2\n        /* \"#utility.yul\":286:308   */\n      lt\n        /* \"#utility.yul\":265:283   */\n      0xffffffffffffffff\n        /* \"#utility.yul\":253:263   */\n      dup3\n        /* \"#utility.yul\":250:284   */\n      gt\n        /* \"#utility.yul\":247:309   */\n      or\n        /* \"#utility.yul\":244:332   */\n      iszero\n      tag_29\n      jumpi\n        /* \"#utility.yul\":312:330   */\n      tag_30\n      tag_31\n      jump\t// in\n    tag_30:\n        /* \"#utility.yul\":244:332   */\n    tag_29:\n        /* \"#utility.yul\":352:362   */\n      dup1\n        /* \"#utility.yul\":348:350   */\n      0x40\n        /* \"#utility.yul\":341:363   */\n      mstore\n        /* \"#utility.yul\":131:369   */\n      pop\n        /* \"#utility.yul\":88:369   */\n      pop\n      pop\n      jump\t// out\n        /* \"#utility.yul\":375:555   */\n    tag_31:\n        /* \"#utility.yul\":423:500   */\n      0x4e487b7100000000000000000000000000000000000000000000000000000000\n        /* \"#utility.yul\":420:421   */\n      0x00\n        /* \"#utility.yul\":413:501   */\n      mstore\n        /* \"#utility.yul\":520:524   */\n      0x41\n        /* \"#utility.yul\":517:518   */\n      0x04\n        /* \"#utility.yul\":510:525   */\n      mstore\n        /* \"#utility.yul\":544:548   */\n      0x24\n        /* \"#utility.yul\":541:542   */\n      0x00\n        /* \"#utility.yul\":534:549   */\n      revert\n        /* \"#utility.yul\":561:744   */\n    tag_17:\n        /* \"#utility.yul\":596:599   */\n      0x00\n        /* \"#utility.yul\":634:635   */\n      0x03\n        /* \"#utility.yul\":616:632   */\n      returndatasize\n        /* \"#utility.yul\":613:636   */\n      gt\n        /* \"#utility.yul\":610:738   */\n      iszero\n      tag_34\n      jumpi\n        /* \"#utility.yul\":672:673   */\n      0x04\n        /* \"#utility.yul\":669:670   */\n      0x00\n        /* \"#utility.yul\":666:667   */\n      dup1\n        /* \"#utility.yul\":651:674   */\n      returndatacopy\n        /* \"#utility.yul\":694:728   */\n      tag_35\n        /* \"#utility.yul\":725:726   */\n      0x00\n        /* \"#utility.yul\":719:727   */\n      mload\n        /* \"#utility.yul\":694:728   */\n      tag_36\n      jump\t// in\n    tag_35:\n        /* \"#utility.yul\":687:728   */\n      swap1\n      pop\n        /* \"#utility.yul\":610:738   */\n    tag_34:\n        /* \"#utility.yul\":561:744   */\n      swap1\n      jump\t// out\n        /* \"#utility.yul\":750:852   */\n    tag_28:\n        /* \"#utility.yul\":791:797   */\n      0x00\n        /* \"#utility.yul\":842:844   */\n      0x1f\n        /* \"#utility.yul\":838:845   */\n      not\n        /* \"#utility.yul\":833:835   */\n      0x1f\n        /* \"#utility.yul\":826:831   */\n      dup4\n        /* \"#utility.yul\":822:836   */\n      add\n        /* \"#utility.yul\":818:846   */\n      and\n        /* \"#utility.yul\":808:846   */\n      swap1\n      pop\n        /* \"#utility.yul\":750:852   */\n      swap2\n      swap1\n      pop\n      jump\t// out\n        /* \"#utility.yul\":858:964   */\n    tag_36:\n        /* \"#utility.yul\":902:910   */\n      0x00\n        /* \"#utility.yul\":951:956   */\n      dup2\n        /* \"#utility.yul\":946:949   */\n      0xe0\n        /* \"#utility.yul\":942:957   */\n      shr\n        /* \"#utility.yul\":921:957   */\n      swap1\n      pop\n        /* \"#utility.yul\":858:964   */\n      swap2\n      swap1\n      pop\n      jump\t// out\n        /* \"#utility.yul\":970:1681   */\n    tag_19:\n        /* \"#utility.yul\":1009:1012   */\n      0x00\n        /* \"#utility.yul\":1047:1051   */\n      0x44\n        /* \"#utility.yul\":1029:1045   */\n      returndatasize\n        /* \"#utility.yul\":1026:1052   */\n      lt\n        /* \"#utility.yul\":1023:1062   */\n      iszero\n      tag_40\n      jumpi\n        /* \"#utility.yul\":1055:1060   */\n      jump(tag_39)\n        /* \"#utility.yul\":1023:1062   */\n    tag_40:\n        /* \"#utility.yul\":1084:1104   */\n      tag_41\n      tag_23\n      jump\t// in\n    tag_41:\n        /* \"#utility.yul\":1159:1160   */\n      0x04\n        /* \"#utility.yul\":1141:1157   */\n      returndatasize\n        /* \"#utility.yul\":1137:1161   */\n      sub\n        /* \"#utility.yul\":1134:1135   */\n      0x04\n        /* \"#utility.yul\":1128:1132   */\n      dup3\n        /* \"#utility.yul\":1113:1162   */\n      returndatacopy\n        /* \"#utility.yul\":1192:1196   */\n      dup1\n        /* \"#utility.yul\":1186:1197   */\n      mload\n        /* \"#utility.yul\":1291:1307   */\n      returndatasize\n        /* \"#utility.yul\":1284:1288   */\n      0x24\n        /* \"#utility.yul\":1276:1282   */\n      dup3\n        /* \"#utility.yul\":1272:1289   */\n      add\n        /* \"#utility.yul\":1269:1308   */\n      gt\n        /* \"#utility.yul\":1236:1254   */\n      0xffffffffffffffff\n        /* \"#utility.yul\":1228:1234   */\n      dup3\n        /* \"#utility.yul\":1225:1255   */\n      gt\n        /* \"#utility.yul\":1209:1322   */\n      or\n        /* \"#utility.yul\":1206:1352   */\n      iszero\n      tag_42\n      jumpi\n        /* \"#utility.yul\":1337:1342   */\n      pop\n      pop\n      jump(tag_39)\n        /* \"#utility.yul\":1206:1352   */\n    tag_42:\n        /* \"#utility.yul\":1383:1389   */\n      dup1\n        /* \"#utility.yul\":1377:1381   */\n      dup3\n        /* \"#utility.yul\":1373:1390   */\n      add\n        /* \"#utility.yul\":1419:1422   */\n      dup1\n        /* \"#utility.yul\":1413:1423   */\n      mload\n        /* \"#utility.yul\":1446:1464   */\n      0xffffffffffffffff\n        /* \"#utility.yul\":1438:1444   */\n      dup2\n        /* \"#utility.yul\":1435:1465   */\n      gt\n        /* \"#utility.yul\":1432:1475   */\n      iszero\n      tag_43\n      jumpi\n        /* \"#utility.yul\":1468:1473   */\n      pop\n      pop\n      pop\n      pop\n      jump(tag_39)\n        /* \"#utility.yul\":1432:1475   */\n    tag_43:\n        /* \"#utility.yul\":1516:1522   */\n      dup1\n        /* \"#utility.yul\":1509:1513   */\n      0x20\n        /* \"#utility.yul\":1504:1507   */\n      dup4\n        /* \"#utility.yul\":1500:1514   */\n      add\n        /* \"#utility.yul\":1496:1523   */\n      add\n        /* \"#utility.yul\":1575:1576   */\n      0x04\n        /* \"#utility.yul\":1557:1573   */\n      returndatasize\n        /* \"#utility.yul\":1553:1577   */\n      sub\n        /* \"#utility.yul\":1547:1551   */\n      dup6\n        /* \"#utility.yul\":1543:1578   */\n      add\n        /* \"#utility.yul\":1538:1541   */\n      dup2\n        /* \"#utility.yul\":1535:1579   */\n      gt\n        /* \"#utility.yul\":1532:1589   */\n      iszero\n      tag_44\n      jumpi\n        /* \"#utility.yul\":1582:1587   */\n      pop\n      pop\n      pop\n      pop\n      pop\n      jump(tag_39)\n        /* \"#utility.yul\":1532:1589   */\n    tag_44:\n        /* \"#utility.yul\":1599:1656   */\n      tag_45\n        /* \"#utility.yul\":1647:1653   */\n      dup3\n        /* \"#utility.yul\":1641:1645   */\n      0x20\n        /* \"#utility.yul\":1637:1654   */\n      add\n        /* \"#utility.yul\":1629:1635   */\n      dup6\n        /* \"#utility.yul\":1625:1655   */\n      add\n        /* \"#utility.yul\":1619:1623   */\n      dup7\n        /* \"#utility.yul\":1599:1656   */\n      tag_25\n      jump\t// in\n    tag_45:\n        /* \"#utility.yul\":1672:1675   */\n      dup3\n        /* \"#utility.yul\":1665:1675   */\n      swap6\n      pop\n        /* \"#utility.yul\":1013:1681   */\n      pop\n      pop\n      pop\n      pop\n      pop\n        /* \"#utility.yul\":970:1681   */\n    tag_39:\n      swap1\n      jump\t// out\n    stop\n\n    sub_0: assembly {\n            /* \"TryCatchErrorHandling.sol\":26:145  contract WillThrow {\r... */\n          mstore(0x40, 0x80)\n          callvalue\n          dup1\n          iszero\n          tag_1\n          jumpi\n          0x00\n          dup1\n          revert\n        tag_1:\n          pop\n          dataSize(sub_0)\n          dup1\n          dataOffset(sub_0)\n          0x00\n          codecopy\n          0x00\n          return\n        stop\n\n        sub_0: assembly {\n                /* \"TryCatchErrorHandling.sol\":26:145  contract WillThrow {\r... */\n              mstore(0x40, 0x80)\n              callvalue\n              dup1\n              iszero\n              tag_1\n              jumpi\n              0x00\n              dup1\n              revert\n            tag_1:\n              pop\n              jumpi(tag_2, lt(calldatasize, 0x04))\n              shr(0xe0, calldataload(0x00))\n              dup1\n              0x39c117a4\n              eq\n              tag_3\n              jumpi\n            tag_2:\n              0x00\n              dup1\n              revert\n                /* \"TryCatchErrorHandling.sol\":60:141  function aFunction() public {\r... */\n            tag_3:\n              tag_4\n              tag_5\n              jump\t// in\n            tag_4:\n              stop\n            tag_5:\n                /* \"TryCatchErrorHandling.sol\":109:114  false */\n              0x00\n                /* \"TryCatchErrorHandling.sol\":100:132  require (false, \"Error Message\") */\n              tag_7\n              jumpi\n              mload(0x40)\n              0x08c379a000000000000000000000000000000000000000000000000000000000\n              dup2\n              mstore\n              0x04\n              add\n              tag_8\n              swap1\n              tag_9\n              jump\t// in\n            tag_8:\n              mload(0x40)\n              dup1\n              swap2\n              sub\n              swap1\n              revert\n            tag_7:\n                /* \"TryCatchErrorHandling.sol\":60:141  function aFunction() public {\r... */\n              jump\t// out\n                /* \"#utility.yul\":7:373   */\n            tag_11:\n                /* \"#utility.yul\":149:152   */\n              0x00\n                /* \"#utility.yul\":170:237   */\n              tag_13\n                /* \"#utility.yul\":234:236   */\n              0x0d\n                /* \"#utility.yul\":229:232   */\n              dup4\n                /* \"#utility.yul\":170:237   */\n              tag_14\n              jump\t// in\n            tag_13:\n                /* \"#utility.yul\":163:237   */\n              swap2\n              pop\n                /* \"#utility.yul\":246:339   */\n              tag_15\n                /* \"#utility.yul\":335:338   */\n              dup3\n                /* \"#utility.yul\":246:339   */\n              tag_16\n              jump\t// in\n            tag_15:\n                /* \"#utility.yul\":364:366   */\n              0x20\n                /* \"#utility.yul\":359:362   */\n              dup3\n                /* \"#utility.yul\":355:367   */\n              add\n                /* \"#utility.yul\":348:367   */\n              swap1\n              pop\n                /* \"#utility.yul\":7:373   */\n              swap2\n              swap1\n              pop\n              jump\t// out\n                /* \"#utility.yul\":379:798   */\n            tag_9:\n                /* \"#utility.yul\":545:549   */\n              0x00\n                /* \"#utility.yul\":583:585   */\n              0x20\n                /* \"#utility.yul\":572:581   */\n              dup3\n                /* \"#utility.yul\":568:586   */\n              add\n                /* \"#utility.yul\":560:586   */\n              swap1\n              pop\n                /* \"#utility.yul\":632:641   */\n              dup2\n                /* \"#utility.yul\":626:630   */\n              dup2\n                /* \"#utility.yul\":622:642   */\n              sub\n                /* \"#utility.yul\":618:619   */\n              0x00\n                /* \"#utility.yul\":607:616   */\n              dup4\n                /* \"#utility.yul\":603:620   */\n              add\n                /* \"#utility.yul\":596:643   */\n              mstore\n                /* \"#utility.yul\":660:791   */\n              tag_18\n                /* \"#utility.yul\":786:790   */\n              dup2\n                /* \"#utility.yul\":660:791   */\n              tag_11\n              jump\t// in\n            tag_18:\n                /* \"#utility.yul\":652:791   */\n              swap1\n              pop\n                /* \"#utility.yul\":379:798   */\n              swap2\n              swap1\n              pop\n              jump\t// out\n                /* \"#utility.yul\":804:973   */\n            tag_14:\n                /* \"#utility.yul\":888:899   */\n              0x00\n                /* \"#utility.yul\":922:928   */\n              dup3\n                /* \"#utility.yul\":917:920   */\n              dup3\n                /* \"#utility.yul\":910:929   */\n              mstore\n                /* \"#utility.yul\":962:966   */\n              0x20\n                /* \"#utility.yul\":957:960   */\n              dup3\n                /* \"#utility.yul\":953:967   */\n              add\n                /* \"#utility.yul\":938:967   */\n              swap1\n              pop\n                /* \"#utility.yul\":804:973   */\n              swap3\n              swap2\n              pop\n              pop\n              jump\t// out\n                /* \"#utility.yul\":979:1142   */\n            tag_16:\n                /* \"#utility.yul\":1119:1134   */\n              0x4572726f72204d65737361676500000000000000000000000000000000000000\n                /* \"#utility.yul\":1115:1116   */\n              0x00\n                /* \"#utility.yul\":1107:1113   */\n              dup3\n                /* \"#utility.yul\":1103:1117   */\n              add\n                /* \"#utility.yul\":1096:1135   */\n              mstore\n                /* \"#utility.yul\":979:1142   */\n              pop\n              jump\t// out\n\n            auxdata: 0xa2646970667358221220de3561f81f3b6619ecec4ec57a7e8be87354b56bb6db237fee41932b7cfc099a64736f6c63430008070033\n        }\n    }\n\n    auxdata: 0xa26469706673582212201ba51235b61768336360e44f71b1188bab459de246b2a46ac39c3a61886649b364736f6c63430008070033\n}\n",
				"bytecode": {
					"linkReferences": {},
					"object": "608060405234801561001057600080fd5b506103cc806100206000396000f3fe608060405234801561001057600080fd5b506004361061002b5760003560e01c80638b18851614610030575b600080fd5b61003861003a565b005b600060405161004890610107565b604051809103906000f080158015610064573d6000803e3d6000fd5b5090508073ffffffffffffffffffffffffffffffffffffffff166339c117a46040518163ffffffff1660e01b8152600401600060405180830381600087803b1580156100af57600080fd5b505af19250505080156100c0575060015b610103576100cc61017e565b806308c379a014156100f257506100e16101be565b806100ec57506100f4565b506100fe565b505b3d6000803e3d6000fd5b610104565b5b50565b6101428061025583390190565b6000604051905090565b610127826101a0565b810181811067ffffffffffffffff821117156101465761014561014f565b5b80604052505050565b7f4e487b7100000000000000000000000000000000000000000000000000000000600052604160045260246000fd5b600060033d111561019d5760046000803e61019a6000516101b1565b90505b90565b6000601f19601f8301169050919050565b60008160e01c9050919050565b600060443d10156101ce57610251565b6101d6610114565b60043d036004823e80513d602482011167ffffffffffffffff821117156101fe575050610251565b808201805167ffffffffffffffff81111561021c5750505050610251565b80602083010160043d038501811115610239575050505050610251565b6102488260200185018661011e565b82955050505050505b9056fe608060405234801561001057600080fd5b50610122806100206000396000f3fe6080604052348015600f57600080fd5b506004361060285760003560e01c806339c117a414602d575b600080fd5b60336035565b005b60006073576040517f08c379a0000000000000000000000000000000000000000000000000000000008152600401606a906094565b60405180910390fd5b565b60006080600d8360b2565b915060898260c3565b602082019050919050565b6000602082019050818103600083015260ab816075565b9050919050565b600082825260208201905092915050565b7f4572726f72204d6573736167650000000000000000000000000000000000000060008201525056fea2646970667358221220de3561f81f3b6619ecec4ec57a7e8be87354b56bb6db237fee41932b7cfc099a64736f6c63430008070033a26469706673582212201ba51235b61768336360e44f71b1188bab459de246b2a46ac39c3a61886649b364736f6c63430008070033",
					"opcodes": "PUSH1 0x80 PUSH1 0x40 MSTORE CALLVALUE DUP1 ISZERO PUSH2 0x10 JUMPI PUSH1 0x0 DUP1 REVERT JUMPDEST POP PUSH2 0x3CC DUP1 PUSH2 0x20 PUSH1 0x0 CODECOPY PUSH1 0x0 RETURN INVALID PUSH1 0x80 PUSH1 0x40 MSTORE CALLVALUE DUP1 ISZERO PUSH2 0x10 JUMPI PUSH1 0x0 DUP1 REVERT JUMPDEST POP PUSH1 0x4 CALLDATASIZE LT PUSH2 0x2B JUMPI PUSH1 0x0 CALLDATALOAD PUSH1 0xE0 SHR DUP1 PUSH4 0x8B188516 EQ PUSH2 0x30 JUMPI JUMPDEST PUSH1 0x0 DUP1 REVERT JUMPDEST PUSH2 0x38 PUSH2 0x3A JUMP JUMPDEST STOP JUMPDEST PUSH1 0x0 PUSH1 0x40 MLOAD PUSH2 0x48 SWAP1 PUSH2 0x107 JUMP JUMPDEST PUSH1 0x40 MLOAD DUP1 SWAP2 SUB SWAP1 PUSH1 0x0 CREATE DUP1 ISZERO DUP1 ISZERO PUSH2 0x64 JUMPI RETURNDATASIZE PUSH1 0x0 DUP1 RETURNDATACOPY RETURNDATASIZE PUSH1 0x0 REVERT JUMPDEST POP SWAP1 POP DUP1 PUSH20 0xFFFFFFFFFFFFFFFFFFFFFFFFFFFFFFFFFFFFFFFF AND PUSH4 0x39C117A4 PUSH1 0x40 MLOAD DUP2 PUSH4 0xFFFFFFFF AND PUSH1 0xE0 SHL DUP2 MSTORE PUSH1 0x4 ADD PUSH1 0x0 PUSH1 0x40 MLOAD DUP1 DUP4 SUB DUP2 PUSH1 0x0 DUP8 DUP1 EXTCODESIZE ISZERO DUP1 ISZERO PUSH2 0xAF JUMPI PUSH1 0x0 DUP1 REVERT JUMPDEST POP GAS CALL SWAP3 POP POP POP DUP1 ISZERO PUSH2 0xC0 JUMPI POP PUSH1 0x1 JUMPDEST PUSH2 0x103 JUMPI PUSH2 0xCC PUSH2 0x17E JUMP JUMPDEST DUP1 PUSH4 0x8C379A0 EQ ISZERO PUSH2 0xF2 JUMPI POP PUSH2 0xE1 PUSH2 0x1BE JUMP JUMPDEST DUP1 PUSH2 0xEC JUMPI POP PUSH2 0xF4 JUMP JUMPDEST POP PUSH2 0xFE JUMP JUMPDEST POP JUMPDEST RETURNDATASIZE PUSH1 0x0 DUP1 RETURNDATACOPY RETURNDATASIZE PUSH1 0x0 REVERT JUMPDEST PUSH2 0x104 JUMP JUMPDEST JUMPDEST POP JUMP JUMPDEST PUSH2 0x142 DUP1 PUSH2 0x255 DUP4 CODECOPY ADD SWAP1 JUMP JUMPDEST PUSH1 0x0 PUSH1 0x40 MLOAD SWAP1 POP SWAP1 JUMP JUMPDEST PUSH2 0x127 DUP3 PUSH2 0x1A0 JUMP JUMPDEST DUP2 ADD DUP2 DUP2 LT PUSH8 0xFFFFFFFFFFFFFFFF DUP3 GT OR ISZERO PUSH2 0x146 JUMPI PUSH2 0x145 PUSH2 0x14F JUMP JUMPDEST JUMPDEST DUP1 PUSH1 0x40 MSTORE POP POP POP JUMP JUMPDEST PUSH32 0x4E487B7100000000000000000000000000000000000000000000000000000000 PUSH1 0x0 MSTORE PUSH1 0x41 PUSH1 0x4 MSTORE PUSH1 0x24 PUSH1 0x0 REVERT JUMPDEST PUSH1 0x0 PUSH1 0x3 RETURNDATASIZE GT ISZERO PUSH2 0x19D JUMPI PUSH1 0x4 PUSH1 0x0 DUP1 RETURNDATACOPY PUSH2 0x19A PUSH1 0x0 MLOAD PUSH2 0x1B1 JUMP JUMPDEST SWAP1 POP JUMPDEST SWAP1 JUMP JUMPDEST PUSH1 0x0 PUSH1 0x1F NOT PUSH1 0x1F DUP4 ADD AND SWAP1 POP SWAP2 SWAP1 POP JUMP JUMPDEST PUSH1 0x0 DUP2 PUSH1 0xE0 SHR SWAP1 POP SWAP2 SWAP1 POP JUMP JUMPDEST PUSH1 0x0 PUSH1 0x44 RETURNDATASIZE LT ISZERO PUSH2 0x1CE JUMPI PUSH2 0x251 JUMP JUMPDEST PUSH2 0x1D6 PUSH2 0x114 JUMP JUMPDEST PUSH1 0x4 RETURNDATASIZE SUB PUSH1 0x4 DUP3 RETURNDATACOPY DUP1 MLOAD RETURNDATASIZE PUSH1 0x24 DUP3 ADD GT PUSH8 0xFFFFFFFFFFFFFFFF DUP3 GT OR ISZERO PUSH2 0x1FE JUMPI POP POP PUSH2 0x251 JUMP JUMPDEST DUP1 DUP3 ADD DUP1 MLOAD PUSH8 0xFFFFFFFFFFFFFFFF DUP2 GT ISZERO PUSH2 0x21C JUMPI POP POP POP POP PUSH2 0x251 JUMP JUMPDEST DUP1 PUSH1 0x20 DUP4 ADD ADD PUSH1 0x4 RETURNDATASIZE SUB DUP6 ADD DUP2 GT ISZERO PUSH2 0x239 JUMPI POP POP POP POP POP PUSH2 0x251 JUMP JUMPDEST PUSH2 0x248 DUP3 PUSH1 0x20 ADD DUP6 ADD DUP7 PUSH2 0x11E JUMP JUMPDEST DUP3 SWAP6 POP POP POP POP POP POP JUMPDEST SWAP1 JUMP INVALID PUSH1 0x80 PUSH1 0x40 MSTORE CALLVALUE DUP1 ISZERO PUSH2 0x10 JUMPI PUSH1 0x0 DUP1 REVERT JUMPDEST POP PUSH2 0x122 DUP1 PUSH2 0x20 PUSH1 0x0 CODECOPY PUSH1 0x0 RETURN INVALID PUSH1 0x80 PUSH1 0x40 MSTORE CALLVALUE DUP1 ISZERO PUSH1 0xF JUMPI PUSH1 0x0 DUP1 REVERT JUMPDEST POP PUSH1 0x4 CALLDATASIZE LT PUSH1 0x28 JUMPI PUSH1 0x0 CALLDATALOAD PUSH1 0xE0 SHR DUP1 PUSH4 0x39C117A4 EQ PUSH1 0x2D JUMPI JUMPDEST PUSH1 0x0 DUP1 REVERT JUMPDEST PUSH1 0x33 PUSH1 0x35 JUMP JUMPDEST STOP JUMPDEST PUSH1 0x0 PUSH1 0x73 JUMPI PUSH1 0x40 MLOAD PUSH32 0x8C379A000000000000000000000000000000000000000000000000000000000 DUP2 MSTORE PUSH1 0x4 ADD PUSH1 0x6A SWAP1 PUSH1 0x94 JUMP JUMPDEST PUSH1 0x40 MLOAD DUP1 SWAP2 SUB SWAP1 REVERT JUMPDEST JUMP JUMPDEST PUSH1 0x0 PUSH1 0x80 PUSH1 0xD DUP4 PUSH1 0xB2 JUMP JUMPDEST SWAP2 POP PUSH1 0x89 DUP3 PUSH1 0xC3 JUMP JUMPDEST PUSH1 0x20 DUP3 ADD SWAP1 POP SWAP2 SWAP1 POP JUMP JUMPDEST PUSH1 0x0 PUSH1 0x20 DUP3 ADD SWAP1 POP DUP2 DUP2 SUB PUSH1 0x0 DUP4 ADD MSTORE PUSH1 0xAB DUP2 PUSH1 0x75 JUMP JUMPDEST SWAP1 POP SWAP2 SWAP1 POP JUMP JUMPDEST PUSH1 0x0 DUP3 DUP3 MSTORE PUSH1 0x20 DUP3 ADD SWAP1 POP SWAP3 SWAP2 POP POP JUMP JUMPDEST PUSH32 0x4572726F72204D65737361676500000000000000000000000000000000000000 PUSH1 0x0 DUP3 ADD MSTORE POP JUMP INVALID LOG2 PUSH5 0x6970667358 0x22 SLT KECCAK256 0xDE CALLDATALOAD PUSH2 0xF81F EXTCODESIZE PUSH7 0x19ECEC4EC57A7E DUP12 0xE8 PUSH20 0x54B56BB6DB237FEE41932B7CFC099A64736F6C63 NUMBER STOP ADDMOD SMOD STOP CALLER LOG2 PUSH5 0x6970667358 0x22 SLT KECCAK256 SHL 0xA5 SLT CALLDATALOAD 0xB6 OR PUSH9 0x336360E44F71B1188B 0xAB GASLIMIT SWAP14 0xE2 CHAINID 0xB2 LOG4 PUSH11 0xC39C3A61886649B364736F PUSH13 0x63430008070033000000000000 "
				},
				"gasEstimates": {
					"creation": {
						"codeDepositCost": "194400",
						"executionCost": "238",
						"totalCost": "194638"
					},
					"external": {
						"catchError()": "infinite"
					}
				},
				"methodIdentifiers": {
					"catchError()": "8b188516"
				}
			},
			"storageLayout": {
				"storage": [],
				"types": null
			},
			"userdoc": {
				"kind": "user",
				"methods": {},
				"version": 1
			}
		}
	}
}