{
	"InheritanceModifierExample.sol": {
		"InheritanceModifierExample": {
			"abi": [
				{
					"inputs": [],
					"stateMutability": "nonpayable",
					"type": "constructor"
				},
				{
					"inputs": [],
					"name": "burnToken",
					"outputs": [],
					"stateMutability": "nonpayable",
					"type": "function"
				},
				{
					"inputs": [],
					"name": "createNewToken",
					"outputs": [],
					"stateMutability": "nonpayable",
					"type": "function"
				},
				{
					"inputs": [],
					"name": "purchaseToken",
					"outputs": [],
					"stateMutability": "payable",
					"type": "function"
				},
				{
					"inputs": [
						{
							"internalType": "address",
							"name": "_to",
							"type": "address"
						},
						{
							"internalType": "uint256",
							"name": "_amount",
							"type": "uint256"
						}
					],
					"name": "sendToken",
					"outputs": [],
					"stateMutability": "nonpayable",
					"type": "function"
				},
				{
					"inputs": [
						{
							"internalType": "address",
							"name": "",
							"type": "address"
						}
					],
					"name": "tokenBalance",
					"outputs": [
						{
							"internalType": "uint256",
							"name": "",
							"type": "uint256"
						}
					],
					"stateMutability": "view",
					"type": "function"
				}
			],
			"devdoc": {
				"kind": "dev",
				"methods": {},
				"version": 1
			},
			"evm": {
				"assembly": "    /* \"InheritanceModifierExample.sol\":27:1308  contract InheritanceModifierExample {\r... */\n  mstore(0x40, 0x80)\n    /* \"InheritanceModifierExample.sol\":166:173  1 ether */\n  0x0de0b6b3a7640000\n    /* \"InheritanceModifierExample.sol\":148:173  uint tokenPrice = 1 ether */\n  0x02\n  sstore\n    /* \"InheritanceModifierExample.sol\":182:276  constructor () public {\r... */\n  callvalue\n  dup1\n  iszero\n  tag_1\n  jumpi\n  0x00\n  dup1\n  revert\ntag_1:\n  pop\n    /* \"InheritanceModifierExample.sol\":223:233  msg.sender */\n  caller\n    /* \"InheritanceModifierExample.sol\":215:220  owner */\n  0x01\n  0x00\n    /* \"InheritanceModifierExample.sol\":215:233  owner = msg.sender */\n  0x0100\n  exp\n  dup2\n  sload\n  dup2\n  0xffffffffffffffffffffffffffffffffffffffff\n  mul\n  not\n  and\n  swap1\n  dup4\n  0xffffffffffffffffffffffffffffffffffffffff\n  and\n  mul\n  or\n  swap1\n  sstore\n  pop\n    /* \"InheritanceModifierExample.sol\":265:268  100 */\n  0x64\n    /* \"InheritanceModifierExample.sol\":244:256  tokenBalance */\n  0x00\n    /* \"InheritanceModifierExample.sol\":244:263  tokenBalance[owner] */\n  dup1\n    /* \"InheritanceModifierExample.sol\":257:262  owner */\n  0x01\n  0x00\n  swap1\n  sload\n  swap1\n  0x0100\n  exp\n  swap1\n  div\n  0xffffffffffffffffffffffffffffffffffffffff\n  and\n    /* \"InheritanceModifierExample.sol\":244:263  tokenBalance[owner] */\n  0xffffffffffffffffffffffffffffffffffffffff\n  and\n  0xffffffffffffffffffffffffffffffffffffffff\n  and\n  dup2\n  mstore\n  0x20\n  add\n  swap1\n  dup2\n  mstore\n  0x20\n  add\n  0x00\n  keccak256\n    /* \"InheritanceModifierExample.sol\":244:268  tokenBalance[owner] =100 */\n  dup2\n  swap1\n  sstore\n  pop\n    /* \"InheritanceModifierExample.sol\":27:1308  contract InheritanceModifierExample {\r... */\n  dataSize(sub_0)\n  dup1\n  dataOffset(sub_0)\n  0x00\n  codecopy\n  0x00\n  return\nstop\n\nsub_0: assembly {\n        /* \"InheritanceModifierExample.sol\":27:1308  contract InheritanceModifierExample {\r... */\n      mstore(0x40, 0x80)\n      jumpi(tag_1, lt(calldatasize, 0x04))\n      shr(0xe0, calldataload(0x00))\n      dup1\n      0x412664ae\n      eq\n      tag_2\n      jumpi\n      dup1\n      0x754fc38c\n      eq\n      tag_3\n      jumpi\n      dup1\n      0xa95c4d62\n      eq\n      tag_4\n      jumpi\n      dup1\n      0xeedc966a\n      eq\n      tag_5\n      jumpi\n      dup1\n      0xfaa0a264\n      eq\n      tag_6\n      jumpi\n    tag_1:\n      0x00\n      dup1\n      revert\n        /* \"InheritanceModifierExample.sol\":926:1299  function sendToken(address _to, uint _amount) public {\r... */\n    tag_2:\n      callvalue\n      dup1\n      iszero\n      tag_7\n      jumpi\n      0x00\n      dup1\n      revert\n    tag_7:\n      pop\n      tag_8\n      0x04\n      dup1\n      calldatasize\n      sub\n      dup2\n      add\n      swap1\n      tag_9\n      swap2\n      swap1\n      tag_10\n      jump\t// in\n    tag_9:\n      tag_11\n      jump\t// in\n    tag_8:\n      stop\n        /* \"InheritanceModifierExample.sol\":390:526  function createNewToken () public {\r... */\n    tag_3:\n      callvalue\n      dup1\n      iszero\n      tag_12\n      jumpi\n      0x00\n      dup1\n      revert\n    tag_12:\n      pop\n      tag_13\n      tag_14\n      jump\t// in\n    tag_13:\n      stop\n        /* \"InheritanceModifierExample.sol\":673:918  function purchaseToken() public payable {\r... */\n    tag_4:\n      tag_15\n      tag_16\n      jump\t// in\n    tag_15:\n      stop\n        /* \"InheritanceModifierExample.sol\":76:121  mapping (address => uint) public tokenBalance */\n    tag_5:\n      callvalue\n      dup1\n      iszero\n      tag_17\n      jumpi\n      0x00\n      dup1\n      revert\n    tag_17:\n      pop\n      tag_18\n      0x04\n      dup1\n      calldatasize\n      sub\n      dup2\n      add\n      swap1\n      tag_19\n      swap2\n      swap1\n      tag_20\n      jump\t// in\n    tag_19:\n      tag_21\n      jump\t// in\n    tag_18:\n      mload(0x40)\n      tag_22\n      swap2\n      swap1\n      tag_23\n      jump\t// in\n    tag_22:\n      mload(0x40)\n      dup1\n      swap2\n      sub\n      swap1\n      return\n        /* \"InheritanceModifierExample.sol\":534:665  function burnToken () public {\r... */\n    tag_6:\n      callvalue\n      dup1\n      iszero\n      tag_24\n      jumpi\n      0x00\n      dup1\n      revert\n    tag_24:\n      pop\n      tag_25\n      tag_26\n      jump\t// in\n    tag_25:\n      stop\n        /* \"InheritanceModifierExample.sol\":926:1299  function sendToken(address _to, uint _amount) public {\r... */\n    tag_11:\n        /* \"InheritanceModifierExample.sol\":1026:1033  _amount */\n      dup1\n        /* \"InheritanceModifierExample.sol\":999:1011  tokenBalance */\n      0x00\n        /* \"InheritanceModifierExample.sol\":999:1023  tokenBalance[msg.sender] */\n      dup1\n        /* \"InheritanceModifierExample.sol\":1012:1022  msg.sender */\n      caller\n        /* \"InheritanceModifierExample.sol\":999:1023  tokenBalance[msg.sender] */\n      0xffffffffffffffffffffffffffffffffffffffff\n      and\n      0xffffffffffffffffffffffffffffffffffffffff\n      and\n      dup2\n      mstore\n      0x20\n      add\n      swap1\n      dup2\n      mstore\n      0x20\n      add\n      0x00\n      keccak256\n      sload\n        /* \"InheritanceModifierExample.sol\":999:1033  tokenBalance[msg.sender]>= _amount */\n      lt\n      iszero\n        /* \"InheritanceModifierExample.sol\":990:1054  require (tokenBalance[msg.sender]>= _amount, \"Not enough funds\") */\n      tag_28\n      jumpi\n      mload(0x40)\n      0x08c379a000000000000000000000000000000000000000000000000000000000\n      dup2\n      mstore\n      0x04\n      add\n      tag_29\n      swap1\n      tag_30\n      jump\t// in\n    tag_29:\n      mload(0x40)\n      dup1\n      swap2\n      sub\n      swap1\n      revert\n    tag_28:\n        /* \"InheritanceModifierExample.sol\":1104:1116  tokenBalance */\n      0x00\n        /* \"InheritanceModifierExample.sol\":1104:1121  tokenBalance[_to] */\n      dup1\n        /* \"InheritanceModifierExample.sol\":1117:1120  _to */\n      dup4\n        /* \"InheritanceModifierExample.sol\":1104:1121  tokenBalance[_to] */\n      0xffffffffffffffffffffffffffffffffffffffff\n      and\n      0xffffffffffffffffffffffffffffffffffffffff\n      and\n      dup2\n      mstore\n      0x20\n      add\n      swap1\n      dup2\n      mstore\n      0x20\n      add\n      0x00\n      keccak256\n      sload\n        /* \"InheritanceModifierExample.sol\":1093:1100  _amount */\n      dup2\n        /* \"InheritanceModifierExample.sol\":1073:1085  tokenBalance */\n      0x00\n        /* \"InheritanceModifierExample.sol\":1073:1090  tokenBalance[_to] */\n      dup1\n        /* \"InheritanceModifierExample.sol\":1086:1089  _to */\n      dup6\n        /* \"InheritanceModifierExample.sol\":1073:1090  tokenBalance[_to] */\n      0xffffffffffffffffffffffffffffffffffffffff\n      and\n      0xffffffffffffffffffffffffffffffffffffffff\n      and\n      dup2\n      mstore\n      0x20\n      add\n      swap1\n      dup2\n      mstore\n      0x20\n      add\n      0x00\n      keccak256\n      sload\n        /* \"InheritanceModifierExample.sol\":1073:1100  tokenBalance[_to] + _amount */\n      tag_31\n      swap2\n      swap1\n      tag_32\n      jump\t// in\n    tag_31:\n        /* \"InheritanceModifierExample.sol\":1073:1121  tokenBalance[_to] + _amount >= tokenBalance[_to] */\n      lt\n      iszero\n        /* \"InheritanceModifierExample.sol\":1065:1122  assert (tokenBalance[_to] + _amount >= tokenBalance[_to]) */\n      tag_33\n      jumpi\n      tag_34\n      tag_35\n      jump\t// in\n    tag_34:\n    tag_33:\n        /* \"InheritanceModifierExample.sol\":1180:1192  tokenBalance */\n      0x00\n        /* \"InheritanceModifierExample.sol\":1180:1204  tokenBalance[msg.sender] */\n      dup1\n        /* \"InheritanceModifierExample.sol\":1193:1203  msg.sender */\n      caller\n        /* \"InheritanceModifierExample.sol\":1180:1204  tokenBalance[msg.sender] */\n      0xffffffffffffffffffffffffffffffffffffffff\n      and\n      0xffffffffffffffffffffffffffffffffffffffff\n      and\n      dup2\n      mstore\n      0x20\n      add\n      swap1\n      dup2\n      mstore\n      0x20\n      add\n      0x00\n      keccak256\n      sload\n        /* \"InheritanceModifierExample.sol\":1169:1176  _amount */\n      dup2\n        /* \"InheritanceModifierExample.sol\":1141:1153  tokenBalance */\n      0x00\n        /* \"InheritanceModifierExample.sol\":1141:1166  tokenBalance [msg.sender] */\n      dup1\n        /* \"InheritanceModifierExample.sol\":1155:1165  msg.sender */\n      caller\n        /* \"InheritanceModifierExample.sol\":1141:1166  tokenBalance [msg.sender] */\n      0xffffffffffffffffffffffffffffffffffffffff\n      and\n      0xffffffffffffffffffffffffffffffffffffffff\n      and\n      dup2\n      mstore\n      0x20\n      add\n      swap1\n      dup2\n      mstore\n      0x20\n      add\n      0x00\n      keccak256\n      sload\n        /* \"InheritanceModifierExample.sol\":1141:1176  tokenBalance [msg.sender] - _amount */\n      tag_36\n      swap2\n      swap1\n      tag_37\n      jump\t// in\n    tag_36:\n        /* \"InheritanceModifierExample.sol\":1141:1204  tokenBalance [msg.sender] - _amount <= tokenBalance[msg.sender] */\n      gt\n      iszero\n        /* \"InheritanceModifierExample.sol\":1133:1205  assert (tokenBalance [msg.sender] - _amount <= tokenBalance[msg.sender]) */\n      tag_38\n      jumpi\n      tag_39\n      tag_35\n      jump\t// in\n    tag_39:\n    tag_38:\n        /* \"InheritanceModifierExample.sol\":1245:1252  _amount */\n      dup1\n        /* \"InheritanceModifierExample.sol\":1218:1230  tokenBalance */\n      0x00\n        /* \"InheritanceModifierExample.sol\":1218:1242  tokenBalance[msg.sender] */\n      dup1\n        /* \"InheritanceModifierExample.sol\":1231:1241  msg.sender */\n      caller\n        /* \"InheritanceModifierExample.sol\":1218:1242  tokenBalance[msg.sender] */\n      0xffffffffffffffffffffffffffffffffffffffff\n      and\n      0xffffffffffffffffffffffffffffffffffffffff\n      and\n      dup2\n      mstore\n      0x20\n      add\n      swap1\n      dup2\n      mstore\n      0x20\n      add\n      0x00\n      keccak256\n      0x00\n        /* \"InheritanceModifierExample.sol\":1218:1252  tokenBalance[msg.sender]-= _amount */\n      dup3\n      dup3\n      sload\n      tag_40\n      swap2\n      swap1\n      tag_37\n      jump\t// in\n    tag_40:\n      swap3\n      pop\n      pop\n      dup2\n      swap1\n      sstore\n      pop\n        /* \"InheritanceModifierExample.sol\":1284:1291  _amount */\n      dup1\n        /* \"InheritanceModifierExample.sol\":1263:1275  tokenBalance */\n      0x00\n        /* \"InheritanceModifierExample.sol\":1263:1280  tokenBalance[_to] */\n      dup1\n        /* \"InheritanceModifierExample.sol\":1276:1279  _to */\n      dup5\n        /* \"InheritanceModifierExample.sol\":1263:1280  tokenBalance[_to] */\n      0xffffffffffffffffffffffffffffffffffffffff\n      and\n      0xffffffffffffffffffffffffffffffffffffffff\n      and\n      dup2\n      mstore\n      0x20\n      add\n      swap1\n      dup2\n      mstore\n      0x20\n      add\n      0x00\n      keccak256\n      0x00\n        /* \"InheritanceModifierExample.sol\":1263:1291  tokenBalance[_to] += _amount */\n      dup3\n      dup3\n      sload\n      tag_41\n      swap2\n      swap1\n      tag_32\n      jump\t// in\n    tag_41:\n      swap3\n      pop\n      pop\n      dup2\n      swap1\n      sstore\n      pop\n        /* \"InheritanceModifierExample.sol\":926:1299  function sendToken(address _to, uint _amount) public {\r... */\n      pop\n      pop\n      jump\t// out\n        /* \"InheritanceModifierExample.sol\":390:526  function createNewToken () public {\r... */\n    tag_14:\n        /* \"InheritanceModifierExample.sol\":455:460  owner */\n      0x01\n      0x00\n      swap1\n      sload\n      swap1\n      0x0100\n      exp\n      swap1\n      div\n      0xffffffffffffffffffffffffffffffffffffffff\n      and\n        /* \"InheritanceModifierExample.sol\":443:460  msg.sender==owner */\n      0xffffffffffffffffffffffffffffffffffffffff\n      and\n        /* \"InheritanceModifierExample.sol\":443:453  msg.sender */\n      caller\n        /* \"InheritanceModifierExample.sol\":443:460  msg.sender==owner */\n      0xffffffffffffffffffffffffffffffffffffffff\n      and\n      eq\n        /* \"InheritanceModifierExample.sol\":435:486  require(msg.sender==owner, \"You are not the owner\") */\n      tag_43\n      jumpi\n      mload(0x40)\n      0x08c379a000000000000000000000000000000000000000000000000000000000\n      dup2\n      mstore\n      0x04\n      add\n      tag_44\n      swap1\n      tag_45\n      jump\t// in\n    tag_44:\n      mload(0x40)\n      dup1\n      swap2\n      sub\n      swap1\n      revert\n    tag_43:\n        /* \"InheritanceModifierExample.sol\":497:509  tokenBalance */\n      0x00\n        /* \"InheritanceModifierExample.sol\":497:516  tokenBalance[owner] */\n      dup1\n        /* \"InheritanceModifierExample.sol\":510:515  owner */\n      0x01\n      0x00\n      swap1\n      sload\n      swap1\n      0x0100\n      exp\n      swap1\n      div\n      0xffffffffffffffffffffffffffffffffffffffff\n      and\n        /* \"InheritanceModifierExample.sol\":497:516  tokenBalance[owner] */\n      0xffffffffffffffffffffffffffffffffffffffff\n      and\n      0xffffffffffffffffffffffffffffffffffffffff\n      and\n      dup2\n      mstore\n      0x20\n      add\n      swap1\n      dup2\n      mstore\n      0x20\n      add\n      0x00\n      keccak256\n      0x00\n        /* \"InheritanceModifierExample.sol\":497:518  tokenBalance[owner]++ */\n      dup2\n      sload\n      dup1\n      swap3\n      swap2\n      swap1\n      tag_46\n      swap1\n      tag_47\n      jump\t// in\n    tag_46:\n      swap2\n      swap1\n      pop\n      sstore\n      pop\n        /* \"InheritanceModifierExample.sol\":390:526  function createNewToken () public {\r... */\n      jump\t// out\n        /* \"InheritanceModifierExample.sol\":673:918  function purchaseToken() public payable {\r... */\n    tag_16:\n        /* \"InheritanceModifierExample.sol\":778:779  0 */\n      0x00\n        /* \"InheritanceModifierExample.sol\":766:775  msg.value */\n      callvalue\n        /* \"InheritanceModifierExample.sol\":754:764  tokenPrice */\n      sload(0x02)\n        /* \"InheritanceModifierExample.sol\":734:746  tokenBalance */\n      0x00\n        /* \"InheritanceModifierExample.sol\":734:753  tokenBalance[owner] */\n      dup1\n        /* \"InheritanceModifierExample.sol\":747:752  owner */\n      0x01\n      0x00\n      swap1\n      sload\n      swap1\n      0x0100\n      exp\n      swap1\n      div\n      0xffffffffffffffffffffffffffffffffffffffff\n      and\n        /* \"InheritanceModifierExample.sol\":734:753  tokenBalance[owner] */\n      0xffffffffffffffffffffffffffffffffffffffff\n      and\n      0xffffffffffffffffffffffffffffffffffffffff\n      and\n      dup2\n      mstore\n      0x20\n      add\n      swap1\n      dup2\n      mstore\n      0x20\n      add\n      0x00\n      keccak256\n      sload\n        /* \"InheritanceModifierExample.sol\":734:764  tokenBalance[owner]*tokenPrice */\n      tag_49\n      swap2\n      swap1\n      tag_50\n      jump\t// in\n    tag_49:\n        /* \"InheritanceModifierExample.sol\":733:775  (tokenBalance[owner]*tokenPrice)/msg.value */\n      tag_51\n      swap2\n      swap1\n      tag_52\n      jump\t// in\n    tag_51:\n        /* \"InheritanceModifierExample.sol\":733:779  (tokenBalance[owner]*tokenPrice)/msg.value > 0 */\n      gt\n        /* \"InheritanceModifierExample.sol\":724:801  require ((tokenBalance[owner]*tokenPrice)/msg.value > 0, \"not enough tokens\") */\n      tag_53\n      jumpi\n      mload(0x40)\n      0x08c379a000000000000000000000000000000000000000000000000000000000\n      dup2\n      mstore\n      0x04\n      add\n      tag_54\n      swap1\n      tag_55\n      jump\t// in\n    tag_54:\n      mload(0x40)\n      dup1\n      swap2\n      sub\n      swap1\n      revert\n    tag_53:\n        /* \"InheritanceModifierExample.sol\":843:853  tokenPrice */\n      sload(0x02)\n        /* \"InheritanceModifierExample.sol\":833:842  msg.value */\n      callvalue\n        /* \"InheritanceModifierExample.sol\":833:853  msg.value/tokenPrice */\n      tag_56\n      swap2\n      swap1\n      tag_52\n      jump\t// in\n    tag_56:\n        /* \"InheritanceModifierExample.sol\":812:824  tokenBalance */\n      0x00\n        /* \"InheritanceModifierExample.sol\":812:831  tokenBalance[owner] */\n      dup1\n        /* \"InheritanceModifierExample.sol\":825:830  owner */\n      0x01\n      0x00\n      swap1\n      sload\n      swap1\n      0x0100\n      exp\n      swap1\n      div\n      0xffffffffffffffffffffffffffffffffffffffff\n      and\n        /* \"InheritanceModifierExample.sol\":812:831  tokenBalance[owner] */\n      0xffffffffffffffffffffffffffffffffffffffff\n      and\n      0xffffffffffffffffffffffffffffffffffffffff\n      and\n      dup2\n      mstore\n      0x20\n      add\n      swap1\n      dup2\n      mstore\n      0x20\n      add\n      0x00\n      keccak256\n      0x00\n        /* \"InheritanceModifierExample.sol\":812:853  tokenBalance[owner]+=msg.value/tokenPrice */\n      dup3\n      dup3\n      sload\n      tag_57\n      swap2\n      swap1\n      tag_32\n      jump\t// in\n    tag_57:\n      swap3\n      pop\n      pop\n      dup2\n      swap1\n      sstore\n      pop\n        /* \"InheritanceModifierExample.sol\":900:910  tokenPrice */\n      sload(0x02)\n        /* \"InheritanceModifierExample.sol\":890:899  msg.value */\n      callvalue\n        /* \"InheritanceModifierExample.sol\":890:910  msg.value/tokenPrice */\n      tag_58\n      swap2\n      swap1\n      tag_52\n      jump\t// in\n    tag_58:\n        /* \"InheritanceModifierExample.sol\":864:876  tokenBalance */\n      0x00\n        /* \"InheritanceModifierExample.sol\":864:888  tokenBalance[msg.sender] */\n      dup1\n        /* \"InheritanceModifierExample.sol\":877:887  msg.sender */\n      caller\n        /* \"InheritanceModifierExample.sol\":864:888  tokenBalance[msg.sender] */\n      0xffffffffffffffffffffffffffffffffffffffff\n      and\n      0xffffffffffffffffffffffffffffffffffffffff\n      and\n      dup2\n      mstore\n      0x20\n      add\n      swap1\n      dup2\n      mstore\n      0x20\n      add\n      0x00\n      keccak256\n      0x00\n        /* \"InheritanceModifierExample.sol\":864:910  tokenBalance[msg.sender]-=msg.value/tokenPrice */\n      dup3\n      dup3\n      sload\n      tag_59\n      swap2\n      swap1\n      tag_37\n      jump\t// in\n    tag_59:\n      swap3\n      pop\n      pop\n      dup2\n      swap1\n      sstore\n      pop\n        /* \"InheritanceModifierExample.sol\":673:918  function purchaseToken() public payable {\r... */\n      jump\t// out\n        /* \"InheritanceModifierExample.sol\":76:121  mapping (address => uint) public tokenBalance */\n    tag_21:\n      mstore(0x20, 0x00)\n      dup1\n      0x00\n      mstore\n      keccak256(0x00, 0x40)\n      0x00\n      swap2\n      pop\n      swap1\n      pop\n      sload\n      dup2\n      jump\t// out\n        /* \"InheritanceModifierExample.sol\":534:665  function burnToken () public {\r... */\n    tag_26:\n        /* \"InheritanceModifierExample.sol\":596:601  owner */\n      0x01\n      0x00\n      swap1\n      sload\n      swap1\n      0x0100\n      exp\n      swap1\n      div\n      0xffffffffffffffffffffffffffffffffffffffff\n      and\n        /* \"InheritanceModifierExample.sol\":582:601  msg.sender == owner */\n      0xffffffffffffffffffffffffffffffffffffffff\n      and\n        /* \"InheritanceModifierExample.sol\":582:592  msg.sender */\n      caller\n        /* \"InheritanceModifierExample.sol\":582:601  msg.sender == owner */\n      0xffffffffffffffffffffffffffffffffffffffff\n      and\n      eq\n        /* \"InheritanceModifierExample.sol\":574:625  require(msg.sender == owner, \"You are not allowed\") */\n      tag_61\n      jumpi\n      mload(0x40)\n      0x08c379a000000000000000000000000000000000000000000000000000000000\n      dup2\n      mstore\n      0x04\n      add\n      tag_62\n      swap1\n      tag_63\n      jump\t// in\n    tag_62:\n      mload(0x40)\n      dup1\n      swap2\n      sub\n      swap1\n      revert\n    tag_61:\n        /* \"InheritanceModifierExample.sol\":636:648  tokenBalance */\n      0x00\n        /* \"InheritanceModifierExample.sol\":636:655  tokenBalance[owner] */\n      dup1\n        /* \"InheritanceModifierExample.sol\":649:654  owner */\n      0x01\n      0x00\n      swap1\n      sload\n      swap1\n      0x0100\n      exp\n      swap1\n      div\n      0xffffffffffffffffffffffffffffffffffffffff\n      and\n        /* \"InheritanceModifierExample.sol\":636:655  tokenBalance[owner] */\n      0xffffffffffffffffffffffffffffffffffffffff\n      and\n      0xffffffffffffffffffffffffffffffffffffffff\n      and\n      dup2\n      mstore\n      0x20\n      add\n      swap1\n      dup2\n      mstore\n      0x20\n      add\n      0x00\n      keccak256\n      0x00\n        /* \"InheritanceModifierExample.sol\":636:657  tokenBalance[owner]-- */\n      dup2\n      sload\n      dup1\n      swap3\n      swap2\n      swap1\n      tag_64\n      swap1\n      tag_65\n      jump\t// in\n    tag_64:\n      swap2\n      swap1\n      pop\n      sstore\n      pop\n        /* \"InheritanceModifierExample.sol\":534:665  function burnToken () public {\r... */\n      jump\t// out\n        /* \"#utility.yul\":7:146   */\n    tag_67:\n        /* \"#utility.yul\":53:58   */\n      0x00\n        /* \"#utility.yul\":91:97   */\n      dup2\n        /* \"#utility.yul\":78:98   */\n      calldataload\n        /* \"#utility.yul\":69:98   */\n      swap1\n      pop\n        /* \"#utility.yul\":107:140   */\n      tag_69\n        /* \"#utility.yul\":134:139   */\n      dup2\n        /* \"#utility.yul\":107:140   */\n      tag_70\n      jump\t// in\n    tag_69:\n        /* \"#utility.yul\":7:146   */\n      swap3\n      swap2\n      pop\n      pop\n      jump\t// out\n        /* \"#utility.yul\":152:291   */\n    tag_71:\n        /* \"#utility.yul\":198:203   */\n      0x00\n        /* \"#utility.yul\":236:242   */\n      dup2\n        /* \"#utility.yul\":223:243   */\n      calldataload\n        /* \"#utility.yul\":214:243   */\n      swap1\n      pop\n        /* \"#utility.yul\":252:285   */\n      tag_73\n        /* \"#utility.yul\":279:284   */\n      dup2\n        /* \"#utility.yul\":252:285   */\n      tag_74\n      jump\t// in\n    tag_73:\n        /* \"#utility.yul\":152:291   */\n      swap3\n      swap2\n      pop\n      pop\n      jump\t// out\n        /* \"#utility.yul\":297:626   */\n    tag_20:\n        /* \"#utility.yul\":356:362   */\n      0x00\n        /* \"#utility.yul\":405:407   */\n      0x20\n        /* \"#utility.yul\":393:402   */\n      dup3\n        /* \"#utility.yul\":384:391   */\n      dup5\n        /* \"#utility.yul\":380:403   */\n      sub\n        /* \"#utility.yul\":376:408   */\n      slt\n        /* \"#utility.yul\":373:492   */\n      iszero\n      tag_76\n      jumpi\n        /* \"#utility.yul\":411:490   */\n      tag_77\n      tag_78\n      jump\t// in\n    tag_77:\n        /* \"#utility.yul\":373:492   */\n    tag_76:\n        /* \"#utility.yul\":531:532   */\n      0x00\n        /* \"#utility.yul\":556:609   */\n      tag_79\n        /* \"#utility.yul\":601:608   */\n      dup5\n        /* \"#utility.yul\":592:598   */\n      dup3\n        /* \"#utility.yul\":581:590   */\n      dup6\n        /* \"#utility.yul\":577:599   */\n      add\n        /* \"#utility.yul\":556:609   */\n      tag_67\n      jump\t// in\n    tag_79:\n        /* \"#utility.yul\":546:609   */\n      swap2\n      pop\n        /* \"#utility.yul\":502:619   */\n      pop\n        /* \"#utility.yul\":297:626   */\n      swap3\n      swap2\n      pop\n      pop\n      jump\t// out\n        /* \"#utility.yul\":632:1106   */\n    tag_10:\n        /* \"#utility.yul\":700:706   */\n      0x00\n        /* \"#utility.yul\":708:714   */\n      dup1\n        /* \"#utility.yul\":757:759   */\n      0x40\n        /* \"#utility.yul\":745:754   */\n      dup4\n        /* \"#utility.yul\":736:743   */\n      dup6\n        /* \"#utility.yul\":732:755   */\n      sub\n        /* \"#utility.yul\":728:760   */\n      slt\n        /* \"#utility.yul\":725:844   */\n      iszero\n      tag_81\n      jumpi\n        /* \"#utility.yul\":763:842   */\n      tag_82\n      tag_78\n      jump\t// in\n    tag_82:\n        /* \"#utility.yul\":725:844   */\n    tag_81:\n        /* \"#utility.yul\":883:884   */\n      0x00\n        /* \"#utility.yul\":908:961   */\n      tag_83\n        /* \"#utility.yul\":953:960   */\n      dup6\n        /* \"#utility.yul\":944:950   */\n      dup3\n        /* \"#utility.yul\":933:942   */\n      dup7\n        /* \"#utility.yul\":929:951   */\n      add\n        /* \"#utility.yul\":908:961   */\n      tag_67\n      jump\t// in\n    tag_83:\n        /* \"#utility.yul\":898:961   */\n      swap3\n      pop\n        /* \"#utility.yul\":854:971   */\n      pop\n        /* \"#utility.yul\":1010:1012   */\n      0x20\n        /* \"#utility.yul\":1036:1089   */\n      tag_84\n        /* \"#utility.yul\":1081:1088   */\n      dup6\n        /* \"#utility.yul\":1072:1078   */\n      dup3\n        /* \"#utility.yul\":1061:1070   */\n      dup7\n        /* \"#utility.yul\":1057:1079   */\n      add\n        /* \"#utility.yul\":1036:1089   */\n      tag_71\n      jump\t// in\n    tag_84:\n        /* \"#utility.yul\":1026:1089   */\n      swap2\n      pop\n        /* \"#utility.yul\":981:1099   */\n      pop\n        /* \"#utility.yul\":632:1106   */\n      swap3\n      pop\n      swap3\n      swap1\n      pop\n      jump\t// out\n        /* \"#utility.yul\":1112:1478   */\n    tag_85:\n        /* \"#utility.yul\":1254:1257   */\n      0x00\n        /* \"#utility.yul\":1275:1342   */\n      tag_87\n        /* \"#utility.yul\":1339:1341   */\n      0x10\n        /* \"#utility.yul\":1334:1337   */\n      dup4\n        /* \"#utility.yul\":1275:1342   */\n      tag_88\n      jump\t// in\n    tag_87:\n        /* \"#utility.yul\":1268:1342   */\n      swap2\n      pop\n        /* \"#utility.yul\":1351:1444   */\n      tag_89\n        /* \"#utility.yul\":1440:1443   */\n      dup3\n        /* \"#utility.yul\":1351:1444   */\n      tag_90\n      jump\t// in\n    tag_89:\n        /* \"#utility.yul\":1469:1471   */\n      0x20\n        /* \"#utility.yul\":1464:1467   */\n      dup3\n        /* \"#utility.yul\":1460:1472   */\n      add\n        /* \"#utility.yul\":1453:1472   */\n      swap1\n      pop\n        /* \"#utility.yul\":1112:1478   */\n      swap2\n      swap1\n      pop\n      jump\t// out\n        /* \"#utility.yul\":1484:1850   */\n    tag_91:\n        /* \"#utility.yul\":1626:1629   */\n      0x00\n        /* \"#utility.yul\":1647:1714   */\n      tag_93\n        /* \"#utility.yul\":1711:1713   */\n      0x13\n        /* \"#utility.yul\":1706:1709   */\n      dup4\n        /* \"#utility.yul\":1647:1714   */\n      tag_88\n      jump\t// in\n    tag_93:\n        /* \"#utility.yul\":1640:1714   */\n      swap2\n      pop\n        /* \"#utility.yul\":1723:1816   */\n      tag_94\n        /* \"#utility.yul\":1812:1815   */\n      dup3\n        /* \"#utility.yul\":1723:1816   */\n      tag_95\n      jump\t// in\n    tag_94:\n        /* \"#utility.yul\":1841:1843   */\n      0x20\n        /* \"#utility.yul\":1836:1839   */\n      dup3\n        /* \"#utility.yul\":1832:1844   */\n      add\n        /* \"#utility.yul\":1825:1844   */\n      swap1\n      pop\n        /* \"#utility.yul\":1484:1850   */\n      swap2\n      swap1\n      pop\n      jump\t// out\n        /* \"#utility.yul\":1856:2222   */\n    tag_96:\n        /* \"#utility.yul\":1998:2001   */\n      0x00\n        /* \"#utility.yul\":2019:2086   */\n      tag_98\n        /* \"#utility.yul\":2083:2085   */\n      0x15\n        /* \"#utility.yul\":2078:2081   */\n      dup4\n        /* \"#utility.yul\":2019:2086   */\n      tag_88\n      jump\t// in\n    tag_98:\n        /* \"#utility.yul\":2012:2086   */\n      swap2\n      pop\n        /* \"#utility.yul\":2095:2188   */\n      tag_99\n        /* \"#utility.yul\":2184:2187   */\n      dup3\n        /* \"#utility.yul\":2095:2188   */\n      tag_100\n      jump\t// in\n    tag_99:\n        /* \"#utility.yul\":2213:2215   */\n      0x20\n        /* \"#utility.yul\":2208:2211   */\n      dup3\n        /* \"#utility.yul\":2204:2216   */\n      add\n        /* \"#utility.yul\":2197:2216   */\n      swap1\n      pop\n        /* \"#utility.yul\":1856:2222   */\n      swap2\n      swap1\n      pop\n      jump\t// out\n        /* \"#utility.yul\":2228:2594   */\n    tag_101:\n        /* \"#utility.yul\":2370:2373   */\n      0x00\n        /* \"#utility.yul\":2391:2458   */\n      tag_103\n        /* \"#utility.yul\":2455:2457   */\n      0x11\n        /* \"#utility.yul\":2450:2453   */\n      dup4\n        /* \"#utility.yul\":2391:2458   */\n      tag_88\n      jump\t// in\n    tag_103:\n        /* \"#utility.yul\":2384:2458   */\n      swap2\n      pop\n        /* \"#utility.yul\":2467:2560   */\n      tag_104\n        /* \"#utility.yul\":2556:2559   */\n      dup3\n        /* \"#utility.yul\":2467:2560   */\n      tag_105\n      jump\t// in\n    tag_104:\n        /* \"#utility.yul\":2585:2587   */\n      0x20\n        /* \"#utility.yul\":2580:2583   */\n      dup3\n        /* \"#utility.yul\":2576:2588   */\n      add\n        /* \"#utility.yul\":2569:2588   */\n      swap1\n      pop\n        /* \"#utility.yul\":2228:2594   */\n      swap2\n      swap1\n      pop\n      jump\t// out\n        /* \"#utility.yul\":2600:2718   */\n    tag_106:\n        /* \"#utility.yul\":2687:2711   */\n      tag_108\n        /* \"#utility.yul\":2705:2710   */\n      dup2\n        /* \"#utility.yul\":2687:2711   */\n      tag_109\n      jump\t// in\n    tag_108:\n        /* \"#utility.yul\":2682:2685   */\n      dup3\n        /* \"#utility.yul\":2675:2712   */\n      mstore\n        /* \"#utility.yul\":2600:2718   */\n      pop\n      pop\n      jump\t// out\n        /* \"#utility.yul\":2724:3143   */\n    tag_30:\n        /* \"#utility.yul\":2890:2894   */\n      0x00\n        /* \"#utility.yul\":2928:2930   */\n      0x20\n        /* \"#utility.yul\":2917:2926   */\n      dup3\n        /* \"#utility.yul\":2913:2931   */\n      add\n        /* \"#utility.yul\":2905:2931   */\n      swap1\n      pop\n        /* \"#utility.yul\":2977:2986   */\n      dup2\n        /* \"#utility.yul\":2971:2975   */\n      dup2\n        /* \"#utility.yul\":2967:2987   */\n      sub\n        /* \"#utility.yul\":2963:2964   */\n      0x00\n        /* \"#utility.yul\":2952:2961   */\n      dup4\n        /* \"#utility.yul\":2948:2965   */\n      add\n        /* \"#utility.yul\":2941:2988   */\n      mstore\n        /* \"#utility.yul\":3005:3136   */\n      tag_111\n        /* \"#utility.yul\":3131:3135   */\n      dup2\n        /* \"#utility.yul\":3005:3136   */\n      tag_85\n      jump\t// in\n    tag_111:\n        /* \"#utility.yul\":2997:3136   */\n      swap1\n      pop\n        /* \"#utility.yul\":2724:3143   */\n      swap2\n      swap1\n      pop\n      jump\t// out\n        /* \"#utility.yul\":3149:3568   */\n    tag_63:\n        /* \"#utility.yul\":3315:3319   */\n      0x00\n        /* \"#utility.yul\":3353:3355   */\n      0x20\n        /* \"#utility.yul\":3342:3351   */\n      dup3\n        /* \"#utility.yul\":3338:3356   */\n      add\n        /* \"#utility.yul\":3330:3356   */\n      swap1\n      pop\n        /* \"#utility.yul\":3402:3411   */\n      dup2\n        /* \"#utility.yul\":3396:3400   */\n      dup2\n        /* \"#utility.yul\":3392:3412   */\n      sub\n        /* \"#utility.yul\":3388:3389   */\n      0x00\n        /* \"#utility.yul\":3377:3386   */\n      dup4\n        /* \"#utility.yul\":3373:3390   */\n      add\n        /* \"#utility.yul\":3366:3413   */\n      mstore\n        /* \"#utility.yul\":3430:3561   */\n      tag_113\n        /* \"#utility.yul\":3556:3560   */\n      dup2\n        /* \"#utility.yul\":3430:3561   */\n      tag_91\n      jump\t// in\n    tag_113:\n        /* \"#utility.yul\":3422:3561   */\n      swap1\n      pop\n        /* \"#utility.yul\":3149:3568   */\n      swap2\n      swap1\n      pop\n      jump\t// out\n        /* \"#utility.yul\":3574:3993   */\n    tag_45:\n        /* \"#utility.yul\":3740:3744   */\n      0x00\n        /* \"#utility.yul\":3778:3780   */\n      0x20\n        /* \"#utility.yul\":3767:3776   */\n      dup3\n        /* \"#utility.yul\":3763:3781   */\n      add\n        /* \"#utility.yul\":3755:3781   */\n      swap1\n      pop\n        /* \"#utility.yul\":3827:3836   */\n      dup2\n        /* \"#utility.yul\":3821:3825   */\n      dup2\n        /* \"#utility.yul\":3817:3837   */\n      sub\n        /* \"#utility.yul\":3813:3814   */\n      0x00\n        /* \"#utility.yul\":3802:3811   */\n      dup4\n        /* \"#utility.yul\":3798:3815   */\n      add\n        /* \"#utility.yul\":3791:3838   */\n      mstore\n        /* \"#utility.yul\":3855:3986   */\n      tag_115\n        /* \"#utility.yul\":3981:3985   */\n      dup2\n        /* \"#utility.yul\":3855:3986   */\n      tag_96\n      jump\t// in\n    tag_115:\n        /* \"#utility.yul\":3847:3986   */\n      swap1\n      pop\n        /* \"#utility.yul\":3574:3993   */\n      swap2\n      swap1\n      pop\n      jump\t// out\n        /* \"#utility.yul\":3999:4418   */\n    tag_55:\n        /* \"#utility.yul\":4165:4169   */\n      0x00\n        /* \"#utility.yul\":4203:4205   */\n      0x20\n        /* \"#utility.yul\":4192:4201   */\n      dup3\n        /* \"#utility.yul\":4188:4206   */\n      add\n        /* \"#utility.yul\":4180:4206   */\n      swap1\n      pop\n        /* \"#utility.yul\":4252:4261   */\n      dup2\n        /* \"#utility.yul\":4246:4250   */\n      dup2\n        /* \"#utility.yul\":4242:4262   */\n      sub\n        /* \"#utility.yul\":4238:4239   */\n      0x00\n        /* \"#utility.yul\":4227:4236   */\n      dup4\n        /* \"#utility.yul\":4223:4240   */\n      add\n        /* \"#utility.yul\":4216:4263   */\n      mstore\n        /* \"#utility.yul\":4280:4411   */\n      tag_117\n        /* \"#utility.yul\":4406:4410   */\n      dup2\n        /* \"#utility.yul\":4280:4411   */\n      tag_101\n      jump\t// in\n    tag_117:\n        /* \"#utility.yul\":4272:4411   */\n      swap1\n      pop\n        /* \"#utility.yul\":3999:4418   */\n      swap2\n      swap1\n      pop\n      jump\t// out\n        /* \"#utility.yul\":4424:4646   */\n    tag_23:\n        /* \"#utility.yul\":4517:4521   */\n      0x00\n        /* \"#utility.yul\":4555:4557   */\n      0x20\n        /* \"#utility.yul\":4544:4553   */\n      dup3\n        /* \"#utility.yul\":4540:4558   */\n      add\n        /* \"#utility.yul\":4532:4558   */\n      swap1\n      pop\n        /* \"#utility.yul\":4568:4639   */\n      tag_119\n        /* \"#utility.yul\":4636:4637   */\n      0x00\n        /* \"#utility.yul\":4625:4634   */\n      dup4\n        /* \"#utility.yul\":4621:4638   */\n      add\n        /* \"#utility.yul\":4612:4618   */\n      dup5\n        /* \"#utility.yul\":4568:4639   */\n      tag_106\n      jump\t// in\n    tag_119:\n        /* \"#utility.yul\":4424:4646   */\n      swap3\n      swap2\n      pop\n      pop\n      jump\t// out\n        /* \"#utility.yul\":4733:4902   */\n    tag_88:\n        /* \"#utility.yul\":4817:4828   */\n      0x00\n        /* \"#utility.yul\":4851:4857   */\n      dup3\n        /* \"#utility.yul\":4846:4849   */\n      dup3\n        /* \"#utility.yul\":4839:4858   */\n      mstore\n        /* \"#utility.yul\":4891:4895   */\n      0x20\n        /* \"#utility.yul\":4886:4889   */\n      dup3\n        /* \"#utility.yul\":4882:4896   */\n      add\n        /* \"#utility.yul\":4867:4896   */\n      swap1\n      pop\n        /* \"#utility.yul\":4733:4902   */\n      swap3\n      swap2\n      pop\n      pop\n      jump\t// out\n        /* \"#utility.yul\":4908:5213   */\n    tag_32:\n        /* \"#utility.yul\":4948:4951   */\n      0x00\n        /* \"#utility.yul\":4967:4987   */\n      tag_124\n        /* \"#utility.yul\":4985:4986   */\n      dup3\n        /* \"#utility.yul\":4967:4987   */\n      tag_109\n      jump\t// in\n    tag_124:\n        /* \"#utility.yul\":4962:4987   */\n      swap2\n      pop\n        /* \"#utility.yul\":5001:5021   */\n      tag_125\n        /* \"#utility.yul\":5019:5020   */\n      dup4\n        /* \"#utility.yul\":5001:5021   */\n      tag_109\n      jump\t// in\n    tag_125:\n        /* \"#utility.yul\":4996:5021   */\n      swap3\n      pop\n        /* \"#utility.yul\":5155:5156   */\n      dup3\n        /* \"#utility.yul\":5087:5153   */\n      0xffffffffffffffffffffffffffffffffffffffffffffffffffffffffffffffff\n        /* \"#utility.yul\":5083:5157   */\n      sub\n        /* \"#utility.yul\":5080:5081   */\n      dup3\n        /* \"#utility.yul\":5077:5158   */\n      gt\n        /* \"#utility.yul\":5074:5181   */\n      iszero\n      tag_126\n      jumpi\n        /* \"#utility.yul\":5161:5179   */\n      tag_127\n      tag_128\n      jump\t// in\n    tag_127:\n        /* \"#utility.yul\":5074:5181   */\n    tag_126:\n        /* \"#utility.yul\":5205:5206   */\n      dup3\n        /* \"#utility.yul\":5202:5203   */\n      dup3\n        /* \"#utility.yul\":5198:5207   */\n      add\n        /* \"#utility.yul\":5191:5207   */\n      swap1\n      pop\n        /* \"#utility.yul\":4908:5213   */\n      swap3\n      swap2\n      pop\n      pop\n      jump\t// out\n        /* \"#utility.yul\":5219:5404   */\n    tag_52:\n        /* \"#utility.yul\":5259:5260   */\n      0x00\n        /* \"#utility.yul\":5276:5296   */\n      tag_130\n        /* \"#utility.yul\":5294:5295   */\n      dup3\n        /* \"#utility.yul\":5276:5296   */\n      tag_109\n      jump\t// in\n    tag_130:\n        /* \"#utility.yul\":5271:5296   */\n      swap2\n      pop\n        /* \"#utility.yul\":5310:5330   */\n      tag_131\n        /* \"#utility.yul\":5328:5329   */\n      dup4\n        /* \"#utility.yul\":5310:5330   */\n      tag_109\n      jump\t// in\n    tag_131:\n        /* \"#utility.yul\":5305:5330   */\n      swap3\n      pop\n        /* \"#utility.yul\":5349:5350   */\n      dup3\n        /* \"#utility.yul\":5339:5374   */\n      tag_132\n      jumpi\n        /* \"#utility.yul\":5354:5372   */\n      tag_133\n      tag_134\n      jump\t// in\n    tag_133:\n        /* \"#utility.yul\":5339:5374   */\n    tag_132:\n        /* \"#utility.yul\":5396:5397   */\n      dup3\n        /* \"#utility.yul\":5393:5394   */\n      dup3\n        /* \"#utility.yul\":5389:5398   */\n      div\n        /* \"#utility.yul\":5384:5398   */\n      swap1\n      pop\n        /* \"#utility.yul\":5219:5404   */\n      swap3\n      swap2\n      pop\n      pop\n      jump\t// out\n        /* \"#utility.yul\":5410:5758   */\n    tag_50:\n        /* \"#utility.yul\":5450:5457   */\n      0x00\n        /* \"#utility.yul\":5473:5493   */\n      tag_136\n        /* \"#utility.yul\":5491:5492   */\n      dup3\n        /* \"#utility.yul\":5473:5493   */\n      tag_109\n      jump\t// in\n    tag_136:\n        /* \"#utility.yul\":5468:5493   */\n      swap2\n      pop\n        /* \"#utility.yul\":5507:5527   */\n      tag_137\n        /* \"#utility.yul\":5525:5526   */\n      dup4\n        /* \"#utility.yul\":5507:5527   */\n      tag_109\n      jump\t// in\n    tag_137:\n        /* \"#utility.yul\":5502:5527   */\n      swap3\n      pop\n        /* \"#utility.yul\":5695:5696   */\n      dup2\n        /* \"#utility.yul\":5627:5693   */\n      0xffffffffffffffffffffffffffffffffffffffffffffffffffffffffffffffff\n        /* \"#utility.yul\":5623:5697   */\n      div\n        /* \"#utility.yul\":5620:5621   */\n      dup4\n        /* \"#utility.yul\":5617:5698   */\n      gt\n        /* \"#utility.yul\":5612:5613   */\n      dup3\n        /* \"#utility.yul\":5605:5614   */\n      iszero\n        /* \"#utility.yul\":5598:5615   */\n      iszero\n        /* \"#utility.yul\":5594:5699   */\n      and\n        /* \"#utility.yul\":5591:5722   */\n      iszero\n      tag_138\n      jumpi\n        /* \"#utility.yul\":5702:5720   */\n      tag_139\n      tag_128\n      jump\t// in\n    tag_139:\n        /* \"#utility.yul\":5591:5722   */\n    tag_138:\n        /* \"#utility.yul\":5750:5751   */\n      dup3\n        /* \"#utility.yul\":5747:5748   */\n      dup3\n        /* \"#utility.yul\":5743:5752   */\n      mul\n        /* \"#utility.yul\":5732:5752   */\n      swap1\n      pop\n        /* \"#utility.yul\":5410:5758   */\n      swap3\n      swap2\n      pop\n      pop\n      jump\t// out\n        /* \"#utility.yul\":5764:5955   */\n    tag_37:\n        /* \"#utility.yul\":5804:5808   */\n      0x00\n        /* \"#utility.yul\":5824:5844   */\n      tag_141\n        /* \"#utility.yul\":5842:5843   */\n      dup3\n        /* \"#utility.yul\":5824:5844   */\n      tag_109\n      jump\t// in\n    tag_141:\n        /* \"#utility.yul\":5819:5844   */\n      swap2\n      pop\n        /* \"#utility.yul\":5858:5878   */\n      tag_142\n        /* \"#utility.yul\":5876:5877   */\n      dup4\n        /* \"#utility.yul\":5858:5878   */\n      tag_109\n      jump\t// in\n    tag_142:\n        /* \"#utility.yul\":5853:5878   */\n      swap3\n      pop\n        /* \"#utility.yul\":5897:5898   */\n      dup3\n        /* \"#utility.yul\":5894:5895   */\n      dup3\n        /* \"#utility.yul\":5891:5899   */\n      lt\n        /* \"#utility.yul\":5888:5922   */\n      iszero\n      tag_143\n      jumpi\n        /* \"#utility.yul\":5902:5920   */\n      tag_144\n      tag_128\n      jump\t// in\n    tag_144:\n        /* \"#utility.yul\":5888:5922   */\n    tag_143:\n        /* \"#utility.yul\":5947:5948   */\n      dup3\n        /* \"#utility.yul\":5944:5945   */\n      dup3\n        /* \"#utility.yul\":5940:5949   */\n      sub\n        /* \"#utility.yul\":5932:5949   */\n      swap1\n      pop\n        /* \"#utility.yul\":5764:5955   */\n      swap3\n      swap2\n      pop\n      pop\n      jump\t// out\n        /* \"#utility.yul\":5961:6057   */\n    tag_145:\n        /* \"#utility.yul\":5998:6005   */\n      0x00\n        /* \"#utility.yul\":6027:6051   */\n      tag_147\n        /* \"#utility.yul\":6045:6050   */\n      dup3\n        /* \"#utility.yul\":6027:6051   */\n      tag_148\n      jump\t// in\n    tag_147:\n        /* \"#utility.yul\":6016:6051   */\n      swap1\n      pop\n        /* \"#utility.yul\":5961:6057   */\n      swap2\n      swap1\n      pop\n      jump\t// out\n        /* \"#utility.yul\":6063:6189   */\n    tag_148:\n        /* \"#utility.yul\":6100:6107   */\n      0x00\n        /* \"#utility.yul\":6140:6182   */\n      0xffffffffffffffffffffffffffffffffffffffff\n        /* \"#utility.yul\":6133:6138   */\n      dup3\n        /* \"#utility.yul\":6129:6183   */\n      and\n        /* \"#utility.yul\":6118:6183   */\n      swap1\n      pop\n        /* \"#utility.yul\":6063:6189   */\n      swap2\n      swap1\n      pop\n      jump\t// out\n        /* \"#utility.yul\":6195:6272   */\n    tag_109:\n        /* \"#utility.yul\":6232:6239   */\n      0x00\n        /* \"#utility.yul\":6261:6266   */\n      dup2\n        /* \"#utility.yul\":6250:6266   */\n      swap1\n      pop\n        /* \"#utility.yul\":6195:6272   */\n      swap2\n      swap1\n      pop\n      jump\t// out\n        /* \"#utility.yul\":6278:6449   */\n    tag_65:\n        /* \"#utility.yul\":6317:6320   */\n      0x00\n        /* \"#utility.yul\":6340:6364   */\n      tag_152\n        /* \"#utility.yul\":6358:6363   */\n      dup3\n        /* \"#utility.yul\":6340:6364   */\n      tag_109\n      jump\t// in\n    tag_152:\n        /* \"#utility.yul\":6331:6364   */\n      swap2\n      pop\n        /* \"#utility.yul\":6386:6390   */\n      0x00\n        /* \"#utility.yul\":6379:6384   */\n      dup3\n        /* \"#utility.yul\":6376:6391   */\n      eq\n        /* \"#utility.yul\":6373:6414   */\n      iszero\n      tag_153\n      jumpi\n        /* \"#utility.yul\":6394:6412   */\n      tag_154\n      tag_128\n      jump\t// in\n    tag_154:\n        /* \"#utility.yul\":6373:6414   */\n    tag_153:\n        /* \"#utility.yul\":6441:6442   */\n      0x01\n        /* \"#utility.yul\":6434:6439   */\n      dup3\n        /* \"#utility.yul\":6430:6443   */\n      sub\n        /* \"#utility.yul\":6423:6443   */\n      swap1\n      pop\n        /* \"#utility.yul\":6278:6449   */\n      swap2\n      swap1\n      pop\n      jump\t// out\n        /* \"#utility.yul\":6455:6688   */\n    tag_47:\n        /* \"#utility.yul\":6494:6497   */\n      0x00\n        /* \"#utility.yul\":6517:6541   */\n      tag_156\n        /* \"#utility.yul\":6535:6540   */\n      dup3\n        /* \"#utility.yul\":6517:6541   */\n      tag_109\n      jump\t// in\n    tag_156:\n        /* \"#utility.yul\":6508:6541   */\n      swap2\n      pop\n        /* \"#utility.yul\":6563:6629   */\n      0xffffffffffffffffffffffffffffffffffffffffffffffffffffffffffffffff\n        /* \"#utility.yul\":6556:6561   */\n      dup3\n        /* \"#utility.yul\":6553:6630   */\n      eq\n        /* \"#utility.yul\":6550:6653   */\n      iszero\n      tag_157\n      jumpi\n        /* \"#utility.yul\":6633:6651   */\n      tag_158\n      tag_128\n      jump\t// in\n    tag_158:\n        /* \"#utility.yul\":6550:6653   */\n    tag_157:\n        /* \"#utility.yul\":6680:6681   */\n      0x01\n        /* \"#utility.yul\":6673:6678   */\n      dup3\n        /* \"#utility.yul\":6669:6682   */\n      add\n        /* \"#utility.yul\":6662:6682   */\n      swap1\n      pop\n        /* \"#utility.yul\":6455:6688   */\n      swap2\n      swap1\n      pop\n      jump\t// out\n        /* \"#utility.yul\":6694:6874   */\n    tag_35:\n        /* \"#utility.yul\":6742:6819   */\n      0x4e487b7100000000000000000000000000000000000000000000000000000000\n        /* \"#utility.yul\":6739:6740   */\n      0x00\n        /* \"#utility.yul\":6732:6820   */\n      mstore\n        /* \"#utility.yul\":6839:6843   */\n      0x01\n        /* \"#utility.yul\":6836:6837   */\n      0x04\n        /* \"#utility.yul\":6829:6844   */\n      mstore\n        /* \"#utility.yul\":6863:6867   */\n      0x24\n        /* \"#utility.yul\":6860:6861   */\n      0x00\n        /* \"#utility.yul\":6853:6868   */\n      revert\n        /* \"#utility.yul\":6880:7060   */\n    tag_128:\n        /* \"#utility.yul\":6928:7005   */\n      0x4e487b7100000000000000000000000000000000000000000000000000000000\n        /* \"#utility.yul\":6925:6926   */\n      0x00\n        /* \"#utility.yul\":6918:7006   */\n      mstore\n        /* \"#utility.yul\":7025:7029   */\n      0x11\n        /* \"#utility.yul\":7022:7023   */\n      0x04\n        /* \"#utility.yul\":7015:7030   */\n      mstore\n        /* \"#utility.yul\":7049:7053   */\n      0x24\n        /* \"#utility.yul\":7046:7047   */\n      0x00\n        /* \"#utility.yul\":7039:7054   */\n      revert\n        /* \"#utility.yul\":7066:7246   */\n    tag_134:\n        /* \"#utility.yul\":7114:7191   */\n      0x4e487b7100000000000000000000000000000000000000000000000000000000\n        /* \"#utility.yul\":7111:7112   */\n      0x00\n        /* \"#utility.yul\":7104:7192   */\n      mstore\n        /* \"#utility.yul\":7211:7215   */\n      0x12\n        /* \"#utility.yul\":7208:7209   */\n      0x04\n        /* \"#utility.yul\":7201:7216   */\n      mstore\n        /* \"#utility.yul\":7235:7239   */\n      0x24\n        /* \"#utility.yul\":7232:7233   */\n      0x00\n        /* \"#utility.yul\":7225:7240   */\n      revert\n        /* \"#utility.yul\":7375:7492   */\n    tag_78:\n        /* \"#utility.yul\":7484:7485   */\n      0x00\n        /* \"#utility.yul\":7481:7482   */\n      dup1\n        /* \"#utility.yul\":7474:7486   */\n      revert\n        /* \"#utility.yul\":7498:7664   */\n    tag_90:\n        /* \"#utility.yul\":7638:7656   */\n      0x4e6f7420656e6f7567682066756e647300000000000000000000000000000000\n        /* \"#utility.yul\":7634:7635   */\n      0x00\n        /* \"#utility.yul\":7626:7632   */\n      dup3\n        /* \"#utility.yul\":7622:7636   */\n      add\n        /* \"#utility.yul\":7615:7657   */\n      mstore\n        /* \"#utility.yul\":7498:7664   */\n      pop\n      jump\t// out\n        /* \"#utility.yul\":7670:7839   */\n    tag_95:\n        /* \"#utility.yul\":7810:7831   */\n      0x596f7520617265206e6f7420616c6c6f77656400000000000000000000000000\n        /* \"#utility.yul\":7806:7807   */\n      0x00\n        /* \"#utility.yul\":7798:7804   */\n      dup3\n        /* \"#utility.yul\":7794:7808   */\n      add\n        /* \"#utility.yul\":7787:7832   */\n      mstore\n        /* \"#utility.yul\":7670:7839   */\n      pop\n      jump\t// out\n        /* \"#utility.yul\":7845:8016   */\n    tag_100:\n        /* \"#utility.yul\":7985:8008   */\n      0x596f7520617265206e6f7420746865206f776e65720000000000000000000000\n        /* \"#utility.yul\":7981:7982   */\n      0x00\n        /* \"#utility.yul\":7973:7979   */\n      dup3\n        /* \"#utility.yul\":7969:7983   */\n      add\n        /* \"#utility.yul\":7962:8009   */\n      mstore\n        /* \"#utility.yul\":7845:8016   */\n      pop\n      jump\t// out\n        /* \"#utility.yul\":8022:8189   */\n    tag_105:\n        /* \"#utility.yul\":8162:8181   */\n      0x6e6f7420656e6f75676820746f6b656e73000000000000000000000000000000\n        /* \"#utility.yul\":8158:8159   */\n      0x00\n        /* \"#utility.yul\":8150:8156   */\n      dup3\n        /* \"#utility.yul\":8146:8160   */\n      add\n        /* \"#utility.yul\":8139:8182   */\n      mstore\n        /* \"#utility.yul\":8022:8189   */\n      pop\n      jump\t// out\n        /* \"#utility.yul\":8195:8317   */\n    tag_70:\n        /* \"#utility.yul\":8268:8292   */\n      tag_170\n        /* \"#utility.yul\":8286:8291   */\n      dup2\n        /* \"#utility.yul\":8268:8292   */\n      tag_145\n      jump\t// in\n    tag_170:\n        /* \"#utility.yul\":8261:8266   */\n      dup2\n        /* \"#utility.yul\":8258:8293   */\n      eq\n        /* \"#utility.yul\":8248:8311   */\n      tag_171\n      jumpi\n        /* \"#utility.yul\":8307:8308   */\n      0x00\n        /* \"#utility.yul\":8304:8305   */\n      dup1\n        /* \"#utility.yul\":8297:8309   */\n      revert\n        /* \"#utility.yul\":8248:8311   */\n    tag_171:\n        /* \"#utility.yul\":8195:8317   */\n      pop\n      jump\t// out\n        /* \"#utility.yul\":8323:8445   */\n    tag_74:\n        /* \"#utility.yul\":8396:8420   */\n      tag_173\n        /* \"#utility.yul\":8414:8419   */\n      dup2\n        /* \"#utility.yul\":8396:8420   */\n      tag_109\n      jump\t// in\n    tag_173:\n        /* \"#utility.yul\":8389:8394   */\n      dup2\n        /* \"#utility.yul\":8386:8421   */\n      eq\n        /* \"#utility.yul\":8376:8439   */\n      tag_174\n      jumpi\n        /* \"#utility.yul\":8435:8436   */\n      0x00\n        /* \"#utility.yul\":8432:8433   */\n      dup1\n        /* \"#utility.yul\":8425:8437   */\n      revert\n        /* \"#utility.yul\":8376:8439   */\n    tag_174:\n        /* \"#utility.yul\":8323:8445   */\n      pop\n      jump\t// out\n\n    auxdata: 0xa2646970667358221220f5303fbc4e511681daa25dcbbc742d503f1f12924cf2216aff0f78cf9d18ea1864736f6c63430008070033\n}\n",
				"bytecode": {
					"linkReferences": {},
					"object": "6080604052670de0b6b3a764000060025534801561001c57600080fd5b5033600160006101000a81548173ffffffffffffffffffffffffffffffffffffffff021916908373ffffffffffffffffffffffffffffffffffffffff1602179055506064600080600160009054906101000a900473ffffffffffffffffffffffffffffffffffffffff1673ffffffffffffffffffffffffffffffffffffffff1673ffffffffffffffffffffffffffffffffffffffff16815260200190815260200160002081905550610c53806100d36000396000f3fe60806040526004361061004a5760003560e01c8063412664ae1461004f578063754fc38c14610078578063a95c4d621461008f578063eedc966a14610099578063faa0a264146100d6575b600080fd5b34801561005b57600080fd5b506100766004803603810190610071919061076e565b6100ed565b005b34801561008457600080fd5b5061008d61034c565b005b610097610454565b005b3480156100a557600080fd5b506100c060048036038101906100bb9190610741565b6105f7565b6040516100cd91906108c9565b60405180910390f35b3480156100e257600080fd5b506100eb61060f565b005b806000803373ffffffffffffffffffffffffffffffffffffffff1673ffffffffffffffffffffffffffffffffffffffff16815260200190815260200160002054101561016e576040517f08c379a000000000000000000000000000000000000000000000000000000000815260040161016590610849565b60405180910390fd5b6000808373ffffffffffffffffffffffffffffffffffffffff1673ffffffffffffffffffffffffffffffffffffffff16815260200190815260200160002054816000808573ffffffffffffffffffffffffffffffffffffffff1673ffffffffffffffffffffffffffffffffffffffff168152602001908152602001600020546101f791906108f5565b101561020657610205610ab9565b5b6000803373ffffffffffffffffffffffffffffffffffffffff1673ffffffffffffffffffffffffffffffffffffffff16815260200190815260200160002054816000803373ffffffffffffffffffffffffffffffffffffffff1673ffffffffffffffffffffffffffffffffffffffff1681526020019081526020016000205461028f91906109d6565b111561029e5761029d610ab9565b5b806000803373ffffffffffffffffffffffffffffffffffffffff1673ffffffffffffffffffffffffffffffffffffffff16815260200190815260200160002060008282546102ec91906109d6565b92505081905550806000808473ffffffffffffffffffffffffffffffffffffffff1673ffffffffffffffffffffffffffffffffffffffff168152602001908152602001600020600082825461034191906108f5565b925050819055505050565b600160009054906101000a900473ffffffffffffffffffffffffffffffffffffffff1673ffffffffffffffffffffffffffffffffffffffff163373ffffffffffffffffffffffffffffffffffffffff16146103dc576040517f08c379a00000000000000000000000000000000000000000000000000000000081526004016103d390610889565b60405180910390fd5b600080600160009054906101000a900473ffffffffffffffffffffffffffffffffffffffff1673ffffffffffffffffffffffffffffffffffffffff1673ffffffffffffffffffffffffffffffffffffffff168152602001908152602001600020600081548092919061044d90610a70565b9190505550565b600034600254600080600160009054906101000a900473ffffffffffffffffffffffffffffffffffffffff1673ffffffffffffffffffffffffffffffffffffffff1673ffffffffffffffffffffffffffffffffffffffff168152602001908152602001600020546104c5919061097c565b6104cf919061094b565b1161050f576040517f08c379a0000000000000000000000000000000000000000000000000000000008152600401610506906108a9565b60405180910390fd5b6002543461051d919061094b565b600080600160009054906101000a900473ffffffffffffffffffffffffffffffffffffffff1673ffffffffffffffffffffffffffffffffffffffff1673ffffffffffffffffffffffffffffffffffffffff168152602001908152602001600020600082825461058c91906108f5565b92505081905550600254346105a1919061094b565b6000803373ffffffffffffffffffffffffffffffffffffffff1673ffffffffffffffffffffffffffffffffffffffff16815260200190815260200160002060008282546105ee91906109d6565b92505081905550565b60006020528060005260406000206000915090505481565b600160009054906101000a900473ffffffffffffffffffffffffffffffffffffffff1673ffffffffffffffffffffffffffffffffffffffff163373ffffffffffffffffffffffffffffffffffffffff161461069f576040517f08c379a000000000000000000000000000000000000000000000000000000000815260040161069690610869565b60405180910390fd5b600080600160009054906101000a900473ffffffffffffffffffffffffffffffffffffffff1673ffffffffffffffffffffffffffffffffffffffff1673ffffffffffffffffffffffffffffffffffffffff168152602001908152602001600020600081548092919061071090610a46565b9190505550565b60008135905061072681610bef565b92915050565b60008135905061073b81610c06565b92915050565b60006020828403121561075757610756610b46565b5b600061076584828501610717565b91505092915050565b6000806040838503121561078557610784610b46565b5b600061079385828601610717565b92505060206107a48582860161072c565b9150509250929050565b60006107bb6010836108e4565b91506107c682610b4b565b602082019050919050565b60006107de6013836108e4565b91506107e982610b74565b602082019050919050565b60006108016015836108e4565b915061080c82610b9d565b602082019050919050565b60006108246011836108e4565b915061082f82610bc6565b602082019050919050565b61084381610a3c565b82525050565b60006020820190508181036000830152610862816107ae565b9050919050565b60006020820190508181036000830152610882816107d1565b9050919050565b600060208201905081810360008301526108a2816107f4565b9050919050565b600060208201905081810360008301526108c281610817565b9050919050565b60006020820190506108de600083018461083a565b92915050565b600082825260208201905092915050565b600061090082610a3c565b915061090b83610a3c565b9250827fffffffffffffffffffffffffffffffffffffffffffffffffffffffffffffffff038211156109405761093f610ae8565b5b828201905092915050565b600061095682610a3c565b915061096183610a3c565b92508261097157610970610b17565b5b828204905092915050565b600061098782610a3c565b915061099283610a3c565b9250817fffffffffffffffffffffffffffffffffffffffffffffffffffffffffffffffff04831182151516156109cb576109ca610ae8565b5b828202905092915050565b60006109e182610a3c565b91506109ec83610a3c565b9250828210156109ff576109fe610ae8565b5b828203905092915050565b6000610a1582610a1c565b9050919050565b600073ffffffffffffffffffffffffffffffffffffffff82169050919050565b6000819050919050565b6000610a5182610a3c565b91506000821415610a6557610a64610ae8565b5b600182039050919050565b6000610a7b82610a3c565b91507fffffffffffffffffffffffffffffffffffffffffffffffffffffffffffffffff821415610aae57610aad610ae8565b5b600182019050919050565b7f4e487b7100000000000000000000000000000000000000000000000000000000600052600160045260246000fd5b7f4e487b7100000000000000000000000000000000000000000000000000000000600052601160045260246000fd5b7f4e487b7100000000000000000000000000000000000000000000000000000000600052601260045260246000fd5b600080fd5b7f4e6f7420656e6f7567682066756e647300000000000000000000000000000000600082015250565b7f596f7520617265206e6f7420616c6c6f77656400000000000000000000000000600082015250565b7f596f7520617265206e6f7420746865206f776e65720000000000000000000000600082015250565b7f6e6f7420656e6f75676820746f6b656e73000000000000000000000000000000600082015250565b610bf881610a0a565b8114610c0357600080fd5b50565b610c0f81610a3c565b8114610c1a57600080fd5b5056fea2646970667358221220f5303fbc4e511681daa25dcbbc742d503f1f12924cf2216aff0f78cf9d18ea1864736f6c63430008070033",
					"opcodes": "PUSH1 0x80 PUSH1 0x40 MSTORE PUSH8 0xDE0B6B3A7640000 PUSH1 0x2 SSTORE CALLVALUE DUP1 ISZERO PUSH2 0x1C JUMPI PUSH1 0x0 DUP1 REVERT JUMPDEST POP CALLER PUSH1 0x1 PUSH1 0x0 PUSH2 0x100 EXP DUP2 SLOAD DUP2 PUSH20 0xFFFFFFFFFFFFFFFFFFFFFFFFFFFFFFFFFFFFFFFF MUL NOT AND SWAP1 DUP4 PUSH20 0xFFFFFFFFFFFFFFFFFFFFFFFFFFFFFFFFFFFFFFFF AND MUL OR SWAP1 SSTORE POP PUSH1 0x64 PUSH1 0x0 DUP1 PUSH1 0x1 PUSH1 0x0 SWAP1 SLOAD SWAP1 PUSH2 0x100 EXP SWAP1 DIV PUSH20 0xFFFFFFFFFFFFFFFFFFFFFFFFFFFFFFFFFFFFFFFF AND PUSH20 0xFFFFFFFFFFFFFFFFFFFFFFFFFFFFFFFFFFFFFFFF AND PUSH20 0xFFFFFFFFFFFFFFFFFFFFFFFFFFFFFFFFFFFFFFFF AND DUP2 MSTORE PUSH1 0x20 ADD SWAP1 DUP2 MSTORE PUSH1 0x20 ADD PUSH1 0x0 KECCAK256 DUP2 SWAP1 SSTORE POP PUSH2 0xC53 DUP1 PUSH2 0xD3 PUSH1 0x0 CODECOPY PUSH1 0x0 RETURN INVALID PUSH1 0x80 PUSH1 0x40 MSTORE PUSH1 0x4 CALLDATASIZE LT PUSH2 0x4A JUMPI PUSH1 0x0 CALLDATALOAD PUSH1 0xE0 SHR DUP1 PUSH4 0x412664AE EQ PUSH2 0x4F JUMPI DUP1 PUSH4 0x754FC38C EQ PUSH2 0x78 JUMPI DUP1 PUSH4 0xA95C4D62 EQ PUSH2 0x8F JUMPI DUP1 PUSH4 0xEEDC966A EQ PUSH2 0x99 JUMPI DUP1 PUSH4 0xFAA0A264 EQ PUSH2 0xD6 JUMPI JUMPDEST PUSH1 0x0 DUP1 REVERT JUMPDEST CALLVALUE DUP1 ISZERO PUSH2 0x5B JUMPI PUSH1 0x0 DUP1 REVERT JUMPDEST POP PUSH2 0x76 PUSH1 0x4 DUP1 CALLDATASIZE SUB DUP2 ADD SWAP1 PUSH2 0x71 SWAP2 SWAP1 PUSH2 0x76E JUMP JUMPDEST PUSH2 0xED JUMP JUMPDEST STOP JUMPDEST CALLVALUE DUP1 ISZERO PUSH2 0x84 JUMPI PUSH1 0x0 DUP1 REVERT JUMPDEST POP PUSH2 0x8D PUSH2 0x34C JUMP JUMPDEST STOP JUMPDEST PUSH2 0x97 PUSH2 0x454 JUMP JUMPDEST STOP JUMPDEST CALLVALUE DUP1 ISZERO PUSH2 0xA5 JUMPI PUSH1 0x0 DUP1 REVERT JUMPDEST POP PUSH2 0xC0 PUSH1 0x4 DUP1 CALLDATASIZE SUB DUP2 ADD SWAP1 PUSH2 0xBB SWAP2 SWAP1 PUSH2 0x741 JUMP JUMPDEST PUSH2 0x5F7 JUMP JUMPDEST PUSH1 0x40 MLOAD PUSH2 0xCD SWAP2 SWAP1 PUSH2 0x8C9 JUMP JUMPDEST PUSH1 0x40 MLOAD DUP1 SWAP2 SUB SWAP1 RETURN JUMPDEST CALLVALUE DUP1 ISZERO PUSH2 0xE2 JUMPI PUSH1 0x0 DUP1 REVERT JUMPDEST POP PUSH2 0xEB PUSH2 0x60F JUMP JUMPDEST STOP JUMPDEST DUP1 PUSH1 0x0 DUP1 CALLER PUSH20 0xFFFFFFFFFFFFFFFFFFFFFFFFFFFFFFFFFFFFFFFF AND PUSH20 0xFFFFFFFFFFFFFFFFFFFFFFFFFFFFFFFFFFFFFFFF AND DUP2 MSTORE PUSH1 0x20 ADD SWAP1 DUP2 MSTORE PUSH1 0x20 ADD PUSH1 0x0 KECCAK256 SLOAD LT ISZERO PUSH2 0x16E JUMPI PUSH1 0x40 MLOAD PUSH32 0x8C379A000000000000000000000000000000000000000000000000000000000 DUP2 MSTORE PUSH1 0x4 ADD PUSH2 0x165 SWAP1 PUSH2 0x849 JUMP JUMPDEST PUSH1 0x40 MLOAD DUP1 SWAP2 SUB SWAP1 REVERT JUMPDEST PUSH1 0x0 DUP1 DUP4 PUSH20 0xFFFFFFFFFFFFFFFFFFFFFFFFFFFFFFFFFFFFFFFF AND PUSH20 0xFFFFFFFFFFFFFFFFFFFFFFFFFFFFFFFFFFFFFFFF AND DUP2 MSTORE PUSH1 0x20 ADD SWAP1 DUP2 MSTORE PUSH1 0x20 ADD PUSH1 0x0 KECCAK256 SLOAD DUP2 PUSH1 0x0 DUP1 DUP6 PUSH20 0xFFFFFFFFFFFFFFFFFFFFFFFFFFFFFFFFFFFFFFFF AND PUSH20 0xFFFFFFFFFFFFFFFFFFFFFFFFFFFFFFFFFFFFFFFF AND DUP2 MSTORE PUSH1 0x20 ADD SWAP1 DUP2 MSTORE PUSH1 0x20 ADD PUSH1 0x0 KECCAK256 SLOAD PUSH2 0x1F7 SWAP2 SWAP1 PUSH2 0x8F5 JUMP JUMPDEST LT ISZERO PUSH2 0x206 JUMPI PUSH2 0x205 PUSH2 0xAB9 JUMP JUMPDEST JUMPDEST PUSH1 0x0 DUP1 CALLER PUSH20 0xFFFFFFFFFFFFFFFFFFFFFFFFFFFFFFFFFFFFFFFF AND PUSH20 0xFFFFFFFFFFFFFFFFFFFFFFFFFFFFFFFFFFFFFFFF AND DUP2 MSTORE PUSH1 0x20 ADD SWAP1 DUP2 MSTORE PUSH1 0x20 ADD PUSH1 0x0 KECCAK256 SLOAD DUP2 PUSH1 0x0 DUP1 CALLER PUSH20 0xFFFFFFFFFFFFFFFFFFFFFFFFFFFFFFFFFFFFFFFF AND PUSH20 0xFFFFFFFFFFFFFFFFFFFFFFFFFFFFFFFFFFFFFFFF AND DUP2 MSTORE PUSH1 0x20 ADD SWAP1 DUP2 MSTORE PUSH1 0x20 ADD PUSH1 0x0 KECCAK256 SLOAD PUSH2 0x28F SWAP2 SWAP1 PUSH2 0x9D6 JUMP JUMPDEST GT ISZERO PUSH2 0x29E JUMPI PUSH2 0x29D PUSH2 0xAB9 JUMP JUMPDEST JUMPDEST DUP1 PUSH1 0x0 DUP1 CALLER PUSH20 0xFFFFFFFFFFFFFFFFFFFFFFFFFFFFFFFFFFFFFFFF AND PUSH20 0xFFFFFFFFFFFFFFFFFFFFFFFFFFFFFFFFFFFFFFFF AND DUP2 MSTORE PUSH1 0x20 ADD SWAP1 DUP2 MSTORE PUSH1 0x20 ADD PUSH1 0x0 KECCAK256 PUSH1 0x0 DUP3 DUP3 SLOAD PUSH2 0x2EC SWAP2 SWAP1 PUSH2 0x9D6 JUMP JUMPDEST SWAP3 POP POP DUP2 SWAP1 SSTORE POP DUP1 PUSH1 0x0 DUP1 DUP5 PUSH20 0xFFFFFFFFFFFFFFFFFFFFFFFFFFFFFFFFFFFFFFFF AND PUSH20 0xFFFFFFFFFFFFFFFFFFFFFFFFFFFFFFFFFFFFFFFF AND DUP2 MSTORE PUSH1 0x20 ADD SWAP1 DUP2 MSTORE PUSH1 0x20 ADD PUSH1 0x0 KECCAK256 PUSH1 0x0 DUP3 DUP3 SLOAD PUSH2 0x341 SWAP2 SWAP1 PUSH2 0x8F5 JUMP JUMPDEST SWAP3 POP POP DUP2 SWAP1 SSTORE POP POP POP JUMP JUMPDEST PUSH1 0x1 PUSH1 0x0 SWAP1 SLOAD SWAP1 PUSH2 0x100 EXP SWAP1 DIV PUSH20 0xFFFFFFFFFFFFFFFFFFFFFFFFFFFFFFFFFFFFFFFF AND PUSH20 0xFFFFFFFFFFFFFFFFFFFFFFFFFFFFFFFFFFFFFFFF AND CALLER PUSH20 0xFFFFFFFFFFFFFFFFFFFFFFFFFFFFFFFFFFFFFFFF AND EQ PUSH2 0x3DC JUMPI PUSH1 0x40 MLOAD PUSH32 0x8C379A000000000000000000000000000000000000000000000000000000000 DUP2 MSTORE PUSH1 0x4 ADD PUSH2 0x3D3 SWAP1 PUSH2 0x889 JUMP JUMPDEST PUSH1 0x40 MLOAD DUP1 SWAP2 SUB SWAP1 REVERT JUMPDEST PUSH1 0x0 DUP1 PUSH1 0x1 PUSH1 0x0 SWAP1 SLOAD SWAP1 PUSH2 0x100 EXP SWAP1 DIV PUSH20 0xFFFFFFFFFFFFFFFFFFFFFFFFFFFFFFFFFFFFFFFF AND PUSH20 0xFFFFFFFFFFFFFFFFFFFFFFFFFFFFFFFFFFFFFFFF AND PUSH20 0xFFFFFFFFFFFFFFFFFFFFFFFFFFFFFFFFFFFFFFFF AND DUP2 MSTORE PUSH1 0x20 ADD SWAP1 DUP2 MSTORE PUSH1 0x20 ADD PUSH1 0x0 KECCAK256 PUSH1 0x0 DUP2 SLOAD DUP1 SWAP3 SWAP2 SWAP1 PUSH2 0x44D SWAP1 PUSH2 0xA70 JUMP JUMPDEST SWAP2 SWAP1 POP SSTORE POP JUMP JUMPDEST PUSH1 0x0 CALLVALUE PUSH1 0x2 SLOAD PUSH1 0x0 DUP1 PUSH1 0x1 PUSH1 0x0 SWAP1 SLOAD SWAP1 PUSH2 0x100 EXP SWAP1 DIV PUSH20 0xFFFFFFFFFFFFFFFFFFFFFFFFFFFFFFFFFFFFFFFF AND PUSH20 0xFFFFFFFFFFFFFFFFFFFFFFFFFFFFFFFFFFFFFFFF AND PUSH20 0xFFFFFFFFFFFFFFFFFFFFFFFFFFFFFFFFFFFFFFFF AND DUP2 MSTORE PUSH1 0x20 ADD SWAP1 DUP2 MSTORE PUSH1 0x20 ADD PUSH1 0x0 KECCAK256 SLOAD PUSH2 0x4C5 SWAP2 SWAP1 PUSH2 0x97C JUMP JUMPDEST PUSH2 0x4CF SWAP2 SWAP1 PUSH2 0x94B JUMP JUMPDEST GT PUSH2 0x50F JUMPI PUSH1 0x40 MLOAD PUSH32 0x8C379A000000000000000000000000000000000000000000000000000000000 DUP2 MSTORE PUSH1 0x4 ADD PUSH2 0x506 SWAP1 PUSH2 0x8A9 JUMP JUMPDEST PUSH1 0x40 MLOAD DUP1 SWAP2 SUB SWAP1 REVERT JUMPDEST PUSH1 0x2 SLOAD CALLVALUE PUSH2 0x51D SWAP2 SWAP1 PUSH2 0x94B JUMP JUMPDEST PUSH1 0x0 DUP1 PUSH1 0x1 PUSH1 0x0 SWAP1 SLOAD SWAP1 PUSH2 0x100 EXP SWAP1 DIV PUSH20 0xFFFFFFFFFFFFFFFFFFFFFFFFFFFFFFFFFFFFFFFF AND PUSH20 0xFFFFFFFFFFFFFFFFFFFFFFFFFFFFFFFFFFFFFFFF AND PUSH20 0xFFFFFFFFFFFFFFFFFFFFFFFFFFFFFFFFFFFFFFFF AND DUP2 MSTORE PUSH1 0x20 ADD SWAP1 DUP2 MSTORE PUSH1 0x20 ADD PUSH1 0x0 KECCAK256 PUSH1 0x0 DUP3 DUP3 SLOAD PUSH2 0x58C SWAP2 SWAP1 PUSH2 0x8F5 JUMP JUMPDEST SWAP3 POP POP DUP2 SWAP1 SSTORE POP PUSH1 0x2 SLOAD CALLVALUE PUSH2 0x5A1 SWAP2 SWAP1 PUSH2 0x94B JUMP JUMPDEST PUSH1 0x0 DUP1 CALLER PUSH20 0xFFFFFFFFFFFFFFFFFFFFFFFFFFFFFFFFFFFFFFFF AND PUSH20 0xFFFFFFFFFFFFFFFFFFFFFFFFFFFFFFFFFFFFFFFF AND DUP2 MSTORE PUSH1 0x20 ADD SWAP1 DUP2 MSTORE PUSH1 0x20 ADD PUSH1 0x0 KECCAK256 PUSH1 0x0 DUP3 DUP3 SLOAD PUSH2 0x5EE SWAP2 SWAP1 PUSH2 0x9D6 JUMP JUMPDEST SWAP3 POP POP DUP2 SWAP1 SSTORE POP JUMP JUMPDEST PUSH1 0x0 PUSH1 0x20 MSTORE DUP1 PUSH1 0x0 MSTORE PUSH1 0x40 PUSH1 0x0 KECCAK256 PUSH1 0x0 SWAP2 POP SWAP1 POP SLOAD DUP2 JUMP JUMPDEST PUSH1 0x1 PUSH1 0x0 SWAP1 SLOAD SWAP1 PUSH2 0x100 EXP SWAP1 DIV PUSH20 0xFFFFFFFFFFFFFFFFFFFFFFFFFFFFFFFFFFFFFFFF AND PUSH20 0xFFFFFFFFFFFFFFFFFFFFFFFFFFFFFFFFFFFFFFFF AND CALLER PUSH20 0xFFFFFFFFFFFFFFFFFFFFFFFFFFFFFFFFFFFFFFFF AND EQ PUSH2 0x69F JUMPI PUSH1 0x40 MLOAD PUSH32 0x8C379A000000000000000000000000000000000000000000000000000000000 DUP2 MSTORE PUSH1 0x4 ADD PUSH2 0x696 SWAP1 PUSH2 0x869 JUMP JUMPDEST PUSH1 0x40 MLOAD DUP1 SWAP2 SUB SWAP1 REVERT JUMPDEST PUSH1 0x0 DUP1 PUSH1 0x1 PUSH1 0x0 SWAP1 SLOAD SWAP1 PUSH2 0x100 EXP SWAP1 DIV PUSH20 0xFFFFFFFFFFFFFFFFFFFFFFFFFFFFFFFFFFFFFFFF AND PUSH20 0xFFFFFFFFFFFFFFFFFFFFFFFFFFFFFFFFFFFFFFFF AND PUSH20 0xFFFFFFFFFFFFFFFFFFFFFFFFFFFFFFFFFFFFFFFF AND DUP2 MSTORE PUSH1 0x20 ADD SWAP1 DUP2 MSTORE PUSH1 0x20 ADD PUSH1 0x0 KECCAK256 PUSH1 0x0 DUP2 SLOAD DUP1 SWAP3 SWAP2 SWAP1 PUSH2 0x710 SWAP1 PUSH2 0xA46 JUMP JUMPDEST SWAP2 SWAP1 POP SSTORE POP JUMP JUMPDEST PUSH1 0x0 DUP2 CALLDATALOAD SWAP1 POP PUSH2 0x726 DUP2 PUSH2 0xBEF JUMP JUMPDEST SWAP3 SWAP2 POP POP JUMP JUMPDEST PUSH1 0x0 DUP2 CALLDATALOAD SWAP1 POP PUSH2 0x73B DUP2 PUSH2 0xC06 JUMP JUMPDEST SWAP3 SWAP2 POP POP JUMP JUMPDEST PUSH1 0x0 PUSH1 0x20 DUP3 DUP5 SUB SLT ISZERO PUSH2 0x757 JUMPI PUSH2 0x756 PUSH2 0xB46 JUMP JUMPDEST JUMPDEST PUSH1 0x0 PUSH2 0x765 DUP5 DUP3 DUP6 ADD PUSH2 0x717 JUMP JUMPDEST SWAP2 POP POP SWAP3 SWAP2 POP POP JUMP JUMPDEST PUSH1 0x0 DUP1 PUSH1 0x40 DUP4 DUP6 SUB SLT ISZERO PUSH2 0x785 JUMPI PUSH2 0x784 PUSH2 0xB46 JUMP JUMPDEST JUMPDEST PUSH1 0x0 PUSH2 0x793 DUP6 DUP3 DUP7 ADD PUSH2 0x717 JUMP JUMPDEST SWAP3 POP POP PUSH1 0x20 PUSH2 0x7A4 DUP6 DUP3 DUP7 ADD PUSH2 0x72C JUMP JUMPDEST SWAP2 POP POP SWAP3 POP SWAP3 SWAP1 POP JUMP JUMPDEST PUSH1 0x0 PUSH2 0x7BB PUSH1 0x10 DUP4 PUSH2 0x8E4 JUMP JUMPDEST SWAP2 POP PUSH2 0x7C6 DUP3 PUSH2 0xB4B JUMP JUMPDEST PUSH1 0x20 DUP3 ADD SWAP1 POP SWAP2 SWAP1 POP JUMP JUMPDEST PUSH1 0x0 PUSH2 0x7DE PUSH1 0x13 DUP4 PUSH2 0x8E4 JUMP JUMPDEST SWAP2 POP PUSH2 0x7E9 DUP3 PUSH2 0xB74 JUMP JUMPDEST PUSH1 0x20 DUP3 ADD SWAP1 POP SWAP2 SWAP1 POP JUMP JUMPDEST PUSH1 0x0 PUSH2 0x801 PUSH1 0x15 DUP4 PUSH2 0x8E4 JUMP JUMPDEST SWAP2 POP PUSH2 0x80C DUP3 PUSH2 0xB9D JUMP JUMPDEST PUSH1 0x20 DUP3 ADD SWAP1 POP SWAP2 SWAP1 POP JUMP JUMPDEST PUSH1 0x0 PUSH2 0x824 PUSH1 0x11 DUP4 PUSH2 0x8E4 JUMP JUMPDEST SWAP2 POP PUSH2 0x82F DUP3 PUSH2 0xBC6 JUMP JUMPDEST PUSH1 0x20 DUP3 ADD SWAP1 POP SWAP2 SWAP1 POP JUMP JUMPDEST PUSH2 0x843 DUP2 PUSH2 0xA3C JUMP JUMPDEST DUP3 MSTORE POP POP JUMP JUMPDEST PUSH1 0x0 PUSH1 0x20 DUP3 ADD SWAP1 POP DUP2 DUP2 SUB PUSH1 0x0 DUP4 ADD MSTORE PUSH2 0x862 DUP2 PUSH2 0x7AE JUMP JUMPDEST SWAP1 POP SWAP2 SWAP1 POP JUMP JUMPDEST PUSH1 0x0 PUSH1 0x20 DUP3 ADD SWAP1 POP DUP2 DUP2 SUB PUSH1 0x0 DUP4 ADD MSTORE PUSH2 0x882 DUP2 PUSH2 0x7D1 JUMP JUMPDEST SWAP1 POP SWAP2 SWAP1 POP JUMP JUMPDEST PUSH1 0x0 PUSH1 0x20 DUP3 ADD SWAP1 POP DUP2 DUP2 SUB PUSH1 0x0 DUP4 ADD MSTORE PUSH2 0x8A2 DUP2 PUSH2 0x7F4 JUMP JUMPDEST SWAP1 POP SWAP2 SWAP1 POP JUMP JUMPDEST PUSH1 0x0 PUSH1 0x20 DUP3 ADD SWAP1 POP DUP2 DUP2 SUB PUSH1 0x0 DUP4 ADD MSTORE PUSH2 0x8C2 DUP2 PUSH2 0x817 JUMP JUMPDEST SWAP1 POP SWAP2 SWAP1 POP JUMP JUMPDEST PUSH1 0x0 PUSH1 0x20 DUP3 ADD SWAP1 POP PUSH2 0x8DE PUSH1 0x0 DUP4 ADD DUP5 PUSH2 0x83A JUMP JUMPDEST SWAP3 SWAP2 POP POP JUMP JUMPDEST PUSH1 0x0 DUP3 DUP3 MSTORE PUSH1 0x20 DUP3 ADD SWAP1 POP SWAP3 SWAP2 POP POP JUMP JUMPDEST PUSH1 0x0 PUSH2 0x900 DUP3 PUSH2 0xA3C JUMP JUMPDEST SWAP2 POP PUSH2 0x90B DUP4 PUSH2 0xA3C JUMP JUMPDEST SWAP3 POP DUP3 PUSH32 0xFFFFFFFFFFFFFFFFFFFFFFFFFFFFFFFFFFFFFFFFFFFFFFFFFFFFFFFFFFFFFFFF SUB DUP3 GT ISZERO PUSH2 0x940 JUMPI PUSH2 0x93F PUSH2 0xAE8 JUMP JUMPDEST JUMPDEST DUP3 DUP3 ADD SWAP1 POP SWAP3 SWAP2 POP POP JUMP JUMPDEST PUSH1 0x0 PUSH2 0x956 DUP3 PUSH2 0xA3C JUMP JUMPDEST SWAP2 POP PUSH2 0x961 DUP4 PUSH2 0xA3C JUMP JUMPDEST SWAP3 POP DUP3 PUSH2 0x971 JUMPI PUSH2 0x970 PUSH2 0xB17 JUMP JUMPDEST JUMPDEST DUP3 DUP3 DIV SWAP1 POP SWAP3 SWAP2 POP POP JUMP JUMPDEST PUSH1 0x0 PUSH2 0x987 DUP3 PUSH2 0xA3C JUMP JUMPDEST SWAP2 POP PUSH2 0x992 DUP4 PUSH2 0xA3C JUMP JUMPDEST SWAP3 POP DUP2 PUSH32 0xFFFFFFFFFFFFFFFFFFFFFFFFFFFFFFFFFFFFFFFFFFFFFFFFFFFFFFFFFFFFFFFF DIV DUP4 GT DUP3 ISZERO ISZERO AND ISZERO PUSH2 0x9CB JUMPI PUSH2 0x9CA PUSH2 0xAE8 JUMP JUMPDEST JUMPDEST DUP3 DUP3 MUL SWAP1 POP SWAP3 SWAP2 POP POP JUMP JUMPDEST PUSH1 0x0 PUSH2 0x9E1 DUP3 PUSH2 0xA3C JUMP JUMPDEST SWAP2 POP PUSH2 0x9EC DUP4 PUSH2 0xA3C JUMP JUMPDEST SWAP3 POP DUP3 DUP3 LT ISZERO PUSH2 0x9FF JUMPI PUSH2 0x9FE PUSH2 0xAE8 JUMP JUMPDEST JUMPDEST DUP3 DUP3 SUB SWAP1 POP SWAP3 SWAP2 POP POP JUMP JUMPDEST PUSH1 0x0 PUSH2 0xA15 DUP3 PUSH2 0xA1C JUMP JUMPDEST SWAP1 POP SWAP2 SWAP1 POP JUMP JUMPDEST PUSH1 0x0 PUSH20 0xFFFFFFFFFFFFFFFFFFFFFFFFFFFFFFFFFFFFFFFF DUP3 AND SWAP1 POP SWAP2 SWAP1 POP JUMP JUMPDEST PUSH1 0x0 DUP2 SWAP1 POP SWAP2 SWAP1 POP JUMP JUMPDEST PUSH1 0x0 PUSH2 0xA51 DUP3 PUSH2 0xA3C JUMP JUMPDEST SWAP2 POP PUSH1 0x0 DUP3 EQ ISZERO PUSH2 0xA65 JUMPI PUSH2 0xA64 PUSH2 0xAE8 JUMP JUMPDEST JUMPDEST PUSH1 0x1 DUP3 SUB SWAP1 POP SWAP2 SWAP1 POP JUMP JUMPDEST PUSH1 0x0 PUSH2 0xA7B DUP3 PUSH2 0xA3C JUMP JUMPDEST SWAP2 POP PUSH32 0xFFFFFFFFFFFFFFFFFFFFFFFFFFFFFFFFFFFFFFFFFFFFFFFFFFFFFFFFFFFFFFFF DUP3 EQ ISZERO PUSH2 0xAAE JUMPI PUSH2 0xAAD PUSH2 0xAE8 JUMP JUMPDEST JUMPDEST PUSH1 0x1 DUP3 ADD SWAP1 POP SWAP2 SWAP1 POP JUMP JUMPDEST PUSH32 0x4E487B7100000000000000000000000000000000000000000000000000000000 PUSH1 0x0 MSTORE PUSH1 0x1 PUSH1 0x4 MSTORE PUSH1 0x24 PUSH1 0x0 REVERT JUMPDEST PUSH32 0x4E487B7100000000000000000000000000000000000000000000000000000000 PUSH1 0x0 MSTORE PUSH1 0x11 PUSH1 0x4 MSTORE PUSH1 0x24 PUSH1 0x0 REVERT JUMPDEST PUSH32 0x4E487B7100000000000000000000000000000000000000000000000000000000 PUSH1 0x0 MSTORE PUSH1 0x12 PUSH1 0x4 MSTORE PUSH1 0x24 PUSH1 0x0 REVERT JUMPDEST PUSH1 0x0 DUP1 REVERT JUMPDEST PUSH32 0x4E6F7420656E6F7567682066756E647300000000000000000000000000000000 PUSH1 0x0 DUP3 ADD MSTORE POP JUMP JUMPDEST PUSH32 0x596F7520617265206E6F7420616C6C6F77656400000000000000000000000000 PUSH1 0x0 DUP3 ADD MSTORE POP JUMP JUMPDEST PUSH32 0x596F7520617265206E6F7420746865206F776E65720000000000000000000000 PUSH1 0x0 DUP3 ADD MSTORE POP JUMP JUMPDEST PUSH32 0x6E6F7420656E6F75676820746F6B656E73000000000000000000000000000000 PUSH1 0x0 DUP3 ADD MSTORE POP JUMP JUMPDEST PUSH2 0xBF8 DUP2 PUSH2 0xA0A JUMP JUMPDEST DUP2 EQ PUSH2 0xC03 JUMPI PUSH1 0x0 DUP1 REVERT JUMPDEST POP JUMP JUMPDEST PUSH2 0xC0F DUP2 PUSH2 0xA3C JUMP JUMPDEST DUP2 EQ PUSH2 0xC1A JUMPI PUSH1 0x0 DUP1 REVERT JUMPDEST POP JUMP INVALID LOG2 PUSH5 0x6970667358 0x22 SLT KECCAK256 CREATE2 ADDRESS EXTCODEHASH 0xBC 0x4E MLOAD AND DUP2 0xDA LOG2 0x5D 0xCB 0xBC PUSH21 0x2D503F1F12924CF2216AFF0F78CF9D18EA1864736F PUSH13 0x63430008070033000000000000 "
				},
				"gasEstimates": {
					"creation": {
						"codeDepositCost": "631000",
						"executionCost": "71376",
						"totalCost": "702376"
					},
					"external": {
						"burnToken()": "28966",
						"createNewToken()": "28900",
						"purchaseToken()": "infinite",
						"sendToken(address,uint256)": "infinite",
						"tokenBalance(address)": "2858"
					}
				},
				"methodIdentifiers": {
					"burnToken()": "faa0a264",
					"createNewToken()": "754fc38c",
					"purchaseToken()": "a95c4d62",
					"sendToken(address,uint256)": "412664ae",
					"tokenBalance(address)": "eedc966a"
				}
			},
			"storageLayout": {
				"storage": [
					{
						"astId": 5,
						"contract": "InheritanceModifierExample.sol:InheritanceModifierExample",
						"label": "tokenBalance",
						"offset": 0,
						"slot": "0",
						"type": "t_mapping(t_address,t_uint256)"
					},
					{
						"astId": 7,
						"contract": "InheritanceModifierExample.sol:InheritanceModifierExample",
						"label": "owner",
						"offset": 0,
						"slot": "1",
						"type": "t_address"
					},
					{
						"astId": 10,
						"contract": "InheritanceModifierExample.sol:InheritanceModifierExample",
						"label": "tokenPrice",
						"offset": 0,
						"slot": "2",
						"type": "t_uint256"
					}
				],
				"types": {
					"t_address": {
						"encoding": "inplace",
						"label": "address",
						"numberOfBytes": "20"
					},
					"t_mapping(t_address,t_uint256)": {
						"encoding": "mapping",
						"key": "t_address",
						"label": "mapping(address => uint256)",
						"numberOfBytes": "32",
						"value": "t_uint256"
					},
					"t_uint256": {
						"encoding": "inplace",
						"label": "uint256",
						"numberOfBytes": "32"
					}
				}
			},
			"userdoc": {
				"kind": "user",
				"methods": {},
				"version": 1
			}
		}
	}
}