{
	"FallBackExample.sol": {
		"FunctionsExample": {
			"abi": [
				{
					"inputs": [],
					"stateMutability": "nonpayable",
					"type": "constructor"
				},
				{
					"inputs": [
						{
							"internalType": "address",
							"name": "",
							"type": "address"
						}
					],
					"name": "balanceReceived",
					"outputs": [
						{
							"internalType": "uint256",
							"name": "",
							"type": "uint256"
						}
					],
					"stateMutability": "view",
					"type": "function"
				},
				{
					"inputs": [],
					"name": "destroySmartContract",
					"outputs": [],
					"stateMutability": "nonpayable",
					"type": "function"
				},
				{
					"inputs": [],
					"name": "owner",
					"outputs": [
						{
							"internalType": "address payable",
							"name": "",
							"type": "address"
						}
					],
					"stateMutability": "view",
					"type": "function"
				},
				{
					"inputs": [],
					"name": "receiveMoney",
					"outputs": [],
					"stateMutability": "payable",
					"type": "function"
				},
				{
					"inputs": [
						{
							"internalType": "address payable",
							"name": "_to",
							"type": "address"
						},
						{
							"internalType": "uint256",
							"name": "_amount",
							"type": "uint256"
						}
					],
					"name": "withdrawMoney",
					"outputs": [],
					"stateMutability": "nonpayable",
					"type": "function"
				},
				{
					"stateMutability": "payable",
					"type": "receive"
				}
			],
			"devdoc": {
				"kind": "dev",
				"methods": {},
				"version": 1
			},
			"evm": {
				"assembly": "    /* \"FallBackExample.sol\":26:1015  contract FunctionsExample {\r... */\n  mstore(0x40, 0x80)\n    /* \"FallBackExample.sol\":163:224  constructor(){\r... */\n  callvalue\n  dup1\n  iszero\n  tag_1\n  jumpi\n  0x00\n  dup1\n  revert\ntag_1:\n  pop\n    /* \"FallBackExample.sol\":202:212  msg.sender */\n  caller\n    /* \"FallBackExample.sol\":188:193  owner */\n  0x01\n  0x00\n    /* \"FallBackExample.sol\":188:213  owner=payable(msg.sender) */\n  0x0100\n  exp\n  dup2\n  sload\n  dup2\n  0xffffffffffffffffffffffffffffffffffffffff\n  mul\n  not\n  and\n  swap1\n  dup4\n  0xffffffffffffffffffffffffffffffffffffffff\n  and\n  mul\n  or\n  swap1\n  sstore\n  pop\n    /* \"FallBackExample.sol\":26:1015  contract FunctionsExample {\r... */\n  dataSize(sub_0)\n  dup1\n  dataOffset(sub_0)\n  0x00\n  codecopy\n  0x00\n  return\nstop\n\nsub_0: assembly {\n        /* \"FallBackExample.sol\":26:1015  contract FunctionsExample {\r... */\n      mstore(0x40, 0x80)\n      jumpi(tag_1, lt(calldatasize, 0x04))\n      shr(0xe0, calldataload(0x00))\n      dup1\n      0x6d26ec18\n      eq\n      tag_3\n      jumpi\n      dup1\n      0x85474728\n      eq\n      tag_4\n      jumpi\n      dup1\n      0x8da5cb5b\n      eq\n      tag_5\n      jumpi\n      dup1\n      0xd18a42e1\n      eq\n      tag_6\n      jumpi\n      dup1\n      0xf274c897\n      eq\n      tag_7\n      jumpi\n      jump(tag_2)\n    tag_1:\n      jumpi(tag_2, calldatasize)\n        /* \"FallBackExample.sol\":988:1002  receiveMoney() */\n      tag_10\n        /* \"FallBackExample.sol\":988:1000  receiveMoney */\n      tag_11\n        /* \"FallBackExample.sol\":988:1002  receiveMoney() */\n      jump\t// in\n    tag_10:\n        /* \"FallBackExample.sol\":26:1015  contract FunctionsExample {\r... */\n      stop\n    tag_2:\n      0x00\n      dup1\n      revert\n        /* \"FallBackExample.sol\":395:600  function receiveMoney () public payable {\r... */\n    tag_3:\n      tag_12\n      tag_11\n      jump\t// in\n    tag_12:\n      stop\n        /* \"FallBackExample.sol\":242:386  function destroySmartContract() public{\r... */\n    tag_4:\n      callvalue\n      dup1\n      iszero\n      tag_13\n      jumpi\n      0x00\n      dup1\n      revert\n    tag_13:\n      pop\n      tag_14\n      tag_15\n      jump\t// in\n    tag_14:\n      stop\n        /* \"FallBackExample.sol\":125:153  address payable public owner */\n    tag_5:\n      callvalue\n      dup1\n      iszero\n      tag_16\n      jumpi\n      0x00\n      dup1\n      revert\n    tag_16:\n      pop\n      tag_17\n      tag_18\n      jump\t// in\n    tag_17:\n      mload(0x40)\n      tag_19\n      swap2\n      swap1\n      tag_20\n      jump\t// in\n    tag_19:\n      mload(0x40)\n      dup1\n      swap2\n      sub\n      swap1\n      return\n        /* \"FallBackExample.sol\":67:115  mapping (address => uint) public balanceReceived */\n    tag_6:\n      callvalue\n      dup1\n      iszero\n      tag_21\n      jumpi\n      0x00\n      dup1\n      revert\n    tag_21:\n      pop\n      tag_22\n      0x04\n      dup1\n      calldatasize\n      sub\n      dup2\n      add\n      swap1\n      tag_23\n      swap2\n      swap1\n      tag_24\n      jump\t// in\n    tag_23:\n      tag_25\n      jump\t// in\n    tag_22:\n      mload(0x40)\n      tag_26\n      swap2\n      swap1\n      tag_27\n      jump\t// in\n    tag_26:\n      mload(0x40)\n      dup1\n      swap2\n      sub\n      swap1\n      return\n        /* \"FallBackExample.sol\":609:940  function withdrawMoney (address payable _to, uint _amount) public {\r... */\n    tag_7:\n      callvalue\n      dup1\n      iszero\n      tag_28\n      jumpi\n      0x00\n      dup1\n      revert\n    tag_28:\n      pop\n      tag_29\n      0x04\n      dup1\n      calldatasize\n      sub\n      dup2\n      add\n      swap1\n      tag_30\n      swap2\n      swap1\n      tag_31\n      jump\t// in\n    tag_30:\n      tag_32\n      jump\t// in\n    tag_29:\n      stop\n        /* \"FallBackExample.sol\":395:600  function receiveMoney () public payable {\r... */\n    tag_11:\n        /* \"FallBackExample.sol\":498:513  balanceReceived */\n      0x00\n        /* \"FallBackExample.sol\":498:525  balanceReceived[msg.sender] */\n      dup1\n        /* \"FallBackExample.sol\":514:524  msg.sender */\n      caller\n        /* \"FallBackExample.sol\":498:525  balanceReceived[msg.sender] */\n      0xffffffffffffffffffffffffffffffffffffffff\n      and\n      0xffffffffffffffffffffffffffffffffffffffff\n      and\n      dup2\n      mstore\n      0x20\n      add\n      swap1\n      dup2\n      mstore\n      0x20\n      add\n      0x00\n      keccak256\n      sload\n        /* \"FallBackExample.sol\":485:494  msg.value */\n      callvalue\n        /* \"FallBackExample.sol\":457:472  balanceReceived */\n      0x00\n        /* \"FallBackExample.sol\":457:484  balanceReceived[msg.sender] */\n      dup1\n        /* \"FallBackExample.sol\":473:483  msg.sender */\n      caller\n        /* \"FallBackExample.sol\":457:484  balanceReceived[msg.sender] */\n      0xffffffffffffffffffffffffffffffffffffffff\n      and\n      0xffffffffffffffffffffffffffffffffffffffff\n      and\n      dup2\n      mstore\n      0x20\n      add\n      swap1\n      dup2\n      mstore\n      0x20\n      add\n      0x00\n      keccak256\n      sload\n        /* \"FallBackExample.sol\":457:494  balanceReceived[msg.sender]+msg.value */\n      tag_34\n      swap2\n      swap1\n      tag_35\n      jump\t// in\n    tag_34:\n        /* \"FallBackExample.sol\":457:525  balanceReceived[msg.sender]+msg.value >= balanceReceived[msg.sender] */\n      lt\n      iszero\n        /* \"FallBackExample.sol\":449:526  assert (balanceReceived[msg.sender]+msg.value >= balanceReceived[msg.sender]) */\n      tag_36\n      jumpi\n      tag_37\n      tag_38\n      jump\t// in\n    tag_37:\n    tag_36:\n        /* \"FallBackExample.sol\":580:589  msg.value */\n      callvalue\n        /* \"FallBackExample.sol\":549:564  balanceReceived */\n      0x00\n        /* \"FallBackExample.sol\":549:576  balanceReceived[msg.sender] */\n      dup1\n        /* \"FallBackExample.sol\":565:575  msg.sender */\n      caller\n        /* \"FallBackExample.sol\":549:576  balanceReceived[msg.sender] */\n      0xffffffffffffffffffffffffffffffffffffffff\n      and\n      0xffffffffffffffffffffffffffffffffffffffff\n      and\n      dup2\n      mstore\n      0x20\n      add\n      swap1\n      dup2\n      mstore\n      0x20\n      add\n      0x00\n      keccak256\n      0x00\n        /* \"FallBackExample.sol\":549:589  balanceReceived[msg.sender] += msg.value */\n      dup3\n      dup3\n      sload\n      tag_39\n      swap2\n      swap1\n      tag_35\n      jump\t// in\n    tag_39:\n      swap3\n      pop\n      pop\n      dup2\n      swap1\n      sstore\n      pop\n        /* \"FallBackExample.sol\":395:600  function receiveMoney () public payable {\r... */\n      jump\t// out\n        /* \"FallBackExample.sol\":242:386  function destroySmartContract() public{\r... */\n    tag_15:\n        /* \"FallBackExample.sol\":315:320  owner */\n      0x01\n      0x00\n      swap1\n      sload\n      swap1\n      0x0100\n      exp\n      swap1\n      div\n      0xffffffffffffffffffffffffffffffffffffffff\n      and\n        /* \"FallBackExample.sol\":301:320  msg.sender == owner */\n      0xffffffffffffffffffffffffffffffffffffffff\n      and\n        /* \"FallBackExample.sol\":301:311  msg.sender */\n      caller\n        /* \"FallBackExample.sol\":301:320  msg.sender == owner */\n      0xffffffffffffffffffffffffffffffffffffffff\n      and\n      eq\n        /* \"FallBackExample.sol\":292:346  require (msg.sender == owner, \"you are not the owner\") */\n      tag_41\n      jumpi\n      mload(0x40)\n      0x08c379a000000000000000000000000000000000000000000000000000000000\n      dup2\n      mstore\n      0x04\n      add\n      tag_42\n      swap1\n      tag_43\n      jump\t// in\n    tag_42:\n      mload(0x40)\n      dup1\n      swap2\n      sub\n      swap1\n      revert\n    tag_41:\n        /* \"FallBackExample.sol\":371:376  owner */\n      0x01\n      0x00\n      swap1\n      sload\n      swap1\n      0x0100\n      exp\n      swap1\n      div\n      0xffffffffffffffffffffffffffffffffffffffff\n      and\n        /* \"FallBackExample.sol\":358:377  selfdestruct(owner) */\n      0xffffffffffffffffffffffffffffffffffffffff\n      and\n      selfdestruct\n        /* \"FallBackExample.sol\":125:153  address payable public owner */\n    tag_18:\n      0x01\n      0x00\n      swap1\n      sload\n      swap1\n      0x0100\n      exp\n      swap1\n      div\n      0xffffffffffffffffffffffffffffffffffffffff\n      and\n      dup2\n      jump\t// out\n        /* \"FallBackExample.sol\":67:115  mapping (address => uint) public balanceReceived */\n    tag_25:\n      mstore(0x20, 0x00)\n      dup1\n      0x00\n      mstore\n      keccak256(0x00, 0x40)\n      0x00\n      swap2\n      pop\n      swap1\n      pop\n      sload\n      dup2\n      jump\t// out\n        /* \"FallBackExample.sol\":609:940  function withdrawMoney (address payable _to, uint _amount) public {\r... */\n    tag_32:\n        /* \"FallBackExample.sol\":707:722  balanceReceived */\n      0x00\n        /* \"FallBackExample.sol\":707:734  balanceReceived[msg.sender] */\n      dup1\n        /* \"FallBackExample.sol\":723:733  msg.sender */\n      caller\n        /* \"FallBackExample.sol\":707:734  balanceReceived[msg.sender] */\n      0xffffffffffffffffffffffffffffffffffffffff\n      and\n      0xffffffffffffffffffffffffffffffffffffffff\n      and\n      dup2\n      mstore\n      0x20\n      add\n      swap1\n      dup2\n      mstore\n      0x20\n      add\n      0x00\n      keccak256\n      sload\n        /* \"FallBackExample.sol\":696:703  _amount */\n      dup2\n        /* \"FallBackExample.sol\":696:734  _amount <= balanceReceived[msg.sender] */\n      gt\n      iszero\n        /* \"FallBackExample.sol\":687:756  require (_amount <= balanceReceived[msg.sender], \"not enough funds.\") */\n      tag_45\n      jumpi\n      mload(0x40)\n      0x08c379a000000000000000000000000000000000000000000000000000000000\n      dup2\n      mstore\n      0x04\n      add\n      tag_46\n      swap1\n      tag_47\n      jump\t// in\n    tag_46:\n      mload(0x40)\n      dup1\n      swap2\n      sub\n      swap1\n      revert\n    tag_45:\n        /* \"FallBackExample.sol\":838:845  _amount */\n      dup1\n        /* \"FallBackExample.sol\":809:824  balanceReceived */\n      0x00\n        /* \"FallBackExample.sol\":809:836  balanceReceived[msg.sender] */\n      dup1\n        /* \"FallBackExample.sol\":825:835  msg.sender */\n      caller\n        /* \"FallBackExample.sol\":809:836  balanceReceived[msg.sender] */\n      0xffffffffffffffffffffffffffffffffffffffff\n      and\n      0xffffffffffffffffffffffffffffffffffffffff\n      and\n      dup2\n      mstore\n      0x20\n      add\n      swap1\n      dup2\n      mstore\n      0x20\n      add\n      0x00\n      keccak256\n      sload\n        /* \"FallBackExample.sol\":809:845  balanceReceived[msg.sender]- _amount */\n      tag_48\n      swap2\n      swap1\n      tag_49\n      jump\t// in\n    tag_48:\n        /* \"FallBackExample.sol\":778:793  balanceReceived */\n      0x00\n        /* \"FallBackExample.sol\":778:805  balanceReceived[msg.sender] */\n      dup1\n        /* \"FallBackExample.sol\":794:804  msg.sender */\n      caller\n        /* \"FallBackExample.sol\":778:805  balanceReceived[msg.sender] */\n      0xffffffffffffffffffffffffffffffffffffffff\n      and\n      0xffffffffffffffffffffffffffffffffffffffff\n      and\n      dup2\n      mstore\n      0x20\n      add\n      swap1\n      dup2\n      mstore\n      0x20\n      add\n      0x00\n      keccak256\n      sload\n        /* \"FallBackExample.sol\":778:845  balanceReceived[msg.sender] >= balanceReceived[msg.sender]- _amount */\n      lt\n      iszero\n        /* \"FallBackExample.sol\":770:846  assert (balanceReceived[msg.sender] >= balanceReceived[msg.sender]- _amount) */\n      tag_50\n      jumpi\n      tag_51\n      tag_38\n      jump\t// in\n    tag_51:\n    tag_50:\n        /* \"FallBackExample.sol\":889:896  _amount */\n      dup1\n        /* \"FallBackExample.sol\":858:873  balanceReceived */\n      0x00\n        /* \"FallBackExample.sol\":858:885  balanceReceived[msg.sender] */\n      dup1\n        /* \"FallBackExample.sol\":874:884  msg.sender */\n      caller\n        /* \"FallBackExample.sol\":858:885  balanceReceived[msg.sender] */\n      0xffffffffffffffffffffffffffffffffffffffff\n      and\n      0xffffffffffffffffffffffffffffffffffffffff\n      and\n      dup2\n      mstore\n      0x20\n      add\n      swap1\n      dup2\n      mstore\n      0x20\n      add\n      0x00\n      keccak256\n      0x00\n        /* \"FallBackExample.sol\":858:896  balanceReceived[msg.sender] -= _amount */\n      dup3\n      dup3\n      sload\n      tag_52\n      swap2\n      swap1\n      tag_49\n      jump\t// in\n    tag_52:\n      swap3\n      pop\n      pop\n      dup2\n      swap1\n      sstore\n      pop\n        /* \"FallBackExample.sol\":908:911  _to */\n      dup2\n        /* \"FallBackExample.sol\":908:920  _to.transfer */\n      0xffffffffffffffffffffffffffffffffffffffff\n      and\n        /* \"FallBackExample.sol\":908:929  _to.transfer(_amount) */\n      0x08fc\n        /* \"FallBackExample.sol\":921:928  _amount */\n      dup3\n        /* \"FallBackExample.sol\":908:929  _to.transfer(_amount) */\n      swap1\n      dup2\n      iszero\n      mul\n      swap1\n      mload(0x40)\n      0x00\n      mload(0x40)\n      dup1\n      dup4\n      sub\n      dup2\n      dup6\n      dup9\n      dup9\n      call\n      swap4\n      pop\n      pop\n      pop\n      pop\n      iszero\n      dup1\n      iszero\n      tag_54\n      jumpi\n      returndatasize\n      0x00\n      dup1\n      returndatacopy\n      revert(0x00, returndatasize)\n    tag_54:\n      pop\n        /* \"FallBackExample.sol\":609:940  function withdrawMoney (address payable _to, uint _amount) public {\r... */\n      pop\n      pop\n      jump\t// out\n        /* \"#utility.yul\":7:146   */\n    tag_56:\n        /* \"#utility.yul\":53:58   */\n      0x00\n        /* \"#utility.yul\":91:97   */\n      dup2\n        /* \"#utility.yul\":78:98   */\n      calldataload\n        /* \"#utility.yul\":69:98   */\n      swap1\n      pop\n        /* \"#utility.yul\":107:140   */\n      tag_58\n        /* \"#utility.yul\":134:139   */\n      dup2\n        /* \"#utility.yul\":107:140   */\n      tag_59\n      jump\t// in\n    tag_58:\n        /* \"#utility.yul\":7:146   */\n      swap3\n      swap2\n      pop\n      pop\n      jump\t// out\n        /* \"#utility.yul\":152:307   */\n    tag_60:\n        /* \"#utility.yul\":206:211   */\n      0x00\n        /* \"#utility.yul\":244:250   */\n      dup2\n        /* \"#utility.yul\":231:251   */\n      calldataload\n        /* \"#utility.yul\":222:251   */\n      swap1\n      pop\n        /* \"#utility.yul\":260:301   */\n      tag_62\n        /* \"#utility.yul\":295:300   */\n      dup2\n        /* \"#utility.yul\":260:301   */\n      tag_63\n      jump\t// in\n    tag_62:\n        /* \"#utility.yul\":152:307   */\n      swap3\n      swap2\n      pop\n      pop\n      jump\t// out\n        /* \"#utility.yul\":313:452   */\n    tag_64:\n        /* \"#utility.yul\":359:364   */\n      0x00\n        /* \"#utility.yul\":397:403   */\n      dup2\n        /* \"#utility.yul\":384:404   */\n      calldataload\n        /* \"#utility.yul\":375:404   */\n      swap1\n      pop\n        /* \"#utility.yul\":413:446   */\n      tag_66\n        /* \"#utility.yul\":440:445   */\n      dup2\n        /* \"#utility.yul\":413:446   */\n      tag_67\n      jump\t// in\n    tag_66:\n        /* \"#utility.yul\":313:452   */\n      swap3\n      swap2\n      pop\n      pop\n      jump\t// out\n        /* \"#utility.yul\":458:787   */\n    tag_24:\n        /* \"#utility.yul\":517:523   */\n      0x00\n        /* \"#utility.yul\":566:568   */\n      0x20\n        /* \"#utility.yul\":554:563   */\n      dup3\n        /* \"#utility.yul\":545:552   */\n      dup5\n        /* \"#utility.yul\":541:564   */\n      sub\n        /* \"#utility.yul\":537:569   */\n      slt\n        /* \"#utility.yul\":534:653   */\n      iszero\n      tag_69\n      jumpi\n        /* \"#utility.yul\":572:651   */\n      tag_70\n      tag_71\n      jump\t// in\n    tag_70:\n        /* \"#utility.yul\":534:653   */\n    tag_69:\n        /* \"#utility.yul\":692:693   */\n      0x00\n        /* \"#utility.yul\":717:770   */\n      tag_72\n        /* \"#utility.yul\":762:769   */\n      dup5\n        /* \"#utility.yul\":753:759   */\n      dup3\n        /* \"#utility.yul\":742:751   */\n      dup6\n        /* \"#utility.yul\":738:760   */\n      add\n        /* \"#utility.yul\":717:770   */\n      tag_56\n      jump\t// in\n    tag_72:\n        /* \"#utility.yul\":707:770   */\n      swap2\n      pop\n        /* \"#utility.yul\":663:780   */\n      pop\n        /* \"#utility.yul\":458:787   */\n      swap3\n      swap2\n      pop\n      pop\n      jump\t// out\n        /* \"#utility.yul\":793:1283   */\n    tag_31:\n        /* \"#utility.yul\":869:875   */\n      0x00\n        /* \"#utility.yul\":877:883   */\n      dup1\n        /* \"#utility.yul\":926:928   */\n      0x40\n        /* \"#utility.yul\":914:923   */\n      dup4\n        /* \"#utility.yul\":905:912   */\n      dup6\n        /* \"#utility.yul\":901:924   */\n      sub\n        /* \"#utility.yul\":897:929   */\n      slt\n        /* \"#utility.yul\":894:1013   */\n      iszero\n      tag_74\n      jumpi\n        /* \"#utility.yul\":932:1011   */\n      tag_75\n      tag_71\n      jump\t// in\n    tag_75:\n        /* \"#utility.yul\":894:1013   */\n    tag_74:\n        /* \"#utility.yul\":1052:1053   */\n      0x00\n        /* \"#utility.yul\":1077:1138   */\n      tag_76\n        /* \"#utility.yul\":1130:1137   */\n      dup6\n        /* \"#utility.yul\":1121:1127   */\n      dup3\n        /* \"#utility.yul\":1110:1119   */\n      dup7\n        /* \"#utility.yul\":1106:1128   */\n      add\n        /* \"#utility.yul\":1077:1138   */\n      tag_60\n      jump\t// in\n    tag_76:\n        /* \"#utility.yul\":1067:1138   */\n      swap3\n      pop\n        /* \"#utility.yul\":1023:1148   */\n      pop\n        /* \"#utility.yul\":1187:1189   */\n      0x20\n        /* \"#utility.yul\":1213:1266   */\n      tag_77\n        /* \"#utility.yul\":1258:1265   */\n      dup6\n        /* \"#utility.yul\":1249:1255   */\n      dup3\n        /* \"#utility.yul\":1238:1247   */\n      dup7\n        /* \"#utility.yul\":1234:1256   */\n      add\n        /* \"#utility.yul\":1213:1266   */\n      tag_64\n      jump\t// in\n    tag_77:\n        /* \"#utility.yul\":1203:1266   */\n      swap2\n      pop\n        /* \"#utility.yul\":1158:1276   */\n      pop\n        /* \"#utility.yul\":793:1283   */\n      swap3\n      pop\n      swap3\n      swap1\n      pop\n      jump\t// out\n        /* \"#utility.yul\":1289:1431   */\n    tag_78:\n        /* \"#utility.yul\":1392:1424   */\n      tag_80\n        /* \"#utility.yul\":1418:1423   */\n      dup2\n        /* \"#utility.yul\":1392:1424   */\n      tag_81\n      jump\t// in\n    tag_80:\n        /* \"#utility.yul\":1387:1390   */\n      dup3\n        /* \"#utility.yul\":1380:1425   */\n      mstore\n        /* \"#utility.yul\":1289:1431   */\n      pop\n      pop\n      jump\t// out\n        /* \"#utility.yul\":1437:1803   */\n    tag_82:\n        /* \"#utility.yul\":1579:1582   */\n      0x00\n        /* \"#utility.yul\":1600:1667   */\n      tag_84\n        /* \"#utility.yul\":1664:1666   */\n      0x11\n        /* \"#utility.yul\":1659:1662   */\n      dup4\n        /* \"#utility.yul\":1600:1667   */\n      tag_85\n      jump\t// in\n    tag_84:\n        /* \"#utility.yul\":1593:1667   */\n      swap2\n      pop\n        /* \"#utility.yul\":1676:1769   */\n      tag_86\n        /* \"#utility.yul\":1765:1768   */\n      dup3\n        /* \"#utility.yul\":1676:1769   */\n      tag_87\n      jump\t// in\n    tag_86:\n        /* \"#utility.yul\":1794:1796   */\n      0x20\n        /* \"#utility.yul\":1789:1792   */\n      dup3\n        /* \"#utility.yul\":1785:1797   */\n      add\n        /* \"#utility.yul\":1778:1797   */\n      swap1\n      pop\n        /* \"#utility.yul\":1437:1803   */\n      swap2\n      swap1\n      pop\n      jump\t// out\n        /* \"#utility.yul\":1809:2175   */\n    tag_88:\n        /* \"#utility.yul\":1951:1954   */\n      0x00\n        /* \"#utility.yul\":1972:2039   */\n      tag_90\n        /* \"#utility.yul\":2036:2038   */\n      0x15\n        /* \"#utility.yul\":2031:2034   */\n      dup4\n        /* \"#utility.yul\":1972:2039   */\n      tag_85\n      jump\t// in\n    tag_90:\n        /* \"#utility.yul\":1965:2039   */\n      swap2\n      pop\n        /* \"#utility.yul\":2048:2141   */\n      tag_91\n        /* \"#utility.yul\":2137:2140   */\n      dup3\n        /* \"#utility.yul\":2048:2141   */\n      tag_92\n      jump\t// in\n    tag_91:\n        /* \"#utility.yul\":2166:2168   */\n      0x20\n        /* \"#utility.yul\":2161:2164   */\n      dup3\n        /* \"#utility.yul\":2157:2169   */\n      add\n        /* \"#utility.yul\":2150:2169   */\n      swap1\n      pop\n        /* \"#utility.yul\":1809:2175   */\n      swap2\n      swap1\n      pop\n      jump\t// out\n        /* \"#utility.yul\":2181:2299   */\n    tag_93:\n        /* \"#utility.yul\":2268:2292   */\n      tag_95\n        /* \"#utility.yul\":2286:2291   */\n      dup2\n        /* \"#utility.yul\":2268:2292   */\n      tag_96\n      jump\t// in\n    tag_95:\n        /* \"#utility.yul\":2263:2266   */\n      dup3\n        /* \"#utility.yul\":2256:2293   */\n      mstore\n        /* \"#utility.yul\":2181:2299   */\n      pop\n      pop\n      jump\t// out\n        /* \"#utility.yul\":2305:2559   */\n    tag_20:\n        /* \"#utility.yul\":2414:2418   */\n      0x00\n        /* \"#utility.yul\":2452:2454   */\n      0x20\n        /* \"#utility.yul\":2441:2450   */\n      dup3\n        /* \"#utility.yul\":2437:2455   */\n      add\n        /* \"#utility.yul\":2429:2455   */\n      swap1\n      pop\n        /* \"#utility.yul\":2465:2552   */\n      tag_98\n        /* \"#utility.yul\":2549:2550   */\n      0x00\n        /* \"#utility.yul\":2538:2547   */\n      dup4\n        /* \"#utility.yul\":2534:2551   */\n      add\n        /* \"#utility.yul\":2525:2531   */\n      dup5\n        /* \"#utility.yul\":2465:2552   */\n      tag_78\n      jump\t// in\n    tag_98:\n        /* \"#utility.yul\":2305:2559   */\n      swap3\n      swap2\n      pop\n      pop\n      jump\t// out\n        /* \"#utility.yul\":2565:2984   */\n    tag_47:\n        /* \"#utility.yul\":2731:2735   */\n      0x00\n        /* \"#utility.yul\":2769:2771   */\n      0x20\n        /* \"#utility.yul\":2758:2767   */\n      dup3\n        /* \"#utility.yul\":2754:2772   */\n      add\n        /* \"#utility.yul\":2746:2772   */\n      swap1\n      pop\n        /* \"#utility.yul\":2818:2827   */\n      dup2\n        /* \"#utility.yul\":2812:2816   */\n      dup2\n        /* \"#utility.yul\":2808:2828   */\n      sub\n        /* \"#utility.yul\":2804:2805   */\n      0x00\n        /* \"#utility.yul\":2793:2802   */\n      dup4\n        /* \"#utility.yul\":2789:2806   */\n      add\n        /* \"#utility.yul\":2782:2829   */\n      mstore\n        /* \"#utility.yul\":2846:2977   */\n      tag_100\n        /* \"#utility.yul\":2972:2976   */\n      dup2\n        /* \"#utility.yul\":2846:2977   */\n      tag_82\n      jump\t// in\n    tag_100:\n        /* \"#utility.yul\":2838:2977   */\n      swap1\n      pop\n        /* \"#utility.yul\":2565:2984   */\n      swap2\n      swap1\n      pop\n      jump\t// out\n        /* \"#utility.yul\":2990:3409   */\n    tag_43:\n        /* \"#utility.yul\":3156:3160   */\n      0x00\n        /* \"#utility.yul\":3194:3196   */\n      0x20\n        /* \"#utility.yul\":3183:3192   */\n      dup3\n        /* \"#utility.yul\":3179:3197   */\n      add\n        /* \"#utility.yul\":3171:3197   */\n      swap1\n      pop\n        /* \"#utility.yul\":3243:3252   */\n      dup2\n        /* \"#utility.yul\":3237:3241   */\n      dup2\n        /* \"#utility.yul\":3233:3253   */\n      sub\n        /* \"#utility.yul\":3229:3230   */\n      0x00\n        /* \"#utility.yul\":3218:3227   */\n      dup4\n        /* \"#utility.yul\":3214:3231   */\n      add\n        /* \"#utility.yul\":3207:3254   */\n      mstore\n        /* \"#utility.yul\":3271:3402   */\n      tag_102\n        /* \"#utility.yul\":3397:3401   */\n      dup2\n        /* \"#utility.yul\":3271:3402   */\n      tag_88\n      jump\t// in\n    tag_102:\n        /* \"#utility.yul\":3263:3402   */\n      swap1\n      pop\n        /* \"#utility.yul\":2990:3409   */\n      swap2\n      swap1\n      pop\n      jump\t// out\n        /* \"#utility.yul\":3415:3637   */\n    tag_27:\n        /* \"#utility.yul\":3508:3512   */\n      0x00\n        /* \"#utility.yul\":3546:3548   */\n      0x20\n        /* \"#utility.yul\":3535:3544   */\n      dup3\n        /* \"#utility.yul\":3531:3549   */\n      add\n        /* \"#utility.yul\":3523:3549   */\n      swap1\n      pop\n        /* \"#utility.yul\":3559:3630   */\n      tag_104\n        /* \"#utility.yul\":3627:3628   */\n      0x00\n        /* \"#utility.yul\":3616:3625   */\n      dup4\n        /* \"#utility.yul\":3612:3629   */\n      add\n        /* \"#utility.yul\":3603:3609   */\n      dup5\n        /* \"#utility.yul\":3559:3630   */\n      tag_93\n      jump\t// in\n    tag_104:\n        /* \"#utility.yul\":3415:3637   */\n      swap3\n      swap2\n      pop\n      pop\n      jump\t// out\n        /* \"#utility.yul\":3724:3893   */\n    tag_85:\n        /* \"#utility.yul\":3808:3819   */\n      0x00\n        /* \"#utility.yul\":3842:3848   */\n      dup3\n        /* \"#utility.yul\":3837:3840   */\n      dup3\n        /* \"#utility.yul\":3830:3849   */\n      mstore\n        /* \"#utility.yul\":3882:3886   */\n      0x20\n        /* \"#utility.yul\":3877:3880   */\n      dup3\n        /* \"#utility.yul\":3873:3887   */\n      add\n        /* \"#utility.yul\":3858:3887   */\n      swap1\n      pop\n        /* \"#utility.yul\":3724:3893   */\n      swap3\n      swap2\n      pop\n      pop\n      jump\t// out\n        /* \"#utility.yul\":3899:4204   */\n    tag_35:\n        /* \"#utility.yul\":3939:3942   */\n      0x00\n        /* \"#utility.yul\":3958:3978   */\n      tag_109\n        /* \"#utility.yul\":3976:3977   */\n      dup3\n        /* \"#utility.yul\":3958:3978   */\n      tag_96\n      jump\t// in\n    tag_109:\n        /* \"#utility.yul\":3953:3978   */\n      swap2\n      pop\n        /* \"#utility.yul\":3992:4012   */\n      tag_110\n        /* \"#utility.yul\":4010:4011   */\n      dup4\n        /* \"#utility.yul\":3992:4012   */\n      tag_96\n      jump\t// in\n    tag_110:\n        /* \"#utility.yul\":3987:4012   */\n      swap3\n      pop\n        /* \"#utility.yul\":4146:4147   */\n      dup3\n        /* \"#utility.yul\":4078:4144   */\n      0xffffffffffffffffffffffffffffffffffffffffffffffffffffffffffffffff\n        /* \"#utility.yul\":4074:4148   */\n      sub\n        /* \"#utility.yul\":4071:4072   */\n      dup3\n        /* \"#utility.yul\":4068:4149   */\n      gt\n        /* \"#utility.yul\":4065:4172   */\n      iszero\n      tag_111\n      jumpi\n        /* \"#utility.yul\":4152:4170   */\n      tag_112\n      tag_113\n      jump\t// in\n    tag_112:\n        /* \"#utility.yul\":4065:4172   */\n    tag_111:\n        /* \"#utility.yul\":4196:4197   */\n      dup3\n        /* \"#utility.yul\":4193:4194   */\n      dup3\n        /* \"#utility.yul\":4189:4198   */\n      add\n        /* \"#utility.yul\":4182:4198   */\n      swap1\n      pop\n        /* \"#utility.yul\":3899:4204   */\n      swap3\n      swap2\n      pop\n      pop\n      jump\t// out\n        /* \"#utility.yul\":4210:4401   */\n    tag_49:\n        /* \"#utility.yul\":4250:4254   */\n      0x00\n        /* \"#utility.yul\":4270:4290   */\n      tag_115\n        /* \"#utility.yul\":4288:4289   */\n      dup3\n        /* \"#utility.yul\":4270:4290   */\n      tag_96\n      jump\t// in\n    tag_115:\n        /* \"#utility.yul\":4265:4290   */\n      swap2\n      pop\n        /* \"#utility.yul\":4304:4324   */\n      tag_116\n        /* \"#utility.yul\":4322:4323   */\n      dup4\n        /* \"#utility.yul\":4304:4324   */\n      tag_96\n      jump\t// in\n    tag_116:\n        /* \"#utility.yul\":4299:4324   */\n      swap3\n      pop\n        /* \"#utility.yul\":4343:4344   */\n      dup3\n        /* \"#utility.yul\":4340:4341   */\n      dup3\n        /* \"#utility.yul\":4337:4345   */\n      lt\n        /* \"#utility.yul\":4334:4368   */\n      iszero\n      tag_117\n      jumpi\n        /* \"#utility.yul\":4348:4366   */\n      tag_118\n      tag_113\n      jump\t// in\n    tag_118:\n        /* \"#utility.yul\":4334:4368   */\n    tag_117:\n        /* \"#utility.yul\":4393:4394   */\n      dup3\n        /* \"#utility.yul\":4390:4391   */\n      dup3\n        /* \"#utility.yul\":4386:4395   */\n      sub\n        /* \"#utility.yul\":4378:4395   */\n      swap1\n      pop\n        /* \"#utility.yul\":4210:4401   */\n      swap3\n      swap2\n      pop\n      pop\n      jump\t// out\n        /* \"#utility.yul\":4407:4503   */\n    tag_119:\n        /* \"#utility.yul\":4444:4451   */\n      0x00\n        /* \"#utility.yul\":4473:4497   */\n      tag_121\n        /* \"#utility.yul\":4491:4496   */\n      dup3\n        /* \"#utility.yul\":4473:4497   */\n      tag_122\n      jump\t// in\n    tag_121:\n        /* \"#utility.yul\":4462:4497   */\n      swap1\n      pop\n        /* \"#utility.yul\":4407:4503   */\n      swap2\n      swap1\n      pop\n      jump\t// out\n        /* \"#utility.yul\":4509:4613   */\n    tag_81:\n        /* \"#utility.yul\":4554:4561   */\n      0x00\n        /* \"#utility.yul\":4583:4607   */\n      tag_124\n        /* \"#utility.yul\":4601:4606   */\n      dup3\n        /* \"#utility.yul\":4583:4607   */\n      tag_122\n      jump\t// in\n    tag_124:\n        /* \"#utility.yul\":4572:4607   */\n      swap1\n      pop\n        /* \"#utility.yul\":4509:4613   */\n      swap2\n      swap1\n      pop\n      jump\t// out\n        /* \"#utility.yul\":4619:4745   */\n    tag_122:\n        /* \"#utility.yul\":4656:4663   */\n      0x00\n        /* \"#utility.yul\":4696:4738   */\n      0xffffffffffffffffffffffffffffffffffffffff\n        /* \"#utility.yul\":4689:4694   */\n      dup3\n        /* \"#utility.yul\":4685:4739   */\n      and\n        /* \"#utility.yul\":4674:4739   */\n      swap1\n      pop\n        /* \"#utility.yul\":4619:4745   */\n      swap2\n      swap1\n      pop\n      jump\t// out\n        /* \"#utility.yul\":4751:4828   */\n    tag_96:\n        /* \"#utility.yul\":4788:4795   */\n      0x00\n        /* \"#utility.yul\":4817:4822   */\n      dup2\n        /* \"#utility.yul\":4806:4822   */\n      swap1\n      pop\n        /* \"#utility.yul\":4751:4828   */\n      swap2\n      swap1\n      pop\n      jump\t// out\n        /* \"#utility.yul\":4834:5014   */\n    tag_38:\n        /* \"#utility.yul\":4882:4959   */\n      0x4e487b7100000000000000000000000000000000000000000000000000000000\n        /* \"#utility.yul\":4879:4880   */\n      0x00\n        /* \"#utility.yul\":4872:4960   */\n      mstore\n        /* \"#utility.yul\":4979:4983   */\n      0x01\n        /* \"#utility.yul\":4976:4977   */\n      0x04\n        /* \"#utility.yul\":4969:4984   */\n      mstore\n        /* \"#utility.yul\":5003:5007   */\n      0x24\n        /* \"#utility.yul\":5000:5001   */\n      0x00\n        /* \"#utility.yul\":4993:5008   */\n      revert\n        /* \"#utility.yul\":5020:5200   */\n    tag_113:\n        /* \"#utility.yul\":5068:5145   */\n      0x4e487b7100000000000000000000000000000000000000000000000000000000\n        /* \"#utility.yul\":5065:5066   */\n      0x00\n        /* \"#utility.yul\":5058:5146   */\n      mstore\n        /* \"#utility.yul\":5165:5169   */\n      0x11\n        /* \"#utility.yul\":5162:5163   */\n      0x04\n        /* \"#utility.yul\":5155:5170   */\n      mstore\n        /* \"#utility.yul\":5189:5193   */\n      0x24\n        /* \"#utility.yul\":5186:5187   */\n      0x00\n        /* \"#utility.yul\":5179:5194   */\n      revert\n        /* \"#utility.yul\":5329:5446   */\n    tag_71:\n        /* \"#utility.yul\":5438:5439   */\n      0x00\n        /* \"#utility.yul\":5435:5436   */\n      dup1\n        /* \"#utility.yul\":5428:5440   */\n      revert\n        /* \"#utility.yul\":5452:5619   */\n    tag_87:\n        /* \"#utility.yul\":5592:5611   */\n      0x6e6f7420656e6f7567682066756e64732e000000000000000000000000000000\n        /* \"#utility.yul\":5588:5589   */\n      0x00\n        /* \"#utility.yul\":5580:5586   */\n      dup3\n        /* \"#utility.yul\":5576:5590   */\n      add\n        /* \"#utility.yul\":5569:5612   */\n      mstore\n        /* \"#utility.yul\":5452:5619   */\n      pop\n      jump\t// out\n        /* \"#utility.yul\":5625:5796   */\n    tag_92:\n        /* \"#utility.yul\":5765:5788   */\n      0x796f7520617265206e6f7420746865206f776e65720000000000000000000000\n        /* \"#utility.yul\":5761:5762   */\n      0x00\n        /* \"#utility.yul\":5753:5759   */\n      dup3\n        /* \"#utility.yul\":5749:5763   */\n      add\n        /* \"#utility.yul\":5742:5789   */\n      mstore\n        /* \"#utility.yul\":5625:5796   */\n      pop\n      jump\t// out\n        /* \"#utility.yul\":5802:5924   */\n    tag_59:\n        /* \"#utility.yul\":5875:5899   */\n      tag_135\n        /* \"#utility.yul\":5893:5898   */\n      dup2\n        /* \"#utility.yul\":5875:5899   */\n      tag_119\n      jump\t// in\n    tag_135:\n        /* \"#utility.yul\":5868:5873   */\n      dup2\n        /* \"#utility.yul\":5865:5900   */\n      eq\n        /* \"#utility.yul\":5855:5918   */\n      tag_136\n      jumpi\n        /* \"#utility.yul\":5914:5915   */\n      0x00\n        /* \"#utility.yul\":5911:5912   */\n      dup1\n        /* \"#utility.yul\":5904:5916   */\n      revert\n        /* \"#utility.yul\":5855:5918   */\n    tag_136:\n        /* \"#utility.yul\":5802:5924   */\n      pop\n      jump\t// out\n        /* \"#utility.yul\":5930:6068   */\n    tag_63:\n        /* \"#utility.yul\":6011:6043   */\n      tag_138\n        /* \"#utility.yul\":6037:6042   */\n      dup2\n        /* \"#utility.yul\":6011:6043   */\n      tag_81\n      jump\t// in\n    tag_138:\n        /* \"#utility.yul\":6004:6009   */\n      dup2\n        /* \"#utility.yul\":6001:6044   */\n      eq\n        /* \"#utility.yul\":5991:6062   */\n      tag_139\n      jumpi\n        /* \"#utility.yul\":6058:6059   */\n      0x00\n        /* \"#utility.yul\":6055:6056   */\n      dup1\n        /* \"#utility.yul\":6048:6060   */\n      revert\n        /* \"#utility.yul\":5991:6062   */\n    tag_139:\n        /* \"#utility.yul\":5930:6068   */\n      pop\n      jump\t// out\n        /* \"#utility.yul\":6074:6196   */\n    tag_67:\n        /* \"#utility.yul\":6147:6171   */\n      tag_141\n        /* \"#utility.yul\":6165:6170   */\n      dup2\n        /* \"#utility.yul\":6147:6171   */\n      tag_96\n      jump\t// in\n    tag_141:\n        /* \"#utility.yul\":6140:6145   */\n      dup2\n        /* \"#utility.yul\":6137:6172   */\n      eq\n        /* \"#utility.yul\":6127:6190   */\n      tag_142\n      jumpi\n        /* \"#utility.yul\":6186:6187   */\n      0x00\n        /* \"#utility.yul\":6183:6184   */\n      dup1\n        /* \"#utility.yul\":6176:6188   */\n      revert\n        /* \"#utility.yul\":6127:6190   */\n    tag_142:\n        /* \"#utility.yul\":6074:6196   */\n      pop\n      jump\t// out\n\n    auxdata: 0xa2646970667358221220ce0fcf2a0eaa7c893ac16340754ba53473bbcf706636ab138ab32d6ff2cc649764736f6c63430008070033\n}\n",
				"bytecode": {
					"linkReferences": {},
					"object": "608060405234801561001057600080fd5b5033600160006101000a81548173ffffffffffffffffffffffffffffffffffffffff021916908373ffffffffffffffffffffffffffffffffffffffff160217905550610864806100616000396000f3fe60806040526004361061004e5760003560e01c80636d26ec1814610062578063854747281461006c5780638da5cb5b14610083578063d18a42e1146100ae578063f274c897146100eb5761005d565b3661005d5761005b610114565b005b600080fd5b61006a610114565b005b34801561007857600080fd5b50610081610203565b005b34801561008f57600080fd5b506100986102ce565b6040516100a591906105d5565b60405180910390f35b3480156100ba57600080fd5b506100d560048036038101906100d09190610504565b6102f4565b6040516100e29190610630565b60405180910390f35b3480156100f757600080fd5b50610112600480360381019061010d9190610531565b61030c565b005b6000803373ffffffffffffffffffffffffffffffffffffffff1673ffffffffffffffffffffffffffffffffffffffff16815260200190815260200160002054346000803373ffffffffffffffffffffffffffffffffffffffff1673ffffffffffffffffffffffffffffffffffffffff1681526020019081526020016000205461019d919061065c565b10156101ac576101ab610734565b5b346000803373ffffffffffffffffffffffffffffffffffffffff1673ffffffffffffffffffffffffffffffffffffffff16815260200190815260200160002060008282546101fa919061065c565b92505081905550565b600160009054906101000a900473ffffffffffffffffffffffffffffffffffffffff1673ffffffffffffffffffffffffffffffffffffffff163373ffffffffffffffffffffffffffffffffffffffff1614610293576040517f08c379a000000000000000000000000000000000000000000000000000000000815260040161028a90610610565b60405180910390fd5b600160009054906101000a900473ffffffffffffffffffffffffffffffffffffffff1673ffffffffffffffffffffffffffffffffffffffff16ff5b600160009054906101000a900473ffffffffffffffffffffffffffffffffffffffff1681565b60006020528060005260406000206000915090505481565b6000803373ffffffffffffffffffffffffffffffffffffffff1673ffffffffffffffffffffffffffffffffffffffff1681526020019081526020016000205481111561038d576040517f08c379a0000000000000000000000000000000000000000000000000000000008152600401610384906105f0565b60405180910390fd5b806000803373ffffffffffffffffffffffffffffffffffffffff1673ffffffffffffffffffffffffffffffffffffffff168152602001908152602001600020546103d791906106b2565b6000803373ffffffffffffffffffffffffffffffffffffffff1673ffffffffffffffffffffffffffffffffffffffff16815260200190815260200160002054101561042557610424610734565b5b806000803373ffffffffffffffffffffffffffffffffffffffff1673ffffffffffffffffffffffffffffffffffffffff168152602001908152602001600020600082825461047391906106b2565b925050819055508173ffffffffffffffffffffffffffffffffffffffff166108fc829081150290604051600060405180830381858888f193505050501580156104c0573d6000803e3d6000fd5b505050565b6000813590506104d4816107e9565b92915050565b6000813590506104e981610800565b92915050565b6000813590506104fe81610817565b92915050565b60006020828403121561051a57610519610792565b5b6000610528848285016104c5565b91505092915050565b6000806040838503121561054857610547610792565b5b6000610556858286016104da565b9250506020610567858286016104ef565b9150509250929050565b61057a816106f8565b82525050565b600061058d60118361064b565b915061059882610797565b602082019050919050565b60006105b060158361064b565b91506105bb826107c0565b602082019050919050565b6105cf8161072a565b82525050565b60006020820190506105ea6000830184610571565b92915050565b6000602082019050818103600083015261060981610580565b9050919050565b60006020820190508181036000830152610629816105a3565b9050919050565b600060208201905061064560008301846105c6565b92915050565b600082825260208201905092915050565b60006106678261072a565b91506106728361072a565b9250827fffffffffffffffffffffffffffffffffffffffffffffffffffffffffffffffff038211156106a7576106a6610763565b5b828201905092915050565b60006106bd8261072a565b91506106c88361072a565b9250828210156106db576106da610763565b5b828203905092915050565b60006106f18261070a565b9050919050565b60006107038261070a565b9050919050565b600073ffffffffffffffffffffffffffffffffffffffff82169050919050565b6000819050919050565b7f4e487b7100000000000000000000000000000000000000000000000000000000600052600160045260246000fd5b7f4e487b7100000000000000000000000000000000000000000000000000000000600052601160045260246000fd5b600080fd5b7f6e6f7420656e6f7567682066756e64732e000000000000000000000000000000600082015250565b7f796f7520617265206e6f7420746865206f776e65720000000000000000000000600082015250565b6107f2816106e6565b81146107fd57600080fd5b50565b610809816106f8565b811461081457600080fd5b50565b6108208161072a565b811461082b57600080fd5b5056fea2646970667358221220ce0fcf2a0eaa7c893ac16340754ba53473bbcf706636ab138ab32d6ff2cc649764736f6c63430008070033",
					"opcodes": "PUSH1 0x80 PUSH1 0x40 MSTORE CALLVALUE DUP1 ISZERO PUSH2 0x10 JUMPI PUSH1 0x0 DUP1 REVERT JUMPDEST POP CALLER PUSH1 0x1 PUSH1 0x0 PUSH2 0x100 EXP DUP2 SLOAD DUP2 PUSH20 0xFFFFFFFFFFFFFFFFFFFFFFFFFFFFFFFFFFFFFFFF MUL NOT AND SWAP1 DUP4 PUSH20 0xFFFFFFFFFFFFFFFFFFFFFFFFFFFFFFFFFFFFFFFF AND MUL OR SWAP1 SSTORE POP PUSH2 0x864 DUP1 PUSH2 0x61 PUSH1 0x0 CODECOPY PUSH1 0x0 RETURN INVALID PUSH1 0x80 PUSH1 0x40 MSTORE PUSH1 0x4 CALLDATASIZE LT PUSH2 0x4E JUMPI PUSH1 0x0 CALLDATALOAD PUSH1 0xE0 SHR DUP1 PUSH4 0x6D26EC18 EQ PUSH2 0x62 JUMPI DUP1 PUSH4 0x85474728 EQ PUSH2 0x6C JUMPI DUP1 PUSH4 0x8DA5CB5B EQ PUSH2 0x83 JUMPI DUP1 PUSH4 0xD18A42E1 EQ PUSH2 0xAE JUMPI DUP1 PUSH4 0xF274C897 EQ PUSH2 0xEB JUMPI PUSH2 0x5D JUMP JUMPDEST CALLDATASIZE PUSH2 0x5D JUMPI PUSH2 0x5B PUSH2 0x114 JUMP JUMPDEST STOP JUMPDEST PUSH1 0x0 DUP1 REVERT JUMPDEST PUSH2 0x6A PUSH2 0x114 JUMP JUMPDEST STOP JUMPDEST CALLVALUE DUP1 ISZERO PUSH2 0x78 JUMPI PUSH1 0x0 DUP1 REVERT JUMPDEST POP PUSH2 0x81 PUSH2 0x203 JUMP JUMPDEST STOP JUMPDEST CALLVALUE DUP1 ISZERO PUSH2 0x8F JUMPI PUSH1 0x0 DUP1 REVERT JUMPDEST POP PUSH2 0x98 PUSH2 0x2CE JUMP JUMPDEST PUSH1 0x40 MLOAD PUSH2 0xA5 SWAP2 SWAP1 PUSH2 0x5D5 JUMP JUMPDEST PUSH1 0x40 MLOAD DUP1 SWAP2 SUB SWAP1 RETURN JUMPDEST CALLVALUE DUP1 ISZERO PUSH2 0xBA JUMPI PUSH1 0x0 DUP1 REVERT JUMPDEST POP PUSH2 0xD5 PUSH1 0x4 DUP1 CALLDATASIZE SUB DUP2 ADD SWAP1 PUSH2 0xD0 SWAP2 SWAP1 PUSH2 0x504 JUMP JUMPDEST PUSH2 0x2F4 JUMP JUMPDEST PUSH1 0x40 MLOAD PUSH2 0xE2 SWAP2 SWAP1 PUSH2 0x630 JUMP JUMPDEST PUSH1 0x40 MLOAD DUP1 SWAP2 SUB SWAP1 RETURN JUMPDEST CALLVALUE DUP1 ISZERO PUSH2 0xF7 JUMPI PUSH1 0x0 DUP1 REVERT JUMPDEST POP PUSH2 0x112 PUSH1 0x4 DUP1 CALLDATASIZE SUB DUP2 ADD SWAP1 PUSH2 0x10D SWAP2 SWAP1 PUSH2 0x531 JUMP JUMPDEST PUSH2 0x30C JUMP JUMPDEST STOP JUMPDEST PUSH1 0x0 DUP1 CALLER PUSH20 0xFFFFFFFFFFFFFFFFFFFFFFFFFFFFFFFFFFFFFFFF AND PUSH20 0xFFFFFFFFFFFFFFFFFFFFFFFFFFFFFFFFFFFFFFFF AND DUP2 MSTORE PUSH1 0x20 ADD SWAP1 DUP2 MSTORE PUSH1 0x20 ADD PUSH1 0x0 KECCAK256 SLOAD CALLVALUE PUSH1 0x0 DUP1 CALLER PUSH20 0xFFFFFFFFFFFFFFFFFFFFFFFFFFFFFFFFFFFFFFFF AND PUSH20 0xFFFFFFFFFFFFFFFFFFFFFFFFFFFFFFFFFFFFFFFF AND DUP2 MSTORE PUSH1 0x20 ADD SWAP1 DUP2 MSTORE PUSH1 0x20 ADD PUSH1 0x0 KECCAK256 SLOAD PUSH2 0x19D SWAP2 SWAP1 PUSH2 0x65C JUMP JUMPDEST LT ISZERO PUSH2 0x1AC JUMPI PUSH2 0x1AB PUSH2 0x734 JUMP JUMPDEST JUMPDEST CALLVALUE PUSH1 0x0 DUP1 CALLER PUSH20 0xFFFFFFFFFFFFFFFFFFFFFFFFFFFFFFFFFFFFFFFF AND PUSH20 0xFFFFFFFFFFFFFFFFFFFFFFFFFFFFFFFFFFFFFFFF AND DUP2 MSTORE PUSH1 0x20 ADD SWAP1 DUP2 MSTORE PUSH1 0x20 ADD PUSH1 0x0 KECCAK256 PUSH1 0x0 DUP3 DUP3 SLOAD PUSH2 0x1FA SWAP2 SWAP1 PUSH2 0x65C JUMP JUMPDEST SWAP3 POP POP DUP2 SWAP1 SSTORE POP JUMP JUMPDEST PUSH1 0x1 PUSH1 0x0 SWAP1 SLOAD SWAP1 PUSH2 0x100 EXP SWAP1 DIV PUSH20 0xFFFFFFFFFFFFFFFFFFFFFFFFFFFFFFFFFFFFFFFF AND PUSH20 0xFFFFFFFFFFFFFFFFFFFFFFFFFFFFFFFFFFFFFFFF AND CALLER PUSH20 0xFFFFFFFFFFFFFFFFFFFFFFFFFFFFFFFFFFFFFFFF AND EQ PUSH2 0x293 JUMPI PUSH1 0x40 MLOAD PUSH32 0x8C379A000000000000000000000000000000000000000000000000000000000 DUP2 MSTORE PUSH1 0x4 ADD PUSH2 0x28A SWAP1 PUSH2 0x610 JUMP JUMPDEST PUSH1 0x40 MLOAD DUP1 SWAP2 SUB SWAP1 REVERT JUMPDEST PUSH1 0x1 PUSH1 0x0 SWAP1 SLOAD SWAP1 PUSH2 0x100 EXP SWAP1 DIV PUSH20 0xFFFFFFFFFFFFFFFFFFFFFFFFFFFFFFFFFFFFFFFF AND PUSH20 0xFFFFFFFFFFFFFFFFFFFFFFFFFFFFFFFFFFFFFFFF AND SELFDESTRUCT JUMPDEST PUSH1 0x1 PUSH1 0x0 SWAP1 SLOAD SWAP1 PUSH2 0x100 EXP SWAP1 DIV PUSH20 0xFFFFFFFFFFFFFFFFFFFFFFFFFFFFFFFFFFFFFFFF AND DUP2 JUMP JUMPDEST PUSH1 0x0 PUSH1 0x20 MSTORE DUP1 PUSH1 0x0 MSTORE PUSH1 0x40 PUSH1 0x0 KECCAK256 PUSH1 0x0 SWAP2 POP SWAP1 POP SLOAD DUP2 JUMP JUMPDEST PUSH1 0x0 DUP1 CALLER PUSH20 0xFFFFFFFFFFFFFFFFFFFFFFFFFFFFFFFFFFFFFFFF AND PUSH20 0xFFFFFFFFFFFFFFFFFFFFFFFFFFFFFFFFFFFFFFFF AND DUP2 MSTORE PUSH1 0x20 ADD SWAP1 DUP2 MSTORE PUSH1 0x20 ADD PUSH1 0x0 KECCAK256 SLOAD DUP2 GT ISZERO PUSH2 0x38D JUMPI PUSH1 0x40 MLOAD PUSH32 0x8C379A000000000000000000000000000000000000000000000000000000000 DUP2 MSTORE PUSH1 0x4 ADD PUSH2 0x384 SWAP1 PUSH2 0x5F0 JUMP JUMPDEST PUSH1 0x40 MLOAD DUP1 SWAP2 SUB SWAP1 REVERT JUMPDEST DUP1 PUSH1 0x0 DUP1 CALLER PUSH20 0xFFFFFFFFFFFFFFFFFFFFFFFFFFFFFFFFFFFFFFFF AND PUSH20 0xFFFFFFFFFFFFFFFFFFFFFFFFFFFFFFFFFFFFFFFF AND DUP2 MSTORE PUSH1 0x20 ADD SWAP1 DUP2 MSTORE PUSH1 0x20 ADD PUSH1 0x0 KECCAK256 SLOAD PUSH2 0x3D7 SWAP2 SWAP1 PUSH2 0x6B2 JUMP JUMPDEST PUSH1 0x0 DUP1 CALLER PUSH20 0xFFFFFFFFFFFFFFFFFFFFFFFFFFFFFFFFFFFFFFFF AND PUSH20 0xFFFFFFFFFFFFFFFFFFFFFFFFFFFFFFFFFFFFFFFF AND DUP2 MSTORE PUSH1 0x20 ADD SWAP1 DUP2 MSTORE PUSH1 0x20 ADD PUSH1 0x0 KECCAK256 SLOAD LT ISZERO PUSH2 0x425 JUMPI PUSH2 0x424 PUSH2 0x734 JUMP JUMPDEST JUMPDEST DUP1 PUSH1 0x0 DUP1 CALLER PUSH20 0xFFFFFFFFFFFFFFFFFFFFFFFFFFFFFFFFFFFFFFFF AND PUSH20 0xFFFFFFFFFFFFFFFFFFFFFFFFFFFFFFFFFFFFFFFF AND DUP2 MSTORE PUSH1 0x20 ADD SWAP1 DUP2 MSTORE PUSH1 0x20 ADD PUSH1 0x0 KECCAK256 PUSH1 0x0 DUP3 DUP3 SLOAD PUSH2 0x473 SWAP2 SWAP1 PUSH2 0x6B2 JUMP JUMPDEST SWAP3 POP POP DUP2 SWAP1 SSTORE POP DUP2 PUSH20 0xFFFFFFFFFFFFFFFFFFFFFFFFFFFFFFFFFFFFFFFF AND PUSH2 0x8FC DUP3 SWAP1 DUP2 ISZERO MUL SWAP1 PUSH1 0x40 MLOAD PUSH1 0x0 PUSH1 0x40 MLOAD DUP1 DUP4 SUB DUP2 DUP6 DUP9 DUP9 CALL SWAP4 POP POP POP POP ISZERO DUP1 ISZERO PUSH2 0x4C0 JUMPI RETURNDATASIZE PUSH1 0x0 DUP1 RETURNDATACOPY RETURNDATASIZE PUSH1 0x0 REVERT JUMPDEST POP POP POP JUMP JUMPDEST PUSH1 0x0 DUP2 CALLDATALOAD SWAP1 POP PUSH2 0x4D4 DUP2 PUSH2 0x7E9 JUMP JUMPDEST SWAP3 SWAP2 POP POP JUMP JUMPDEST PUSH1 0x0 DUP2 CALLDATALOAD SWAP1 POP PUSH2 0x4E9 DUP2 PUSH2 0x800 JUMP JUMPDEST SWAP3 SWAP2 POP POP JUMP JUMPDEST PUSH1 0x0 DUP2 CALLDATALOAD SWAP1 POP PUSH2 0x4FE DUP2 PUSH2 0x817 JUMP JUMPDEST SWAP3 SWAP2 POP POP JUMP JUMPDEST PUSH1 0x0 PUSH1 0x20 DUP3 DUP5 SUB SLT ISZERO PUSH2 0x51A JUMPI PUSH2 0x519 PUSH2 0x792 JUMP JUMPDEST JUMPDEST PUSH1 0x0 PUSH2 0x528 DUP5 DUP3 DUP6 ADD PUSH2 0x4C5 JUMP JUMPDEST SWAP2 POP POP SWAP3 SWAP2 POP POP JUMP JUMPDEST PUSH1 0x0 DUP1 PUSH1 0x40 DUP4 DUP6 SUB SLT ISZERO PUSH2 0x548 JUMPI PUSH2 0x547 PUSH2 0x792 JUMP JUMPDEST JUMPDEST PUSH1 0x0 PUSH2 0x556 DUP6 DUP3 DUP7 ADD PUSH2 0x4DA JUMP JUMPDEST SWAP3 POP POP PUSH1 0x20 PUSH2 0x567 DUP6 DUP3 DUP7 ADD PUSH2 0x4EF JUMP JUMPDEST SWAP2 POP POP SWAP3 POP SWAP3 SWAP1 POP JUMP JUMPDEST PUSH2 0x57A DUP2 PUSH2 0x6F8 JUMP JUMPDEST DUP3 MSTORE POP POP JUMP JUMPDEST PUSH1 0x0 PUSH2 0x58D PUSH1 0x11 DUP4 PUSH2 0x64B JUMP JUMPDEST SWAP2 POP PUSH2 0x598 DUP3 PUSH2 0x797 JUMP JUMPDEST PUSH1 0x20 DUP3 ADD SWAP1 POP SWAP2 SWAP1 POP JUMP JUMPDEST PUSH1 0x0 PUSH2 0x5B0 PUSH1 0x15 DUP4 PUSH2 0x64B JUMP JUMPDEST SWAP2 POP PUSH2 0x5BB DUP3 PUSH2 0x7C0 JUMP JUMPDEST PUSH1 0x20 DUP3 ADD SWAP1 POP SWAP2 SWAP1 POP JUMP JUMPDEST PUSH2 0x5CF DUP2 PUSH2 0x72A JUMP JUMPDEST DUP3 MSTORE POP POP JUMP JUMPDEST PUSH1 0x0 PUSH1 0x20 DUP3 ADD SWAP1 POP PUSH2 0x5EA PUSH1 0x0 DUP4 ADD DUP5 PUSH2 0x571 JUMP JUMPDEST SWAP3 SWAP2 POP POP JUMP JUMPDEST PUSH1 0x0 PUSH1 0x20 DUP3 ADD SWAP1 POP DUP2 DUP2 SUB PUSH1 0x0 DUP4 ADD MSTORE PUSH2 0x609 DUP2 PUSH2 0x580 JUMP JUMPDEST SWAP1 POP SWAP2 SWAP1 POP JUMP JUMPDEST PUSH1 0x0 PUSH1 0x20 DUP3 ADD SWAP1 POP DUP2 DUP2 SUB PUSH1 0x0 DUP4 ADD MSTORE PUSH2 0x629 DUP2 PUSH2 0x5A3 JUMP JUMPDEST SWAP1 POP SWAP2 SWAP1 POP JUMP JUMPDEST PUSH1 0x0 PUSH1 0x20 DUP3 ADD SWAP1 POP PUSH2 0x645 PUSH1 0x0 DUP4 ADD DUP5 PUSH2 0x5C6 JUMP JUMPDEST SWAP3 SWAP2 POP POP JUMP JUMPDEST PUSH1 0x0 DUP3 DUP3 MSTORE PUSH1 0x20 DUP3 ADD SWAP1 POP SWAP3 SWAP2 POP POP JUMP JUMPDEST PUSH1 0x0 PUSH2 0x667 DUP3 PUSH2 0x72A JUMP JUMPDEST SWAP2 POP PUSH2 0x672 DUP4 PUSH2 0x72A JUMP JUMPDEST SWAP3 POP DUP3 PUSH32 0xFFFFFFFFFFFFFFFFFFFFFFFFFFFFFFFFFFFFFFFFFFFFFFFFFFFFFFFFFFFFFFFF SUB DUP3 GT ISZERO PUSH2 0x6A7 JUMPI PUSH2 0x6A6 PUSH2 0x763 JUMP JUMPDEST JUMPDEST DUP3 DUP3 ADD SWAP1 POP SWAP3 SWAP2 POP POP JUMP JUMPDEST PUSH1 0x0 PUSH2 0x6BD DUP3 PUSH2 0x72A JUMP JUMPDEST SWAP2 POP PUSH2 0x6C8 DUP4 PUSH2 0x72A JUMP JUMPDEST SWAP3 POP DUP3 DUP3 LT ISZERO PUSH2 0x6DB JUMPI PUSH2 0x6DA PUSH2 0x763 JUMP JUMPDEST JUMPDEST DUP3 DUP3 SUB SWAP1 POP SWAP3 SWAP2 POP POP JUMP JUMPDEST PUSH1 0x0 PUSH2 0x6F1 DUP3 PUSH2 0x70A JUMP JUMPDEST SWAP1 POP SWAP2 SWAP1 POP JUMP JUMPDEST PUSH1 0x0 PUSH2 0x703 DUP3 PUSH2 0x70A JUMP JUMPDEST SWAP1 POP SWAP2 SWAP1 POP JUMP JUMPDEST PUSH1 0x0 PUSH20 0xFFFFFFFFFFFFFFFFFFFFFFFFFFFFFFFFFFFFFFFF DUP3 AND SWAP1 POP SWAP2 SWAP1 POP JUMP JUMPDEST PUSH1 0x0 DUP2 SWAP1 POP SWAP2 SWAP1 POP JUMP JUMPDEST PUSH32 0x4E487B7100000000000000000000000000000000000000000000000000000000 PUSH1 0x0 MSTORE PUSH1 0x1 PUSH1 0x4 MSTORE PUSH1 0x24 PUSH1 0x0 REVERT JUMPDEST PUSH32 0x4E487B7100000000000000000000000000000000000000000000000000000000 PUSH1 0x0 MSTORE PUSH1 0x11 PUSH1 0x4 MSTORE PUSH1 0x24 PUSH1 0x0 REVERT JUMPDEST PUSH1 0x0 DUP1 REVERT JUMPDEST PUSH32 0x6E6F7420656E6F7567682066756E64732E000000000000000000000000000000 PUSH1 0x0 DUP3 ADD MSTORE POP JUMP JUMPDEST PUSH32 0x796F7520617265206E6F7420746865206F776E65720000000000000000000000 PUSH1 0x0 DUP3 ADD MSTORE POP JUMP JUMPDEST PUSH2 0x7F2 DUP2 PUSH2 0x6E6 JUMP JUMPDEST DUP2 EQ PUSH2 0x7FD JUMPI PUSH1 0x0 DUP1 REVERT JUMPDEST POP JUMP JUMPDEST PUSH2 0x809 DUP2 PUSH2 0x6F8 JUMP JUMPDEST DUP2 EQ PUSH2 0x814 JUMPI PUSH1 0x0 DUP1 REVERT JUMPDEST POP JUMP JUMPDEST PUSH2 0x820 DUP2 PUSH2 0x72A JUMP JUMPDEST DUP2 EQ PUSH2 0x82B JUMPI PUSH1 0x0 DUP1 REVERT JUMPDEST POP JUMP INVALID LOG2 PUSH5 0x6970667358 0x22 SLT KECCAK256 0xCE 0xF 0xCF 0x2A 0xE 0xAA PUSH29 0x893AC16340754BA53473BBCF706636AB138AB32D6FF2CC649764736F6C PUSH4 0x43000807 STOP CALLER "
				},
				"gasEstimates": {
					"creation": {
						"codeDepositCost": "429600",
						"executionCost": "24734",
						"totalCost": "454334"
					},
					"external": {
						"balanceReceived(address)": "2858",
						"destroySmartContract()": "32050",
						"owner()": "2536",
						"receiveMoney()": "infinite",
						"withdrawMoney(address,uint256)": "infinite"
					}
				},
				"methodIdentifiers": {
					"balanceReceived(address)": "d18a42e1",
					"destroySmartContract()": "85474728",
					"owner()": "8da5cb5b",
					"receiveMoney()": "6d26ec18",
					"withdrawMoney(address,uint256)": "f274c897"
				}
			},
			"storageLayout": {
				"storage": [
					{
						"astId": 5,
						"contract": "FallBackExample.sol:FunctionsExample",
						"label": "balanceReceived",
						"offset": 0,
						"slot": "0",
						"type": "t_mapping(t_address,t_uint256)"
					},
					{
						"astId": 7,
						"contract": "FallBackExample.sol:FunctionsExample",
						"label": "owner",
						"offset": 0,
						"slot": "1",
						"type": "t_address_payable"
					}
				],
				"types": {
					"t_address": {
						"encoding": "inplace",
						"label": "address",
						"numberOfBytes": "20"
					},
					"t_address_payable": {
						"encoding": "inplace",
						"label": "address payable",
						"numberOfBytes": "20"
					},
					"t_mapping(t_address,t_uint256)": {
						"encoding": "mapping",
						"key": "t_address",
						"label": "mapping(address => uint256)",
						"numberOfBytes": "32",
						"value": "t_uint256"
					},
					"t_uint256": {
						"encoding": "inplace",
						"label": "uint256",
						"numberOfBytes": "32"
					}
				}
			},
			"userdoc": {
				"kind": "user",
				"methods": {},
				"version": 1
			}
		}
	}
}