{
	"exceptions.sol": {
		"Excemption": {
			"abi": [
				{
					"inputs": [
						{
							"internalType": "address",
							"name": "",
							"type": "address"
						}
					],
					"name": "balanceReceived",
					"outputs": [
						{
							"internalType": "uint256",
							"name": "",
							"type": "uint256"
						}
					],
					"stateMutability": "view",
					"type": "function"
				},
				{
					"inputs": [],
					"name": "receiveMoney",
					"outputs": [],
					"stateMutability": "payable",
					"type": "function"
				},
				{
					"inputs": [
						{
							"internalType": "address payable",
							"name": "_to",
							"type": "address"
						},
						{
							"internalType": "uint64",
							"name": "_amount",
							"type": "uint64"
						}
					],
					"name": "withdrawMoney",
					"outputs": [],
					"stateMutability": "nonpayable",
					"type": "function"
				}
			],
			"devdoc": {
				"kind": "dev",
				"methods": {},
				"version": 1
			},
			"evm": {
				"assembly": "    /* \"exceptions.sol\":26:341  contract Excemption {\r... */\n  mstore(0x40, 0x80)\n  callvalue\n  dup1\n  iszero\n  tag_1\n  jumpi\n  0x00\n  dup1\n  revert\ntag_1:\n  pop\n  dataSize(sub_0)\n  dup1\n  dataOffset(sub_0)\n  0x00\n  codecopy\n  0x00\n  return\nstop\n\nsub_0: assembly {\n        /* \"exceptions.sol\":26:341  contract Excemption {\r... */\n      mstore(0x40, 0x80)\n      jumpi(tag_1, lt(calldatasize, 0x04))\n      shr(0xe0, calldataload(0x00))\n      dup1\n      0x0ad19aeb\n      eq\n      tag_2\n      jumpi\n      dup1\n      0x6d26ec18\n      eq\n      tag_3\n      jumpi\n      dup1\n      0xd18a42e1\n      eq\n      tag_4\n      jumpi\n    tag_1:\n      0x00\n      dup1\n      revert\n        /* \"exceptions.sol\":247:337  function withdrawMoney (address payable _to, uint64 _amount) public {\r... */\n    tag_2:\n      callvalue\n      dup1\n      iszero\n      tag_5\n      jumpi\n      0x00\n      dup1\n      revert\n    tag_5:\n      pop\n      tag_6\n      0x04\n      dup1\n      calldatasize\n      sub\n      dup2\n      add\n      swap1\n      tag_7\n      swap2\n      swap1\n      tag_8\n      jump\t// in\n    tag_7:\n      tag_9\n      jump\t// in\n    tag_6:\n      stop\n        /* \"exceptions.sol\":122:237  function receiveMoney () public payable {\r... */\n    tag_3:\n      tag_10\n      tag_11\n      jump\t// in\n    tag_10:\n      stop\n        /* \"exceptions.sol\":63:111  mapping (address => uint) public balanceReceived */\n    tag_4:\n      callvalue\n      dup1\n      iszero\n      tag_12\n      jumpi\n      0x00\n      dup1\n      revert\n    tag_12:\n      pop\n      tag_13\n      0x04\n      dup1\n      calldatasize\n      sub\n      dup2\n      add\n      swap1\n      tag_14\n      swap2\n      swap1\n      tag_15\n      jump\t// in\n    tag_14:\n      tag_16\n      jump\t// in\n    tag_13:\n      mload(0x40)\n      tag_17\n      swap2\n      swap1\n      tag_18\n      jump\t// in\n    tag_17:\n      mload(0x40)\n      dup1\n      swap2\n      sub\n      swap1\n      return\n        /* \"exceptions.sol\":247:337  function withdrawMoney (address payable _to, uint64 _amount) public {\r... */\n    tag_9:\n      pop\n      pop\n      jump\t// out\n        /* \"exceptions.sol\":122:237  function receiveMoney () public payable {\r... */\n    tag_11:\n        /* \"exceptions.sol\":215:224  msg.value */\n      callvalue\n        /* \"exceptions.sol\":175:225  balanceReceived [msg.sender] += uint64 (msg.value) */\n      0xffffffffffffffff\n      and\n        /* \"exceptions.sol\":175:190  balanceReceived */\n      0x00\n        /* \"exceptions.sol\":175:203  balanceReceived [msg.sender] */\n      dup1\n        /* \"exceptions.sol\":192:202  msg.sender */\n      caller\n        /* \"exceptions.sol\":175:203  balanceReceived [msg.sender] */\n      0xffffffffffffffffffffffffffffffffffffffff\n      and\n      0xffffffffffffffffffffffffffffffffffffffff\n      and\n      dup2\n      mstore\n      0x20\n      add\n      swap1\n      dup2\n      mstore\n      0x20\n      add\n      0x00\n      keccak256\n      0x00\n        /* \"exceptions.sol\":175:225  balanceReceived [msg.sender] += uint64 (msg.value) */\n      dup3\n      dup3\n      sload\n      tag_21\n      swap2\n      swap1\n      tag_22\n      jump\t// in\n    tag_21:\n      swap3\n      pop\n      pop\n      dup2\n      swap1\n      sstore\n      pop\n        /* \"exceptions.sol\":122:237  function receiveMoney () public payable {\r... */\n      jump\t// out\n        /* \"exceptions.sol\":63:111  mapping (address => uint) public balanceReceived */\n    tag_16:\n      mstore(0x20, 0x00)\n      dup1\n      0x00\n      mstore\n      keccak256(0x00, 0x40)\n      0x00\n      swap2\n      pop\n      swap1\n      pop\n      sload\n      dup2\n      jump\t// out\n        /* \"#utility.yul\":7:146   */\n    tag_24:\n        /* \"#utility.yul\":53:58   */\n      0x00\n        /* \"#utility.yul\":91:97   */\n      dup2\n        /* \"#utility.yul\":78:98   */\n      calldataload\n        /* \"#utility.yul\":69:98   */\n      swap1\n      pop\n        /* \"#utility.yul\":107:140   */\n      tag_26\n        /* \"#utility.yul\":134:139   */\n      dup2\n        /* \"#utility.yul\":107:140   */\n      tag_27\n      jump\t// in\n    tag_26:\n        /* \"#utility.yul\":7:146   */\n      swap3\n      swap2\n      pop\n      pop\n      jump\t// out\n        /* \"#utility.yul\":152:307   */\n    tag_28:\n        /* \"#utility.yul\":206:211   */\n      0x00\n        /* \"#utility.yul\":244:250   */\n      dup2\n        /* \"#utility.yul\":231:251   */\n      calldataload\n        /* \"#utility.yul\":222:251   */\n      swap1\n      pop\n        /* \"#utility.yul\":260:301   */\n      tag_30\n        /* \"#utility.yul\":295:300   */\n      dup2\n        /* \"#utility.yul\":260:301   */\n      tag_31\n      jump\t// in\n    tag_30:\n        /* \"#utility.yul\":152:307   */\n      swap3\n      swap2\n      pop\n      pop\n      jump\t// out\n        /* \"#utility.yul\":313:450   */\n    tag_32:\n        /* \"#utility.yul\":358:363   */\n      0x00\n        /* \"#utility.yul\":396:402   */\n      dup2\n        /* \"#utility.yul\":383:403   */\n      calldataload\n        /* \"#utility.yul\":374:403   */\n      swap1\n      pop\n        /* \"#utility.yul\":412:444   */\n      tag_34\n        /* \"#utility.yul\":438:443   */\n      dup2\n        /* \"#utility.yul\":412:444   */\n      tag_35\n      jump\t// in\n    tag_34:\n        /* \"#utility.yul\":313:450   */\n      swap3\n      swap2\n      pop\n      pop\n      jump\t// out\n        /* \"#utility.yul\":456:785   */\n    tag_15:\n        /* \"#utility.yul\":515:521   */\n      0x00\n        /* \"#utility.yul\":564:566   */\n      0x20\n        /* \"#utility.yul\":552:561   */\n      dup3\n        /* \"#utility.yul\":543:550   */\n      dup5\n        /* \"#utility.yul\":539:562   */\n      sub\n        /* \"#utility.yul\":535:567   */\n      slt\n        /* \"#utility.yul\":532:651   */\n      iszero\n      tag_37\n      jumpi\n        /* \"#utility.yul\":570:649   */\n      tag_38\n      tag_39\n      jump\t// in\n    tag_38:\n        /* \"#utility.yul\":532:651   */\n    tag_37:\n        /* \"#utility.yul\":690:691   */\n      0x00\n        /* \"#utility.yul\":715:768   */\n      tag_40\n        /* \"#utility.yul\":760:767   */\n      dup5\n        /* \"#utility.yul\":751:757   */\n      dup3\n        /* \"#utility.yul\":740:749   */\n      dup6\n        /* \"#utility.yul\":736:758   */\n      add\n        /* \"#utility.yul\":715:768   */\n      tag_24\n      jump\t// in\n    tag_40:\n        /* \"#utility.yul\":705:768   */\n      swap2\n      pop\n        /* \"#utility.yul\":661:778   */\n      pop\n        /* \"#utility.yul\":456:785   */\n      swap3\n      swap2\n      pop\n      pop\n      jump\t// out\n        /* \"#utility.yul\":791:1279   */\n    tag_8:\n        /* \"#utility.yul\":866:872   */\n      0x00\n        /* \"#utility.yul\":874:880   */\n      dup1\n        /* \"#utility.yul\":923:925   */\n      0x40\n        /* \"#utility.yul\":911:920   */\n      dup4\n        /* \"#utility.yul\":902:909   */\n      dup6\n        /* \"#utility.yul\":898:921   */\n      sub\n        /* \"#utility.yul\":894:926   */\n      slt\n        /* \"#utility.yul\":891:1010   */\n      iszero\n      tag_42\n      jumpi\n        /* \"#utility.yul\":929:1008   */\n      tag_43\n      tag_39\n      jump\t// in\n    tag_43:\n        /* \"#utility.yul\":891:1010   */\n    tag_42:\n        /* \"#utility.yul\":1049:1050   */\n      0x00\n        /* \"#utility.yul\":1074:1135   */\n      tag_44\n        /* \"#utility.yul\":1127:1134   */\n      dup6\n        /* \"#utility.yul\":1118:1124   */\n      dup3\n        /* \"#utility.yul\":1107:1116   */\n      dup7\n        /* \"#utility.yul\":1103:1125   */\n      add\n        /* \"#utility.yul\":1074:1135   */\n      tag_28\n      jump\t// in\n    tag_44:\n        /* \"#utility.yul\":1064:1135   */\n      swap3\n      pop\n        /* \"#utility.yul\":1020:1145   */\n      pop\n        /* \"#utility.yul\":1184:1186   */\n      0x20\n        /* \"#utility.yul\":1210:1262   */\n      tag_45\n        /* \"#utility.yul\":1254:1261   */\n      dup6\n        /* \"#utility.yul\":1245:1251   */\n      dup3\n        /* \"#utility.yul\":1234:1243   */\n      dup7\n        /* \"#utility.yul\":1230:1252   */\n      add\n        /* \"#utility.yul\":1210:1262   */\n      tag_32\n      jump\t// in\n    tag_45:\n        /* \"#utility.yul\":1200:1262   */\n      swap2\n      pop\n        /* \"#utility.yul\":1155:1272   */\n      pop\n        /* \"#utility.yul\":791:1279   */\n      swap3\n      pop\n      swap3\n      swap1\n      pop\n      jump\t// out\n        /* \"#utility.yul\":1285:1403   */\n    tag_46:\n        /* \"#utility.yul\":1372:1396   */\n      tag_48\n        /* \"#utility.yul\":1390:1395   */\n      dup2\n        /* \"#utility.yul\":1372:1396   */\n      tag_49\n      jump\t// in\n    tag_48:\n        /* \"#utility.yul\":1367:1370   */\n      dup3\n        /* \"#utility.yul\":1360:1397   */\n      mstore\n        /* \"#utility.yul\":1285:1403   */\n      pop\n      pop\n      jump\t// out\n        /* \"#utility.yul\":1409:1631   */\n    tag_18:\n        /* \"#utility.yul\":1502:1506   */\n      0x00\n        /* \"#utility.yul\":1540:1542   */\n      0x20\n        /* \"#utility.yul\":1529:1538   */\n      dup3\n        /* \"#utility.yul\":1525:1543   */\n      add\n        /* \"#utility.yul\":1517:1543   */\n      swap1\n      pop\n        /* \"#utility.yul\":1553:1624   */\n      tag_51\n        /* \"#utility.yul\":1621:1622   */\n      0x00\n        /* \"#utility.yul\":1610:1619   */\n      dup4\n        /* \"#utility.yul\":1606:1623   */\n      add\n        /* \"#utility.yul\":1597:1603   */\n      dup5\n        /* \"#utility.yul\":1553:1624   */\n      tag_46\n      jump\t// in\n    tag_51:\n        /* \"#utility.yul\":1409:1631   */\n      swap3\n      swap2\n      pop\n      pop\n      jump\t// out\n        /* \"#utility.yul\":1718:2023   */\n    tag_22:\n        /* \"#utility.yul\":1758:1761   */\n      0x00\n        /* \"#utility.yul\":1777:1797   */\n      tag_55\n        /* \"#utility.yul\":1795:1796   */\n      dup3\n        /* \"#utility.yul\":1777:1797   */\n      tag_49\n      jump\t// in\n    tag_55:\n        /* \"#utility.yul\":1772:1797   */\n      swap2\n      pop\n        /* \"#utility.yul\":1811:1831   */\n      tag_56\n        /* \"#utility.yul\":1829:1830   */\n      dup4\n        /* \"#utility.yul\":1811:1831   */\n      tag_49\n      jump\t// in\n    tag_56:\n        /* \"#utility.yul\":1806:1831   */\n      swap3\n      pop\n        /* \"#utility.yul\":1965:1966   */\n      dup3\n        /* \"#utility.yul\":1897:1963   */\n      0xffffffffffffffffffffffffffffffffffffffffffffffffffffffffffffffff\n        /* \"#utility.yul\":1893:1967   */\n      sub\n        /* \"#utility.yul\":1890:1891   */\n      dup3\n        /* \"#utility.yul\":1887:1968   */\n      gt\n        /* \"#utility.yul\":1884:1991   */\n      iszero\n      tag_57\n      jumpi\n        /* \"#utility.yul\":1971:1989   */\n      tag_58\n      tag_59\n      jump\t// in\n    tag_58:\n        /* \"#utility.yul\":1884:1991   */\n    tag_57:\n        /* \"#utility.yul\":2015:2016   */\n      dup3\n        /* \"#utility.yul\":2012:2013   */\n      dup3\n        /* \"#utility.yul\":2008:2017   */\n      add\n        /* \"#utility.yul\":2001:2017   */\n      swap1\n      pop\n        /* \"#utility.yul\":1718:2023   */\n      swap3\n      swap2\n      pop\n      pop\n      jump\t// out\n        /* \"#utility.yul\":2029:2125   */\n    tag_60:\n        /* \"#utility.yul\":2066:2073   */\n      0x00\n        /* \"#utility.yul\":2095:2119   */\n      tag_62\n        /* \"#utility.yul\":2113:2118   */\n      dup3\n        /* \"#utility.yul\":2095:2119   */\n      tag_63\n      jump\t// in\n    tag_62:\n        /* \"#utility.yul\":2084:2119   */\n      swap1\n      pop\n        /* \"#utility.yul\":2029:2125   */\n      swap2\n      swap1\n      pop\n      jump\t// out\n        /* \"#utility.yul\":2131:2235   */\n    tag_64:\n        /* \"#utility.yul\":2176:2183   */\n      0x00\n        /* \"#utility.yul\":2205:2229   */\n      tag_66\n        /* \"#utility.yul\":2223:2228   */\n      dup3\n        /* \"#utility.yul\":2205:2229   */\n      tag_63\n      jump\t// in\n    tag_66:\n        /* \"#utility.yul\":2194:2229   */\n      swap1\n      pop\n        /* \"#utility.yul\":2131:2235   */\n      swap2\n      swap1\n      pop\n      jump\t// out\n        /* \"#utility.yul\":2241:2367   */\n    tag_63:\n        /* \"#utility.yul\":2278:2285   */\n      0x00\n        /* \"#utility.yul\":2318:2360   */\n      0xffffffffffffffffffffffffffffffffffffffff\n        /* \"#utility.yul\":2311:2316   */\n      dup3\n        /* \"#utility.yul\":2307:2361   */\n      and\n        /* \"#utility.yul\":2296:2361   */\n      swap1\n      pop\n        /* \"#utility.yul\":2241:2367   */\n      swap2\n      swap1\n      pop\n      jump\t// out\n        /* \"#utility.yul\":2373:2450   */\n    tag_49:\n        /* \"#utility.yul\":2410:2417   */\n      0x00\n        /* \"#utility.yul\":2439:2444   */\n      dup2\n        /* \"#utility.yul\":2428:2444   */\n      swap1\n      pop\n        /* \"#utility.yul\":2373:2450   */\n      swap2\n      swap1\n      pop\n      jump\t// out\n        /* \"#utility.yul\":2456:2557   */\n    tag_69:\n        /* \"#utility.yul\":2492:2499   */\n      0x00\n        /* \"#utility.yul\":2532:2550   */\n      0xffffffffffffffff\n        /* \"#utility.yul\":2525:2530   */\n      dup3\n        /* \"#utility.yul\":2521:2551   */\n      and\n        /* \"#utility.yul\":2510:2551   */\n      swap1\n      pop\n        /* \"#utility.yul\":2456:2557   */\n      swap2\n      swap1\n      pop\n      jump\t// out\n        /* \"#utility.yul\":2563:2743   */\n    tag_59:\n        /* \"#utility.yul\":2611:2688   */\n      0x4e487b7100000000000000000000000000000000000000000000000000000000\n        /* \"#utility.yul\":2608:2609   */\n      0x00\n        /* \"#utility.yul\":2601:2689   */\n      mstore\n        /* \"#utility.yul\":2708:2712   */\n      0x11\n        /* \"#utility.yul\":2705:2706   */\n      0x04\n        /* \"#utility.yul\":2698:2713   */\n      mstore\n        /* \"#utility.yul\":2732:2736   */\n      0x24\n        /* \"#utility.yul\":2729:2730   */\n      0x00\n        /* \"#utility.yul\":2722:2737   */\n      revert\n        /* \"#utility.yul\":2872:2989   */\n    tag_39:\n        /* \"#utility.yul\":2981:2982   */\n      0x00\n        /* \"#utility.yul\":2978:2979   */\n      dup1\n        /* \"#utility.yul\":2971:2983   */\n      revert\n        /* \"#utility.yul\":2995:3117   */\n    tag_27:\n        /* \"#utility.yul\":3068:3092   */\n      tag_76\n        /* \"#utility.yul\":3086:3091   */\n      dup2\n        /* \"#utility.yul\":3068:3092   */\n      tag_60\n      jump\t// in\n    tag_76:\n        /* \"#utility.yul\":3061:3066   */\n      dup2\n        /* \"#utility.yul\":3058:3093   */\n      eq\n        /* \"#utility.yul\":3048:3111   */\n      tag_77\n      jumpi\n        /* \"#utility.yul\":3107:3108   */\n      0x00\n        /* \"#utility.yul\":3104:3105   */\n      dup1\n        /* \"#utility.yul\":3097:3109   */\n      revert\n        /* \"#utility.yul\":3048:3111   */\n    tag_77:\n        /* \"#utility.yul\":2995:3117   */\n      pop\n      jump\t// out\n        /* \"#utility.yul\":3123:3261   */\n    tag_31:\n        /* \"#utility.yul\":3204:3236   */\n      tag_79\n        /* \"#utility.yul\":3230:3235   */\n      dup2\n        /* \"#utility.yul\":3204:3236   */\n      tag_64\n      jump\t// in\n    tag_79:\n        /* \"#utility.yul\":3197:3202   */\n      dup2\n        /* \"#utility.yul\":3194:3237   */\n      eq\n        /* \"#utility.yul\":3184:3255   */\n      tag_80\n      jumpi\n        /* \"#utility.yul\":3251:3252   */\n      0x00\n        /* \"#utility.yul\":3248:3249   */\n      dup1\n        /* \"#utility.yul\":3241:3253   */\n      revert\n        /* \"#utility.yul\":3184:3255   */\n    tag_80:\n        /* \"#utility.yul\":3123:3261   */\n      pop\n      jump\t// out\n        /* \"#utility.yul\":3267:3387   */\n    tag_35:\n        /* \"#utility.yul\":3339:3362   */\n      tag_82\n        /* \"#utility.yul\":3356:3361   */\n      dup2\n        /* \"#utility.yul\":3339:3362   */\n      tag_69\n      jump\t// in\n    tag_82:\n        /* \"#utility.yul\":3332:3337   */\n      dup2\n        /* \"#utility.yul\":3329:3363   */\n      eq\n        /* \"#utility.yul\":3319:3381   */\n      tag_83\n      jumpi\n        /* \"#utility.yul\":3377:3378   */\n      0x00\n        /* \"#utility.yul\":3374:3375   */\n      dup1\n        /* \"#utility.yul\":3367:3379   */\n      revert\n        /* \"#utility.yul\":3319:3381   */\n    tag_83:\n        /* \"#utility.yul\":3267:3387   */\n      pop\n      jump\t// out\n\n    auxdata: 0xa26469706673582212201d6caa24f8e382eed1708f840ada7f804dcd0fcbf497008cd5df34a6de515db964736f6c63430008070033\n}\n",
				"bytecode": {
					"linkReferences": {},
					"object": "608060405234801561001057600080fd5b50610363806100206000396000f3fe6080604052600436106100345760003560e01c80630ad19aeb146100395780636d26ec1814610062578063d18a42e11461006c575b600080fd5b34801561004557600080fd5b50610060600480360381019061005b9190610192565b6100a9565b005b61006a6100ad565b005b34801561007857600080fd5b50610093600480360381019061008e9190610165565b61010e565b6040516100a091906101e1565b60405180910390f35b5050565b3467ffffffffffffffff166000803373ffffffffffffffffffffffffffffffffffffffff1673ffffffffffffffffffffffffffffffffffffffff168152602001908152602001600020600082825461010591906101fc565b92505081905550565b60006020528060005260406000206000915090505481565b600081359050610135816102e8565b92915050565b60008135905061014a816102ff565b92915050565b60008135905061015f81610316565b92915050565b60006020828403121561017b5761017a6102e3565b5b600061018984828501610126565b91505092915050565b600080604083850312156101a9576101a86102e3565b5b60006101b78582860161013b565b92505060206101c885828601610150565b9150509250929050565b6101db81610296565b82525050565b60006020820190506101f660008301846101d2565b92915050565b600061020782610296565b915061021283610296565b9250827fffffffffffffffffffffffffffffffffffffffffffffffffffffffffffffffff03821115610247576102466102b4565b5b828201905092915050565b600061025d82610276565b9050919050565b600061026f82610276565b9050919050565b600073ffffffffffffffffffffffffffffffffffffffff82169050919050565b6000819050919050565b600067ffffffffffffffff82169050919050565b7f4e487b7100000000000000000000000000000000000000000000000000000000600052601160045260246000fd5b600080fd5b6102f181610252565b81146102fc57600080fd5b50565b61030881610264565b811461031357600080fd5b50565b61031f816102a0565b811461032a57600080fd5b5056fea26469706673582212201d6caa24f8e382eed1708f840ada7f804dcd0fcbf497008cd5df34a6de515db964736f6c63430008070033",
					"opcodes": "PUSH1 0x80 PUSH1 0x40 MSTORE CALLVALUE DUP1 ISZERO PUSH2 0x10 JUMPI PUSH1 0x0 DUP1 REVERT JUMPDEST POP PUSH2 0x363 DUP1 PUSH2 0x20 PUSH1 0x0 CODECOPY PUSH1 0x0 RETURN INVALID PUSH1 0x80 PUSH1 0x40 MSTORE PUSH1 0x4 CALLDATASIZE LT PUSH2 0x34 JUMPI PUSH1 0x0 CALLDATALOAD PUSH1 0xE0 SHR DUP1 PUSH4 0xAD19AEB EQ PUSH2 0x39 JUMPI DUP1 PUSH4 0x6D26EC18 EQ PUSH2 0x62 JUMPI DUP1 PUSH4 0xD18A42E1 EQ PUSH2 0x6C JUMPI JUMPDEST PUSH1 0x0 DUP1 REVERT JUMPDEST CALLVALUE DUP1 ISZERO PUSH2 0x45 JUMPI PUSH1 0x0 DUP1 REVERT JUMPDEST POP PUSH2 0x60 PUSH1 0x4 DUP1 CALLDATASIZE SUB DUP2 ADD SWAP1 PUSH2 0x5B SWAP2 SWAP1 PUSH2 0x192 JUMP JUMPDEST PUSH2 0xA9 JUMP JUMPDEST STOP JUMPDEST PUSH2 0x6A PUSH2 0xAD JUMP JUMPDEST STOP JUMPDEST CALLVALUE DUP1 ISZERO PUSH2 0x78 JUMPI PUSH1 0x0 DUP1 REVERT JUMPDEST POP PUSH2 0x93 PUSH1 0x4 DUP1 CALLDATASIZE SUB DUP2 ADD SWAP1 PUSH2 0x8E SWAP2 SWAP1 PUSH2 0x165 JUMP JUMPDEST PUSH2 0x10E JUMP JUMPDEST PUSH1 0x40 MLOAD PUSH2 0xA0 SWAP2 SWAP1 PUSH2 0x1E1 JUMP JUMPDEST PUSH1 0x40 MLOAD DUP1 SWAP2 SUB SWAP1 RETURN JUMPDEST POP POP JUMP JUMPDEST CALLVALUE PUSH8 0xFFFFFFFFFFFFFFFF AND PUSH1 0x0 DUP1 CALLER PUSH20 0xFFFFFFFFFFFFFFFFFFFFFFFFFFFFFFFFFFFFFFFF AND PUSH20 0xFFFFFFFFFFFFFFFFFFFFFFFFFFFFFFFFFFFFFFFF AND DUP2 MSTORE PUSH1 0x20 ADD SWAP1 DUP2 MSTORE PUSH1 0x20 ADD PUSH1 0x0 KECCAK256 PUSH1 0x0 DUP3 DUP3 SLOAD PUSH2 0x105 SWAP2 SWAP1 PUSH2 0x1FC JUMP JUMPDEST SWAP3 POP POP DUP2 SWAP1 SSTORE POP JUMP JUMPDEST PUSH1 0x0 PUSH1 0x20 MSTORE DUP1 PUSH1 0x0 MSTORE PUSH1 0x40 PUSH1 0x0 KECCAK256 PUSH1 0x0 SWAP2 POP SWAP1 POP SLOAD DUP2 JUMP JUMPDEST PUSH1 0x0 DUP2 CALLDATALOAD SWAP1 POP PUSH2 0x135 DUP2 PUSH2 0x2E8 JUMP JUMPDEST SWAP3 SWAP2 POP POP JUMP JUMPDEST PUSH1 0x0 DUP2 CALLDATALOAD SWAP1 POP PUSH2 0x14A DUP2 PUSH2 0x2FF JUMP JUMPDEST SWAP3 SWAP2 POP POP JUMP JUMPDEST PUSH1 0x0 DUP2 CALLDATALOAD SWAP1 POP PUSH2 0x15F DUP2 PUSH2 0x316 JUMP JUMPDEST SWAP3 SWAP2 POP POP JUMP JUMPDEST PUSH1 0x0 PUSH1 0x20 DUP3 DUP5 SUB SLT ISZERO PUSH2 0x17B JUMPI PUSH2 0x17A PUSH2 0x2E3 JUMP JUMPDEST JUMPDEST PUSH1 0x0 PUSH2 0x189 DUP5 DUP3 DUP6 ADD PUSH2 0x126 JUMP JUMPDEST SWAP2 POP POP SWAP3 SWAP2 POP POP JUMP JUMPDEST PUSH1 0x0 DUP1 PUSH1 0x40 DUP4 DUP6 SUB SLT ISZERO PUSH2 0x1A9 JUMPI PUSH2 0x1A8 PUSH2 0x2E3 JUMP JUMPDEST JUMPDEST PUSH1 0x0 PUSH2 0x1B7 DUP6 DUP3 DUP7 ADD PUSH2 0x13B JUMP JUMPDEST SWAP3 POP POP PUSH1 0x20 PUSH2 0x1C8 DUP6 DUP3 DUP7 ADD PUSH2 0x150 JUMP JUMPDEST SWAP2 POP POP SWAP3 POP SWAP3 SWAP1 POP JUMP JUMPDEST PUSH2 0x1DB DUP2 PUSH2 0x296 JUMP JUMPDEST DUP3 MSTORE POP POP JUMP JUMPDEST PUSH1 0x0 PUSH1 0x20 DUP3 ADD SWAP1 POP PUSH2 0x1F6 PUSH1 0x0 DUP4 ADD DUP5 PUSH2 0x1D2 JUMP JUMPDEST SWAP3 SWAP2 POP POP JUMP JUMPDEST PUSH1 0x0 PUSH2 0x207 DUP3 PUSH2 0x296 JUMP JUMPDEST SWAP2 POP PUSH2 0x212 DUP4 PUSH2 0x296 JUMP JUMPDEST SWAP3 POP DUP3 PUSH32 0xFFFFFFFFFFFFFFFFFFFFFFFFFFFFFFFFFFFFFFFFFFFFFFFFFFFFFFFFFFFFFFFF SUB DUP3 GT ISZERO PUSH2 0x247 JUMPI PUSH2 0x246 PUSH2 0x2B4 JUMP JUMPDEST JUMPDEST DUP3 DUP3 ADD SWAP1 POP SWAP3 SWAP2 POP POP JUMP JUMPDEST PUSH1 0x0 PUSH2 0x25D DUP3 PUSH2 0x276 JUMP JUMPDEST SWAP1 POP SWAP2 SWAP1 POP JUMP JUMPDEST PUSH1 0x0 PUSH2 0x26F DUP3 PUSH2 0x276 JUMP JUMPDEST SWAP1 POP SWAP2 SWAP1 POP JUMP JUMPDEST PUSH1 0x0 PUSH20 0xFFFFFFFFFFFFFFFFFFFFFFFFFFFFFFFFFFFFFFFF DUP3 AND SWAP1 POP SWAP2 SWAP1 POP JUMP JUMPDEST PUSH1 0x0 DUP2 SWAP1 POP SWAP2 SWAP1 POP JUMP JUMPDEST PUSH1 0x0 PUSH8 0xFFFFFFFFFFFFFFFF DUP3 AND SWAP1 POP SWAP2 SWAP1 POP JUMP JUMPDEST PUSH32 0x4E487B7100000000000000000000000000000000000000000000000000000000 PUSH1 0x0 MSTORE PUSH1 0x11 PUSH1 0x4 MSTORE PUSH1 0x24 PUSH1 0x0 REVERT JUMPDEST PUSH1 0x0 DUP1 REVERT JUMPDEST PUSH2 0x2F1 DUP2 PUSH2 0x252 JUMP JUMPDEST DUP2 EQ PUSH2 0x2FC JUMPI PUSH1 0x0 DUP1 REVERT JUMPDEST POP JUMP JUMPDEST PUSH2 0x308 DUP2 PUSH2 0x264 JUMP JUMPDEST DUP2 EQ PUSH2 0x313 JUMPI PUSH1 0x0 DUP1 REVERT JUMPDEST POP JUMP JUMPDEST PUSH2 0x31F DUP2 PUSH2 0x2A0 JUMP JUMPDEST DUP2 EQ PUSH2 0x32A JUMPI PUSH1 0x0 DUP1 REVERT JUMPDEST POP JUMP INVALID LOG2 PUSH5 0x6970667358 0x22 SLT KECCAK256 SAR PUSH13 0xAA24F8E382EED1708F840ADA7F DUP1 0x4D 0xCD 0xF 0xCB DELEGATECALL SWAP8 STOP DUP13 0xD5 0xDF CALLVALUE 0xA6 0xDE MLOAD 0x5D 0xB9 PUSH5 0x736F6C6343 STOP ADDMOD SMOD STOP CALLER "
				},
				"gasEstimates": {
					"creation": {
						"codeDepositCost": "173400",
						"executionCost": "220",
						"totalCost": "173620"
					},
					"external": {
						"balanceReceived(address)": "2836",
						"receiveMoney()": "infinite",
						"withdrawMoney(address,uint64)": "612"
					}
				},
				"methodIdentifiers": {
					"balanceReceived(address)": "d18a42e1",
					"receiveMoney()": "6d26ec18",
					"withdrawMoney(address,uint64)": "0ad19aeb"
				}
			},
			"storageLayout": {
				"storage": [
					{
						"astId": 5,
						"contract": "exceptions.sol:Excemption",
						"label": "balanceReceived",
						"offset": 0,
						"slot": "0",
						"type": "t_mapping(t_address,t_uint256)"
					}
				],
				"types": {
					"t_address": {
						"encoding": "inplace",
						"label": "address",
						"numberOfBytes": "20"
					},
					"t_mapping(t_address,t_uint256)": {
						"encoding": "mapping",
						"key": "t_address",
						"label": "mapping(address => uint256)",
						"numberOfBytes": "32",
						"value": "t_uint256"
					},
					"t_uint256": {
						"encoding": "inplace",
						"label": "uint256",
						"numberOfBytes": "32"
					}
				}
			},
			"userdoc": {
				"kind": "user",
				"methods": {},
				"version": 1
			}
		}
	}
}