{
	"StartingStopping.sol": {
		"StartStopUpdateExample": {
			"abi": [
				{
					"inputs": [],
					"stateMutability": "nonpayable",
					"type": "constructor"
				},
				{
					"inputs": [],
					"name": "SendMoney",
					"outputs": [],
					"stateMutability": "payable",
					"type": "function"
				},
				{
					"inputs": [
						{
							"internalType": "address payable",
							"name": "_to",
							"type": "address"
						}
					],
					"name": "WithdrawMoney",
					"outputs": [],
					"stateMutability": "nonpayable",
					"type": "function"
				},
				{
					"inputs": [],
					"name": "owner",
					"outputs": [
						{
							"internalType": "address",
							"name": "",
							"type": "address"
						}
					],
					"stateMutability": "view",
					"type": "function"
				},
				{
					"inputs": [],
					"name": "paused",
					"outputs": [
						{
							"internalType": "bool",
							"name": "",
							"type": "bool"
						}
					],
					"stateMutability": "view",
					"type": "function"
				}
			],
			"devdoc": {
				"kind": "dev",
				"methods": {},
				"version": 1
			},
			"evm": {
				"assembly": "    /* \"StartingStopping.sol\":25:419  contract StartStopUpdateExample{\r... */\n  mstore(0x40, 0x80)\n    /* \"StartingStopping.sol\":117:178  constructor (){\r... */\n  callvalue\n  dup1\n  iszero\n  tag_1\n  jumpi\n  0x00\n  dup1\n  revert\ntag_1:\n  pop\n    /* \"StartingStopping.sol\":150:160  msg.sender */\n  caller\n    /* \"StartingStopping.sol\":142:147  owner */\n  0x00\n  dup1\n    /* \"StartingStopping.sol\":142:160  owner = msg.sender */\n  0x0100\n  exp\n  dup2\n  sload\n  dup2\n  0xffffffffffffffffffffffffffffffffffffffff\n  mul\n  not\n  and\n  swap1\n  dup4\n  0xffffffffffffffffffffffffffffffffffffffff\n  and\n  mul\n  or\n  swap1\n  sstore\n  pop\n    /* \"StartingStopping.sol\":25:419  contract StartStopUpdateExample{\r... */\n  dataSize(sub_0)\n  dup1\n  dataOffset(sub_0)\n  0x00\n  codecopy\n  0x00\n  return\nstop\n\nsub_0: assembly {\n        /* \"StartingStopping.sol\":25:419  contract StartStopUpdateExample{\r... */\n      mstore(0x40, 0x80)\n      jumpi(tag_1, lt(calldatasize, 0x04))\n      shr(0xe0, calldataload(0x00))\n      dup1\n      0x05737314\n      eq\n      tag_2\n      jumpi\n      dup1\n      0x5c975abb\n      eq\n      tag_3\n      jumpi\n      dup1\n      0x8da5cb5b\n      eq\n      tag_4\n      jumpi\n      dup1\n      0xcf0ac9d0\n      eq\n      tag_5\n      jumpi\n    tag_1:\n      0x00\n      dup1\n      revert\n        /* \"StartingStopping.sol\":186:232  function SendMoney() public payable {\r... */\n    tag_2:\n      tag_6\n      tag_7\n      jump\t// in\n    tag_6:\n      stop\n        /* \"StartingStopping.sol\":92:110  bool public paused */\n    tag_3:\n      callvalue\n      dup1\n      iszero\n      tag_8\n      jumpi\n      0x00\n      dup1\n      revert\n    tag_8:\n      pop\n      tag_9\n      tag_10\n      jump\t// in\n    tag_9:\n      mload(0x40)\n      tag_11\n      swap2\n      swap1\n      tag_12\n      jump\t// in\n    tag_11:\n      mload(0x40)\n      dup1\n      swap2\n      sub\n      swap1\n      return\n        /* \"StartingStopping.sol\":65:85  address public owner */\n    tag_4:\n      callvalue\n      dup1\n      iszero\n      tag_13\n      jumpi\n      0x00\n      dup1\n      revert\n    tag_13:\n      pop\n      tag_14\n      tag_15\n      jump\t// in\n    tag_14:\n      mload(0x40)\n      tag_16\n      swap2\n      swap1\n      tag_17\n      jump\t// in\n    tag_16:\n      mload(0x40)\n      dup1\n      swap2\n      sub\n      swap1\n      return\n        /* \"StartingStopping.sol\":244:414  function WithdrawMoney(address payable _to)public {\r... */\n    tag_5:\n      callvalue\n      dup1\n      iszero\n      tag_18\n      jumpi\n      0x00\n      dup1\n      revert\n    tag_18:\n      pop\n      tag_19\n      0x04\n      dup1\n      calldatasize\n      sub\n      dup2\n      add\n      swap1\n      tag_20\n      swap2\n      swap1\n      tag_21\n      jump\t// in\n    tag_20:\n      tag_22\n      jump\t// in\n    tag_19:\n      stop\n        /* \"StartingStopping.sol\":186:232  function SendMoney() public payable {\r... */\n    tag_7:\n      jump\t// out\n        /* \"StartingStopping.sol\":92:110  bool public paused */\n    tag_10:\n      0x00\n      0x14\n      swap1\n      sload\n      swap1\n      0x0100\n      exp\n      swap1\n      div\n      0xff\n      and\n      dup2\n      jump\t// out\n        /* \"StartingStopping.sol\":65:85  address public owner */\n    tag_15:\n      0x00\n      dup1\n      sload\n      swap1\n      0x0100\n      exp\n      swap1\n      div\n      0xffffffffffffffffffffffffffffffffffffffff\n      and\n      dup2\n      jump\t// out\n        /* \"StartingStopping.sol\":244:414  function WithdrawMoney(address payable _to)public {\r... */\n    tag_22:\n        /* \"StartingStopping.sol\":322:332  msg.sender */\n      caller\n        /* \"StartingStopping.sol\":313:332  owner == msg.sender */\n      0xffffffffffffffffffffffffffffffffffffffff\n      and\n        /* \"StartingStopping.sol\":313:318  owner */\n      0x00\n      dup1\n      sload\n      swap1\n      0x0100\n      exp\n      swap1\n      div\n      0xffffffffffffffffffffffffffffffffffffffff\n      and\n        /* \"StartingStopping.sol\":313:332  owner == msg.sender */\n      0xffffffffffffffffffffffffffffffffffffffff\n      and\n      eq\n        /* \"StartingStopping.sol\":305:357  require(owner == msg.sender, \"You Cannot Withdraw.\") */\n      tag_25\n      jumpi\n      mload(0x40)\n      0x08c379a000000000000000000000000000000000000000000000000000000000\n      dup2\n      mstore\n      0x04\n      add\n      tag_26\n      swap1\n      tag_27\n      jump\t// in\n    tag_26:\n      mload(0x40)\n      dup1\n      swap2\n      sub\n      swap1\n      revert\n    tag_25:\n        /* \"StartingStopping.sol\":368:371  _to */\n      dup1\n        /* \"StartingStopping.sol\":368:380  _to.transfer */\n      0xffffffffffffffffffffffffffffffffffffffff\n      and\n        /* \"StartingStopping.sol\":368:404  _to.transfer (address(this).balance) */\n      0x08fc\n        /* \"StartingStopping.sol\":382:403  address(this).balance */\n      selfbalance\n        /* \"StartingStopping.sol\":368:404  _to.transfer (address(this).balance) */\n      swap1\n      dup2\n      iszero\n      mul\n      swap1\n      mload(0x40)\n      0x00\n      mload(0x40)\n      dup1\n      dup4\n      sub\n      dup2\n      dup6\n      dup9\n      dup9\n      call\n      swap4\n      pop\n      pop\n      pop\n      pop\n      iszero\n      dup1\n      iszero\n      tag_29\n      jumpi\n      returndatasize\n      0x00\n      dup1\n      returndatacopy\n      revert(0x00, returndatasize)\n    tag_29:\n      pop\n        /* \"StartingStopping.sol\":244:414  function WithdrawMoney(address payable _to)public {\r... */\n      pop\n      jump\t// out\n        /* \"#utility.yul\":7:162   */\n    tag_31:\n        /* \"#utility.yul\":61:66   */\n      0x00\n        /* \"#utility.yul\":99:105   */\n      dup2\n        /* \"#utility.yul\":86:106   */\n      calldataload\n        /* \"#utility.yul\":77:106   */\n      swap1\n      pop\n        /* \"#utility.yul\":115:156   */\n      tag_33\n        /* \"#utility.yul\":150:155   */\n      dup2\n        /* \"#utility.yul\":115:156   */\n      tag_34\n      jump\t// in\n    tag_33:\n        /* \"#utility.yul\":7:162   */\n      swap3\n      swap2\n      pop\n      pop\n      jump\t// out\n        /* \"#utility.yul\":168:513   */\n    tag_21:\n        /* \"#utility.yul\":235:241   */\n      0x00\n        /* \"#utility.yul\":284:286   */\n      0x20\n        /* \"#utility.yul\":272:281   */\n      dup3\n        /* \"#utility.yul\":263:270   */\n      dup5\n        /* \"#utility.yul\":259:282   */\n      sub\n        /* \"#utility.yul\":255:287   */\n      slt\n        /* \"#utility.yul\":252:371   */\n      iszero\n      tag_36\n      jumpi\n        /* \"#utility.yul\":290:369   */\n      tag_37\n      tag_38\n      jump\t// in\n    tag_37:\n        /* \"#utility.yul\":252:371   */\n    tag_36:\n        /* \"#utility.yul\":410:411   */\n      0x00\n        /* \"#utility.yul\":435:496   */\n      tag_39\n        /* \"#utility.yul\":488:495   */\n      dup5\n        /* \"#utility.yul\":479:485   */\n      dup3\n        /* \"#utility.yul\":468:477   */\n      dup6\n        /* \"#utility.yul\":464:486   */\n      add\n        /* \"#utility.yul\":435:496   */\n      tag_31\n      jump\t// in\n    tag_39:\n        /* \"#utility.yul\":425:496   */\n      swap2\n      pop\n        /* \"#utility.yul\":381:506   */\n      pop\n        /* \"#utility.yul\":168:513   */\n      swap3\n      swap2\n      pop\n      pop\n      jump\t// out\n        /* \"#utility.yul\":519:637   */\n    tag_40:\n        /* \"#utility.yul\":606:630   */\n      tag_42\n        /* \"#utility.yul\":624:629   */\n      dup2\n        /* \"#utility.yul\":606:630   */\n      tag_43\n      jump\t// in\n    tag_42:\n        /* \"#utility.yul\":601:604   */\n      dup3\n        /* \"#utility.yul\":594:631   */\n      mstore\n        /* \"#utility.yul\":519:637   */\n      pop\n      pop\n      jump\t// out\n        /* \"#utility.yul\":643:752   */\n    tag_44:\n        /* \"#utility.yul\":724:745   */\n      tag_46\n        /* \"#utility.yul\":739:744   */\n      dup2\n        /* \"#utility.yul\":724:745   */\n      tag_47\n      jump\t// in\n    tag_46:\n        /* \"#utility.yul\":719:722   */\n      dup3\n        /* \"#utility.yul\":712:746   */\n      mstore\n        /* \"#utility.yul\":643:752   */\n      pop\n      pop\n      jump\t// out\n        /* \"#utility.yul\":758:1124   */\n    tag_48:\n        /* \"#utility.yul\":900:903   */\n      0x00\n        /* \"#utility.yul\":921:988   */\n      tag_50\n        /* \"#utility.yul\":985:987   */\n      0x14\n        /* \"#utility.yul\":980:983   */\n      dup4\n        /* \"#utility.yul\":921:988   */\n      tag_51\n      jump\t// in\n    tag_50:\n        /* \"#utility.yul\":914:988   */\n      swap2\n      pop\n        /* \"#utility.yul\":997:1090   */\n      tag_52\n        /* \"#utility.yul\":1086:1089   */\n      dup3\n        /* \"#utility.yul\":997:1090   */\n      tag_53\n      jump\t// in\n    tag_52:\n        /* \"#utility.yul\":1115:1117   */\n      0x20\n        /* \"#utility.yul\":1110:1113   */\n      dup3\n        /* \"#utility.yul\":1106:1118   */\n      add\n        /* \"#utility.yul\":1099:1118   */\n      swap1\n      pop\n        /* \"#utility.yul\":758:1124   */\n      swap2\n      swap1\n      pop\n      jump\t// out\n        /* \"#utility.yul\":1130:1352   */\n    tag_17:\n        /* \"#utility.yul\":1223:1227   */\n      0x00\n        /* \"#utility.yul\":1261:1263   */\n      0x20\n        /* \"#utility.yul\":1250:1259   */\n      dup3\n        /* \"#utility.yul\":1246:1264   */\n      add\n        /* \"#utility.yul\":1238:1264   */\n      swap1\n      pop\n        /* \"#utility.yul\":1274:1345   */\n      tag_55\n        /* \"#utility.yul\":1342:1343   */\n      0x00\n        /* \"#utility.yul\":1331:1340   */\n      dup4\n        /* \"#utility.yul\":1327:1344   */\n      add\n        /* \"#utility.yul\":1318:1324   */\n      dup5\n        /* \"#utility.yul\":1274:1345   */\n      tag_40\n      jump\t// in\n    tag_55:\n        /* \"#utility.yul\":1130:1352   */\n      swap3\n      swap2\n      pop\n      pop\n      jump\t// out\n        /* \"#utility.yul\":1358:1568   */\n    tag_12:\n        /* \"#utility.yul\":1445:1449   */\n      0x00\n        /* \"#utility.yul\":1483:1485   */\n      0x20\n        /* \"#utility.yul\":1472:1481   */\n      dup3\n        /* \"#utility.yul\":1468:1486   */\n      add\n        /* \"#utility.yul\":1460:1486   */\n      swap1\n      pop\n        /* \"#utility.yul\":1496:1561   */\n      tag_57\n        /* \"#utility.yul\":1558:1559   */\n      0x00\n        /* \"#utility.yul\":1547:1556   */\n      dup4\n        /* \"#utility.yul\":1543:1560   */\n      add\n        /* \"#utility.yul\":1534:1540   */\n      dup5\n        /* \"#utility.yul\":1496:1561   */\n      tag_44\n      jump\t// in\n    tag_57:\n        /* \"#utility.yul\":1358:1568   */\n      swap3\n      swap2\n      pop\n      pop\n      jump\t// out\n        /* \"#utility.yul\":1574:1993   */\n    tag_27:\n        /* \"#utility.yul\":1740:1744   */\n      0x00\n        /* \"#utility.yul\":1778:1780   */\n      0x20\n        /* \"#utility.yul\":1767:1776   */\n      dup3\n        /* \"#utility.yul\":1763:1781   */\n      add\n        /* \"#utility.yul\":1755:1781   */\n      swap1\n      pop\n        /* \"#utility.yul\":1827:1836   */\n      dup2\n        /* \"#utility.yul\":1821:1825   */\n      dup2\n        /* \"#utility.yul\":1817:1837   */\n      sub\n        /* \"#utility.yul\":1813:1814   */\n      0x00\n        /* \"#utility.yul\":1802:1811   */\n      dup4\n        /* \"#utility.yul\":1798:1815   */\n      add\n        /* \"#utility.yul\":1791:1838   */\n      mstore\n        /* \"#utility.yul\":1855:1986   */\n      tag_59\n        /* \"#utility.yul\":1981:1985   */\n      dup2\n        /* \"#utility.yul\":1855:1986   */\n      tag_48\n      jump\t// in\n    tag_59:\n        /* \"#utility.yul\":1847:1986   */\n      swap1\n      pop\n        /* \"#utility.yul\":1574:1993   */\n      swap2\n      swap1\n      pop\n      jump\t// out\n        /* \"#utility.yul\":2080:2249   */\n    tag_51:\n        /* \"#utility.yul\":2164:2175   */\n      0x00\n        /* \"#utility.yul\":2198:2204   */\n      dup3\n        /* \"#utility.yul\":2193:2196   */\n      dup3\n        /* \"#utility.yul\":2186:2205   */\n      mstore\n        /* \"#utility.yul\":2238:2242   */\n      0x20\n        /* \"#utility.yul\":2233:2236   */\n      dup3\n        /* \"#utility.yul\":2229:2243   */\n      add\n        /* \"#utility.yul\":2214:2243   */\n      swap1\n      pop\n        /* \"#utility.yul\":2080:2249   */\n      swap3\n      swap2\n      pop\n      pop\n      jump\t// out\n        /* \"#utility.yul\":2255:2351   */\n    tag_43:\n        /* \"#utility.yul\":2292:2299   */\n      0x00\n        /* \"#utility.yul\":2321:2345   */\n      tag_64\n        /* \"#utility.yul\":2339:2344   */\n      dup3\n        /* \"#utility.yul\":2321:2345   */\n      tag_65\n      jump\t// in\n    tag_64:\n        /* \"#utility.yul\":2310:2345   */\n      swap1\n      pop\n        /* \"#utility.yul\":2255:2351   */\n      swap2\n      swap1\n      pop\n      jump\t// out\n        /* \"#utility.yul\":2357:2461   */\n    tag_66:\n        /* \"#utility.yul\":2402:2409   */\n      0x00\n        /* \"#utility.yul\":2431:2455   */\n      tag_68\n        /* \"#utility.yul\":2449:2454   */\n      dup3\n        /* \"#utility.yul\":2431:2455   */\n      tag_65\n      jump\t// in\n    tag_68:\n        /* \"#utility.yul\":2420:2455   */\n      swap1\n      pop\n        /* \"#utility.yul\":2357:2461   */\n      swap2\n      swap1\n      pop\n      jump\t// out\n        /* \"#utility.yul\":2467:2557   */\n    tag_47:\n        /* \"#utility.yul\":2501:2508   */\n      0x00\n        /* \"#utility.yul\":2544:2549   */\n      dup2\n        /* \"#utility.yul\":2537:2550   */\n      iszero\n        /* \"#utility.yul\":2530:2551   */\n      iszero\n        /* \"#utility.yul\":2519:2551   */\n      swap1\n      pop\n        /* \"#utility.yul\":2467:2557   */\n      swap2\n      swap1\n      pop\n      jump\t// out\n        /* \"#utility.yul\":2563:2689   */\n    tag_65:\n        /* \"#utility.yul\":2600:2607   */\n      0x00\n        /* \"#utility.yul\":2640:2682   */\n      0xffffffffffffffffffffffffffffffffffffffff\n        /* \"#utility.yul\":2633:2638   */\n      dup3\n        /* \"#utility.yul\":2629:2683   */\n      and\n        /* \"#utility.yul\":2618:2683   */\n      swap1\n      pop\n        /* \"#utility.yul\":2563:2689   */\n      swap2\n      swap1\n      pop\n      jump\t// out\n        /* \"#utility.yul\":2818:2935   */\n    tag_38:\n        /* \"#utility.yul\":2927:2928   */\n      0x00\n        /* \"#utility.yul\":2924:2925   */\n      dup1\n        /* \"#utility.yul\":2917:2929   */\n      revert\n        /* \"#utility.yul\":2941:3111   */\n    tag_53:\n        /* \"#utility.yul\":3081:3103   */\n      0x596f752043616e6e6f742057697468647261772e000000000000000000000000\n        /* \"#utility.yul\":3077:3078   */\n      0x00\n        /* \"#utility.yul\":3069:3075   */\n      dup3\n        /* \"#utility.yul\":3065:3079   */\n      add\n        /* \"#utility.yul\":3058:3104   */\n      mstore\n        /* \"#utility.yul\":2941:3111   */\n      pop\n      jump\t// out\n        /* \"#utility.yul\":3117:3255   */\n    tag_34:\n        /* \"#utility.yul\":3198:3230   */\n      tag_76\n        /* \"#utility.yul\":3224:3229   */\n      dup2\n        /* \"#utility.yul\":3198:3230   */\n      tag_66\n      jump\t// in\n    tag_76:\n        /* \"#utility.yul\":3191:3196   */\n      dup2\n        /* \"#utility.yul\":3188:3231   */\n      eq\n        /* \"#utility.yul\":3178:3249   */\n      tag_77\n      jumpi\n        /* \"#utility.yul\":3245:3246   */\n      0x00\n        /* \"#utility.yul\":3242:3243   */\n      dup1\n        /* \"#utility.yul\":3235:3247   */\n      revert\n        /* \"#utility.yul\":3178:3249   */\n    tag_77:\n        /* \"#utility.yul\":3117:3255   */\n      pop\n      jump\t// out\n\n    auxdata: 0xa2646970667358221220bc9b88f1d5dc3059521154dd8ec30af17b5f31065e27b7b9cd7fb018eb2b2e2264736f6c63430008070033\n}\n",
				"bytecode": {
					"linkReferences": {},
					"object": "608060405234801561001057600080fd5b50336000806101000a81548173ffffffffffffffffffffffffffffffffffffffff021916908373ffffffffffffffffffffffffffffffffffffffff160217905550610393806100606000396000f3fe60806040526004361061003f5760003560e01c806305737314146100445780635c975abb1461004e5780638da5cb5b14610079578063cf0ac9d0146100a4575b600080fd5b61004c6100cd565b005b34801561005a57600080fd5b506100636100cf565b604051610070919061027c565b60405180910390f35b34801561008557600080fd5b5061008e6100e2565b60405161009b9190610261565b60405180910390f35b3480156100b057600080fd5b506100cb60048036038101906100c691906101f3565b610106565b005b565b600060149054906101000a900460ff1681565b60008054906101000a900473ffffffffffffffffffffffffffffffffffffffff1681565b3373ffffffffffffffffffffffffffffffffffffffff1660008054906101000a900473ffffffffffffffffffffffffffffffffffffffff1673ffffffffffffffffffffffffffffffffffffffff1614610194576040517f08c379a000000000000000000000000000000000000000000000000000000000815260040161018b90610297565b60405180910390fd5b8073ffffffffffffffffffffffffffffffffffffffff166108fc479081150290604051600060405180830381858888f193505050501580156101da573d6000803e3d6000fd5b5050565b6000813590506101ed81610346565b92915050565b60006020828403121561020957610208610318565b5b6000610217848285016101de565b91505092915050565b610229816102c8565b82525050565b610238816102ec565b82525050565b600061024b6014836102b7565b91506102568261031d565b602082019050919050565b60006020820190506102766000830184610220565b92915050565b6000602082019050610291600083018461022f565b92915050565b600060208201905081810360008301526102b08161023e565b9050919050565b600082825260208201905092915050565b60006102d3826102f8565b9050919050565b60006102e5826102f8565b9050919050565b60008115159050919050565b600073ffffffffffffffffffffffffffffffffffffffff82169050919050565b600080fd5b7f596f752043616e6e6f742057697468647261772e000000000000000000000000600082015250565b61034f816102da565b811461035a57600080fd5b5056fea2646970667358221220bc9b88f1d5dc3059521154dd8ec30af17b5f31065e27b7b9cd7fb018eb2b2e2264736f6c63430008070033",
					"opcodes": "PUSH1 0x80 PUSH1 0x40 MSTORE CALLVALUE DUP1 ISZERO PUSH2 0x10 JUMPI PUSH1 0x0 DUP1 REVERT JUMPDEST POP CALLER PUSH1 0x0 DUP1 PUSH2 0x100 EXP DUP2 SLOAD DUP2 PUSH20 0xFFFFFFFFFFFFFFFFFFFFFFFFFFFFFFFFFFFFFFFF MUL NOT AND SWAP1 DUP4 PUSH20 0xFFFFFFFFFFFFFFFFFFFFFFFFFFFFFFFFFFFFFFFF AND MUL OR SWAP1 SSTORE POP PUSH2 0x393 DUP1 PUSH2 0x60 PUSH1 0x0 CODECOPY PUSH1 0x0 RETURN INVALID PUSH1 0x80 PUSH1 0x40 MSTORE PUSH1 0x4 CALLDATASIZE LT PUSH2 0x3F JUMPI PUSH1 0x0 CALLDATALOAD PUSH1 0xE0 SHR DUP1 PUSH4 0x5737314 EQ PUSH2 0x44 JUMPI DUP1 PUSH4 0x5C975ABB EQ PUSH2 0x4E JUMPI DUP1 PUSH4 0x8DA5CB5B EQ PUSH2 0x79 JUMPI DUP1 PUSH4 0xCF0AC9D0 EQ PUSH2 0xA4 JUMPI JUMPDEST PUSH1 0x0 DUP1 REVERT JUMPDEST PUSH2 0x4C PUSH2 0xCD JUMP JUMPDEST STOP JUMPDEST CALLVALUE DUP1 ISZERO PUSH2 0x5A JUMPI PUSH1 0x0 DUP1 REVERT JUMPDEST POP PUSH2 0x63 PUSH2 0xCF JUMP JUMPDEST PUSH1 0x40 MLOAD PUSH2 0x70 SWAP2 SWAP1 PUSH2 0x27C JUMP JUMPDEST PUSH1 0x40 MLOAD DUP1 SWAP2 SUB SWAP1 RETURN JUMPDEST CALLVALUE DUP1 ISZERO PUSH2 0x85 JUMPI PUSH1 0x0 DUP1 REVERT JUMPDEST POP PUSH2 0x8E PUSH2 0xE2 JUMP JUMPDEST PUSH1 0x40 MLOAD PUSH2 0x9B SWAP2 SWAP1 PUSH2 0x261 JUMP JUMPDEST PUSH1 0x40 MLOAD DUP1 SWAP2 SUB SWAP1 RETURN JUMPDEST CALLVALUE DUP1 ISZERO PUSH2 0xB0 JUMPI PUSH1 0x0 DUP1 REVERT JUMPDEST POP PUSH2 0xCB PUSH1 0x4 DUP1 CALLDATASIZE SUB DUP2 ADD SWAP1 PUSH2 0xC6 SWAP2 SWAP1 PUSH2 0x1F3 JUMP JUMPDEST PUSH2 0x106 JUMP JUMPDEST STOP JUMPDEST JUMP JUMPDEST PUSH1 0x0 PUSH1 0x14 SWAP1 SLOAD SWAP1 PUSH2 0x100 EXP SWAP1 DIV PUSH1 0xFF AND DUP2 JUMP JUMPDEST PUSH1 0x0 DUP1 SLOAD SWAP1 PUSH2 0x100 EXP SWAP1 DIV PUSH20 0xFFFFFFFFFFFFFFFFFFFFFFFFFFFFFFFFFFFFFFFF AND DUP2 JUMP JUMPDEST CALLER PUSH20 0xFFFFFFFFFFFFFFFFFFFFFFFFFFFFFFFFFFFFFFFF AND PUSH1 0x0 DUP1 SLOAD SWAP1 PUSH2 0x100 EXP SWAP1 DIV PUSH20 0xFFFFFFFFFFFFFFFFFFFFFFFFFFFFFFFFFFFFFFFF AND PUSH20 0xFFFFFFFFFFFFFFFFFFFFFFFFFFFFFFFFFFFFFFFF AND EQ PUSH2 0x194 JUMPI PUSH1 0x40 MLOAD PUSH32 0x8C379A000000000000000000000000000000000000000000000000000000000 DUP2 MSTORE PUSH1 0x4 ADD PUSH2 0x18B SWAP1 PUSH2 0x297 JUMP JUMPDEST PUSH1 0x40 MLOAD DUP1 SWAP2 SUB SWAP1 REVERT JUMPDEST DUP1 PUSH20 0xFFFFFFFFFFFFFFFFFFFFFFFFFFFFFFFFFFFFFFFF AND PUSH2 0x8FC SELFBALANCE SWAP1 DUP2 ISZERO MUL SWAP1 PUSH1 0x40 MLOAD PUSH1 0x0 PUSH1 0x40 MLOAD DUP1 DUP4 SUB DUP2 DUP6 DUP9 DUP9 CALL SWAP4 POP POP POP POP ISZERO DUP1 ISZERO PUSH2 0x1DA JUMPI RETURNDATASIZE PUSH1 0x0 DUP1 RETURNDATACOPY RETURNDATASIZE PUSH1 0x0 REVERT JUMPDEST POP POP JUMP JUMPDEST PUSH1 0x0 DUP2 CALLDATALOAD SWAP1 POP PUSH2 0x1ED DUP2 PUSH2 0x346 JUMP JUMPDEST SWAP3 SWAP2 POP POP JUMP JUMPDEST PUSH1 0x0 PUSH1 0x20 DUP3 DUP5 SUB SLT ISZERO PUSH2 0x209 JUMPI PUSH2 0x208 PUSH2 0x318 JUMP JUMPDEST JUMPDEST PUSH1 0x0 PUSH2 0x217 DUP5 DUP3 DUP6 ADD PUSH2 0x1DE JUMP JUMPDEST SWAP2 POP POP SWAP3 SWAP2 POP POP JUMP JUMPDEST PUSH2 0x229 DUP2 PUSH2 0x2C8 JUMP JUMPDEST DUP3 MSTORE POP POP JUMP JUMPDEST PUSH2 0x238 DUP2 PUSH2 0x2EC JUMP JUMPDEST DUP3 MSTORE POP POP JUMP JUMPDEST PUSH1 0x0 PUSH2 0x24B PUSH1 0x14 DUP4 PUSH2 0x2B7 JUMP JUMPDEST SWAP2 POP PUSH2 0x256 DUP3 PUSH2 0x31D JUMP JUMPDEST PUSH1 0x20 DUP3 ADD SWAP1 POP SWAP2 SWAP1 POP JUMP JUMPDEST PUSH1 0x0 PUSH1 0x20 DUP3 ADD SWAP1 POP PUSH2 0x276 PUSH1 0x0 DUP4 ADD DUP5 PUSH2 0x220 JUMP JUMPDEST SWAP3 SWAP2 POP POP JUMP JUMPDEST PUSH1 0x0 PUSH1 0x20 DUP3 ADD SWAP1 POP PUSH2 0x291 PUSH1 0x0 DUP4 ADD DUP5 PUSH2 0x22F JUMP JUMPDEST SWAP3 SWAP2 POP POP JUMP JUMPDEST PUSH1 0x0 PUSH1 0x20 DUP3 ADD SWAP1 POP DUP2 DUP2 SUB PUSH1 0x0 DUP4 ADD MSTORE PUSH2 0x2B0 DUP2 PUSH2 0x23E JUMP JUMPDEST SWAP1 POP SWAP2 SWAP1 POP JUMP JUMPDEST PUSH1 0x0 DUP3 DUP3 MSTORE PUSH1 0x20 DUP3 ADD SWAP1 POP SWAP3 SWAP2 POP POP JUMP JUMPDEST PUSH1 0x0 PUSH2 0x2D3 DUP3 PUSH2 0x2F8 JUMP JUMPDEST SWAP1 POP SWAP2 SWAP1 POP JUMP JUMPDEST PUSH1 0x0 PUSH2 0x2E5 DUP3 PUSH2 0x2F8 JUMP JUMPDEST SWAP1 POP SWAP2 SWAP1 POP JUMP JUMPDEST PUSH1 0x0 DUP2 ISZERO ISZERO SWAP1 POP SWAP2 SWAP1 POP JUMP JUMPDEST PUSH1 0x0 PUSH20 0xFFFFFFFFFFFFFFFFFFFFFFFFFFFFFFFFFFFFFFFF DUP3 AND SWAP1 POP SWAP2 SWAP1 POP JUMP JUMPDEST PUSH1 0x0 DUP1 REVERT JUMPDEST PUSH32 0x596F752043616E6E6F742057697468647261772E000000000000000000000000 PUSH1 0x0 DUP3 ADD MSTORE POP JUMP JUMPDEST PUSH2 0x34F DUP2 PUSH2 0x2DA JUMP JUMPDEST DUP2 EQ PUSH2 0x35A JUMPI PUSH1 0x0 DUP1 REVERT JUMPDEST POP JUMP INVALID LOG2 PUSH5 0x6970667358 0x22 SLT KECCAK256 0xBC SWAP12 DUP9 CALL 0xD5 0xDC ADDRESS MSIZE MSTORE GT SLOAD 0xDD DUP15 0xC3 EXP CALL PUSH28 0x5F31065E27B7B9CD7FB018EB2B2E2264736F6C634300080700330000 "
				},
				"gasEstimates": {
					"creation": {
						"codeDepositCost": "183000",
						"executionCost": "24492",
						"totalCost": "207492"
					},
					"external": {
						"SendMoney()": "98",
						"WithdrawMoney(address)": "infinite",
						"owner()": "2533",
						"paused()": "2521"
					}
				},
				"methodIdentifiers": {
					"SendMoney()": "05737314",
					"WithdrawMoney(address)": "cf0ac9d0",
					"owner()": "8da5cb5b",
					"paused()": "5c975abb"
				}
			},
			"storageLayout": {
				"storage": [
					{
						"astId": 3,
						"contract": "StartingStopping.sol:StartStopUpdateExample",
						"label": "owner",
						"offset": 0,
						"slot": "0",
						"type": "t_address"
					},
					{
						"astId": 5,
						"contract": "StartingStopping.sol:StartStopUpdateExample",
						"label": "paused",
						"offset": 20,
						"slot": "0",
						"type": "t_bool"
					}
				],
				"types": {
					"t_address": {
						"encoding": "inplace",
						"label": "address",
						"numberOfBytes": "20"
					},
					"t_bool": {
						"encoding": "inplace",
						"label": "bool",
						"numberOfBytes": "1"
					}
				}
			},
			"userdoc": {
				"kind": "user",
				"methods": {},
				"version": 1
			}
		}
	}
}