{
	"ProjectSupplyChainItemManager.sol": {
		"ItemManager": {
			"abi": [
				{
					"inputs": [
						{
							"internalType": "string",
							"name": "_identifier",
							"type": "string"
						},
						{
							"internalType": "uint256",
							"name": "_priceInWei",
							"type": "uint256"
						}
					],
					"name": "createItem",
					"outputs": [],
					"stateMutability": "nonpayable",
					"type": "function"
				},
				{
					"inputs": [
						{
							"internalType": "uint256",
							"name": "_index",
							"type": "uint256"
						}
					],
					"name": "triggerDelivery",
					"outputs": [],
					"stateMutability": "nonpayable",
					"type": "function"
				},
				{
					"inputs": [
						{
							"internalType": "uint256",
							"name": "_index",
							"type": "uint256"
						}
					],
					"name": "triggerPayment",
					"outputs": [],
					"stateMutability": "payable",
					"type": "function"
				}
			],
			"devdoc": {
				"kind": "dev",
				"methods": {},
				"version": 1
			},
			"evm": {
				"assembly": "    /* \"ProjectSupplyChainItemManager.sol\":27:288  contract ItemManager {\r... */\n  mstore(0x40, 0x80)\n  callvalue\n  dup1\n  iszero\n  tag_1\n  jumpi\n  0x00\n  dup1\n  revert\ntag_1:\n  pop\n  dataSize(sub_0)\n  dup1\n  dataOffset(sub_0)\n  0x00\n  codecopy\n  0x00\n  return\nstop\n\nsub_0: assembly {\n        /* \"ProjectSupplyChainItemManager.sol\":27:288  contract ItemManager {\r... */\n      mstore(0x40, 0x80)\n      jumpi(tag_1, lt(calldatasize, 0x04))\n      shr(0xe0, calldataload(0x00))\n      dup1\n      0x800fb83f\n      eq\n      tag_2\n      jumpi\n      dup1\n      0x8c551742\n      eq\n      tag_3\n      jumpi\n      dup1\n      0xcd31831e\n      eq\n      tag_4\n      jumpi\n    tag_1:\n      0x00\n      dup1\n      revert\n        /* \"ProjectSupplyChainItemManager.sol\":150:213  function triggerPayment (uint _index) public payable {\r... */\n    tag_2:\n      tag_5\n      0x04\n      dup1\n      calldatasize\n      sub\n      dup2\n      add\n      swap1\n      tag_6\n      swap2\n      swap1\n      tag_7\n      jump\t// in\n    tag_6:\n      tag_8\n      jump\t// in\n    tag_5:\n      stop\n        /* \"ProjectSupplyChainItemManager.sol\":59:142  function createItem (string memory _identifier, uint _priceInWei) public {\r... */\n    tag_3:\n      callvalue\n      dup1\n      iszero\n      tag_9\n      jumpi\n      0x00\n      dup1\n      revert\n    tag_9:\n      pop\n      tag_10\n      0x04\n      dup1\n      calldatasize\n      sub\n      dup2\n      add\n      swap1\n      tag_11\n      swap2\n      swap1\n      tag_12\n      jump\t// in\n    tag_11:\n      tag_13\n      jump\t// in\n    tag_10:\n      stop\n        /* \"ProjectSupplyChainItemManager.sol\":221:285  function triggerDelivery (uint _index) public {\r... */\n    tag_4:\n      callvalue\n      dup1\n      iszero\n      tag_14\n      jumpi\n      0x00\n      dup1\n      revert\n    tag_14:\n      pop\n      tag_15\n      0x04\n      dup1\n      calldatasize\n      sub\n      dup2\n      add\n      swap1\n      tag_16\n      swap2\n      swap1\n      tag_7\n      jump\t// in\n    tag_16:\n      tag_17\n      jump\t// in\n    tag_15:\n      stop\n        /* \"ProjectSupplyChainItemManager.sol\":150:213  function triggerPayment (uint _index) public payable {\r... */\n    tag_8:\n      pop\n      jump\t// out\n        /* \"ProjectSupplyChainItemManager.sol\":59:142  function createItem (string memory _identifier, uint _priceInWei) public {\r... */\n    tag_13:\n      pop\n      pop\n      jump\t// out\n        /* \"ProjectSupplyChainItemManager.sol\":221:285  function triggerDelivery (uint _index) public {\r... */\n    tag_17:\n      pop\n      jump\t// out\n        /* \"#utility.yul\":7:419   */\n    tag_22:\n        /* \"#utility.yul\":85:90   */\n      0x00\n        /* \"#utility.yul\":110:176   */\n      tag_24\n        /* \"#utility.yul\":126:175   */\n      tag_25\n        /* \"#utility.yul\":168:174   */\n      dup5\n        /* \"#utility.yul\":126:175   */\n      tag_26\n      jump\t// in\n    tag_25:\n        /* \"#utility.yul\":110:176   */\n      tag_27\n      jump\t// in\n    tag_24:\n        /* \"#utility.yul\":101:176   */\n      swap1\n      pop\n        /* \"#utility.yul\":199:205   */\n      dup3\n        /* \"#utility.yul\":192:197   */\n      dup2\n        /* \"#utility.yul\":185:206   */\n      mstore\n        /* \"#utility.yul\":237:241   */\n      0x20\n        /* \"#utility.yul\":230:235   */\n      dup2\n        /* \"#utility.yul\":226:242   */\n      add\n        /* \"#utility.yul\":275:278   */\n      dup5\n        /* \"#utility.yul\":266:272   */\n      dup5\n        /* \"#utility.yul\":261:264   */\n      dup5\n        /* \"#utility.yul\":257:273   */\n      add\n        /* \"#utility.yul\":254:279   */\n      gt\n        /* \"#utility.yul\":251:363   */\n      iszero\n      tag_28\n      jumpi\n        /* \"#utility.yul\":282:361   */\n      tag_29\n      tag_30\n      jump\t// in\n    tag_29:\n        /* \"#utility.yul\":251:363   */\n    tag_28:\n        /* \"#utility.yul\":372:413   */\n      tag_31\n        /* \"#utility.yul\":406:412   */\n      dup5\n        /* \"#utility.yul\":401:404   */\n      dup3\n        /* \"#utility.yul\":396:399   */\n      dup6\n        /* \"#utility.yul\":372:413   */\n      tag_32\n      jump\t// in\n    tag_31:\n        /* \"#utility.yul\":91:419   */\n      pop\n        /* \"#utility.yul\":7:419   */\n      swap4\n      swap3\n      pop\n      pop\n      pop\n      jump\t// out\n        /* \"#utility.yul\":439:779   */\n    tag_33:\n        /* \"#utility.yul\":495:500   */\n      0x00\n        /* \"#utility.yul\":544:547   */\n      dup3\n        /* \"#utility.yul\":537:541   */\n      0x1f\n        /* \"#utility.yul\":529:535   */\n      dup4\n        /* \"#utility.yul\":525:542   */\n      add\n        /* \"#utility.yul\":521:548   */\n      slt\n        /* \"#utility.yul\":511:633   */\n      tag_35\n      jumpi\n        /* \"#utility.yul\":552:631   */\n      tag_36\n      tag_37\n      jump\t// in\n    tag_36:\n        /* \"#utility.yul\":511:633   */\n    tag_35:\n        /* \"#utility.yul\":669:675   */\n      dup2\n        /* \"#utility.yul\":656:676   */\n      calldataload\n        /* \"#utility.yul\":694:773   */\n      tag_38\n        /* \"#utility.yul\":769:772   */\n      dup5\n        /* \"#utility.yul\":761:767   */\n      dup3\n        /* \"#utility.yul\":754:758   */\n      0x20\n        /* \"#utility.yul\":746:752   */\n      dup7\n        /* \"#utility.yul\":742:759   */\n      add\n        /* \"#utility.yul\":694:773   */\n      tag_22\n      jump\t// in\n    tag_38:\n        /* \"#utility.yul\":685:773   */\n      swap2\n      pop\n        /* \"#utility.yul\":501:779   */\n      pop\n        /* \"#utility.yul\":439:779   */\n      swap3\n      swap2\n      pop\n      pop\n      jump\t// out\n        /* \"#utility.yul\":785:924   */\n    tag_39:\n        /* \"#utility.yul\":831:836   */\n      0x00\n        /* \"#utility.yul\":869:875   */\n      dup2\n        /* \"#utility.yul\":856:876   */\n      calldataload\n        /* \"#utility.yul\":847:876   */\n      swap1\n      pop\n        /* \"#utility.yul\":885:918   */\n      tag_41\n        /* \"#utility.yul\":912:917   */\n      dup2\n        /* \"#utility.yul\":885:918   */\n      tag_42\n      jump\t// in\n    tag_41:\n        /* \"#utility.yul\":785:924   */\n      swap3\n      swap2\n      pop\n      pop\n      jump\t// out\n        /* \"#utility.yul\":930:1584   */\n    tag_12:\n        /* \"#utility.yul\":1008:1014   */\n      0x00\n        /* \"#utility.yul\":1016:1022   */\n      dup1\n        /* \"#utility.yul\":1065:1067   */\n      0x40\n        /* \"#utility.yul\":1053:1062   */\n      dup4\n        /* \"#utility.yul\":1044:1051   */\n      dup6\n        /* \"#utility.yul\":1040:1063   */\n      sub\n        /* \"#utility.yul\":1036:1068   */\n      slt\n        /* \"#utility.yul\":1033:1152   */\n      iszero\n      tag_44\n      jumpi\n        /* \"#utility.yul\":1071:1150   */\n      tag_45\n      tag_46\n      jump\t// in\n    tag_45:\n        /* \"#utility.yul\":1033:1152   */\n    tag_44:\n        /* \"#utility.yul\":1219:1220   */\n      0x00\n        /* \"#utility.yul\":1208:1217   */\n      dup4\n        /* \"#utility.yul\":1204:1221   */\n      add\n        /* \"#utility.yul\":1191:1222   */\n      calldataload\n        /* \"#utility.yul\":1249:1267   */\n      0xffffffffffffffff\n        /* \"#utility.yul\":1241:1247   */\n      dup2\n        /* \"#utility.yul\":1238:1268   */\n      gt\n        /* \"#utility.yul\":1235:1352   */\n      iszero\n      tag_47\n      jumpi\n        /* \"#utility.yul\":1271:1350   */\n      tag_48\n      tag_49\n      jump\t// in\n    tag_48:\n        /* \"#utility.yul\":1235:1352   */\n    tag_47:\n        /* \"#utility.yul\":1376:1439   */\n      tag_50\n        /* \"#utility.yul\":1431:1438   */\n      dup6\n        /* \"#utility.yul\":1422:1428   */\n      dup3\n        /* \"#utility.yul\":1411:1420   */\n      dup7\n        /* \"#utility.yul\":1407:1429   */\n      add\n        /* \"#utility.yul\":1376:1439   */\n      tag_33\n      jump\t// in\n    tag_50:\n        /* \"#utility.yul\":1366:1439   */\n      swap3\n      pop\n        /* \"#utility.yul\":1162:1449   */\n      pop\n        /* \"#utility.yul\":1488:1490   */\n      0x20\n        /* \"#utility.yul\":1514:1567   */\n      tag_51\n        /* \"#utility.yul\":1559:1566   */\n      dup6\n        /* \"#utility.yul\":1550:1556   */\n      dup3\n        /* \"#utility.yul\":1539:1548   */\n      dup7\n        /* \"#utility.yul\":1535:1557   */\n      add\n        /* \"#utility.yul\":1514:1567   */\n      tag_39\n      jump\t// in\n    tag_51:\n        /* \"#utility.yul\":1504:1567   */\n      swap2\n      pop\n        /* \"#utility.yul\":1459:1577   */\n      pop\n        /* \"#utility.yul\":930:1584   */\n      swap3\n      pop\n      swap3\n      swap1\n      pop\n      jump\t// out\n        /* \"#utility.yul\":1590:1919   */\n    tag_7:\n        /* \"#utility.yul\":1649:1655   */\n      0x00\n        /* \"#utility.yul\":1698:1700   */\n      0x20\n        /* \"#utility.yul\":1686:1695   */\n      dup3\n        /* \"#utility.yul\":1677:1684   */\n      dup5\n        /* \"#utility.yul\":1673:1696   */\n      sub\n        /* \"#utility.yul\":1669:1701   */\n      slt\n        /* \"#utility.yul\":1666:1785   */\n      iszero\n      tag_53\n      jumpi\n        /* \"#utility.yul\":1704:1783   */\n      tag_54\n      tag_46\n      jump\t// in\n    tag_54:\n        /* \"#utility.yul\":1666:1785   */\n    tag_53:\n        /* \"#utility.yul\":1824:1825   */\n      0x00\n        /* \"#utility.yul\":1849:1902   */\n      tag_55\n        /* \"#utility.yul\":1894:1901   */\n      dup5\n        /* \"#utility.yul\":1885:1891   */\n      dup3\n        /* \"#utility.yul\":1874:1883   */\n      dup6\n        /* \"#utility.yul\":1870:1892   */\n      add\n        /* \"#utility.yul\":1849:1902   */\n      tag_39\n      jump\t// in\n    tag_55:\n        /* \"#utility.yul\":1839:1902   */\n      swap2\n      pop\n        /* \"#utility.yul\":1795:1912   */\n      pop\n        /* \"#utility.yul\":1590:1919   */\n      swap3\n      swap2\n      pop\n      pop\n      jump\t// out\n        /* \"#utility.yul\":1925:2054   */\n    tag_27:\n        /* \"#utility.yul\":1959:1965   */\n      0x00\n        /* \"#utility.yul\":1986:2006   */\n      tag_57\n      tag_58\n      jump\t// in\n    tag_57:\n        /* \"#utility.yul\":1976:2006   */\n      swap1\n      pop\n        /* \"#utility.yul\":2015:2048   */\n      tag_59\n        /* \"#utility.yul\":2043:2047   */\n      dup3\n        /* \"#utility.yul\":2035:2041   */\n      dup3\n        /* \"#utility.yul\":2015:2048   */\n      tag_60\n      jump\t// in\n    tag_59:\n        /* \"#utility.yul\":1925:2054   */\n      swap2\n      swap1\n      pop\n      jump\t// out\n        /* \"#utility.yul\":2060:2135   */\n    tag_58:\n        /* \"#utility.yul\":2093:2099   */\n      0x00\n        /* \"#utility.yul\":2126:2128   */\n      0x40\n        /* \"#utility.yul\":2120:2129   */\n      mload\n        /* \"#utility.yul\":2110:2129   */\n      swap1\n      pop\n        /* \"#utility.yul\":2060:2135   */\n      swap1\n      jump\t// out\n        /* \"#utility.yul\":2141:2449   */\n    tag_26:\n        /* \"#utility.yul\":2203:2207   */\n      0x00\n        /* \"#utility.yul\":2293:2311   */\n      0xffffffffffffffff\n        /* \"#utility.yul\":2285:2291   */\n      dup3\n        /* \"#utility.yul\":2282:2312   */\n      gt\n        /* \"#utility.yul\":2279:2335   */\n      iszero\n      tag_63\n      jumpi\n        /* \"#utility.yul\":2315:2333   */\n      tag_64\n      tag_65\n      jump\t// in\n    tag_64:\n        /* \"#utility.yul\":2279:2335   */\n    tag_63:\n        /* \"#utility.yul\":2353:2382   */\n      tag_66\n        /* \"#utility.yul\":2375:2381   */\n      dup3\n        /* \"#utility.yul\":2353:2382   */\n      tag_67\n      jump\t// in\n    tag_66:\n        /* \"#utility.yul\":2345:2382   */\n      swap1\n      pop\n        /* \"#utility.yul\":2437:2441   */\n      0x20\n        /* \"#utility.yul\":2431:2435   */\n      dup2\n        /* \"#utility.yul\":2427:2442   */\n      add\n        /* \"#utility.yul\":2419:2442   */\n      swap1\n      pop\n        /* \"#utility.yul\":2141:2449   */\n      swap2\n      swap1\n      pop\n      jump\t// out\n        /* \"#utility.yul\":2455:2532   */\n    tag_68:\n        /* \"#utility.yul\":2492:2499   */\n      0x00\n        /* \"#utility.yul\":2521:2526   */\n      dup2\n        /* \"#utility.yul\":2510:2526   */\n      swap1\n      pop\n        /* \"#utility.yul\":2455:2532   */\n      swap2\n      swap1\n      pop\n      jump\t// out\n        /* \"#utility.yul\":2538:2692   */\n    tag_32:\n        /* \"#utility.yul\":2622:2628   */\n      dup3\n        /* \"#utility.yul\":2617:2620   */\n      dup2\n        /* \"#utility.yul\":2612:2615   */\n      dup4\n        /* \"#utility.yul\":2599:2629   */\n      calldatacopy\n        /* \"#utility.yul\":2684:2685   */\n      0x00\n        /* \"#utility.yul\":2675:2681   */\n      dup4\n        /* \"#utility.yul\":2670:2673   */\n      dup4\n        /* \"#utility.yul\":2666:2682   */\n      add\n        /* \"#utility.yul\":2659:2686   */\n      mstore\n        /* \"#utility.yul\":2538:2692   */\n      pop\n      pop\n      pop\n      jump\t// out\n        /* \"#utility.yul\":2698:2979   */\n    tag_60:\n        /* \"#utility.yul\":2781:2808   */\n      tag_72\n        /* \"#utility.yul\":2803:2807   */\n      dup3\n        /* \"#utility.yul\":2781:2808   */\n      tag_67\n      jump\t// in\n    tag_72:\n        /* \"#utility.yul\":2773:2779   */\n      dup2\n        /* \"#utility.yul\":2769:2809   */\n      add\n        /* \"#utility.yul\":2911:2917   */\n      dup2\n        /* \"#utility.yul\":2899:2909   */\n      dup2\n        /* \"#utility.yul\":2896:2918   */\n      lt\n        /* \"#utility.yul\":2875:2893   */\n      0xffffffffffffffff\n        /* \"#utility.yul\":2863:2873   */\n      dup3\n        /* \"#utility.yul\":2860:2894   */\n      gt\n        /* \"#utility.yul\":2857:2919   */\n      or\n        /* \"#utility.yul\":2854:2942   */\n      iszero\n      tag_73\n      jumpi\n        /* \"#utility.yul\":2922:2940   */\n      tag_74\n      tag_65\n      jump\t// in\n    tag_74:\n        /* \"#utility.yul\":2854:2942   */\n    tag_73:\n        /* \"#utility.yul\":2962:2972   */\n      dup1\n        /* \"#utility.yul\":2958:2960   */\n      0x40\n        /* \"#utility.yul\":2951:2973   */\n      mstore\n        /* \"#utility.yul\":2741:2979   */\n      pop\n        /* \"#utility.yul\":2698:2979   */\n      pop\n      pop\n      jump\t// out\n        /* \"#utility.yul\":2985:3165   */\n    tag_65:\n        /* \"#utility.yul\":3033:3110   */\n      0x4e487b7100000000000000000000000000000000000000000000000000000000\n        /* \"#utility.yul\":3030:3031   */\n      0x00\n        /* \"#utility.yul\":3023:3111   */\n      mstore\n        /* \"#utility.yul\":3130:3134   */\n      0x41\n        /* \"#utility.yul\":3127:3128   */\n      0x04\n        /* \"#utility.yul\":3120:3135   */\n      mstore\n        /* \"#utility.yul\":3154:3158   */\n      0x24\n        /* \"#utility.yul\":3151:3152   */\n      0x00\n        /* \"#utility.yul\":3144:3159   */\n      revert\n        /* \"#utility.yul\":3171:3288   */\n    tag_37:\n        /* \"#utility.yul\":3280:3281   */\n      0x00\n        /* \"#utility.yul\":3277:3278   */\n      dup1\n        /* \"#utility.yul\":3270:3282   */\n      revert\n        /* \"#utility.yul\":3294:3411   */\n    tag_30:\n        /* \"#utility.yul\":3403:3404   */\n      0x00\n        /* \"#utility.yul\":3400:3401   */\n      dup1\n        /* \"#utility.yul\":3393:3405   */\n      revert\n        /* \"#utility.yul\":3417:3534   */\n    tag_49:\n        /* \"#utility.yul\":3526:3527   */\n      0x00\n        /* \"#utility.yul\":3523:3524   */\n      dup1\n        /* \"#utility.yul\":3516:3528   */\n      revert\n        /* \"#utility.yul\":3540:3657   */\n    tag_46:\n        /* \"#utility.yul\":3649:3650   */\n      0x00\n        /* \"#utility.yul\":3646:3647   */\n      dup1\n        /* \"#utility.yul\":3639:3651   */\n      revert\n        /* \"#utility.yul\":3663:3765   */\n    tag_67:\n        /* \"#utility.yul\":3704:3710   */\n      0x00\n        /* \"#utility.yul\":3755:3757   */\n      0x1f\n        /* \"#utility.yul\":3751:3758   */\n      not\n        /* \"#utility.yul\":3746:3748   */\n      0x1f\n        /* \"#utility.yul\":3739:3744   */\n      dup4\n        /* \"#utility.yul\":3735:3749   */\n      add\n        /* \"#utility.yul\":3731:3759   */\n      and\n        /* \"#utility.yul\":3721:3759   */\n      swap1\n      pop\n        /* \"#utility.yul\":3663:3765   */\n      swap2\n      swap1\n      pop\n      jump\t// out\n        /* \"#utility.yul\":3771:3893   */\n    tag_42:\n        /* \"#utility.yul\":3844:3868   */\n      tag_82\n        /* \"#utility.yul\":3862:3867   */\n      dup2\n        /* \"#utility.yul\":3844:3868   */\n      tag_68\n      jump\t// in\n    tag_82:\n        /* \"#utility.yul\":3837:3842   */\n      dup2\n        /* \"#utility.yul\":3834:3869   */\n      eq\n        /* \"#utility.yul\":3824:3887   */\n      tag_83\n      jumpi\n        /* \"#utility.yul\":3883:3884   */\n      0x00\n        /* \"#utility.yul\":3880:3881   */\n      dup1\n        /* \"#utility.yul\":3873:3885   */\n      revert\n        /* \"#utility.yul\":3824:3887   */\n    tag_83:\n        /* \"#utility.yul\":3771:3893   */\n      pop\n      jump\t// out\n\n    auxdata: 0xa26469706673582212204b6c7b795cf6757a79a4855ee18fcdc4dfe535ea1b889329c95863bc300ce88864736f6c63430008070033\n}\n",
				"bytecode": {
					"linkReferences": {},
					"object": "608060405234801561001057600080fd5b50610300806100206000396000f3fe6080604052600436106100345760003560e01c8063800fb83f146100395780638c55174214610055578063cd31831e1461007e575b600080fd5b610053600480360381019061004e9190610192565b6100a7565b005b34801561006157600080fd5b5061007c60048036038101906100779190610136565b6100aa565b005b34801561008a57600080fd5b506100a560048036038101906100a09190610192565b6100ae565b005b50565b5050565b50565b60006100c46100bf846101e4565b6101bf565b9050828152602081018484840111156100e0576100df610293565b5b6100eb84828561021f565b509392505050565b600082601f8301126101085761010761028e565b5b81356101188482602086016100b1565b91505092915050565b600081359050610130816102b3565b92915050565b6000806040838503121561014d5761014c61029d565b5b600083013567ffffffffffffffff81111561016b5761016a610298565b5b610177858286016100f3565b925050602061018885828601610121565b9150509250929050565b6000602082840312156101a8576101a761029d565b5b60006101b684828501610121565b91505092915050565b60006101c96101da565b90506101d5828261022e565b919050565b6000604051905090565b600067ffffffffffffffff8211156101ff576101fe61025f565b5b610208826102a2565b9050602081019050919050565b6000819050919050565b82818337600083830152505050565b610237826102a2565b810181811067ffffffffffffffff821117156102565761025561025f565b5b80604052505050565b7f4e487b7100000000000000000000000000000000000000000000000000000000600052604160045260246000fd5b600080fd5b600080fd5b600080fd5b600080fd5b6000601f19601f8301169050919050565b6102bc81610215565b81146102c757600080fd5b5056fea26469706673582212204b6c7b795cf6757a79a4855ee18fcdc4dfe535ea1b889329c95863bc300ce88864736f6c63430008070033",
					"opcodes": "PUSH1 0x80 PUSH1 0x40 MSTORE CALLVALUE DUP1 ISZERO PUSH2 0x10 JUMPI PUSH1 0x0 DUP1 REVERT JUMPDEST POP PUSH2 0x300 DUP1 PUSH2 0x20 PUSH1 0x0 CODECOPY PUSH1 0x0 RETURN INVALID PUSH1 0x80 PUSH1 0x40 MSTORE PUSH1 0x4 CALLDATASIZE LT PUSH2 0x34 JUMPI PUSH1 0x0 CALLDATALOAD PUSH1 0xE0 SHR DUP1 PUSH4 0x800FB83F EQ PUSH2 0x39 JUMPI DUP1 PUSH4 0x8C551742 EQ PUSH2 0x55 JUMPI DUP1 PUSH4 0xCD31831E EQ PUSH2 0x7E JUMPI JUMPDEST PUSH1 0x0 DUP1 REVERT JUMPDEST PUSH2 0x53 PUSH1 0x4 DUP1 CALLDATASIZE SUB DUP2 ADD SWAP1 PUSH2 0x4E SWAP2 SWAP1 PUSH2 0x192 JUMP JUMPDEST PUSH2 0xA7 JUMP JUMPDEST STOP JUMPDEST CALLVALUE DUP1 ISZERO PUSH2 0x61 JUMPI PUSH1 0x0 DUP1 REVERT JUMPDEST POP PUSH2 0x7C PUSH1 0x4 DUP1 CALLDATASIZE SUB DUP2 ADD SWAP1 PUSH2 0x77 SWAP2 SWAP1 PUSH2 0x136 JUMP JUMPDEST PUSH2 0xAA JUMP JUMPDEST STOP JUMPDEST CALLVALUE DUP1 ISZERO PUSH2 0x8A JUMPI PUSH1 0x0 DUP1 REVERT JUMPDEST POP PUSH2 0xA5 PUSH1 0x4 DUP1 CALLDATASIZE SUB DUP2 ADD SWAP1 PUSH2 0xA0 SWAP2 SWAP1 PUSH2 0x192 JUMP JUMPDEST PUSH2 0xAE JUMP JUMPDEST STOP JUMPDEST POP JUMP JUMPDEST POP POP JUMP JUMPDEST POP JUMP JUMPDEST PUSH1 0x0 PUSH2 0xC4 PUSH2 0xBF DUP5 PUSH2 0x1E4 JUMP JUMPDEST PUSH2 0x1BF JUMP JUMPDEST SWAP1 POP DUP3 DUP2 MSTORE PUSH1 0x20 DUP2 ADD DUP5 DUP5 DUP5 ADD GT ISZERO PUSH2 0xE0 JUMPI PUSH2 0xDF PUSH2 0x293 JUMP JUMPDEST JUMPDEST PUSH2 0xEB DUP5 DUP3 DUP6 PUSH2 0x21F JUMP JUMPDEST POP SWAP4 SWAP3 POP POP POP JUMP JUMPDEST PUSH1 0x0 DUP3 PUSH1 0x1F DUP4 ADD SLT PUSH2 0x108 JUMPI PUSH2 0x107 PUSH2 0x28E JUMP JUMPDEST JUMPDEST DUP2 CALLDATALOAD PUSH2 0x118 DUP5 DUP3 PUSH1 0x20 DUP7 ADD PUSH2 0xB1 JUMP JUMPDEST SWAP2 POP POP SWAP3 SWAP2 POP POP JUMP JUMPDEST PUSH1 0x0 DUP2 CALLDATALOAD SWAP1 POP PUSH2 0x130 DUP2 PUSH2 0x2B3 JUMP JUMPDEST SWAP3 SWAP2 POP POP JUMP JUMPDEST PUSH1 0x0 DUP1 PUSH1 0x40 DUP4 DUP6 SUB SLT ISZERO PUSH2 0x14D JUMPI PUSH2 0x14C PUSH2 0x29D JUMP JUMPDEST JUMPDEST PUSH1 0x0 DUP4 ADD CALLDATALOAD PUSH8 0xFFFFFFFFFFFFFFFF DUP2 GT ISZERO PUSH2 0x16B JUMPI PUSH2 0x16A PUSH2 0x298 JUMP JUMPDEST JUMPDEST PUSH2 0x177 DUP6 DUP3 DUP7 ADD PUSH2 0xF3 JUMP JUMPDEST SWAP3 POP POP PUSH1 0x20 PUSH2 0x188 DUP6 DUP3 DUP7 ADD PUSH2 0x121 JUMP JUMPDEST SWAP2 POP POP SWAP3 POP SWAP3 SWAP1 POP JUMP JUMPDEST PUSH1 0x0 PUSH1 0x20 DUP3 DUP5 SUB SLT ISZERO PUSH2 0x1A8 JUMPI PUSH2 0x1A7 PUSH2 0x29D JUMP JUMPDEST JUMPDEST PUSH1 0x0 PUSH2 0x1B6 DUP5 DUP3 DUP6 ADD PUSH2 0x121 JUMP JUMPDEST SWAP2 POP POP SWAP3 SWAP2 POP POP JUMP JUMPDEST PUSH1 0x0 PUSH2 0x1C9 PUSH2 0x1DA JUMP JUMPDEST SWAP1 POP PUSH2 0x1D5 DUP3 DUP3 PUSH2 0x22E JUMP JUMPDEST SWAP2 SWAP1 POP JUMP JUMPDEST PUSH1 0x0 PUSH1 0x40 MLOAD SWAP1 POP SWAP1 JUMP JUMPDEST PUSH1 0x0 PUSH8 0xFFFFFFFFFFFFFFFF DUP3 GT ISZERO PUSH2 0x1FF JUMPI PUSH2 0x1FE PUSH2 0x25F JUMP JUMPDEST JUMPDEST PUSH2 0x208 DUP3 PUSH2 0x2A2 JUMP JUMPDEST SWAP1 POP PUSH1 0x20 DUP2 ADD SWAP1 POP SWAP2 SWAP1 POP JUMP JUMPDEST PUSH1 0x0 DUP2 SWAP1 POP SWAP2 SWAP1 POP JUMP JUMPDEST DUP3 DUP2 DUP4 CALLDATACOPY PUSH1 0x0 DUP4 DUP4 ADD MSTORE POP POP POP JUMP JUMPDEST PUSH2 0x237 DUP3 PUSH2 0x2A2 JUMP JUMPDEST DUP2 ADD DUP2 DUP2 LT PUSH8 0xFFFFFFFFFFFFFFFF DUP3 GT OR ISZERO PUSH2 0x256 JUMPI PUSH2 0x255 PUSH2 0x25F JUMP JUMPDEST JUMPDEST DUP1 PUSH1 0x40 MSTORE POP POP POP JUMP JUMPDEST PUSH32 0x4E487B7100000000000000000000000000000000000000000000000000000000 PUSH1 0x0 MSTORE PUSH1 0x41 PUSH1 0x4 MSTORE PUSH1 0x24 PUSH1 0x0 REVERT JUMPDEST PUSH1 0x0 DUP1 REVERT JUMPDEST PUSH1 0x0 DUP1 REVERT JUMPDEST PUSH1 0x0 DUP1 REVERT JUMPDEST PUSH1 0x0 DUP1 REVERT JUMPDEST PUSH1 0x0 PUSH1 0x1F NOT PUSH1 0x1F DUP4 ADD AND SWAP1 POP SWAP2 SWAP1 POP JUMP JUMPDEST PUSH2 0x2BC DUP2 PUSH2 0x215 JUMP JUMPDEST DUP2 EQ PUSH2 0x2C7 JUMPI PUSH1 0x0 DUP1 REVERT JUMPDEST POP JUMP INVALID LOG2 PUSH5 0x6970667358 0x22 SLT KECCAK256 0x4B PUSH13 0x7B795CF6757A79A4855EE18FCD 0xC4 0xDF 0xE5 CALLDATALOAD 0xEA SHL DUP9 SWAP4 0x29 0xC9 PC PUSH4 0xBC300CE8 DUP9 PUSH5 0x736F6C6343 STOP ADDMOD SMOD STOP CALLER "
				},
				"gasEstimates": {
					"creation": {
						"codeDepositCost": "153600",
						"executionCost": "196",
						"totalCost": "153796"
					},
					"external": {
						"createItem(string,uint256)": "infinite",
						"triggerDelivery(uint256)": "428",
						"triggerPayment(uint256)": "360"
					}
				},
				"methodIdentifiers": {
					"createItem(string,uint256)": "8c551742",
					"triggerDelivery(uint256)": "cd31831e",
					"triggerPayment(uint256)": "800fb83f"
				}
			},
			"storageLayout": {
				"storage": [],
				"types": null
			},
			"userdoc": {
				"kind": "user",
				"methods": {},
				"version": 1
			}
		}
	}
}