{
	"StartingStopping.sol": {
		"StartStopUpdateExample": {
			"abi": [
				{
					"inputs": [],
					"stateMutability": "nonpayable",
					"type": "constructor"
				},
				{
					"inputs": [],
					"name": "SendMoney",
					"outputs": [],
					"stateMutability": "payable",
					"type": "function"
				},
				{
					"inputs": [
						{
							"internalType": "address payable",
							"name": "_to",
							"type": "address"
						}
					],
					"name": "WithdrawMoney",
					"outputs": [],
					"stateMutability": "nonpayable",
					"type": "function"
				},
				{
					"inputs": [],
					"name": "owner",
					"outputs": [
						{
							"internalType": "address",
							"name": "",
							"type": "address"
						}
					],
					"stateMutability": "view",
					"type": "function"
				},
				{
					"inputs": [],
					"name": "paused",
					"outputs": [
						{
							"internalType": "bool",
							"name": "",
							"type": "bool"
						}
					],
					"stateMutability": "view",
					"type": "function"
				},
				{
					"inputs": [
						{
							"internalType": "bool",
							"name": "_paused",
							"type": "bool"
						}
					],
					"name": "setPaused",
					"outputs": [],
					"stateMutability": "nonpayable",
					"type": "function"
				}
			],
			"devdoc": {
				"kind": "dev",
				"methods": {},
				"version": 1
			},
			"evm": {
				"assembly": "    /* \"StartingStopping.sol\":25:477  contract StartStopUpdateExample{\r... */\n  mstore(0x40, 0x80)\n    /* \"StartingStopping.sol\":117:178  constructor (){\r... */\n  callvalue\n  dup1\n  iszero\n  tag_1\n  jumpi\n  0x00\n  dup1\n  revert\ntag_1:\n  pop\n    /* \"StartingStopping.sol\":150:160  msg.sender */\n  caller\n    /* \"StartingStopping.sol\":142:147  owner */\n  0x00\n  dup1\n    /* \"StartingStopping.sol\":142:160  owner = msg.sender */\n  0x0100\n  exp\n  dup2\n  sload\n  dup2\n  0xffffffffffffffffffffffffffffffffffffffff\n  mul\n  not\n  and\n  swap1\n  dup4\n  0xffffffffffffffffffffffffffffffffffffffff\n  and\n  mul\n  or\n  swap1\n  sstore\n  pop\n    /* \"StartingStopping.sol\":25:477  contract StartStopUpdateExample{\r... */\n  dataSize(sub_0)\n  dup1\n  dataOffset(sub_0)\n  0x00\n  codecopy\n  0x00\n  return\nstop\n\nsub_0: assembly {\n        /* \"StartingStopping.sol\":25:477  contract StartStopUpdateExample{\r... */\n      mstore(0x40, 0x80)\n      jumpi(tag_1, lt(calldatasize, 0x04))\n      shr(0xe0, calldataload(0x00))\n      dup1\n      0x05737314\n      eq\n      tag_2\n      jumpi\n      dup1\n      0x16c38b3c\n      eq\n      tag_3\n      jumpi\n      dup1\n      0x5c975abb\n      eq\n      tag_4\n      jumpi\n      dup1\n      0x8da5cb5b\n      eq\n      tag_5\n      jumpi\n      dup1\n      0xcf0ac9d0\n      eq\n      tag_6\n      jumpi\n    tag_1:\n      0x00\n      dup1\n      revert\n        /* \"StartingStopping.sol\":186:232  function SendMoney() public payable {\r... */\n    tag_2:\n      tag_7\n      tag_8\n      jump\t// in\n    tag_7:\n      stop\n        /* \"StartingStopping.sol\":238:296  function setPaused(bool _paused) public {\r... */\n    tag_3:\n      callvalue\n      dup1\n      iszero\n      tag_9\n      jumpi\n      0x00\n      dup1\n      revert\n    tag_9:\n      pop\n      tag_10\n      0x04\n      dup1\n      calldatasize\n      sub\n      dup2\n      add\n      swap1\n      tag_11\n      swap2\n      swap1\n      tag_12\n      jump\t// in\n    tag_11:\n      tag_13\n      jump\t// in\n    tag_10:\n      stop\n        /* \"StartingStopping.sol\":92:110  bool public paused */\n    tag_4:\n      callvalue\n      dup1\n      iszero\n      tag_14\n      jumpi\n      0x00\n      dup1\n      revert\n    tag_14:\n      pop\n      tag_15\n      tag_16\n      jump\t// in\n    tag_15:\n      mload(0x40)\n      tag_17\n      swap2\n      swap1\n      tag_18\n      jump\t// in\n    tag_17:\n      mload(0x40)\n      dup1\n      swap2\n      sub\n      swap1\n      return\n        /* \"StartingStopping.sol\":65:85  address public owner */\n    tag_5:\n      callvalue\n      dup1\n      iszero\n      tag_19\n      jumpi\n      0x00\n      dup1\n      revert\n    tag_19:\n      pop\n      tag_20\n      tag_21\n      jump\t// in\n    tag_20:\n      mload(0x40)\n      tag_22\n      swap2\n      swap1\n      tag_23\n      jump\t// in\n    tag_22:\n      mload(0x40)\n      dup1\n      swap2\n      sub\n      swap1\n      return\n        /* \"StartingStopping.sol\":302:472  function WithdrawMoney(address payable _to)public {\r... */\n    tag_6:\n      callvalue\n      dup1\n      iszero\n      tag_24\n      jumpi\n      0x00\n      dup1\n      revert\n    tag_24:\n      pop\n      tag_25\n      0x04\n      dup1\n      calldatasize\n      sub\n      dup2\n      add\n      swap1\n      tag_26\n      swap2\n      swap1\n      tag_27\n      jump\t// in\n    tag_26:\n      tag_28\n      jump\t// in\n    tag_25:\n      stop\n        /* \"StartingStopping.sol\":186:232  function SendMoney() public payable {\r... */\n    tag_8:\n      jump\t// out\n        /* \"StartingStopping.sol\":238:296  function setPaused(bool _paused) public {\r... */\n    tag_13:\n      pop\n      jump\t// out\n        /* \"StartingStopping.sol\":92:110  bool public paused */\n    tag_16:\n      0x00\n      0x14\n      swap1\n      sload\n      swap1\n      0x0100\n      exp\n      swap1\n      div\n      0xff\n      and\n      dup2\n      jump\t// out\n        /* \"StartingStopping.sol\":65:85  address public owner */\n    tag_21:\n      0x00\n      dup1\n      sload\n      swap1\n      0x0100\n      exp\n      swap1\n      div\n      0xffffffffffffffffffffffffffffffffffffffff\n      and\n      dup2\n      jump\t// out\n        /* \"StartingStopping.sol\":302:472  function WithdrawMoney(address payable _to)public {\r... */\n    tag_28:\n        /* \"StartingStopping.sol\":380:390  msg.sender */\n      caller\n        /* \"StartingStopping.sol\":371:390  owner == msg.sender */\n      0xffffffffffffffffffffffffffffffffffffffff\n      and\n        /* \"StartingStopping.sol\":371:376  owner */\n      0x00\n      dup1\n      sload\n      swap1\n      0x0100\n      exp\n      swap1\n      div\n      0xffffffffffffffffffffffffffffffffffffffff\n      and\n        /* \"StartingStopping.sol\":371:390  owner == msg.sender */\n      0xffffffffffffffffffffffffffffffffffffffff\n      and\n      eq\n        /* \"StartingStopping.sol\":363:415  require(owner == msg.sender, \"You Cannot Withdraw.\") */\n      tag_32\n      jumpi\n      mload(0x40)\n      0x08c379a000000000000000000000000000000000000000000000000000000000\n      dup2\n      mstore\n      0x04\n      add\n      tag_33\n      swap1\n      tag_34\n      jump\t// in\n    tag_33:\n      mload(0x40)\n      dup1\n      swap2\n      sub\n      swap1\n      revert\n    tag_32:\n        /* \"StartingStopping.sol\":426:429  _to */\n      dup1\n        /* \"StartingStopping.sol\":426:438  _to.transfer */\n      0xffffffffffffffffffffffffffffffffffffffff\n      and\n        /* \"StartingStopping.sol\":426:462  _to.transfer (address(this).balance) */\n      0x08fc\n        /* \"StartingStopping.sol\":440:461  address(this).balance */\n      selfbalance\n        /* \"StartingStopping.sol\":426:462  _to.transfer (address(this).balance) */\n      swap1\n      dup2\n      iszero\n      mul\n      swap1\n      mload(0x40)\n      0x00\n      mload(0x40)\n      dup1\n      dup4\n      sub\n      dup2\n      dup6\n      dup9\n      dup9\n      call\n      swap4\n      pop\n      pop\n      pop\n      pop\n      iszero\n      dup1\n      iszero\n      tag_36\n      jumpi\n      returndatasize\n      0x00\n      dup1\n      returndatacopy\n      revert(0x00, returndatasize)\n    tag_36:\n      pop\n        /* \"StartingStopping.sol\":302:472  function WithdrawMoney(address payable _to)public {\r... */\n      pop\n      jump\t// out\n        /* \"#utility.yul\":7:162   */\n    tag_38:\n        /* \"#utility.yul\":61:66   */\n      0x00\n        /* \"#utility.yul\":99:105   */\n      dup2\n        /* \"#utility.yul\":86:106   */\n      calldataload\n        /* \"#utility.yul\":77:106   */\n      swap1\n      pop\n        /* \"#utility.yul\":115:156   */\n      tag_40\n        /* \"#utility.yul\":150:155   */\n      dup2\n        /* \"#utility.yul\":115:156   */\n      tag_41\n      jump\t// in\n    tag_40:\n        /* \"#utility.yul\":7:162   */\n      swap3\n      swap2\n      pop\n      pop\n      jump\t// out\n        /* \"#utility.yul\":168:301   */\n    tag_42:\n        /* \"#utility.yul\":211:216   */\n      0x00\n        /* \"#utility.yul\":249:255   */\n      dup2\n        /* \"#utility.yul\":236:256   */\n      calldataload\n        /* \"#utility.yul\":227:256   */\n      swap1\n      pop\n        /* \"#utility.yul\":265:295   */\n      tag_44\n        /* \"#utility.yul\":289:294   */\n      dup2\n        /* \"#utility.yul\":265:295   */\n      tag_45\n      jump\t// in\n    tag_44:\n        /* \"#utility.yul\":168:301   */\n      swap3\n      swap2\n      pop\n      pop\n      jump\t// out\n        /* \"#utility.yul\":307:652   */\n    tag_27:\n        /* \"#utility.yul\":374:380   */\n      0x00\n        /* \"#utility.yul\":423:425   */\n      0x20\n        /* \"#utility.yul\":411:420   */\n      dup3\n        /* \"#utility.yul\":402:409   */\n      dup5\n        /* \"#utility.yul\":398:421   */\n      sub\n        /* \"#utility.yul\":394:426   */\n      slt\n        /* \"#utility.yul\":391:510   */\n      iszero\n      tag_47\n      jumpi\n        /* \"#utility.yul\":429:508   */\n      tag_48\n      tag_49\n      jump\t// in\n    tag_48:\n        /* \"#utility.yul\":391:510   */\n    tag_47:\n        /* \"#utility.yul\":549:550   */\n      0x00\n        /* \"#utility.yul\":574:635   */\n      tag_50\n        /* \"#utility.yul\":627:634   */\n      dup5\n        /* \"#utility.yul\":618:624   */\n      dup3\n        /* \"#utility.yul\":607:616   */\n      dup6\n        /* \"#utility.yul\":603:625   */\n      add\n        /* \"#utility.yul\":574:635   */\n      tag_38\n      jump\t// in\n    tag_50:\n        /* \"#utility.yul\":564:635   */\n      swap2\n      pop\n        /* \"#utility.yul\":520:645   */\n      pop\n        /* \"#utility.yul\":307:652   */\n      swap3\n      swap2\n      pop\n      pop\n      jump\t// out\n        /* \"#utility.yul\":658:981   */\n    tag_12:\n        /* \"#utility.yul\":714:720   */\n      0x00\n        /* \"#utility.yul\":763:765   */\n      0x20\n        /* \"#utility.yul\":751:760   */\n      dup3\n        /* \"#utility.yul\":742:749   */\n      dup5\n        /* \"#utility.yul\":738:761   */\n      sub\n        /* \"#utility.yul\":734:766   */\n      slt\n        /* \"#utility.yul\":731:850   */\n      iszero\n      tag_52\n      jumpi\n        /* \"#utility.yul\":769:848   */\n      tag_53\n      tag_49\n      jump\t// in\n    tag_53:\n        /* \"#utility.yul\":731:850   */\n    tag_52:\n        /* \"#utility.yul\":889:890   */\n      0x00\n        /* \"#utility.yul\":914:964   */\n      tag_54\n        /* \"#utility.yul\":956:963   */\n      dup5\n        /* \"#utility.yul\":947:953   */\n      dup3\n        /* \"#utility.yul\":936:945   */\n      dup6\n        /* \"#utility.yul\":932:954   */\n      add\n        /* \"#utility.yul\":914:964   */\n      tag_42\n      jump\t// in\n    tag_54:\n        /* \"#utility.yul\":904:964   */\n      swap2\n      pop\n        /* \"#utility.yul\":860:974   */\n      pop\n        /* \"#utility.yul\":658:981   */\n      swap3\n      swap2\n      pop\n      pop\n      jump\t// out\n        /* \"#utility.yul\":987:1105   */\n    tag_55:\n        /* \"#utility.yul\":1074:1098   */\n      tag_57\n        /* \"#utility.yul\":1092:1097   */\n      dup2\n        /* \"#utility.yul\":1074:1098   */\n      tag_58\n      jump\t// in\n    tag_57:\n        /* \"#utility.yul\":1069:1072   */\n      dup3\n        /* \"#utility.yul\":1062:1099   */\n      mstore\n        /* \"#utility.yul\":987:1105   */\n      pop\n      pop\n      jump\t// out\n        /* \"#utility.yul\":1111:1220   */\n    tag_59:\n        /* \"#utility.yul\":1192:1213   */\n      tag_61\n        /* \"#utility.yul\":1207:1212   */\n      dup2\n        /* \"#utility.yul\":1192:1213   */\n      tag_62\n      jump\t// in\n    tag_61:\n        /* \"#utility.yul\":1187:1190   */\n      dup3\n        /* \"#utility.yul\":1180:1214   */\n      mstore\n        /* \"#utility.yul\":1111:1220   */\n      pop\n      pop\n      jump\t// out\n        /* \"#utility.yul\":1226:1592   */\n    tag_63:\n        /* \"#utility.yul\":1368:1371   */\n      0x00\n        /* \"#utility.yul\":1389:1456   */\n      tag_65\n        /* \"#utility.yul\":1453:1455   */\n      0x14\n        /* \"#utility.yul\":1448:1451   */\n      dup4\n        /* \"#utility.yul\":1389:1456   */\n      tag_66\n      jump\t// in\n    tag_65:\n        /* \"#utility.yul\":1382:1456   */\n      swap2\n      pop\n        /* \"#utility.yul\":1465:1558   */\n      tag_67\n        /* \"#utility.yul\":1554:1557   */\n      dup3\n        /* \"#utility.yul\":1465:1558   */\n      tag_68\n      jump\t// in\n    tag_67:\n        /* \"#utility.yul\":1583:1585   */\n      0x20\n        /* \"#utility.yul\":1578:1581   */\n      dup3\n        /* \"#utility.yul\":1574:1586   */\n      add\n        /* \"#utility.yul\":1567:1586   */\n      swap1\n      pop\n        /* \"#utility.yul\":1226:1592   */\n      swap2\n      swap1\n      pop\n      jump\t// out\n        /* \"#utility.yul\":1598:1820   */\n    tag_23:\n        /* \"#utility.yul\":1691:1695   */\n      0x00\n        /* \"#utility.yul\":1729:1731   */\n      0x20\n        /* \"#utility.yul\":1718:1727   */\n      dup3\n        /* \"#utility.yul\":1714:1732   */\n      add\n        /* \"#utility.yul\":1706:1732   */\n      swap1\n      pop\n        /* \"#utility.yul\":1742:1813   */\n      tag_70\n        /* \"#utility.yul\":1810:1811   */\n      0x00\n        /* \"#utility.yul\":1799:1808   */\n      dup4\n        /* \"#utility.yul\":1795:1812   */\n      add\n        /* \"#utility.yul\":1786:1792   */\n      dup5\n        /* \"#utility.yul\":1742:1813   */\n      tag_55\n      jump\t// in\n    tag_70:\n        /* \"#utility.yul\":1598:1820   */\n      swap3\n      swap2\n      pop\n      pop\n      jump\t// out\n        /* \"#utility.yul\":1826:2036   */\n    tag_18:\n        /* \"#utility.yul\":1913:1917   */\n      0x00\n        /* \"#utility.yul\":1951:1953   */\n      0x20\n        /* \"#utility.yul\":1940:1949   */\n      dup3\n        /* \"#utility.yul\":1936:1954   */\n      add\n        /* \"#utility.yul\":1928:1954   */\n      swap1\n      pop\n        /* \"#utility.yul\":1964:2029   */\n      tag_72\n        /* \"#utility.yul\":2026:2027   */\n      0x00\n        /* \"#utility.yul\":2015:2024   */\n      dup4\n        /* \"#utility.yul\":2011:2028   */\n      add\n        /* \"#utility.yul\":2002:2008   */\n      dup5\n        /* \"#utility.yul\":1964:2029   */\n      tag_59\n      jump\t// in\n    tag_72:\n        /* \"#utility.yul\":1826:2036   */\n      swap3\n      swap2\n      pop\n      pop\n      jump\t// out\n        /* \"#utility.yul\":2042:2461   */\n    tag_34:\n        /* \"#utility.yul\":2208:2212   */\n      0x00\n        /* \"#utility.yul\":2246:2248   */\n      0x20\n        /* \"#utility.yul\":2235:2244   */\n      dup3\n        /* \"#utility.yul\":2231:2249   */\n      add\n        /* \"#utility.yul\":2223:2249   */\n      swap1\n      pop\n        /* \"#utility.yul\":2295:2304   */\n      dup2\n        /* \"#utility.yul\":2289:2293   */\n      dup2\n        /* \"#utility.yul\":2285:2305   */\n      sub\n        /* \"#utility.yul\":2281:2282   */\n      0x00\n        /* \"#utility.yul\":2270:2279   */\n      dup4\n        /* \"#utility.yul\":2266:2283   */\n      add\n        /* \"#utility.yul\":2259:2306   */\n      mstore\n        /* \"#utility.yul\":2323:2454   */\n      tag_74\n        /* \"#utility.yul\":2449:2453   */\n      dup2\n        /* \"#utility.yul\":2323:2454   */\n      tag_63\n      jump\t// in\n    tag_74:\n        /* \"#utility.yul\":2315:2454   */\n      swap1\n      pop\n        /* \"#utility.yul\":2042:2461   */\n      swap2\n      swap1\n      pop\n      jump\t// out\n        /* \"#utility.yul\":2548:2717   */\n    tag_66:\n        /* \"#utility.yul\":2632:2643   */\n      0x00\n        /* \"#utility.yul\":2666:2672   */\n      dup3\n        /* \"#utility.yul\":2661:2664   */\n      dup3\n        /* \"#utility.yul\":2654:2673   */\n      mstore\n        /* \"#utility.yul\":2706:2710   */\n      0x20\n        /* \"#utility.yul\":2701:2704   */\n      dup3\n        /* \"#utility.yul\":2697:2711   */\n      add\n        /* \"#utility.yul\":2682:2711   */\n      swap1\n      pop\n        /* \"#utility.yul\":2548:2717   */\n      swap3\n      swap2\n      pop\n      pop\n      jump\t// out\n        /* \"#utility.yul\":2723:2819   */\n    tag_58:\n        /* \"#utility.yul\":2760:2767   */\n      0x00\n        /* \"#utility.yul\":2789:2813   */\n      tag_79\n        /* \"#utility.yul\":2807:2812   */\n      dup3\n        /* \"#utility.yul\":2789:2813   */\n      tag_80\n      jump\t// in\n    tag_79:\n        /* \"#utility.yul\":2778:2813   */\n      swap1\n      pop\n        /* \"#utility.yul\":2723:2819   */\n      swap2\n      swap1\n      pop\n      jump\t// out\n        /* \"#utility.yul\":2825:2929   */\n    tag_81:\n        /* \"#utility.yul\":2870:2877   */\n      0x00\n        /* \"#utility.yul\":2899:2923   */\n      tag_83\n        /* \"#utility.yul\":2917:2922   */\n      dup3\n        /* \"#utility.yul\":2899:2923   */\n      tag_80\n      jump\t// in\n    tag_83:\n        /* \"#utility.yul\":2888:2923   */\n      swap1\n      pop\n        /* \"#utility.yul\":2825:2929   */\n      swap2\n      swap1\n      pop\n      jump\t// out\n        /* \"#utility.yul\":2935:3025   */\n    tag_62:\n        /* \"#utility.yul\":2969:2976   */\n      0x00\n        /* \"#utility.yul\":3012:3017   */\n      dup2\n        /* \"#utility.yul\":3005:3018   */\n      iszero\n        /* \"#utility.yul\":2998:3019   */\n      iszero\n        /* \"#utility.yul\":2987:3019   */\n      swap1\n      pop\n        /* \"#utility.yul\":2935:3025   */\n      swap2\n      swap1\n      pop\n      jump\t// out\n        /* \"#utility.yul\":3031:3157   */\n    tag_80:\n        /* \"#utility.yul\":3068:3075   */\n      0x00\n        /* \"#utility.yul\":3108:3150   */\n      0xffffffffffffffffffffffffffffffffffffffff\n        /* \"#utility.yul\":3101:3106   */\n      dup3\n        /* \"#utility.yul\":3097:3151   */\n      and\n        /* \"#utility.yul\":3086:3151   */\n      swap1\n      pop\n        /* \"#utility.yul\":3031:3157   */\n      swap2\n      swap1\n      pop\n      jump\t// out\n        /* \"#utility.yul\":3286:3403   */\n    tag_49:\n        /* \"#utility.yul\":3395:3396   */\n      0x00\n        /* \"#utility.yul\":3392:3393   */\n      dup1\n        /* \"#utility.yul\":3385:3397   */\n      revert\n        /* \"#utility.yul\":3409:3579   */\n    tag_68:\n        /* \"#utility.yul\":3549:3571   */\n      0x596f752043616e6e6f742057697468647261772e000000000000000000000000\n        /* \"#utility.yul\":3545:3546   */\n      0x00\n        /* \"#utility.yul\":3537:3543   */\n      dup3\n        /* \"#utility.yul\":3533:3547   */\n      add\n        /* \"#utility.yul\":3526:3572   */\n      mstore\n        /* \"#utility.yul\":3409:3579   */\n      pop\n      jump\t// out\n        /* \"#utility.yul\":3585:3723   */\n    tag_41:\n        /* \"#utility.yul\":3666:3698   */\n      tag_91\n        /* \"#utility.yul\":3692:3697   */\n      dup2\n        /* \"#utility.yul\":3666:3698   */\n      tag_81\n      jump\t// in\n    tag_91:\n        /* \"#utility.yul\":3659:3664   */\n      dup2\n        /* \"#utility.yul\":3656:3699   */\n      eq\n        /* \"#utility.yul\":3646:3717   */\n      tag_92\n      jumpi\n        /* \"#utility.yul\":3713:3714   */\n      0x00\n        /* \"#utility.yul\":3710:3711   */\n      dup1\n        /* \"#utility.yul\":3703:3715   */\n      revert\n        /* \"#utility.yul\":3646:3717   */\n    tag_92:\n        /* \"#utility.yul\":3585:3723   */\n      pop\n      jump\t// out\n        /* \"#utility.yul\":3729:3845   */\n    tag_45:\n        /* \"#utility.yul\":3799:3820   */\n      tag_94\n        /* \"#utility.yul\":3814:3819   */\n      dup2\n        /* \"#utility.yul\":3799:3820   */\n      tag_62\n      jump\t// in\n    tag_94:\n        /* \"#utility.yul\":3792:3797   */\n      dup2\n        /* \"#utility.yul\":3789:3821   */\n      eq\n        /* \"#utility.yul\":3779:3839   */\n      tag_95\n      jumpi\n        /* \"#utility.yul\":3835:3836   */\n      0x00\n        /* \"#utility.yul\":3832:3833   */\n      dup1\n        /* \"#utility.yul\":3825:3837   */\n      revert\n        /* \"#utility.yul\":3779:3839   */\n    tag_95:\n        /* \"#utility.yul\":3729:3845   */\n      pop\n      jump\t// out\n\n    auxdata: 0xa26469706673582212207c8acc247a07d6efbaaa2d7fe1071e8bf18bb4b3a7a270827f5b64499a1f095864736f6c63430008070033\n}\n",
				"bytecode": {
					"linkReferences": {},
					"object": "608060405234801561001057600080fd5b50336000806101000a81548173ffffffffffffffffffffffffffffffffffffffff021916908373ffffffffffffffffffffffffffffffffffffffff160217905550610423806100606000396000f3fe60806040526004361061004a5760003560e01c8063057373141461004f57806316c38b3c146100595780635c975abb146100825780638da5cb5b146100ad578063cf0ac9d0146100d8575b600080fd5b610057610101565b005b34801561006557600080fd5b50610080600480360381019061007b919061026c565b610103565b005b34801561008e57600080fd5b50610097610106565b6040516100a491906102f5565b60405180910390f35b3480156100b957600080fd5b506100c2610119565b6040516100cf91906102da565b60405180910390f35b3480156100e457600080fd5b506100ff60048036038101906100fa919061023f565b61013d565b005b565b50565b600060149054906101000a900460ff1681565b60008054906101000a900473ffffffffffffffffffffffffffffffffffffffff1681565b3373ffffffffffffffffffffffffffffffffffffffff1660008054906101000a900473ffffffffffffffffffffffffffffffffffffffff1673ffffffffffffffffffffffffffffffffffffffff16146101cb576040517f08c379a00000000000000000000000000000000000000000000000000000000081526004016101c290610310565b60405180910390fd5b8073ffffffffffffffffffffffffffffffffffffffff166108fc479081150290604051600060405180830381858888f19350505050158015610211573d6000803e3d6000fd5b5050565b600081359050610224816103bf565b92915050565b600081359050610239816103d6565b92915050565b60006020828403121561025557610254610391565b5b600061026384828501610215565b91505092915050565b60006020828403121561028257610281610391565b5b60006102908482850161022a565b91505092915050565b6102a281610341565b82525050565b6102b181610365565b82525050565b60006102c4601483610330565b91506102cf82610396565b602082019050919050565b60006020820190506102ef6000830184610299565b92915050565b600060208201905061030a60008301846102a8565b92915050565b60006020820190508181036000830152610329816102b7565b9050919050565b600082825260208201905092915050565b600061034c82610371565b9050919050565b600061035e82610371565b9050919050565b60008115159050919050565b600073ffffffffffffffffffffffffffffffffffffffff82169050919050565b600080fd5b7f596f752043616e6e6f742057697468647261772e000000000000000000000000600082015250565b6103c881610353565b81146103d357600080fd5b50565b6103df81610365565b81146103ea57600080fd5b5056fea26469706673582212207c8acc247a07d6efbaaa2d7fe1071e8bf18bb4b3a7a270827f5b64499a1f095864736f6c63430008070033",
					"opcodes": "PUSH1 0x80 PUSH1 0x40 MSTORE CALLVALUE DUP1 ISZERO PUSH2 0x10 JUMPI PUSH1 0x0 DUP1 REVERT JUMPDEST POP CALLER PUSH1 0x0 DUP1 PUSH2 0x100 EXP DUP2 SLOAD DUP2 PUSH20 0xFFFFFFFFFFFFFFFFFFFFFFFFFFFFFFFFFFFFFFFF MUL NOT AND SWAP1 DUP4 PUSH20 0xFFFFFFFFFFFFFFFFFFFFFFFFFFFFFFFFFFFFFFFF AND MUL OR SWAP1 SSTORE POP PUSH2 0x423 DUP1 PUSH2 0x60 PUSH1 0x0 CODECOPY PUSH1 0x0 RETURN INVALID PUSH1 0x80 PUSH1 0x40 MSTORE PUSH1 0x4 CALLDATASIZE LT PUSH2 0x4A JUMPI PUSH1 0x0 CALLDATALOAD PUSH1 0xE0 SHR DUP1 PUSH4 0x5737314 EQ PUSH2 0x4F JUMPI DUP1 PUSH4 0x16C38B3C EQ PUSH2 0x59 JUMPI DUP1 PUSH4 0x5C975ABB EQ PUSH2 0x82 JUMPI DUP1 PUSH4 0x8DA5CB5B EQ PUSH2 0xAD JUMPI DUP1 PUSH4 0xCF0AC9D0 EQ PUSH2 0xD8 JUMPI JUMPDEST PUSH1 0x0 DUP1 REVERT JUMPDEST PUSH2 0x57 PUSH2 0x101 JUMP JUMPDEST STOP JUMPDEST CALLVALUE DUP1 ISZERO PUSH2 0x65 JUMPI PUSH1 0x0 DUP1 REVERT JUMPDEST POP PUSH2 0x80 PUSH1 0x4 DUP1 CALLDATASIZE SUB DUP2 ADD SWAP1 PUSH2 0x7B SWAP2 SWAP1 PUSH2 0x26C JUMP JUMPDEST PUSH2 0x103 JUMP JUMPDEST STOP JUMPDEST CALLVALUE DUP1 ISZERO PUSH2 0x8E JUMPI PUSH1 0x0 DUP1 REVERT JUMPDEST POP PUSH2 0x97 PUSH2 0x106 JUMP JUMPDEST PUSH1 0x40 MLOAD PUSH2 0xA4 SWAP2 SWAP1 PUSH2 0x2F5 JUMP JUMPDEST PUSH1 0x40 MLOAD DUP1 SWAP2 SUB SWAP1 RETURN JUMPDEST CALLVALUE DUP1 ISZERO PUSH2 0xB9 JUMPI PUSH1 0x0 DUP1 REVERT JUMPDEST POP PUSH2 0xC2 PUSH2 0x119 JUMP JUMPDEST PUSH1 0x40 MLOAD PUSH2 0xCF SWAP2 SWAP1 PUSH2 0x2DA JUMP JUMPDEST PUSH1 0x40 MLOAD DUP1 SWAP2 SUB SWAP1 RETURN JUMPDEST CALLVALUE DUP1 ISZERO PUSH2 0xE4 JUMPI PUSH1 0x0 DUP1 REVERT JUMPDEST POP PUSH2 0xFF PUSH1 0x4 DUP1 CALLDATASIZE SUB DUP2 ADD SWAP1 PUSH2 0xFA SWAP2 SWAP1 PUSH2 0x23F JUMP JUMPDEST PUSH2 0x13D JUMP JUMPDEST STOP JUMPDEST JUMP JUMPDEST POP JUMP JUMPDEST PUSH1 0x0 PUSH1 0x14 SWAP1 SLOAD SWAP1 PUSH2 0x100 EXP SWAP1 DIV PUSH1 0xFF AND DUP2 JUMP JUMPDEST PUSH1 0x0 DUP1 SLOAD SWAP1 PUSH2 0x100 EXP SWAP1 DIV PUSH20 0xFFFFFFFFFFFFFFFFFFFFFFFFFFFFFFFFFFFFFFFF AND DUP2 JUMP JUMPDEST CALLER PUSH20 0xFFFFFFFFFFFFFFFFFFFFFFFFFFFFFFFFFFFFFFFF AND PUSH1 0x0 DUP1 SLOAD SWAP1 PUSH2 0x100 EXP SWAP1 DIV PUSH20 0xFFFFFFFFFFFFFFFFFFFFFFFFFFFFFFFFFFFFFFFF AND PUSH20 0xFFFFFFFFFFFFFFFFFFFFFFFFFFFFFFFFFFFFFFFF AND EQ PUSH2 0x1CB JUMPI PUSH1 0x40 MLOAD PUSH32 0x8C379A000000000000000000000000000000000000000000000000000000000 DUP2 MSTORE PUSH1 0x4 ADD PUSH2 0x1C2 SWAP1 PUSH2 0x310 JUMP JUMPDEST PUSH1 0x40 MLOAD DUP1 SWAP2 SUB SWAP1 REVERT JUMPDEST DUP1 PUSH20 0xFFFFFFFFFFFFFFFFFFFFFFFFFFFFFFFFFFFFFFFF AND PUSH2 0x8FC SELFBALANCE SWAP1 DUP2 ISZERO MUL SWAP1 PUSH1 0x40 MLOAD PUSH1 0x0 PUSH1 0x40 MLOAD DUP1 DUP4 SUB DUP2 DUP6 DUP9 DUP9 CALL SWAP4 POP POP POP POP ISZERO DUP1 ISZERO PUSH2 0x211 JUMPI RETURNDATASIZE PUSH1 0x0 DUP1 RETURNDATACOPY RETURNDATASIZE PUSH1 0x0 REVERT JUMPDEST POP POP JUMP JUMPDEST PUSH1 0x0 DUP2 CALLDATALOAD SWAP1 POP PUSH2 0x224 DUP2 PUSH2 0x3BF JUMP JUMPDEST SWAP3 SWAP2 POP POP JUMP JUMPDEST PUSH1 0x0 DUP2 CALLDATALOAD SWAP1 POP PUSH2 0x239 DUP2 PUSH2 0x3D6 JUMP JUMPDEST SWAP3 SWAP2 POP POP JUMP JUMPDEST PUSH1 0x0 PUSH1 0x20 DUP3 DUP5 SUB SLT ISZERO PUSH2 0x255 JUMPI PUSH2 0x254 PUSH2 0x391 JUMP JUMPDEST JUMPDEST PUSH1 0x0 PUSH2 0x263 DUP5 DUP3 DUP6 ADD PUSH2 0x215 JUMP JUMPDEST SWAP2 POP POP SWAP3 SWAP2 POP POP JUMP JUMPDEST PUSH1 0x0 PUSH1 0x20 DUP3 DUP5 SUB SLT ISZERO PUSH2 0x282 JUMPI PUSH2 0x281 PUSH2 0x391 JUMP JUMPDEST JUMPDEST PUSH1 0x0 PUSH2 0x290 DUP5 DUP3 DUP6 ADD PUSH2 0x22A JUMP JUMPDEST SWAP2 POP POP SWAP3 SWAP2 POP POP JUMP JUMPDEST PUSH2 0x2A2 DUP2 PUSH2 0x341 JUMP JUMPDEST DUP3 MSTORE POP POP JUMP JUMPDEST PUSH2 0x2B1 DUP2 PUSH2 0x365 JUMP JUMPDEST DUP3 MSTORE POP POP JUMP JUMPDEST PUSH1 0x0 PUSH2 0x2C4 PUSH1 0x14 DUP4 PUSH2 0x330 JUMP JUMPDEST SWAP2 POP PUSH2 0x2CF DUP3 PUSH2 0x396 JUMP JUMPDEST PUSH1 0x20 DUP3 ADD SWAP1 POP SWAP2 SWAP1 POP JUMP JUMPDEST PUSH1 0x0 PUSH1 0x20 DUP3 ADD SWAP1 POP PUSH2 0x2EF PUSH1 0x0 DUP4 ADD DUP5 PUSH2 0x299 JUMP JUMPDEST SWAP3 SWAP2 POP POP JUMP JUMPDEST PUSH1 0x0 PUSH1 0x20 DUP3 ADD SWAP1 POP PUSH2 0x30A PUSH1 0x0 DUP4 ADD DUP5 PUSH2 0x2A8 JUMP JUMPDEST SWAP3 SWAP2 POP POP JUMP JUMPDEST PUSH1 0x0 PUSH1 0x20 DUP3 ADD SWAP1 POP DUP2 DUP2 SUB PUSH1 0x0 DUP4 ADD MSTORE PUSH2 0x329 DUP2 PUSH2 0x2B7 JUMP JUMPDEST SWAP1 POP SWAP2 SWAP1 POP JUMP JUMPDEST PUSH1 0x0 DUP3 DUP3 MSTORE PUSH1 0x20 DUP3 ADD SWAP1 POP SWAP3 SWAP2 POP POP JUMP JUMPDEST PUSH1 0x0 PUSH2 0x34C DUP3 PUSH2 0x371 JUMP JUMPDEST SWAP1 POP SWAP2 SWAP1 POP JUMP JUMPDEST PUSH1 0x0 PUSH2 0x35E DUP3 PUSH2 0x371 JUMP JUMPDEST SWAP1 POP SWAP2 SWAP1 POP JUMP JUMPDEST PUSH1 0x0 DUP2 ISZERO ISZERO SWAP1 POP SWAP2 SWAP1 POP JUMP JUMPDEST PUSH1 0x0 PUSH20 0xFFFFFFFFFFFFFFFFFFFFFFFFFFFFFFFFFFFFFFFF DUP3 AND SWAP1 POP SWAP2 SWAP1 POP JUMP JUMPDEST PUSH1 0x0 DUP1 REVERT JUMPDEST PUSH32 0x596F752043616E6E6F742057697468647261772E000000000000000000000000 PUSH1 0x0 DUP3 ADD MSTORE POP JUMP JUMPDEST PUSH2 0x3C8 DUP2 PUSH2 0x353 JUMP JUMPDEST DUP2 EQ PUSH2 0x3D3 JUMPI PUSH1 0x0 DUP1 REVERT JUMPDEST POP JUMP JUMPDEST PUSH2 0x3DF DUP2 PUSH2 0x365 JUMP JUMPDEST DUP2 EQ PUSH2 0x3EA JUMPI PUSH1 0x0 DUP1 REVERT JUMPDEST POP JUMP INVALID LOG2 PUSH5 0x6970667358 0x22 SLT KECCAK256 PUSH29 0x8ACC247A07D6EFBAAA2D7FE1071E8BF18BB4B3A7A270827F5B64499A1F MULMOD PC PUSH5 0x736F6C6343 STOP ADDMOD SMOD STOP CALLER "
				},
				"gasEstimates": {
					"creation": {
						"codeDepositCost": "211800",
						"executionCost": "24523",
						"totalCost": "236323"
					},
					"external": {
						"SendMoney()": "98",
						"WithdrawMoney(address)": "infinite",
						"owner()": "2555",
						"paused()": "2543",
						"setPaused(bool)": "412"
					}
				},
				"methodIdentifiers": {
					"SendMoney()": "05737314",
					"WithdrawMoney(address)": "cf0ac9d0",
					"owner()": "8da5cb5b",
					"paused()": "5c975abb",
					"setPaused(bool)": "16c38b3c"
				}
			},
			"storageLayout": {
				"storage": [
					{
						"astId": 3,
						"contract": "StartingStopping.sol:StartStopUpdateExample",
						"label": "owner",
						"offset": 0,
						"slot": "0",
						"type": "t_address"
					},
					{
						"astId": 5,
						"contract": "StartingStopping.sol:StartStopUpdateExample",
						"label": "paused",
						"offset": 20,
						"slot": "0",
						"type": "t_bool"
					}
				],
				"types": {
					"t_address": {
						"encoding": "inplace",
						"label": "address",
						"numberOfBytes": "20"
					},
					"t_bool": {
						"encoding": "inplace",
						"label": "bool",
						"numberOfBytes": "1"
					}
				}
			},
			"userdoc": {
				"kind": "user",
				"methods": {},
				"version": 1
			}
		}
	}
}