{
	"InheritanceModifierExample.sol": {
		"InheritanceModifierExample": {
			"abi": [
				{
					"inputs": [],
					"stateMutability": "nonpayable",
					"type": "constructor"
				},
				{
					"inputs": [],
					"name": "burnToken",
					"outputs": [],
					"stateMutability": "nonpayable",
					"type": "function"
				},
				{
					"inputs": [],
					"name": "createNewToken",
					"outputs": [],
					"stateMutability": "nonpayable",
					"type": "function"
				},
				{
					"inputs": [],
					"name": "purchaseToken",
					"outputs": [],
					"stateMutability": "payable",
					"type": "function"
				},
				{
					"inputs": [
						{
							"internalType": "address",
							"name": "_to",
							"type": "address"
						},
						{
							"internalType": "uint256",
							"name": "_amount",
							"type": "uint256"
						}
					],
					"name": "sendToken",
					"outputs": [],
					"stateMutability": "nonpayable",
					"type": "function"
				},
				{
					"inputs": [
						{
							"internalType": "address",
							"name": "",
							"type": "address"
						}
					],
					"name": "tokenBalance",
					"outputs": [
						{
							"internalType": "uint256",
							"name": "",
							"type": "uint256"
						}
					],
					"stateMutability": "view",
					"type": "function"
				}
			],
			"devdoc": {
				"kind": "dev",
				"methods": {},
				"version": 1
			},
			"evm": {
				"assembly": "    /* \"InheritanceModifierExample.sol\":27:1225  contract InheritanceModifierExample {\r... */\n  mstore(0x40, 0x80)\n    /* \"InheritanceModifierExample.sol\":166:173  1 ether */\n  0x0de0b6b3a7640000\n    /* \"InheritanceModifierExample.sol\":148:173  uint tokenPrice = 1 ether */\n  0x02\n  sstore\n    /* \"InheritanceModifierExample.sol\":182:276  constructor () public {\r... */\n  callvalue\n  dup1\n  iszero\n  tag_1\n  jumpi\n  0x00\n  dup1\n  revert\ntag_1:\n  pop\n    /* \"InheritanceModifierExample.sol\":223:233  msg.sender */\n  caller\n    /* \"InheritanceModifierExample.sol\":215:220  owner */\n  0x01\n  0x00\n    /* \"InheritanceModifierExample.sol\":215:233  owner = msg.sender */\n  0x0100\n  exp\n  dup2\n  sload\n  dup2\n  0xffffffffffffffffffffffffffffffffffffffff\n  mul\n  not\n  and\n  swap1\n  dup4\n  0xffffffffffffffffffffffffffffffffffffffff\n  and\n  mul\n  or\n  swap1\n  sstore\n  pop\n    /* \"InheritanceModifierExample.sol\":265:268  100 */\n  0x64\n    /* \"InheritanceModifierExample.sol\":244:256  tokenBalance */\n  0x00\n    /* \"InheritanceModifierExample.sol\":244:263  tokenBalance[owner] */\n  dup1\n    /* \"InheritanceModifierExample.sol\":257:262  owner */\n  0x01\n  0x00\n  swap1\n  sload\n  swap1\n  0x0100\n  exp\n  swap1\n  div\n  0xffffffffffffffffffffffffffffffffffffffff\n  and\n    /* \"InheritanceModifierExample.sol\":244:263  tokenBalance[owner] */\n  0xffffffffffffffffffffffffffffffffffffffff\n  and\n  0xffffffffffffffffffffffffffffffffffffffff\n  and\n  dup2\n  mstore\n  0x20\n  add\n  swap1\n  dup2\n  mstore\n  0x20\n  add\n  0x00\n  keccak256\n    /* \"InheritanceModifierExample.sol\":244:268  tokenBalance[owner] =100 */\n  dup2\n  swap1\n  sstore\n  pop\n    /* \"InheritanceModifierExample.sol\":27:1225  contract InheritanceModifierExample {\r... */\n  dataSize(sub_0)\n  dup1\n  dataOffset(sub_0)\n  0x00\n  codecopy\n  0x00\n  return\nstop\n\nsub_0: assembly {\n        /* \"InheritanceModifierExample.sol\":27:1225  contract InheritanceModifierExample {\r... */\n      mstore(0x40, 0x80)\n      jumpi(tag_1, lt(calldatasize, 0x04))\n      shr(0xe0, calldataload(0x00))\n      dup1\n      0x412664ae\n      eq\n      tag_2\n      jumpi\n      dup1\n      0x754fc38c\n      eq\n      tag_3\n      jumpi\n      dup1\n      0xa95c4d62\n      eq\n      tag_4\n      jumpi\n      dup1\n      0xeedc966a\n      eq\n      tag_5\n      jumpi\n      dup1\n      0xfaa0a264\n      eq\n      tag_6\n      jumpi\n    tag_1:\n      0x00\n      dup1\n      revert\n        /* \"InheritanceModifierExample.sol\":843:1216  function sendToken(address _to, uint _amount) public {\r... */\n    tag_2:\n      callvalue\n      dup1\n      iszero\n      tag_7\n      jumpi\n      0x00\n      dup1\n      revert\n    tag_7:\n      pop\n      tag_8\n      0x04\n      dup1\n      calldatasize\n      sub\n      dup2\n      add\n      swap1\n      tag_9\n      swap2\n      swap1\n      tag_10\n      jump\t// in\n    tag_9:\n      tag_11\n      jump\t// in\n    tag_8:\n      stop\n        /* \"InheritanceModifierExample.sol\":392:485  function createNewToken () public onlyOwner {\r... */\n    tag_3:\n      callvalue\n      dup1\n      iszero\n      tag_12\n      jumpi\n      0x00\n      dup1\n      revert\n    tag_12:\n      pop\n      tag_13\n      tag_14\n      jump\t// in\n    tag_13:\n      stop\n        /* \"InheritanceModifierExample.sol\":590:835  function purchaseToken() public payable {\r... */\n    tag_4:\n      tag_15\n      tag_16\n      jump\t// in\n    tag_15:\n      stop\n        /* \"InheritanceModifierExample.sol\":76:121  mapping (address => uint) public tokenBalance */\n    tag_5:\n      callvalue\n      dup1\n      iszero\n      tag_17\n      jumpi\n      0x00\n      dup1\n      revert\n    tag_17:\n      pop\n      tag_18\n      0x04\n      dup1\n      calldatasize\n      sub\n      dup2\n      add\n      swap1\n      tag_19\n      swap2\n      swap1\n      tag_20\n      jump\t// in\n    tag_19:\n      tag_21\n      jump\t// in\n    tag_18:\n      mload(0x40)\n      tag_22\n      swap2\n      swap1\n      tag_23\n      jump\t// in\n    tag_22:\n      mload(0x40)\n      dup1\n      swap2\n      sub\n      swap1\n      return\n        /* \"InheritanceModifierExample.sol\":493:582  function burnToken () public onlyOwner {\r... */\n    tag_6:\n      callvalue\n      dup1\n      iszero\n      tag_24\n      jumpi\n      0x00\n      dup1\n      revert\n    tag_24:\n      pop\n      tag_25\n      tag_26\n      jump\t// in\n    tag_25:\n      stop\n        /* \"InheritanceModifierExample.sol\":843:1216  function sendToken(address _to, uint _amount) public {\r... */\n    tag_11:\n        /* \"InheritanceModifierExample.sol\":943:950  _amount */\n      dup1\n        /* \"InheritanceModifierExample.sol\":916:928  tokenBalance */\n      0x00\n        /* \"InheritanceModifierExample.sol\":916:940  tokenBalance[msg.sender] */\n      dup1\n        /* \"InheritanceModifierExample.sol\":929:939  msg.sender */\n      caller\n        /* \"InheritanceModifierExample.sol\":916:940  tokenBalance[msg.sender] */\n      0xffffffffffffffffffffffffffffffffffffffff\n      and\n      0xffffffffffffffffffffffffffffffffffffffff\n      and\n      dup2\n      mstore\n      0x20\n      add\n      swap1\n      dup2\n      mstore\n      0x20\n      add\n      0x00\n      keccak256\n      sload\n        /* \"InheritanceModifierExample.sol\":916:950  tokenBalance[msg.sender]>= _amount */\n      lt\n      iszero\n        /* \"InheritanceModifierExample.sol\":907:971  require (tokenBalance[msg.sender]>= _amount, \"Not enough funds\") */\n      tag_28\n      jumpi\n      mload(0x40)\n      0x08c379a000000000000000000000000000000000000000000000000000000000\n      dup2\n      mstore\n      0x04\n      add\n      tag_29\n      swap1\n      tag_30\n      jump\t// in\n    tag_29:\n      mload(0x40)\n      dup1\n      swap2\n      sub\n      swap1\n      revert\n    tag_28:\n        /* \"InheritanceModifierExample.sol\":1021:1033  tokenBalance */\n      0x00\n        /* \"InheritanceModifierExample.sol\":1021:1038  tokenBalance[_to] */\n      dup1\n        /* \"InheritanceModifierExample.sol\":1034:1037  _to */\n      dup4\n        /* \"InheritanceModifierExample.sol\":1021:1038  tokenBalance[_to] */\n      0xffffffffffffffffffffffffffffffffffffffff\n      and\n      0xffffffffffffffffffffffffffffffffffffffff\n      and\n      dup2\n      mstore\n      0x20\n      add\n      swap1\n      dup2\n      mstore\n      0x20\n      add\n      0x00\n      keccak256\n      sload\n        /* \"InheritanceModifierExample.sol\":1010:1017  _amount */\n      dup2\n        /* \"InheritanceModifierExample.sol\":990:1002  tokenBalance */\n      0x00\n        /* \"InheritanceModifierExample.sol\":990:1007  tokenBalance[_to] */\n      dup1\n        /* \"InheritanceModifierExample.sol\":1003:1006  _to */\n      dup6\n        /* \"InheritanceModifierExample.sol\":990:1007  tokenBalance[_to] */\n      0xffffffffffffffffffffffffffffffffffffffff\n      and\n      0xffffffffffffffffffffffffffffffffffffffff\n      and\n      dup2\n      mstore\n      0x20\n      add\n      swap1\n      dup2\n      mstore\n      0x20\n      add\n      0x00\n      keccak256\n      sload\n        /* \"InheritanceModifierExample.sol\":990:1017  tokenBalance[_to] + _amount */\n      tag_31\n      swap2\n      swap1\n      tag_32\n      jump\t// in\n    tag_31:\n        /* \"InheritanceModifierExample.sol\":990:1038  tokenBalance[_to] + _amount >= tokenBalance[_to] */\n      lt\n      iszero\n        /* \"InheritanceModifierExample.sol\":982:1039  assert (tokenBalance[_to] + _amount >= tokenBalance[_to]) */\n      tag_33\n      jumpi\n      tag_34\n      tag_35\n      jump\t// in\n    tag_34:\n    tag_33:\n        /* \"InheritanceModifierExample.sol\":1097:1109  tokenBalance */\n      0x00\n        /* \"InheritanceModifierExample.sol\":1097:1121  tokenBalance[msg.sender] */\n      dup1\n        /* \"InheritanceModifierExample.sol\":1110:1120  msg.sender */\n      caller\n        /* \"InheritanceModifierExample.sol\":1097:1121  tokenBalance[msg.sender] */\n      0xffffffffffffffffffffffffffffffffffffffff\n      and\n      0xffffffffffffffffffffffffffffffffffffffff\n      and\n      dup2\n      mstore\n      0x20\n      add\n      swap1\n      dup2\n      mstore\n      0x20\n      add\n      0x00\n      keccak256\n      sload\n        /* \"InheritanceModifierExample.sol\":1086:1093  _amount */\n      dup2\n        /* \"InheritanceModifierExample.sol\":1058:1070  tokenBalance */\n      0x00\n        /* \"InheritanceModifierExample.sol\":1058:1083  tokenBalance [msg.sender] */\n      dup1\n        /* \"InheritanceModifierExample.sol\":1072:1082  msg.sender */\n      caller\n        /* \"InheritanceModifierExample.sol\":1058:1083  tokenBalance [msg.sender] */\n      0xffffffffffffffffffffffffffffffffffffffff\n      and\n      0xffffffffffffffffffffffffffffffffffffffff\n      and\n      dup2\n      mstore\n      0x20\n      add\n      swap1\n      dup2\n      mstore\n      0x20\n      add\n      0x00\n      keccak256\n      sload\n        /* \"InheritanceModifierExample.sol\":1058:1093  tokenBalance [msg.sender] - _amount */\n      tag_36\n      swap2\n      swap1\n      tag_37\n      jump\t// in\n    tag_36:\n        /* \"InheritanceModifierExample.sol\":1058:1121  tokenBalance [msg.sender] - _amount <= tokenBalance[msg.sender] */\n      gt\n      iszero\n        /* \"InheritanceModifierExample.sol\":1050:1122  assert (tokenBalance [msg.sender] - _amount <= tokenBalance[msg.sender]) */\n      tag_38\n      jumpi\n      tag_39\n      tag_35\n      jump\t// in\n    tag_39:\n    tag_38:\n        /* \"InheritanceModifierExample.sol\":1162:1169  _amount */\n      dup1\n        /* \"InheritanceModifierExample.sol\":1135:1147  tokenBalance */\n      0x00\n        /* \"InheritanceModifierExample.sol\":1135:1159  tokenBalance[msg.sender] */\n      dup1\n        /* \"InheritanceModifierExample.sol\":1148:1158  msg.sender */\n      caller\n        /* \"InheritanceModifierExample.sol\":1135:1159  tokenBalance[msg.sender] */\n      0xffffffffffffffffffffffffffffffffffffffff\n      and\n      0xffffffffffffffffffffffffffffffffffffffff\n      and\n      dup2\n      mstore\n      0x20\n      add\n      swap1\n      dup2\n      mstore\n      0x20\n      add\n      0x00\n      keccak256\n      0x00\n        /* \"InheritanceModifierExample.sol\":1135:1169  tokenBalance[msg.sender]-= _amount */\n      dup3\n      dup3\n      sload\n      tag_40\n      swap2\n      swap1\n      tag_37\n      jump\t// in\n    tag_40:\n      swap3\n      pop\n      pop\n      dup2\n      swap1\n      sstore\n      pop\n        /* \"InheritanceModifierExample.sol\":1201:1208  _amount */\n      dup1\n        /* \"InheritanceModifierExample.sol\":1180:1192  tokenBalance */\n      0x00\n        /* \"InheritanceModifierExample.sol\":1180:1197  tokenBalance[_to] */\n      dup1\n        /* \"InheritanceModifierExample.sol\":1193:1196  _to */\n      dup5\n        /* \"InheritanceModifierExample.sol\":1180:1197  tokenBalance[_to] */\n      0xffffffffffffffffffffffffffffffffffffffff\n      and\n      0xffffffffffffffffffffffffffffffffffffffff\n      and\n      dup2\n      mstore\n      0x20\n      add\n      swap1\n      dup2\n      mstore\n      0x20\n      add\n      0x00\n      keccak256\n      0x00\n        /* \"InheritanceModifierExample.sol\":1180:1208  tokenBalance[_to] += _amount */\n      dup3\n      dup3\n      sload\n      tag_41\n      swap2\n      swap1\n      tag_32\n      jump\t// in\n    tag_41:\n      swap3\n      pop\n      pop\n      dup2\n      swap1\n      sstore\n      pop\n        /* \"InheritanceModifierExample.sol\":843:1216  function sendToken(address _to, uint _amount) public {\r... */\n      pop\n      pop\n      jump\t// out\n        /* \"InheritanceModifierExample.sol\":392:485  function createNewToken () public onlyOwner {\r... */\n    tag_14:\n        /* \"InheritanceModifierExample.sol\":335:340  owner */\n      0x01\n      0x00\n      swap1\n      sload\n      swap1\n      0x0100\n      exp\n      swap1\n      div\n      0xffffffffffffffffffffffffffffffffffffffff\n      and\n        /* \"InheritanceModifierExample.sol\":323:340  msg.sender==owner */\n      0xffffffffffffffffffffffffffffffffffffffff\n      and\n        /* \"InheritanceModifierExample.sol\":323:333  msg.sender */\n      caller\n        /* \"InheritanceModifierExample.sol\":323:340  msg.sender==owner */\n      0xffffffffffffffffffffffffffffffffffffffff\n      and\n      eq\n        /* \"InheritanceModifierExample.sol\":315:364  require(msg.sender==owner, \"You are not allowed\") */\n      tag_43\n      jumpi\n      mload(0x40)\n      0x08c379a000000000000000000000000000000000000000000000000000000000\n      dup2\n      mstore\n      0x04\n      add\n      tag_44\n      swap1\n      tag_45\n      jump\t// in\n    tag_44:\n      mload(0x40)\n      dup1\n      swap2\n      sub\n      swap1\n      revert\n    tag_43:\n        /* \"InheritanceModifierExample.sol\":456:468  tokenBalance */\n      0x00\n        /* \"InheritanceModifierExample.sol\":456:475  tokenBalance[owner] */\n      dup1\n        /* \"InheritanceModifierExample.sol\":469:474  owner */\n      0x01\n      0x00\n      swap1\n      sload\n      swap1\n      0x0100\n      exp\n      swap1\n      div\n      0xffffffffffffffffffffffffffffffffffffffff\n      and\n        /* \"InheritanceModifierExample.sol\":456:475  tokenBalance[owner] */\n      0xffffffffffffffffffffffffffffffffffffffff\n      and\n      0xffffffffffffffffffffffffffffffffffffffff\n      and\n      dup2\n      mstore\n      0x20\n      add\n      swap1\n      dup2\n      mstore\n      0x20\n      add\n      0x00\n      keccak256\n      0x00\n        /* \"InheritanceModifierExample.sol\":456:477  tokenBalance[owner]++ */\n      dup2\n      sload\n      dup1\n      swap3\n      swap2\n      swap1\n      tag_47\n      swap1\n      tag_48\n      jump\t// in\n    tag_47:\n      swap2\n      swap1\n      pop\n      sstore\n      pop\n        /* \"InheritanceModifierExample.sol\":392:485  function createNewToken () public onlyOwner {\r... */\n      jump\t// out\n        /* \"InheritanceModifierExample.sol\":590:835  function purchaseToken() public payable {\r... */\n    tag_16:\n        /* \"InheritanceModifierExample.sol\":695:696  0 */\n      0x00\n        /* \"InheritanceModifierExample.sol\":683:692  msg.value */\n      callvalue\n        /* \"InheritanceModifierExample.sol\":671:681  tokenPrice */\n      sload(0x02)\n        /* \"InheritanceModifierExample.sol\":651:663  tokenBalance */\n      0x00\n        /* \"InheritanceModifierExample.sol\":651:670  tokenBalance[owner] */\n      dup1\n        /* \"InheritanceModifierExample.sol\":664:669  owner */\n      0x01\n      0x00\n      swap1\n      sload\n      swap1\n      0x0100\n      exp\n      swap1\n      div\n      0xffffffffffffffffffffffffffffffffffffffff\n      and\n        /* \"InheritanceModifierExample.sol\":651:670  tokenBalance[owner] */\n      0xffffffffffffffffffffffffffffffffffffffff\n      and\n      0xffffffffffffffffffffffffffffffffffffffff\n      and\n      dup2\n      mstore\n      0x20\n      add\n      swap1\n      dup2\n      mstore\n      0x20\n      add\n      0x00\n      keccak256\n      sload\n        /* \"InheritanceModifierExample.sol\":651:681  tokenBalance[owner]*tokenPrice */\n      tag_50\n      swap2\n      swap1\n      tag_51\n      jump\t// in\n    tag_50:\n        /* \"InheritanceModifierExample.sol\":650:692  (tokenBalance[owner]*tokenPrice)/msg.value */\n      tag_52\n      swap2\n      swap1\n      tag_53\n      jump\t// in\n    tag_52:\n        /* \"InheritanceModifierExample.sol\":650:696  (tokenBalance[owner]*tokenPrice)/msg.value > 0 */\n      gt\n        /* \"InheritanceModifierExample.sol\":641:718  require ((tokenBalance[owner]*tokenPrice)/msg.value > 0, \"not enough tokens\") */\n      tag_54\n      jumpi\n      mload(0x40)\n      0x08c379a000000000000000000000000000000000000000000000000000000000\n      dup2\n      mstore\n      0x04\n      add\n      tag_55\n      swap1\n      tag_56\n      jump\t// in\n    tag_55:\n      mload(0x40)\n      dup1\n      swap2\n      sub\n      swap1\n      revert\n    tag_54:\n        /* \"InheritanceModifierExample.sol\":760:770  tokenPrice */\n      sload(0x02)\n        /* \"InheritanceModifierExample.sol\":750:759  msg.value */\n      callvalue\n        /* \"InheritanceModifierExample.sol\":750:770  msg.value/tokenPrice */\n      tag_57\n      swap2\n      swap1\n      tag_53\n      jump\t// in\n    tag_57:\n        /* \"InheritanceModifierExample.sol\":729:741  tokenBalance */\n      0x00\n        /* \"InheritanceModifierExample.sol\":729:748  tokenBalance[owner] */\n      dup1\n        /* \"InheritanceModifierExample.sol\":742:747  owner */\n      0x01\n      0x00\n      swap1\n      sload\n      swap1\n      0x0100\n      exp\n      swap1\n      div\n      0xffffffffffffffffffffffffffffffffffffffff\n      and\n        /* \"InheritanceModifierExample.sol\":729:748  tokenBalance[owner] */\n      0xffffffffffffffffffffffffffffffffffffffff\n      and\n      0xffffffffffffffffffffffffffffffffffffffff\n      and\n      dup2\n      mstore\n      0x20\n      add\n      swap1\n      dup2\n      mstore\n      0x20\n      add\n      0x00\n      keccak256\n      0x00\n        /* \"InheritanceModifierExample.sol\":729:770  tokenBalance[owner]+=msg.value/tokenPrice */\n      dup3\n      dup3\n      sload\n      tag_58\n      swap2\n      swap1\n      tag_32\n      jump\t// in\n    tag_58:\n      swap3\n      pop\n      pop\n      dup2\n      swap1\n      sstore\n      pop\n        /* \"InheritanceModifierExample.sol\":817:827  tokenPrice */\n      sload(0x02)\n        /* \"InheritanceModifierExample.sol\":807:816  msg.value */\n      callvalue\n        /* \"InheritanceModifierExample.sol\":807:827  msg.value/tokenPrice */\n      tag_59\n      swap2\n      swap1\n      tag_53\n      jump\t// in\n    tag_59:\n        /* \"InheritanceModifierExample.sol\":781:793  tokenBalance */\n      0x00\n        /* \"InheritanceModifierExample.sol\":781:805  tokenBalance[msg.sender] */\n      dup1\n        /* \"InheritanceModifierExample.sol\":794:804  msg.sender */\n      caller\n        /* \"InheritanceModifierExample.sol\":781:805  tokenBalance[msg.sender] */\n      0xffffffffffffffffffffffffffffffffffffffff\n      and\n      0xffffffffffffffffffffffffffffffffffffffff\n      and\n      dup2\n      mstore\n      0x20\n      add\n      swap1\n      dup2\n      mstore\n      0x20\n      add\n      0x00\n      keccak256\n      0x00\n        /* \"InheritanceModifierExample.sol\":781:827  tokenBalance[msg.sender]-=msg.value/tokenPrice */\n      dup3\n      dup3\n      sload\n      tag_60\n      swap2\n      swap1\n      tag_37\n      jump\t// in\n    tag_60:\n      swap3\n      pop\n      pop\n      dup2\n      swap1\n      sstore\n      pop\n        /* \"InheritanceModifierExample.sol\":590:835  function purchaseToken() public payable {\r... */\n      jump\t// out\n        /* \"InheritanceModifierExample.sol\":76:121  mapping (address => uint) public tokenBalance */\n    tag_21:\n      mstore(0x20, 0x00)\n      dup1\n      0x00\n      mstore\n      keccak256(0x00, 0x40)\n      0x00\n      swap2\n      pop\n      swap1\n      pop\n      sload\n      dup2\n      jump\t// out\n        /* \"InheritanceModifierExample.sol\":493:582  function burnToken () public onlyOwner {\r... */\n    tag_26:\n        /* \"InheritanceModifierExample.sol\":335:340  owner */\n      0x01\n      0x00\n      swap1\n      sload\n      swap1\n      0x0100\n      exp\n      swap1\n      div\n      0xffffffffffffffffffffffffffffffffffffffff\n      and\n        /* \"InheritanceModifierExample.sol\":323:340  msg.sender==owner */\n      0xffffffffffffffffffffffffffffffffffffffff\n      and\n        /* \"InheritanceModifierExample.sol\":323:333  msg.sender */\n      caller\n        /* \"InheritanceModifierExample.sol\":323:340  msg.sender==owner */\n      0xffffffffffffffffffffffffffffffffffffffff\n      and\n      eq\n        /* \"InheritanceModifierExample.sol\":315:364  require(msg.sender==owner, \"You are not allowed\") */\n      tag_62\n      jumpi\n      mload(0x40)\n      0x08c379a000000000000000000000000000000000000000000000000000000000\n      dup2\n      mstore\n      0x04\n      add\n      tag_63\n      swap1\n      tag_45\n      jump\t// in\n    tag_63:\n      mload(0x40)\n      dup1\n      swap2\n      sub\n      swap1\n      revert\n    tag_62:\n        /* \"InheritanceModifierExample.sol\":553:565  tokenBalance */\n      0x00\n        /* \"InheritanceModifierExample.sol\":553:572  tokenBalance[owner] */\n      dup1\n        /* \"InheritanceModifierExample.sol\":566:571  owner */\n      0x01\n      0x00\n      swap1\n      sload\n      swap1\n      0x0100\n      exp\n      swap1\n      div\n      0xffffffffffffffffffffffffffffffffffffffff\n      and\n        /* \"InheritanceModifierExample.sol\":553:572  tokenBalance[owner] */\n      0xffffffffffffffffffffffffffffffffffffffff\n      and\n      0xffffffffffffffffffffffffffffffffffffffff\n      and\n      dup2\n      mstore\n      0x20\n      add\n      swap1\n      dup2\n      mstore\n      0x20\n      add\n      0x00\n      keccak256\n      0x00\n        /* \"InheritanceModifierExample.sol\":553:574  tokenBalance[owner]-- */\n      dup2\n      sload\n      dup1\n      swap3\n      swap2\n      swap1\n      tag_65\n      swap1\n      tag_66\n      jump\t// in\n    tag_65:\n      swap2\n      swap1\n      pop\n      sstore\n      pop\n        /* \"InheritanceModifierExample.sol\":493:582  function burnToken () public onlyOwner {\r... */\n      jump\t// out\n        /* \"#utility.yul\":7:146   */\n    tag_68:\n        /* \"#utility.yul\":53:58   */\n      0x00\n        /* \"#utility.yul\":91:97   */\n      dup2\n        /* \"#utility.yul\":78:98   */\n      calldataload\n        /* \"#utility.yul\":69:98   */\n      swap1\n      pop\n        /* \"#utility.yul\":107:140   */\n      tag_70\n        /* \"#utility.yul\":134:139   */\n      dup2\n        /* \"#utility.yul\":107:140   */\n      tag_71\n      jump\t// in\n    tag_70:\n        /* \"#utility.yul\":7:146   */\n      swap3\n      swap2\n      pop\n      pop\n      jump\t// out\n        /* \"#utility.yul\":152:291   */\n    tag_72:\n        /* \"#utility.yul\":198:203   */\n      0x00\n        /* \"#utility.yul\":236:242   */\n      dup2\n        /* \"#utility.yul\":223:243   */\n      calldataload\n        /* \"#utility.yul\":214:243   */\n      swap1\n      pop\n        /* \"#utility.yul\":252:285   */\n      tag_74\n        /* \"#utility.yul\":279:284   */\n      dup2\n        /* \"#utility.yul\":252:285   */\n      tag_75\n      jump\t// in\n    tag_74:\n        /* \"#utility.yul\":152:291   */\n      swap3\n      swap2\n      pop\n      pop\n      jump\t// out\n        /* \"#utility.yul\":297:626   */\n    tag_20:\n        /* \"#utility.yul\":356:362   */\n      0x00\n        /* \"#utility.yul\":405:407   */\n      0x20\n        /* \"#utility.yul\":393:402   */\n      dup3\n        /* \"#utility.yul\":384:391   */\n      dup5\n        /* \"#utility.yul\":380:403   */\n      sub\n        /* \"#utility.yul\":376:408   */\n      slt\n        /* \"#utility.yul\":373:492   */\n      iszero\n      tag_77\n      jumpi\n        /* \"#utility.yul\":411:490   */\n      tag_78\n      tag_79\n      jump\t// in\n    tag_78:\n        /* \"#utility.yul\":373:492   */\n    tag_77:\n        /* \"#utility.yul\":531:532   */\n      0x00\n        /* \"#utility.yul\":556:609   */\n      tag_80\n        /* \"#utility.yul\":601:608   */\n      dup5\n        /* \"#utility.yul\":592:598   */\n      dup3\n        /* \"#utility.yul\":581:590   */\n      dup6\n        /* \"#utility.yul\":577:599   */\n      add\n        /* \"#utility.yul\":556:609   */\n      tag_68\n      jump\t// in\n    tag_80:\n        /* \"#utility.yul\":546:609   */\n      swap2\n      pop\n        /* \"#utility.yul\":502:619   */\n      pop\n        /* \"#utility.yul\":297:626   */\n      swap3\n      swap2\n      pop\n      pop\n      jump\t// out\n        /* \"#utility.yul\":632:1106   */\n    tag_10:\n        /* \"#utility.yul\":700:706   */\n      0x00\n        /* \"#utility.yul\":708:714   */\n      dup1\n        /* \"#utility.yul\":757:759   */\n      0x40\n        /* \"#utility.yul\":745:754   */\n      dup4\n        /* \"#utility.yul\":736:743   */\n      dup6\n        /* \"#utility.yul\":732:755   */\n      sub\n        /* \"#utility.yul\":728:760   */\n      slt\n        /* \"#utility.yul\":725:844   */\n      iszero\n      tag_82\n      jumpi\n        /* \"#utility.yul\":763:842   */\n      tag_83\n      tag_79\n      jump\t// in\n    tag_83:\n        /* \"#utility.yul\":725:844   */\n    tag_82:\n        /* \"#utility.yul\":883:884   */\n      0x00\n        /* \"#utility.yul\":908:961   */\n      tag_84\n        /* \"#utility.yul\":953:960   */\n      dup6\n        /* \"#utility.yul\":944:950   */\n      dup3\n        /* \"#utility.yul\":933:942   */\n      dup7\n        /* \"#utility.yul\":929:951   */\n      add\n        /* \"#utility.yul\":908:961   */\n      tag_68\n      jump\t// in\n    tag_84:\n        /* \"#utility.yul\":898:961   */\n      swap3\n      pop\n        /* \"#utility.yul\":854:971   */\n      pop\n        /* \"#utility.yul\":1010:1012   */\n      0x20\n        /* \"#utility.yul\":1036:1089   */\n      tag_85\n        /* \"#utility.yul\":1081:1088   */\n      dup6\n        /* \"#utility.yul\":1072:1078   */\n      dup3\n        /* \"#utility.yul\":1061:1070   */\n      dup7\n        /* \"#utility.yul\":1057:1079   */\n      add\n        /* \"#utility.yul\":1036:1089   */\n      tag_72\n      jump\t// in\n    tag_85:\n        /* \"#utility.yul\":1026:1089   */\n      swap2\n      pop\n        /* \"#utility.yul\":981:1099   */\n      pop\n        /* \"#utility.yul\":632:1106   */\n      swap3\n      pop\n      swap3\n      swap1\n      pop\n      jump\t// out\n        /* \"#utility.yul\":1112:1478   */\n    tag_86:\n        /* \"#utility.yul\":1254:1257   */\n      0x00\n        /* \"#utility.yul\":1275:1342   */\n      tag_88\n        /* \"#utility.yul\":1339:1341   */\n      0x10\n        /* \"#utility.yul\":1334:1337   */\n      dup4\n        /* \"#utility.yul\":1275:1342   */\n      tag_89\n      jump\t// in\n    tag_88:\n        /* \"#utility.yul\":1268:1342   */\n      swap2\n      pop\n        /* \"#utility.yul\":1351:1444   */\n      tag_90\n        /* \"#utility.yul\":1440:1443   */\n      dup3\n        /* \"#utility.yul\":1351:1444   */\n      tag_91\n      jump\t// in\n    tag_90:\n        /* \"#utility.yul\":1469:1471   */\n      0x20\n        /* \"#utility.yul\":1464:1467   */\n      dup3\n        /* \"#utility.yul\":1460:1472   */\n      add\n        /* \"#utility.yul\":1453:1472   */\n      swap1\n      pop\n        /* \"#utility.yul\":1112:1478   */\n      swap2\n      swap1\n      pop\n      jump\t// out\n        /* \"#utility.yul\":1484:1850   */\n    tag_92:\n        /* \"#utility.yul\":1626:1629   */\n      0x00\n        /* \"#utility.yul\":1647:1714   */\n      tag_94\n        /* \"#utility.yul\":1711:1713   */\n      0x13\n        /* \"#utility.yul\":1706:1709   */\n      dup4\n        /* \"#utility.yul\":1647:1714   */\n      tag_89\n      jump\t// in\n    tag_94:\n        /* \"#utility.yul\":1640:1714   */\n      swap2\n      pop\n        /* \"#utility.yul\":1723:1816   */\n      tag_95\n        /* \"#utility.yul\":1812:1815   */\n      dup3\n        /* \"#utility.yul\":1723:1816   */\n      tag_96\n      jump\t// in\n    tag_95:\n        /* \"#utility.yul\":1841:1843   */\n      0x20\n        /* \"#utility.yul\":1836:1839   */\n      dup3\n        /* \"#utility.yul\":1832:1844   */\n      add\n        /* \"#utility.yul\":1825:1844   */\n      swap1\n      pop\n        /* \"#utility.yul\":1484:1850   */\n      swap2\n      swap1\n      pop\n      jump\t// out\n        /* \"#utility.yul\":1856:2222   */\n    tag_97:\n        /* \"#utility.yul\":1998:2001   */\n      0x00\n        /* \"#utility.yul\":2019:2086   */\n      tag_99\n        /* \"#utility.yul\":2083:2085   */\n      0x11\n        /* \"#utility.yul\":2078:2081   */\n      dup4\n        /* \"#utility.yul\":2019:2086   */\n      tag_89\n      jump\t// in\n    tag_99:\n        /* \"#utility.yul\":2012:2086   */\n      swap2\n      pop\n        /* \"#utility.yul\":2095:2188   */\n      tag_100\n        /* \"#utility.yul\":2184:2187   */\n      dup3\n        /* \"#utility.yul\":2095:2188   */\n      tag_101\n      jump\t// in\n    tag_100:\n        /* \"#utility.yul\":2213:2215   */\n      0x20\n        /* \"#utility.yul\":2208:2211   */\n      dup3\n        /* \"#utility.yul\":2204:2216   */\n      add\n        /* \"#utility.yul\":2197:2216   */\n      swap1\n      pop\n        /* \"#utility.yul\":1856:2222   */\n      swap2\n      swap1\n      pop\n      jump\t// out\n        /* \"#utility.yul\":2228:2346   */\n    tag_102:\n        /* \"#utility.yul\":2315:2339   */\n      tag_104\n        /* \"#utility.yul\":2333:2338   */\n      dup2\n        /* \"#utility.yul\":2315:2339   */\n      tag_105\n      jump\t// in\n    tag_104:\n        /* \"#utility.yul\":2310:2313   */\n      dup3\n        /* \"#utility.yul\":2303:2340   */\n      mstore\n        /* \"#utility.yul\":2228:2346   */\n      pop\n      pop\n      jump\t// out\n        /* \"#utility.yul\":2352:2771   */\n    tag_30:\n        /* \"#utility.yul\":2518:2522   */\n      0x00\n        /* \"#utility.yul\":2556:2558   */\n      0x20\n        /* \"#utility.yul\":2545:2554   */\n      dup3\n        /* \"#utility.yul\":2541:2559   */\n      add\n        /* \"#utility.yul\":2533:2559   */\n      swap1\n      pop\n        /* \"#utility.yul\":2605:2614   */\n      dup2\n        /* \"#utility.yul\":2599:2603   */\n      dup2\n        /* \"#utility.yul\":2595:2615   */\n      sub\n        /* \"#utility.yul\":2591:2592   */\n      0x00\n        /* \"#utility.yul\":2580:2589   */\n      dup4\n        /* \"#utility.yul\":2576:2593   */\n      add\n        /* \"#utility.yul\":2569:2616   */\n      mstore\n        /* \"#utility.yul\":2633:2764   */\n      tag_107\n        /* \"#utility.yul\":2759:2763   */\n      dup2\n        /* \"#utility.yul\":2633:2764   */\n      tag_86\n      jump\t// in\n    tag_107:\n        /* \"#utility.yul\":2625:2764   */\n      swap1\n      pop\n        /* \"#utility.yul\":2352:2771   */\n      swap2\n      swap1\n      pop\n      jump\t// out\n        /* \"#utility.yul\":2777:3196   */\n    tag_45:\n        /* \"#utility.yul\":2943:2947   */\n      0x00\n        /* \"#utility.yul\":2981:2983   */\n      0x20\n        /* \"#utility.yul\":2970:2979   */\n      dup3\n        /* \"#utility.yul\":2966:2984   */\n      add\n        /* \"#utility.yul\":2958:2984   */\n      swap1\n      pop\n        /* \"#utility.yul\":3030:3039   */\n      dup2\n        /* \"#utility.yul\":3024:3028   */\n      dup2\n        /* \"#utility.yul\":3020:3040   */\n      sub\n        /* \"#utility.yul\":3016:3017   */\n      0x00\n        /* \"#utility.yul\":3005:3014   */\n      dup4\n        /* \"#utility.yul\":3001:3018   */\n      add\n        /* \"#utility.yul\":2994:3041   */\n      mstore\n        /* \"#utility.yul\":3058:3189   */\n      tag_109\n        /* \"#utility.yul\":3184:3188   */\n      dup2\n        /* \"#utility.yul\":3058:3189   */\n      tag_92\n      jump\t// in\n    tag_109:\n        /* \"#utility.yul\":3050:3189   */\n      swap1\n      pop\n        /* \"#utility.yul\":2777:3196   */\n      swap2\n      swap1\n      pop\n      jump\t// out\n        /* \"#utility.yul\":3202:3621   */\n    tag_56:\n        /* \"#utility.yul\":3368:3372   */\n      0x00\n        /* \"#utility.yul\":3406:3408   */\n      0x20\n        /* \"#utility.yul\":3395:3404   */\n      dup3\n        /* \"#utility.yul\":3391:3409   */\n      add\n        /* \"#utility.yul\":3383:3409   */\n      swap1\n      pop\n        /* \"#utility.yul\":3455:3464   */\n      dup2\n        /* \"#utility.yul\":3449:3453   */\n      dup2\n        /* \"#utility.yul\":3445:3465   */\n      sub\n        /* \"#utility.yul\":3441:3442   */\n      0x00\n        /* \"#utility.yul\":3430:3439   */\n      dup4\n        /* \"#utility.yul\":3426:3443   */\n      add\n        /* \"#utility.yul\":3419:3466   */\n      mstore\n        /* \"#utility.yul\":3483:3614   */\n      tag_111\n        /* \"#utility.yul\":3609:3613   */\n      dup2\n        /* \"#utility.yul\":3483:3614   */\n      tag_97\n      jump\t// in\n    tag_111:\n        /* \"#utility.yul\":3475:3614   */\n      swap1\n      pop\n        /* \"#utility.yul\":3202:3621   */\n      swap2\n      swap1\n      pop\n      jump\t// out\n        /* \"#utility.yul\":3627:3849   */\n    tag_23:\n        /* \"#utility.yul\":3720:3724   */\n      0x00\n        /* \"#utility.yul\":3758:3760   */\n      0x20\n        /* \"#utility.yul\":3747:3756   */\n      dup3\n        /* \"#utility.yul\":3743:3761   */\n      add\n        /* \"#utility.yul\":3735:3761   */\n      swap1\n      pop\n        /* \"#utility.yul\":3771:3842   */\n      tag_113\n        /* \"#utility.yul\":3839:3840   */\n      0x00\n        /* \"#utility.yul\":3828:3837   */\n      dup4\n        /* \"#utility.yul\":3824:3841   */\n      add\n        /* \"#utility.yul\":3815:3821   */\n      dup5\n        /* \"#utility.yul\":3771:3842   */\n      tag_102\n      jump\t// in\n    tag_113:\n        /* \"#utility.yul\":3627:3849   */\n      swap3\n      swap2\n      pop\n      pop\n      jump\t// out\n        /* \"#utility.yul\":3936:4105   */\n    tag_89:\n        /* \"#utility.yul\":4020:4031   */\n      0x00\n        /* \"#utility.yul\":4054:4060   */\n      dup3\n        /* \"#utility.yul\":4049:4052   */\n      dup3\n        /* \"#utility.yul\":4042:4061   */\n      mstore\n        /* \"#utility.yul\":4094:4098   */\n      0x20\n        /* \"#utility.yul\":4089:4092   */\n      dup3\n        /* \"#utility.yul\":4085:4099   */\n      add\n        /* \"#utility.yul\":4070:4099   */\n      swap1\n      pop\n        /* \"#utility.yul\":3936:4105   */\n      swap3\n      swap2\n      pop\n      pop\n      jump\t// out\n        /* \"#utility.yul\":4111:4416   */\n    tag_32:\n        /* \"#utility.yul\":4151:4154   */\n      0x00\n        /* \"#utility.yul\":4170:4190   */\n      tag_118\n        /* \"#utility.yul\":4188:4189   */\n      dup3\n        /* \"#utility.yul\":4170:4190   */\n      tag_105\n      jump\t// in\n    tag_118:\n        /* \"#utility.yul\":4165:4190   */\n      swap2\n      pop\n        /* \"#utility.yul\":4204:4224   */\n      tag_119\n        /* \"#utility.yul\":4222:4223   */\n      dup4\n        /* \"#utility.yul\":4204:4224   */\n      tag_105\n      jump\t// in\n    tag_119:\n        /* \"#utility.yul\":4199:4224   */\n      swap3\n      pop\n        /* \"#utility.yul\":4358:4359   */\n      dup3\n        /* \"#utility.yul\":4290:4356   */\n      0xffffffffffffffffffffffffffffffffffffffffffffffffffffffffffffffff\n        /* \"#utility.yul\":4286:4360   */\n      sub\n        /* \"#utility.yul\":4283:4284   */\n      dup3\n        /* \"#utility.yul\":4280:4361   */\n      gt\n        /* \"#utility.yul\":4277:4384   */\n      iszero\n      tag_120\n      jumpi\n        /* \"#utility.yul\":4364:4382   */\n      tag_121\n      tag_122\n      jump\t// in\n    tag_121:\n        /* \"#utility.yul\":4277:4384   */\n    tag_120:\n        /* \"#utility.yul\":4408:4409   */\n      dup3\n        /* \"#utility.yul\":4405:4406   */\n      dup3\n        /* \"#utility.yul\":4401:4410   */\n      add\n        /* \"#utility.yul\":4394:4410   */\n      swap1\n      pop\n        /* \"#utility.yul\":4111:4416   */\n      swap3\n      swap2\n      pop\n      pop\n      jump\t// out\n        /* \"#utility.yul\":4422:4607   */\n    tag_53:\n        /* \"#utility.yul\":4462:4463   */\n      0x00\n        /* \"#utility.yul\":4479:4499   */\n      tag_124\n        /* \"#utility.yul\":4497:4498   */\n      dup3\n        /* \"#utility.yul\":4479:4499   */\n      tag_105\n      jump\t// in\n    tag_124:\n        /* \"#utility.yul\":4474:4499   */\n      swap2\n      pop\n        /* \"#utility.yul\":4513:4533   */\n      tag_125\n        /* \"#utility.yul\":4531:4532   */\n      dup4\n        /* \"#utility.yul\":4513:4533   */\n      tag_105\n      jump\t// in\n    tag_125:\n        /* \"#utility.yul\":4508:4533   */\n      swap3\n      pop\n        /* \"#utility.yul\":4552:4553   */\n      dup3\n        /* \"#utility.yul\":4542:4577   */\n      tag_126\n      jumpi\n        /* \"#utility.yul\":4557:4575   */\n      tag_127\n      tag_128\n      jump\t// in\n    tag_127:\n        /* \"#utility.yul\":4542:4577   */\n    tag_126:\n        /* \"#utility.yul\":4599:4600   */\n      dup3\n        /* \"#utility.yul\":4596:4597   */\n      dup3\n        /* \"#utility.yul\":4592:4601   */\n      div\n        /* \"#utility.yul\":4587:4601   */\n      swap1\n      pop\n        /* \"#utility.yul\":4422:4607   */\n      swap3\n      swap2\n      pop\n      pop\n      jump\t// out\n        /* \"#utility.yul\":4613:4961   */\n    tag_51:\n        /* \"#utility.yul\":4653:4660   */\n      0x00\n        /* \"#utility.yul\":4676:4696   */\n      tag_130\n        /* \"#utility.yul\":4694:4695   */\n      dup3\n        /* \"#utility.yul\":4676:4696   */\n      tag_105\n      jump\t// in\n    tag_130:\n        /* \"#utility.yul\":4671:4696   */\n      swap2\n      pop\n        /* \"#utility.yul\":4710:4730   */\n      tag_131\n        /* \"#utility.yul\":4728:4729   */\n      dup4\n        /* \"#utility.yul\":4710:4730   */\n      tag_105\n      jump\t// in\n    tag_131:\n        /* \"#utility.yul\":4705:4730   */\n      swap3\n      pop\n        /* \"#utility.yul\":4898:4899   */\n      dup2\n        /* \"#utility.yul\":4830:4896   */\n      0xffffffffffffffffffffffffffffffffffffffffffffffffffffffffffffffff\n        /* \"#utility.yul\":4826:4900   */\n      div\n        /* \"#utility.yul\":4823:4824   */\n      dup4\n        /* \"#utility.yul\":4820:4901   */\n      gt\n        /* \"#utility.yul\":4815:4816   */\n      dup3\n        /* \"#utility.yul\":4808:4817   */\n      iszero\n        /* \"#utility.yul\":4801:4818   */\n      iszero\n        /* \"#utility.yul\":4797:4902   */\n      and\n        /* \"#utility.yul\":4794:4925   */\n      iszero\n      tag_132\n      jumpi\n        /* \"#utility.yul\":4905:4923   */\n      tag_133\n      tag_122\n      jump\t// in\n    tag_133:\n        /* \"#utility.yul\":4794:4925   */\n    tag_132:\n        /* \"#utility.yul\":4953:4954   */\n      dup3\n        /* \"#utility.yul\":4950:4951   */\n      dup3\n        /* \"#utility.yul\":4946:4955   */\n      mul\n        /* \"#utility.yul\":4935:4955   */\n      swap1\n      pop\n        /* \"#utility.yul\":4613:4961   */\n      swap3\n      swap2\n      pop\n      pop\n      jump\t// out\n        /* \"#utility.yul\":4967:5158   */\n    tag_37:\n        /* \"#utility.yul\":5007:5011   */\n      0x00\n        /* \"#utility.yul\":5027:5047   */\n      tag_135\n        /* \"#utility.yul\":5045:5046   */\n      dup3\n        /* \"#utility.yul\":5027:5047   */\n      tag_105\n      jump\t// in\n    tag_135:\n        /* \"#utility.yul\":5022:5047   */\n      swap2\n      pop\n        /* \"#utility.yul\":5061:5081   */\n      tag_136\n        /* \"#utility.yul\":5079:5080   */\n      dup4\n        /* \"#utility.yul\":5061:5081   */\n      tag_105\n      jump\t// in\n    tag_136:\n        /* \"#utility.yul\":5056:5081   */\n      swap3\n      pop\n        /* \"#utility.yul\":5100:5101   */\n      dup3\n        /* \"#utility.yul\":5097:5098   */\n      dup3\n        /* \"#utility.yul\":5094:5102   */\n      lt\n        /* \"#utility.yul\":5091:5125   */\n      iszero\n      tag_137\n      jumpi\n        /* \"#utility.yul\":5105:5123   */\n      tag_138\n      tag_122\n      jump\t// in\n    tag_138:\n        /* \"#utility.yul\":5091:5125   */\n    tag_137:\n        /* \"#utility.yul\":5150:5151   */\n      dup3\n        /* \"#utility.yul\":5147:5148   */\n      dup3\n        /* \"#utility.yul\":5143:5152   */\n      sub\n        /* \"#utility.yul\":5135:5152   */\n      swap1\n      pop\n        /* \"#utility.yul\":4967:5158   */\n      swap3\n      swap2\n      pop\n      pop\n      jump\t// out\n        /* \"#utility.yul\":5164:5260   */\n    tag_139:\n        /* \"#utility.yul\":5201:5208   */\n      0x00\n        /* \"#utility.yul\":5230:5254   */\n      tag_141\n        /* \"#utility.yul\":5248:5253   */\n      dup3\n        /* \"#utility.yul\":5230:5254   */\n      tag_142\n      jump\t// in\n    tag_141:\n        /* \"#utility.yul\":5219:5254   */\n      swap1\n      pop\n        /* \"#utility.yul\":5164:5260   */\n      swap2\n      swap1\n      pop\n      jump\t// out\n        /* \"#utility.yul\":5266:5392   */\n    tag_142:\n        /* \"#utility.yul\":5303:5310   */\n      0x00\n        /* \"#utility.yul\":5343:5385   */\n      0xffffffffffffffffffffffffffffffffffffffff\n        /* \"#utility.yul\":5336:5341   */\n      dup3\n        /* \"#utility.yul\":5332:5386   */\n      and\n        /* \"#utility.yul\":5321:5386   */\n      swap1\n      pop\n        /* \"#utility.yul\":5266:5392   */\n      swap2\n      swap1\n      pop\n      jump\t// out\n        /* \"#utility.yul\":5398:5475   */\n    tag_105:\n        /* \"#utility.yul\":5435:5442   */\n      0x00\n        /* \"#utility.yul\":5464:5469   */\n      dup2\n        /* \"#utility.yul\":5453:5469   */\n      swap1\n      pop\n        /* \"#utility.yul\":5398:5475   */\n      swap2\n      swap1\n      pop\n      jump\t// out\n        /* \"#utility.yul\":5481:5652   */\n    tag_66:\n        /* \"#utility.yul\":5520:5523   */\n      0x00\n        /* \"#utility.yul\":5543:5567   */\n      tag_146\n        /* \"#utility.yul\":5561:5566   */\n      dup3\n        /* \"#utility.yul\":5543:5567   */\n      tag_105\n      jump\t// in\n    tag_146:\n        /* \"#utility.yul\":5534:5567   */\n      swap2\n      pop\n        /* \"#utility.yul\":5589:5593   */\n      0x00\n        /* \"#utility.yul\":5582:5587   */\n      dup3\n        /* \"#utility.yul\":5579:5594   */\n      eq\n        /* \"#utility.yul\":5576:5617   */\n      iszero\n      tag_147\n      jumpi\n        /* \"#utility.yul\":5597:5615   */\n      tag_148\n      tag_122\n      jump\t// in\n    tag_148:\n        /* \"#utility.yul\":5576:5617   */\n    tag_147:\n        /* \"#utility.yul\":5644:5645   */\n      0x01\n        /* \"#utility.yul\":5637:5642   */\n      dup3\n        /* \"#utility.yul\":5633:5646   */\n      sub\n        /* \"#utility.yul\":5626:5646   */\n      swap1\n      pop\n        /* \"#utility.yul\":5481:5652   */\n      swap2\n      swap1\n      pop\n      jump\t// out\n        /* \"#utility.yul\":5658:5891   */\n    tag_48:\n        /* \"#utility.yul\":5697:5700   */\n      0x00\n        /* \"#utility.yul\":5720:5744   */\n      tag_150\n        /* \"#utility.yul\":5738:5743   */\n      dup3\n        /* \"#utility.yul\":5720:5744   */\n      tag_105\n      jump\t// in\n    tag_150:\n        /* \"#utility.yul\":5711:5744   */\n      swap2\n      pop\n        /* \"#utility.yul\":5766:5832   */\n      0xffffffffffffffffffffffffffffffffffffffffffffffffffffffffffffffff\n        /* \"#utility.yul\":5759:5764   */\n      dup3\n        /* \"#utility.yul\":5756:5833   */\n      eq\n        /* \"#utility.yul\":5753:5856   */\n      iszero\n      tag_151\n      jumpi\n        /* \"#utility.yul\":5836:5854   */\n      tag_152\n      tag_122\n      jump\t// in\n    tag_152:\n        /* \"#utility.yul\":5753:5856   */\n    tag_151:\n        /* \"#utility.yul\":5883:5884   */\n      0x01\n        /* \"#utility.yul\":5876:5881   */\n      dup3\n        /* \"#utility.yul\":5872:5885   */\n      add\n        /* \"#utility.yul\":5865:5885   */\n      swap1\n      pop\n        /* \"#utility.yul\":5658:5891   */\n      swap2\n      swap1\n      pop\n      jump\t// out\n        /* \"#utility.yul\":5897:6077   */\n    tag_35:\n        /* \"#utility.yul\":5945:6022   */\n      0x4e487b7100000000000000000000000000000000000000000000000000000000\n        /* \"#utility.yul\":5942:5943   */\n      0x00\n        /* \"#utility.yul\":5935:6023   */\n      mstore\n        /* \"#utility.yul\":6042:6046   */\n      0x01\n        /* \"#utility.yul\":6039:6040   */\n      0x04\n        /* \"#utility.yul\":6032:6047   */\n      mstore\n        /* \"#utility.yul\":6066:6070   */\n      0x24\n        /* \"#utility.yul\":6063:6064   */\n      0x00\n        /* \"#utility.yul\":6056:6071   */\n      revert\n        /* \"#utility.yul\":6083:6263   */\n    tag_122:\n        /* \"#utility.yul\":6131:6208   */\n      0x4e487b7100000000000000000000000000000000000000000000000000000000\n        /* \"#utility.yul\":6128:6129   */\n      0x00\n        /* \"#utility.yul\":6121:6209   */\n      mstore\n        /* \"#utility.yul\":6228:6232   */\n      0x11\n        /* \"#utility.yul\":6225:6226   */\n      0x04\n        /* \"#utility.yul\":6218:6233   */\n      mstore\n        /* \"#utility.yul\":6252:6256   */\n      0x24\n        /* \"#utility.yul\":6249:6250   */\n      0x00\n        /* \"#utility.yul\":6242:6257   */\n      revert\n        /* \"#utility.yul\":6269:6449   */\n    tag_128:\n        /* \"#utility.yul\":6317:6394   */\n      0x4e487b7100000000000000000000000000000000000000000000000000000000\n        /* \"#utility.yul\":6314:6315   */\n      0x00\n        /* \"#utility.yul\":6307:6395   */\n      mstore\n        /* \"#utility.yul\":6414:6418   */\n      0x12\n        /* \"#utility.yul\":6411:6412   */\n      0x04\n        /* \"#utility.yul\":6404:6419   */\n      mstore\n        /* \"#utility.yul\":6438:6442   */\n      0x24\n        /* \"#utility.yul\":6435:6436   */\n      0x00\n        /* \"#utility.yul\":6428:6443   */\n      revert\n        /* \"#utility.yul\":6578:6695   */\n    tag_79:\n        /* \"#utility.yul\":6687:6688   */\n      0x00\n        /* \"#utility.yul\":6684:6685   */\n      dup1\n        /* \"#utility.yul\":6677:6689   */\n      revert\n        /* \"#utility.yul\":6701:6867   */\n    tag_91:\n        /* \"#utility.yul\":6841:6859   */\n      0x4e6f7420656e6f7567682066756e647300000000000000000000000000000000\n        /* \"#utility.yul\":6837:6838   */\n      0x00\n        /* \"#utility.yul\":6829:6835   */\n      dup3\n        /* \"#utility.yul\":6825:6839   */\n      add\n        /* \"#utility.yul\":6818:6860   */\n      mstore\n        /* \"#utility.yul\":6701:6867   */\n      pop\n      jump\t// out\n        /* \"#utility.yul\":6873:7042   */\n    tag_96:\n        /* \"#utility.yul\":7013:7034   */\n      0x596f7520617265206e6f7420616c6c6f77656400000000000000000000000000\n        /* \"#utility.yul\":7009:7010   */\n      0x00\n        /* \"#utility.yul\":7001:7007   */\n      dup3\n        /* \"#utility.yul\":6997:7011   */\n      add\n        /* \"#utility.yul\":6990:7035   */\n      mstore\n        /* \"#utility.yul\":6873:7042   */\n      pop\n      jump\t// out\n        /* \"#utility.yul\":7048:7215   */\n    tag_101:\n        /* \"#utility.yul\":7188:7207   */\n      0x6e6f7420656e6f75676820746f6b656e73000000000000000000000000000000\n        /* \"#utility.yul\":7184:7185   */\n      0x00\n        /* \"#utility.yul\":7176:7182   */\n      dup3\n        /* \"#utility.yul\":7172:7186   */\n      add\n        /* \"#utility.yul\":7165:7208   */\n      mstore\n        /* \"#utility.yul\":7048:7215   */\n      pop\n      jump\t// out\n        /* \"#utility.yul\":7221:7343   */\n    tag_71:\n        /* \"#utility.yul\":7294:7318   */\n      tag_163\n        /* \"#utility.yul\":7312:7317   */\n      dup2\n        /* \"#utility.yul\":7294:7318   */\n      tag_139\n      jump\t// in\n    tag_163:\n        /* \"#utility.yul\":7287:7292   */\n      dup2\n        /* \"#utility.yul\":7284:7319   */\n      eq\n        /* \"#utility.yul\":7274:7337   */\n      tag_164\n      jumpi\n        /* \"#utility.yul\":7333:7334   */\n      0x00\n        /* \"#utility.yul\":7330:7331   */\n      dup1\n        /* \"#utility.yul\":7323:7335   */\n      revert\n        /* \"#utility.yul\":7274:7337   */\n    tag_164:\n        /* \"#utility.yul\":7221:7343   */\n      pop\n      jump\t// out\n        /* \"#utility.yul\":7349:7471   */\n    tag_75:\n        /* \"#utility.yul\":7422:7446   */\n      tag_166\n        /* \"#utility.yul\":7440:7445   */\n      dup2\n        /* \"#utility.yul\":7422:7446   */\n      tag_105\n      jump\t// in\n    tag_166:\n        /* \"#utility.yul\":7415:7420   */\n      dup2\n        /* \"#utility.yul\":7412:7447   */\n      eq\n        /* \"#utility.yul\":7402:7465   */\n      tag_167\n      jumpi\n        /* \"#utility.yul\":7461:7462   */\n      0x00\n        /* \"#utility.yul\":7458:7459   */\n      dup1\n        /* \"#utility.yul\":7451:7463   */\n      revert\n        /* \"#utility.yul\":7402:7465   */\n    tag_167:\n        /* \"#utility.yul\":7349:7471   */\n      pop\n      jump\t// out\n\n    auxdata: 0xa26469706673582212200a6cb7beb4cbba6cf1a83672e900c4cf8edd77e5beca9ed340756786d3c3efb464736f6c63430008070033\n}\n",
				"bytecode": {
					"linkReferences": {},
					"object": "6080604052670de0b6b3a764000060025534801561001c57600080fd5b5033600160006101000a81548173ffffffffffffffffffffffffffffffffffffffff021916908373ffffffffffffffffffffffffffffffffffffffff1602179055506064600080600160009054906101000a900473ffffffffffffffffffffffffffffffffffffffff1673ffffffffffffffffffffffffffffffffffffffff1673ffffffffffffffffffffffffffffffffffffffff16815260200190815260200160002081905550610be7806100d36000396000f3fe60806040526004361061004a5760003560e01c8063412664ae1461004f578063754fc38c14610078578063a95c4d621461008f578063eedc966a14610099578063faa0a264146100d6575b600080fd5b34801561005b57600080fd5b506100766004803603810190610071919061076e565b6100ed565b005b34801561008457600080fd5b5061008d61034c565b005b610097610454565b005b3480156100a557600080fd5b506100c060048036038101906100bb9190610741565b6105f7565b6040516100cd9190610886565b60405180910390f35b3480156100e257600080fd5b506100eb61060f565b005b806000803373ffffffffffffffffffffffffffffffffffffffff1673ffffffffffffffffffffffffffffffffffffffff16815260200190815260200160002054101561016e576040517f08c379a000000000000000000000000000000000000000000000000000000000815260040161016590610826565b60405180910390fd5b6000808373ffffffffffffffffffffffffffffffffffffffff1673ffffffffffffffffffffffffffffffffffffffff16815260200190815260200160002054816000808573ffffffffffffffffffffffffffffffffffffffff1673ffffffffffffffffffffffffffffffffffffffff168152602001908152602001600020546101f791906108b2565b101561020657610205610a76565b5b6000803373ffffffffffffffffffffffffffffffffffffffff1673ffffffffffffffffffffffffffffffffffffffff16815260200190815260200160002054816000803373ffffffffffffffffffffffffffffffffffffffff1673ffffffffffffffffffffffffffffffffffffffff1681526020019081526020016000205461028f9190610993565b111561029e5761029d610a76565b5b806000803373ffffffffffffffffffffffffffffffffffffffff1673ffffffffffffffffffffffffffffffffffffffff16815260200190815260200160002060008282546102ec9190610993565b92505081905550806000808473ffffffffffffffffffffffffffffffffffffffff1673ffffffffffffffffffffffffffffffffffffffff168152602001908152602001600020600082825461034191906108b2565b925050819055505050565b600160009054906101000a900473ffffffffffffffffffffffffffffffffffffffff1673ffffffffffffffffffffffffffffffffffffffff163373ffffffffffffffffffffffffffffffffffffffff16146103dc576040517f08c379a00000000000000000000000000000000000000000000000000000000081526004016103d390610846565b60405180910390fd5b600080600160009054906101000a900473ffffffffffffffffffffffffffffffffffffffff1673ffffffffffffffffffffffffffffffffffffffff1673ffffffffffffffffffffffffffffffffffffffff168152602001908152602001600020600081548092919061044d90610a2d565b9190505550565b600034600254600080600160009054906101000a900473ffffffffffffffffffffffffffffffffffffffff1673ffffffffffffffffffffffffffffffffffffffff1673ffffffffffffffffffffffffffffffffffffffff168152602001908152602001600020546104c59190610939565b6104cf9190610908565b1161050f576040517f08c379a000000000000000000000000000000000000000000000000000000000815260040161050690610866565b60405180910390fd5b6002543461051d9190610908565b600080600160009054906101000a900473ffffffffffffffffffffffffffffffffffffffff1673ffffffffffffffffffffffffffffffffffffffff1673ffffffffffffffffffffffffffffffffffffffff168152602001908152602001600020600082825461058c91906108b2565b92505081905550600254346105a19190610908565b6000803373ffffffffffffffffffffffffffffffffffffffff1673ffffffffffffffffffffffffffffffffffffffff16815260200190815260200160002060008282546105ee9190610993565b92505081905550565b60006020528060005260406000206000915090505481565b600160009054906101000a900473ffffffffffffffffffffffffffffffffffffffff1673ffffffffffffffffffffffffffffffffffffffff163373ffffffffffffffffffffffffffffffffffffffff161461069f576040517f08c379a000000000000000000000000000000000000000000000000000000000815260040161069690610846565b60405180910390fd5b600080600160009054906101000a900473ffffffffffffffffffffffffffffffffffffffff1673ffffffffffffffffffffffffffffffffffffffff1673ffffffffffffffffffffffffffffffffffffffff168152602001908152602001600020600081548092919061071090610a03565b9190505550565b60008135905061072681610b83565b92915050565b60008135905061073b81610b9a565b92915050565b60006020828403121561075757610756610b03565b5b600061076584828501610717565b91505092915050565b6000806040838503121561078557610784610b03565b5b600061079385828601610717565b92505060206107a48582860161072c565b9150509250929050565b60006107bb6010836108a1565b91506107c682610b08565b602082019050919050565b60006107de6013836108a1565b91506107e982610b31565b602082019050919050565b60006108016011836108a1565b915061080c82610b5a565b602082019050919050565b610820816109f9565b82525050565b6000602082019050818103600083015261083f816107ae565b9050919050565b6000602082019050818103600083015261085f816107d1565b9050919050565b6000602082019050818103600083015261087f816107f4565b9050919050565b600060208201905061089b6000830184610817565b92915050565b600082825260208201905092915050565b60006108bd826109f9565b91506108c8836109f9565b9250827fffffffffffffffffffffffffffffffffffffffffffffffffffffffffffffffff038211156108fd576108fc610aa5565b5b828201905092915050565b6000610913826109f9565b915061091e836109f9565b92508261092e5761092d610ad4565b5b828204905092915050565b6000610944826109f9565b915061094f836109f9565b9250817fffffffffffffffffffffffffffffffffffffffffffffffffffffffffffffffff048311821515161561098857610987610aa5565b5b828202905092915050565b600061099e826109f9565b91506109a9836109f9565b9250828210156109bc576109bb610aa5565b5b828203905092915050565b60006109d2826109d9565b9050919050565b600073ffffffffffffffffffffffffffffffffffffffff82169050919050565b6000819050919050565b6000610a0e826109f9565b91506000821415610a2257610a21610aa5565b5b600182039050919050565b6000610a38826109f9565b91507fffffffffffffffffffffffffffffffffffffffffffffffffffffffffffffffff821415610a6b57610a6a610aa5565b5b600182019050919050565b7f4e487b7100000000000000000000000000000000000000000000000000000000600052600160045260246000fd5b7f4e487b7100000000000000000000000000000000000000000000000000000000600052601160045260246000fd5b7f4e487b7100000000000000000000000000000000000000000000000000000000600052601260045260246000fd5b600080fd5b7f4e6f7420656e6f7567682066756e647300000000000000000000000000000000600082015250565b7f596f7520617265206e6f7420616c6c6f77656400000000000000000000000000600082015250565b7f6e6f7420656e6f75676820746f6b656e73000000000000000000000000000000600082015250565b610b8c816109c7565b8114610b9757600080fd5b50565b610ba3816109f9565b8114610bae57600080fd5b5056fea26469706673582212200a6cb7beb4cbba6cf1a83672e900c4cf8edd77e5beca9ed340756786d3c3efb464736f6c63430008070033",
					"opcodes": "PUSH1 0x80 PUSH1 0x40 MSTORE PUSH8 0xDE0B6B3A7640000 PUSH1 0x2 SSTORE CALLVALUE DUP1 ISZERO PUSH2 0x1C JUMPI PUSH1 0x0 DUP1 REVERT JUMPDEST POP CALLER PUSH1 0x1 PUSH1 0x0 PUSH2 0x100 EXP DUP2 SLOAD DUP2 PUSH20 0xFFFFFFFFFFFFFFFFFFFFFFFFFFFFFFFFFFFFFFFF MUL NOT AND SWAP1 DUP4 PUSH20 0xFFFFFFFFFFFFFFFFFFFFFFFFFFFFFFFFFFFFFFFF AND MUL OR SWAP1 SSTORE POP PUSH1 0x64 PUSH1 0x0 DUP1 PUSH1 0x1 PUSH1 0x0 SWAP1 SLOAD SWAP1 PUSH2 0x100 EXP SWAP1 DIV PUSH20 0xFFFFFFFFFFFFFFFFFFFFFFFFFFFFFFFFFFFFFFFF AND PUSH20 0xFFFFFFFFFFFFFFFFFFFFFFFFFFFFFFFFFFFFFFFF AND PUSH20 0xFFFFFFFFFFFFFFFFFFFFFFFFFFFFFFFFFFFFFFFF AND DUP2 MSTORE PUSH1 0x20 ADD SWAP1 DUP2 MSTORE PUSH1 0x20 ADD PUSH1 0x0 KECCAK256 DUP2 SWAP1 SSTORE POP PUSH2 0xBE7 DUP1 PUSH2 0xD3 PUSH1 0x0 CODECOPY PUSH1 0x0 RETURN INVALID PUSH1 0x80 PUSH1 0x40 MSTORE PUSH1 0x4 CALLDATASIZE LT PUSH2 0x4A JUMPI PUSH1 0x0 CALLDATALOAD PUSH1 0xE0 SHR DUP1 PUSH4 0x412664AE EQ PUSH2 0x4F JUMPI DUP1 PUSH4 0x754FC38C EQ PUSH2 0x78 JUMPI DUP1 PUSH4 0xA95C4D62 EQ PUSH2 0x8F JUMPI DUP1 PUSH4 0xEEDC966A EQ PUSH2 0x99 JUMPI DUP1 PUSH4 0xFAA0A264 EQ PUSH2 0xD6 JUMPI JUMPDEST PUSH1 0x0 DUP1 REVERT JUMPDEST CALLVALUE DUP1 ISZERO PUSH2 0x5B JUMPI PUSH1 0x0 DUP1 REVERT JUMPDEST POP PUSH2 0x76 PUSH1 0x4 DUP1 CALLDATASIZE SUB DUP2 ADD SWAP1 PUSH2 0x71 SWAP2 SWAP1 PUSH2 0x76E JUMP JUMPDEST PUSH2 0xED JUMP JUMPDEST STOP JUMPDEST CALLVALUE DUP1 ISZERO PUSH2 0x84 JUMPI PUSH1 0x0 DUP1 REVERT JUMPDEST POP PUSH2 0x8D PUSH2 0x34C JUMP JUMPDEST STOP JUMPDEST PUSH2 0x97 PUSH2 0x454 JUMP JUMPDEST STOP JUMPDEST CALLVALUE DUP1 ISZERO PUSH2 0xA5 JUMPI PUSH1 0x0 DUP1 REVERT JUMPDEST POP PUSH2 0xC0 PUSH1 0x4 DUP1 CALLDATASIZE SUB DUP2 ADD SWAP1 PUSH2 0xBB SWAP2 SWAP1 PUSH2 0x741 JUMP JUMPDEST PUSH2 0x5F7 JUMP JUMPDEST PUSH1 0x40 MLOAD PUSH2 0xCD SWAP2 SWAP1 PUSH2 0x886 JUMP JUMPDEST PUSH1 0x40 MLOAD DUP1 SWAP2 SUB SWAP1 RETURN JUMPDEST CALLVALUE DUP1 ISZERO PUSH2 0xE2 JUMPI PUSH1 0x0 DUP1 REVERT JUMPDEST POP PUSH2 0xEB PUSH2 0x60F JUMP JUMPDEST STOP JUMPDEST DUP1 PUSH1 0x0 DUP1 CALLER PUSH20 0xFFFFFFFFFFFFFFFFFFFFFFFFFFFFFFFFFFFFFFFF AND PUSH20 0xFFFFFFFFFFFFFFFFFFFFFFFFFFFFFFFFFFFFFFFF AND DUP2 MSTORE PUSH1 0x20 ADD SWAP1 DUP2 MSTORE PUSH1 0x20 ADD PUSH1 0x0 KECCAK256 SLOAD LT ISZERO PUSH2 0x16E JUMPI PUSH1 0x40 MLOAD PUSH32 0x8C379A000000000000000000000000000000000000000000000000000000000 DUP2 MSTORE PUSH1 0x4 ADD PUSH2 0x165 SWAP1 PUSH2 0x826 JUMP JUMPDEST PUSH1 0x40 MLOAD DUP1 SWAP2 SUB SWAP1 REVERT JUMPDEST PUSH1 0x0 DUP1 DUP4 PUSH20 0xFFFFFFFFFFFFFFFFFFFFFFFFFFFFFFFFFFFFFFFF AND PUSH20 0xFFFFFFFFFFFFFFFFFFFFFFFFFFFFFFFFFFFFFFFF AND DUP2 MSTORE PUSH1 0x20 ADD SWAP1 DUP2 MSTORE PUSH1 0x20 ADD PUSH1 0x0 KECCAK256 SLOAD DUP2 PUSH1 0x0 DUP1 DUP6 PUSH20 0xFFFFFFFFFFFFFFFFFFFFFFFFFFFFFFFFFFFFFFFF AND PUSH20 0xFFFFFFFFFFFFFFFFFFFFFFFFFFFFFFFFFFFFFFFF AND DUP2 MSTORE PUSH1 0x20 ADD SWAP1 DUP2 MSTORE PUSH1 0x20 ADD PUSH1 0x0 KECCAK256 SLOAD PUSH2 0x1F7 SWAP2 SWAP1 PUSH2 0x8B2 JUMP JUMPDEST LT ISZERO PUSH2 0x206 JUMPI PUSH2 0x205 PUSH2 0xA76 JUMP JUMPDEST JUMPDEST PUSH1 0x0 DUP1 CALLER PUSH20 0xFFFFFFFFFFFFFFFFFFFFFFFFFFFFFFFFFFFFFFFF AND PUSH20 0xFFFFFFFFFFFFFFFFFFFFFFFFFFFFFFFFFFFFFFFF AND DUP2 MSTORE PUSH1 0x20 ADD SWAP1 DUP2 MSTORE PUSH1 0x20 ADD PUSH1 0x0 KECCAK256 SLOAD DUP2 PUSH1 0x0 DUP1 CALLER PUSH20 0xFFFFFFFFFFFFFFFFFFFFFFFFFFFFFFFFFFFFFFFF AND PUSH20 0xFFFFFFFFFFFFFFFFFFFFFFFFFFFFFFFFFFFFFFFF AND DUP2 MSTORE PUSH1 0x20 ADD SWAP1 DUP2 MSTORE PUSH1 0x20 ADD PUSH1 0x0 KECCAK256 SLOAD PUSH2 0x28F SWAP2 SWAP1 PUSH2 0x993 JUMP JUMPDEST GT ISZERO PUSH2 0x29E JUMPI PUSH2 0x29D PUSH2 0xA76 JUMP JUMPDEST JUMPDEST DUP1 PUSH1 0x0 DUP1 CALLER PUSH20 0xFFFFFFFFFFFFFFFFFFFFFFFFFFFFFFFFFFFFFFFF AND PUSH20 0xFFFFFFFFFFFFFFFFFFFFFFFFFFFFFFFFFFFFFFFF AND DUP2 MSTORE PUSH1 0x20 ADD SWAP1 DUP2 MSTORE PUSH1 0x20 ADD PUSH1 0x0 KECCAK256 PUSH1 0x0 DUP3 DUP3 SLOAD PUSH2 0x2EC SWAP2 SWAP1 PUSH2 0x993 JUMP JUMPDEST SWAP3 POP POP DUP2 SWAP1 SSTORE POP DUP1 PUSH1 0x0 DUP1 DUP5 PUSH20 0xFFFFFFFFFFFFFFFFFFFFFFFFFFFFFFFFFFFFFFFF AND PUSH20 0xFFFFFFFFFFFFFFFFFFFFFFFFFFFFFFFFFFFFFFFF AND DUP2 MSTORE PUSH1 0x20 ADD SWAP1 DUP2 MSTORE PUSH1 0x20 ADD PUSH1 0x0 KECCAK256 PUSH1 0x0 DUP3 DUP3 SLOAD PUSH2 0x341 SWAP2 SWAP1 PUSH2 0x8B2 JUMP JUMPDEST SWAP3 POP POP DUP2 SWAP1 SSTORE POP POP POP JUMP JUMPDEST PUSH1 0x1 PUSH1 0x0 SWAP1 SLOAD SWAP1 PUSH2 0x100 EXP SWAP1 DIV PUSH20 0xFFFFFFFFFFFFFFFFFFFFFFFFFFFFFFFFFFFFFFFF AND PUSH20 0xFFFFFFFFFFFFFFFFFFFFFFFFFFFFFFFFFFFFFFFF AND CALLER PUSH20 0xFFFFFFFFFFFFFFFFFFFFFFFFFFFFFFFFFFFFFFFF AND EQ PUSH2 0x3DC JUMPI PUSH1 0x40 MLOAD PUSH32 0x8C379A000000000000000000000000000000000000000000000000000000000 DUP2 MSTORE PUSH1 0x4 ADD PUSH2 0x3D3 SWAP1 PUSH2 0x846 JUMP JUMPDEST PUSH1 0x40 MLOAD DUP1 SWAP2 SUB SWAP1 REVERT JUMPDEST PUSH1 0x0 DUP1 PUSH1 0x1 PUSH1 0x0 SWAP1 SLOAD SWAP1 PUSH2 0x100 EXP SWAP1 DIV PUSH20 0xFFFFFFFFFFFFFFFFFFFFFFFFFFFFFFFFFFFFFFFF AND PUSH20 0xFFFFFFFFFFFFFFFFFFFFFFFFFFFFFFFFFFFFFFFF AND PUSH20 0xFFFFFFFFFFFFFFFFFFFFFFFFFFFFFFFFFFFFFFFF AND DUP2 MSTORE PUSH1 0x20 ADD SWAP1 DUP2 MSTORE PUSH1 0x20 ADD PUSH1 0x0 KECCAK256 PUSH1 0x0 DUP2 SLOAD DUP1 SWAP3 SWAP2 SWAP1 PUSH2 0x44D SWAP1 PUSH2 0xA2D JUMP JUMPDEST SWAP2 SWAP1 POP SSTORE POP JUMP JUMPDEST PUSH1 0x0 CALLVALUE PUSH1 0x2 SLOAD PUSH1 0x0 DUP1 PUSH1 0x1 PUSH1 0x0 SWAP1 SLOAD SWAP1 PUSH2 0x100 EXP SWAP1 DIV PUSH20 0xFFFFFFFFFFFFFFFFFFFFFFFFFFFFFFFFFFFFFFFF AND PUSH20 0xFFFFFFFFFFFFFFFFFFFFFFFFFFFFFFFFFFFFFFFF AND PUSH20 0xFFFFFFFFFFFFFFFFFFFFFFFFFFFFFFFFFFFFFFFF AND DUP2 MSTORE PUSH1 0x20 ADD SWAP1 DUP2 MSTORE PUSH1 0x20 ADD PUSH1 0x0 KECCAK256 SLOAD PUSH2 0x4C5 SWAP2 SWAP1 PUSH2 0x939 JUMP JUMPDEST PUSH2 0x4CF SWAP2 SWAP1 PUSH2 0x908 JUMP JUMPDEST GT PUSH2 0x50F JUMPI PUSH1 0x40 MLOAD PUSH32 0x8C379A000000000000000000000000000000000000000000000000000000000 DUP2 MSTORE PUSH1 0x4 ADD PUSH2 0x506 SWAP1 PUSH2 0x866 JUMP JUMPDEST PUSH1 0x40 MLOAD DUP1 SWAP2 SUB SWAP1 REVERT JUMPDEST PUSH1 0x2 SLOAD CALLVALUE PUSH2 0x51D SWAP2 SWAP1 PUSH2 0x908 JUMP JUMPDEST PUSH1 0x0 DUP1 PUSH1 0x1 PUSH1 0x0 SWAP1 SLOAD SWAP1 PUSH2 0x100 EXP SWAP1 DIV PUSH20 0xFFFFFFFFFFFFFFFFFFFFFFFFFFFFFFFFFFFFFFFF AND PUSH20 0xFFFFFFFFFFFFFFFFFFFFFFFFFFFFFFFFFFFFFFFF AND PUSH20 0xFFFFFFFFFFFFFFFFFFFFFFFFFFFFFFFFFFFFFFFF AND DUP2 MSTORE PUSH1 0x20 ADD SWAP1 DUP2 MSTORE PUSH1 0x20 ADD PUSH1 0x0 KECCAK256 PUSH1 0x0 DUP3 DUP3 SLOAD PUSH2 0x58C SWAP2 SWAP1 PUSH2 0x8B2 JUMP JUMPDEST SWAP3 POP POP DUP2 SWAP1 SSTORE POP PUSH1 0x2 SLOAD CALLVALUE PUSH2 0x5A1 SWAP2 SWAP1 PUSH2 0x908 JUMP JUMPDEST PUSH1 0x0 DUP1 CALLER PUSH20 0xFFFFFFFFFFFFFFFFFFFFFFFFFFFFFFFFFFFFFFFF AND PUSH20 0xFFFFFFFFFFFFFFFFFFFFFFFFFFFFFFFFFFFFFFFF AND DUP2 MSTORE PUSH1 0x20 ADD SWAP1 DUP2 MSTORE PUSH1 0x20 ADD PUSH1 0x0 KECCAK256 PUSH1 0x0 DUP3 DUP3 SLOAD PUSH2 0x5EE SWAP2 SWAP1 PUSH2 0x993 JUMP JUMPDEST SWAP3 POP POP DUP2 SWAP1 SSTORE POP JUMP JUMPDEST PUSH1 0x0 PUSH1 0x20 MSTORE DUP1 PUSH1 0x0 MSTORE PUSH1 0x40 PUSH1 0x0 KECCAK256 PUSH1 0x0 SWAP2 POP SWAP1 POP SLOAD DUP2 JUMP JUMPDEST PUSH1 0x1 PUSH1 0x0 SWAP1 SLOAD SWAP1 PUSH2 0x100 EXP SWAP1 DIV PUSH20 0xFFFFFFFFFFFFFFFFFFFFFFFFFFFFFFFFFFFFFFFF AND PUSH20 0xFFFFFFFFFFFFFFFFFFFFFFFFFFFFFFFFFFFFFFFF AND CALLER PUSH20 0xFFFFFFFFFFFFFFFFFFFFFFFFFFFFFFFFFFFFFFFF AND EQ PUSH2 0x69F JUMPI PUSH1 0x40 MLOAD PUSH32 0x8C379A000000000000000000000000000000000000000000000000000000000 DUP2 MSTORE PUSH1 0x4 ADD PUSH2 0x696 SWAP1 PUSH2 0x846 JUMP JUMPDEST PUSH1 0x40 MLOAD DUP1 SWAP2 SUB SWAP1 REVERT JUMPDEST PUSH1 0x0 DUP1 PUSH1 0x1 PUSH1 0x0 SWAP1 SLOAD SWAP1 PUSH2 0x100 EXP SWAP1 DIV PUSH20 0xFFFFFFFFFFFFFFFFFFFFFFFFFFFFFFFFFFFFFFFF AND PUSH20 0xFFFFFFFFFFFFFFFFFFFFFFFFFFFFFFFFFFFFFFFF AND PUSH20 0xFFFFFFFFFFFFFFFFFFFFFFFFFFFFFFFFFFFFFFFF AND DUP2 MSTORE PUSH1 0x20 ADD SWAP1 DUP2 MSTORE PUSH1 0x20 ADD PUSH1 0x0 KECCAK256 PUSH1 0x0 DUP2 SLOAD DUP1 SWAP3 SWAP2 SWAP1 PUSH2 0x710 SWAP1 PUSH2 0xA03 JUMP JUMPDEST SWAP2 SWAP1 POP SSTORE POP JUMP JUMPDEST PUSH1 0x0 DUP2 CALLDATALOAD SWAP1 POP PUSH2 0x726 DUP2 PUSH2 0xB83 JUMP JUMPDEST SWAP3 SWAP2 POP POP JUMP JUMPDEST PUSH1 0x0 DUP2 CALLDATALOAD SWAP1 POP PUSH2 0x73B DUP2 PUSH2 0xB9A JUMP JUMPDEST SWAP3 SWAP2 POP POP JUMP JUMPDEST PUSH1 0x0 PUSH1 0x20 DUP3 DUP5 SUB SLT ISZERO PUSH2 0x757 JUMPI PUSH2 0x756 PUSH2 0xB03 JUMP JUMPDEST JUMPDEST PUSH1 0x0 PUSH2 0x765 DUP5 DUP3 DUP6 ADD PUSH2 0x717 JUMP JUMPDEST SWAP2 POP POP SWAP3 SWAP2 POP POP JUMP JUMPDEST PUSH1 0x0 DUP1 PUSH1 0x40 DUP4 DUP6 SUB SLT ISZERO PUSH2 0x785 JUMPI PUSH2 0x784 PUSH2 0xB03 JUMP JUMPDEST JUMPDEST PUSH1 0x0 PUSH2 0x793 DUP6 DUP3 DUP7 ADD PUSH2 0x717 JUMP JUMPDEST SWAP3 POP POP PUSH1 0x20 PUSH2 0x7A4 DUP6 DUP3 DUP7 ADD PUSH2 0x72C JUMP JUMPDEST SWAP2 POP POP SWAP3 POP SWAP3 SWAP1 POP JUMP JUMPDEST PUSH1 0x0 PUSH2 0x7BB PUSH1 0x10 DUP4 PUSH2 0x8A1 JUMP JUMPDEST SWAP2 POP PUSH2 0x7C6 DUP3 PUSH2 0xB08 JUMP JUMPDEST PUSH1 0x20 DUP3 ADD SWAP1 POP SWAP2 SWAP1 POP JUMP JUMPDEST PUSH1 0x0 PUSH2 0x7DE PUSH1 0x13 DUP4 PUSH2 0x8A1 JUMP JUMPDEST SWAP2 POP PUSH2 0x7E9 DUP3 PUSH2 0xB31 JUMP JUMPDEST PUSH1 0x20 DUP3 ADD SWAP1 POP SWAP2 SWAP1 POP JUMP JUMPDEST PUSH1 0x0 PUSH2 0x801 PUSH1 0x11 DUP4 PUSH2 0x8A1 JUMP JUMPDEST SWAP2 POP PUSH2 0x80C DUP3 PUSH2 0xB5A JUMP JUMPDEST PUSH1 0x20 DUP3 ADD SWAP1 POP SWAP2 SWAP1 POP JUMP JUMPDEST PUSH2 0x820 DUP2 PUSH2 0x9F9 JUMP JUMPDEST DUP3 MSTORE POP POP JUMP JUMPDEST PUSH1 0x0 PUSH1 0x20 DUP3 ADD SWAP1 POP DUP2 DUP2 SUB PUSH1 0x0 DUP4 ADD MSTORE PUSH2 0x83F DUP2 PUSH2 0x7AE JUMP JUMPDEST SWAP1 POP SWAP2 SWAP1 POP JUMP JUMPDEST PUSH1 0x0 PUSH1 0x20 DUP3 ADD SWAP1 POP DUP2 DUP2 SUB PUSH1 0x0 DUP4 ADD MSTORE PUSH2 0x85F DUP2 PUSH2 0x7D1 JUMP JUMPDEST SWAP1 POP SWAP2 SWAP1 POP JUMP JUMPDEST PUSH1 0x0 PUSH1 0x20 DUP3 ADD SWAP1 POP DUP2 DUP2 SUB PUSH1 0x0 DUP4 ADD MSTORE PUSH2 0x87F DUP2 PUSH2 0x7F4 JUMP JUMPDEST SWAP1 POP SWAP2 SWAP1 POP JUMP JUMPDEST PUSH1 0x0 PUSH1 0x20 DUP3 ADD SWAP1 POP PUSH2 0x89B PUSH1 0x0 DUP4 ADD DUP5 PUSH2 0x817 JUMP JUMPDEST SWAP3 SWAP2 POP POP JUMP JUMPDEST PUSH1 0x0 DUP3 DUP3 MSTORE PUSH1 0x20 DUP3 ADD SWAP1 POP SWAP3 SWAP2 POP POP JUMP JUMPDEST PUSH1 0x0 PUSH2 0x8BD DUP3 PUSH2 0x9F9 JUMP JUMPDEST SWAP2 POP PUSH2 0x8C8 DUP4 PUSH2 0x9F9 JUMP JUMPDEST SWAP3 POP DUP3 PUSH32 0xFFFFFFFFFFFFFFFFFFFFFFFFFFFFFFFFFFFFFFFFFFFFFFFFFFFFFFFFFFFFFFFF SUB DUP3 GT ISZERO PUSH2 0x8FD JUMPI PUSH2 0x8FC PUSH2 0xAA5 JUMP JUMPDEST JUMPDEST DUP3 DUP3 ADD SWAP1 POP SWAP3 SWAP2 POP POP JUMP JUMPDEST PUSH1 0x0 PUSH2 0x913 DUP3 PUSH2 0x9F9 JUMP JUMPDEST SWAP2 POP PUSH2 0x91E DUP4 PUSH2 0x9F9 JUMP JUMPDEST SWAP3 POP DUP3 PUSH2 0x92E JUMPI PUSH2 0x92D PUSH2 0xAD4 JUMP JUMPDEST JUMPDEST DUP3 DUP3 DIV SWAP1 POP SWAP3 SWAP2 POP POP JUMP JUMPDEST PUSH1 0x0 PUSH2 0x944 DUP3 PUSH2 0x9F9 JUMP JUMPDEST SWAP2 POP PUSH2 0x94F DUP4 PUSH2 0x9F9 JUMP JUMPDEST SWAP3 POP DUP2 PUSH32 0xFFFFFFFFFFFFFFFFFFFFFFFFFFFFFFFFFFFFFFFFFFFFFFFFFFFFFFFFFFFFFFFF DIV DUP4 GT DUP3 ISZERO ISZERO AND ISZERO PUSH2 0x988 JUMPI PUSH2 0x987 PUSH2 0xAA5 JUMP JUMPDEST JUMPDEST DUP3 DUP3 MUL SWAP1 POP SWAP3 SWAP2 POP POP JUMP JUMPDEST PUSH1 0x0 PUSH2 0x99E DUP3 PUSH2 0x9F9 JUMP JUMPDEST SWAP2 POP PUSH2 0x9A9 DUP4 PUSH2 0x9F9 JUMP JUMPDEST SWAP3 POP DUP3 DUP3 LT ISZERO PUSH2 0x9BC JUMPI PUSH2 0x9BB PUSH2 0xAA5 JUMP JUMPDEST JUMPDEST DUP3 DUP3 SUB SWAP1 POP SWAP3 SWAP2 POP POP JUMP JUMPDEST PUSH1 0x0 PUSH2 0x9D2 DUP3 PUSH2 0x9D9 JUMP JUMPDEST SWAP1 POP SWAP2 SWAP1 POP JUMP JUMPDEST PUSH1 0x0 PUSH20 0xFFFFFFFFFFFFFFFFFFFFFFFFFFFFFFFFFFFFFFFF DUP3 AND SWAP1 POP SWAP2 SWAP1 POP JUMP JUMPDEST PUSH1 0x0 DUP2 SWAP1 POP SWAP2 SWAP1 POP JUMP JUMPDEST PUSH1 0x0 PUSH2 0xA0E DUP3 PUSH2 0x9F9 JUMP JUMPDEST SWAP2 POP PUSH1 0x0 DUP3 EQ ISZERO PUSH2 0xA22 JUMPI PUSH2 0xA21 PUSH2 0xAA5 JUMP JUMPDEST JUMPDEST PUSH1 0x1 DUP3 SUB SWAP1 POP SWAP2 SWAP1 POP JUMP JUMPDEST PUSH1 0x0 PUSH2 0xA38 DUP3 PUSH2 0x9F9 JUMP JUMPDEST SWAP2 POP PUSH32 0xFFFFFFFFFFFFFFFFFFFFFFFFFFFFFFFFFFFFFFFFFFFFFFFFFFFFFFFFFFFFFFFF DUP3 EQ ISZERO PUSH2 0xA6B JUMPI PUSH2 0xA6A PUSH2 0xAA5 JUMP JUMPDEST JUMPDEST PUSH1 0x1 DUP3 ADD SWAP1 POP SWAP2 SWAP1 POP JUMP JUMPDEST PUSH32 0x4E487B7100000000000000000000000000000000000000000000000000000000 PUSH1 0x0 MSTORE PUSH1 0x1 PUSH1 0x4 MSTORE PUSH1 0x24 PUSH1 0x0 REVERT JUMPDEST PUSH32 0x4E487B7100000000000000000000000000000000000000000000000000000000 PUSH1 0x0 MSTORE PUSH1 0x11 PUSH1 0x4 MSTORE PUSH1 0x24 PUSH1 0x0 REVERT JUMPDEST PUSH32 0x4E487B7100000000000000000000000000000000000000000000000000000000 PUSH1 0x0 MSTORE PUSH1 0x12 PUSH1 0x4 MSTORE PUSH1 0x24 PUSH1 0x0 REVERT JUMPDEST PUSH1 0x0 DUP1 REVERT JUMPDEST PUSH32 0x4E6F7420656E6F7567682066756E647300000000000000000000000000000000 PUSH1 0x0 DUP3 ADD MSTORE POP JUMP JUMPDEST PUSH32 0x596F7520617265206E6F7420616C6C6F77656400000000000000000000000000 PUSH1 0x0 DUP3 ADD MSTORE POP JUMP JUMPDEST PUSH32 0x6E6F7420656E6F75676820746F6B656E73000000000000000000000000000000 PUSH1 0x0 DUP3 ADD MSTORE POP JUMP JUMPDEST PUSH2 0xB8C DUP2 PUSH2 0x9C7 JUMP JUMPDEST DUP2 EQ PUSH2 0xB97 JUMPI PUSH1 0x0 DUP1 REVERT JUMPDEST POP JUMP JUMPDEST PUSH2 0xBA3 DUP2 PUSH2 0x9F9 JUMP JUMPDEST DUP2 EQ PUSH2 0xBAE JUMPI PUSH1 0x0 DUP1 REVERT JUMPDEST POP JUMP INVALID LOG2 PUSH5 0x6970667358 0x22 SLT KECCAK256 EXP PUSH13 0xB7BEB4CBBA6CF1A83672E900C4 0xCF DUP15 0xDD PUSH24 0xE5BECA9ED340756786D3C3EFB464736F6C63430008070033 "
				},
				"gasEstimates": {
					"creation": {
						"codeDepositCost": "609400",
						"executionCost": "71357",
						"totalCost": "680757"
					},
					"external": {
						"burnToken()": "28966",
						"createNewToken()": "28900",
						"purchaseToken()": "infinite",
						"sendToken(address,uint256)": "infinite",
						"tokenBalance(address)": "2858"
					}
				},
				"methodIdentifiers": {
					"burnToken()": "faa0a264",
					"createNewToken()": "754fc38c",
					"purchaseToken()": "a95c4d62",
					"sendToken(address,uint256)": "412664ae",
					"tokenBalance(address)": "eedc966a"
				}
			},
			"storageLayout": {
				"storage": [
					{
						"astId": 5,
						"contract": "InheritanceModifierExample.sol:InheritanceModifierExample",
						"label": "tokenBalance",
						"offset": 0,
						"slot": "0",
						"type": "t_mapping(t_address,t_uint256)"
					},
					{
						"astId": 7,
						"contract": "InheritanceModifierExample.sol:InheritanceModifierExample",
						"label": "owner",
						"offset": 0,
						"slot": "1",
						"type": "t_address"
					},
					{
						"astId": 10,
						"contract": "InheritanceModifierExample.sol:InheritanceModifierExample",
						"label": "tokenPrice",
						"offset": 0,
						"slot": "2",
						"type": "t_uint256"
					}
				],
				"types": {
					"t_address": {
						"encoding": "inplace",
						"label": "address",
						"numberOfBytes": "20"
					},
					"t_mapping(t_address,t_uint256)": {
						"encoding": "mapping",
						"key": "t_address",
						"label": "mapping(address => uint256)",
						"numberOfBytes": "32",
						"value": "t_uint256"
					},
					"t_uint256": {
						"encoding": "inplace",
						"label": "uint256",
						"numberOfBytes": "32"
					}
				}
			},
			"userdoc": {
				"kind": "user",
				"methods": {},
				"version": 1
			}
		}
	}
}