{
	"FallBackExample.sol": {
		"FunctionsExample": {
			"abi": [
				{
					"inputs": [],
					"stateMutability": "nonpayable",
					"type": "constructor"
				},
				{
					"inputs": [
						{
							"internalType": "address",
							"name": "",
							"type": "address"
						}
					],
					"name": "balanceReceived",
					"outputs": [
						{
							"internalType": "uint256",
							"name": "",
							"type": "uint256"
						}
					],
					"stateMutability": "view",
					"type": "function"
				},
				{
					"inputs": [
						{
							"internalType": "uint256",
							"name": "_amount",
							"type": "uint256"
						}
					],
					"name": "convertWeiToEth",
					"outputs": [
						{
							"internalType": "uint256",
							"name": "",
							"type": "uint256"
						}
					],
					"stateMutability": "pure",
					"type": "function"
				},
				{
					"inputs": [],
					"name": "destroySmartContract",
					"outputs": [],
					"stateMutability": "nonpayable",
					"type": "function"
				},
				{
					"inputs": [],
					"name": "getOwner",
					"outputs": [
						{
							"internalType": "address",
							"name": "",
							"type": "address"
						}
					],
					"stateMutability": "view",
					"type": "function"
				},
				{
					"inputs": [],
					"name": "owner",
					"outputs": [
						{
							"internalType": "address payable",
							"name": "",
							"type": "address"
						}
					],
					"stateMutability": "view",
					"type": "function"
				},
				{
					"inputs": [],
					"name": "receiveMoney",
					"outputs": [],
					"stateMutability": "payable",
					"type": "function"
				},
				{
					"inputs": [
						{
							"internalType": "address payable",
							"name": "_to",
							"type": "address"
						},
						{
							"internalType": "uint256",
							"name": "_amount",
							"type": "uint256"
						}
					],
					"name": "withdrawMoney",
					"outputs": [],
					"stateMutability": "nonpayable",
					"type": "function"
				},
				{
					"stateMutability": "payable",
					"type": "receive"
				}
			],
			"devdoc": {
				"kind": "dev",
				"methods": {},
				"version": 1
			},
			"evm": {
				"assembly": "    /* \"FallBackExample.sol\":26:1222  contract FunctionsExample {\r... */\n  mstore(0x40, 0x80)\n    /* \"FallBackExample.sol\":163:224  constructor(){\r... */\n  callvalue\n  dup1\n  iszero\n  tag_1\n  jumpi\n  0x00\n  dup1\n  revert\ntag_1:\n  pop\n    /* \"FallBackExample.sol\":202:212  msg.sender */\n  caller\n    /* \"FallBackExample.sol\":188:193  owner */\n  0x01\n  0x00\n    /* \"FallBackExample.sol\":188:213  owner=payable(msg.sender) */\n  0x0100\n  exp\n  dup2\n  sload\n  dup2\n  0xffffffffffffffffffffffffffffffffffffffff\n  mul\n  not\n  and\n  swap1\n  dup4\n  0xffffffffffffffffffffffffffffffffffffffff\n  and\n  mul\n  or\n  swap1\n  sstore\n  pop\n    /* \"FallBackExample.sol\":26:1222  contract FunctionsExample {\r... */\n  dataSize(sub_0)\n  dup1\n  dataOffset(sub_0)\n  0x00\n  codecopy\n  0x00\n  return\nstop\n\nsub_0: assembly {\n        /* \"FallBackExample.sol\":26:1222  contract FunctionsExample {\r... */\n      mstore(0x40, 0x80)\n      jumpi(tag_1, lt(calldatasize, 0x04))\n      shr(0xe0, calldataload(0x00))\n      dup1\n      0x893d20e8\n      gt\n      tag_10\n      jumpi\n      dup1\n      0x893d20e8\n      eq\n      tag_6\n      jumpi\n      dup1\n      0x8da5cb5b\n      eq\n      tag_7\n      jumpi\n      dup1\n      0xd18a42e1\n      eq\n      tag_8\n      jumpi\n      dup1\n      0xf274c897\n      eq\n      tag_9\n      jumpi\n      jump(tag_2)\n    tag_10:\n      dup1\n      0x0718b2f8\n      eq\n      tag_3\n      jumpi\n      dup1\n      0x6d26ec18\n      eq\n      tag_4\n      jumpi\n      dup1\n      0x85474728\n      eq\n      tag_5\n      jumpi\n      jump(tag_2)\n    tag_1:\n      jumpi(tag_2, calldatasize)\n        /* \"FallBackExample.sol\":1195:1209  receiveMoney() */\n      tag_13\n        /* \"FallBackExample.sol\":1195:1207  receiveMoney */\n      tag_14\n        /* \"FallBackExample.sol\":1195:1209  receiveMoney() */\n      jump\t// in\n    tag_13:\n        /* \"FallBackExample.sol\":26:1222  contract FunctionsExample {\r... */\n      stop\n    tag_2:\n      0x00\n      dup1\n      revert\n        /* \"FallBackExample.sol\":329:440  function convertWeiToEth(uint _amount) public pure returns (uint) {\r... */\n    tag_3:\n      callvalue\n      dup1\n      iszero\n      tag_15\n      jumpi\n      0x00\n      dup1\n      revert\n    tag_15:\n      pop\n      tag_16\n      0x04\n      dup1\n      calldatasize\n      sub\n      dup2\n      add\n      swap1\n      tag_17\n      swap2\n      swap1\n      tag_18\n      jump\t// in\n    tag_17:\n      tag_19\n      jump\t// in\n    tag_16:\n      mload(0x40)\n      tag_20\n      swap2\n      swap1\n      tag_21\n      jump\t// in\n    tag_20:\n      mload(0x40)\n      dup1\n      swap2\n      sub\n      swap1\n      return\n        /* \"FallBackExample.sol\":602:807  function receiveMoney () public payable {\r... */\n    tag_4:\n      tag_22\n      tag_14\n      jump\t// in\n    tag_22:\n      stop\n        /* \"FallBackExample.sol\":449:593  function destroySmartContract() public{\r... */\n    tag_5:\n      callvalue\n      dup1\n      iszero\n      tag_23\n      jumpi\n      0x00\n      dup1\n      revert\n    tag_23:\n      pop\n      tag_24\n      tag_25\n      jump\t// in\n    tag_24:\n      stop\n        /* \"FallBackExample.sol\":233:320  function getOwner() public view returns (address) {\r... */\n    tag_6:\n      callvalue\n      dup1\n      iszero\n      tag_26\n      jumpi\n      0x00\n      dup1\n      revert\n    tag_26:\n      pop\n      tag_27\n      tag_28\n      jump\t// in\n    tag_27:\n      mload(0x40)\n      tag_29\n      swap2\n      swap1\n      tag_30\n      jump\t// in\n    tag_29:\n      mload(0x40)\n      dup1\n      swap2\n      sub\n      swap1\n      return\n        /* \"FallBackExample.sol\":125:153  address payable public owner */\n    tag_7:\n      callvalue\n      dup1\n      iszero\n      tag_31\n      jumpi\n      0x00\n      dup1\n      revert\n    tag_31:\n      pop\n      tag_32\n      tag_33\n      jump\t// in\n    tag_32:\n      mload(0x40)\n      tag_34\n      swap2\n      swap1\n      tag_35\n      jump\t// in\n    tag_34:\n      mload(0x40)\n      dup1\n      swap2\n      sub\n      swap1\n      return\n        /* \"FallBackExample.sol\":67:115  mapping (address => uint) public balanceReceived */\n    tag_8:\n      callvalue\n      dup1\n      iszero\n      tag_36\n      jumpi\n      0x00\n      dup1\n      revert\n    tag_36:\n      pop\n      tag_37\n      0x04\n      dup1\n      calldatasize\n      sub\n      dup2\n      add\n      swap1\n      tag_38\n      swap2\n      swap1\n      tag_39\n      jump\t// in\n    tag_38:\n      tag_40\n      jump\t// in\n    tag_37:\n      mload(0x40)\n      tag_41\n      swap2\n      swap1\n      tag_21\n      jump\t// in\n    tag_41:\n      mload(0x40)\n      dup1\n      swap2\n      sub\n      swap1\n      return\n        /* \"FallBackExample.sol\":816:1147  function withdrawMoney (address payable _to, uint _amount) public {\r... */\n    tag_9:\n      callvalue\n      dup1\n      iszero\n      tag_42\n      jumpi\n      0x00\n      dup1\n      revert\n    tag_42:\n      pop\n      tag_43\n      0x04\n      dup1\n      calldatasize\n      sub\n      dup2\n      add\n      swap1\n      tag_44\n      swap2\n      swap1\n      tag_45\n      jump\t// in\n    tag_44:\n      tag_46\n      jump\t// in\n    tag_43:\n      stop\n        /* \"FallBackExample.sol\":602:807  function receiveMoney () public payable {\r... */\n    tag_14:\n        /* \"FallBackExample.sol\":705:720  balanceReceived */\n      0x00\n        /* \"FallBackExample.sol\":705:732  balanceReceived[msg.sender] */\n      dup1\n        /* \"FallBackExample.sol\":721:731  msg.sender */\n      caller\n        /* \"FallBackExample.sol\":705:732  balanceReceived[msg.sender] */\n      0xffffffffffffffffffffffffffffffffffffffff\n      and\n      0xffffffffffffffffffffffffffffffffffffffff\n      and\n      dup2\n      mstore\n      0x20\n      add\n      swap1\n      dup2\n      mstore\n      0x20\n      add\n      0x00\n      keccak256\n      sload\n        /* \"FallBackExample.sol\":692:701  msg.value */\n      callvalue\n        /* \"FallBackExample.sol\":664:679  balanceReceived */\n      0x00\n        /* \"FallBackExample.sol\":664:691  balanceReceived[msg.sender] */\n      dup1\n        /* \"FallBackExample.sol\":680:690  msg.sender */\n      caller\n        /* \"FallBackExample.sol\":664:691  balanceReceived[msg.sender] */\n      0xffffffffffffffffffffffffffffffffffffffff\n      and\n      0xffffffffffffffffffffffffffffffffffffffff\n      and\n      dup2\n      mstore\n      0x20\n      add\n      swap1\n      dup2\n      mstore\n      0x20\n      add\n      0x00\n      keccak256\n      sload\n        /* \"FallBackExample.sol\":664:701  balanceReceived[msg.sender]+msg.value */\n      tag_48\n      swap2\n      swap1\n      tag_49\n      jump\t// in\n    tag_48:\n        /* \"FallBackExample.sol\":664:732  balanceReceived[msg.sender]+msg.value >= balanceReceived[msg.sender] */\n      lt\n      iszero\n        /* \"FallBackExample.sol\":656:733  assert (balanceReceived[msg.sender]+msg.value >= balanceReceived[msg.sender]) */\n      tag_50\n      jumpi\n      tag_51\n      tag_52\n      jump\t// in\n    tag_51:\n    tag_50:\n        /* \"FallBackExample.sol\":787:796  msg.value */\n      callvalue\n        /* \"FallBackExample.sol\":756:771  balanceReceived */\n      0x00\n        /* \"FallBackExample.sol\":756:783  balanceReceived[msg.sender] */\n      dup1\n        /* \"FallBackExample.sol\":772:782  msg.sender */\n      caller\n        /* \"FallBackExample.sol\":756:783  balanceReceived[msg.sender] */\n      0xffffffffffffffffffffffffffffffffffffffff\n      and\n      0xffffffffffffffffffffffffffffffffffffffff\n      and\n      dup2\n      mstore\n      0x20\n      add\n      swap1\n      dup2\n      mstore\n      0x20\n      add\n      0x00\n      keccak256\n      0x00\n        /* \"FallBackExample.sol\":756:796  balanceReceived[msg.sender] += msg.value */\n      dup3\n      dup3\n      sload\n      tag_53\n      swap2\n      swap1\n      tag_49\n      jump\t// in\n    tag_53:\n      swap3\n      pop\n      pop\n      dup2\n      swap1\n      sstore\n      pop\n        /* \"FallBackExample.sol\":602:807  function receiveMoney () public payable {\r... */\n      jump\t// out\n        /* \"FallBackExample.sol\":329:440  function convertWeiToEth(uint _amount) public pure returns (uint) {\r... */\n    tag_19:\n        /* \"FallBackExample.sol\":389:393  uint */\n      0x00\n        /* \"FallBackExample.sol\":422:429  1 ether */\n      0x0de0b6b3a7640000\n        /* \"FallBackExample.sol\":414:421  _amount */\n      dup3\n        /* \"FallBackExample.sol\":414:429  _amount/1 ether */\n      tag_55\n      swap2\n      swap1\n      tag_56\n      jump\t// in\n    tag_55:\n        /* \"FallBackExample.sol\":407:429  return _amount/1 ether */\n      swap1\n      pop\n        /* \"FallBackExample.sol\":329:440  function convertWeiToEth(uint _amount) public pure returns (uint) {\r... */\n      swap2\n      swap1\n      pop\n      jump\t// out\n        /* \"FallBackExample.sol\":449:593  function destroySmartContract() public{\r... */\n    tag_25:\n        /* \"FallBackExample.sol\":522:527  owner */\n      0x01\n      0x00\n      swap1\n      sload\n      swap1\n      0x0100\n      exp\n      swap1\n      div\n      0xffffffffffffffffffffffffffffffffffffffff\n      and\n        /* \"FallBackExample.sol\":508:527  msg.sender == owner */\n      0xffffffffffffffffffffffffffffffffffffffff\n      and\n        /* \"FallBackExample.sol\":508:518  msg.sender */\n      caller\n        /* \"FallBackExample.sol\":508:527  msg.sender == owner */\n      0xffffffffffffffffffffffffffffffffffffffff\n      and\n      eq\n        /* \"FallBackExample.sol\":499:553  require (msg.sender == owner, \"you are not the owner\") */\n      tag_58\n      jumpi\n      mload(0x40)\n      0x08c379a000000000000000000000000000000000000000000000000000000000\n      dup2\n      mstore\n      0x04\n      add\n      tag_59\n      swap1\n      tag_60\n      jump\t// in\n    tag_59:\n      mload(0x40)\n      dup1\n      swap2\n      sub\n      swap1\n      revert\n    tag_58:\n        /* \"FallBackExample.sol\":578:583  owner */\n      0x01\n      0x00\n      swap1\n      sload\n      swap1\n      0x0100\n      exp\n      swap1\n      div\n      0xffffffffffffffffffffffffffffffffffffffff\n      and\n        /* \"FallBackExample.sol\":565:584  selfdestruct(owner) */\n      0xffffffffffffffffffffffffffffffffffffffff\n      and\n      selfdestruct\n        /* \"FallBackExample.sol\":233:320  function getOwner() public view returns (address) {\r... */\n    tag_28:\n        /* \"FallBackExample.sol\":274:281  address */\n      0x00\n        /* \"FallBackExample.sol\":303:308  owner */\n      0x01\n      0x00\n      swap1\n      sload\n      swap1\n      0x0100\n      exp\n      swap1\n      div\n      0xffffffffffffffffffffffffffffffffffffffff\n      and\n        /* \"FallBackExample.sol\":295:309  return (owner) */\n      swap1\n      pop\n        /* \"FallBackExample.sol\":233:320  function getOwner() public view returns (address) {\r... */\n      swap1\n      jump\t// out\n        /* \"FallBackExample.sol\":125:153  address payable public owner */\n    tag_33:\n      0x01\n      0x00\n      swap1\n      sload\n      swap1\n      0x0100\n      exp\n      swap1\n      div\n      0xffffffffffffffffffffffffffffffffffffffff\n      and\n      dup2\n      jump\t// out\n        /* \"FallBackExample.sol\":67:115  mapping (address => uint) public balanceReceived */\n    tag_40:\n      mstore(0x20, 0x00)\n      dup1\n      0x00\n      mstore\n      keccak256(0x00, 0x40)\n      0x00\n      swap2\n      pop\n      swap1\n      pop\n      sload\n      dup2\n      jump\t// out\n        /* \"FallBackExample.sol\":816:1147  function withdrawMoney (address payable _to, uint _amount) public {\r... */\n    tag_46:\n        /* \"FallBackExample.sol\":914:929  balanceReceived */\n      0x00\n        /* \"FallBackExample.sol\":914:941  balanceReceived[msg.sender] */\n      dup1\n        /* \"FallBackExample.sol\":930:940  msg.sender */\n      caller\n        /* \"FallBackExample.sol\":914:941  balanceReceived[msg.sender] */\n      0xffffffffffffffffffffffffffffffffffffffff\n      and\n      0xffffffffffffffffffffffffffffffffffffffff\n      and\n      dup2\n      mstore\n      0x20\n      add\n      swap1\n      dup2\n      mstore\n      0x20\n      add\n      0x00\n      keccak256\n      sload\n        /* \"FallBackExample.sol\":903:910  _amount */\n      dup2\n        /* \"FallBackExample.sol\":903:941  _amount <= balanceReceived[msg.sender] */\n      gt\n      iszero\n        /* \"FallBackExample.sol\":894:963  require (_amount <= balanceReceived[msg.sender], \"not enough funds.\") */\n      tag_63\n      jumpi\n      mload(0x40)\n      0x08c379a000000000000000000000000000000000000000000000000000000000\n      dup2\n      mstore\n      0x04\n      add\n      tag_64\n      swap1\n      tag_65\n      jump\t// in\n    tag_64:\n      mload(0x40)\n      dup1\n      swap2\n      sub\n      swap1\n      revert\n    tag_63:\n        /* \"FallBackExample.sol\":1045:1052  _amount */\n      dup1\n        /* \"FallBackExample.sol\":1016:1031  balanceReceived */\n      0x00\n        /* \"FallBackExample.sol\":1016:1043  balanceReceived[msg.sender] */\n      dup1\n        /* \"FallBackExample.sol\":1032:1042  msg.sender */\n      caller\n        /* \"FallBackExample.sol\":1016:1043  balanceReceived[msg.sender] */\n      0xffffffffffffffffffffffffffffffffffffffff\n      and\n      0xffffffffffffffffffffffffffffffffffffffff\n      and\n      dup2\n      mstore\n      0x20\n      add\n      swap1\n      dup2\n      mstore\n      0x20\n      add\n      0x00\n      keccak256\n      sload\n        /* \"FallBackExample.sol\":1016:1052  balanceReceived[msg.sender]- _amount */\n      tag_66\n      swap2\n      swap1\n      tag_67\n      jump\t// in\n    tag_66:\n        /* \"FallBackExample.sol\":985:1000  balanceReceived */\n      0x00\n        /* \"FallBackExample.sol\":985:1012  balanceReceived[msg.sender] */\n      dup1\n        /* \"FallBackExample.sol\":1001:1011  msg.sender */\n      caller\n        /* \"FallBackExample.sol\":985:1012  balanceReceived[msg.sender] */\n      0xffffffffffffffffffffffffffffffffffffffff\n      and\n      0xffffffffffffffffffffffffffffffffffffffff\n      and\n      dup2\n      mstore\n      0x20\n      add\n      swap1\n      dup2\n      mstore\n      0x20\n      add\n      0x00\n      keccak256\n      sload\n        /* \"FallBackExample.sol\":985:1052  balanceReceived[msg.sender] >= balanceReceived[msg.sender]- _amount */\n      lt\n      iszero\n        /* \"FallBackExample.sol\":977:1053  assert (balanceReceived[msg.sender] >= balanceReceived[msg.sender]- _amount) */\n      tag_68\n      jumpi\n      tag_69\n      tag_52\n      jump\t// in\n    tag_69:\n    tag_68:\n        /* \"FallBackExample.sol\":1096:1103  _amount */\n      dup1\n        /* \"FallBackExample.sol\":1065:1080  balanceReceived */\n      0x00\n        /* \"FallBackExample.sol\":1065:1092  balanceReceived[msg.sender] */\n      dup1\n        /* \"FallBackExample.sol\":1081:1091  msg.sender */\n      caller\n        /* \"FallBackExample.sol\":1065:1092  balanceReceived[msg.sender] */\n      0xffffffffffffffffffffffffffffffffffffffff\n      and\n      0xffffffffffffffffffffffffffffffffffffffff\n      and\n      dup2\n      mstore\n      0x20\n      add\n      swap1\n      dup2\n      mstore\n      0x20\n      add\n      0x00\n      keccak256\n      0x00\n        /* \"FallBackExample.sol\":1065:1103  balanceReceived[msg.sender] -= _amount */\n      dup3\n      dup3\n      sload\n      tag_70\n      swap2\n      swap1\n      tag_67\n      jump\t// in\n    tag_70:\n      swap3\n      pop\n      pop\n      dup2\n      swap1\n      sstore\n      pop\n        /* \"FallBackExample.sol\":1115:1118  _to */\n      dup2\n        /* \"FallBackExample.sol\":1115:1127  _to.transfer */\n      0xffffffffffffffffffffffffffffffffffffffff\n      and\n        /* \"FallBackExample.sol\":1115:1136  _to.transfer(_amount) */\n      0x08fc\n        /* \"FallBackExample.sol\":1128:1135  _amount */\n      dup3\n        /* \"FallBackExample.sol\":1115:1136  _to.transfer(_amount) */\n      swap1\n      dup2\n      iszero\n      mul\n      swap1\n      mload(0x40)\n      0x00\n      mload(0x40)\n      dup1\n      dup4\n      sub\n      dup2\n      dup6\n      dup9\n      dup9\n      call\n      swap4\n      pop\n      pop\n      pop\n      pop\n      iszero\n      dup1\n      iszero\n      tag_72\n      jumpi\n      returndatasize\n      0x00\n      dup1\n      returndatacopy\n      revert(0x00, returndatasize)\n    tag_72:\n      pop\n        /* \"FallBackExample.sol\":816:1147  function withdrawMoney (address payable _to, uint _amount) public {\r... */\n      pop\n      pop\n      jump\t// out\n        /* \"#utility.yul\":7:146   */\n    tag_74:\n        /* \"#utility.yul\":53:58   */\n      0x00\n        /* \"#utility.yul\":91:97   */\n      dup2\n        /* \"#utility.yul\":78:98   */\n      calldataload\n        /* \"#utility.yul\":69:98   */\n      swap1\n      pop\n        /* \"#utility.yul\":107:140   */\n      tag_76\n        /* \"#utility.yul\":134:139   */\n      dup2\n        /* \"#utility.yul\":107:140   */\n      tag_77\n      jump\t// in\n    tag_76:\n        /* \"#utility.yul\":7:146   */\n      swap3\n      swap2\n      pop\n      pop\n      jump\t// out\n        /* \"#utility.yul\":152:307   */\n    tag_78:\n        /* \"#utility.yul\":206:211   */\n      0x00\n        /* \"#utility.yul\":244:250   */\n      dup2\n        /* \"#utility.yul\":231:251   */\n      calldataload\n        /* \"#utility.yul\":222:251   */\n      swap1\n      pop\n        /* \"#utility.yul\":260:301   */\n      tag_80\n        /* \"#utility.yul\":295:300   */\n      dup2\n        /* \"#utility.yul\":260:301   */\n      tag_81\n      jump\t// in\n    tag_80:\n        /* \"#utility.yul\":152:307   */\n      swap3\n      swap2\n      pop\n      pop\n      jump\t// out\n        /* \"#utility.yul\":313:452   */\n    tag_82:\n        /* \"#utility.yul\":359:364   */\n      0x00\n        /* \"#utility.yul\":397:403   */\n      dup2\n        /* \"#utility.yul\":384:404   */\n      calldataload\n        /* \"#utility.yul\":375:404   */\n      swap1\n      pop\n        /* \"#utility.yul\":413:446   */\n      tag_84\n        /* \"#utility.yul\":440:445   */\n      dup2\n        /* \"#utility.yul\":413:446   */\n      tag_85\n      jump\t// in\n    tag_84:\n        /* \"#utility.yul\":313:452   */\n      swap3\n      swap2\n      pop\n      pop\n      jump\t// out\n        /* \"#utility.yul\":458:787   */\n    tag_39:\n        /* \"#utility.yul\":517:523   */\n      0x00\n        /* \"#utility.yul\":566:568   */\n      0x20\n        /* \"#utility.yul\":554:563   */\n      dup3\n        /* \"#utility.yul\":545:552   */\n      dup5\n        /* \"#utility.yul\":541:564   */\n      sub\n        /* \"#utility.yul\":537:569   */\n      slt\n        /* \"#utility.yul\":534:653   */\n      iszero\n      tag_87\n      jumpi\n        /* \"#utility.yul\":572:651   */\n      tag_88\n      tag_89\n      jump\t// in\n    tag_88:\n        /* \"#utility.yul\":534:653   */\n    tag_87:\n        /* \"#utility.yul\":692:693   */\n      0x00\n        /* \"#utility.yul\":717:770   */\n      tag_90\n        /* \"#utility.yul\":762:769   */\n      dup5\n        /* \"#utility.yul\":753:759   */\n      dup3\n        /* \"#utility.yul\":742:751   */\n      dup6\n        /* \"#utility.yul\":738:760   */\n      add\n        /* \"#utility.yul\":717:770   */\n      tag_74\n      jump\t// in\n    tag_90:\n        /* \"#utility.yul\":707:770   */\n      swap2\n      pop\n        /* \"#utility.yul\":663:780   */\n      pop\n        /* \"#utility.yul\":458:787   */\n      swap3\n      swap2\n      pop\n      pop\n      jump\t// out\n        /* \"#utility.yul\":793:1283   */\n    tag_45:\n        /* \"#utility.yul\":869:875   */\n      0x00\n        /* \"#utility.yul\":877:883   */\n      dup1\n        /* \"#utility.yul\":926:928   */\n      0x40\n        /* \"#utility.yul\":914:923   */\n      dup4\n        /* \"#utility.yul\":905:912   */\n      dup6\n        /* \"#utility.yul\":901:924   */\n      sub\n        /* \"#utility.yul\":897:929   */\n      slt\n        /* \"#utility.yul\":894:1013   */\n      iszero\n      tag_92\n      jumpi\n        /* \"#utility.yul\":932:1011   */\n      tag_93\n      tag_89\n      jump\t// in\n    tag_93:\n        /* \"#utility.yul\":894:1013   */\n    tag_92:\n        /* \"#utility.yul\":1052:1053   */\n      0x00\n        /* \"#utility.yul\":1077:1138   */\n      tag_94\n        /* \"#utility.yul\":1130:1137   */\n      dup6\n        /* \"#utility.yul\":1121:1127   */\n      dup3\n        /* \"#utility.yul\":1110:1119   */\n      dup7\n        /* \"#utility.yul\":1106:1128   */\n      add\n        /* \"#utility.yul\":1077:1138   */\n      tag_78\n      jump\t// in\n    tag_94:\n        /* \"#utility.yul\":1067:1138   */\n      swap3\n      pop\n        /* \"#utility.yul\":1023:1148   */\n      pop\n        /* \"#utility.yul\":1187:1189   */\n      0x20\n        /* \"#utility.yul\":1213:1266   */\n      tag_95\n        /* \"#utility.yul\":1258:1265   */\n      dup6\n        /* \"#utility.yul\":1249:1255   */\n      dup3\n        /* \"#utility.yul\":1238:1247   */\n      dup7\n        /* \"#utility.yul\":1234:1256   */\n      add\n        /* \"#utility.yul\":1213:1266   */\n      tag_82\n      jump\t// in\n    tag_95:\n        /* \"#utility.yul\":1203:1266   */\n      swap2\n      pop\n        /* \"#utility.yul\":1158:1276   */\n      pop\n        /* \"#utility.yul\":793:1283   */\n      swap3\n      pop\n      swap3\n      swap1\n      pop\n      jump\t// out\n        /* \"#utility.yul\":1289:1618   */\n    tag_18:\n        /* \"#utility.yul\":1348:1354   */\n      0x00\n        /* \"#utility.yul\":1397:1399   */\n      0x20\n        /* \"#utility.yul\":1385:1394   */\n      dup3\n        /* \"#utility.yul\":1376:1383   */\n      dup5\n        /* \"#utility.yul\":1372:1395   */\n      sub\n        /* \"#utility.yul\":1368:1400   */\n      slt\n        /* \"#utility.yul\":1365:1484   */\n      iszero\n      tag_97\n      jumpi\n        /* \"#utility.yul\":1403:1482   */\n      tag_98\n      tag_89\n      jump\t// in\n    tag_98:\n        /* \"#utility.yul\":1365:1484   */\n    tag_97:\n        /* \"#utility.yul\":1523:1524   */\n      0x00\n        /* \"#utility.yul\":1548:1601   */\n      tag_99\n        /* \"#utility.yul\":1593:1600   */\n      dup5\n        /* \"#utility.yul\":1584:1590   */\n      dup3\n        /* \"#utility.yul\":1573:1582   */\n      dup6\n        /* \"#utility.yul\":1569:1591   */\n      add\n        /* \"#utility.yul\":1548:1601   */\n      tag_82\n      jump\t// in\n    tag_99:\n        /* \"#utility.yul\":1538:1601   */\n      swap2\n      pop\n        /* \"#utility.yul\":1494:1611   */\n      pop\n        /* \"#utility.yul\":1289:1618   */\n      swap3\n      swap2\n      pop\n      pop\n      jump\t// out\n        /* \"#utility.yul\":1624:1766   */\n    tag_100:\n        /* \"#utility.yul\":1727:1759   */\n      tag_102\n        /* \"#utility.yul\":1753:1758   */\n      dup2\n        /* \"#utility.yul\":1727:1759   */\n      tag_103\n      jump\t// in\n    tag_102:\n        /* \"#utility.yul\":1722:1725   */\n      dup3\n        /* \"#utility.yul\":1715:1760   */\n      mstore\n        /* \"#utility.yul\":1624:1766   */\n      pop\n      pop\n      jump\t// out\n        /* \"#utility.yul\":1772:1890   */\n    tag_104:\n        /* \"#utility.yul\":1859:1883   */\n      tag_106\n        /* \"#utility.yul\":1877:1882   */\n      dup2\n        /* \"#utility.yul\":1859:1883   */\n      tag_107\n      jump\t// in\n    tag_106:\n        /* \"#utility.yul\":1854:1857   */\n      dup3\n        /* \"#utility.yul\":1847:1884   */\n      mstore\n        /* \"#utility.yul\":1772:1890   */\n      pop\n      pop\n      jump\t// out\n        /* \"#utility.yul\":1896:2262   */\n    tag_108:\n        /* \"#utility.yul\":2038:2041   */\n      0x00\n        /* \"#utility.yul\":2059:2126   */\n      tag_110\n        /* \"#utility.yul\":2123:2125   */\n      0x11\n        /* \"#utility.yul\":2118:2121   */\n      dup4\n        /* \"#utility.yul\":2059:2126   */\n      tag_111\n      jump\t// in\n    tag_110:\n        /* \"#utility.yul\":2052:2126   */\n      swap2\n      pop\n        /* \"#utility.yul\":2135:2228   */\n      tag_112\n        /* \"#utility.yul\":2224:2227   */\n      dup3\n        /* \"#utility.yul\":2135:2228   */\n      tag_113\n      jump\t// in\n    tag_112:\n        /* \"#utility.yul\":2253:2255   */\n      0x20\n        /* \"#utility.yul\":2248:2251   */\n      dup3\n        /* \"#utility.yul\":2244:2256   */\n      add\n        /* \"#utility.yul\":2237:2256   */\n      swap1\n      pop\n        /* \"#utility.yul\":1896:2262   */\n      swap2\n      swap1\n      pop\n      jump\t// out\n        /* \"#utility.yul\":2268:2634   */\n    tag_114:\n        /* \"#utility.yul\":2410:2413   */\n      0x00\n        /* \"#utility.yul\":2431:2498   */\n      tag_116\n        /* \"#utility.yul\":2495:2497   */\n      0x15\n        /* \"#utility.yul\":2490:2493   */\n      dup4\n        /* \"#utility.yul\":2431:2498   */\n      tag_111\n      jump\t// in\n    tag_116:\n        /* \"#utility.yul\":2424:2498   */\n      swap2\n      pop\n        /* \"#utility.yul\":2507:2600   */\n      tag_117\n        /* \"#utility.yul\":2596:2599   */\n      dup3\n        /* \"#utility.yul\":2507:2600   */\n      tag_118\n      jump\t// in\n    tag_117:\n        /* \"#utility.yul\":2625:2627   */\n      0x20\n        /* \"#utility.yul\":2620:2623   */\n      dup3\n        /* \"#utility.yul\":2616:2628   */\n      add\n        /* \"#utility.yul\":2609:2628   */\n      swap1\n      pop\n        /* \"#utility.yul\":2268:2634   */\n      swap2\n      swap1\n      pop\n      jump\t// out\n        /* \"#utility.yul\":2640:2758   */\n    tag_119:\n        /* \"#utility.yul\":2727:2751   */\n      tag_121\n        /* \"#utility.yul\":2745:2750   */\n      dup2\n        /* \"#utility.yul\":2727:2751   */\n      tag_122\n      jump\t// in\n    tag_121:\n        /* \"#utility.yul\":2722:2725   */\n      dup3\n        /* \"#utility.yul\":2715:2752   */\n      mstore\n        /* \"#utility.yul\":2640:2758   */\n      pop\n      pop\n      jump\t// out\n        /* \"#utility.yul\":2764:2986   */\n    tag_30:\n        /* \"#utility.yul\":2857:2861   */\n      0x00\n        /* \"#utility.yul\":2895:2897   */\n      0x20\n        /* \"#utility.yul\":2884:2893   */\n      dup3\n        /* \"#utility.yul\":2880:2898   */\n      add\n        /* \"#utility.yul\":2872:2898   */\n      swap1\n      pop\n        /* \"#utility.yul\":2908:2979   */\n      tag_124\n        /* \"#utility.yul\":2976:2977   */\n      0x00\n        /* \"#utility.yul\":2965:2974   */\n      dup4\n        /* \"#utility.yul\":2961:2978   */\n      add\n        /* \"#utility.yul\":2952:2958   */\n      dup5\n        /* \"#utility.yul\":2908:2979   */\n      tag_104\n      jump\t// in\n    tag_124:\n        /* \"#utility.yul\":2764:2986   */\n      swap3\n      swap2\n      pop\n      pop\n      jump\t// out\n        /* \"#utility.yul\":2992:3246   */\n    tag_35:\n        /* \"#utility.yul\":3101:3105   */\n      0x00\n        /* \"#utility.yul\":3139:3141   */\n      0x20\n        /* \"#utility.yul\":3128:3137   */\n      dup3\n        /* \"#utility.yul\":3124:3142   */\n      add\n        /* \"#utility.yul\":3116:3142   */\n      swap1\n      pop\n        /* \"#utility.yul\":3152:3239   */\n      tag_126\n        /* \"#utility.yul\":3236:3237   */\n      0x00\n        /* \"#utility.yul\":3225:3234   */\n      dup4\n        /* \"#utility.yul\":3221:3238   */\n      add\n        /* \"#utility.yul\":3212:3218   */\n      dup5\n        /* \"#utility.yul\":3152:3239   */\n      tag_100\n      jump\t// in\n    tag_126:\n        /* \"#utility.yul\":2992:3246   */\n      swap3\n      swap2\n      pop\n      pop\n      jump\t// out\n        /* \"#utility.yul\":3252:3671   */\n    tag_65:\n        /* \"#utility.yul\":3418:3422   */\n      0x00\n        /* \"#utility.yul\":3456:3458   */\n      0x20\n        /* \"#utility.yul\":3445:3454   */\n      dup3\n        /* \"#utility.yul\":3441:3459   */\n      add\n        /* \"#utility.yul\":3433:3459   */\n      swap1\n      pop\n        /* \"#utility.yul\":3505:3514   */\n      dup2\n        /* \"#utility.yul\":3499:3503   */\n      dup2\n        /* \"#utility.yul\":3495:3515   */\n      sub\n        /* \"#utility.yul\":3491:3492   */\n      0x00\n        /* \"#utility.yul\":3480:3489   */\n      dup4\n        /* \"#utility.yul\":3476:3493   */\n      add\n        /* \"#utility.yul\":3469:3516   */\n      mstore\n        /* \"#utility.yul\":3533:3664   */\n      tag_128\n        /* \"#utility.yul\":3659:3663   */\n      dup2\n        /* \"#utility.yul\":3533:3664   */\n      tag_108\n      jump\t// in\n    tag_128:\n        /* \"#utility.yul\":3525:3664   */\n      swap1\n      pop\n        /* \"#utility.yul\":3252:3671   */\n      swap2\n      swap1\n      pop\n      jump\t// out\n        /* \"#utility.yul\":3677:4096   */\n    tag_60:\n        /* \"#utility.yul\":3843:3847   */\n      0x00\n        /* \"#utility.yul\":3881:3883   */\n      0x20\n        /* \"#utility.yul\":3870:3879   */\n      dup3\n        /* \"#utility.yul\":3866:3884   */\n      add\n        /* \"#utility.yul\":3858:3884   */\n      swap1\n      pop\n        /* \"#utility.yul\":3930:3939   */\n      dup2\n        /* \"#utility.yul\":3924:3928   */\n      dup2\n        /* \"#utility.yul\":3920:3940   */\n      sub\n        /* \"#utility.yul\":3916:3917   */\n      0x00\n        /* \"#utility.yul\":3905:3914   */\n      dup4\n        /* \"#utility.yul\":3901:3918   */\n      add\n        /* \"#utility.yul\":3894:3941   */\n      mstore\n        /* \"#utility.yul\":3958:4089   */\n      tag_130\n        /* \"#utility.yul\":4084:4088   */\n      dup2\n        /* \"#utility.yul\":3958:4089   */\n      tag_114\n      jump\t// in\n    tag_130:\n        /* \"#utility.yul\":3950:4089   */\n      swap1\n      pop\n        /* \"#utility.yul\":3677:4096   */\n      swap2\n      swap1\n      pop\n      jump\t// out\n        /* \"#utility.yul\":4102:4324   */\n    tag_21:\n        /* \"#utility.yul\":4195:4199   */\n      0x00\n        /* \"#utility.yul\":4233:4235   */\n      0x20\n        /* \"#utility.yul\":4222:4231   */\n      dup3\n        /* \"#utility.yul\":4218:4236   */\n      add\n        /* \"#utility.yul\":4210:4236   */\n      swap1\n      pop\n        /* \"#utility.yul\":4246:4317   */\n      tag_132\n        /* \"#utility.yul\":4314:4315   */\n      0x00\n        /* \"#utility.yul\":4303:4312   */\n      dup4\n        /* \"#utility.yul\":4299:4316   */\n      add\n        /* \"#utility.yul\":4290:4296   */\n      dup5\n        /* \"#utility.yul\":4246:4317   */\n      tag_119\n      jump\t// in\n    tag_132:\n        /* \"#utility.yul\":4102:4324   */\n      swap3\n      swap2\n      pop\n      pop\n      jump\t// out\n        /* \"#utility.yul\":4411:4580   */\n    tag_111:\n        /* \"#utility.yul\":4495:4506   */\n      0x00\n        /* \"#utility.yul\":4529:4535   */\n      dup3\n        /* \"#utility.yul\":4524:4527   */\n      dup3\n        /* \"#utility.yul\":4517:4536   */\n      mstore\n        /* \"#utility.yul\":4569:4573   */\n      0x20\n        /* \"#utility.yul\":4564:4567   */\n      dup3\n        /* \"#utility.yul\":4560:4574   */\n      add\n        /* \"#utility.yul\":4545:4574   */\n      swap1\n      pop\n        /* \"#utility.yul\":4411:4580   */\n      swap3\n      swap2\n      pop\n      pop\n      jump\t// out\n        /* \"#utility.yul\":4586:4891   */\n    tag_49:\n        /* \"#utility.yul\":4626:4629   */\n      0x00\n        /* \"#utility.yul\":4645:4665   */\n      tag_137\n        /* \"#utility.yul\":4663:4664   */\n      dup3\n        /* \"#utility.yul\":4645:4665   */\n      tag_122\n      jump\t// in\n    tag_137:\n        /* \"#utility.yul\":4640:4665   */\n      swap2\n      pop\n        /* \"#utility.yul\":4679:4699   */\n      tag_138\n        /* \"#utility.yul\":4697:4698   */\n      dup4\n        /* \"#utility.yul\":4679:4699   */\n      tag_122\n      jump\t// in\n    tag_138:\n        /* \"#utility.yul\":4674:4699   */\n      swap3\n      pop\n        /* \"#utility.yul\":4833:4834   */\n      dup3\n        /* \"#utility.yul\":4765:4831   */\n      0xffffffffffffffffffffffffffffffffffffffffffffffffffffffffffffffff\n        /* \"#utility.yul\":4761:4835   */\n      sub\n        /* \"#utility.yul\":4758:4759   */\n      dup3\n        /* \"#utility.yul\":4755:4836   */\n      gt\n        /* \"#utility.yul\":4752:4859   */\n      iszero\n      tag_139\n      jumpi\n        /* \"#utility.yul\":4839:4857   */\n      tag_140\n      tag_141\n      jump\t// in\n    tag_140:\n        /* \"#utility.yul\":4752:4859   */\n    tag_139:\n        /* \"#utility.yul\":4883:4884   */\n      dup3\n        /* \"#utility.yul\":4880:4881   */\n      dup3\n        /* \"#utility.yul\":4876:4885   */\n      add\n        /* \"#utility.yul\":4869:4885   */\n      swap1\n      pop\n        /* \"#utility.yul\":4586:4891   */\n      swap3\n      swap2\n      pop\n      pop\n      jump\t// out\n        /* \"#utility.yul\":4897:5082   */\n    tag_56:\n        /* \"#utility.yul\":4937:4938   */\n      0x00\n        /* \"#utility.yul\":4954:4974   */\n      tag_143\n        /* \"#utility.yul\":4972:4973   */\n      dup3\n        /* \"#utility.yul\":4954:4974   */\n      tag_122\n      jump\t// in\n    tag_143:\n        /* \"#utility.yul\":4949:4974   */\n      swap2\n      pop\n        /* \"#utility.yul\":4988:5008   */\n      tag_144\n        /* \"#utility.yul\":5006:5007   */\n      dup4\n        /* \"#utility.yul\":4988:5008   */\n      tag_122\n      jump\t// in\n    tag_144:\n        /* \"#utility.yul\":4983:5008   */\n      swap3\n      pop\n        /* \"#utility.yul\":5027:5028   */\n      dup3\n        /* \"#utility.yul\":5017:5052   */\n      tag_145\n      jumpi\n        /* \"#utility.yul\":5032:5050   */\n      tag_146\n      tag_147\n      jump\t// in\n    tag_146:\n        /* \"#utility.yul\":5017:5052   */\n    tag_145:\n        /* \"#utility.yul\":5074:5075   */\n      dup3\n        /* \"#utility.yul\":5071:5072   */\n      dup3\n        /* \"#utility.yul\":5067:5076   */\n      div\n        /* \"#utility.yul\":5062:5076   */\n      swap1\n      pop\n        /* \"#utility.yul\":4897:5082   */\n      swap3\n      swap2\n      pop\n      pop\n      jump\t// out\n        /* \"#utility.yul\":5088:5279   */\n    tag_67:\n        /* \"#utility.yul\":5128:5132   */\n      0x00\n        /* \"#utility.yul\":5148:5168   */\n      tag_149\n        /* \"#utility.yul\":5166:5167   */\n      dup3\n        /* \"#utility.yul\":5148:5168   */\n      tag_122\n      jump\t// in\n    tag_149:\n        /* \"#utility.yul\":5143:5168   */\n      swap2\n      pop\n        /* \"#utility.yul\":5182:5202   */\n      tag_150\n        /* \"#utility.yul\":5200:5201   */\n      dup4\n        /* \"#utility.yul\":5182:5202   */\n      tag_122\n      jump\t// in\n    tag_150:\n        /* \"#utility.yul\":5177:5202   */\n      swap3\n      pop\n        /* \"#utility.yul\":5221:5222   */\n      dup3\n        /* \"#utility.yul\":5218:5219   */\n      dup3\n        /* \"#utility.yul\":5215:5223   */\n      lt\n        /* \"#utility.yul\":5212:5246   */\n      iszero\n      tag_151\n      jumpi\n        /* \"#utility.yul\":5226:5244   */\n      tag_152\n      tag_141\n      jump\t// in\n    tag_152:\n        /* \"#utility.yul\":5212:5246   */\n    tag_151:\n        /* \"#utility.yul\":5271:5272   */\n      dup3\n        /* \"#utility.yul\":5268:5269   */\n      dup3\n        /* \"#utility.yul\":5264:5273   */\n      sub\n        /* \"#utility.yul\":5256:5273   */\n      swap1\n      pop\n        /* \"#utility.yul\":5088:5279   */\n      swap3\n      swap2\n      pop\n      pop\n      jump\t// out\n        /* \"#utility.yul\":5285:5381   */\n    tag_107:\n        /* \"#utility.yul\":5322:5329   */\n      0x00\n        /* \"#utility.yul\":5351:5375   */\n      tag_154\n        /* \"#utility.yul\":5369:5374   */\n      dup3\n        /* \"#utility.yul\":5351:5375   */\n      tag_155\n      jump\t// in\n    tag_154:\n        /* \"#utility.yul\":5340:5375   */\n      swap1\n      pop\n        /* \"#utility.yul\":5285:5381   */\n      swap2\n      swap1\n      pop\n      jump\t// out\n        /* \"#utility.yul\":5387:5491   */\n    tag_103:\n        /* \"#utility.yul\":5432:5439   */\n      0x00\n        /* \"#utility.yul\":5461:5485   */\n      tag_157\n        /* \"#utility.yul\":5479:5484   */\n      dup3\n        /* \"#utility.yul\":5461:5485   */\n      tag_155\n      jump\t// in\n    tag_157:\n        /* \"#utility.yul\":5450:5485   */\n      swap1\n      pop\n        /* \"#utility.yul\":5387:5491   */\n      swap2\n      swap1\n      pop\n      jump\t// out\n        /* \"#utility.yul\":5497:5623   */\n    tag_155:\n        /* \"#utility.yul\":5534:5541   */\n      0x00\n        /* \"#utility.yul\":5574:5616   */\n      0xffffffffffffffffffffffffffffffffffffffff\n        /* \"#utility.yul\":5567:5572   */\n      dup3\n        /* \"#utility.yul\":5563:5617   */\n      and\n        /* \"#utility.yul\":5552:5617   */\n      swap1\n      pop\n        /* \"#utility.yul\":5497:5623   */\n      swap2\n      swap1\n      pop\n      jump\t// out\n        /* \"#utility.yul\":5629:5706   */\n    tag_122:\n        /* \"#utility.yul\":5666:5673   */\n      0x00\n        /* \"#utility.yul\":5695:5700   */\n      dup2\n        /* \"#utility.yul\":5684:5700   */\n      swap1\n      pop\n        /* \"#utility.yul\":5629:5706   */\n      swap2\n      swap1\n      pop\n      jump\t// out\n        /* \"#utility.yul\":5712:5892   */\n    tag_52:\n        /* \"#utility.yul\":5760:5837   */\n      0x4e487b7100000000000000000000000000000000000000000000000000000000\n        /* \"#utility.yul\":5757:5758   */\n      0x00\n        /* \"#utility.yul\":5750:5838   */\n      mstore\n        /* \"#utility.yul\":5857:5861   */\n      0x01\n        /* \"#utility.yul\":5854:5855   */\n      0x04\n        /* \"#utility.yul\":5847:5862   */\n      mstore\n        /* \"#utility.yul\":5881:5885   */\n      0x24\n        /* \"#utility.yul\":5878:5879   */\n      0x00\n        /* \"#utility.yul\":5871:5886   */\n      revert\n        /* \"#utility.yul\":5898:6078   */\n    tag_141:\n        /* \"#utility.yul\":5946:6023   */\n      0x4e487b7100000000000000000000000000000000000000000000000000000000\n        /* \"#utility.yul\":5943:5944   */\n      0x00\n        /* \"#utility.yul\":5936:6024   */\n      mstore\n        /* \"#utility.yul\":6043:6047   */\n      0x11\n        /* \"#utility.yul\":6040:6041   */\n      0x04\n        /* \"#utility.yul\":6033:6048   */\n      mstore\n        /* \"#utility.yul\":6067:6071   */\n      0x24\n        /* \"#utility.yul\":6064:6065   */\n      0x00\n        /* \"#utility.yul\":6057:6072   */\n      revert\n        /* \"#utility.yul\":6084:6264   */\n    tag_147:\n        /* \"#utility.yul\":6132:6209   */\n      0x4e487b7100000000000000000000000000000000000000000000000000000000\n        /* \"#utility.yul\":6129:6130   */\n      0x00\n        /* \"#utility.yul\":6122:6210   */\n      mstore\n        /* \"#utility.yul\":6229:6233   */\n      0x12\n        /* \"#utility.yul\":6226:6227   */\n      0x04\n        /* \"#utility.yul\":6219:6234   */\n      mstore\n        /* \"#utility.yul\":6253:6257   */\n      0x24\n        /* \"#utility.yul\":6250:6251   */\n      0x00\n        /* \"#utility.yul\":6243:6258   */\n      revert\n        /* \"#utility.yul\":6393:6510   */\n    tag_89:\n        /* \"#utility.yul\":6502:6503   */\n      0x00\n        /* \"#utility.yul\":6499:6500   */\n      dup1\n        /* \"#utility.yul\":6492:6504   */\n      revert\n        /* \"#utility.yul\":6516:6683   */\n    tag_113:\n        /* \"#utility.yul\":6656:6675   */\n      0x6e6f7420656e6f7567682066756e64732e000000000000000000000000000000\n        /* \"#utility.yul\":6652:6653   */\n      0x00\n        /* \"#utility.yul\":6644:6650   */\n      dup3\n        /* \"#utility.yul\":6640:6654   */\n      add\n        /* \"#utility.yul\":6633:6676   */\n      mstore\n        /* \"#utility.yul\":6516:6683   */\n      pop\n      jump\t// out\n        /* \"#utility.yul\":6689:6860   */\n    tag_118:\n        /* \"#utility.yul\":6829:6852   */\n      0x796f7520617265206e6f7420746865206f776e65720000000000000000000000\n        /* \"#utility.yul\":6825:6826   */\n      0x00\n        /* \"#utility.yul\":6817:6823   */\n      dup3\n        /* \"#utility.yul\":6813:6827   */\n      add\n        /* \"#utility.yul\":6806:6853   */\n      mstore\n        /* \"#utility.yul\":6689:6860   */\n      pop\n      jump\t// out\n        /* \"#utility.yul\":6866:6988   */\n    tag_77:\n        /* \"#utility.yul\":6939:6963   */\n      tag_169\n        /* \"#utility.yul\":6957:6962   */\n      dup2\n        /* \"#utility.yul\":6939:6963   */\n      tag_107\n      jump\t// in\n    tag_169:\n        /* \"#utility.yul\":6932:6937   */\n      dup2\n        /* \"#utility.yul\":6929:6964   */\n      eq\n        /* \"#utility.yul\":6919:6982   */\n      tag_170\n      jumpi\n        /* \"#utility.yul\":6978:6979   */\n      0x00\n        /* \"#utility.yul\":6975:6976   */\n      dup1\n        /* \"#utility.yul\":6968:6980   */\n      revert\n        /* \"#utility.yul\":6919:6982   */\n    tag_170:\n        /* \"#utility.yul\":6866:6988   */\n      pop\n      jump\t// out\n        /* \"#utility.yul\":6994:7132   */\n    tag_81:\n        /* \"#utility.yul\":7075:7107   */\n      tag_172\n        /* \"#utility.yul\":7101:7106   */\n      dup2\n        /* \"#utility.yul\":7075:7107   */\n      tag_103\n      jump\t// in\n    tag_172:\n        /* \"#utility.yul\":7068:7073   */\n      dup2\n        /* \"#utility.yul\":7065:7108   */\n      eq\n        /* \"#utility.yul\":7055:7126   */\n      tag_173\n      jumpi\n        /* \"#utility.yul\":7122:7123   */\n      0x00\n        /* \"#utility.yul\":7119:7120   */\n      dup1\n        /* \"#utility.yul\":7112:7124   */\n      revert\n        /* \"#utility.yul\":7055:7126   */\n    tag_173:\n        /* \"#utility.yul\":6994:7132   */\n      pop\n      jump\t// out\n        /* \"#utility.yul\":7138:7260   */\n    tag_85:\n        /* \"#utility.yul\":7211:7235   */\n      tag_175\n        /* \"#utility.yul\":7229:7234   */\n      dup2\n        /* \"#utility.yul\":7211:7235   */\n      tag_122\n      jump\t// in\n    tag_175:\n        /* \"#utility.yul\":7204:7209   */\n      dup2\n        /* \"#utility.yul\":7201:7236   */\n      eq\n        /* \"#utility.yul\":7191:7254   */\n      tag_176\n      jumpi\n        /* \"#utility.yul\":7250:7251   */\n      0x00\n        /* \"#utility.yul\":7247:7248   */\n      dup1\n        /* \"#utility.yul\":7240:7252   */\n      revert\n        /* \"#utility.yul\":7191:7254   */\n    tag_176:\n        /* \"#utility.yul\":7138:7260   */\n      pop\n      jump\t// out\n\n    auxdata: 0xa2646970667358221220be5f6dd620252e4f1cdd95cc624540835224b338ece9c44e76d362b64d66135364736f6c63430008070033\n}\n",
				"bytecode": {
					"linkReferences": {},
					"object": "608060405234801561001057600080fd5b5033600160006101000a81548173ffffffffffffffffffffffffffffffffffffffff021916908373ffffffffffffffffffffffffffffffffffffffff1602179055506109f0806100616000396000f3fe6080604052600436106100745760003560e01c8063893d20e81161004e578063893d20e8146100e65780638da5cb5b14610111578063d18a42e11461013c578063f274c8971461017957610083565b80630718b2f8146100885780636d26ec18146100c557806385474728146100cf57610083565b36610083576100816101a2565b005b600080fd5b34801561009457600080fd5b506100af60048036038101906100aa9190610646565b610291565b6040516100bc919061075c565b60405180910390f35b6100cd6101a2565b005b3480156100db57600080fd5b506100e46102ae565b005b3480156100f257600080fd5b506100fb610379565b60405161010891906106e6565b60405180910390f35b34801561011d57600080fd5b506101266103a3565b6040516101339190610701565b60405180910390f35b34801561014857600080fd5b50610163600480360381019061015e91906105d9565b6103c9565b604051610170919061075c565b60405180910390f35b34801561018557600080fd5b506101a0600480360381019061019b9190610606565b6103e1565b005b6000803373ffffffffffffffffffffffffffffffffffffffff1673ffffffffffffffffffffffffffffffffffffffff16815260200190815260200160002054346000803373ffffffffffffffffffffffffffffffffffffffff1673ffffffffffffffffffffffffffffffffffffffff1681526020019081526020016000205461022b9190610788565b101561023a57610239610891565b5b346000803373ffffffffffffffffffffffffffffffffffffffff1673ffffffffffffffffffffffffffffffffffffffff16815260200190815260200160002060008282546102889190610788565b92505081905550565b6000670de0b6b3a7640000826102a791906107de565b9050919050565b600160009054906101000a900473ffffffffffffffffffffffffffffffffffffffff1673ffffffffffffffffffffffffffffffffffffffff163373ffffffffffffffffffffffffffffffffffffffff161461033e576040517f08c379a00000000000000000000000000000000000000000000000000000000081526004016103359061073c565b60405180910390fd5b600160009054906101000a900473ffffffffffffffffffffffffffffffffffffffff1673ffffffffffffffffffffffffffffffffffffffff16ff5b6000600160009054906101000a900473ffffffffffffffffffffffffffffffffffffffff16905090565b600160009054906101000a900473ffffffffffffffffffffffffffffffffffffffff1681565b60006020528060005260406000206000915090505481565b6000803373ffffffffffffffffffffffffffffffffffffffff1673ffffffffffffffffffffffffffffffffffffffff16815260200190815260200160002054811115610462576040517f08c379a00000000000000000000000000000000000000000000000000000000081526004016104599061071c565b60405180910390fd5b806000803373ffffffffffffffffffffffffffffffffffffffff1673ffffffffffffffffffffffffffffffffffffffff168152602001908152602001600020546104ac919061080f565b6000803373ffffffffffffffffffffffffffffffffffffffff1673ffffffffffffffffffffffffffffffffffffffff1681526020019081526020016000205410156104fa576104f9610891565b5b806000803373ffffffffffffffffffffffffffffffffffffffff1673ffffffffffffffffffffffffffffffffffffffff1681526020019081526020016000206000828254610548919061080f565b925050819055508173ffffffffffffffffffffffffffffffffffffffff166108fc829081150290604051600060405180830381858888f19350505050158015610595573d6000803e3d6000fd5b505050565b6000813590506105a981610975565b92915050565b6000813590506105be8161098c565b92915050565b6000813590506105d3816109a3565b92915050565b6000602082840312156105ef576105ee61091e565b5b60006105fd8482850161059a565b91505092915050565b6000806040838503121561061d5761061c61091e565b5b600061062b858286016105af565b925050602061063c858286016105c4565b9150509250929050565b60006020828403121561065c5761065b61091e565b5b600061066a848285016105c4565b91505092915050565b61067c81610855565b82525050565b61068b81610843565b82525050565b600061069e601183610777565b91506106a982610923565b602082019050919050565b60006106c1601583610777565b91506106cc8261094c565b602082019050919050565b6106e081610887565b82525050565b60006020820190506106fb6000830184610682565b92915050565b60006020820190506107166000830184610673565b92915050565b6000602082019050818103600083015261073581610691565b9050919050565b60006020820190508181036000830152610755816106b4565b9050919050565b600060208201905061077160008301846106d7565b92915050565b600082825260208201905092915050565b600061079382610887565b915061079e83610887565b9250827fffffffffffffffffffffffffffffffffffffffffffffffffffffffffffffffff038211156107d3576107d26108c0565b5b828201905092915050565b60006107e982610887565b91506107f483610887565b925082610804576108036108ef565b5b828204905092915050565b600061081a82610887565b915061082583610887565b925082821015610838576108376108c0565b5b828203905092915050565b600061084e82610867565b9050919050565b600061086082610867565b9050919050565b600073ffffffffffffffffffffffffffffffffffffffff82169050919050565b6000819050919050565b7f4e487b7100000000000000000000000000000000000000000000000000000000600052600160045260246000fd5b7f4e487b7100000000000000000000000000000000000000000000000000000000600052601160045260246000fd5b7f4e487b7100000000000000000000000000000000000000000000000000000000600052601260045260246000fd5b600080fd5b7f6e6f7420656e6f7567682066756e64732e000000000000000000000000000000600082015250565b7f796f7520617265206e6f7420746865206f776e65720000000000000000000000600082015250565b61097e81610843565b811461098957600080fd5b50565b61099581610855565b81146109a057600080fd5b50565b6109ac81610887565b81146109b757600080fd5b5056fea2646970667358221220be5f6dd620252e4f1cdd95cc624540835224b338ece9c44e76d362b64d66135364736f6c63430008070033",
					"opcodes": "PUSH1 0x80 PUSH1 0x40 MSTORE CALLVALUE DUP1 ISZERO PUSH2 0x10 JUMPI PUSH1 0x0 DUP1 REVERT JUMPDEST POP CALLER PUSH1 0x1 PUSH1 0x0 PUSH2 0x100 EXP DUP2 SLOAD DUP2 PUSH20 0xFFFFFFFFFFFFFFFFFFFFFFFFFFFFFFFFFFFFFFFF MUL NOT AND SWAP1 DUP4 PUSH20 0xFFFFFFFFFFFFFFFFFFFFFFFFFFFFFFFFFFFFFFFF AND MUL OR SWAP1 SSTORE POP PUSH2 0x9F0 DUP1 PUSH2 0x61 PUSH1 0x0 CODECOPY PUSH1 0x0 RETURN INVALID PUSH1 0x80 PUSH1 0x40 MSTORE PUSH1 0x4 CALLDATASIZE LT PUSH2 0x74 JUMPI PUSH1 0x0 CALLDATALOAD PUSH1 0xE0 SHR DUP1 PUSH4 0x893D20E8 GT PUSH2 0x4E JUMPI DUP1 PUSH4 0x893D20E8 EQ PUSH2 0xE6 JUMPI DUP1 PUSH4 0x8DA5CB5B EQ PUSH2 0x111 JUMPI DUP1 PUSH4 0xD18A42E1 EQ PUSH2 0x13C JUMPI DUP1 PUSH4 0xF274C897 EQ PUSH2 0x179 JUMPI PUSH2 0x83 JUMP JUMPDEST DUP1 PUSH4 0x718B2F8 EQ PUSH2 0x88 JUMPI DUP1 PUSH4 0x6D26EC18 EQ PUSH2 0xC5 JUMPI DUP1 PUSH4 0x85474728 EQ PUSH2 0xCF JUMPI PUSH2 0x83 JUMP JUMPDEST CALLDATASIZE PUSH2 0x83 JUMPI PUSH2 0x81 PUSH2 0x1A2 JUMP JUMPDEST STOP JUMPDEST PUSH1 0x0 DUP1 REVERT JUMPDEST CALLVALUE DUP1 ISZERO PUSH2 0x94 JUMPI PUSH1 0x0 DUP1 REVERT JUMPDEST POP PUSH2 0xAF PUSH1 0x4 DUP1 CALLDATASIZE SUB DUP2 ADD SWAP1 PUSH2 0xAA SWAP2 SWAP1 PUSH2 0x646 JUMP JUMPDEST PUSH2 0x291 JUMP JUMPDEST PUSH1 0x40 MLOAD PUSH2 0xBC SWAP2 SWAP1 PUSH2 0x75C JUMP JUMPDEST PUSH1 0x40 MLOAD DUP1 SWAP2 SUB SWAP1 RETURN JUMPDEST PUSH2 0xCD PUSH2 0x1A2 JUMP JUMPDEST STOP JUMPDEST CALLVALUE DUP1 ISZERO PUSH2 0xDB JUMPI PUSH1 0x0 DUP1 REVERT JUMPDEST POP PUSH2 0xE4 PUSH2 0x2AE JUMP JUMPDEST STOP JUMPDEST CALLVALUE DUP1 ISZERO PUSH2 0xF2 JUMPI PUSH1 0x0 DUP1 REVERT JUMPDEST POP PUSH2 0xFB PUSH2 0x379 JUMP JUMPDEST PUSH1 0x40 MLOAD PUSH2 0x108 SWAP2 SWAP1 PUSH2 0x6E6 JUMP JUMPDEST PUSH1 0x40 MLOAD DUP1 SWAP2 SUB SWAP1 RETURN JUMPDEST CALLVALUE DUP1 ISZERO PUSH2 0x11D JUMPI PUSH1 0x0 DUP1 REVERT JUMPDEST POP PUSH2 0x126 PUSH2 0x3A3 JUMP JUMPDEST PUSH1 0x40 MLOAD PUSH2 0x133 SWAP2 SWAP1 PUSH2 0x701 JUMP JUMPDEST PUSH1 0x40 MLOAD DUP1 SWAP2 SUB SWAP1 RETURN JUMPDEST CALLVALUE DUP1 ISZERO PUSH2 0x148 JUMPI PUSH1 0x0 DUP1 REVERT JUMPDEST POP PUSH2 0x163 PUSH1 0x4 DUP1 CALLDATASIZE SUB DUP2 ADD SWAP1 PUSH2 0x15E SWAP2 SWAP1 PUSH2 0x5D9 JUMP JUMPDEST PUSH2 0x3C9 JUMP JUMPDEST PUSH1 0x40 MLOAD PUSH2 0x170 SWAP2 SWAP1 PUSH2 0x75C JUMP JUMPDEST PUSH1 0x40 MLOAD DUP1 SWAP2 SUB SWAP1 RETURN JUMPDEST CALLVALUE DUP1 ISZERO PUSH2 0x185 JUMPI PUSH1 0x0 DUP1 REVERT JUMPDEST POP PUSH2 0x1A0 PUSH1 0x4 DUP1 CALLDATASIZE SUB DUP2 ADD SWAP1 PUSH2 0x19B SWAP2 SWAP1 PUSH2 0x606 JUMP JUMPDEST PUSH2 0x3E1 JUMP JUMPDEST STOP JUMPDEST PUSH1 0x0 DUP1 CALLER PUSH20 0xFFFFFFFFFFFFFFFFFFFFFFFFFFFFFFFFFFFFFFFF AND PUSH20 0xFFFFFFFFFFFFFFFFFFFFFFFFFFFFFFFFFFFFFFFF AND DUP2 MSTORE PUSH1 0x20 ADD SWAP1 DUP2 MSTORE PUSH1 0x20 ADD PUSH1 0x0 KECCAK256 SLOAD CALLVALUE PUSH1 0x0 DUP1 CALLER PUSH20 0xFFFFFFFFFFFFFFFFFFFFFFFFFFFFFFFFFFFFFFFF AND PUSH20 0xFFFFFFFFFFFFFFFFFFFFFFFFFFFFFFFFFFFFFFFF AND DUP2 MSTORE PUSH1 0x20 ADD SWAP1 DUP2 MSTORE PUSH1 0x20 ADD PUSH1 0x0 KECCAK256 SLOAD PUSH2 0x22B SWAP2 SWAP1 PUSH2 0x788 JUMP JUMPDEST LT ISZERO PUSH2 0x23A JUMPI PUSH2 0x239 PUSH2 0x891 JUMP JUMPDEST JUMPDEST CALLVALUE PUSH1 0x0 DUP1 CALLER PUSH20 0xFFFFFFFFFFFFFFFFFFFFFFFFFFFFFFFFFFFFFFFF AND PUSH20 0xFFFFFFFFFFFFFFFFFFFFFFFFFFFFFFFFFFFFFFFF AND DUP2 MSTORE PUSH1 0x20 ADD SWAP1 DUP2 MSTORE PUSH1 0x20 ADD PUSH1 0x0 KECCAK256 PUSH1 0x0 DUP3 DUP3 SLOAD PUSH2 0x288 SWAP2 SWAP1 PUSH2 0x788 JUMP JUMPDEST SWAP3 POP POP DUP2 SWAP1 SSTORE POP JUMP JUMPDEST PUSH1 0x0 PUSH8 0xDE0B6B3A7640000 DUP3 PUSH2 0x2A7 SWAP2 SWAP1 PUSH2 0x7DE JUMP JUMPDEST SWAP1 POP SWAP2 SWAP1 POP JUMP JUMPDEST PUSH1 0x1 PUSH1 0x0 SWAP1 SLOAD SWAP1 PUSH2 0x100 EXP SWAP1 DIV PUSH20 0xFFFFFFFFFFFFFFFFFFFFFFFFFFFFFFFFFFFFFFFF AND PUSH20 0xFFFFFFFFFFFFFFFFFFFFFFFFFFFFFFFFFFFFFFFF AND CALLER PUSH20 0xFFFFFFFFFFFFFFFFFFFFFFFFFFFFFFFFFFFFFFFF AND EQ PUSH2 0x33E JUMPI PUSH1 0x40 MLOAD PUSH32 0x8C379A000000000000000000000000000000000000000000000000000000000 DUP2 MSTORE PUSH1 0x4 ADD PUSH2 0x335 SWAP1 PUSH2 0x73C JUMP JUMPDEST PUSH1 0x40 MLOAD DUP1 SWAP2 SUB SWAP1 REVERT JUMPDEST PUSH1 0x1 PUSH1 0x0 SWAP1 SLOAD SWAP1 PUSH2 0x100 EXP SWAP1 DIV PUSH20 0xFFFFFFFFFFFFFFFFFFFFFFFFFFFFFFFFFFFFFFFF AND PUSH20 0xFFFFFFFFFFFFFFFFFFFFFFFFFFFFFFFFFFFFFFFF AND SELFDESTRUCT JUMPDEST PUSH1 0x0 PUSH1 0x1 PUSH1 0x0 SWAP1 SLOAD SWAP1 PUSH2 0x100 EXP SWAP1 DIV PUSH20 0xFFFFFFFFFFFFFFFFFFFFFFFFFFFFFFFFFFFFFFFF AND SWAP1 POP SWAP1 JUMP JUMPDEST PUSH1 0x1 PUSH1 0x0 SWAP1 SLOAD SWAP1 PUSH2 0x100 EXP SWAP1 DIV PUSH20 0xFFFFFFFFFFFFFFFFFFFFFFFFFFFFFFFFFFFFFFFF AND DUP2 JUMP JUMPDEST PUSH1 0x0 PUSH1 0x20 MSTORE DUP1 PUSH1 0x0 MSTORE PUSH1 0x40 PUSH1 0x0 KECCAK256 PUSH1 0x0 SWAP2 POP SWAP1 POP SLOAD DUP2 JUMP JUMPDEST PUSH1 0x0 DUP1 CALLER PUSH20 0xFFFFFFFFFFFFFFFFFFFFFFFFFFFFFFFFFFFFFFFF AND PUSH20 0xFFFFFFFFFFFFFFFFFFFFFFFFFFFFFFFFFFFFFFFF AND DUP2 MSTORE PUSH1 0x20 ADD SWAP1 DUP2 MSTORE PUSH1 0x20 ADD PUSH1 0x0 KECCAK256 SLOAD DUP2 GT ISZERO PUSH2 0x462 JUMPI PUSH1 0x40 MLOAD PUSH32 0x8C379A000000000000000000000000000000000000000000000000000000000 DUP2 MSTORE PUSH1 0x4 ADD PUSH2 0x459 SWAP1 PUSH2 0x71C JUMP JUMPDEST PUSH1 0x40 MLOAD DUP1 SWAP2 SUB SWAP1 REVERT JUMPDEST DUP1 PUSH1 0x0 DUP1 CALLER PUSH20 0xFFFFFFFFFFFFFFFFFFFFFFFFFFFFFFFFFFFFFFFF AND PUSH20 0xFFFFFFFFFFFFFFFFFFFFFFFFFFFFFFFFFFFFFFFF AND DUP2 MSTORE PUSH1 0x20 ADD SWAP1 DUP2 MSTORE PUSH1 0x20 ADD PUSH1 0x0 KECCAK256 SLOAD PUSH2 0x4AC SWAP2 SWAP1 PUSH2 0x80F JUMP JUMPDEST PUSH1 0x0 DUP1 CALLER PUSH20 0xFFFFFFFFFFFFFFFFFFFFFFFFFFFFFFFFFFFFFFFF AND PUSH20 0xFFFFFFFFFFFFFFFFFFFFFFFFFFFFFFFFFFFFFFFF AND DUP2 MSTORE PUSH1 0x20 ADD SWAP1 DUP2 MSTORE PUSH1 0x20 ADD PUSH1 0x0 KECCAK256 SLOAD LT ISZERO PUSH2 0x4FA JUMPI PUSH2 0x4F9 PUSH2 0x891 JUMP JUMPDEST JUMPDEST DUP1 PUSH1 0x0 DUP1 CALLER PUSH20 0xFFFFFFFFFFFFFFFFFFFFFFFFFFFFFFFFFFFFFFFF AND PUSH20 0xFFFFFFFFFFFFFFFFFFFFFFFFFFFFFFFFFFFFFFFF AND DUP2 MSTORE PUSH1 0x20 ADD SWAP1 DUP2 MSTORE PUSH1 0x20 ADD PUSH1 0x0 KECCAK256 PUSH1 0x0 DUP3 DUP3 SLOAD PUSH2 0x548 SWAP2 SWAP1 PUSH2 0x80F JUMP JUMPDEST SWAP3 POP POP DUP2 SWAP1 SSTORE POP DUP2 PUSH20 0xFFFFFFFFFFFFFFFFFFFFFFFFFFFFFFFFFFFFFFFF AND PUSH2 0x8FC DUP3 SWAP1 DUP2 ISZERO MUL SWAP1 PUSH1 0x40 MLOAD PUSH1 0x0 PUSH1 0x40 MLOAD DUP1 DUP4 SUB DUP2 DUP6 DUP9 DUP9 CALL SWAP4 POP POP POP POP ISZERO DUP1 ISZERO PUSH2 0x595 JUMPI RETURNDATASIZE PUSH1 0x0 DUP1 RETURNDATACOPY RETURNDATASIZE PUSH1 0x0 REVERT JUMPDEST POP POP POP JUMP JUMPDEST PUSH1 0x0 DUP2 CALLDATALOAD SWAP1 POP PUSH2 0x5A9 DUP2 PUSH2 0x975 JUMP JUMPDEST SWAP3 SWAP2 POP POP JUMP JUMPDEST PUSH1 0x0 DUP2 CALLDATALOAD SWAP1 POP PUSH2 0x5BE DUP2 PUSH2 0x98C JUMP JUMPDEST SWAP3 SWAP2 POP POP JUMP JUMPDEST PUSH1 0x0 DUP2 CALLDATALOAD SWAP1 POP PUSH2 0x5D3 DUP2 PUSH2 0x9A3 JUMP JUMPDEST SWAP3 SWAP2 POP POP JUMP JUMPDEST PUSH1 0x0 PUSH1 0x20 DUP3 DUP5 SUB SLT ISZERO PUSH2 0x5EF JUMPI PUSH2 0x5EE PUSH2 0x91E JUMP JUMPDEST JUMPDEST PUSH1 0x0 PUSH2 0x5FD DUP5 DUP3 DUP6 ADD PUSH2 0x59A JUMP JUMPDEST SWAP2 POP POP SWAP3 SWAP2 POP POP JUMP JUMPDEST PUSH1 0x0 DUP1 PUSH1 0x40 DUP4 DUP6 SUB SLT ISZERO PUSH2 0x61D JUMPI PUSH2 0x61C PUSH2 0x91E JUMP JUMPDEST JUMPDEST PUSH1 0x0 PUSH2 0x62B DUP6 DUP3 DUP7 ADD PUSH2 0x5AF JUMP JUMPDEST SWAP3 POP POP PUSH1 0x20 PUSH2 0x63C DUP6 DUP3 DUP7 ADD PUSH2 0x5C4 JUMP JUMPDEST SWAP2 POP POP SWAP3 POP SWAP3 SWAP1 POP JUMP JUMPDEST PUSH1 0x0 PUSH1 0x20 DUP3 DUP5 SUB SLT ISZERO PUSH2 0x65C JUMPI PUSH2 0x65B PUSH2 0x91E JUMP JUMPDEST JUMPDEST PUSH1 0x0 PUSH2 0x66A DUP5 DUP3 DUP6 ADD PUSH2 0x5C4 JUMP JUMPDEST SWAP2 POP POP SWAP3 SWAP2 POP POP JUMP JUMPDEST PUSH2 0x67C DUP2 PUSH2 0x855 JUMP JUMPDEST DUP3 MSTORE POP POP JUMP JUMPDEST PUSH2 0x68B DUP2 PUSH2 0x843 JUMP JUMPDEST DUP3 MSTORE POP POP JUMP JUMPDEST PUSH1 0x0 PUSH2 0x69E PUSH1 0x11 DUP4 PUSH2 0x777 JUMP JUMPDEST SWAP2 POP PUSH2 0x6A9 DUP3 PUSH2 0x923 JUMP JUMPDEST PUSH1 0x20 DUP3 ADD SWAP1 POP SWAP2 SWAP1 POP JUMP JUMPDEST PUSH1 0x0 PUSH2 0x6C1 PUSH1 0x15 DUP4 PUSH2 0x777 JUMP JUMPDEST SWAP2 POP PUSH2 0x6CC DUP3 PUSH2 0x94C JUMP JUMPDEST PUSH1 0x20 DUP3 ADD SWAP1 POP SWAP2 SWAP1 POP JUMP JUMPDEST PUSH2 0x6E0 DUP2 PUSH2 0x887 JUMP JUMPDEST DUP3 MSTORE POP POP JUMP JUMPDEST PUSH1 0x0 PUSH1 0x20 DUP3 ADD SWAP1 POP PUSH2 0x6FB PUSH1 0x0 DUP4 ADD DUP5 PUSH2 0x682 JUMP JUMPDEST SWAP3 SWAP2 POP POP JUMP JUMPDEST PUSH1 0x0 PUSH1 0x20 DUP3 ADD SWAP1 POP PUSH2 0x716 PUSH1 0x0 DUP4 ADD DUP5 PUSH2 0x673 JUMP JUMPDEST SWAP3 SWAP2 POP POP JUMP JUMPDEST PUSH1 0x0 PUSH1 0x20 DUP3 ADD SWAP1 POP DUP2 DUP2 SUB PUSH1 0x0 DUP4 ADD MSTORE PUSH2 0x735 DUP2 PUSH2 0x691 JUMP JUMPDEST SWAP1 POP SWAP2 SWAP1 POP JUMP JUMPDEST PUSH1 0x0 PUSH1 0x20 DUP3 ADD SWAP1 POP DUP2 DUP2 SUB PUSH1 0x0 DUP4 ADD MSTORE PUSH2 0x755 DUP2 PUSH2 0x6B4 JUMP JUMPDEST SWAP1 POP SWAP2 SWAP1 POP JUMP JUMPDEST PUSH1 0x0 PUSH1 0x20 DUP3 ADD SWAP1 POP PUSH2 0x771 PUSH1 0x0 DUP4 ADD DUP5 PUSH2 0x6D7 JUMP JUMPDEST SWAP3 SWAP2 POP POP JUMP JUMPDEST PUSH1 0x0 DUP3 DUP3 MSTORE PUSH1 0x20 DUP3 ADD SWAP1 POP SWAP3 SWAP2 POP POP JUMP JUMPDEST PUSH1 0x0 PUSH2 0x793 DUP3 PUSH2 0x887 JUMP JUMPDEST SWAP2 POP PUSH2 0x79E DUP4 PUSH2 0x887 JUMP JUMPDEST SWAP3 POP DUP3 PUSH32 0xFFFFFFFFFFFFFFFFFFFFFFFFFFFFFFFFFFFFFFFFFFFFFFFFFFFFFFFFFFFFFFFF SUB DUP3 GT ISZERO PUSH2 0x7D3 JUMPI PUSH2 0x7D2 PUSH2 0x8C0 JUMP JUMPDEST JUMPDEST DUP3 DUP3 ADD SWAP1 POP SWAP3 SWAP2 POP POP JUMP JUMPDEST PUSH1 0x0 PUSH2 0x7E9 DUP3 PUSH2 0x887 JUMP JUMPDEST SWAP2 POP PUSH2 0x7F4 DUP4 PUSH2 0x887 JUMP JUMPDEST SWAP3 POP DUP3 PUSH2 0x804 JUMPI PUSH2 0x803 PUSH2 0x8EF JUMP JUMPDEST JUMPDEST DUP3 DUP3 DIV SWAP1 POP SWAP3 SWAP2 POP POP JUMP JUMPDEST PUSH1 0x0 PUSH2 0x81A DUP3 PUSH2 0x887 JUMP JUMPDEST SWAP2 POP PUSH2 0x825 DUP4 PUSH2 0x887 JUMP JUMPDEST SWAP3 POP DUP3 DUP3 LT ISZERO PUSH2 0x838 JUMPI PUSH2 0x837 PUSH2 0x8C0 JUMP JUMPDEST JUMPDEST DUP3 DUP3 SUB SWAP1 POP SWAP3 SWAP2 POP POP JUMP JUMPDEST PUSH1 0x0 PUSH2 0x84E DUP3 PUSH2 0x867 JUMP JUMPDEST SWAP1 POP SWAP2 SWAP1 POP JUMP JUMPDEST PUSH1 0x0 PUSH2 0x860 DUP3 PUSH2 0x867 JUMP JUMPDEST SWAP1 POP SWAP2 SWAP1 POP JUMP JUMPDEST PUSH1 0x0 PUSH20 0xFFFFFFFFFFFFFFFFFFFFFFFFFFFFFFFFFFFFFFFF DUP3 AND SWAP1 POP SWAP2 SWAP1 POP JUMP JUMPDEST PUSH1 0x0 DUP2 SWAP1 POP SWAP2 SWAP1 POP JUMP JUMPDEST PUSH32 0x4E487B7100000000000000000000000000000000000000000000000000000000 PUSH1 0x0 MSTORE PUSH1 0x1 PUSH1 0x4 MSTORE PUSH1 0x24 PUSH1 0x0 REVERT JUMPDEST PUSH32 0x4E487B7100000000000000000000000000000000000000000000000000000000 PUSH1 0x0 MSTORE PUSH1 0x11 PUSH1 0x4 MSTORE PUSH1 0x24 PUSH1 0x0 REVERT JUMPDEST PUSH32 0x4E487B7100000000000000000000000000000000000000000000000000000000 PUSH1 0x0 MSTORE PUSH1 0x12 PUSH1 0x4 MSTORE PUSH1 0x24 PUSH1 0x0 REVERT JUMPDEST PUSH1 0x0 DUP1 REVERT JUMPDEST PUSH32 0x6E6F7420656E6F7567682066756E64732E000000000000000000000000000000 PUSH1 0x0 DUP3 ADD MSTORE POP JUMP JUMPDEST PUSH32 0x796F7520617265206E6F7420746865206F776E65720000000000000000000000 PUSH1 0x0 DUP3 ADD MSTORE POP JUMP JUMPDEST PUSH2 0x97E DUP2 PUSH2 0x843 JUMP JUMPDEST DUP2 EQ PUSH2 0x989 JUMPI PUSH1 0x0 DUP1 REVERT JUMPDEST POP JUMP JUMPDEST PUSH2 0x995 DUP2 PUSH2 0x855 JUMP JUMPDEST DUP2 EQ PUSH2 0x9A0 JUMPI PUSH1 0x0 DUP1 REVERT JUMPDEST POP JUMP JUMPDEST PUSH2 0x9AC DUP2 PUSH2 0x887 JUMP JUMPDEST DUP2 EQ PUSH2 0x9B7 JUMPI PUSH1 0x0 DUP1 REVERT JUMPDEST POP JUMP INVALID LOG2 PUSH5 0x6970667358 0x22 SLT KECCAK256 0xBE 0x5F PUSH14 0xD620252E4F1CDD95CC6245408352 0x24 0xB3 CODESIZE 0xEC 0xE9 0xC4 0x4E PUSH23 0xD362B64D66135364736F6C634300080700330000000000 "
				},
				"gasEstimates": {
					"creation": {
						"codeDepositCost": "508800",
						"executionCost": "24809",
						"totalCost": "533609"
					},
					"external": {
						"balanceReceived(address)": "2858",
						"convertWeiToEth(uint256)": "infinite",
						"destroySmartContract()": "32095",
						"getOwner()": "2522",
						"owner()": "2536",
						"receiveMoney()": "infinite",
						"withdrawMoney(address,uint256)": "infinite"
					}
				},
				"methodIdentifiers": {
					"balanceReceived(address)": "d18a42e1",
					"convertWeiToEth(uint256)": "0718b2f8",
					"destroySmartContract()": "85474728",
					"getOwner()": "893d20e8",
					"owner()": "8da5cb5b",
					"receiveMoney()": "6d26ec18",
					"withdrawMoney(address,uint256)": "f274c897"
				}
			},
			"storageLayout": {
				"storage": [
					{
						"astId": 5,
						"contract": "FallBackExample.sol:FunctionsExample",
						"label": "balanceReceived",
						"offset": 0,
						"slot": "0",
						"type": "t_mapping(t_address,t_uint256)"
					},
					{
						"astId": 7,
						"contract": "FallBackExample.sol:FunctionsExample",
						"label": "owner",
						"offset": 0,
						"slot": "1",
						"type": "t_address_payable"
					}
				],
				"types": {
					"t_address": {
						"encoding": "inplace",
						"label": "address",
						"numberOfBytes": "20"
					},
					"t_address_payable": {
						"encoding": "inplace",
						"label": "address payable",
						"numberOfBytes": "20"
					},
					"t_mapping(t_address,t_uint256)": {
						"encoding": "mapping",
						"key": "t_address",
						"label": "mapping(address => uint256)",
						"numberOfBytes": "32",
						"value": "t_uint256"
					},
					"t_uint256": {
						"encoding": "inplace",
						"label": "uint256",
						"numberOfBytes": "32"
					}
				}
			},
			"userdoc": {
				"kind": "user",
				"methods": {},
				"version": 1
			}
		}
	}
}