{
	"FallBackExample.sol": {
		"FunctionsExample": {
			"abi": [
				{
					"inputs": [],
					"stateMutability": "nonpayable",
					"type": "constructor"
				},
				{
					"inputs": [
						{
							"internalType": "address",
							"name": "",
							"type": "address"
						}
					],
					"name": "balanceReceived",
					"outputs": [
						{
							"internalType": "uint256",
							"name": "",
							"type": "uint256"
						}
					],
					"stateMutability": "view",
					"type": "function"
				},
				{
					"inputs": [],
					"name": "destroySmartContract",
					"outputs": [],
					"stateMutability": "nonpayable",
					"type": "function"
				},
				{
					"inputs": [],
					"name": "getOwner",
					"outputs": [
						{
							"internalType": "address",
							"name": "",
							"type": "address"
						}
					],
					"stateMutability": "view",
					"type": "function"
				},
				{
					"inputs": [],
					"name": "owner",
					"outputs": [
						{
							"internalType": "address payable",
							"name": "",
							"type": "address"
						}
					],
					"stateMutability": "view",
					"type": "function"
				},
				{
					"inputs": [],
					"name": "receiveMoney",
					"outputs": [],
					"stateMutability": "payable",
					"type": "function"
				},
				{
					"inputs": [
						{
							"internalType": "address payable",
							"name": "_to",
							"type": "address"
						},
						{
							"internalType": "uint256",
							"name": "_amount",
							"type": "uint256"
						}
					],
					"name": "withdrawMoney",
					"outputs": [],
					"stateMutability": "nonpayable",
					"type": "function"
				},
				{
					"stateMutability": "payable",
					"type": "receive"
				}
			],
			"devdoc": {
				"kind": "dev",
				"methods": {},
				"version": 1
			},
			"evm": {
				"assembly": "    /* \"FallBackExample.sol\":26:1102  contract FunctionsExample {\r... */\n  mstore(0x40, 0x80)\n    /* \"FallBackExample.sol\":163:224  constructor(){\r... */\n  callvalue\n  dup1\n  iszero\n  tag_1\n  jumpi\n  0x00\n  dup1\n  revert\ntag_1:\n  pop\n    /* \"FallBackExample.sol\":202:212  msg.sender */\n  caller\n    /* \"FallBackExample.sol\":188:193  owner */\n  0x01\n  0x00\n    /* \"FallBackExample.sol\":188:213  owner=payable(msg.sender) */\n  0x0100\n  exp\n  dup2\n  sload\n  dup2\n  0xffffffffffffffffffffffffffffffffffffffff\n  mul\n  not\n  and\n  swap1\n  dup4\n  0xffffffffffffffffffffffffffffffffffffffff\n  and\n  mul\n  or\n  swap1\n  sstore\n  pop\n    /* \"FallBackExample.sol\":26:1102  contract FunctionsExample {\r... */\n  dataSize(sub_0)\n  dup1\n  dataOffset(sub_0)\n  0x00\n  codecopy\n  0x00\n  return\nstop\n\nsub_0: assembly {\n        /* \"FallBackExample.sol\":26:1102  contract FunctionsExample {\r... */\n      mstore(0x40, 0x80)\n      jumpi(tag_1, lt(calldatasize, 0x04))\n      shr(0xe0, calldataload(0x00))\n      dup1\n      0x6d26ec18\n      eq\n      tag_3\n      jumpi\n      dup1\n      0x85474728\n      eq\n      tag_4\n      jumpi\n      dup1\n      0x893d20e8\n      eq\n      tag_5\n      jumpi\n      dup1\n      0x8da5cb5b\n      eq\n      tag_6\n      jumpi\n      dup1\n      0xd18a42e1\n      eq\n      tag_7\n      jumpi\n      dup1\n      0xf274c897\n      eq\n      tag_8\n      jumpi\n      jump(tag_2)\n    tag_1:\n      jumpi(tag_2, calldatasize)\n        /* \"FallBackExample.sol\":1075:1089  receiveMoney() */\n      tag_11\n        /* \"FallBackExample.sol\":1075:1087  receiveMoney */\n      tag_12\n        /* \"FallBackExample.sol\":1075:1089  receiveMoney() */\n      jump\t// in\n    tag_11:\n        /* \"FallBackExample.sol\":26:1102  contract FunctionsExample {\r... */\n      stop\n    tag_2:\n      0x00\n      dup1\n      revert\n        /* \"FallBackExample.sol\":482:687  function receiveMoney () public payable {\r... */\n    tag_3:\n      tag_13\n      tag_12\n      jump\t// in\n    tag_13:\n      stop\n        /* \"FallBackExample.sol\":329:473  function destroySmartContract() public{\r... */\n    tag_4:\n      callvalue\n      dup1\n      iszero\n      tag_14\n      jumpi\n      0x00\n      dup1\n      revert\n    tag_14:\n      pop\n      tag_15\n      tag_16\n      jump\t// in\n    tag_15:\n      stop\n        /* \"FallBackExample.sol\":233:320  function getOwner() public view returns (address) {\r... */\n    tag_5:\n      callvalue\n      dup1\n      iszero\n      tag_17\n      jumpi\n      0x00\n      dup1\n      revert\n    tag_17:\n      pop\n      tag_18\n      tag_19\n      jump\t// in\n    tag_18:\n      mload(0x40)\n      tag_20\n      swap2\n      swap1\n      tag_21\n      jump\t// in\n    tag_20:\n      mload(0x40)\n      dup1\n      swap2\n      sub\n      swap1\n      return\n        /* \"FallBackExample.sol\":125:153  address payable public owner */\n    tag_6:\n      callvalue\n      dup1\n      iszero\n      tag_22\n      jumpi\n      0x00\n      dup1\n      revert\n    tag_22:\n      pop\n      tag_23\n      tag_24\n      jump\t// in\n    tag_23:\n      mload(0x40)\n      tag_25\n      swap2\n      swap1\n      tag_26\n      jump\t// in\n    tag_25:\n      mload(0x40)\n      dup1\n      swap2\n      sub\n      swap1\n      return\n        /* \"FallBackExample.sol\":67:115  mapping (address => uint) public balanceReceived */\n    tag_7:\n      callvalue\n      dup1\n      iszero\n      tag_27\n      jumpi\n      0x00\n      dup1\n      revert\n    tag_27:\n      pop\n      tag_28\n      0x04\n      dup1\n      calldatasize\n      sub\n      dup2\n      add\n      swap1\n      tag_29\n      swap2\n      swap1\n      tag_30\n      jump\t// in\n    tag_29:\n      tag_31\n      jump\t// in\n    tag_28:\n      mload(0x40)\n      tag_32\n      swap2\n      swap1\n      tag_33\n      jump\t// in\n    tag_32:\n      mload(0x40)\n      dup1\n      swap2\n      sub\n      swap1\n      return\n        /* \"FallBackExample.sol\":696:1027  function withdrawMoney (address payable _to, uint _amount) public {\r... */\n    tag_8:\n      callvalue\n      dup1\n      iszero\n      tag_34\n      jumpi\n      0x00\n      dup1\n      revert\n    tag_34:\n      pop\n      tag_35\n      0x04\n      dup1\n      calldatasize\n      sub\n      dup2\n      add\n      swap1\n      tag_36\n      swap2\n      swap1\n      tag_37\n      jump\t// in\n    tag_36:\n      tag_38\n      jump\t// in\n    tag_35:\n      stop\n        /* \"FallBackExample.sol\":482:687  function receiveMoney () public payable {\r... */\n    tag_12:\n        /* \"FallBackExample.sol\":585:600  balanceReceived */\n      0x00\n        /* \"FallBackExample.sol\":585:612  balanceReceived[msg.sender] */\n      dup1\n        /* \"FallBackExample.sol\":601:611  msg.sender */\n      caller\n        /* \"FallBackExample.sol\":585:612  balanceReceived[msg.sender] */\n      0xffffffffffffffffffffffffffffffffffffffff\n      and\n      0xffffffffffffffffffffffffffffffffffffffff\n      and\n      dup2\n      mstore\n      0x20\n      add\n      swap1\n      dup2\n      mstore\n      0x20\n      add\n      0x00\n      keccak256\n      sload\n        /* \"FallBackExample.sol\":572:581  msg.value */\n      callvalue\n        /* \"FallBackExample.sol\":544:559  balanceReceived */\n      0x00\n        /* \"FallBackExample.sol\":544:571  balanceReceived[msg.sender] */\n      dup1\n        /* \"FallBackExample.sol\":560:570  msg.sender */\n      caller\n        /* \"FallBackExample.sol\":544:571  balanceReceived[msg.sender] */\n      0xffffffffffffffffffffffffffffffffffffffff\n      and\n      0xffffffffffffffffffffffffffffffffffffffff\n      and\n      dup2\n      mstore\n      0x20\n      add\n      swap1\n      dup2\n      mstore\n      0x20\n      add\n      0x00\n      keccak256\n      sload\n        /* \"FallBackExample.sol\":544:581  balanceReceived[msg.sender]+msg.value */\n      tag_40\n      swap2\n      swap1\n      tag_41\n      jump\t// in\n    tag_40:\n        /* \"FallBackExample.sol\":544:612  balanceReceived[msg.sender]+msg.value >= balanceReceived[msg.sender] */\n      lt\n      iszero\n        /* \"FallBackExample.sol\":536:613  assert (balanceReceived[msg.sender]+msg.value >= balanceReceived[msg.sender]) */\n      tag_42\n      jumpi\n      tag_43\n      tag_44\n      jump\t// in\n    tag_43:\n    tag_42:\n        /* \"FallBackExample.sol\":667:676  msg.value */\n      callvalue\n        /* \"FallBackExample.sol\":636:651  balanceReceived */\n      0x00\n        /* \"FallBackExample.sol\":636:663  balanceReceived[msg.sender] */\n      dup1\n        /* \"FallBackExample.sol\":652:662  msg.sender */\n      caller\n        /* \"FallBackExample.sol\":636:663  balanceReceived[msg.sender] */\n      0xffffffffffffffffffffffffffffffffffffffff\n      and\n      0xffffffffffffffffffffffffffffffffffffffff\n      and\n      dup2\n      mstore\n      0x20\n      add\n      swap1\n      dup2\n      mstore\n      0x20\n      add\n      0x00\n      keccak256\n      0x00\n        /* \"FallBackExample.sol\":636:676  balanceReceived[msg.sender] += msg.value */\n      dup3\n      dup3\n      sload\n      tag_45\n      swap2\n      swap1\n      tag_41\n      jump\t// in\n    tag_45:\n      swap3\n      pop\n      pop\n      dup2\n      swap1\n      sstore\n      pop\n        /* \"FallBackExample.sol\":482:687  function receiveMoney () public payable {\r... */\n      jump\t// out\n        /* \"FallBackExample.sol\":329:473  function destroySmartContract() public{\r... */\n    tag_16:\n        /* \"FallBackExample.sol\":402:407  owner */\n      0x01\n      0x00\n      swap1\n      sload\n      swap1\n      0x0100\n      exp\n      swap1\n      div\n      0xffffffffffffffffffffffffffffffffffffffff\n      and\n        /* \"FallBackExample.sol\":388:407  msg.sender == owner */\n      0xffffffffffffffffffffffffffffffffffffffff\n      and\n        /* \"FallBackExample.sol\":388:398  msg.sender */\n      caller\n        /* \"FallBackExample.sol\":388:407  msg.sender == owner */\n      0xffffffffffffffffffffffffffffffffffffffff\n      and\n      eq\n        /* \"FallBackExample.sol\":379:433  require (msg.sender == owner, \"you are not the owner\") */\n      tag_47\n      jumpi\n      mload(0x40)\n      0x08c379a000000000000000000000000000000000000000000000000000000000\n      dup2\n      mstore\n      0x04\n      add\n      tag_48\n      swap1\n      tag_49\n      jump\t// in\n    tag_48:\n      mload(0x40)\n      dup1\n      swap2\n      sub\n      swap1\n      revert\n    tag_47:\n        /* \"FallBackExample.sol\":458:463  owner */\n      0x01\n      0x00\n      swap1\n      sload\n      swap1\n      0x0100\n      exp\n      swap1\n      div\n      0xffffffffffffffffffffffffffffffffffffffff\n      and\n        /* \"FallBackExample.sol\":445:464  selfdestruct(owner) */\n      0xffffffffffffffffffffffffffffffffffffffff\n      and\n      selfdestruct\n        /* \"FallBackExample.sol\":233:320  function getOwner() public view returns (address) {\r... */\n    tag_19:\n        /* \"FallBackExample.sol\":274:281  address */\n      0x00\n        /* \"FallBackExample.sol\":303:308  owner */\n      0x01\n      0x00\n      swap1\n      sload\n      swap1\n      0x0100\n      exp\n      swap1\n      div\n      0xffffffffffffffffffffffffffffffffffffffff\n      and\n        /* \"FallBackExample.sol\":295:309  return (owner) */\n      swap1\n      pop\n        /* \"FallBackExample.sol\":233:320  function getOwner() public view returns (address) {\r... */\n      swap1\n      jump\t// out\n        /* \"FallBackExample.sol\":125:153  address payable public owner */\n    tag_24:\n      0x01\n      0x00\n      swap1\n      sload\n      swap1\n      0x0100\n      exp\n      swap1\n      div\n      0xffffffffffffffffffffffffffffffffffffffff\n      and\n      dup2\n      jump\t// out\n        /* \"FallBackExample.sol\":67:115  mapping (address => uint) public balanceReceived */\n    tag_31:\n      mstore(0x20, 0x00)\n      dup1\n      0x00\n      mstore\n      keccak256(0x00, 0x40)\n      0x00\n      swap2\n      pop\n      swap1\n      pop\n      sload\n      dup2\n      jump\t// out\n        /* \"FallBackExample.sol\":696:1027  function withdrawMoney (address payable _to, uint _amount) public {\r... */\n    tag_38:\n        /* \"FallBackExample.sol\":794:809  balanceReceived */\n      0x00\n        /* \"FallBackExample.sol\":794:821  balanceReceived[msg.sender] */\n      dup1\n        /* \"FallBackExample.sol\":810:820  msg.sender */\n      caller\n        /* \"FallBackExample.sol\":794:821  balanceReceived[msg.sender] */\n      0xffffffffffffffffffffffffffffffffffffffff\n      and\n      0xffffffffffffffffffffffffffffffffffffffff\n      and\n      dup2\n      mstore\n      0x20\n      add\n      swap1\n      dup2\n      mstore\n      0x20\n      add\n      0x00\n      keccak256\n      sload\n        /* \"FallBackExample.sol\":783:790  _amount */\n      dup2\n        /* \"FallBackExample.sol\":783:821  _amount <= balanceReceived[msg.sender] */\n      gt\n      iszero\n        /* \"FallBackExample.sol\":774:843  require (_amount <= balanceReceived[msg.sender], \"not enough funds.\") */\n      tag_52\n      jumpi\n      mload(0x40)\n      0x08c379a000000000000000000000000000000000000000000000000000000000\n      dup2\n      mstore\n      0x04\n      add\n      tag_53\n      swap1\n      tag_54\n      jump\t// in\n    tag_53:\n      mload(0x40)\n      dup1\n      swap2\n      sub\n      swap1\n      revert\n    tag_52:\n        /* \"FallBackExample.sol\":925:932  _amount */\n      dup1\n        /* \"FallBackExample.sol\":896:911  balanceReceived */\n      0x00\n        /* \"FallBackExample.sol\":896:923  balanceReceived[msg.sender] */\n      dup1\n        /* \"FallBackExample.sol\":912:922  msg.sender */\n      caller\n        /* \"FallBackExample.sol\":896:923  balanceReceived[msg.sender] */\n      0xffffffffffffffffffffffffffffffffffffffff\n      and\n      0xffffffffffffffffffffffffffffffffffffffff\n      and\n      dup2\n      mstore\n      0x20\n      add\n      swap1\n      dup2\n      mstore\n      0x20\n      add\n      0x00\n      keccak256\n      sload\n        /* \"FallBackExample.sol\":896:932  balanceReceived[msg.sender]- _amount */\n      tag_55\n      swap2\n      swap1\n      tag_56\n      jump\t// in\n    tag_55:\n        /* \"FallBackExample.sol\":865:880  balanceReceived */\n      0x00\n        /* \"FallBackExample.sol\":865:892  balanceReceived[msg.sender] */\n      dup1\n        /* \"FallBackExample.sol\":881:891  msg.sender */\n      caller\n        /* \"FallBackExample.sol\":865:892  balanceReceived[msg.sender] */\n      0xffffffffffffffffffffffffffffffffffffffff\n      and\n      0xffffffffffffffffffffffffffffffffffffffff\n      and\n      dup2\n      mstore\n      0x20\n      add\n      swap1\n      dup2\n      mstore\n      0x20\n      add\n      0x00\n      keccak256\n      sload\n        /* \"FallBackExample.sol\":865:932  balanceReceived[msg.sender] >= balanceReceived[msg.sender]- _amount */\n      lt\n      iszero\n        /* \"FallBackExample.sol\":857:933  assert (balanceReceived[msg.sender] >= balanceReceived[msg.sender]- _amount) */\n      tag_57\n      jumpi\n      tag_58\n      tag_44\n      jump\t// in\n    tag_58:\n    tag_57:\n        /* \"FallBackExample.sol\":976:983  _amount */\n      dup1\n        /* \"FallBackExample.sol\":945:960  balanceReceived */\n      0x00\n        /* \"FallBackExample.sol\":945:972  balanceReceived[msg.sender] */\n      dup1\n        /* \"FallBackExample.sol\":961:971  msg.sender */\n      caller\n        /* \"FallBackExample.sol\":945:972  balanceReceived[msg.sender] */\n      0xffffffffffffffffffffffffffffffffffffffff\n      and\n      0xffffffffffffffffffffffffffffffffffffffff\n      and\n      dup2\n      mstore\n      0x20\n      add\n      swap1\n      dup2\n      mstore\n      0x20\n      add\n      0x00\n      keccak256\n      0x00\n        /* \"FallBackExample.sol\":945:983  balanceReceived[msg.sender] -= _amount */\n      dup3\n      dup3\n      sload\n      tag_59\n      swap2\n      swap1\n      tag_56\n      jump\t// in\n    tag_59:\n      swap3\n      pop\n      pop\n      dup2\n      swap1\n      sstore\n      pop\n        /* \"FallBackExample.sol\":995:998  _to */\n      dup2\n        /* \"FallBackExample.sol\":995:1007  _to.transfer */\n      0xffffffffffffffffffffffffffffffffffffffff\n      and\n        /* \"FallBackExample.sol\":995:1016  _to.transfer(_amount) */\n      0x08fc\n        /* \"FallBackExample.sol\":1008:1015  _amount */\n      dup3\n        /* \"FallBackExample.sol\":995:1016  _to.transfer(_amount) */\n      swap1\n      dup2\n      iszero\n      mul\n      swap1\n      mload(0x40)\n      0x00\n      mload(0x40)\n      dup1\n      dup4\n      sub\n      dup2\n      dup6\n      dup9\n      dup9\n      call\n      swap4\n      pop\n      pop\n      pop\n      pop\n      iszero\n      dup1\n      iszero\n      tag_61\n      jumpi\n      returndatasize\n      0x00\n      dup1\n      returndatacopy\n      revert(0x00, returndatasize)\n    tag_61:\n      pop\n        /* \"FallBackExample.sol\":696:1027  function withdrawMoney (address payable _to, uint _amount) public {\r... */\n      pop\n      pop\n      jump\t// out\n        /* \"#utility.yul\":7:146   */\n    tag_63:\n        /* \"#utility.yul\":53:58   */\n      0x00\n        /* \"#utility.yul\":91:97   */\n      dup2\n        /* \"#utility.yul\":78:98   */\n      calldataload\n        /* \"#utility.yul\":69:98   */\n      swap1\n      pop\n        /* \"#utility.yul\":107:140   */\n      tag_65\n        /* \"#utility.yul\":134:139   */\n      dup2\n        /* \"#utility.yul\":107:140   */\n      tag_66\n      jump\t// in\n    tag_65:\n        /* \"#utility.yul\":7:146   */\n      swap3\n      swap2\n      pop\n      pop\n      jump\t// out\n        /* \"#utility.yul\":152:307   */\n    tag_67:\n        /* \"#utility.yul\":206:211   */\n      0x00\n        /* \"#utility.yul\":244:250   */\n      dup2\n        /* \"#utility.yul\":231:251   */\n      calldataload\n        /* \"#utility.yul\":222:251   */\n      swap1\n      pop\n        /* \"#utility.yul\":260:301   */\n      tag_69\n        /* \"#utility.yul\":295:300   */\n      dup2\n        /* \"#utility.yul\":260:301   */\n      tag_70\n      jump\t// in\n    tag_69:\n        /* \"#utility.yul\":152:307   */\n      swap3\n      swap2\n      pop\n      pop\n      jump\t// out\n        /* \"#utility.yul\":313:452   */\n    tag_71:\n        /* \"#utility.yul\":359:364   */\n      0x00\n        /* \"#utility.yul\":397:403   */\n      dup2\n        /* \"#utility.yul\":384:404   */\n      calldataload\n        /* \"#utility.yul\":375:404   */\n      swap1\n      pop\n        /* \"#utility.yul\":413:446   */\n      tag_73\n        /* \"#utility.yul\":440:445   */\n      dup2\n        /* \"#utility.yul\":413:446   */\n      tag_74\n      jump\t// in\n    tag_73:\n        /* \"#utility.yul\":313:452   */\n      swap3\n      swap2\n      pop\n      pop\n      jump\t// out\n        /* \"#utility.yul\":458:787   */\n    tag_30:\n        /* \"#utility.yul\":517:523   */\n      0x00\n        /* \"#utility.yul\":566:568   */\n      0x20\n        /* \"#utility.yul\":554:563   */\n      dup3\n        /* \"#utility.yul\":545:552   */\n      dup5\n        /* \"#utility.yul\":541:564   */\n      sub\n        /* \"#utility.yul\":537:569   */\n      slt\n        /* \"#utility.yul\":534:653   */\n      iszero\n      tag_76\n      jumpi\n        /* \"#utility.yul\":572:651   */\n      tag_77\n      tag_78\n      jump\t// in\n    tag_77:\n        /* \"#utility.yul\":534:653   */\n    tag_76:\n        /* \"#utility.yul\":692:693   */\n      0x00\n        /* \"#utility.yul\":717:770   */\n      tag_79\n        /* \"#utility.yul\":762:769   */\n      dup5\n        /* \"#utility.yul\":753:759   */\n      dup3\n        /* \"#utility.yul\":742:751   */\n      dup6\n        /* \"#utility.yul\":738:760   */\n      add\n        /* \"#utility.yul\":717:770   */\n      tag_63\n      jump\t// in\n    tag_79:\n        /* \"#utility.yul\":707:770   */\n      swap2\n      pop\n        /* \"#utility.yul\":663:780   */\n      pop\n        /* \"#utility.yul\":458:787   */\n      swap3\n      swap2\n      pop\n      pop\n      jump\t// out\n        /* \"#utility.yul\":793:1283   */\n    tag_37:\n        /* \"#utility.yul\":869:875   */\n      0x00\n        /* \"#utility.yul\":877:883   */\n      dup1\n        /* \"#utility.yul\":926:928   */\n      0x40\n        /* \"#utility.yul\":914:923   */\n      dup4\n        /* \"#utility.yul\":905:912   */\n      dup6\n        /* \"#utility.yul\":901:924   */\n      sub\n        /* \"#utility.yul\":897:929   */\n      slt\n        /* \"#utility.yul\":894:1013   */\n      iszero\n      tag_81\n      jumpi\n        /* \"#utility.yul\":932:1011   */\n      tag_82\n      tag_78\n      jump\t// in\n    tag_82:\n        /* \"#utility.yul\":894:1013   */\n    tag_81:\n        /* \"#utility.yul\":1052:1053   */\n      0x00\n        /* \"#utility.yul\":1077:1138   */\n      tag_83\n        /* \"#utility.yul\":1130:1137   */\n      dup6\n        /* \"#utility.yul\":1121:1127   */\n      dup3\n        /* \"#utility.yul\":1110:1119   */\n      dup7\n        /* \"#utility.yul\":1106:1128   */\n      add\n        /* \"#utility.yul\":1077:1138   */\n      tag_67\n      jump\t// in\n    tag_83:\n        /* \"#utility.yul\":1067:1138   */\n      swap3\n      pop\n        /* \"#utility.yul\":1023:1148   */\n      pop\n        /* \"#utility.yul\":1187:1189   */\n      0x20\n        /* \"#utility.yul\":1213:1266   */\n      tag_84\n        /* \"#utility.yul\":1258:1265   */\n      dup6\n        /* \"#utility.yul\":1249:1255   */\n      dup3\n        /* \"#utility.yul\":1238:1247   */\n      dup7\n        /* \"#utility.yul\":1234:1256   */\n      add\n        /* \"#utility.yul\":1213:1266   */\n      tag_71\n      jump\t// in\n    tag_84:\n        /* \"#utility.yul\":1203:1266   */\n      swap2\n      pop\n        /* \"#utility.yul\":1158:1276   */\n      pop\n        /* \"#utility.yul\":793:1283   */\n      swap3\n      pop\n      swap3\n      swap1\n      pop\n      jump\t// out\n        /* \"#utility.yul\":1289:1431   */\n    tag_85:\n        /* \"#utility.yul\":1392:1424   */\n      tag_87\n        /* \"#utility.yul\":1418:1423   */\n      dup2\n        /* \"#utility.yul\":1392:1424   */\n      tag_88\n      jump\t// in\n    tag_87:\n        /* \"#utility.yul\":1387:1390   */\n      dup3\n        /* \"#utility.yul\":1380:1425   */\n      mstore\n        /* \"#utility.yul\":1289:1431   */\n      pop\n      pop\n      jump\t// out\n        /* \"#utility.yul\":1437:1555   */\n    tag_89:\n        /* \"#utility.yul\":1524:1548   */\n      tag_91\n        /* \"#utility.yul\":1542:1547   */\n      dup2\n        /* \"#utility.yul\":1524:1548   */\n      tag_92\n      jump\t// in\n    tag_91:\n        /* \"#utility.yul\":1519:1522   */\n      dup3\n        /* \"#utility.yul\":1512:1549   */\n      mstore\n        /* \"#utility.yul\":1437:1555   */\n      pop\n      pop\n      jump\t// out\n        /* \"#utility.yul\":1561:1927   */\n    tag_93:\n        /* \"#utility.yul\":1703:1706   */\n      0x00\n        /* \"#utility.yul\":1724:1791   */\n      tag_95\n        /* \"#utility.yul\":1788:1790   */\n      0x11\n        /* \"#utility.yul\":1783:1786   */\n      dup4\n        /* \"#utility.yul\":1724:1791   */\n      tag_96\n      jump\t// in\n    tag_95:\n        /* \"#utility.yul\":1717:1791   */\n      swap2\n      pop\n        /* \"#utility.yul\":1800:1893   */\n      tag_97\n        /* \"#utility.yul\":1889:1892   */\n      dup3\n        /* \"#utility.yul\":1800:1893   */\n      tag_98\n      jump\t// in\n    tag_97:\n        /* \"#utility.yul\":1918:1920   */\n      0x20\n        /* \"#utility.yul\":1913:1916   */\n      dup3\n        /* \"#utility.yul\":1909:1921   */\n      add\n        /* \"#utility.yul\":1902:1921   */\n      swap1\n      pop\n        /* \"#utility.yul\":1561:1927   */\n      swap2\n      swap1\n      pop\n      jump\t// out\n        /* \"#utility.yul\":1933:2299   */\n    tag_99:\n        /* \"#utility.yul\":2075:2078   */\n      0x00\n        /* \"#utility.yul\":2096:2163   */\n      tag_101\n        /* \"#utility.yul\":2160:2162   */\n      0x15\n        /* \"#utility.yul\":2155:2158   */\n      dup4\n        /* \"#utility.yul\":2096:2163   */\n      tag_96\n      jump\t// in\n    tag_101:\n        /* \"#utility.yul\":2089:2163   */\n      swap2\n      pop\n        /* \"#utility.yul\":2172:2265   */\n      tag_102\n        /* \"#utility.yul\":2261:2264   */\n      dup3\n        /* \"#utility.yul\":2172:2265   */\n      tag_103\n      jump\t// in\n    tag_102:\n        /* \"#utility.yul\":2290:2292   */\n      0x20\n        /* \"#utility.yul\":2285:2288   */\n      dup3\n        /* \"#utility.yul\":2281:2293   */\n      add\n        /* \"#utility.yul\":2274:2293   */\n      swap1\n      pop\n        /* \"#utility.yul\":1933:2299   */\n      swap2\n      swap1\n      pop\n      jump\t// out\n        /* \"#utility.yul\":2305:2423   */\n    tag_104:\n        /* \"#utility.yul\":2392:2416   */\n      tag_106\n        /* \"#utility.yul\":2410:2415   */\n      dup2\n        /* \"#utility.yul\":2392:2416   */\n      tag_107\n      jump\t// in\n    tag_106:\n        /* \"#utility.yul\":2387:2390   */\n      dup3\n        /* \"#utility.yul\":2380:2417   */\n      mstore\n        /* \"#utility.yul\":2305:2423   */\n      pop\n      pop\n      jump\t// out\n        /* \"#utility.yul\":2429:2651   */\n    tag_21:\n        /* \"#utility.yul\":2522:2526   */\n      0x00\n        /* \"#utility.yul\":2560:2562   */\n      0x20\n        /* \"#utility.yul\":2549:2558   */\n      dup3\n        /* \"#utility.yul\":2545:2563   */\n      add\n        /* \"#utility.yul\":2537:2563   */\n      swap1\n      pop\n        /* \"#utility.yul\":2573:2644   */\n      tag_109\n        /* \"#utility.yul\":2641:2642   */\n      0x00\n        /* \"#utility.yul\":2630:2639   */\n      dup4\n        /* \"#utility.yul\":2626:2643   */\n      add\n        /* \"#utility.yul\":2617:2623   */\n      dup5\n        /* \"#utility.yul\":2573:2644   */\n      tag_89\n      jump\t// in\n    tag_109:\n        /* \"#utility.yul\":2429:2651   */\n      swap3\n      swap2\n      pop\n      pop\n      jump\t// out\n        /* \"#utility.yul\":2657:2911   */\n    tag_26:\n        /* \"#utility.yul\":2766:2770   */\n      0x00\n        /* \"#utility.yul\":2804:2806   */\n      0x20\n        /* \"#utility.yul\":2793:2802   */\n      dup3\n        /* \"#utility.yul\":2789:2807   */\n      add\n        /* \"#utility.yul\":2781:2807   */\n      swap1\n      pop\n        /* \"#utility.yul\":2817:2904   */\n      tag_111\n        /* \"#utility.yul\":2901:2902   */\n      0x00\n        /* \"#utility.yul\":2890:2899   */\n      dup4\n        /* \"#utility.yul\":2886:2903   */\n      add\n        /* \"#utility.yul\":2877:2883   */\n      dup5\n        /* \"#utility.yul\":2817:2904   */\n      tag_85\n      jump\t// in\n    tag_111:\n        /* \"#utility.yul\":2657:2911   */\n      swap3\n      swap2\n      pop\n      pop\n      jump\t// out\n        /* \"#utility.yul\":2917:3336   */\n    tag_54:\n        /* \"#utility.yul\":3083:3087   */\n      0x00\n        /* \"#utility.yul\":3121:3123   */\n      0x20\n        /* \"#utility.yul\":3110:3119   */\n      dup3\n        /* \"#utility.yul\":3106:3124   */\n      add\n        /* \"#utility.yul\":3098:3124   */\n      swap1\n      pop\n        /* \"#utility.yul\":3170:3179   */\n      dup2\n        /* \"#utility.yul\":3164:3168   */\n      dup2\n        /* \"#utility.yul\":3160:3180   */\n      sub\n        /* \"#utility.yul\":3156:3157   */\n      0x00\n        /* \"#utility.yul\":3145:3154   */\n      dup4\n        /* \"#utility.yul\":3141:3158   */\n      add\n        /* \"#utility.yul\":3134:3181   */\n      mstore\n        /* \"#utility.yul\":3198:3329   */\n      tag_113\n        /* \"#utility.yul\":3324:3328   */\n      dup2\n        /* \"#utility.yul\":3198:3329   */\n      tag_93\n      jump\t// in\n    tag_113:\n        /* \"#utility.yul\":3190:3329   */\n      swap1\n      pop\n        /* \"#utility.yul\":2917:3336   */\n      swap2\n      swap1\n      pop\n      jump\t// out\n        /* \"#utility.yul\":3342:3761   */\n    tag_49:\n        /* \"#utility.yul\":3508:3512   */\n      0x00\n        /* \"#utility.yul\":3546:3548   */\n      0x20\n        /* \"#utility.yul\":3535:3544   */\n      dup3\n        /* \"#utility.yul\":3531:3549   */\n      add\n        /* \"#utility.yul\":3523:3549   */\n      swap1\n      pop\n        /* \"#utility.yul\":3595:3604   */\n      dup2\n        /* \"#utility.yul\":3589:3593   */\n      dup2\n        /* \"#utility.yul\":3585:3605   */\n      sub\n        /* \"#utility.yul\":3581:3582   */\n      0x00\n        /* \"#utility.yul\":3570:3579   */\n      dup4\n        /* \"#utility.yul\":3566:3583   */\n      add\n        /* \"#utility.yul\":3559:3606   */\n      mstore\n        /* \"#utility.yul\":3623:3754   */\n      tag_115\n        /* \"#utility.yul\":3749:3753   */\n      dup2\n        /* \"#utility.yul\":3623:3754   */\n      tag_99\n      jump\t// in\n    tag_115:\n        /* \"#utility.yul\":3615:3754   */\n      swap1\n      pop\n        /* \"#utility.yul\":3342:3761   */\n      swap2\n      swap1\n      pop\n      jump\t// out\n        /* \"#utility.yul\":3767:3989   */\n    tag_33:\n        /* \"#utility.yul\":3860:3864   */\n      0x00\n        /* \"#utility.yul\":3898:3900   */\n      0x20\n        /* \"#utility.yul\":3887:3896   */\n      dup3\n        /* \"#utility.yul\":3883:3901   */\n      add\n        /* \"#utility.yul\":3875:3901   */\n      swap1\n      pop\n        /* \"#utility.yul\":3911:3982   */\n      tag_117\n        /* \"#utility.yul\":3979:3980   */\n      0x00\n        /* \"#utility.yul\":3968:3977   */\n      dup4\n        /* \"#utility.yul\":3964:3981   */\n      add\n        /* \"#utility.yul\":3955:3961   */\n      dup5\n        /* \"#utility.yul\":3911:3982   */\n      tag_104\n      jump\t// in\n    tag_117:\n        /* \"#utility.yul\":3767:3989   */\n      swap3\n      swap2\n      pop\n      pop\n      jump\t// out\n        /* \"#utility.yul\":4076:4245   */\n    tag_96:\n        /* \"#utility.yul\":4160:4171   */\n      0x00\n        /* \"#utility.yul\":4194:4200   */\n      dup3\n        /* \"#utility.yul\":4189:4192   */\n      dup3\n        /* \"#utility.yul\":4182:4201   */\n      mstore\n        /* \"#utility.yul\":4234:4238   */\n      0x20\n        /* \"#utility.yul\":4229:4232   */\n      dup3\n        /* \"#utility.yul\":4225:4239   */\n      add\n        /* \"#utility.yul\":4210:4239   */\n      swap1\n      pop\n        /* \"#utility.yul\":4076:4245   */\n      swap3\n      swap2\n      pop\n      pop\n      jump\t// out\n        /* \"#utility.yul\":4251:4556   */\n    tag_41:\n        /* \"#utility.yul\":4291:4294   */\n      0x00\n        /* \"#utility.yul\":4310:4330   */\n      tag_122\n        /* \"#utility.yul\":4328:4329   */\n      dup3\n        /* \"#utility.yul\":4310:4330   */\n      tag_107\n      jump\t// in\n    tag_122:\n        /* \"#utility.yul\":4305:4330   */\n      swap2\n      pop\n        /* \"#utility.yul\":4344:4364   */\n      tag_123\n        /* \"#utility.yul\":4362:4363   */\n      dup4\n        /* \"#utility.yul\":4344:4364   */\n      tag_107\n      jump\t// in\n    tag_123:\n        /* \"#utility.yul\":4339:4364   */\n      swap3\n      pop\n        /* \"#utility.yul\":4498:4499   */\n      dup3\n        /* \"#utility.yul\":4430:4496   */\n      0xffffffffffffffffffffffffffffffffffffffffffffffffffffffffffffffff\n        /* \"#utility.yul\":4426:4500   */\n      sub\n        /* \"#utility.yul\":4423:4424   */\n      dup3\n        /* \"#utility.yul\":4420:4501   */\n      gt\n        /* \"#utility.yul\":4417:4524   */\n      iszero\n      tag_124\n      jumpi\n        /* \"#utility.yul\":4504:4522   */\n      tag_125\n      tag_126\n      jump\t// in\n    tag_125:\n        /* \"#utility.yul\":4417:4524   */\n    tag_124:\n        /* \"#utility.yul\":4548:4549   */\n      dup3\n        /* \"#utility.yul\":4545:4546   */\n      dup3\n        /* \"#utility.yul\":4541:4550   */\n      add\n        /* \"#utility.yul\":4534:4550   */\n      swap1\n      pop\n        /* \"#utility.yul\":4251:4556   */\n      swap3\n      swap2\n      pop\n      pop\n      jump\t// out\n        /* \"#utility.yul\":4562:4753   */\n    tag_56:\n        /* \"#utility.yul\":4602:4606   */\n      0x00\n        /* \"#utility.yul\":4622:4642   */\n      tag_128\n        /* \"#utility.yul\":4640:4641   */\n      dup3\n        /* \"#utility.yul\":4622:4642   */\n      tag_107\n      jump\t// in\n    tag_128:\n        /* \"#utility.yul\":4617:4642   */\n      swap2\n      pop\n        /* \"#utility.yul\":4656:4676   */\n      tag_129\n        /* \"#utility.yul\":4674:4675   */\n      dup4\n        /* \"#utility.yul\":4656:4676   */\n      tag_107\n      jump\t// in\n    tag_129:\n        /* \"#utility.yul\":4651:4676   */\n      swap3\n      pop\n        /* \"#utility.yul\":4695:4696   */\n      dup3\n        /* \"#utility.yul\":4692:4693   */\n      dup3\n        /* \"#utility.yul\":4689:4697   */\n      lt\n        /* \"#utility.yul\":4686:4720   */\n      iszero\n      tag_130\n      jumpi\n        /* \"#utility.yul\":4700:4718   */\n      tag_131\n      tag_126\n      jump\t// in\n    tag_131:\n        /* \"#utility.yul\":4686:4720   */\n    tag_130:\n        /* \"#utility.yul\":4745:4746   */\n      dup3\n        /* \"#utility.yul\":4742:4743   */\n      dup3\n        /* \"#utility.yul\":4738:4747   */\n      sub\n        /* \"#utility.yul\":4730:4747   */\n      swap1\n      pop\n        /* \"#utility.yul\":4562:4753   */\n      swap3\n      swap2\n      pop\n      pop\n      jump\t// out\n        /* \"#utility.yul\":4759:4855   */\n    tag_92:\n        /* \"#utility.yul\":4796:4803   */\n      0x00\n        /* \"#utility.yul\":4825:4849   */\n      tag_133\n        /* \"#utility.yul\":4843:4848   */\n      dup3\n        /* \"#utility.yul\":4825:4849   */\n      tag_134\n      jump\t// in\n    tag_133:\n        /* \"#utility.yul\":4814:4849   */\n      swap1\n      pop\n        /* \"#utility.yul\":4759:4855   */\n      swap2\n      swap1\n      pop\n      jump\t// out\n        /* \"#utility.yul\":4861:4965   */\n    tag_88:\n        /* \"#utility.yul\":4906:4913   */\n      0x00\n        /* \"#utility.yul\":4935:4959   */\n      tag_136\n        /* \"#utility.yul\":4953:4958   */\n      dup3\n        /* \"#utility.yul\":4935:4959   */\n      tag_134\n      jump\t// in\n    tag_136:\n        /* \"#utility.yul\":4924:4959   */\n      swap1\n      pop\n        /* \"#utility.yul\":4861:4965   */\n      swap2\n      swap1\n      pop\n      jump\t// out\n        /* \"#utility.yul\":4971:5097   */\n    tag_134:\n        /* \"#utility.yul\":5008:5015   */\n      0x00\n        /* \"#utility.yul\":5048:5090   */\n      0xffffffffffffffffffffffffffffffffffffffff\n        /* \"#utility.yul\":5041:5046   */\n      dup3\n        /* \"#utility.yul\":5037:5091   */\n      and\n        /* \"#utility.yul\":5026:5091   */\n      swap1\n      pop\n        /* \"#utility.yul\":4971:5097   */\n      swap2\n      swap1\n      pop\n      jump\t// out\n        /* \"#utility.yul\":5103:5180   */\n    tag_107:\n        /* \"#utility.yul\":5140:5147   */\n      0x00\n        /* \"#utility.yul\":5169:5174   */\n      dup2\n        /* \"#utility.yul\":5158:5174   */\n      swap1\n      pop\n        /* \"#utility.yul\":5103:5180   */\n      swap2\n      swap1\n      pop\n      jump\t// out\n        /* \"#utility.yul\":5186:5366   */\n    tag_44:\n        /* \"#utility.yul\":5234:5311   */\n      0x4e487b7100000000000000000000000000000000000000000000000000000000\n        /* \"#utility.yul\":5231:5232   */\n      0x00\n        /* \"#utility.yul\":5224:5312   */\n      mstore\n        /* \"#utility.yul\":5331:5335   */\n      0x01\n        /* \"#utility.yul\":5328:5329   */\n      0x04\n        /* \"#utility.yul\":5321:5336   */\n      mstore\n        /* \"#utility.yul\":5355:5359   */\n      0x24\n        /* \"#utility.yul\":5352:5353   */\n      0x00\n        /* \"#utility.yul\":5345:5360   */\n      revert\n        /* \"#utility.yul\":5372:5552   */\n    tag_126:\n        /* \"#utility.yul\":5420:5497   */\n      0x4e487b7100000000000000000000000000000000000000000000000000000000\n        /* \"#utility.yul\":5417:5418   */\n      0x00\n        /* \"#utility.yul\":5410:5498   */\n      mstore\n        /* \"#utility.yul\":5517:5521   */\n      0x11\n        /* \"#utility.yul\":5514:5515   */\n      0x04\n        /* \"#utility.yul\":5507:5522   */\n      mstore\n        /* \"#utility.yul\":5541:5545   */\n      0x24\n        /* \"#utility.yul\":5538:5539   */\n      0x00\n        /* \"#utility.yul\":5531:5546   */\n      revert\n        /* \"#utility.yul\":5681:5798   */\n    tag_78:\n        /* \"#utility.yul\":5790:5791   */\n      0x00\n        /* \"#utility.yul\":5787:5788   */\n      dup1\n        /* \"#utility.yul\":5780:5792   */\n      revert\n        /* \"#utility.yul\":5804:5971   */\n    tag_98:\n        /* \"#utility.yul\":5944:5963   */\n      0x6e6f7420656e6f7567682066756e64732e000000000000000000000000000000\n        /* \"#utility.yul\":5940:5941   */\n      0x00\n        /* \"#utility.yul\":5932:5938   */\n      dup3\n        /* \"#utility.yul\":5928:5942   */\n      add\n        /* \"#utility.yul\":5921:5964   */\n      mstore\n        /* \"#utility.yul\":5804:5971   */\n      pop\n      jump\t// out\n        /* \"#utility.yul\":5977:6148   */\n    tag_103:\n        /* \"#utility.yul\":6117:6140   */\n      0x796f7520617265206e6f7420746865206f776e65720000000000000000000000\n        /* \"#utility.yul\":6113:6114   */\n      0x00\n        /* \"#utility.yul\":6105:6111   */\n      dup3\n        /* \"#utility.yul\":6101:6115   */\n      add\n        /* \"#utility.yul\":6094:6141   */\n      mstore\n        /* \"#utility.yul\":5977:6148   */\n      pop\n      jump\t// out\n        /* \"#utility.yul\":6154:6276   */\n    tag_66:\n        /* \"#utility.yul\":6227:6251   */\n      tag_147\n        /* \"#utility.yul\":6245:6250   */\n      dup2\n        /* \"#utility.yul\":6227:6251   */\n      tag_92\n      jump\t// in\n    tag_147:\n        /* \"#utility.yul\":6220:6225   */\n      dup2\n        /* \"#utility.yul\":6217:6252   */\n      eq\n        /* \"#utility.yul\":6207:6270   */\n      tag_148\n      jumpi\n        /* \"#utility.yul\":6266:6267   */\n      0x00\n        /* \"#utility.yul\":6263:6264   */\n      dup1\n        /* \"#utility.yul\":6256:6268   */\n      revert\n        /* \"#utility.yul\":6207:6270   */\n    tag_148:\n        /* \"#utility.yul\":6154:6276   */\n      pop\n      jump\t// out\n        /* \"#utility.yul\":6282:6420   */\n    tag_70:\n        /* \"#utility.yul\":6363:6395   */\n      tag_150\n        /* \"#utility.yul\":6389:6394   */\n      dup2\n        /* \"#utility.yul\":6363:6395   */\n      tag_88\n      jump\t// in\n    tag_150:\n        /* \"#utility.yul\":6356:6361   */\n      dup2\n        /* \"#utility.yul\":6353:6396   */\n      eq\n        /* \"#utility.yul\":6343:6414   */\n      tag_151\n      jumpi\n        /* \"#utility.yul\":6410:6411   */\n      0x00\n        /* \"#utility.yul\":6407:6408   */\n      dup1\n        /* \"#utility.yul\":6400:6412   */\n      revert\n        /* \"#utility.yul\":6343:6414   */\n    tag_151:\n        /* \"#utility.yul\":6282:6420   */\n      pop\n      jump\t// out\n        /* \"#utility.yul\":6426:6548   */\n    tag_74:\n        /* \"#utility.yul\":6499:6523   */\n      tag_153\n        /* \"#utility.yul\":6517:6522   */\n      dup2\n        /* \"#utility.yul\":6499:6523   */\n      tag_107\n      jump\t// in\n    tag_153:\n        /* \"#utility.yul\":6492:6497   */\n      dup2\n        /* \"#utility.yul\":6489:6524   */\n      eq\n        /* \"#utility.yul\":6479:6542   */\n      tag_154\n      jumpi\n        /* \"#utility.yul\":6538:6539   */\n      0x00\n        /* \"#utility.yul\":6535:6536   */\n      dup1\n        /* \"#utility.yul\":6528:6540   */\n      revert\n        /* \"#utility.yul\":6479:6542   */\n    tag_154:\n        /* \"#utility.yul\":6426:6548   */\n      pop\n      jump\t// out\n\n    auxdata: 0xa2646970667358221220ade1f6ff24aadec2b17680c1467e2512af456cdc069f84c3c3666cb7d3e2630964736f6c63430008070033\n}\n",
				"bytecode": {
					"linkReferences": {},
					"object": "608060405234801561001057600080fd5b5033600160006101000a81548173ffffffffffffffffffffffffffffffffffffffff021916908373ffffffffffffffffffffffffffffffffffffffff1602179055506108ee806100616000396000f3fe6080604052600436106100595760003560e01c80636d26ec181461006d5780638547472814610077578063893d20e81461008e5780638da5cb5b146100b9578063d18a42e1146100e4578063f274c8971461012157610068565b366100685761006661014a565b005b600080fd5b61007561014a565b005b34801561008357600080fd5b5061008c610239565b005b34801561009a57600080fd5b506100a3610304565b6040516100b09190610644565b60405180910390f35b3480156100c557600080fd5b506100ce61032e565b6040516100db919061065f565b60405180910390f35b3480156100f057600080fd5b5061010b60048036038101906101069190610564565b610354565b60405161011891906106ba565b60405180910390f35b34801561012d57600080fd5b5061014860048036038101906101439190610591565b61036c565b005b6000803373ffffffffffffffffffffffffffffffffffffffff1673ffffffffffffffffffffffffffffffffffffffff16815260200190815260200160002054346000803373ffffffffffffffffffffffffffffffffffffffff1673ffffffffffffffffffffffffffffffffffffffff168152602001908152602001600020546101d391906106e6565b10156101e2576101e16107be565b5b346000803373ffffffffffffffffffffffffffffffffffffffff1673ffffffffffffffffffffffffffffffffffffffff168152602001908152602001600020600082825461023091906106e6565b92505081905550565b600160009054906101000a900473ffffffffffffffffffffffffffffffffffffffff1673ffffffffffffffffffffffffffffffffffffffff163373ffffffffffffffffffffffffffffffffffffffff16146102c9576040517f08c379a00000000000000000000000000000000000000000000000000000000081526004016102c09061069a565b60405180910390fd5b600160009054906101000a900473ffffffffffffffffffffffffffffffffffffffff1673ffffffffffffffffffffffffffffffffffffffff16ff5b6000600160009054906101000a900473ffffffffffffffffffffffffffffffffffffffff16905090565b600160009054906101000a900473ffffffffffffffffffffffffffffffffffffffff1681565b60006020528060005260406000206000915090505481565b6000803373ffffffffffffffffffffffffffffffffffffffff1673ffffffffffffffffffffffffffffffffffffffff168152602001908152602001600020548111156103ed576040517f08c379a00000000000000000000000000000000000000000000000000000000081526004016103e49061067a565b60405180910390fd5b806000803373ffffffffffffffffffffffffffffffffffffffff1673ffffffffffffffffffffffffffffffffffffffff16815260200190815260200160002054610437919061073c565b6000803373ffffffffffffffffffffffffffffffffffffffff1673ffffffffffffffffffffffffffffffffffffffff168152602001908152602001600020541015610485576104846107be565b5b806000803373ffffffffffffffffffffffffffffffffffffffff1673ffffffffffffffffffffffffffffffffffffffff16815260200190815260200160002060008282546104d3919061073c565b925050819055508173ffffffffffffffffffffffffffffffffffffffff166108fc829081150290604051600060405180830381858888f19350505050158015610520573d6000803e3d6000fd5b505050565b60008135905061053481610873565b92915050565b6000813590506105498161088a565b92915050565b60008135905061055e816108a1565b92915050565b60006020828403121561057a5761057961081c565b5b600061058884828501610525565b91505092915050565b600080604083850312156105a8576105a761081c565b5b60006105b68582860161053a565b92505060206105c78582860161054f565b9150509250929050565b6105da81610782565b82525050565b6105e981610770565b82525050565b60006105fc6011836106d5565b915061060782610821565b602082019050919050565b600061061f6015836106d5565b915061062a8261084a565b602082019050919050565b61063e816107b4565b82525050565b600060208201905061065960008301846105e0565b92915050565b600060208201905061067460008301846105d1565b92915050565b60006020820190508181036000830152610693816105ef565b9050919050565b600060208201905081810360008301526106b381610612565b9050919050565b60006020820190506106cf6000830184610635565b92915050565b600082825260208201905092915050565b60006106f1826107b4565b91506106fc836107b4565b9250827fffffffffffffffffffffffffffffffffffffffffffffffffffffffffffffffff03821115610731576107306107ed565b5b828201905092915050565b6000610747826107b4565b9150610752836107b4565b925082821015610765576107646107ed565b5b828203905092915050565b600061077b82610794565b9050919050565b600061078d82610794565b9050919050565b600073ffffffffffffffffffffffffffffffffffffffff82169050919050565b6000819050919050565b7f4e487b7100000000000000000000000000000000000000000000000000000000600052600160045260246000fd5b7f4e487b7100000000000000000000000000000000000000000000000000000000600052601160045260246000fd5b600080fd5b7f6e6f7420656e6f7567682066756e64732e000000000000000000000000000000600082015250565b7f796f7520617265206e6f7420746865206f776e65720000000000000000000000600082015250565b61087c81610770565b811461088757600080fd5b50565b61089381610782565b811461089e57600080fd5b50565b6108aa816107b4565b81146108b557600080fd5b5056fea2646970667358221220ade1f6ff24aadec2b17680c1467e2512af456cdc069f84c3c3666cb7d3e2630964736f6c63430008070033",
					"opcodes": "PUSH1 0x80 PUSH1 0x40 MSTORE CALLVALUE DUP1 ISZERO PUSH2 0x10 JUMPI PUSH1 0x0 DUP1 REVERT JUMPDEST POP CALLER PUSH1 0x1 PUSH1 0x0 PUSH2 0x100 EXP DUP2 SLOAD DUP2 PUSH20 0xFFFFFFFFFFFFFFFFFFFFFFFFFFFFFFFFFFFFFFFF MUL NOT AND SWAP1 DUP4 PUSH20 0xFFFFFFFFFFFFFFFFFFFFFFFFFFFFFFFFFFFFFFFF AND MUL OR SWAP1 SSTORE POP PUSH2 0x8EE DUP1 PUSH2 0x61 PUSH1 0x0 CODECOPY PUSH1 0x0 RETURN INVALID PUSH1 0x80 PUSH1 0x40 MSTORE PUSH1 0x4 CALLDATASIZE LT PUSH2 0x59 JUMPI PUSH1 0x0 CALLDATALOAD PUSH1 0xE0 SHR DUP1 PUSH4 0x6D26EC18 EQ PUSH2 0x6D JUMPI DUP1 PUSH4 0x85474728 EQ PUSH2 0x77 JUMPI DUP1 PUSH4 0x893D20E8 EQ PUSH2 0x8E JUMPI DUP1 PUSH4 0x8DA5CB5B EQ PUSH2 0xB9 JUMPI DUP1 PUSH4 0xD18A42E1 EQ PUSH2 0xE4 JUMPI DUP1 PUSH4 0xF274C897 EQ PUSH2 0x121 JUMPI PUSH2 0x68 JUMP JUMPDEST CALLDATASIZE PUSH2 0x68 JUMPI PUSH2 0x66 PUSH2 0x14A JUMP JUMPDEST STOP JUMPDEST PUSH1 0x0 DUP1 REVERT JUMPDEST PUSH2 0x75 PUSH2 0x14A JUMP JUMPDEST STOP JUMPDEST CALLVALUE DUP1 ISZERO PUSH2 0x83 JUMPI PUSH1 0x0 DUP1 REVERT JUMPDEST POP PUSH2 0x8C PUSH2 0x239 JUMP JUMPDEST STOP JUMPDEST CALLVALUE DUP1 ISZERO PUSH2 0x9A JUMPI PUSH1 0x0 DUP1 REVERT JUMPDEST POP PUSH2 0xA3 PUSH2 0x304 JUMP JUMPDEST PUSH1 0x40 MLOAD PUSH2 0xB0 SWAP2 SWAP1 PUSH2 0x644 JUMP JUMPDEST PUSH1 0x40 MLOAD DUP1 SWAP2 SUB SWAP1 RETURN JUMPDEST CALLVALUE DUP1 ISZERO PUSH2 0xC5 JUMPI PUSH1 0x0 DUP1 REVERT JUMPDEST POP PUSH2 0xCE PUSH2 0x32E JUMP JUMPDEST PUSH1 0x40 MLOAD PUSH2 0xDB SWAP2 SWAP1 PUSH2 0x65F JUMP JUMPDEST PUSH1 0x40 MLOAD DUP1 SWAP2 SUB SWAP1 RETURN JUMPDEST CALLVALUE DUP1 ISZERO PUSH2 0xF0 JUMPI PUSH1 0x0 DUP1 REVERT JUMPDEST POP PUSH2 0x10B PUSH1 0x4 DUP1 CALLDATASIZE SUB DUP2 ADD SWAP1 PUSH2 0x106 SWAP2 SWAP1 PUSH2 0x564 JUMP JUMPDEST PUSH2 0x354 JUMP JUMPDEST PUSH1 0x40 MLOAD PUSH2 0x118 SWAP2 SWAP1 PUSH2 0x6BA JUMP JUMPDEST PUSH1 0x40 MLOAD DUP1 SWAP2 SUB SWAP1 RETURN JUMPDEST CALLVALUE DUP1 ISZERO PUSH2 0x12D JUMPI PUSH1 0x0 DUP1 REVERT JUMPDEST POP PUSH2 0x148 PUSH1 0x4 DUP1 CALLDATASIZE SUB DUP2 ADD SWAP1 PUSH2 0x143 SWAP2 SWAP1 PUSH2 0x591 JUMP JUMPDEST PUSH2 0x36C JUMP JUMPDEST STOP JUMPDEST PUSH1 0x0 DUP1 CALLER PUSH20 0xFFFFFFFFFFFFFFFFFFFFFFFFFFFFFFFFFFFFFFFF AND PUSH20 0xFFFFFFFFFFFFFFFFFFFFFFFFFFFFFFFFFFFFFFFF AND DUP2 MSTORE PUSH1 0x20 ADD SWAP1 DUP2 MSTORE PUSH1 0x20 ADD PUSH1 0x0 KECCAK256 SLOAD CALLVALUE PUSH1 0x0 DUP1 CALLER PUSH20 0xFFFFFFFFFFFFFFFFFFFFFFFFFFFFFFFFFFFFFFFF AND PUSH20 0xFFFFFFFFFFFFFFFFFFFFFFFFFFFFFFFFFFFFFFFF AND DUP2 MSTORE PUSH1 0x20 ADD SWAP1 DUP2 MSTORE PUSH1 0x20 ADD PUSH1 0x0 KECCAK256 SLOAD PUSH2 0x1D3 SWAP2 SWAP1 PUSH2 0x6E6 JUMP JUMPDEST LT ISZERO PUSH2 0x1E2 JUMPI PUSH2 0x1E1 PUSH2 0x7BE JUMP JUMPDEST JUMPDEST CALLVALUE PUSH1 0x0 DUP1 CALLER PUSH20 0xFFFFFFFFFFFFFFFFFFFFFFFFFFFFFFFFFFFFFFFF AND PUSH20 0xFFFFFFFFFFFFFFFFFFFFFFFFFFFFFFFFFFFFFFFF AND DUP2 MSTORE PUSH1 0x20 ADD SWAP1 DUP2 MSTORE PUSH1 0x20 ADD PUSH1 0x0 KECCAK256 PUSH1 0x0 DUP3 DUP3 SLOAD PUSH2 0x230 SWAP2 SWAP1 PUSH2 0x6E6 JUMP JUMPDEST SWAP3 POP POP DUP2 SWAP1 SSTORE POP JUMP JUMPDEST PUSH1 0x1 PUSH1 0x0 SWAP1 SLOAD SWAP1 PUSH2 0x100 EXP SWAP1 DIV PUSH20 0xFFFFFFFFFFFFFFFFFFFFFFFFFFFFFFFFFFFFFFFF AND PUSH20 0xFFFFFFFFFFFFFFFFFFFFFFFFFFFFFFFFFFFFFFFF AND CALLER PUSH20 0xFFFFFFFFFFFFFFFFFFFFFFFFFFFFFFFFFFFFFFFF AND EQ PUSH2 0x2C9 JUMPI PUSH1 0x40 MLOAD PUSH32 0x8C379A000000000000000000000000000000000000000000000000000000000 DUP2 MSTORE PUSH1 0x4 ADD PUSH2 0x2C0 SWAP1 PUSH2 0x69A JUMP JUMPDEST PUSH1 0x40 MLOAD DUP1 SWAP2 SUB SWAP1 REVERT JUMPDEST PUSH1 0x1 PUSH1 0x0 SWAP1 SLOAD SWAP1 PUSH2 0x100 EXP SWAP1 DIV PUSH20 0xFFFFFFFFFFFFFFFFFFFFFFFFFFFFFFFFFFFFFFFF AND PUSH20 0xFFFFFFFFFFFFFFFFFFFFFFFFFFFFFFFFFFFFFFFF AND SELFDESTRUCT JUMPDEST PUSH1 0x0 PUSH1 0x1 PUSH1 0x0 SWAP1 SLOAD SWAP1 PUSH2 0x100 EXP SWAP1 DIV PUSH20 0xFFFFFFFFFFFFFFFFFFFFFFFFFFFFFFFFFFFFFFFF AND SWAP1 POP SWAP1 JUMP JUMPDEST PUSH1 0x1 PUSH1 0x0 SWAP1 SLOAD SWAP1 PUSH2 0x100 EXP SWAP1 DIV PUSH20 0xFFFFFFFFFFFFFFFFFFFFFFFFFFFFFFFFFFFFFFFF AND DUP2 JUMP JUMPDEST PUSH1 0x0 PUSH1 0x20 MSTORE DUP1 PUSH1 0x0 MSTORE PUSH1 0x40 PUSH1 0x0 KECCAK256 PUSH1 0x0 SWAP2 POP SWAP1 POP SLOAD DUP2 JUMP JUMPDEST PUSH1 0x0 DUP1 CALLER PUSH20 0xFFFFFFFFFFFFFFFFFFFFFFFFFFFFFFFFFFFFFFFF AND PUSH20 0xFFFFFFFFFFFFFFFFFFFFFFFFFFFFFFFFFFFFFFFF AND DUP2 MSTORE PUSH1 0x20 ADD SWAP1 DUP2 MSTORE PUSH1 0x20 ADD PUSH1 0x0 KECCAK256 SLOAD DUP2 GT ISZERO PUSH2 0x3ED JUMPI PUSH1 0x40 MLOAD PUSH32 0x8C379A000000000000000000000000000000000000000000000000000000000 DUP2 MSTORE PUSH1 0x4 ADD PUSH2 0x3E4 SWAP1 PUSH2 0x67A JUMP JUMPDEST PUSH1 0x40 MLOAD DUP1 SWAP2 SUB SWAP1 REVERT JUMPDEST DUP1 PUSH1 0x0 DUP1 CALLER PUSH20 0xFFFFFFFFFFFFFFFFFFFFFFFFFFFFFFFFFFFFFFFF AND PUSH20 0xFFFFFFFFFFFFFFFFFFFFFFFFFFFFFFFFFFFFFFFF AND DUP2 MSTORE PUSH1 0x20 ADD SWAP1 DUP2 MSTORE PUSH1 0x20 ADD PUSH1 0x0 KECCAK256 SLOAD PUSH2 0x437 SWAP2 SWAP1 PUSH2 0x73C JUMP JUMPDEST PUSH1 0x0 DUP1 CALLER PUSH20 0xFFFFFFFFFFFFFFFFFFFFFFFFFFFFFFFFFFFFFFFF AND PUSH20 0xFFFFFFFFFFFFFFFFFFFFFFFFFFFFFFFFFFFFFFFF AND DUP2 MSTORE PUSH1 0x20 ADD SWAP1 DUP2 MSTORE PUSH1 0x20 ADD PUSH1 0x0 KECCAK256 SLOAD LT ISZERO PUSH2 0x485 JUMPI PUSH2 0x484 PUSH2 0x7BE JUMP JUMPDEST JUMPDEST DUP1 PUSH1 0x0 DUP1 CALLER PUSH20 0xFFFFFFFFFFFFFFFFFFFFFFFFFFFFFFFFFFFFFFFF AND PUSH20 0xFFFFFFFFFFFFFFFFFFFFFFFFFFFFFFFFFFFFFFFF AND DUP2 MSTORE PUSH1 0x20 ADD SWAP1 DUP2 MSTORE PUSH1 0x20 ADD PUSH1 0x0 KECCAK256 PUSH1 0x0 DUP3 DUP3 SLOAD PUSH2 0x4D3 SWAP2 SWAP1 PUSH2 0x73C JUMP JUMPDEST SWAP3 POP POP DUP2 SWAP1 SSTORE POP DUP2 PUSH20 0xFFFFFFFFFFFFFFFFFFFFFFFFFFFFFFFFFFFFFFFF AND PUSH2 0x8FC DUP3 SWAP1 DUP2 ISZERO MUL SWAP1 PUSH1 0x40 MLOAD PUSH1 0x0 PUSH1 0x40 MLOAD DUP1 DUP4 SUB DUP2 DUP6 DUP9 DUP9 CALL SWAP4 POP POP POP POP ISZERO DUP1 ISZERO PUSH2 0x520 JUMPI RETURNDATASIZE PUSH1 0x0 DUP1 RETURNDATACOPY RETURNDATASIZE PUSH1 0x0 REVERT JUMPDEST POP POP POP JUMP JUMPDEST PUSH1 0x0 DUP2 CALLDATALOAD SWAP1 POP PUSH2 0x534 DUP2 PUSH2 0x873 JUMP JUMPDEST SWAP3 SWAP2 POP POP JUMP JUMPDEST PUSH1 0x0 DUP2 CALLDATALOAD SWAP1 POP PUSH2 0x549 DUP2 PUSH2 0x88A JUMP JUMPDEST SWAP3 SWAP2 POP POP JUMP JUMPDEST PUSH1 0x0 DUP2 CALLDATALOAD SWAP1 POP PUSH2 0x55E DUP2 PUSH2 0x8A1 JUMP JUMPDEST SWAP3 SWAP2 POP POP JUMP JUMPDEST PUSH1 0x0 PUSH1 0x20 DUP3 DUP5 SUB SLT ISZERO PUSH2 0x57A JUMPI PUSH2 0x579 PUSH2 0x81C JUMP JUMPDEST JUMPDEST PUSH1 0x0 PUSH2 0x588 DUP5 DUP3 DUP6 ADD PUSH2 0x525 JUMP JUMPDEST SWAP2 POP POP SWAP3 SWAP2 POP POP JUMP JUMPDEST PUSH1 0x0 DUP1 PUSH1 0x40 DUP4 DUP6 SUB SLT ISZERO PUSH2 0x5A8 JUMPI PUSH2 0x5A7 PUSH2 0x81C JUMP JUMPDEST JUMPDEST PUSH1 0x0 PUSH2 0x5B6 DUP6 DUP3 DUP7 ADD PUSH2 0x53A JUMP JUMPDEST SWAP3 POP POP PUSH1 0x20 PUSH2 0x5C7 DUP6 DUP3 DUP7 ADD PUSH2 0x54F JUMP JUMPDEST SWAP2 POP POP SWAP3 POP SWAP3 SWAP1 POP JUMP JUMPDEST PUSH2 0x5DA DUP2 PUSH2 0x782 JUMP JUMPDEST DUP3 MSTORE POP POP JUMP JUMPDEST PUSH2 0x5E9 DUP2 PUSH2 0x770 JUMP JUMPDEST DUP3 MSTORE POP POP JUMP JUMPDEST PUSH1 0x0 PUSH2 0x5FC PUSH1 0x11 DUP4 PUSH2 0x6D5 JUMP JUMPDEST SWAP2 POP PUSH2 0x607 DUP3 PUSH2 0x821 JUMP JUMPDEST PUSH1 0x20 DUP3 ADD SWAP1 POP SWAP2 SWAP1 POP JUMP JUMPDEST PUSH1 0x0 PUSH2 0x61F PUSH1 0x15 DUP4 PUSH2 0x6D5 JUMP JUMPDEST SWAP2 POP PUSH2 0x62A DUP3 PUSH2 0x84A JUMP JUMPDEST PUSH1 0x20 DUP3 ADD SWAP1 POP SWAP2 SWAP1 POP JUMP JUMPDEST PUSH2 0x63E DUP2 PUSH2 0x7B4 JUMP JUMPDEST DUP3 MSTORE POP POP JUMP JUMPDEST PUSH1 0x0 PUSH1 0x20 DUP3 ADD SWAP1 POP PUSH2 0x659 PUSH1 0x0 DUP4 ADD DUP5 PUSH2 0x5E0 JUMP JUMPDEST SWAP3 SWAP2 POP POP JUMP JUMPDEST PUSH1 0x0 PUSH1 0x20 DUP3 ADD SWAP1 POP PUSH2 0x674 PUSH1 0x0 DUP4 ADD DUP5 PUSH2 0x5D1 JUMP JUMPDEST SWAP3 SWAP2 POP POP JUMP JUMPDEST PUSH1 0x0 PUSH1 0x20 DUP3 ADD SWAP1 POP DUP2 DUP2 SUB PUSH1 0x0 DUP4 ADD MSTORE PUSH2 0x693 DUP2 PUSH2 0x5EF JUMP JUMPDEST SWAP1 POP SWAP2 SWAP1 POP JUMP JUMPDEST PUSH1 0x0 PUSH1 0x20 DUP3 ADD SWAP1 POP DUP2 DUP2 SUB PUSH1 0x0 DUP4 ADD MSTORE PUSH2 0x6B3 DUP2 PUSH2 0x612 JUMP JUMPDEST SWAP1 POP SWAP2 SWAP1 POP JUMP JUMPDEST PUSH1 0x0 PUSH1 0x20 DUP3 ADD SWAP1 POP PUSH2 0x6CF PUSH1 0x0 DUP4 ADD DUP5 PUSH2 0x635 JUMP JUMPDEST SWAP3 SWAP2 POP POP JUMP JUMPDEST PUSH1 0x0 DUP3 DUP3 MSTORE PUSH1 0x20 DUP3 ADD SWAP1 POP SWAP3 SWAP2 POP POP JUMP JUMPDEST PUSH1 0x0 PUSH2 0x6F1 DUP3 PUSH2 0x7B4 JUMP JUMPDEST SWAP2 POP PUSH2 0x6FC DUP4 PUSH2 0x7B4 JUMP JUMPDEST SWAP3 POP DUP3 PUSH32 0xFFFFFFFFFFFFFFFFFFFFFFFFFFFFFFFFFFFFFFFFFFFFFFFFFFFFFFFFFFFFFFFF SUB DUP3 GT ISZERO PUSH2 0x731 JUMPI PUSH2 0x730 PUSH2 0x7ED JUMP JUMPDEST JUMPDEST DUP3 DUP3 ADD SWAP1 POP SWAP3 SWAP2 POP POP JUMP JUMPDEST PUSH1 0x0 PUSH2 0x747 DUP3 PUSH2 0x7B4 JUMP JUMPDEST SWAP2 POP PUSH2 0x752 DUP4 PUSH2 0x7B4 JUMP JUMPDEST SWAP3 POP DUP3 DUP3 LT ISZERO PUSH2 0x765 JUMPI PUSH2 0x764 PUSH2 0x7ED JUMP JUMPDEST JUMPDEST DUP3 DUP3 SUB SWAP1 POP SWAP3 SWAP2 POP POP JUMP JUMPDEST PUSH1 0x0 PUSH2 0x77B DUP3 PUSH2 0x794 JUMP JUMPDEST SWAP1 POP SWAP2 SWAP1 POP JUMP JUMPDEST PUSH1 0x0 PUSH2 0x78D DUP3 PUSH2 0x794 JUMP JUMPDEST SWAP1 POP SWAP2 SWAP1 POP JUMP JUMPDEST PUSH1 0x0 PUSH20 0xFFFFFFFFFFFFFFFFFFFFFFFFFFFFFFFFFFFFFFFF DUP3 AND SWAP1 POP SWAP2 SWAP1 POP JUMP JUMPDEST PUSH1 0x0 DUP2 SWAP1 POP SWAP2 SWAP1 POP JUMP JUMPDEST PUSH32 0x4E487B7100000000000000000000000000000000000000000000000000000000 PUSH1 0x0 MSTORE PUSH1 0x1 PUSH1 0x4 MSTORE PUSH1 0x24 PUSH1 0x0 REVERT JUMPDEST PUSH32 0x4E487B7100000000000000000000000000000000000000000000000000000000 PUSH1 0x0 MSTORE PUSH1 0x11 PUSH1 0x4 MSTORE PUSH1 0x24 PUSH1 0x0 REVERT JUMPDEST PUSH1 0x0 DUP1 REVERT JUMPDEST PUSH32 0x6E6F7420656E6F7567682066756E64732E000000000000000000000000000000 PUSH1 0x0 DUP3 ADD MSTORE POP JUMP JUMPDEST PUSH32 0x796F7520617265206E6F7420746865206F776E65720000000000000000000000 PUSH1 0x0 DUP3 ADD MSTORE POP JUMP JUMPDEST PUSH2 0x87C DUP2 PUSH2 0x770 JUMP JUMPDEST DUP2 EQ PUSH2 0x887 JUMPI PUSH1 0x0 DUP1 REVERT JUMPDEST POP JUMP JUMPDEST PUSH2 0x893 DUP2 PUSH2 0x782 JUMP JUMPDEST DUP2 EQ PUSH2 0x89E JUMPI PUSH1 0x0 DUP1 REVERT JUMPDEST POP JUMP JUMPDEST PUSH2 0x8AA DUP2 PUSH2 0x7B4 JUMP JUMPDEST DUP2 EQ PUSH2 0x8B5 JUMPI PUSH1 0x0 DUP1 REVERT JUMPDEST POP JUMP INVALID LOG2 PUSH5 0x6970667358 0x22 SLT KECCAK256 0xAD 0xE1 0xF6 SELFDESTRUCT 0x24 0xAA 0xDE 0xC2 0xB1 PUSH23 0x80C1467E2512AF456CDC069F84C3C3666CB7D3E2630964 PUSH20 0x6F6C634300080700330000000000000000000000 "
				},
				"gasEstimates": {
					"creation": {
						"codeDepositCost": "457200",
						"executionCost": "24759",
						"totalCost": "481959"
					},
					"external": {
						"balanceReceived(address)": "2880",
						"destroySmartContract()": "32050",
						"getOwner()": "2544",
						"owner()": "2558",
						"receiveMoney()": "infinite",
						"withdrawMoney(address,uint256)": "infinite"
					}
				},
				"methodIdentifiers": {
					"balanceReceived(address)": "d18a42e1",
					"destroySmartContract()": "85474728",
					"getOwner()": "893d20e8",
					"owner()": "8da5cb5b",
					"receiveMoney()": "6d26ec18",
					"withdrawMoney(address,uint256)": "f274c897"
				}
			},
			"storageLayout": {
				"storage": [
					{
						"astId": 5,
						"contract": "FallBackExample.sol:FunctionsExample",
						"label": "balanceReceived",
						"offset": 0,
						"slot": "0",
						"type": "t_mapping(t_address,t_uint256)"
					},
					{
						"astId": 7,
						"contract": "FallBackExample.sol:FunctionsExample",
						"label": "owner",
						"offset": 0,
						"slot": "1",
						"type": "t_address_payable"
					}
				],
				"types": {
					"t_address": {
						"encoding": "inplace",
						"label": "address",
						"numberOfBytes": "20"
					},
					"t_address_payable": {
						"encoding": "inplace",
						"label": "address payable",
						"numberOfBytes": "20"
					},
					"t_mapping(t_address,t_uint256)": {
						"encoding": "mapping",
						"key": "t_address",
						"label": "mapping(address => uint256)",
						"numberOfBytes": "32",
						"value": "t_uint256"
					},
					"t_uint256": {
						"encoding": "inplace",
						"label": "uint256",
						"numberOfBytes": "32"
					}
				}
			},
			"userdoc": {
				"kind": "user",
				"methods": {},
				"version": 1
			}
		}
	}
}